:020000040801F1
:1000000000070020290201081D1F01084B1D0108DF
:10001000191F01081F040108ED2901080000000054
:10002000000000000000000000000000B1220108F4
:100030007504010800000000211F0108B322010817
:100040004302010843020108430201084302010878
:100050004302010843020108430201084302010868
:100060004302010843020108430201084302010858
:100070004302010843020108430201084302010848
:100080004302010843020108430201084302010838
:100090004302010843020108430201084302010828
:1000A0004302010843020108430201084302010818
:1000B0004302010843020108430201084302010808
:1000C00043020108430201084302010843020108F8
:1000D0004302010843020108DD2901084302010827
:1000E00043020108430201084302010843020108D8
:1000F00043020108430201084302010843020108C8
:1001000043020108430201084302010843020108B7
:1001100043020108430201084302010843020108A7
:100120004302010843020108430201084302010897
:100130004302010843020108430201084302010887
:100140004302010843020108430201084302010877
:100150004302010843020108430201084302010867
:100160004302010843020108430201084302010857
:100170004302010843020108430201080000000095
:10018000430201084302010800F002F800F03CF8C5
:100190000AA090E8000C82448344AAF10107DA45E2
:1001A00001D100F031F8AFF2090EBAE80F0013F0F8
:1001B000010F18BFFB1A43F001031847642A00001F
:1001C000842A0000103A24BF78C878C1FAD85207B0
:1001D00024BF30C830C144BF04680C6070470000C1
:1001E0000023002400250026103A28BF78C1FBD840
:1001F000520728BF30C148BF0B6070471FB502F0DF
:10020000E5FC1FBD10B510BD00F0CFF81146FFF79B
:10021000F5FF02F0C5FC00F0EDF803B4FFF7F2FFC4
:1002200003BC00F0F5F80000094880470948004782
:10023000FEE7FEE7FEE7FEE7FEE7FEE7FEE7FEE796
:10024000FEE7FEE704480549054A064B70470000F3
:100250002D2301088901010800010020000700206A
:10026000000300200003002053EA020C00F0698024
:100270002DE9F04B4FF00006002B1FBFB3FA83F5BA
:1002800003FA05F424FA05F65E4012BF1643B2FAEB
:1002900082F502FA05F4C5F120051EBF22FA05FC1D
:1002A00044EA0C04203556EA044C4FEA144418BFC3
:1002B000641C4FF000084FF00009904271EB030CF2
:1002C00039D3002919BFB1FA81F701FA07F6B0FA5C
:1002D00080F700FA07F6C7F120071EBF20FA07FCD7
:1002E00046EA0C062037B6FBF4FCA7EB0507103FE7
:1002F00007F01F0BCBF120060CFA0BFB2CFA06F6CD
:1003000044BFB3460026202FA4BF5E464FF0000B2B
:100310005BEA060C08BF4FF0010B19EB0B09ABFBB6
:10032000027C48EB0608C01B06FB02CC0BFB03CC8F
:1003300071EB0C01C1E70B46024641464846BDE859
:10034000F08B13B54FF000004FF00001AFF30080C9
:10035000BDE81C4070474FF0000200B513469446BC
:100360009646203922BFA0E80C50A0E80C50B1F10D
:100370002001BFF4F7AF090728BFA0E80C5048BF21
:100380000CC05DF804EB890028BF40F8042B08BFBF
:10039000704748BF20F8022B11F0804F18BF00F8BB
:1003A000012B7047704770477047754600F02CF876
:1003B000AE4605006946534620F00700854618B052
:1003C00020B5FFF73FFFBDE820404FF000064FF09B
:1003D00000074FF000084FF0000B21F00701AC467A
:1003E000ACE8C009ACE8C009ACE8C009ACE8C00999
:1003F0008D46704710B50446AFF300802046BDE837
:100400001040FFF70ABF0000004870479C00002022
:1004100001491820ABBEFEE726000200704700BF6E
:10042000FEE7000010B501F093FC00224FF480714C
:100430000E4800F0B1F9012280210C4800F0ACF91F
:1004400001224021094800F0A7F9022000F024F819
:1004500000BF0748006800F400400028F9D10022DE
:100460004021024800F098F910BD00000008004843
:10047000100C0048704710B5044607E04FF4FA70BE
:1004800000F00AF84FF4FA7000F006F8201EA4F10C
:100490000104F3D110BD000070B5034600224FF0F7
:1004A000E02675690D4E368803FB06F44FF0E02612
:1004B000B16910E04FF0E026B06988420BD0884265
:1004C00002D20E1A324402E02E1A0E443244014681
:1004D000A24200D300E0EDE700BF70BD1000002095
:1004E00072B600BFFEE70146002291F825000228FF
:1004F00008D00420C86300BF002081F8240000BF9A
:10050000012070470868006820F00E000B68186032
:100510000868006820F001000B68186091F844003A
:1005200000F01C03012098400B6C5860012081F8FA
:10053000250000BF002081F8240000BF1046E0E73E
:1005400070B50446002594F82500022803D0042045
:10055000E063012520E02068006820F00E0021689B
:1005600008602068006820F001002168086094F8A5
:10057000440000F01C0101208840216C48600120EB
:1005800084F8250000BF002084F8240000BFA06B81
:1005900010B12046A16B8847284670BD78B5024649
:1005A0000B460021DFE001268E401D6805EA0604A7
:1005B000002C7DD01D7905F00305012D04D01D7997
:1005C00005F00305022D13D190684E000325B540B8
:1005D000A8434E00DD68B54028439060506801256F
:1005E0008D40A8431D79C5F300158D402843506008
:1005F0001D7905F00305032D09D1D06A01258D4031
:10060000A8431D79C5F3C0058D402843D0621D79EC
:1006100005F00305032D09D0D0684E000325B54031
:10062000A8434E009D68B5402843D0601D7905F071
:100630000305022D13D1CE0802F1200555F826003E
:100640004D07EE0E0F25B540A8434E07F60E1D6967
:10065000B5402843CE0802F1200545F82600106871
:100660004E000325B540A8431D7905F003054E0053
:10067000B540284310605D6805F44035002D71D009
:1006800000BF3C4D2D6E45F001053A4E35663546AE
:100690002D6E05F00105009500BF00BF4FEAB6358D
:1006A0008E0855F826008D072E0F0F25B54000E067
:1006B00058E0A843B2F1904F01D100251EE02E4D25
:1006C000AA4201D1012519E02C4DAA4201D10225EF
:1006D00014E02B4DAA4201D103250FE0294DAA4277
:1006E00001D104250AE0284DAA4201D1052505E0E3
:1006F000264DAA4201D1062500E007258E07360FB8
:10070000B5402843224D8E0845F82600214D286823
:10071000A0435D6805F4801505B120431D4D286098
:100720002D1D2868A0435D6805F4001505B1204320
:10073000184D2D1D2860174D2D1F2868A0435D689A
:1007400005F4003505B12043124D2D1F28602D1FE3
:100750002868A0435D6805F4803505B120430D4D40
:10076000083D2860491C1D68CD40002D7FF41BAF5B
:1007700078BD000000100240000400480008004856
:10078000000C004800100048001400480018004801
:1007900008000140080401400AB1816100E0816263
:1007A000704700000148006870470000000000200A
:1007B0000348006803490978084401490860704704
:1007C000000000200800002010B50024032000F0E5
:1007D000ADF80F2000F008F808B1012401E000F0A6
:1007E0002FF8204610BD000070B5044600251148C2
:1007F0000078D8B10F4800784FF47A71B1FBF0F06F
:100800000D490968B1FBF0F6304601F049F858B9D6
:10081000102C07D200222146501E00F045F8074850
:10082000046004E0012502E0012500E001252846DE
:1008300070BD0000080000200C0000200400002013
:1008400008B500BF0D48006E40F001000B49086676
:100850000846006E00F00100009000BF00BF00BF1E
:100860000846806D40F0805088650846806D00F035
:100870008050009000BF00BF08BD00000010024083
:100880000146084600280DDB00BF00BF00F01F0333
:1008900001229A4043099B0003F1E023C3F80021A1
:1008A00000BF00BF00BF70472DE9F05F80460D46D6
:1008B0001646002702F09CF8074639462A4633467A
:1008C00001F00700C0F1070ABAF1040F02D94FF096
:1008D000040A01E0C0F1070AD14600F1040ABAF1A6
:1008E000070F02D24FF0000A01E0A0F1030AD4463C
:1008F0004FF0010A0AFA09FAAAF1010A0AEA020A01
:100900000AFA0CFA4FF0010B0BFA0CFBABF1010BDE
:100910000BEA030B4AEA0B042146404602F070F84A
:1009200000F000B830BCBDE8C09F000000BF00F080
:100930000702064B19684FF6FF031940044B0B439F
:1009400043EA0221014B196000BF70470CED00E043
:100950000000FA050246B2F5007F2AD11D48006862
:1009600000F4C060B0F5007F32D01A48006820F46F
:10097000C06040F40070174B1860174800683223BD
:100980005843164BB0FBF3F0411C00E0491E1148E0
:10099000406900F48060B0F5806F01D10029F5D185
:1009A0000C48406900F48060B0F5806F10D10320DE
:1009B00070470848006800F4C060B0F5806F07D049
:1009C0000448006820F4C06040F48060014B186067
:1009D0000020EDE7007000400C00002040420F00B6
:1009E0000248006800F4C0607047000000700040DA
:1009F0002DE9F84304460025A846208800F400604D
:100A0000B0F5006F30D1606E80B1B0F5800F13D0BB
:100A1000B0F5000F03D0B0F5400F15D113E0FB483F
:100A2000C06840F48030F949C8600FE00021201D03
:100A300001F078FA054609E0002104F1200001F0F8
:100A400037FB054602E001E0012500BF00BF55B9B4
:100A5000EE488830006820F44000616E0843EB499E
:100A6000C1F8880000E0A846208800F48050B0F566
:100A7000805F30D1A06E80B1B0F1807F13D0B0F133
:100A8000007F03D0B0F1407F15D113E0DF48C0688C
:100A900040F48030DD49C8600FE00021201D01F0E6
:100AA00041FA054609E0002104F1200001F000FBB5
:100AB000054602E001E0012500BF00BF55B9D3485B
:100AC0008830006820F04070A16E0843CF49C1F81B
:100AD000880000E0A846206800F40030B0F5003F30
:100AE00077D14FF00009C948806D012121EA1070CB
:100AF00078B100BFC548806D40F08050C34988651B
:100B00000846806D00F08050009000BF00BF4FF09D
:100B10000109BF48006840F48070BD490860FFF7D4
:100B200041FE074606E0FFF73DFEC01B022801D943
:100B3000032505E0B648006800F480700028F2D074
:100B400000BF85BBB1489030006800F44076D6B154
:100B5000D4F88400B04216D0AC489030006820F43D
:100B60004076AA48D0F8900040F48030A749C1F8F8
:100B700090000846D0F8900020F48030C1F8900032
:100B80000846C0F8906006F00100A8B1FFF70AFE21
:100B9000074609E0FFF706FEC01B41F28831884294
:100BA00002D9032507E017E098489030006800F06C
:100BB00002000028EED000BF65B99448903000686C
:100BC00020F44070D4F8841008439049C1F8900094
:100BD00003E00CE0A84600E0A846B9F1010F05D1FA
:100BE0008A48806D20F080508849886500BF207851
:100BF00000F0010048B185488830006820F003000B
:100C0000A16B08438149C1F88800207800F00200F8
:100C1000022809D17D488830006820F00C00E16B83
:100C200008437A49C1F88800207800F004000428BD
:100C300009D176488830006820F03000216C0843E4
:100C40007249C1F88800207800F00800082809D10E
:100C50006E488830006820F0C000616C08436B4922
:100C6000C1F88800207800F01000102809D16748EA
:100C70008830006820F44070A16C08436349C1F8D3
:100C80008800207800F02000202809D15F488830B3
:100C9000006820F44060E16C08435C49C1F88800BA
:100CA000208800F40070B0F5007F09D157488830E3
:100CB000006820F44020E16D08435449C1F88800E1
:100CC000208800F48060B0F5806F09D14F488830EB
:100CD000006820F44010216E08434C49C1F8880098
:100CE000207800F04000402809D14848883000684A
:100CF00020F44050216D08434449C1F88800207811
:100D000000F08000802809D140488830006820F435
:100D10004040616D08433D49C1F88800208800F4D7
:100D20008070B0F5807F09D138488830006820F4A1
:100D30004030A16D08433549C1F88800208800F48F
:100D40000050B0F5005F1FD130488830006820F0B7
:100D50004060E16E08432D4988310860E06EB0F1D3
:100D6000006F06D12948C06840F480102749C86048
:100D70000AE0E06EB0F1806F06D10121201D01F084
:100D8000D1F8054605B1A846206800F40020B0F56A
:100D9000002F1FD11D488830006820F04060216F6F
:100DA00008431A4988310860206FB0F1006F06D1FE
:100DB0001648C06840F480101449C8600AE0206FEB
:100DC000B0F1806F06D10121201D01F0ABF805467E
:100DD00005B1A846206800F48020B0F5802F24D10A
:100DE0000A488830006820F04060616F0843074976
:100DF00088310860606FB0F1006F0BD10348C068A4
:100E000040F480100149C8600FE00000001002406B
:100E100000700040606FB0F1806F06D10121201D8D
:100E200001F080F8054605B1A846208800F480400E
:100E3000B0F5804F1FD12248006820F04050A16FCC
:100E400008431F490860A06FB0F1805F07D10221FD
:100E5000201D01F067F805466DB1A8460BE0A06FB4
:100E6000B0F1005F07D1022104F1200001F020F968
:100E7000054605B1A846208800F40040B0F5004FB3
:100E800009D10F48006820F08040E16F08430C4909
:100E90008839C1F88800206800F48030B0F5803FC0
:100EA0000AD10748006820F00040D4F880100843B9
:100EB00003498839C1F888004046BDE8F88300003E
:100EC000881002402DE9F04104460D4614B9012076
:100ED000BDE8F0816348006800F00700A8420ED228
:100EE0006048006820F0070028435E490860084613
:100EF000006800F00700A84201D00120E8E7207850
:100F000000F0020002280ED15749A068896801F05C
:100F1000F001884207D95448806820F0F000A168A9
:100F2000084351498860207800F0010078B3606878
:100F3000032806D14C48006800F00070D8B90120A1
:100F4000C6E76068022806D14748006800F4003010
:100F500088B90120BCE7606830B94348006800F0F8
:100F6000020040B90120B3E73F48006800F4806008
:100F700008B90120ACE73C48806820F003006168B4
:100F8000084339498860FFF70DFC064609E010E088
:100F9000FFF708FC801B41F28831884201D9032009
:100FA00096E73148806800F00C006168B0EB810F73
:100FB000EED1207800F0020002280ED12A49A06864
:100FC000896801F0F001884207D22748806820F044
:100FD000F000A1680843244988602248006800F0B6
:100FE0000700A8420ED91F48006820F007002843D8
:100FF0001C4908600846006800F00700A84201D0BC
:10100000012065E7207800F00400042807D1164885
:10101000806820F4E060E168084313498860207824
:1010200000F00800082808D10F48806820F46050BC
:10103000216940EAC1000C49886000F047F80A497C
:101040008968C1F30311094A515C01F01F01C840CE
:101050000749086007480068FFF7C6FB074638469F
:1010600036E700000020024000100240D82B0108A3
:101070000C000020040000200148006870470000B8
:101080000C00002000B5FFF7F7FF05498968C1F3A0
:101090000221044A515C01F01F01C84000BD00005C
:1010A00000100240E82B010800B5FFF7E5FF0549F5
:1010B0008968C1F3C221044A515C01F01F01C84094
:1010C00000BD000000100240E82B0108F0B500232D
:1010D0000020DFF8D4C0DCF808C00CF00C01DFF809
:1010E000C8C0DCF80CC00CF0030719B10C291ED1E4
:1010F000012F1CD1DFF8B0C0DCF800C00CF0080CE8
:10110000BCF1000F06D1DFF8A0C0DCF894C0CCF32E
:10111000032305E0DFF890C0DCF800C0CCF3031334
:10112000DFF888C05CF8233041B9184606E004298E
:1011300001D11F4802E0082900D11E480C2932D1F4
:10114000DFF864C0DCF80CC00CF00304012C09D0FB
:10115000022C02D0032C04D101E0154A04E0154A08
:1011600002E000BF1A4600BF00BFDFF83CC0DCF859
:101170000CC0CCF3021C0CF10106DFF82CC0DCF82B
:101180000CC0CCF3062C0CFB02FCBCFBF6F2DFF827
:1011900018C0DCF80CC0CCF3416C0CF1010C4FEA28
:1011A0004C05B2FBF5F0F0BD00100240F02B010839
:1011B0000024F40000127A002DE9F843044614B923
:1011C0000120BDE8F883F948806800F00C06F74874
:1011D000C06800F00307207800F01000102877D1D5
:1011E0001EB10C2E76D1012F74D1F048006800F0AA
:1011F000020018B1A06908B90120E2E7EB48216AB2
:10120000006800F0080020B1E848006800F0F00035
:1012100005E0E6489430006800F4706000098142FF
:101220001FD9206A00F0F6FF08B10120C9E700BF0E
:10123000DE48006840F00800DC49086008460068A5
:1012400020F0F000216A0843D849086000BF084632
:10125000406820F47F40E16940EA0120D3494860BA
:101260001FE000BFD148006840F00800CF49086087
:101270000846006820F0F000216A0843CB49086066
:1012800000BF0846406820F47F40E16940EA012041
:10129000C64948602EB9206A00F0BCFF08B10120A1
:1012A0008FE7FFF713FFC1498968C1F30311C04AF3
:1012B000515C01F01F01C840BE490860BE4800688B
:1012C000FFF792FA8046B8F1000F4ED0404678E71B
:1012D0004BE0FFE7A06980B3B448006840F001002C
:1012E000B2490860FFF75EFA054606E0FFF75AFAD2
:1012F000401B022801D9032063E7AC48006800F0D6
:1013000002000028F2D000BFA848006840F00800A2
:10131000A64908600846006820F0F000216A0843EA
:10132000A249086000BF0846406820F47F40E16998
:1013300040EA01209D49486017E0FFE79B480068AC
:1013400020F0010099490860FFF72CFA054606E0F5
:10135000FFF728FA401B022801D9032031E7934800
:10136000006800F002000028F2D1207800F00100AF
:1013700000285CD0082E03D00C2E0AD1032F08D1F0
:101380008A48006800F4003088B3606878BB0120A8
:1013900017E700BF6068B0F5803F06D1834800685A
:1013A00040F48030814908601AE06068B0F5A02FF1
:1013B0000BD17E48006840F480207C4908600846D4
:1013C000006840F4803008600AE07848006820F443
:1013D0008030764908600846006820F48020086064
:1013E00000BF606890B1FFF7DDF9054607E01EE039
:1013F000FFF7D8F9401B642801D90320E1E66B48C8
:10140000006800F400300028F2D010E0FFF7CAF9BD
:10141000054606E0FFF7C6F9401B642801D9032002
:10142000CFE66248006800F400300028F2D120784E
:1014300000F00200022852D1042E03D00C2E14D149
:10144000022F12D15948006800F4806018B1E0689A
:1014500008B90120B5E65548406820F0F850217CD5
:1014600040EA01605149486039E0E06800B34F4804
:10147000006840F480704D490860FFF793F9054615
:1014800006E0FFF78FF9401B022801D9032098E6F8
:101490004648006800F480600028F2D04348406865
:1014A00020F0F850217C40EA01604049486016E095
:1014B0003E48006820F480703C490860FFF772F9EC
:1014C000054606E0FFF76EF9401B022801D903200C
:1014D00077E63648006800F480600028F2D1207872
:1014E00000F00800082836D16069D0B12F48943048
:1014F000006840F001002D49C1F89400FFF752F94F
:10150000054606E0FFF74EF9401B022801D90320EB
:1015100057E626489430006800F002000028F1D019
:1015200019E022489430006820F001001F49C1F8FA
:101530009400FFF737F9054606E0FFF733F9401B43
:10154000022801D903203CE618489430006800F0D6
:1015500002000028F1D1207800F00400042872D1A4
:101560004FF000091148806D00F0805078B900BF3D
:101570000E48806D40F080500C4988650846806DAB
:1015800000F08050009000BF00BF4FF001090B48F1
:10159000006800F4807000BB0848006840F4807068
:1015A00006490860FFF7FEF8054610E0001002400B
:1015B000D82B01080C00002004000020007000401F
:1015C000FFF7F0F8401B022801D90320F9E5B048E5
:1015D000006800F480700028F2D000BFA0680128E5
:1015E00008D1AC48006840F00100AA499039C1F820
:1015F000900021E0A06805280FD1A648006840F0BF
:101600000400A4499039C1F890000846D0F8900031
:1016100040F00100C1F890000EE09E48006820F004
:1016200001009C499039C1F890000846D0F890001C
:1016300020F00400C1F8900000BFA068A0B1FFF73F
:10164000B1F8054609E02EE0FFF7ACF8401B41F287
:101650008831884201D90320B3E58E48006800F044
:1016600002000028F0D012E0FFF79CF8054608E0E1
:10167000FFF798F8401B41F28831884201D90320D6
:101680009FE58448006800F002000028F0D1B9F11D
:10169000010F07D17F489038806D20F080507D4940
:1016A0009039886500BFA06A00287DD0A06A022812
:1016B0007BD178489038C76807F00301E06A81421F
:1016C00028D107F07001206B401EB1EB001F21D123
:1016D00007F4FE41606BB1EB002F1BD107F4003122
:1016E000A06B072801D0012000E00020814211D129
:1016F00007F4C001A08F0122C2EB5000B1EB405FA4
:1017000008D107F0C0614020005DC2EB5000B1EB92
:10171000406F6CD00C2E68D05E489038006800F0A6
:10172000806028B95B489038006800F0805008B1AC
:10173000012046E557489038006820F080705549F0
:1017400090390860FFF72EF8054606E0FFF72AF803
:10175000401B022801D9032033E54E489038006829
:1017600000F000700028F1D1D4E90B10401E41EACE
:101770000011606B41EA0021A08F0122C2EB5000F2
:1017800041EA40514020005DC2EB500041EA406117
:10179000A06B000941EA40403E499039C9683E4A81
:1017A000114008433B4901E05CE046E09039C860E5
:1017B0000846006840F0807008600846C06840F045
:1017C0008070C860FEF7EEFF054606E0FEF7EAFF10
:1017D000401B022801D90320F3E42E48903800680A
:1017E00000F000700028F1D04FE00120E9E4294822
:1017F0009038006800F00070A0BB26489038006860
:1018000040F080702349903908600846C06840F075
:101810008070C860FEF7C6FF054606E0FEF7C2FF0F
:10182000401B022801D90320CBE41A4890380068F5
:1018300000F000700028F1D027E00C2E23D01548CE
:101840009038006820F08070124990390860FEF7E7
:10185000A9FF054607E0FEF7A5FF401B022802D9B5
:101860000320AEE411E00B489038006800F00070EF
:101870000028F0D107489038C06808490840054959
:101880009039C86001E001209BE4002099E4000049
:1018900000700040901002408C809DF9FCFFEEFE2D
:1018A00070B504462546681EB0F1807F01D3012043
:1018B0000FE0681E4FF0E02148610F214FF0FF302C
:1018C00001F09EF800204FF0E021886107200861B8
:1018D000002070BD70477047704700002DE9F04749
:1018E00004462068C569206806682068876840F655
:1018F0000F0005EA0009B9F1000F0CD105F0200036
:1019000048B106F0200030B1A06E10B12046A16EA3
:101910008847BDE8F087B9F1000F7DD007F00100DE
:1019200018B9C14830400028F7D005F0010058B17F
:1019300006F4807040B1012021680862D4F8840068
:1019400040F00100C4F8840005F0020058B107F02F
:10195000010040B1022021680862D4F8840040F000
:101960000400C4F8840005F0040058B107F0010039
:1019700040B1042021680862D4F8840040F00200DD
:10198000C4F8840005F0080070B106F0200010B91A
:1019900007F0010040B1082021680862D4F88400F3
:1019A00040F00800C4F8840005F4006060B106F05F
:1019B000806048B14FF4006021680862D4F8840068
:1019C00040F02000C4F88400D4F8840000284BD0F4
:1019D00005F0200038B106F0200020B1A06E10B153
:1019E0002046A16E8847D4F884A02068806800F063
:1019F0004000402802D00AF0280070B3204600F0D2
:101A00009AFD2068806800F04000402821D100BF86
:101A100000BF2168083100E027E051E8001F21F0F5
:101A200040002168083141E80002002AF1D100BFDE
:101A3000606F50B17D48616F8863606FFEF780FD15
:101A400090B1606F816B88470EE02046FFF744FF3E
:101A50000AE02046FFF740FF06E0FFE72046FFF7D9
:101A60003BFF0020C4F8840053E7206E012872D1A8
:101A700005F0100000286ED006F010000028FAD003
:101A80001020216808622068806800F0400040282B
:101A900062D1606F006840681FFA80F8B8F1000FEB
:101AA00058D0B4F85800404554DDA4F85A80606F0F
:101AB0000068006800F02000F0BB00BF00BF216894
:101AC00051E8001F21F48070226842E800010029DB
:101AD000F5D100BF00BF00BF2168083151E8001FE9
:101AE00021F001002168083141E80002002AF3D109
:101AF00000BF00BF00BF2168083151E8001F21F07E
:101B000040002168083141E80002002AF3D100BFFB
:101B10002020C4F880000020206600BF00BF21689C
:101B200051E8001F21F01000226842E8000100295E
:101B3000F5D100BF606F00E001E0FEF7D4FC0220A9
:101B40006066B4F85800B4F85A20801A81B2204672
:101B5000FFF7C0FEDDE641E034F8580F6188401A17
:101B60001FFA80F86088583CB8B3B8F1000F34D041
:101B700000BF00BF216851E8001F21F49070226867
:101B800042E800010029F5D100BF00BF00BF216875
:101B9000083151E8001F21F001002168083141E8B7
:101BA0000002002AF3D100BF2020C4F880000020EA
:101BB0002066A06600BF00BF216851E8001F21F029
:101BC0001000226842E800010029F5D100BF022080
:101BD000606641462046FFF77DFE9AE605F48010D8
:101BE00050B107F4800038B14FF4801021680862CA
:101BF0002046FFF770FE8CE605F0800040B106F04D
:101C0000800028B1E06E10B12046E16E884780E682
:101C100005F0400030B106F0400018B1204600F059
:101C2000BDFC76E600BF74E6200100041F25010814
:101C300010B504460CB9012010BDA06900B100E048
:101C400000BFE06F28B9002084F87800204600F03B
:101C500029F82420E0672068006820F0010021684E
:101C60000860606A10B1204600F06AFB204600F070
:101C7000ADFC012800D1DFE72068406820F49040E7
:101C8000216848602068806820F02A002168886008
:101C90002068006840F0010021680860204600F0DC
:101CA000CBFBC9E710B5A8B00446142123A8FEF762
:101CB00052FB882101A8FEF74EFB2149206888428B
:101CC0003BD1022001900020109001A8FEF790FE69
:101CD00008B1FEF705FC00BF1A48806D40F40030E3
:101CE000184988650846806D00F40030009000BFF8
:101CF00000BF00BF0846C06C40F00100C864084641
:101D0000C06C00F00100009000BF00BF0C202390C9
:101D10000220249000202590032026900720279061
:101D200023A94FF09040FEF739FC002211462620EF
:101D3000FEF7BAFD2620FEF7A3FD28B010BD000077
:101D40000044004000100240704700BFFEE7000062
:101D500000B585B014216846FEF7FDFA4FF47F40C8
:101D6000009000200190029069460248FEF716FCA0
:101D700005B000BD000C004800B585B014216846D0
:101D8000FEF7E9FA4FF47F40009001200190002017
:101D900002900220039069460248FEF7FFFB05B05F
:101DA00000BD0000000C004870B504460D46072C2D
:101DB00001DC032D01DD012070BD302000F01AF898
:101DC00025B944F0800000F015F811E0012D04D190
:101DD00044F0900000F00EF80AE0022D04D144F027
:101DE000880000F007F803E044F0980000F002F8E3
:101DF0000020E1E770B50446FEF714FBFFF7BCFFD7
:101E000000224FF480711148FEF7C6FC00228021A9
:101E10000E48FEF7C1FC4FF6FF7000EA04250C489F
:101E20000068C0B228430A4908606420FEF734FB0A
:101E3000012240210548FEF7AFFCFA20FEF72CFBFB
:101E4000002240210148FEF7A7FC70BD00080048B1
:101E5000140C004870B50446FEF7E4FAFFF78CFF57
:101E6000012211021148FEF797FC002280210F4841
:101E7000FEF792FC4FF6FF7000EA04250C4800685C
:101E8000C0B228430A4908606420FEF705FB01221E
:101E900040210648FEF780FCFA20FEF7FDFA0022FA
:101EA00040210248FEF778FC70BD000000080048A1
:101EB000140C004808B500BF0648C06C40F0010093
:101EC0000449C8640846C06C00F00100009000BFDF
:101ED00000BF08BD0010024010B50D480D49086054
:101EE0004FF41650486000210A488160C1600161CA
:101EF0000C21416100218161C1610162002005491D
:101F000048620846FFF794FE08B1FEF7E9FA10BDF3
:101F1000004400401400002000BFFEE700BFFEE7C1
:101F2000704700002DE9F04104460F4600255C484B
:101F3000C06800F0030090B15948C06800F0030089
:101F40002168884209D1206838B15548C068C0F37B
:101F50000210401C6168884233D0012531E02068BE
:101F6000012804D0022809D003281AD10DE04C48DA
:101F7000006800F0020000B9012514E0484800683C
:101F800000F4806000B901250DE04548006800F4C8
:101F9000003028B94248006800F4802000B90125CB
:101FA00001E0012500BF00BF5DB9D4E90010401E6B
:101FB00041EA00103A49C96821F0730108433849E1
:101FC000C860002D68D13648006820F08060344930
:101FD0000860FEF7E7FB064606E0FEF7E3FB801B22
:101FE000022801D9032505E02D48006800F00060B3
:101FF0000028F2D100BFCDBB6FB9A0680002E16834
:10200000090940EA414026490969264A1140084326
:102010002349086120E0012F0FD1A0680002218A26
:102020000122C2EB510140EA41501D4909691E4A93
:10203000114008431A4908610EE0A0680002217DA2
:102040000122C2EB510140EA416015490969174A72
:1020500011400843124908611148006840F080604F
:102060000F490860FEF79EFB064607E014E0FEF706
:1020700099FB801B022801D9032505E00848006868
:1020800000F000600028F2D000BF2DB904480069BC
:10209000A1690843024908612846BDE8F0810000B3
:1020A00000100240FF80FDFFFF809FFFFF80FFF9CF
:1020B0002DE9F04104460F4600255348C06800F062
:1020C000030090B15048C06800F0030021688842C6
:1020D00009D1206838B14C48C068C0F30210401CD8
:1020E0006168884233D0012531E02068012804D09E
:1020F000022809D003281AD10DE04348006800F0F7
:10210000020000B9012514E03F48006800F4806037
:1021100000B901250DE03C48006800F4003028B902
:102120003948006800F4802000B9012501E001254C
:1021300000BF00BF5DB9D4E90010401E41EA0010A5
:102140003149C96821F0730108432F49C860002D47
:1021500056D12D48006820F080502B490860FEF7CA
:1021600021FB064606E0FEF71DFB801B022801D975
:10217000032505E02448006800F000500028F2D153
:1021800000BF75BB6FB9A0680002E168090940EAA9
:1021900041401D4949691D4A114008431A49486197
:1021A0000EE0A0680002217C0122C2EB510140EA4E
:1021B000416015494969164A11400843124948616E
:1021C0001148006840F080500F490860FEF7EAFAB5
:1021D000064607E0FEF7E6FA801B022802D903252F
:1021E00006E00DE00848006800F000500028F1D03B
:1021F00000BF2DB90448406961690843024948613C
:102200002846BDE8F081000000100240FF80FDFF7D
:10221000FF80FFF9F8B5044600262348806D00F0E2
:10222000805018B1FEF7DCFB054616E000BF1E48E3
:10223000806D40F080501C4988650846806D00F034
:102240008050009000BF00BFFEF7CAFB054616484D
:10225000806D20F0805014498865B5F5007F07D166
:10226000802C10D9A02C01D902260CE001260AE00E
:10227000802C01D9032606E0802C01D1022602E041
:10228000702C00D101260948006820F00700304377
:10229000064908600846006800F00700B04201D017
:1022A0000120F8BD0020FCE70010024000200240A1
:1022B000704710B5FEF77CFA10BD000000B597B06E
:1022C000184819490860442106A8FEF744F814216B
:1022D00001A8FEF740F84FF40070FEF73BFB08B191
:1022E000FEF7FEF81020069001200C9000200D90C3
:1022F00060200E900020109006A8FEF75DFF08B148
:10230000FEF7EEF80F200190002002900390049059
:102310000590002101A8FEF7D5FD08B1FEF7E0F811
:1023200017B000BD0068000808ED00E00348006831
:1023300040F47000014908607047000088ED00E03B
:1023400090F8241001F00801082907D101684968B4
:1023500021F40041426B11430268516090F824104F
:1023600001F0010139B10168496821F40031826A44
:1023700011430268516090F8241001F00201022913
:1023800007D10168496821F48031C26A11430268AB
:10239000516090F8241001F00401042907D101686C
:1023A000496821F48021026B11430268516090F862
:1023B000241001F01001102907D10168896821F467
:1023C0008051826B11430268916090F8241001F0F3
:1023D0002001202907D10168896821F40051C26BCE
:1023E00011430268916090F8241001F040014029E7
:1023F00013D10168496821F48011026C114302680D
:102400005160016CB1F5801F07D10168496821F462
:10241000C001426C11430268516090F8241001F031
:102420008001802907D10168496821F40021826C6C
:10243000114302685160704738B504460020C4F863
:102440008400FEF7AFF905462068006800F0080038
:10245000082820D16FF07E402B4600224FF4001157
:102460000090204600F069FAA8B100BF00BF2168C3
:1024700051E8001F21F08000226842E80001002995
:10248000F5D100BF2020E06700BF002084F878006D
:1024900000BF032038BD2068006800F00400042855
:1024A00030D16FF07E402B4600224FF48001009027
:1024B000204600F042FA28B300BF00BF216851E86F
:1024C000001F21F49070226842E800010029F5D134
:1024D00000BF00BF00BF2168083151E8001F21F094
:1024E00001002168083141E80002002AF3D100BF51
:1024F0002020C4F8800000BF002084F8780000BFCE
:102500000320C7E72020E067C4F880000020206691
:10251000606600BF84F8780000BF00BFBAE770B5FE
:102520000546AC6A0020A4F85A00A4F852002046E0
:10253000FFF7D2F970BD00BF00BF026852E8002F5C
:1025400022F49071036843E80012002AF5D100BF1D
:1025500000BF00BF0268083252E8002F22F00101DC
:102560000268083242E80013002BF3D100BF016E6D
:1025700001290CD100BF00BF026852E8002F22F0F1
:102580001001036843E80012002AF5D100BF2021A2
:10259000C0F88010002101668166704710B50446BE
:1025A00000BF00BF216851E8001F21F040002268F1
:1025B00042E800010029F5D100BF2020E06700209B
:1025C000E0662046FFF7C0FB10BD00002DE9F84F84
:1025D000044600200090CE492068884200D100E0E7
:1025E00000BF2169A068084361690843E16940EAC6
:1025F000010A20680068C749084040EA0A002168CB
:1026000008602068406820F44050E1680843216871
:102610004860D4F818A0BE492068884202D0206AD9
:1026200040EA0A0A2068806820F4306040EA0A0024
:102630002168886000BFB8492068884216D1B74831
:10264000006800F0030030B1012808D0022804D04F
:10265000032808D105E0012507E0022505E004254F
:1026600003E0082501E0102500BF8DE0AC4920689B
:10267000884216D1A948006800F00C0030B1042847
:1026800008D0082804D00C2808D105E0002507E070
:10269000022505E0042503E0082501E0102500BF20
:1026A00072E0A0492068884216D19C48006800F07A
:1026B000300030B1102808D0202804D0302808D1AC
:1026C00005E0002507E0022505E0042503E00825D4
:1026D00001E0102500BF57E093492068884216D1D9
:1026E0008E48006800F0C00030B1402808D0802833
:1026F00004D0C02808D105E0002507E0022505E048
:10270000042503E0082501E0102500BF3CE08749CF
:102710002068884219D18148006800F4407048B1AF
:10272000B0F5807F0AD0B0F5007F05D0B0F5407FCE
:1027300008D105E0002507E0022505E0042503E0B7
:10274000082501E0102500BF1EE07149206888427D
:1027500019D17248006800F4406048B1B0F5806F4C
:102760000AD0B0F5006F05D0B0F5406F08D105E094
:10277000002507E0022505E0042503E0082501E027
:10278000102500BF00E0102500BF61492068884285
:1027900045D135B1022D08D0042D08D0082D0DD11A
:1027A00009E0FEF76FFC06460CE0614E0AE0FEF71A
:1027B0008DFC064606E04FF4004603E000260120AB
:1027C000009000BF00BF002E0AD0606800EB400000
:1027D000B04203D860680003B04202D201200090EA
:1027E00090E04FF48070A6FB0030D4F804C04FEAAC
:1027F0005C015F1840F10001624600233846FDF796
:1028000033FD8146B9F5407F06D3B9F5801F03D269
:102810002068C0F80C9075E00120009072E0E0693B
:10282000B0F5004F3AD1092D17D2DFE805F00509C0
:102830000D160F1616161300FEF724FC064610E0C0
:10284000FEF732FC06460CE0394E0AE0FEF73EFC8D
:10285000064606E04FF4004603E000260120009003
:1028600000BF00BF8EB37000616800EB5100B0FB89
:10287000F1F9B9F1100F0ED3B9F5803F0BD24FF635
:10288000F07009EA000BC9F342004BEA000B206824
:10289000C0F80CB036E00120009033E0092D18D2CA
:1028A000DFE805F005090D170F1717171400FEF7DD
:1028B000E9FB064611E0FEF7F7FB06460DE01C4E6D
:1028C0000BE0FEF703FC064607E01BE04FF4004672
:1028D00003E000260120009000BF00BF96B16068B1
:1028E00006EB50006168B0FBF1F9B9F1100F07D3A6
:1028F000B9F5803F04D21FFA89F02168C86001E071
:10290000012000900020A066E066009800F012B858
:1029100000800040F369FFEF00380140881002405A
:102920000044004000480040004C0040005000407F
:102930000024F40018BCBDE8E08F2DE9F041044606
:102940000D4617469846069E3CE0701CC8B3FDF73E
:1029500029FFA0EB0800B04200D816B90320BDE85B
:10296000F0812068006800F0040050B32068C0695E
:10297000C0F3C00078B10820216808622046FFF744
:10298000DAFD0820C4F8840000BF002084F8780035
:1029900000BF0120E3E72068C069C0F3C02080B118
:1029A0004FF40060216808622046FFF7C4FD202034
:1029B000C4F8840000BF002084F8780000BF032022
:1029C000CDE7FFE72068C0692840A84201D1012077
:1029D00000E00020B842B8D00020C0E710B502489F
:1029E000FEF77CFF10BD00001400002000BFFEE7D2
:1029F00002480068C0F30220704700000CED00E0C0
:102A000010B5002804DB0A07130E054A135406E02C
:102A10000A07140E034A00F00F031B1FD45410BD05
:102A200000E400E018ED00E010B53020FFF7E2F917
:102A30000120FFF7DFF910BD10B5012240214FF052
:102A40009040FDF7A9FE00F021F800224FF48051DC
:102A50000C48FDF7A1FE012202210B48FDF79CFE68
:102A6000012211460848FDF797FE3220FDF703FDCD
:102A7000FFF7DAFF0620FFF7BDF90C20FFF7BAF9E0
:102A800010BD0000000400480010004800B587B0E9
:102A900000BF3448C06C40F002003249C8640846A8
:102AA000C06C00F00200019000BF00BF00BF0846EC
:102AB000C06C40F00400C8640846C06C00F004001C
:102AC000019000BF00BF00BF0846C06C40F0080086
:102AD000C8640846C06C00F00800019000BF00BF49
:102AE00000BF0846C06C40F01000C8640846C06CC7
:102AF00000F01000019000BF00BF142102A8FDF7F4
:102B00002AFC4FF4A0500290012003900020049072
:102B100002A91548FDF742FD4FF4E0700290012034
:102B20000390002004900220059002A90F48FDF7B1
:102B300035FD032002900120039000200490022024
:102B4000059002A90A48FDF729FD402002900120C6
:102B500003900020049002A94FF09040FDF71EFD65
:102B600007B000BD00100240000400480008004803
:102B70000010004870B505460E46144631462846FA
:102B8000FFF712F908B1012070BD03E014F8010B42
:102B9000FFF760F920780028F8D100BFF4E70000C3
:102BA000FDF712FEFFF78AFBFFF784F9FFF794F9B0
:102BB000FFF742FF04E003A201210020FFF7DAFF44
:102BC000F9E7000041505032204F4B004FF0407069
:102BD000E1EE100A70470000000000000000000055
:102BE00001020304060708090000000001020304B3
:102BF000A0860100400D0300801A060000350C007D
:102C000040420F0080841E0000093D0000127A003F
:102C10000024F40000366E010048E801006CDC027C
:102C2000402C01080000002014000000C40101082D
:102C3000542C010814000020EC060000E0010108FB
:102C400000000000100000000100000000093D002D
:042C50000000000080
:040000050801018964
:00000001FF
