Component: ARM Compiler 5.06 update 7 (build 960) Tool: armlink [4d3601]

==============================================================================

Section Cross References

    startup_stm32l476xx.o(STACK) refers (Special) to heapauxi.o(.text) for __use_two_region_memory
    startup_stm32l476xx.o(HEAP) refers (Special) to heapauxi.o(.text) for __use_two_region_memory
    startup_stm32l476xx.o(RESET) refers (Special) to heapauxi.o(.text) for __use_two_region_memory
    startup_stm32l476xx.o(RESET) refers to startup_stm32l476xx.o(STACK) for __initial_sp
    startup_stm32l476xx.o(RESET) refers to startup_stm32l476xx.o(.text) for Reset_Handler
    startup_stm32l476xx.o(RESET) refers to stm32l4xx_it.o(i.NMI_Handler) for NMI_Handler
    startup_stm32l476xx.o(RESET) refers to stm32l4xx_it.o(i.HardFault_Handler) for HardFault_Handler
    startup_stm32l476xx.o(RESET) refers to stm32l4xx_it.o(i.MemManage_Handler) for MemManage_Handler
    startup_stm32l476xx.o(RESET) refers to stm32l4xx_it.o(i.BusFault_Handler) for BusFault_Handler
    startup_stm32l476xx.o(RESET) refers to stm32l4xx_it.o(i.UsageFault_Handler) for UsageFault_Handler
    startup_stm32l476xx.o(RESET) refers to stm32l4xx_it.o(i.SVC_Handler) for SVC_Handler
    startup_stm32l476xx.o(RESET) refers to stm32l4xx_it.o(i.DebugMon_Handler) for DebugMon_Handler
    startup_stm32l476xx.o(RESET) refers to stm32l4xx_it.o(i.PendSV_Handler) for PendSV_Handler
    startup_stm32l476xx.o(RESET) refers to stm32l4xx_it.o(i.SysTick_Handler) for SysTick_Handler
    startup_stm32l476xx.o(RESET) refers to stm32l4xx_it.o(i.USART2_IRQHandler) for USART2_IRQHandler
    startup_stm32l476xx.o(.text) refers (Special) to heapauxi.o(.text) for __use_two_region_memory
    startup_stm32l476xx.o(.text) refers to system_stm32l4xx.o(i.SystemInit) for SystemInit
    startup_stm32l476xx.o(.text) refers to __main.o(!!!main) for __main
==============================================================================

Removing Unused input sections from the image.

    Removing gpio.o(.rev16_text), (4 bytes).
    Removing gpio.o(.revsh_text), (4 bytes).
    Removing gpio.o(.rrx_text), (6 bytes).
    Removing usart.o(.rev16_text), (4 bytes).
    Removing usart.o(.revsh_text), (4 bytes).
    Removing usart.o(.rrx_text), (6 bytes).
    Removing usart.o(i.HAL_UART_MspDeInit), (52 bytes).
    Removing stm32l4xx_it.o(.rev16_text), (4 bytes).
    Removing stm32l4xx_it.o(.revsh_text), (4 bytes).
    Removing stm32l4xx_it.o(.rrx_text), (6 bytes).
    Removing stm32l4xx_hal_msp.o(.rev16_text), (4 bytes).
    Removing stm32l4xx_hal_msp.o(.revsh_text), (4 bytes).
    Removing stm32l4xx_hal_msp.o(.rrx_text), (6 bytes).
    Removing stm32l4xx_hal_tim.o(.rev16_text), (4 bytes).
    Removing stm32l4xx_hal_tim.o(.revsh_text), (4 bytes).
    Removing stm32l4xx_hal_tim.o(.rrx_text), (6 bytes).
    Removing stm32l4xx_hal_tim_ex.o(.rev16_text), (4 bytes).
    Removing stm32l4xx_hal_tim_ex.o(.revsh_text), (4 bytes).
==============================================================================

Image Symbol Table

    Local Symbols

    Symbol Name                              Value     Ov Type        Size  Object(Section)

    ../Core/Src/gpio.c                       0x00000000   Number         0  gpio.o ABSOLUTE
    ../Core/Src/stm32l4xx_hal_msp.c          0x00000000   Number         0  stm32l4xx_hal_msp.o ABSOLUTE
    ../Core/Src/stm32l4xx_it.c               0x00000000   Number         0  stm32l4xx_it.o ABSOLUTE
    ../Core/Src/system_stm32l4xx.c           0x00000000   Number         0  system_stm32l4xx.o ABSOLUTE
    ../Core/Src/usart.c                      0x00000000   Number         0  usart.o ABSOLUTE
    ../Drivers/STM32L4xx_HAL_Driver/Src/stm32l4xx_hal.c 0x00000000   Number         0  stm32l4xx_hal.o ABSOLUTE
    ../Drivers/STM32L4xx_HAL_Driver/Src/stm32l4xx_hal_cortex.c 0x00000000   Number         0  stm32l4xx_hal_cortex.o ABSOLUTE
    ../Drivers/STM32L4xx_HAL_Driver/Src/stm32l4xx_hal_dma.c 0x00000000   Number         0  stm32l4xx_hal_dma.o ABSOLUTE
    ../Drivers/STM32L4xx_HAL_Driver/Src/stm32l4xx_hal_dma_ex.c 0x00000000   Number         0  stm32l4xx_hal_dma_ex.o ABSOLUTE
    ../Drivers/STM32L4xx_HAL_Driver/Src/stm32l4xx_hal_exti.c 0x00000000   Number         0  stm32l4xx_hal_exti.o ABSOLUTE
    ../Drivers/STM32L4xx_HAL_Driver/Src/stm32l4xx_hal_flash.c 0x00000000   Number         0  stm32l4xx_hal_flash.o ABSOLUTE
    ../Drivers/STM32L4xx_HAL_Driver/Src/stm32l4xx_hal_flash_ex.c 0x00000000   Number         0  stm32l4xx_hal_flash_ex.o ABSOLUTE
    ../Drivers/STM32L4xx_HAL_Driver/Src/stm32l4xx_hal_flash_ramfunc.c 0x00000000   Number         0  stm32l4xx_hal_flash_ramfunc.o ABSOLUTE
    ../Drivers/STM32L4xx_HAL_Driver/Src/stm32l4xx_hal_gpio.c 0x00000000   Number         0  stm32l4xx_hal_gpio.o ABSOLUTE
    ../Drivers/STM32L4xx_HAL_Driver/Src/stm32l4xx_hal_pwr.c 0x00000000   Number         0  stm32l4xx_hal_pwr.o ABSOLUTE
    ../Drivers/STM32L4xx_HAL_Driver/Src/stm32l4xx_hal_pwr_ex.c 0x00000000   Number         0  stm32l4xx_hal_pwr_ex.o ABSOLUTE
    ../Drivers/STM32L4xx_HAL_Driver/Src/stm32l4xx_hal_rcc.c 0x00000000   Number         0  stm32l4xx_hal_rcc.o ABSOLUTE
    ../Drivers/STM32L4xx_HAL_Driver/Src/stm32l4xx_hal_rcc_ex.c 0x00000000   Number         0  stm32l4xx_hal_rcc_ex.o ABSOLUTE
    ../Drivers/STM32L4xx_HAL_Driver/Src/stm32l4xx_hal_tim.c 0x00000000   Number         0  stm32l4xx_hal_tim.o ABSOLUTE
    ../Drivers/STM32L4xx_HAL_Driver/Src/stm32l4xx_hal_tim_ex.c 0x00000000   Number         0  stm32l4xx_hal_tim_ex.o ABSOLUTE
    ../Drivers/STM32L4xx_HAL_Driver/Src/stm32l4xx_hal_uart.c 0x00000000   Number         0  stm32l4xx_hal_uart.o ABSOLUTE
    ../Drivers/STM32L4xx_HAL_Driver/Src/stm32l4xx_hal_uart_ex.c 0x00000000   Number         0  stm32l4xx_hal_uart_ex.o ABSOLUTE
    ../clib/angel/boardlib.s                 0x00000000   Number         0  boardshut.o ABSOLUTE
    ../clib/angel/boardlib.s                 0x00000000   Number         0  boardinit1.o ABSOLUTE
    ../clib/angel/boardlib.s                 0x00000000   Number         0  boardinit3.o ABSOLUTE
    ../clib/angel/boardlib.s                 0x00000000   Number         0  boardinit2.o ABSOLUTE
    ../clib/angel/handlers.s                 0x00000000   Number         0  __scatter_zi.o ABSOLUTE
    ../clib/angel/handlers.s                 0x00000000   Number         0  __scatter_copy.o ABSOLUTE
    ../clib/angel/kernel.s                   0x00000000   Number         0  rtexit2.o ABSOLUTE
    ../clib/angel/kernel.s                   0x00000000   Number         0  __rtentry2.o ABSOLUTE
    ../clib/angel/kernel.s                   0x00000000   Number         0  __rtentry4.o ABSOLUTE
    ../clib/angel/kernel.s                   0x00000000   Number         0  rtexit.o ABSOLUTE
    ../clib/angel/kernel.s                   0x00000000   Number         0  __rtentry.o ABSOLUTE
    ../clib/angel/rt.s                       0x00000000   Number         0  aeabi_ldiv0.o ABSOLUTE
    ../clib/angel/rt.s                       0x00000000   Number         0  aeabi_ldiv0_sigfpe.o ABSOLUTE
    ../clib/angel/rt.s                       0x00000000   Number         0  rt_div0.o ABSOLUTE
    ../clib/angel/rt.s                       0x00000000   Number         0  rt_raise.o ABSOLUTE
    ../clib/angel/scatter.s                  0x00000000   Number         0  __scatter.o ABSOLUTE
    ../clib/angel/startup.s                  0x00000000   Number         0  __main.o ABSOLUTE
    ../clib/angel/sys.s                      0x00000000   Number         0  sys_stackheap_outer.o ABSOLUTE
    ../clib/angel/sys.s                      0x00000000   Number         0  indicate_semi.o ABSOLUTE
    ../clib/angel/sys.s                      0x00000000   Number         0  use_no_semi.o ABSOLUTE
    ../clib/angel/sys.s                      0x00000000   Number         0  libspace.o ABSOLUTE
    ../clib/angel/sysapp.c                   0x00000000   Number         0  sys_exit.o ABSOLUTE
    ../clib/angel/sysapp.c                   0x00000000   Number         0  sys_wrch.o ABSOLUTE
    ../clib/angel/sysapp.c                   0x00000000   Number         0  sys_command.o ABSOLUTE
    ../clib/armsys.c                         0x00000000   Number         0  no_argv.o ABSOLUTE
    ../clib/armsys.c                         0x00000000   Number         0  _get_argv_nomalloc.o ABSOLUTE
    ../clib/armsys.c                         0x00000000   Number         0  argv_veneer.o ABSOLUTE
    ../clib/armsys.c                         0x00000000   Number         0  argv_veneer.o ABSOLUTE
    ../clib/heapalloc.c                      0x00000000   Number         0  hrguard.o ABSOLUTE
    ../clib/heapaux.c                        0x00000000   Number         0  heapauxi.o ABSOLUTE
    ../clib/libinit.s                        0x00000000   Number         0  libshutdown2.o ABSOLUTE
    ../clib/libinit.s                        0x00000000   Number         0  libshutdown.o ABSOLUTE
    ../clib/libinit.s                        0x00000000   Number         0  libinit.o ABSOLUTE
    ../clib/libinit.s                        0x00000000   Number         0  libinit2.o ABSOLUTE
    ../clib/longlong.s                       0x00000000   Number         0  lludivv7m.o ABSOLUTE
    ../clib/memcpset.s                       0x00000000   Number         0  rt_memclr_w.o ABSOLUTE
    ../clib/signal.c                         0x00000000   Number         0  defsig_fpe_formal.o ABSOLUTE
    ../clib/signal.c                         0x00000000   Number         0  defsig_fpe_outer.o ABSOLUTE
    ../clib/signal.c                         0x00000000   Number         0  defsig_other.o ABSOLUTE
    ../clib/signal.c                         0x00000000   Number         0  defsig_segv_inner.o ABSOLUTE
    ../clib/signal.c                         0x00000000   Number         0  defsig_rtred_inner.o ABSOLUTE
    ../clib/signal.c                         0x00000000   Number         0  defsig_abrt_inner.o ABSOLUTE
    ../clib/signal.c                         0x00000000   Number         0  defsig_cppl_inner.o ABSOLUTE
    ../clib/signal.c                         0x00000000   Number         0  defsig_rtmem_inner.o ABSOLUTE
    ../clib/signal.c                         0x00000000   Number         0  defsig_rtmem_outer.o ABSOLUTE
    ../clib/signal.c                         0x00000000   Number         0  defsig_rtmem_formal.o ABSOLUTE
    ../clib/signal.c                         0x00000000   Number         0  defsig_exit.o ABSOLUTE
    ../clib/signal.c                         0x00000000   Number         0  defsig_fpe_inner.o ABSOLUTE
    ../clib/signal.c                         0x00000000   Number         0  defsig_general.o ABSOLUTE
    ../clib/signal.c                         0x00000000   Number         0  __raise.o ABSOLUTE
    ../clib/signal.c                         0x00000000   Number         0  defsig_stak_inner.o ABSOLUTE
    ../clib/signal.c                         0x00000000   Number         0  defsig_pvfn_inner.o ABSOLUTE
    ../clib/signal.s                         0x00000000   Number         0  defsig.o ABSOLUTE
    ../clib/stdlib.c                         0x00000000   Number         0  exit.o ABSOLUTE
    ../fplib/fpinit.s                        0x00000000   Number         0  fpinit.o ABSOLUTE
    ..\Core\Src\gpio.c                       0x00000000   Number         0  gpio.o ABSOLUTE
    ..\Core\Src\main.c                       0x00000000   Number         0  main.o ABSOLUTE
    ..\Core\Src\stm32l4xx_hal_msp.c          0x00000000   Number         0  stm32l4xx_hal_msp.o ABSOLUTE
    ..\Core\Src\stm32l4xx_it.c               0x00000000   Number         0  stm32l4xx_it.o ABSOLUTE
    ..\Core\Src\system_stm32l4xx.c           0x00000000   Number         0  system_stm32l4xx.o ABSOLUTE
    ..\Core\Src\usart.c                      0x00000000   Number         0  usart.o ABSOLUTE
    ..\Drivers\STM32L4xx_HAL_Driver\Src\stm32l4xx_hal.c 0x00000000   Number         0  stm32l4xx_hal.o ABSOLUTE
    ..\Drivers\STM32L4xx_HAL_Driver\Src\stm32l4xx_hal_cortex.c 0x00000000   Number         0  stm32l4xx_hal_cortex.o ABSOLUTE
    ..\Drivers\STM32L4xx_HAL_Driver\Src\stm32l4xx_hal_dma.c 0x00000000   Number         0  stm32l4xx_hal_dma.o ABSOLUTE
    ..\Drivers\STM32L4xx_HAL_Driver\Src\stm32l4xx_hal_dma_ex.c 0x00000000   Number         0  stm32l4xx_hal_dma_ex.o ABSOLUTE
    ..\Drivers\STM32L4xx_HAL_Driver\Src\stm32l4xx_hal_exti.c 0x00000000   Number         0  stm32l4xx_hal_exti.o ABSOLUTE
    ..\Drivers\STM32L4xx_HAL_Driver\Src\stm32l4xx_hal_flash.c 0x00000000   Number         0  stm32l4xx_hal_flash.o ABSOLUTE
    ..\Drivers\STM32L4xx_HAL_Driver\Src\stm32l4xx_hal_flash_ex.c 0x00000000   Number         0  stm32l4xx_hal_flash_ex.o ABSOLUTE
    ..\Drivers\STM32L4xx_HAL_Driver\Src\stm32l4xx_hal_flash_ramfunc.c 0x00000000   Number         0  stm32l4xx_hal_flash_ramfunc.o ABSOLUTE
    ..\Drivers\STM32L4xx_HAL_Driver\Src\stm32l4xx_hal_gpio.c 0x00000000   Number         0  stm32l4xx_hal_gpio.o ABSOLUTE
    ..\Drivers\STM32L4xx_HAL_Driver\Src\stm32l4xx_hal_pwr.c 0x00000000   Number         0  stm32l4xx_hal_pwr.o ABSOLUTE
    ..\Drivers\STM32L4xx_HAL_Driver\Src\stm32l4xx_hal_pwr_ex.c 0x00000000   Number         0  stm32l4xx_hal_pwr_ex.o ABSOLUTE
    ..\Drivers\STM32L4xx_HAL_Driver\Src\stm32l4xx_hal_rcc.c 0x00000000   Number         0  stm32l4xx_hal_rcc.o ABSOLUTE
    ..\Drivers\STM32L4xx_HAL_Driver\Src\stm32l4xx_hal_rcc_ex.c 0x00000000   Number         0  stm32l4xx_hal_rcc_ex.o ABSOLUTE
    ..\Drivers\STM32L4xx_HAL_Driver\Src\stm32l4xx_hal_tim.c 0x00000000   Number         0  stm32l4xx_hal_tim.o ABSOLUTE
    ..\Drivers\STM32L4xx_HAL_Driver\Src\stm32l4xx_hal_tim_ex.c 0x00000000   Number         0  stm32l4xx_hal_tim_ex.o ABSOLUTE
    ..\Drivers\STM32L4xx_HAL_Driver\Src\stm32l4xx_hal_uart.c 0x00000000   Number         0  stm32l4xx_hal_uart.o ABSOLUTE
    ..\Drivers\STM32L4xx_HAL_Driver\Src\stm32l4xx_hal_uart_ex.c 0x00000000   Number         0  stm32l4xx_hal_uart_ex.o ABSOLUTE
    ..\UserDriver\src\lcd_driver.c           0x00000000   Number         0  lcd_driver.o ABSOLUTE
    ..\UserOs\src\delay.c                    0x00000000   Number         0  delay.o ABSOLUTE
    ..\UserOs\src\meter_init.c               0x00000000   Number         0  meter_init.o ABSOLUTE
    ..\UserOs\src\soft_timer.c               0x00000000   Number         0  soft_timer.o ABSOLUTE
    ..\UserOs\src\task.c                     0x00000000   Number         0  task.o ABSOLUTE
    ..\\Core\\Src\\main.c                    0x00000000   Number         0  main.o ABSOLUTE
    ..\\UserDriver\\src\\lcd_driver.c        0x00000000   Number         0  lcd_driver.o ABSOLUTE
    ..\\UserOs\\src\\delay.c                 0x00000000   Number         0  delay.o ABSOLUTE
    ..\\UserOs\\src\\meter_init.c            0x00000000   Number         0  meter_init.o ABSOLUTE
    ..\\UserOs\\src\\soft_timer.c            0x00000000   Number         0  soft_timer.o ABSOLUTE
    ..\\UserOs\\src\\task.c                  0x00000000   Number         0  task.o ABSOLUTE
    dc.s                                     0x00000000   Number         0  dc.o ABSOLUTE
    startup_stm32l476xx.s                    0x00000000   Number         0  startup_stm32l476xx.o ABSOLUTE
    RESET                                    0x08010000   Section      392  startup_stm32l476xx.o(RESET)
    !!!main                                  0x08010188   Section        8  __main.o(!!!main)
    !!!scatter                               0x08010190   Section       52  __scatter.o(!!!scatter)
    !!handler_copy                           0x080101c4   Section       26  __scatter_copy.o(!!handler_copy)
    !!handler_zi                             0x080101e0   Section       28  __scatter_zi.o(!!handler_zi)
    .ARM.Collect$$libinit$$00000000          0x080101fc   Section        2  libinit.o(.ARM.Collect$$libinit$$00000000)
    .ARM.Collect$$libinit$$00000001          0x080101fe   Section        4  libinit2.o(.ARM.Collect$$libinit$$00000001)
    .ARM.Collect$$libinit$$00000004          0x08010202   Section        0  libinit2.o(.ARM.Collect$$libinit$$00000004)
    .ARM.Collect$$libinit$$0000000A          0x08010202   Section        0  libinit2.o(.ARM.Collect$$libinit$$0000000A)
    .ARM.Collect$$libinit$$0000000C          0x08010202   Section        0  libinit2.o(.ARM.Collect$$libinit$$0000000C)
    .ARM.Collect$$libinit$$0000000E          0x08010202   Section        0  libinit2.o(.ARM.Collect$$libinit$$0000000E)
    .ARM.Collect$$libinit$$00000011          0x08010202   Section        0  libinit2.o(.ARM.Collect$$libinit$$00000011)
    .ARM.Collect$$libinit$$00000013          0x08010202   Section        0  libinit2.o(.ARM.Collect$$libinit$$00000013)
    .ARM.Collect$$libinit$$00000015          0x08010202   Section        0  libinit2.o(.ARM.Collect$$libinit$$00000015)
    .ARM.Collect$$libinit$$00000017          0x08010202   Section        0  libinit2.o(.ARM.Collect$$libinit$$00000017)
    .ARM.Collect$$libinit$$00000019          0x08010202   Section        0  libinit2.o(.ARM.Collect$$libinit$$00000019)
    .ARM.Collect$$libinit$$0000001B          0x08010202   Section        0  libinit2.o(.ARM.Collect$$libinit$$0000001B)
    .ARM.Collect$$libinit$$0000001D          0x08010202   Section        0  libinit2.o(.ARM.Collect$$libinit$$0000001D)
    .ARM.Collect$$libinit$$0000001F          0x08010202   Section        0  libinit2.o(.ARM.Collect$$libinit$$0000001F)
    .ARM.Collect$$libinit$$00000021          0x08010202   Section        0  libinit2.o(.ARM.Collect$$libinit$$00000021)
    .ARM.Collect$$libinit$$00000023          0x08010202   Section        0  libinit2.o(.ARM.Collect$$libinit$$00000023)
    .ARM.Collect$$libinit$$00000025          0x08010202   Section        0  libinit2.o(.ARM.Collect$$libinit$$00000025)
    .ARM.Collect$$libinit$$0000002C          0x08010202   Section        0  libinit2.o(.ARM.Collect$$libinit$$0000002C)
    .ARM.Collect$$libinit$$0000002E          0x08010202   Section        0  libinit2.o(.ARM.Collect$$libinit$$0000002E)
    .ARM.Collect$$libinit$$00000030          0x08010202   Section        0  libinit2.o(.ARM.Collect$$libinit$$00000030)
    .ARM.Collect$$libinit$$00000032          0x08010202   Section        0  libinit2.o(.ARM.Collect$$libinit$$00000032)
    .ARM.Collect$$libinit$$00000033          0x08010202   Section        2  libinit2.o(.ARM.Collect$$libinit$$00000033)
    .ARM.Collect$$libshutdown$$00000000      0x08010204   Section        2  libshutdown.o(.ARM.Collect$$libshutdown$$00000000)
    .ARM.Collect$$libshutdown$$00000002      0x08010206   Section        0  libshutdown2.o(.ARM.Collect$$libshutdown$$00000002)
    .ARM.Collect$$libshutdown$$00000004      0x08010206   Section        0  libshutdown2.o(.ARM.Collect$$libshutdown$$00000004)
    .ARM.Collect$$libshutdown$$00000006      0x08010206   Section        0  libshutdown2.o(.ARM.Collect$$libshutdown$$00000006)
    .ARM.Collect$$libshutdown$$00000009      0x08010206   Section        0  libshutdown2.o(.ARM.Collect$$libshutdown$$00000009)
    .ARM.Collect$$libshutdown$$0000000C      0x08010206   Section        0  libshutdown2.o(.ARM.Collect$$libshutdown$$0000000C)
    .ARM.Collect$$libshutdown$$0000000E      0x08010206   Section        0  libshutdown2.o(.ARM.Collect$$libshutdown$$0000000E)
    .ARM.Collect$$libshutdown$$00000011      0x08010206   Section        0  libshutdown2.o(.ARM.Collect$$libshutdown$$00000011)
    .ARM.Collect$$libshutdown$$00000012      0x08010206   Section        2  libshutdown2.o(.ARM.Collect$$libshutdown$$00000012)
    .ARM.Collect$$rtentry$$00000000          0x08010208   Section        0  __rtentry.o(.ARM.Collect$$rtentry$$00000000)
    .ARM.Collect$$rtentry$$00000002          0x08010208   Section        0  __rtentry2.o(.ARM.Collect$$rtentry$$00000002)
    .ARM.Collect$$rtentry$$00000004          0x08010208   Section        6  __rtentry4.o(.ARM.Collect$$rtentry$$00000004)
    .ARM.Collect$$rtentry$$00000009          0x0801020e   Section        0  __rtentry2.o(.ARM.Collect$$rtentry$$00000009)
    .ARM.Collect$$rtentry$$0000000A          0x0801020e   Section        4  __rtentry2.o(.ARM.Collect$$rtentry$$0000000A)
    .ARM.Collect$$rtentry$$0000000C          0x08010212   Section        0  __rtentry2.o(.ARM.Collect$$rtentry$$0000000C)
    .ARM.Collect$$rtentry$$0000000D          0x08010212   Section        8  __rtentry2.o(.ARM.Collect$$rtentry$$0000000D)
    .ARM.Collect$$rtexit$$00000000           0x0801021a   Section        2  rtexit.o(.ARM.Collect$$rtexit$$00000000)
    .ARM.Collect$$rtexit$$00000002           0x0801021c   Section        0  rtexit2.o(.ARM.Collect$$rtexit$$00000002)
    .ARM.Collect$$rtexit$$00000003           0x0801021c   Section        4  rtexit2.o(.ARM.Collect$$rtexit$$00000003)
    .ARM.Collect$$rtexit$$00000004           0x08010220   Section        6  rtexit2.o(.ARM.Collect$$rtexit$$00000004)
    .text                                    0x08010228   Section       64  startup_stm32l476xx.o(.text)
    $v0                                      0x08010228   Number         0  startup_stm32l476xx.o(.text)
    .text                                    0x08010268   Section      238  lludivv7m.o(.text)
    .text                                    0x08010356   Section       78  rt_memclr_w.o(.text)
    .text                                    0x080103a4   Section        0  heapauxi.o(.text)
    .text                                    0x080103aa   Section       74  sys_stackheap_outer.o(.text)
    .text                                    0x080103f4   Section        0  exit.o(.text)
    .text                                    0x08010408   Section        8  libspace.o(.text)
    .text                                    0x08010410   Section        0  sys_exit.o(.text)
    .text                                    0x0801041c   Section        2  use_no_semi.o(.text)
    .text                                    0x0801041e   Section        0  indicate_semi.o(.text)
    i.BusFault_Handler                       0x0801041e   Section        0  stm32l4xx_it.o(i.BusFault_Handler)
    i.Chk_Busy                               0x08010424   Section        0  lcd_driver.o(i.Chk_Busy)
    i.DebugMon_Handler                       0x08010474   Section        0  stm32l4xx_it.o(i.DebugMon_Handler)
    i.DelayMs                                0x08010476   Section        0  delay.o(i.DelayMs)
    i.DelayUs                                0x08010498   Section        0  delay.o(i.DelayUs)
    i.Error_Handler                          0x080104e0   Section        0  main.o(i.Error_Handler)
    i.HAL_DMA_Abort                          0x080104e6   Section        0  stm32l4xx_hal_dma.o(i.HAL_DMA_Abort)
    i.HAL_DMA_Abort_IT                       0x08010540   Section        0  stm32l4xx_hal_dma.o(i.HAL_DMA_Abort_IT)
    i.HAL_GPIO_Init                          0x0801059c   Section        0  stm32l4xx_hal_gpio.o(i.HAL_GPIO_Init)
    i.HAL_GPIO_WritePin                      0x08010798   Section        0  stm32l4xx_hal_gpio.o(i.HAL_GPIO_WritePin)
    i.HAL_GetTick                            0x080107a4   Section        0  stm32l4xx_hal.o(i.HAL_GetTick)
    i.HAL_IncTick                            0x080107b0   Section        0  stm32l4xx_hal.o(i.HAL_IncTick)
    i.HAL_Init                               0x080107c8   Section        0  stm32l4xx_hal.o(i.HAL_Init)
    i.HAL_InitTick                           0x080107e8   Section        0  stm32l4xx_hal.o(i.HAL_InitTick)
    i.HAL_MspInit                            0x08010840   Section        0  stm32l4xx_hal_msp.o(i.HAL_MspInit)
    i.HAL_NVIC_EnableIRQ                     0x08010880   Section        0  stm32l4xx_hal_cortex.o(i.HAL_NVIC_EnableIRQ)
    i.HAL_NVIC_SetPriority                   0x080108a8   Section        0  stm32l4xx_hal_cortex.o(i.HAL_NVIC_SetPriority)
    i.HAL_NVIC_SetPriorityGrouping           0x0801092c   Section        0  stm32l4xx_hal_cortex.o(i.HAL_NVIC_SetPriorityGrouping)
    i.HAL_PWREx_ControlVoltageScaling        0x08010954   Section        0  stm32l4xx_hal_pwr_ex.o(i.HAL_PWREx_ControlVoltageScaling)
    i.HAL_PWREx_GetVoltageRange              0x080109e0   Section        0  stm32l4xx_hal_pwr_ex.o(i.HAL_PWREx_GetVoltageRange)
    i.HAL_RCCEx_PeriphCLKConfig              0x080109f0   Section        0  stm32l4xx_hal_rcc_ex.o(i.HAL_RCCEx_PeriphCLKConfig)
    i.HAL_RCC_ClockConfig                    0x08010ec4   Section        0  stm32l4xx_hal_rcc.o(i.HAL_RCC_ClockConfig)
    i.HAL_RCC_GetHCLKFreq                    0x08011078   Section        0  stm32l4xx_hal_rcc.o(i.HAL_RCC_GetHCLKFreq)
    i.HAL_RCC_GetPCLK1Freq                   0x08011084   Section        0  stm32l4xx_hal_rcc.o(i.HAL_RCC_GetPCLK1Freq)
    i.HAL_RCC_GetPCLK2Freq                   0x080110a8   Section        0  stm32l4xx_hal_rcc.o(i.HAL_RCC_GetPCLK2Freq)
    i.HAL_RCC_GetSysClockFreq                0x080110cc   Section        0  stm32l4xx_hal_rcc.o(i.HAL_RCC_GetSysClockFreq)
    i.HAL_RCC_OscConfig                      0x080111b8   Section        0  stm32l4xx_hal_rcc.o(i.HAL_RCC_OscConfig)
    i.HAL_SYSTICK_Config                     0x080118a0   Section        0  stm32l4xx_hal_cortex.o(i.HAL_SYSTICK_Config)
    i.HAL_UARTEx_RxEventCallback             0x080118d4   Section        0  stm32l4xx_hal_uart.o(i.HAL_UARTEx_RxEventCallback)
    i.HAL_UARTEx_WakeupCallback              0x080118d6   Section        0  stm32l4xx_hal_uart_ex.o(i.HAL_UARTEx_WakeupCallback)
    i.HAL_UART_ErrorCallback                 0x080118d8   Section        0  stm32l4xx_hal_uart.o(i.HAL_UART_ErrorCallback)
    i.HAL_UART_IRQHandler                    0x080118dc   Section        0  stm32l4xx_hal_uart.o(i.HAL_UART_IRQHandler)
    i.HAL_UART_Init                          0x08011c30   Section        0  stm32l4xx_hal_uart.o(i.HAL_UART_Init)
    i.HAL_UART_MspInit                       0x08011ca4   Section        0  usart.o(i.HAL_UART_MspInit)
    i.HAL_UART_TxCpltCallback                0x08011d48   Section        0  stm32l4xx_hal_uart.o(i.HAL_UART_TxCpltCallback)
    i.HardFault_Handler                      0x08011d4a   Section        0  stm32l4xx_it.o(i.HardFault_Handler)
    i.LCD_ST7920_DataIO_Set_In               0x08011d50   Section        0  lcd_driver.o(i.LCD_ST7920_DataIO_Set_In)
    i.LCD_ST7920_DataIO_Set_Out              0x08011d78   Section        0  lcd_driver.o(i.LCD_ST7920_DataIO_Set_Out)
    i.LCD_ST7920_SetAddress                  0x08011da8   Section        0  lcd_driver.o(i.LCD_ST7920_SetAddress)
    i.LCD_ST7920_WriteCmd                    0x08011df4   Section        0  lcd_driver.o(i.LCD_ST7920_WriteCmd)
    i.LCD_ST7920_WriteData                   0x08011e54   Section        0  lcd_driver.o(i.LCD_ST7920_WriteData)
    i.MX_GPIO_Init                           0x08011eb4   Section        0  gpio.o(i.MX_GPIO_Init)
    i.MX_USART2_UART_Init                    0x08011ed8   Section        0  usart.o(i.MX_USART2_UART_Init)
    i.MemManage_Handler                      0x08011f18   Section        0  stm32l4xx_it.o(i.MemManage_Handler)
    i.NMI_Handler                            0x08011f1c   Section        0  stm32l4xx_it.o(i.NMI_Handler)
    i.PendSV_Handler                         0x08011f20   Section        0  stm32l4xx_it.o(i.PendSV_Handler)
    i.RCCEx_PLLSAI1_Config                   0x08011f24   Section        0  stm32l4xx_hal_rcc_ex.o(i.RCCEx_PLLSAI1_Config)
    RCCEx_PLLSAI1_Config                     0x08011f25   Thumb Code   378  stm32l4xx_hal_rcc_ex.o(i.RCCEx_PLLSAI1_Config)
    i.RCCEx_PLLSAI2_Config                   0x080120b0   Section        0  stm32l4xx_hal_rcc_ex.o(i.RCCEx_PLLSAI2_Config)
    RCCEx_PLLSAI2_Config                     0x080120b1   Thumb Code   342  stm32l4xx_hal_rcc_ex.o(i.RCCEx_PLLSAI2_Config)
    i.RCC_SetFlashLatencyFromMSIRange        0x08012214   Section        0  stm32l4xx_hal_rcc.o(i.RCC_SetFlashLatencyFromMSIRange)
    RCC_SetFlashLatencyFromMSIRange          0x08012215   Thumb Code   148  stm32l4xx_hal_rcc.o(i.RCC_SetFlashLatencyFromMSIRange)
    i.SVC_Handler                            0x080122b0   Section        0  stm32l4xx_it.o(i.SVC_Handler)
    i.SysTick_Handler                        0x080122b2   Section        0  stm32l4xx_it.o(i.SysTick_Handler)
    i.SystemClock_Config                     0x080122bc   Section        0  main.o(i.SystemClock_Config)
    i.SystemInit                             0x0801232c   Section        0  system_stm32l4xx.o(i.SystemInit)
    i.UART_AdvFeatureConfig                  0x08012340   Section        0  stm32l4xx_hal_uart.o(i.UART_AdvFeatureConfig)
    i.UART_CheckIdleState                    0x08012438   Section        0  stm32l4xx_hal_uart.o(i.UART_CheckIdleState)
    i.UART_DMAAbortOnError                   0x0801251e   Section        0  stm32l4xx_hal_uart.o(i.UART_DMAAbortOnError)
    UART_DMAAbortOnError                     0x0801251f   Thumb Code    24  stm32l4xx_hal_uart.o(i.UART_DMAAbortOnError)
    i.UART_EndRxTransfer                     0x08012536   Section        0  stm32l4xx_hal_uart.o(i.UART_EndRxTransfer)
    UART_EndRxTransfer                       0x08012537   Thumb Code   102  stm32l4xx_hal_uart.o(i.UART_EndRxTransfer)
    i.UART_EndTransmit_IT                    0x0801259c   Section        0  stm32l4xx_hal_uart.o(i.UART_EndTransmit_IT)
    UART_EndTransmit_IT                      0x0801259d   Thumb Code    46  stm32l4xx_hal_uart.o(i.UART_EndTransmit_IT)
    i.UART_SetConfig                         0x080125cc   Section        0  stm32l4xx_hal_uart.o(i.UART_SetConfig)
    i.UART_WaitOnFlagUntilTimeout            0x0801293a   Section        0  stm32l4xx_hal_uart.o(i.UART_WaitOnFlagUntilTimeout)
    i.USART2_IRQHandler                      0x080129dc   Section        0  stm32l4xx_it.o(i.USART2_IRQHandler)
    i.UsageFault_Handler                     0x080129ec   Section        0  stm32l4xx_it.o(i.UsageFault_Handler)
    i.__NVIC_GetPriorityGrouping             0x080129f0   Section        0  stm32l4xx_hal_cortex.o(i.__NVIC_GetPriorityGrouping)
    __NVIC_GetPriorityGrouping               0x080129f1   Thumb Code    10  stm32l4xx_hal_cortex.o(i.__NVIC_GetPriorityGrouping)
    i.__NVIC_SetPriority                     0x08012a00   Section        0  stm32l4xx_hal_cortex.o(i.__NVIC_SetPriority)
    __NVIC_SetPriority                       0x08012a01   Thumb Code    32  stm32l4xx_hal_cortex.o(i.__NVIC_SetPriority)
    i.lcd_clear                              0x08012a28   Section        0  lcd_driver.o(i.lcd_clear)
    i.lcd_driver_init                        0x08012a38   Section        0  lcd_driver.o(i.lcd_driver_init)
    i.lcd_gpio_init                          0x08012a8c   Section        0  lcd_driver.o(i.lcd_gpio_init)
    i.lcd_showstr                            0x08012b74   Section        0  lcd_driver.o(i.lcd_showstr)
    i.main                                   0x08012ba0   Section        0  main.o(i.main)
    x$fpl$fpinit                             0x08012bcc   Section       10  fpinit.o(x$fpl$fpinit)
    $v0                                      0x08012bcc   Number         0  fpinit.o(x$fpl$fpinit)
    .constdata                               0x08012bd8   Section       72  system_stm32l4xx.o(.constdata)
    .data                                    0x20000000   Section        9  stm32l4xx_hal.o(.data)
    .data                                    0x2000000c   Section        4  system_stm32l4xx.o(.data)
    .data                                    0x20000010   Section        2  delay.o(.data)
    fac_us                                   0x20000010   Data           2  delay.o(.data)
    .bss                                     0x20000014   Section      136  usart.o(.bss)
    .bss                                     0x2000009c   Section       96  libspace.o(.bss)
    HEAP                                     0x20000100   Section      512  startup_stm32l476xx.o(HEAP)
    Heap_Mem                                 0x20000100   Data         512  startup_stm32l476xx.o(HEAP)
    STACK                                    0x20000300   Section     1024  startup_stm32l476xx.o(STACK)
    Stack_Mem                                0x20000300   Data        1024  startup_stm32l476xx.o(STACK)
    __initial_sp                             0x20000700   Data           0  startup_stm32l476xx.o(STACK)

    Global Symbols

    Symbol Name                              Value     Ov Type        Size  Object(Section)

    BuildAttributes$$THM_ISAv4$E$P$D$K$B$S$7EM$VFPi3$EXTD16$VFPS$VFMA$PE$A:L22UL41UL21$X:L11$S22US41US21$IEEE1$IW$USESV6$~STKCKD$USESV7$~SHL$OSPACE$ROPI$EBA8$UX$STANDARDLIB$REQ8$PRES8$EABIv2 0x00000000   Number         0  anon$$obj.o ABSOLUTE
    __ARM_use_no_argv                        0x00000000   Number         0  main.o ABSOLUTE
    __ARM_exceptions_init                     - Undefined Weak Reference
    __alloca_initialize                       - Undefined Weak Reference
    __arm_fini_                               - Undefined Weak Reference
    __arm_preinit_                            - Undefined Weak Reference
    __cpp_initialize__aeabi_                  - Undefined Weak Reference
    __cxa_finalize                            - Undefined Weak Reference
    __rt_locale                               - Undefined Weak Reference
    __sigvec_lookup                           - Undefined Weak Reference
    _atexit_init                              - Undefined Weak Reference
    _call_atexit_fns                          - Undefined Weak Reference
    _clock_init                               - Undefined Weak Reference
    _fp_trap_init                             - Undefined Weak Reference
    _fp_trap_shutdown                         - Undefined Weak Reference
    _get_lc_collate                           - Undefined Weak Reference
    _get_lc_ctype                             - Undefined Weak Reference
    _get_lc_monetary                          - Undefined Weak Reference
    _get_lc_numeric                           - Undefined Weak Reference
    _get_lc_time                              - Undefined Weak Reference
    _getenv_init                              - Undefined Weak Reference
    _handle_redirection                       - Undefined Weak Reference
    _init_alloc                               - Undefined Weak Reference
    _init_user_alloc                          - Undefined Weak Reference
    _initio                                   - Undefined Weak Reference
    _rand_init                                - Undefined Weak Reference
    _signal_finish                            - Undefined Weak Reference
    _signal_init                              - Undefined Weak Reference
    _terminate_alloc                          - Undefined Weak Reference
    _terminate_user_alloc                     - Undefined Weak Reference
    _terminateio                              - Undefined Weak Reference
    __Vectors_Size                           0x00000188   Number         0  startup_stm32l476xx.o ABSOLUTE
    __Vectors                                0x08010000   Data           4  startup_stm32l476xx.o(RESET)
    __Vectors_End                            0x08010188   Data           0  startup_stm32l476xx.o(RESET)
    __main                                   0x08010189   Thumb Code     8  __main.o(!!!main)
    __scatterload                            0x08010191   Thumb Code     0  __scatter.o(!!!scatter)
    __scatterload_rt2                        0x08010191   Thumb Code    44  __scatter.o(!!!scatter)
    __scatterload_rt2_thumb_only             0x08010191   Thumb Code     0  __scatter.o(!!!scatter)
    __scatterload_null                       0x0801019f   Thumb Code     0  __scatter.o(!!!scatter)
    __scatterload_copy                       0x080101c5   Thumb Code    26  __scatter_copy.o(!!handler_copy)
    __scatterload_zeroinit                   0x080101e1   Thumb Code    28  __scatter_zi.o(!!handler_zi)
    __rt_lib_init                            0x080101fd   Thumb Code     0  libinit.o(.ARM.Collect$$libinit$$00000000)
    __rt_lib_init_fp_1                       0x080101ff   Thumb Code     0  libinit2.o(.ARM.Collect$$libinit$$00000001)
    __rt_lib_init_alloca_1                   0x08010203   Thumb Code     0  libinit2.o(.ARM.Collect$$libinit$$0000002E)
    __rt_lib_init_argv_1                     0x08010203   Thumb Code     0  libinit2.o(.ARM.Collect$$libinit$$0000002C)
    __rt_lib_init_atexit_1                   0x08010203   Thumb Code     0  libinit2.o(.ARM.Collect$$libinit$$0000001B)
    __rt_lib_init_clock_1                    0x08010203   Thumb Code     0  libinit2.o(.ARM.Collect$$libinit$$00000021)
    __rt_lib_init_cpp_1                      0x08010203   Thumb Code     0  libinit2.o(.ARM.Collect$$libinit$$00000032)
    __rt_lib_init_exceptions_1               0x08010203   Thumb Code     0  libinit2.o(.ARM.Collect$$libinit$$00000030)
    __rt_lib_init_fp_trap_1                  0x08010203   Thumb Code     0  libinit2.o(.ARM.Collect$$libinit$$0000001F)
    __rt_lib_init_getenv_1                   0x08010203   Thumb Code     0  libinit2.o(.ARM.Collect$$libinit$$00000023)
    __rt_lib_init_heap_1                     0x08010203   Thumb Code     0  libinit2.o(.ARM.Collect$$libinit$$0000000A)
    __rt_lib_init_lc_collate_1               0x08010203   Thumb Code     0  libinit2.o(.ARM.Collect$$libinit$$00000011)
    __rt_lib_init_lc_ctype_1                 0x08010203   Thumb Code     0  libinit2.o(.ARM.Collect$$libinit$$00000013)
    __rt_lib_init_lc_monetary_1              0x08010203   Thumb Code     0  libinit2.o(.ARM.Collect$$libinit$$00000015)
    __rt_lib_init_lc_numeric_1               0x08010203   Thumb Code     0  libinit2.o(.ARM.Collect$$libinit$$00000017)
    __rt_lib_init_lc_time_1                  0x08010203   Thumb Code     0  libinit2.o(.ARM.Collect$$libinit$$00000019)
    __rt_lib_init_preinit_1                  0x08010203   Thumb Code     0  libinit2.o(.ARM.Collect$$libinit$$00000004)
    __rt_lib_init_rand_1                     0x08010203   Thumb Code     0  libinit2.o(.ARM.Collect$$libinit$$0000000E)
    __rt_lib_init_return                     0x08010203   Thumb Code     0  libinit2.o(.ARM.Collect$$libinit$$00000033)
    __rt_lib_init_signal_1                   0x08010203   Thumb Code     0  libinit2.o(.ARM.Collect$$libinit$$0000001D)
    __rt_lib_init_stdio_1                    0x08010203   Thumb Code     0  libinit2.o(.ARM.Collect$$libinit$$00000025)
    __rt_lib_init_user_alloc_1               0x08010203   Thumb Code     0  libinit2.o(.ARM.Collect$$libinit$$0000000C)
    __rt_lib_shutdown                        0x08010205   Thumb Code     0  libshutdown.o(.ARM.Collect$$libshutdown$$00000000)
    __rt_lib_shutdown_cpp_1                  0x08010207   Thumb Code     0  libshutdown2.o(.ARM.Collect$$libshutdown$$00000004)
    __rt_lib_shutdown_fini_1                 0x08010207   Thumb Code     0  libshutdown2.o(.ARM.Collect$$libshutdown$$00000002)
    __rt_lib_shutdown_fp_trap_1              0x08010207   Thumb Code     0  libshutdown2.o(.ARM.Collect$$libshutdown$$00000009)
    __rt_lib_shutdown_heap_1                 0x08010207   Thumb Code     0  libshutdown2.o(.ARM.Collect$$libshutdown$$00000011)
    __rt_lib_shutdown_return                 0x08010207   Thumb Code     0  libshutdown2.o(.ARM.Collect$$libshutdown$$00000012)
    __rt_lib_shutdown_signal_1               0x08010207   Thumb Code     0  libshutdown2.o(.ARM.Collect$$libshutdown$$0000000C)
    __rt_lib_shutdown_stdio_1                0x08010207   Thumb Code     0  libshutdown2.o(.ARM.Collect$$libshutdown$$00000006)
    __rt_lib_shutdown_user_alloc_1           0x08010207   Thumb Code     0  libshutdown2.o(.ARM.Collect$$libshutdown$$0000000E)
    __rt_entry                               0x08010209   Thumb Code     0  __rtentry.o(.ARM.Collect$$rtentry$$00000000)
    __rt_entry_presh_1                       0x08010209   Thumb Code     0  __rtentry2.o(.ARM.Collect$$rtentry$$00000002)
    __rt_entry_sh                            0x08010209   Thumb Code     0  __rtentry4.o(.ARM.Collect$$rtentry$$00000004)
    __rt_entry_li                            0x0801020f   Thumb Code     0  __rtentry2.o(.ARM.Collect$$rtentry$$0000000A)
    __rt_entry_postsh_1                      0x0801020f   Thumb Code     0  __rtentry2.o(.ARM.Collect$$rtentry$$00000009)
    __rt_entry_main                          0x08010213   Thumb Code     0  __rtentry2.o(.ARM.Collect$$rtentry$$0000000D)
    __rt_entry_postli_1                      0x08010213   Thumb Code     0  __rtentry2.o(.ARM.Collect$$rtentry$$0000000C)
    __rt_exit                                0x0801021b   Thumb Code     0  rtexit.o(.ARM.Collect$$rtexit$$00000000)
    __rt_exit_ls                             0x0801021d   Thumb Code     0  rtexit2.o(.ARM.Collect$$rtexit$$00000003)
    __rt_exit_prels_1                        0x0801021d   Thumb Code     0  rtexit2.o(.ARM.Collect$$rtexit$$00000002)
    __rt_exit_exit                           0x08010221   Thumb Code     0  rtexit2.o(.ARM.Collect$$rtexit$$00000004)
    Reset_Handler                            0x08010229   Thumb Code     8  startup_stm32l476xx.o(.text)
    ADC1_2_IRQHandler                        0x08010243   Thumb Code     0  startup_stm32l476xx.o(.text)
    ADC3_IRQHandler                          0x08010243   Thumb Code     0  startup_stm32l476xx.o(.text)
    CAN1_RX0_IRQHandler                      0x08010243   Thumb Code     0  startup_stm32l476xx.o(.text)
    CAN1_RX1_IRQHandler                      0x08010243   Thumb Code     0  startup_stm32l476xx.o(.text)
    CAN1_SCE_IRQHandler                      0x08010243   Thumb Code     0  startup_stm32l476xx.o(.text)
    CAN1_TX_IRQHandler                       0x08010243   Thumb Code     0  startup_stm32l476xx.o(.text)
    COMP_IRQHandler                          0x08010243   Thumb Code     0  startup_stm32l476xx.o(.text)
    DFSDM1_FLT0_IRQHandler                   0x08010243   Thumb Code     0  startup_stm32l476xx.o(.text)
    DFSDM1_FLT1_IRQHandler                   0x08010243   Thumb Code     0  startup_stm32l476xx.o(.text)
    DFSDM1_FLT2_IRQHandler                   0x08010243   Thumb Code     0  startup_stm32l476xx.o(.text)
    DFSDM1_FLT3_IRQHandler                   0x08010243   Thumb Code     0  startup_stm32l476xx.o(.text)
    DMA1_Channel1_IRQHandler                 0x08010243   Thumb Code     0  startup_stm32l476xx.o(.text)
    DMA1_Channel2_IRQHandler                 0x08010243   Thumb Code     0  startup_stm32l476xx.o(.text)
    DMA1_Channel3_IRQHandler                 0x08010243   Thumb Code     0  startup_stm32l476xx.o(.text)
    DMA1_Channel4_IRQHandler                 0x08010243   Thumb Code     0  startup_stm32l476xx.o(.text)
    DMA1_Channel5_IRQHandler                 0x08010243   Thumb Code     0  startup_stm32l476xx.o(.text)
    DMA1_Channel6_IRQHandler                 0x08010243   Thumb Code     0  startup_stm32l476xx.o(.text)
    DMA1_Channel7_IRQHandler                 0x08010243   Thumb Code     0  startup_stm32l476xx.o(.text)
    DMA2_Channel1_IRQHandler                 0x08010243   Thumb Code     0  startup_stm32l476xx.o(.text)
    DMA2_Channel2_IRQHandler                 0x08010243   Thumb Code     0  startup_stm32l476xx.o(.text)
    DMA2_Channel3_IRQHandler                 0x08010243   Thumb Code     0  startup_stm32l476xx.o(.text)
    DMA2_Channel4_IRQHandler                 0x08010243   Thumb Code     0  startup_stm32l476xx.o(.text)
    DMA2_Channel5_IRQHandler                 0x08010243   Thumb Code     0  startup_stm32l476xx.o(.text)
    DMA2_Channel6_IRQHandler                 0x08010243   Thumb Code     0  startup_stm32l476xx.o(.text)
    DMA2_Channel7_IRQHandler                 0x08010243   Thumb Code     0  startup_stm32l476xx.o(.text)
    EXTI0_IRQHandler                         0x08010243   Thumb Code     0  startup_stm32l476xx.o(.text)
    EXTI15_10_IRQHandler                     0x08010243   Thumb Code     0  startup_stm32l476xx.o(.text)
    EXTI1_IRQHandler                         0x08010243   Thumb Code     0  startup_stm32l476xx.o(.text)
    EXTI2_IRQHandler                         0x08010243   Thumb Code     0  startup_stm32l476xx.o(.text)
    EXTI3_IRQHandler                         0x08010243   Thumb Code     0  startup_stm32l476xx.o(.text)
    EXTI4_IRQHandler                         0x08010243   Thumb Code     0  startup_stm32l476xx.o(.text)
    EXTI9_5_IRQHandler                       0x08010243   Thumb Code     0  startup_stm32l476xx.o(.text)
    FLASH_IRQHandler                         0x08010243   Thumb Code     0  startup_stm32l476xx.o(.text)
    FMC_IRQHandler                           0x08010243   Thumb Code     0  startup_stm32l476xx.o(.text)
    FPU_IRQHandler                           0x08010243   Thumb Code     0  startup_stm32l476xx.o(.text)
    I2C1_ER_IRQHandler                       0x08010243   Thumb Code     0  startup_stm32l476xx.o(.text)
    I2C1_EV_IRQHandler                       0x08010243   Thumb Code     0  startup_stm32l476xx.o(.text)
    I2C2_ER_IRQHandler                       0x08010243   Thumb Code     0  startup_stm32l476xx.o(.text)
    I2C2_EV_IRQHandler                       0x08010243   Thumb Code     0  startup_stm32l476xx.o(.text)
    I2C3_ER_IRQHandler                       0x08010243   Thumb Code     0  startup_stm32l476xx.o(.text)
    I2C3_EV_IRQHandler                       0x08010243   Thumb Code     0  startup_stm32l476xx.o(.text)
    LCD_IRQHandler                           0x08010243   Thumb Code     0  startup_stm32l476xx.o(.text)
    LPTIM1_IRQHandler                        0x08010243   Thumb Code     0  startup_stm32l476xx.o(.text)
    LPTIM2_IRQHandler                        0x08010243   Thumb Code     0  startup_stm32l476xx.o(.text)
    LPUART1_IRQHandler                       0x08010243   Thumb Code     0  startup_stm32l476xx.o(.text)
    OTG_FS_IRQHandler                        0x08010243   Thumb Code     0  startup_stm32l476xx.o(.text)
    PVD_PVM_IRQHandler                       0x08010243   Thumb Code     0  startup_stm32l476xx.o(.text)
    QUADSPI_IRQHandler                       0x08010243   Thumb Code     0  startup_stm32l476xx.o(.text)
    RCC_IRQHandler                           0x08010243   Thumb Code     0  startup_stm32l476xx.o(.text)
    RNG_IRQHandler                           0x08010243   Thumb Code     0  startup_stm32l476xx.o(.text)
    RTC_Alarm_IRQHandler                     0x08010243   Thumb Code     0  startup_stm32l476xx.o(.text)
    RTC_WKUP_IRQHandler                      0x08010243   Thumb Code     0  startup_stm32l476xx.o(.text)
    SAI1_IRQHandler                          0x08010243   Thumb Code     0  startup_stm32l476xx.o(.text)
    SAI2_IRQHandler                          0x08010243   Thumb Code     0  startup_stm32l476xx.o(.text)
    SDMMC1_IRQHandler                        0x08010243   Thumb Code     0  startup_stm32l476xx.o(.text)
    SPI1_IRQHandler                          0x08010243   Thumb Code     0  startup_stm32l476xx.o(.text)
    SPI2_IRQHandler                          0x08010243   Thumb Code     0  startup_stm32l476xx.o(.text)
    SPI3_IRQHandler                          0x08010243   Thumb Code     0  startup_stm32l476xx.o(.text)
    SWPMI1_IRQHandler                        0x08010243   Thumb Code     0  startup_stm32l476xx.o(.text)
    TAMP_STAMP_IRQHandler                    0x08010243   Thumb Code     0  startup_stm32l476xx.o(.text)
    TIM1_BRK_TIM15_IRQHandler                0x08010243   Thumb Code     0  startup_stm32l476xx.o(.text)
    TIM1_CC_IRQHandler                       0x08010243   Thumb Code     0  startup_stm32l476xx.o(.text)
    TIM1_TRG_COM_TIM17_IRQHandler            0x08010243   Thumb Code     0  startup_stm32l476xx.o(.text)
    TIM1_UP_TIM16_IRQHandler                 0x08010243   Thumb Code     0  startup_stm32l476xx.o(.text)
    TIM2_IRQHandler                          0x08010243   Thumb Code     0  startup_stm32l476xx.o(.text)
    TIM3_IRQHandler                          0x08010243   Thumb Code     0  startup_stm32l476xx.o(.text)
    TIM4_IRQHandler                          0x08010243   Thumb Code     0  startup_stm32l476xx.o(.text)
    TIM5_IRQHandler                          0x08010243   Thumb Code     0  startup_stm32l476xx.o(.text)
    TIM6_DAC_IRQHandler                      0x08010243   Thumb Code     0  startup_stm32l476xx.o(.text)
    TIM7_IRQHandler                          0x08010243   Thumb Code     0  startup_stm32l476xx.o(.text)
    TIM8_BRK_IRQHandler                      0x08010243   Thumb Code     0  startup_stm32l476xx.o(.text)
    TIM8_CC_IRQHandler                       0x08010243   Thumb Code     0  startup_stm32l476xx.o(.text)
    TIM8_TRG_COM_IRQHandler                  0x08010243   Thumb Code     0  startup_stm32l476xx.o(.text)
    TIM8_UP_IRQHandler                       0x08010243   Thumb Code     0  startup_stm32l476xx.o(.text)
    TSC_IRQHandler                           0x08010243   Thumb Code     0  startup_stm32l476xx.o(.text)
    UART4_IRQHandler                         0x08010243   Thumb Code     0  startup_stm32l476xx.o(.text)
    UART5_IRQHandler                         0x08010243   Thumb Code     0  startup_stm32l476xx.o(.text)
    USART1_IRQHandler                        0x08010243   Thumb Code     0  startup_stm32l476xx.o(.text)
    USART3_IRQHandler                        0x08010243   Thumb Code     0  startup_stm32l476xx.o(.text)
    WWDG_IRQHandler                          0x08010243   Thumb Code     0  startup_stm32l476xx.o(.text)
    __user_initial_stackheap                 0x08010245   Thumb Code     0  startup_stm32l476xx.o(.text)
    __aeabi_uldivmod                         0x08010269   Thumb Code     0  lludivv7m.o(.text)
    _ll_udiv                                 0x08010269   Thumb Code   238  lludivv7m.o(.text)
    __aeabi_memclr4                          0x08010357   Thumb Code     0  rt_memclr_w.o(.text)
    __aeabi_memclr8                          0x08010357   Thumb Code     0  rt_memclr_w.o(.text)
    __rt_memclr_w                            0x08010357   Thumb Code    78  rt_memclr_w.o(.text)
    _memset_w                                0x0801035b   Thumb Code     0  rt_memclr_w.o(.text)
    __use_two_region_memory                  0x080103a5   Thumb Code     2  heapauxi.o(.text)
    __rt_heap_escrow$2region                 0x080103a7   Thumb Code     2  heapauxi.o(.text)
    __rt_heap_expand$2region                 0x080103a9   Thumb Code     2  heapauxi.o(.text)
    __user_setup_stackheap                   0x080103ab   Thumb Code    74  sys_stackheap_outer.o(.text)
    exit                                     0x080103f5   Thumb Code    18  exit.o(.text)
    __user_libspace                          0x08010409   Thumb Code     8  libspace.o(.text)
    __user_perproc_libspace                  0x08010409   Thumb Code     0  libspace.o(.text)
    __user_perthread_libspace                0x08010409   Thumb Code     0  libspace.o(.text)
    _sys_exit                                0x08010411   Thumb Code     8  sys_exit.o(.text)
    __I$use$semihosting                      0x0801041d   Thumb Code     0  use_no_semi.o(.text)
    __use_no_semihosting_swi                 0x0801041d   Thumb Code     2  use_no_semi.o(.text)
    BusFault_Handler                         0x0801041f   Thumb Code     4  stm32l4xx_it.o(i.BusFault_Handler)
    __semihosting_library_function           0x0801041f   Thumb Code     0  indicate_semi.o(.text)
    Chk_Busy                                 0x08010425   Thumb Code    70  lcd_driver.o(i.Chk_Busy)
    DebugMon_Handler                         0x08010475   Thumb Code     2  stm32l4xx_it.o(i.DebugMon_Handler)
    DelayMs                                  0x08010477   Thumb Code    32  delay.o(i.DelayMs)
    DelayUs                                  0x08010499   Thumb Code    68  delay.o(i.DelayUs)
    Error_Handler                            0x080104e1   Thumb Code     6  main.o(i.Error_Handler)
    HAL_DMA_Abort                            0x080104e7   Thumb Code    90  stm32l4xx_hal_dma.o(i.HAL_DMA_Abort)
    HAL_DMA_Abort_IT                         0x08010541   Thumb Code    92  stm32l4xx_hal_dma.o(i.HAL_DMA_Abort_IT)
    HAL_GPIO_Init                            0x0801059d   Thumb Code   470  stm32l4xx_hal_gpio.o(i.HAL_GPIO_Init)
    HAL_GPIO_WritePin                        0x08010799   Thumb Code    10  stm32l4xx_hal_gpio.o(i.HAL_GPIO_WritePin)
    HAL_GetTick                              0x080107a5   Thumb Code     6  stm32l4xx_hal.o(i.HAL_GetTick)
    HAL_IncTick                              0x080107b1   Thumb Code    16  stm32l4xx_hal.o(i.HAL_IncTick)
    HAL_Init                                 0x080107c9   Thumb Code    30  stm32l4xx_hal.o(i.HAL_Init)
    HAL_InitTick                             0x080107e9   Thumb Code    74  stm32l4xx_hal.o(i.HAL_InitTick)
    HAL_MspInit                              0x08010841   Thumb Code    58  stm32l4xx_hal_msp.o(i.HAL_MspInit)
    HAL_NVIC_EnableIRQ                       0x08010881   Thumb Code    40  stm32l4xx_hal_cortex.o(i.HAL_NVIC_EnableIRQ)
    HAL_NVIC_SetPriority                     0x080108a9   Thumb Code   124  stm32l4xx_hal_cortex.o(i.HAL_NVIC_SetPriority)
    HAL_NVIC_SetPriorityGrouping             0x0801092d   Thumb Code    32  stm32l4xx_hal_cortex.o(i.HAL_NVIC_SetPriorityGrouping)
    HAL_PWREx_ControlVoltageScaling          0x08010955   Thumb Code   128  stm32l4xx_hal_pwr_ex.o(i.HAL_PWREx_ControlVoltageScaling)
    HAL_PWREx_GetVoltageRange                0x080109e1   Thumb Code    10  stm32l4xx_hal_pwr_ex.o(i.HAL_PWREx_GetVoltageRange)
    HAL_RCCEx_PeriphCLKConfig                0x080109f1   Thumb Code  1230  stm32l4xx_hal_rcc_ex.o(i.HAL_RCCEx_PeriphCLKConfig)
    HAL_RCC_ClockConfig                      0x08010ec5   Thumb Code   414  stm32l4xx_hal_rcc.o(i.HAL_RCC_ClockConfig)
    HAL_RCC_GetHCLKFreq                      0x08011079   Thumb Code     6  stm32l4xx_hal_rcc.o(i.HAL_RCC_GetHCLKFreq)
    HAL_RCC_GetPCLK1Freq                     0x08011085   Thumb Code    26  stm32l4xx_hal_rcc.o(i.HAL_RCC_GetPCLK1Freq)
    HAL_RCC_GetPCLK2Freq                     0x080110a9   Thumb Code    26  stm32l4xx_hal_rcc.o(i.HAL_RCC_GetPCLK2Freq)
    HAL_RCC_GetSysClockFreq                  0x080110cd   Thumb Code   220  stm32l4xx_hal_rcc.o(i.HAL_RCC_GetSysClockFreq)
    HAL_RCC_OscConfig                        0x080111b9   Thumb Code  1750  stm32l4xx_hal_rcc.o(i.HAL_RCC_OscConfig)
    HAL_SYSTICK_Config                       0x080118a1   Thumb Code    52  stm32l4xx_hal_cortex.o(i.HAL_SYSTICK_Config)
    HAL_UARTEx_RxEventCallback               0x080118d5   Thumb Code     2  stm32l4xx_hal_uart.o(i.HAL_UARTEx_RxEventCallback)
    HAL_UARTEx_WakeupCallback                0x080118d7   Thumb Code     2  stm32l4xx_hal_uart_ex.o(i.HAL_UARTEx_WakeupCallback)
    HAL_UART_ErrorCallback                   0x080118d9   Thumb Code     2  stm32l4xx_hal_uart.o(i.HAL_UART_ErrorCallback)
    HAL_UART_IRQHandler                      0x080118dd   Thumb Code   844  stm32l4xx_hal_uart.o(i.HAL_UART_IRQHandler)
    HAL_UART_Init                            0x08011c31   Thumb Code   116  stm32l4xx_hal_uart.o(i.HAL_UART_Init)
    HAL_UART_MspInit                         0x08011ca5   Thumb Code   154  usart.o(i.HAL_UART_MspInit)
    HAL_UART_TxCpltCallback                  0x08011d49   Thumb Code     2  stm32l4xx_hal_uart.o(i.HAL_UART_TxCpltCallback)
    HardFault_Handler                        0x08011d4b   Thumb Code     4  stm32l4xx_it.o(i.HardFault_Handler)
    LCD_ST7920_DataIO_Set_In                 0x08011d51   Thumb Code    36  lcd_driver.o(i.LCD_ST7920_DataIO_Set_In)
    LCD_ST7920_DataIO_Set_Out                0x08011d79   Thumb Code    42  lcd_driver.o(i.LCD_ST7920_DataIO_Set_Out)
    LCD_ST7920_SetAddress                    0x08011da9   Thumb Code    76  lcd_driver.o(i.LCD_ST7920_SetAddress)
    LCD_ST7920_WriteCmd                      0x08011df5   Thumb Code    88  lcd_driver.o(i.LCD_ST7920_WriteCmd)
    LCD_ST7920_WriteData                     0x08011e55   Thumb Code    86  lcd_driver.o(i.LCD_ST7920_WriteData)
    MX_GPIO_Init                             0x08011eb5   Thumb Code    32  gpio.o(i.MX_GPIO_Init)
    MX_USART2_UART_Init                      0x08011ed9   Thumb Code    56  usart.o(i.MX_USART2_UART_Init)
    MemManage_Handler                        0x08011f19   Thumb Code     4  stm32l4xx_it.o(i.MemManage_Handler)
    NMI_Handler                              0x08011f1d   Thumb Code     4  stm32l4xx_it.o(i.NMI_Handler)
    PendSV_Handler                           0x08011f21   Thumb Code     2  stm32l4xx_it.o(i.PendSV_Handler)
    SVC_Handler                              0x080122b1   Thumb Code     2  stm32l4xx_it.o(i.SVC_Handler)
    SysTick_Handler                          0x080122b3   Thumb Code     8  stm32l4xx_it.o(i.SysTick_Handler)
    SystemClock_Config                       0x080122bd   Thumb Code   104  main.o(i.SystemClock_Config)
    SystemInit                               0x0801232d   Thumb Code    14  system_stm32l4xx.o(i.SystemInit)
    UART_AdvFeatureConfig                    0x08012341   Thumb Code   248  stm32l4xx_hal_uart.o(i.UART_AdvFeatureConfig)
    UART_CheckIdleState                      0x08012439   Thumb Code   230  stm32l4xx_hal_uart.o(i.UART_CheckIdleState)
    UART_SetConfig                           0x080125cd   Thumb Code   836  stm32l4xx_hal_uart.o(i.UART_SetConfig)
    UART_WaitOnFlagUntilTimeout              0x0801293b   Thumb Code   162  stm32l4xx_hal_uart.o(i.UART_WaitOnFlagUntilTimeout)
    USART2_IRQHandler                        0x080129dd   Thumb Code    10  stm32l4xx_it.o(i.USART2_IRQHandler)
    UsageFault_Handler                       0x080129ed   Thumb Code     4  stm32l4xx_it.o(i.UsageFault_Handler)
    lcd_clear                                0x08012a29   Thumb Code    16  lcd_driver.o(i.lcd_clear)
    lcd_driver_init                          0x08012a39   Thumb Code    74  lcd_driver.o(i.lcd_driver_init)
    lcd_gpio_init                            0x08012a8d   Thumb Code   216  lcd_driver.o(i.lcd_gpio_init)
    lcd_showstr                              0x08012b75   Thumb Code    42  lcd_driver.o(i.lcd_showstr)
    main                                     0x08012ba1   Thumb Code    34  main.o(i.main)
    _fp_init                                 0x08012bcd   Thumb Code    10  fpinit.o(x$fpl$fpinit)
    __fplib_config_fpu_vfp                   0x08012bd5   Thumb Code     0  fpinit.o(x$fpl$fpinit)
    __fplib_config_pureend_doubles           0x08012bd5   Thumb Code     0  fpinit.o(x$fpl$fpinit)
    AHBPrescTable                            0x08012bd8   Data          16  system_stm32l4xx.o(.constdata)
    APBPrescTable                            0x08012be8   Data           8  system_stm32l4xx.o(.constdata)
    MSIRangeTable                            0x08012bf0   Data          48  system_stm32l4xx.o(.constdata)
    Region$$Table$$Base                      0x08012c20   Number         0  anon$$obj.o(Region$$Table)
    Region$$Table$$Limit                     0x08012c40   Number         0  anon$$obj.o(Region$$Table)
    uwTick                                   0x20000000   Data           4  stm32l4xx_hal.o(.data)
    uwTickPrio                               0x20000004   Data           4  stm32l4xx_hal.o(.data)
    uwTickFreq                               0x20000008   Data           1  stm32l4xx_hal.o(.data)
    SystemCoreClock                          0x2000000c   Data           4  system_stm32l4xx.o(.data)
    huart2                                   0x20000014   Data         136  usart.o(.bss)
    __libspace_start                         0x2000009c   Data          96  libspace.o(.bss)
    __temporary_stack_top$libspace           0x200000fc   Data           0  libspace.o(.bss)



==============================================================================

Memory Map of the image

  Image Entry point : 0x08010189

  Load Region LR_IROM1 (Base: 0x08010000, Size: 0x00002c54, Max: 0x00010000, ABSOLUTE)

    Execution Region ER_IROM1 (Exec base: 0x08010000, Load base: 0x08010000, Size: 0x00002c40, Max: 0x00010000, ABSOLUTE)

    Exec Addr    Load Addr    Size         Type   Attr      Idx    E Section Name        Object

    0x08010000   0x08010000   0x00000188   Data   RO            3    RESET               startup_stm32l476xx.o
    0x08010188   0x08010188   0x00000008   Code   RO         2759  * !!!main             c_w.l(__main.o)
    0x08010190   0x08010190   0x00000034   Code   RO         2928    !!!scatter          c_w.l(__scatter.o)
    0x080101c4   0x080101c4   0x0000001a   Code   RO         2930    !!handler_copy      c_w.l(__scatter_copy.o)
    0x080101de   0x080101de   0x00000002   PAD
    0x080101e0   0x080101e0   0x0000001c   Code   RO         2932    !!handler_zi        c_w.l(__scatter_zi.o)
    0x080101fc   0x080101fc   0x00000002   Code   RO         2796    .ARM.Collect$$libinit$$00000000  c_w.l(libinit.o)
    0x080101fe   0x080101fe   0x00000004   Code   RO         2808    .ARM.Collect$$libinit$$00000001  c_w.l(libinit2.o)
    0x08010202   0x08010202   0x00000000   Code   RO         2811    .ARM.Collect$$libinit$$00000004  c_w.l(libinit2.o)
    0x08010202   0x08010202   0x00000000   Code   RO         2814    .ARM.Collect$$libinit$$0000000A  c_w.l(libinit2.o)
    0x08010202   0x08010202   0x00000000   Code   RO         2816    .ARM.Collect$$libinit$$0000000C  c_w.l(libinit2.o)
    0x08010202   0x08010202   0x00000000   Code   RO         2818    .ARM.Collect$$libinit$$0000000E  c_w.l(libinit2.o)
    0x08010202   0x08010202   0x00000000   Code   RO         2821    .ARM.Collect$$libinit$$00000011  c_w.l(libinit2.o)
    0x08010202   0x08010202   0x00000000   Code   RO         2823    .ARM.Collect$$libinit$$00000013  c_w.l(libinit2.o)
    0x08010202   0x08010202   0x00000000   Code   RO         2825    .ARM.Collect$$libinit$$00000015  c_w.l(libinit2.o)
    0x08010202   0x08010202   0x00000000   Code   RO         2827    .ARM.Collect$$libinit$$00000017  c_w.l(libinit2.o)
    0x08010202   0x08010202   0x00000000   Code   RO         2829    .ARM.Collect$$libinit$$00000019  c_w.l(libinit2.o)
    0x08010202   0x08010202   0x00000000   Code   RO         2831    .ARM.Collect$$libinit$$0000001B  c_w.l(libinit2.o)
    0x08010202   0x08010202   0x00000000   Code   RO         2833    .ARM.Collect$$libinit$$0000001D  c_w.l(libinit2.o)
    0x08010202   0x08010202   0x00000000   Code   RO         2835    .ARM.Collect$$libinit$$0000001F  c_w.l(libinit2.o)
    0x08010202   0x08010202   0x00000000   Code   RO         2837    .ARM.Collect$$libinit$$00000021  c_w.l(libinit2.o)
    0x08010202   0x08010202   0x00000000   Code   RO         2839    .ARM.Collect$$libinit$$00000023  c_w.l(libinit2.o)
    0x08010202   0x08010202   0x00000000   Code   RO         2841    .ARM.Collect$$libinit$$00000025  c_w.l(libinit2.o)
    0x08010202   0x08010202   0x00000000   Code   RO         2845    .ARM.Collect$$libinit$$0000002C  c_w.l(libinit2.o)
    0x08010202   0x08010202   0x00000000   Code   RO         2847    .ARM.Collect$$libinit$$0000002E  c_w.l(libinit2.o)
    0x08010202   0x08010202   0x00000000   Code   RO         2849    .ARM.Collect$$libinit$$00000030  c_w.l(libinit2.o)
    0x08010202   0x08010202   0x00000000   Code   RO         2851    .ARM.Collect$$libinit$$00000032  c_w.l(libinit2.o)
    0x08010202   0x08010202   0x00000002   Code   RO         2852    .ARM.Collect$$libinit$$00000033  c_w.l(libinit2.o)
    0x08010204   0x08010204   0x00000002   Code   RO         2883    .ARM.Collect$$libshutdown$$00000000  c_w.l(libshutdown.o)
    0x08010206   0x08010206   0x00000000   Code   RO         2909    .ARM.Collect$$libshutdown$$00000002  c_w.l(libshutdown2.o)
    0x08010206   0x08010206   0x00000000   Code   RO         2911    .ARM.Collect$$libshutdown$$00000004  c_w.l(libshutdown2.o)
    0x08010206   0x08010206   0x00000000   Code   RO         2913    .ARM.Collect$$libshutdown$$00000006  c_w.l(libshutdown2.o)
    0x08010206   0x08010206   0x00000000   Code   RO         2916    .ARM.Collect$$libshutdown$$00000009  c_w.l(libshutdown2.o)
    0x08010206   0x08010206   0x00000000   Code   RO         2919    .ARM.Collect$$libshutdown$$0000000C  c_w.l(libshutdown2.o)
    0x08010206   0x08010206   0x00000000   Code   RO         2921    .ARM.Collect$$libshutdown$$0000000E  c_w.l(libshutdown2.o)
    0x08010206   0x08010206   0x00000000   Code   RO         2924    .ARM.Collect$$libshutdown$$00000011  c_w.l(libshutdown2.o)
    0x08010206   0x08010206   0x00000002   Code   RO         2925    .ARM.Collect$$libshutdown$$00000012  c_w.l(libshutdown2.o)
    0x08010208   0x08010208   0x00000000   Code   RO         2761    .ARM.Collect$$rtentry$$00000000  c_w.l(__rtentry.o)
    0x08010208   0x08010208   0x00000000   Code   RO         2767    .ARM.Collect$$rtentry$$00000002  c_w.l(__rtentry2.o)
    0x08010208   0x08010208   0x00000006   Code   RO         2779    .ARM.Collect$$rtentry$$00000004  c_w.l(__rtentry4.o)
    0x0801020e   0x0801020e   0x00000000   Code   RO         2769    .ARM.Collect$$rtentry$$00000009  c_w.l(__rtentry2.o)
    0x0801020e   0x0801020e   0x00000004   Code   RO         2770    .ARM.Collect$$rtentry$$0000000A  c_w.l(__rtentry2.o)
    0x08010212   0x08010212   0x00000000   Code   RO         2772    .ARM.Collect$$rtentry$$0000000C  c_w.l(__rtentry2.o)
    0x08010212   0x08010212   0x00000008   Code   RO         2773    .ARM.Collect$$rtentry$$0000000D  c_w.l(__rtentry2.o)
    0x0801021a   0x0801021a   0x00000002   Code   RO         2800    .ARM.Collect$$rtexit$$00000000  c_w.l(rtexit.o)
    0x0801021c   0x0801021c   0x00000000   Code   RO         2856    .ARM.Collect$$rtexit$$00000002  c_w.l(rtexit2.o)
    0x0801021c   0x0801021c   0x00000004   Code   RO         2857    .ARM.Collect$$rtexit$$00000003  c_w.l(rtexit2.o)
    0x08010220   0x08010220   0x00000006   Code   RO         2858    .ARM.Collect$$rtexit$$00000004  c_w.l(rtexit2.o)
    0x08010226   0x08010226   0x00000002   PAD
    0x08010228   0x08010228   0x00000040   Code   RO            4    .text               startup_stm32l476xx.o
    0x08010268   0x08010268   0x000000ee   Code   RO         2753    .text               c_w.l(lludivv7m.o)
    0x08010356   0x08010356   0x0000004e   Code   RO         2755    .text               c_w.l(rt_memclr_w.o)
    0x080103a4   0x080103a4   0x00000006   Code   RO         2757    .text               c_w.l(heapauxi.o)
    0x080103aa   0x080103aa   0x0000004a   Code   RO         2783    .text               c_w.l(sys_stackheap_outer.o)
    0x080103f4   0x080103f4   0x00000012   Code   RO         2785    .text               c_w.l(exit.o)
    0x08010406   0x08010406   0x00000002   PAD
    0x08010408   0x08010408   0x00000008   Code   RO         2797    .text               c_w.l(libspace.o)
    0x08010410   0x08010410   0x0000000c   Code   RO         2853    .text               c_w.l(sys_exit.o)
    0x0801041c   0x0801041c   0x00000002   Code   RO         2872    .text               c_w.l(use_no_semi.o)
    0x0801041e   0x0801041e   0x00000000   Code   RO         2874    .text               c_w.l(indicate_semi.o)
    0x0801041e   0x0801041e   0x00000004   Code   RO          174    i.BusFault_Handler  stm32l4xx_it.o
    0x08010422   0x08010422   0x00000002   PAD
    0x08010424   0x08010424   0x00000050   Code   RO         2334    i.Chk_Busy          lcd_driver.o
    0x08010474   0x08010474   0x00000002   Code   RO          175    i.DebugMon_Handler  stm32l4xx_it.o
    0x08010476   0x08010476   0x00000020   Code   RO         2477    i.DelayMs           delay.o
    0x08010496   0x08010496   0x00000002   PAD
    0x08010498   0x08010498   0x00000048   Code   RO         2478    i.DelayUs           delay.o
    0x080104e0   0x080104e0   0x00000006   Code   RO         2710    i.Error_Handler     main.o
    0x080104e6   0x080104e6   0x0000005a   Code   RO         1595    i.HAL_DMA_Abort     stm32l4xx_hal_dma.o
    0x08010540   0x08010540   0x0000005c   Code   RO         1596    i.HAL_DMA_Abort_IT  stm32l4xx_hal_dma.o
    0x0801059c   0x0801059c   0x000001fc   Code   RO         1531    i.HAL_GPIO_Init     stm32l4xx_hal_gpio.o
    0x08010798   0x08010798   0x0000000a   Code   RO         1535    i.HAL_GPIO_WritePin  stm32l4xx_hal_gpio.o
    0x080107a2   0x080107a2   0x00000002   PAD
    0x080107a4   0x080107a4   0x0000000c   Code   RO          819    i.HAL_GetTick       stm32l4xx_hal.o
    0x080107b0   0x080107b0   0x00000018   Code   RO          825    i.HAL_IncTick       stm32l4xx_hal.o
    0x080107c8   0x080107c8   0x0000001e   Code   RO          826    i.HAL_Init          stm32l4xx_hal.o
    0x080107e6   0x080107e6   0x00000002   PAD
    0x080107e8   0x080107e8   0x00000058   Code   RO          827    i.HAL_InitTick      stm32l4xx_hal.o
    0x08010840   0x08010840   0x00000040   Code   RO          256    i.HAL_MspInit       stm32l4xx_hal_msp.o
    0x08010880   0x08010880   0x00000028   Code   RO         2090    i.HAL_NVIC_EnableIRQ  stm32l4xx_hal_cortex.o
    0x080108a8   0x080108a8   0x00000082   Code   RO         2096    i.HAL_NVIC_SetPriority  stm32l4xx_hal_cortex.o
    0x0801092a   0x0801092a   0x00000002   PAD
    0x0801092c   0x0801092c   0x00000028   Code   RO         2097    i.HAL_NVIC_SetPriorityGrouping  stm32l4xx_hal_cortex.o
    0x08010954   0x08010954   0x0000008c   Code   RO         1822    i.HAL_PWREx_ControlVoltageScaling  stm32l4xx_hal_pwr_ex.o
    0x080109e0   0x080109e0   0x00000010   Code   RO         1855    i.HAL_PWREx_GetVoltageRange  stm32l4xx_hal_pwr_ex.o
    0x080109f0   0x080109f0   0x000004d4   Code   RO         1164    i.HAL_RCCEx_PeriphCLKConfig  stm32l4xx_hal_rcc_ex.o
    0x08010ec4   0x08010ec4   0x000001b4   Code   RO         1043    i.HAL_RCC_ClockConfig  stm32l4xx_hal_rcc.o
    0x08011078   0x08011078   0x0000000c   Code   RO         1047    i.HAL_RCC_GetHCLKFreq  stm32l4xx_hal_rcc.o
    0x08011084   0x08011084   0x00000024   Code   RO         1049    i.HAL_RCC_GetPCLK1Freq  stm32l4xx_hal_rcc.o
    0x080110a8   0x080110a8   0x00000024   Code   RO         1050    i.HAL_RCC_GetPCLK2Freq  stm32l4xx_hal_rcc.o
    0x080110cc   0x080110cc   0x000000ec   Code   RO         1052    i.HAL_RCC_GetSysClockFreq  stm32l4xx_hal_rcc.o
    0x080111b8   0x080111b8   0x000006e8   Code   RO         1055    i.HAL_RCC_OscConfig  stm32l4xx_hal_rcc.o
    0x080118a0   0x080118a0   0x00000034   Code   RO         2101    i.HAL_SYSTICK_Config  stm32l4xx_hal_cortex.o
    0x080118d4   0x080118d4   0x00000002   Code   RO          325    i.HAL_UARTEx_RxEventCallback  stm32l4xx_hal_uart.o
    0x080118d6   0x080118d6   0x00000002   Code   RO          724    i.HAL_UARTEx_WakeupCallback  stm32l4xx_hal_uart_ex.o
    0x080118d8   0x080118d8   0x00000002   Code   RO          341    i.HAL_UART_ErrorCallback  stm32l4xx_hal_uart.o
    0x080118da   0x080118da   0x00000002   PAD
    0x080118dc   0x080118dc   0x00000354   Code   RO          344    i.HAL_UART_IRQHandler  stm32l4xx_hal_uart.o
    0x08011c30   0x08011c30   0x00000074   Code   RO          345    i.HAL_UART_Init     stm32l4xx_hal_uart.o
    0x08011ca4   0x08011ca4   0x000000a4   Code   RO          133    i.HAL_UART_MspInit  usart.o
    0x08011d48   0x08011d48   0x00000002   Code   RO          357    i.HAL_UART_TxCpltCallback  stm32l4xx_hal_uart.o
    0x08011d4a   0x08011d4a   0x00000004   Code   RO          176    i.HardFault_Handler  stm32l4xx_it.o
    0x08011d4e   0x08011d4e   0x00000002   PAD
    0x08011d50   0x08011d50   0x00000028   Code   RO         2335    i.LCD_ST7920_DataIO_Set_In  lcd_driver.o
    0x08011d78   0x08011d78   0x00000030   Code   RO         2336    i.LCD_ST7920_DataIO_Set_Out  lcd_driver.o
    0x08011da8   0x08011da8   0x0000004c   Code   RO         2337    i.LCD_ST7920_SetAddress  lcd_driver.o
    0x08011df4   0x08011df4   0x00000060   Code   RO         2338    i.LCD_ST7920_WriteCmd  lcd_driver.o
    0x08011e54   0x08011e54   0x00000060   Code   RO         2339    i.LCD_ST7920_WriteData  lcd_driver.o
    0x08011eb4   0x08011eb4   0x00000024   Code   RO           13    i.MX_GPIO_Init      gpio.o
    0x08011ed8   0x08011ed8   0x00000040   Code   RO          134    i.MX_USART2_UART_Init  usart.o
    0x08011f18   0x08011f18   0x00000004   Code   RO          177    i.MemManage_Handler  stm32l4xx_it.o
    0x08011f1c   0x08011f1c   0x00000004   Code   RO          178    i.NMI_Handler       stm32l4xx_it.o
    0x08011f20   0x08011f20   0x00000002   Code   RO          179    i.PendSV_Handler    stm32l4xx_it.o
    0x08011f22   0x08011f22   0x00000002   PAD
    0x08011f24   0x08011f24   0x0000018c   Code   RO         1168    i.RCCEx_PLLSAI1_Config  stm32l4xx_hal_rcc_ex.o
    0x080120b0   0x080120b0   0x00000164   Code   RO         1169    i.RCCEx_PLLSAI2_Config  stm32l4xx_hal_rcc_ex.o
    0x08012214   0x08012214   0x0000009c   Code   RO         1056    i.RCC_SetFlashLatencyFromMSIRange  stm32l4xx_hal_rcc.o
    0x080122b0   0x080122b0   0x00000002   Code   RO          180    i.SVC_Handler       stm32l4xx_it.o
    0x080122b2   0x080122b2   0x00000008   Code   RO          181    i.SysTick_Handler   stm32l4xx_it.o
    0x080122ba   0x080122ba   0x00000002   PAD
    0x080122bc   0x080122bc   0x00000070   Code   RO         2711    i.SystemClock_Config  main.o
    0x0801232c   0x0801232c   0x00000014   Code   RO         2298    i.SystemInit        system_stm32l4xx.o
    0x08012340   0x08012340   0x000000f8   Code   RO          359    i.UART_AdvFeatureConfig  stm32l4xx_hal_uart.o
    0x08012438   0x08012438   0x000000e6   Code   RO          360    i.UART_CheckIdleState  stm32l4xx_hal_uart.o
    0x0801251e   0x0801251e   0x00000018   Code   RO          361    i.UART_DMAAbortOnError  stm32l4xx_hal_uart.o
    0x08012536   0x08012536   0x00000066   Code   RO          371    i.UART_EndRxTransfer  stm32l4xx_hal_uart.o
    0x0801259c   0x0801259c   0x0000002e   Code   RO          372    i.UART_EndTransmit_IT  stm32l4xx_hal_uart.o
    0x080125ca   0x080125ca   0x00000002   PAD
    0x080125cc   0x080125cc   0x0000036e   Code   RO          376    i.UART_SetConfig    stm32l4xx_hal_uart.o
    0x0801293a   0x0801293a   0x000000a2   Code   RO          381    i.UART_WaitOnFlagUntilTimeout  stm32l4xx_hal_uart.o
    0x080129dc   0x080129dc   0x00000010   Code   RO          182    i.USART2_IRQHandler  stm32l4xx_it.o
    0x080129ec   0x080129ec   0x00000004   Code   RO          183    i.UsageFault_Handler  stm32l4xx_it.o
    0x080129f0   0x080129f0   0x00000010   Code   RO         2103    i.__NVIC_GetPriorityGrouping  stm32l4xx_hal_cortex.o
    0x08012a00   0x08012a00   0x00000028   Code   RO         2104    i.__NVIC_SetPriority  stm32l4xx_hal_cortex.o
    0x08012a28   0x08012a28   0x00000010   Code   RO         2340    i.lcd_clear         lcd_driver.o
    0x08012a38   0x08012a38   0x00000054   Code   RO         2343    i.lcd_driver_init   lcd_driver.o
    0x08012a8c   0x08012a8c   0x000000e8   Code   RO         2344    i.lcd_gpio_init     lcd_driver.o
    0x08012b74   0x08012b74   0x0000002a   Code   RO         2351    i.lcd_showstr       lcd_driver.o
    0x08012b9e   0x08012b9e   0x00000002   PAD
    0x08012ba0   0x08012ba0   0x0000002c   Code   RO         2712    i.main              main.o
    0x08012bcc   0x08012bcc   0x0000000a   Code   RO         2868    x$fpl$fpinit        fz_wm.l(fpinit.o)
    0x08012bd6   0x08012bd6   0x00000002   PAD
    0x08012bd8   0x08012bd8   0x00000048   Data   RO         2299    .constdata          system_stm32l4xx.o
    0x08012c20   0x08012c20   0x00000020   Data   RO         2926    Region$$Table       anon$$obj.o


    Execution Region RW_IRAM1 (Exec base: 0x20000000, Load base: 0x08012c40, Size: 0x00000700, Max: 0x00018000, ABSOLUTE)

    Exec Addr    Load Addr    Size         Type   Attr      Idx    E Section Name        Object

    0x20000000   0x08012c40   0x00000009   Data   RW          843    .data               stm32l4xx_hal.o
    0x20000009   0x08012c49   0x00000003   PAD
    0x2000000c   0x08012c4c   0x00000004   Data   RW         2300    .data               system_stm32l4xx.o
    0x20000010   0x08012c50   0x00000002   Data   RW         2479    .data               delay.o
    0x20000012   0x08012c52   0x00000002   PAD
    0x20000014        -       0x00000088   Zero   RW          135    .bss                usart.o
    0x2000009c        -       0x00000060   Zero   RW         2798    .bss                c_w.l(libspace.o)
    0x200000fc   0x08012c52   0x00000004   PAD
    0x20000100        -       0x00000200   Zero   RW            2    HEAP                startup_stm32l476xx.o
    0x20000300        -       0x00000400   Zero   RW            1    STACK               startup_stm32l476xx.o


==============================================================================

Image component sizes


      Code (inc. data)   RO Data    RW Data    ZI Data      Debug   Object Name

       104          4          0          2          0       1372   delay.o
        36          4          0          0          0     792323   gpio.o
       810         64          0          0          0       6795   lcd_driver.o
       162         18          0          0          0       1608   main.o
        64         26        392          0       1536        848   startup_stm32l476xx.o
       154         28          0          9          0      13893   stm32l4xx_hal.o
       318         22          0          0          0      34375   stm32l4xx_hal_cortex.o
       182          0          0          0          0       1895   stm32l4xx_hal_dma.o
       518         38          0          0          0       2216   stm32l4xx_hal_gpio.o
        64          6          0          0          0        978   stm32l4xx_hal_msp.o
       156         18          0          0          0       1362   stm32l4xx_hal_pwr_ex.o
      2680        110          0          0          0       7496   stm32l4xx_hal_rcc.o
      1988         48          0          0          0       4080   stm32l4xx_hal_rcc_ex.o
      2664         64          0          0          0      11071   stm32l4xx_hal_uart.o
         2          0          0          0          0       1108   stm32l4xx_hal_uart_ex.o
        50          6          0          0          0       4750   stm32l4xx_it.o
        20          6         72          4          0       1321   system_stm32l4xx.o
       228         18          0          0        136       1886   usart.o

    ----------------------------------------------------------------------
     10222        480        496         20       1672     889377   Object Totals
         0          0         32          0          0          0   (incl. Generated)
        22          0          0          5          0          0   (incl. Padding)

    ----------------------------------------------------------------------

      Code (inc. data)   RO Data    RW Data    ZI Data      Debug   Library Member Name

         8          0          0          0          0         68   __main.o
         0          0          0          0          0          0   __rtentry.o
        12          0          0          0          0          0   __rtentry2.o
         6          0          0          0          0          0   __rtentry4.o
        52          8          0          0          0          0   __scatter.o
        26          0          0          0          0          0   __scatter_copy.o
        28          0          0          0          0          0   __scatter_zi.o
        18          0          0          0          0         80   exit.o
         6          0          0          0          0        152   heapauxi.o
         0          0          0          0          0          0   indicate_semi.o
         2          0          0          0          0          0   libinit.o
         6          0          0          0          0          0   libinit2.o
         2          0          0          0          0          0   libshutdown.o
         2          0          0          0          0          0   libshutdown2.o
         8          4          0          0         96         68   libspace.o
       238          0          0          0          0        100   lludivv7m.o
        78          0          0          0          0         80   rt_memclr_w.o
         2          0          0          0          0          0   rtexit.o
        10          0          0          0          0          0   rtexit2.o
        12          4          0          0          0         68   sys_exit.o
        74          0          0          0          0         80   sys_stackheap_outer.o
         2          0          0          0          0         68   use_no_semi.o
        10          0          0          0          0        116   fpinit.o

    ----------------------------------------------------------------------
       610         16          0          0        100        880   Library Totals
         8          0          0          0          4          0   (incl. Padding)

    ----------------------------------------------------------------------

      Code (inc. data)   RO Data    RW Data    ZI Data      Debug   Library Name

       592         16          0          0         96        764   c_w.l
        10          0          0          0          0        116   fz_wm.l

    ----------------------------------------------------------------------
       610         16          0          0        100        880   Library Totals

    ----------------------------------------------------------------------

==============================================================================


      Code (inc. data)   RO Data    RW Data    ZI Data      Debug   

     10832        496        496         20       1772     883797   Grand Totals
     10832        496        496         20       1772     883797   ELF Image Totals
     10832        496        496         20          0          0   ROM Totals

==============================================================================

    Total RO  Size (Code + RO Data)                11328 (  11.06kB)
    Total RW  Size (RW Data + ZI Data)              1792 (   1.75kB)
    Total ROM Size (Code + RO Data + RW Data)      11348 (  11.08kB)

==============================================================================

