Component: ARM Compiler 5.06 update 7 (build 960) Tool: armlink [4d3601]

==============================================================================

Section Cross References

    startup_stm32l476xx.o(RESET) refers to startup_stm32l476xx.o(STACK) for __initial_sp
    startup_stm32l476xx.o(RESET) refers to startup_stm32l476xx.o(.text) for Reset_Handler
    startup_stm32l476xx.o(RESET) refers to stm32l4xx_it.o(i.NMI_Handler) for NMI_Handler
    startup_stm32l476xx.o(RESET) refers to stm32l4xx_it.o(i.HardFault_Handler) for HardFault_Handler
    startup_stm32l476xx.o(RESET) refers to stm32l4xx_it.o(i.MemManage_Handler) for MemManage_Handler
    startup_stm32l476xx.o(RESET) refers to stm32l4xx_it.o(i.BusFault_Handler) for BusFault_Handler
    startup_stm32l476xx.o(RESET) refers to stm32l4xx_it.o(i.UsageFault_Handler) for UsageFault_Handler
    startup_stm32l476xx.o(RESET) refers to stm32l4xx_it.o(i.SVC_Handler) for SVC_Handler
    startup_stm32l476xx.o(RESET) refers to stm32l4xx_it.o(i.DebugMon_Handler) for DebugMon_Handler
    startup_stm32l476xx.o(RESET) refers to stm32l4xx_it.o(i.PendSV_Handler) for PendSV_Handler
    startup_stm32l476xx.o(RESET) refers to stm32l4xx_it.o(i.SysTick_Handler) for SysTick_Handler
    startup_stm32l476xx.o(RESET) refers to meter_init.o(i.RTC_WKUP_IRQHandler) for RTC_WKUP_IRQHandler
    startup_stm32l476xx.o(RESET) refers to meter_init.o(i.EXTI0_IRQHandler) for EXTI0_IRQHandler
    startup_stm32l476xx.o(RESET) refers to meter_init.o(i.EXTI1_IRQHandler) for EXTI1_IRQHandler
    startup_stm32l476xx.o(RESET) refers to meter_init.o(i.EXTI2_IRQHandler) for EXTI2_IRQHandler
    startup_stm32l476xx.o(RESET) refers to meter_init.o(i.EXTI3_IRQHandler) for EXTI3_IRQHandler
    startup_stm32l476xx.o(RESET) refers to meter_init.o(i.EXTI4_IRQHandler) for EXTI4_IRQHandler
    startup_stm32l476xx.o(RESET) refers to meter_init.o(i.EXTI9_5_IRQHandler) for EXTI9_5_IRQHandler
==============================================================================

Removing Unused input sections from the image.

    Removing main.o(.rev16_text), (4 bytes).
    Removing main.o(.revsh_text), (4 bytes).
    Removing main.o(.rrx_text), (6 bytes).
    Removing main.o(i.SystemClock_Config_HS), (136 bytes).
    Removing main.o(.data), (4 bytes).
    Removing gpio.o(.rev16_text), (4 bytes).
    Removing gpio.o(.revsh_text), (4 bytes).
    Removing gpio.o(.rrx_text), (6 bytes).
    Removing stm32l4xx_it.o(.rev16_text), (4 bytes).
    Removing stm32l4xx_it.o(.revsh_text), (4 bytes).
    Removing stm32l4xx_it.o(.rrx_text), (6 bytes).
    Removing stm32l4xx_hal_msp.o(.rev16_text), (4 bytes).
    Removing stm32l4xx_hal_msp.o(.revsh_text), (4 bytes).
    Removing stm32l4xx_hal_msp.o(.rrx_text), (6 bytes).
    Removing rng.o(.rev16_text), (4 bytes).
    Removing rng.o(.revsh_text), (4 bytes).
    Removing rng.o(.rrx_text), (6 bytes).
    Removing rng.o(i.HAL_RNG_MspInit), (112 bytes).
==============================================================================

Image Symbol Table

    Local Symbols

    Symbol Name                              Value     Ov Type        Size  Object(Section)

    ../Core/Src/gpio.c                       0x00000000   Number         0  gpio.o ABSOLUTE
    ../Core/Src/main.c                       0x00000000   Number         0  main.o ABSOLUTE
    ../Core/Src/stm32l4xx_hal_msp.c          0x00000000   Number         0  stm32l4xx_hal_msp.o ABSOLUTE
    ../Core/Src/stm32l4xx_it.c               0x00000000   Number         0  stm32l4xx_it.o ABSOLUTE
    ../Core/Src/system_stm32l4xx.c           0x00000000   Number         0  system_stm32l4xx.o ABSOLUTE
    ../Drivers/STM32L4xx_HAL_Driver/Src/stm32l4xx_hal.c 0x00000000   Number         0  stm32l4xx_hal.o ABSOLUTE
    ../Drivers/STM32L4xx_HAL_Driver/Src/stm32l4xx_hal_cortex.c 0x00000000   Number         0  stm32l4xx_hal_cortex.o ABSOLUTE
    ../Drivers/STM32L4xx_HAL_Driver/Src/stm32l4xx_hal_dma.c 0x00000000   Number         0  stm32l4xx_hal_dma.o ABSOLUTE
    ../Drivers/STM32L4xx_HAL_Driver/Src/stm32l4xx_hal_dma_ex.c 0x00000000   Number         0  stm32l4xx_hal_dma_ex.o ABSOLUTE
    ../Drivers/STM32L4xx_HAL_Driver/Src/stm32l4xx_hal_exti.c 0x00000000   Number         0  stm32l4xx_hal_exti.o ABSOLUTE
    ../Drivers/STM32L4xx_HAL_Driver/Src/stm32l4xx_hal_flash.c 0x00000000   Number         0  stm32l4xx_hal_flash.o ABSOLUTE
    ../Drivers/STM32L4xx_HAL_Driver/Src/stm32l4xx_hal_flash_ex.c 0x00000000   Number         0  stm32l4xx_hal_flash_ex.o ABSOLUTE
    ../Drivers/STM32L4xx_HAL_Driver/Src/stm32l4xx_hal_flash_ramfunc.c 0x00000000   Number         0  stm32l4xx_hal_flash_ramfunc.o ABSOLUTE
    ../Drivers/STM32L4xx_HAL_Driver/Src/stm32l4xx_hal_gpio.c 0x00000000   Number         0  stm32l4xx_hal_gpio.o ABSOLUTE
    ../Drivers/STM32L4xx_HAL_Driver/Src/stm32l4xx_hal_pwr.c 0x00000000   Number         0  stm32l4xx_hal_pwr.o ABSOLUTE
    ../Drivers/STM32L4xx_HAL_Driver/Src/stm32l4xx_hal_pwr_ex.c 0x00000000   Number         0  stm32l4xx_hal_pwr_ex.o ABSOLUTE
    ../Drivers/STM32L4xx_HAL_Driver/Src/stm32l4xx_hal_rcc.c 0x00000000   Number         0  stm32l4xx_hal_rcc.o ABSOLUTE
    ../Drivers/STM32L4xx_HAL_Driver/Src/stm32l4xx_hal_rcc_ex.c 0x00000000   Number         0  stm32l4xx_hal_rcc_ex.o ABSOLUTE
    ../Drivers/STM32L4xx_HAL_Driver/Src/stm32l4xx_hal_tim.c 0x00000000   Number         0  stm32l4xx_hal_tim.o ABSOLUTE
    ../Drivers/STM32L4xx_HAL_Driver/Src/stm32l4xx_hal_tim_ex.c 0x00000000   Number         0  stm32l4xx_hal_tim_ex.o ABSOLUTE
    ../clib/../cmprslib/lz77c.c              0x00000000   Number         0  __dclz77c.o ABSOLUTE
    ../clib/microlib/ctype/ctype.c           0x00000000   Number         0  isspace_c.o ABSOLUTE
    ../clib/microlib/ctype/ctype.c           0x00000000   Number         0  ctype_c.o ABSOLUTE
    ../clib/microlib/division.c              0x00000000   Number         0  uldiv.o ABSOLUTE
    ../clib/microlib/division.c              0x00000000   Number         0  uidiv.o ABSOLUTE
    ../clib/microlib/errno.c                 0x00000000   Number         0  errno.o ABSOLUTE
    ../clib/microlib/init/entry.s            0x00000000   Number         0  entry2.o ABSOLUTE
    ../clib/microlib/init/entry.s            0x00000000   Number         0  entry11a.o ABSOLUTE
    ../clib/microlib/init/entry.s            0x00000000   Number         0  entry12a.o ABSOLUTE
    ../clib/microlib/init/entry.s            0x00000000   Number         0  entry10b.o ABSOLUTE
    ../clib/microlib/init/entry.s            0x00000000   Number         0  entry10a.o ABSOLUTE
    ../clib/microlib/init/entry.s            0x00000000   Number         0  entry9b.o ABSOLUTE
    ../clib/microlib/init/entry.s            0x00000000   Number         0  entry12b.o ABSOLUTE
    ../clib/microlib/init/entry.s            0x00000000   Number         0  entry9a.o ABSOLUTE
    ../clib/microlib/init/entry.s            0x00000000   Number         0  entry7b.o ABSOLUTE
    ../clib/microlib/init/entry.s            0x00000000   Number         0  entry8b.o ABSOLUTE
    ../clib/microlib/init/entry.s            0x00000000   Number         0  entry8a.o ABSOLUTE
    ../clib/microlib/init/entry.s            0x00000000   Number         0  entry.o ABSOLUTE
    ../clib/microlib/init/entry.s            0x00000000   Number         0  entry11b.o ABSOLUTE
    ../clib/microlib/init/entry.s            0x00000000   Number         0  entry7a.o ABSOLUTE
    ../clib/microlib/init/entry.s            0x00000000   Number         0  entry5.o ABSOLUTE
    ../clib/microlib/longlong.c              0x00000000   Number         0  llshl.o ABSOLUTE
    ../clib/microlib/longlong.c              0x00000000   Number         0  llsshr.o ABSOLUTE
    ../clib/microlib/longlong.c              0x00000000   Number         0  llushr.o ABSOLUTE
    ../clib/microlib/malloc/malloc.c         0x00000000   Number         0  malloc.o ABSOLUTE
    ../clib/microlib/malloc/malloc.c         0x00000000   Number         0  mallocr.o ABSOLUTE
    ../clib/microlib/malloc/malloc.c         0x00000000   Number         0  malloca.o ABSOLUTE
    ../clib/microlib/malloc/malloc.c         0x00000000   Number         0  mallocra.o ABSOLUTE
    ../clib/microlib/malloc/mvars.c          0x00000000   Number         0  mvars.o ABSOLUTE
    ../clib/microlib/printf/printf.c         0x00000000   Number         0  printf4.o ABSOLUTE
    ../clib/microlib/printf/printf.c         0x00000000   Number         0  printfa.o ABSOLUTE
    ../clib/microlib/printf/printf.c         0x00000000   Number         0  printf8.o ABSOLUTE
    ../clib/microlib/printf/printf.c         0x00000000   Number         0  printf5.o ABSOLUTE
    ../clib/microlib/printf/printf.c         0x00000000   Number         0  printf2.o ABSOLUTE
    ../clib/microlib/printf/printf.c         0x00000000   Number         0  printfb.o ABSOLUTE
    ../clib/microlib/printf/printf.c         0x00000000   Number         0  printf6.o ABSOLUTE
    ../clib/microlib/printf/printf.c         0x00000000   Number         0  printf7.o ABSOLUTE
    ../clib/microlib/printf/printf.c         0x00000000   Number         0  printf0.o ABSOLUTE
    ../clib/microlib/printf/printf.c         0x00000000   Number         0  printf1.o ABSOLUTE
    ../clib/microlib/printf/printf.c         0x00000000   Number         0  printf3.o ABSOLUTE
    ../clib/microlib/printf/stubs.s          0x00000000   Number         0  stubs.o ABSOLUTE
    ../clib/microlib/stdio/streams.c         0x00000000   Number         0  stdout.o ABSOLUTE
    ../clib/microlib/string/memcpy.c         0x00000000   Number         0  memcpya.o ABSOLUTE
    ../clib/microlib/string/memcpy.c         0x00000000   Number         0  memcpyb.o ABSOLUTE
    ../clib/microlib/string/memset.c         0x00000000   Number         0  memseta.o ABSOLUTE
    ../clib/microlib/string/strcpy.c         0x00000000   Number         0  strcpy.o ABSOLUTE
    ../clib/microlib/string/strlen.c         0x00000000   Number         0  strlen.o ABSOLUTE
    ../clib/microlib/string/strncpy.c        0x00000000   Number         0  strncpy.o ABSOLUTE
    ../clib/microlib/string/strstr.c         0x00000000   Number         0  strstr.o ABSOLUTE
    ../clib/microlib/stubs.s                 0x00000000   Number         0  iusefp.o ABSOLUTE
    ../clib/scanf.c                          0x00000000   Number         0  _scanf.o ABSOLUTE
    ../clib/scanf.c                          0x00000000   Number         0  _sgetc.o ABSOLUTE
    ../clib/scanf.c                          0x00000000   Number         0  __0sscanf.o ABSOLUTE
    ../clib/scanf.c                          0x00000000   Number         0  _scanf_int.o ABSOLUTE
    ../clib/scanf.c                          0x00000000   Number         0  _chval.o ABSOLUTE
    ../clib/scanf.c                          0x00000000   Number         0  scanf_char.o ABSOLUTE
    ../fplib/microlib/d2f.c                  0x00000000   Number         0  d2f.o ABSOLUTE
    ../fplib/microlib/f2d.c                  0x00000000   Number         0  f2d.o ABSOLUTE
    ../fplib/microlib/fpadd.c                0x00000000   Number         0  dadd.o ABSOLUTE
    ../fplib/microlib/fpdiv.c                0x00000000   Number         0  ddiv.o ABSOLUTE
    ../fplib/microlib/fpepilogue.c           0x00000000   Number         0  fepilogue.o ABSOLUTE
    ../fplib/microlib/fpepilogue.c           0x00000000   Number         0  depilogue.o ABSOLUTE
    ../fplib/microlib/fpfix.c                0x00000000   Number         0  dfixi.o ABSOLUTE
    ../fplib/microlib/fpfix.c                0x00000000   Number         0  dfixul.o ABSOLUTE
    ../fplib/microlib/fpfix.c                0x00000000   Number         0  dfixui.o ABSOLUTE
    ../fplib/microlib/fpflt.c                0x00000000   Number         0  dflti.o ABSOLUTE
    ../fplib/microlib/fpflt.c                0x00000000   Number         0  dfltul.o ABSOLUTE
    ../fplib/microlib/fpflt.c                0x00000000   Number         0  dfltui.o ABSOLUTE
    ../fplib/microlib/fpmul.c                0x00000000   Number         0  dmul.o ABSOLUTE
    ../fplib/microlib/fpneg.c                0x00000000   Number         0  dneg.o ABSOLUTE
    ../fplib/microlib/fprnd.c                0x00000000   Number         0  drnd.o ABSOLUTE
    ../fplib/microlib/fprnd.c                0x00000000   Number         0  frnd.o ABSOLUTE
    ../fplib/microlib/fpscalb.c              0x00000000   Number         0  dscalb.o ABSOLUTE
    ../fplib/microlib/fpsqrt.c               0x00000000   Number         0  dsqrt.o ABSOLUTE
    ../mathlib/dunder.c                      0x00000000   Number         0  dunder.o ABSOLUTE
    ../mathlib/fabs.c                        0x00000000   Number         0  fabs.o ABSOLUTE
    ../mathlib/fpclassify.c                  0x00000000   Number         0  fpclassify.o ABSOLUTE
    ../mathlib/poly.c                        0x00000000   Number         0  poly.o ABSOLUTE
    ../mathlib/pow.c                         0x00000000   Number         0  pow_x.o ABSOLUTE
    ../mathlib/pow.c                         0x00000000   Number         0  pow.o ABSOLUTE
    ../mathlib/qnan.c                        0x00000000   Number         0  qnan.o ABSOLUTE
    ../mathlib/round.c                       0x00000000   Number         0  round.o ABSOLUTE
    ../mathlib/round.c                       0x00000000   Number         0  roundf.o ABSOLUTE
    ../mathlib/sqrt.c                        0x00000000   Number         0  sqrt_x.o ABSOLUTE
    ../mathlib/sqrt.c                        0x00000000   Number         0  sqrt.o ABSOLUTE
    ..\Core\Src\gpio.c                       0x00000000   Number         0  gpio.o ABSOLUTE
    ..\Core\Src\main.c                       0x00000000   Number         0  main.o ABSOLUTE
    ..\Core\Src\rng.c                        0x00000000   Number         0  rng.o ABSOLUTE
    ..\Core\Src\stm32l4xx_hal_msp.c          0x00000000   Number         0  stm32l4xx_hal_msp.o ABSOLUTE
    ..\Core\Src\stm32l4xx_it.c               0x00000000   Number         0  stm32l4xx_it.o ABSOLUTE
    ..\Core\Src\system_stm32l4xx.c           0x00000000   Number         0  system_stm32l4xx.o ABSOLUTE
    ..\Drivers\STM32L4xx_HAL_Driver\Src\stm32l4xx_hal.c 0x00000000   Number         0  stm32l4xx_hal.o ABSOLUTE
    ..\Drivers\STM32L4xx_HAL_Driver\Src\stm32l4xx_hal_adc.c 0x00000000   Number         0  stm32l4xx_hal_adc.o ABSOLUTE
    ..\Drivers\STM32L4xx_HAL_Driver\Src\stm32l4xx_hal_adc_ex.c 0x00000000   Number         0  stm32l4xx_hal_adc_ex.o ABSOLUTE
    ..\Drivers\STM32L4xx_HAL_Driver\Src\stm32l4xx_hal_cortex.c 0x00000000   Number         0  stm32l4xx_hal_cortex.o ABSOLUTE
    ..\Drivers\STM32L4xx_HAL_Driver\Src\stm32l4xx_hal_dma.c 0x00000000   Number         0  stm32l4xx_hal_dma.o ABSOLUTE
    ..\Drivers\STM32L4xx_HAL_Driver\Src\stm32l4xx_hal_dma_ex.c 0x00000000   Number         0  stm32l4xx_hal_dma_ex.o ABSOLUTE
    ..\Drivers\STM32L4xx_HAL_Driver\Src\stm32l4xx_hal_exti.c 0x00000000   Number         0  stm32l4xx_hal_exti.o ABSOLUTE
    ..\Drivers\STM32L4xx_HAL_Driver\Src\stm32l4xx_hal_flash.c 0x00000000   Number         0  stm32l4xx_hal_flash.o ABSOLUTE
    ..\Drivers\STM32L4xx_HAL_Driver\Src\stm32l4xx_hal_flash_ex.c 0x00000000   Number         0  stm32l4xx_hal_flash_ex.o ABSOLUTE
    ..\Drivers\STM32L4xx_HAL_Driver\Src\stm32l4xx_hal_flash_ramfunc.c 0x00000000   Number         0  stm32l4xx_hal_flash_ramfunc.o ABSOLUTE
    ..\Drivers\STM32L4xx_HAL_Driver\Src\stm32l4xx_hal_gpio.c 0x00000000   Number         0  stm32l4xx_hal_gpio.o ABSOLUTE
    ..\Drivers\STM32L4xx_HAL_Driver\Src\stm32l4xx_hal_i2c.c 0x00000000   Number         0  stm32l4xx_hal_i2c.o ABSOLUTE
    ..\Drivers\STM32L4xx_HAL_Driver\Src\stm32l4xx_hal_i2c_ex.c 0x00000000   Number         0  stm32l4xx_hal_i2c_ex.o ABSOLUTE
    ..\Drivers\STM32L4xx_HAL_Driver\Src\stm32l4xx_hal_iwdg.c 0x00000000   Number         0  stm32l4xx_hal_iwdg.o ABSOLUTE
    ..\Drivers\STM32L4xx_HAL_Driver\Src\stm32l4xx_hal_pwr.c 0x00000000   Number         0  stm32l4xx_hal_pwr.o ABSOLUTE
    ..\Drivers\STM32L4xx_HAL_Driver\Src\stm32l4xx_hal_pwr_ex.c 0x00000000   Number         0  stm32l4xx_hal_pwr_ex.o ABSOLUTE
    ..\Drivers\STM32L4xx_HAL_Driver\Src\stm32l4xx_hal_rcc.c 0x00000000   Number         0  stm32l4xx_hal_rcc.o ABSOLUTE
    ..\Drivers\STM32L4xx_HAL_Driver\Src\stm32l4xx_hal_rcc_ex.c 0x00000000   Number         0  stm32l4xx_hal_rcc_ex.o ABSOLUTE
    ..\Drivers\STM32L4xx_HAL_Driver\Src\stm32l4xx_hal_rng.c 0x00000000   Number         0  stm32l4xx_hal_rng.o ABSOLUTE
    ..\Drivers\STM32L4xx_HAL_Driver\Src\stm32l4xx_hal_rtc.c 0x00000000   Number         0  stm32l4xx_hal_rtc.o ABSOLUTE
    ..\Drivers\STM32L4xx_HAL_Driver\Src\stm32l4xx_hal_rtc_ex.c 0x00000000   Number         0  stm32l4xx_hal_rtc_ex.o ABSOLUTE
    ..\Drivers\STM32L4xx_HAL_Driver\Src\stm32l4xx_hal_tim.c 0x00000000   Number         0  stm32l4xx_hal_tim.o ABSOLUTE
    ..\Drivers\STM32L4xx_HAL_Driver\Src\stm32l4xx_hal_tim_ex.c 0x00000000   Number         0  stm32l4xx_hal_tim_ex.o ABSOLUTE
    ..\Drivers\STM32L4xx_HAL_Driver\Src\stm32l4xx_hal_uart.c 0x00000000   Number         0  stm32l4xx_hal_uart.o ABSOLUTE
    ..\Drivers\STM32L4xx_HAL_Driver\Src\stm32l4xx_hal_uart_ex.c 0x00000000   Number         0  stm32l4xx_hal_uart_ex.o ABSOLUTE
    ..\Drivers\STM32L4xx_HAL_Driver\Src\stm32l4xx_hal_usart.c 0x00000000   Number         0  stm32l4xx_hal_usart.o ABSOLUTE
    ..\Drivers\STM32L4xx_HAL_Driver\Src\stm32l4xx_hal_usart_ex.c 0x00000000   Number         0  stm32l4xx_hal_usart_ex.o ABSOLUTE
    ..\UserApp\src\Aes_128.c                 0x00000000   Number         0  aes_128.o ABSOLUTE
    ..\UserApp\src\VoltageDetection_app.c    0x00000000   Number         0  voltagedetection_app.o ABSOLUTE
    ..\UserApp\src\dev_aizhi_app.c           0x00000000   Number         0  dev_aizhi_app.o ABSOLUTE
    ..\UserApp\src\dev_cangnan1_app.c        0x00000000   Number         0  dev_cangnan1_app.o ABSOLUTE
    ..\UserApp\src\dev_cangnan2_app.c        0x00000000   Number         0  dev_cangnan2_app.o ABSOLUTE
    ..\UserApp\src\dev_elster_app.c          0x00000000   Number         0  dev_elster_app.o ABSOLUTE
    ..\UserApp\src\dev_htdl_app.c            0x00000000   Number         0  dev_htdl_app.o ABSOLUTE
    ..\UserApp\src\dev_lmt1_app.c            0x00000000   Number         0  dev_lmt1_app.o ABSOLUTE
    ..\UserApp\src\dev_lmt2_app.c            0x00000000   Number         0  dev_lmt2_app.o ABSOLUTE
    ..\UserApp\src\dev_lunci_app.c           0x00000000   Number         0  dev_lunci_app.o ABSOLUTE
    ..\UserApp\src\dev_tianxina3_app.c       0x00000000   Number         0  dev_tianxina3_app.o ABSOLUTE
    ..\UserApp\src\dev_tianxina4_app.c       0x00000000   Number         0  dev_tianxina4_app.o ABSOLUTE
    ..\UserApp\src\dev_tianxinv13_app.c      0x00000000   Number         0  dev_tianxinv13_app.o ABSOLUTE
    ..\UserApp\src\dev_yushun_app.c          0x00000000   Number         0  dev_yushun_app.o ABSOLUTE
    ..\UserApp\src\dev_zennera_app.c         0x00000000   Number         0  dev_zennera_app.o ABSOLUTE
    ..\UserApp\src\dev_zennerb_app.c         0x00000000   Number         0  dev_zennerb_app.o ABSOLUTE
    ..\UserApp\src\eeprom_app.c              0x00000000   Number         0  eeprom_app.o ABSOLUTE
    ..\UserApp\src\expense_control_app.c     0x00000000   Number         0  expense_control_app.o ABSOLUTE
    ..\UserApp\src\fault_alarm_app.c         0x00000000   Number         0  fault_alarm_app.o ABSOLUTE
    ..\UserApp\src\host_communicate_app.c    0x00000000   Number         0  host_communicate_app.o ABSOLUTE
    ..\UserApp\src\key_app.c                 0x00000000   Number         0  key_app.o ABSOLUTE
    ..\UserApp\src\lcd_adapter.c             0x00000000   Number         0  lcd_adapter.o ABSOLUTE
    ..\UserApp\src\lcd_app.c                 0x00000000   Number         0  lcd_app.o ABSOLUTE
    ..\UserApp\src\lcd_data.c                0x00000000   Number         0  lcd_data.o ABSOLUTE
    ..\UserApp\src\measure_app.c             0x00000000   Number         0  measure_app.o ABSOLUTE
    ..\UserApp\src\modbus_app.c              0x00000000   Number         0  modbus_app.o ABSOLUTE
    ..\UserApp\src\protocol_huarun_app.c     0x00000000   Number         0  protocol_huarun_app.o ABSOLUTE
    ..\UserApp\src\rtc_app.c                 0x00000000   Number         0  rtc_app.o ABSOLUTE
    ..\UserApp\src\test.c                    0x00000000   Number         0  test.o ABSOLUTE
    ..\UserApp\src\valve_app.c               0x00000000   Number         0  valve_app.o ABSOLUTE
    ..\UserApp\src\wireless_app.c            0x00000000   Number         0  wireless_app.o ABSOLUTE
    ..\UserDebug\SEGGER_RTT.c                0x00000000   Number         0  segger_rtt.o ABSOLUTE
    ..\UserDebug\SEGGER_RTT_printf.c         0x00000000   Number         0  segger_rtt_printf.o ABSOLUTE
    ..\UserDriver\src\VoltageDetection_driver.c 0x00000000   Number         0  voltagedetection_driver.o ABSOLUTE
    ..\UserDriver\src\dev_driver.c           0x00000000   Number         0  dev_driver.o ABSOLUTE
    ..\UserDriver\src\eeprom_driver.c        0x00000000   Number         0  eeprom_driver.o ABSOLUTE
    ..\UserDriver\src\key_driver.c           0x00000000   Number         0  key_driver.o ABSOLUTE
    ..\UserDriver\src\lcd_driver.c           0x00000000   Number         0  lcd_driver.o ABSOLUTE
    ..\UserDriver\src\measure_driver.c       0x00000000   Number         0  measure_driver.o ABSOLUTE
    ..\UserDriver\src\rs485_driver.c         0x00000000   Number         0  rs485_driver.o ABSOLUTE
    ..\UserDriver\src\rtc_driver.c           0x00000000   Number         0  rtc_driver.o ABSOLUTE
    ..\UserDriver\src\valve_driver.c         0x00000000   Number         0  valve_driver.o ABSOLUTE
    ..\UserDriver\src\wireless_driver.c      0x00000000   Number         0  wireless_driver.o ABSOLUTE
    ..\UserOs\src\delay.c                    0x00000000   Number         0  delay.o ABSOLUTE
    ..\UserOs\src\meter_init.c               0x00000000   Number         0  meter_init.o ABSOLUTE
    ..\UserOs\src\public_function.c          0x00000000   Number         0  public_function.o ABSOLUTE
    ..\UserOs\src\public_ram.c               0x00000000   Number         0  public_ram.o ABSOLUTE
    ..\UserOs\src\soft_timer.c               0x00000000   Number         0  soft_timer.o ABSOLUTE
    ..\UserOs\src\task.c                     0x00000000   Number         0  task.o ABSOLUTE
    ..\\Core\\Src\\rng.c                     0x00000000   Number         0  rng.o ABSOLUTE
    ..\\Drivers\\STM32L4xx_HAL_Driver\\Src\\stm32l4xx_hal_adc.c 0x00000000   Number         0  stm32l4xx_hal_adc.o ABSOLUTE
    ..\\Drivers\\STM32L4xx_HAL_Driver\\Src\\stm32l4xx_hal_adc_ex.c 0x00000000   Number         0  stm32l4xx_hal_adc_ex.o ABSOLUTE
    ..\\Drivers\\STM32L4xx_HAL_Driver\\Src\\stm32l4xx_hal_i2c.c 0x00000000   Number         0  stm32l4xx_hal_i2c.o ABSOLUTE
    ..\\Drivers\\STM32L4xx_HAL_Driver\\Src\\stm32l4xx_hal_i2c_ex.c 0x00000000   Number         0  stm32l4xx_hal_i2c_ex.o ABSOLUTE
    ..\\Drivers\\STM32L4xx_HAL_Driver\\Src\\stm32l4xx_hal_iwdg.c 0x00000000   Number         0  stm32l4xx_hal_iwdg.o ABSOLUTE
    ..\\Drivers\\STM32L4xx_HAL_Driver\\Src\\stm32l4xx_hal_rng.c 0x00000000   Number         0  stm32l4xx_hal_rng.o ABSOLUTE
    ..\\Drivers\\STM32L4xx_HAL_Driver\\Src\\stm32l4xx_hal_rtc.c 0x00000000   Number         0  stm32l4xx_hal_rtc.o ABSOLUTE
    ..\\Drivers\\STM32L4xx_HAL_Driver\\Src\\stm32l4xx_hal_rtc_ex.c 0x00000000   Number         0  stm32l4xx_hal_rtc_ex.o ABSOLUTE
    ..\\Drivers\\STM32L4xx_HAL_Driver\\Src\\stm32l4xx_hal_uart.c 0x00000000   Number         0  stm32l4xx_hal_uart.o ABSOLUTE
    ..\\Drivers\\STM32L4xx_HAL_Driver\\Src\\stm32l4xx_hal_uart_ex.c 0x00000000   Number         0  stm32l4xx_hal_uart_ex.o ABSOLUTE
    ..\\Drivers\\STM32L4xx_HAL_Driver\\Src\\stm32l4xx_hal_usart.c 0x00000000   Number         0  stm32l4xx_hal_usart.o ABSOLUTE
    ..\\Drivers\\STM32L4xx_HAL_Driver\\Src\\stm32l4xx_hal_usart_ex.c 0x00000000   Number         0  stm32l4xx_hal_usart_ex.o ABSOLUTE
    ..\\UserApp\\src\\Aes_128.c              0x00000000   Number         0  aes_128.o ABSOLUTE
    ..\\UserApp\\src\\VoltageDetection_app.c 0x00000000   Number         0  voltagedetection_app.o ABSOLUTE
    ..\\UserApp\\src\\dev_aizhi_app.c        0x00000000   Number         0  dev_aizhi_app.o ABSOLUTE
    ..\\UserApp\\src\\dev_cangnan1_app.c     0x00000000   Number         0  dev_cangnan1_app.o ABSOLUTE
    ..\\UserApp\\src\\dev_cangnan2_app.c     0x00000000   Number         0  dev_cangnan2_app.o ABSOLUTE
    ..\\UserApp\\src\\dev_elster_app.c       0x00000000   Number         0  dev_elster_app.o ABSOLUTE
    ..\\UserApp\\src\\dev_htdl_app.c         0x00000000   Number         0  dev_htdl_app.o ABSOLUTE
    ..\\UserApp\\src\\dev_lmt1_app.c         0x00000000   Number         0  dev_lmt1_app.o ABSOLUTE
    ..\\UserApp\\src\\dev_lmt2_app.c         0x00000000   Number         0  dev_lmt2_app.o ABSOLUTE
    ..\\UserApp\\src\\dev_lunci_app.c        0x00000000   Number         0  dev_lunci_app.o ABSOLUTE
    ..\\UserApp\\src\\dev_tianxina3_app.c    0x00000000   Number         0  dev_tianxina3_app.o ABSOLUTE
    ..\\UserApp\\src\\dev_tianxina4_app.c    0x00000000   Number         0  dev_tianxina4_app.o ABSOLUTE
    ..\\UserApp\\src\\dev_tianxinv13_app.c   0x00000000   Number         0  dev_tianxinv13_app.o ABSOLUTE
    ..\\UserApp\\src\\dev_yushun_app.c       0x00000000   Number         0  dev_yushun_app.o ABSOLUTE
    ..\\UserApp\\src\\dev_zennera_app.c      0x00000000   Number         0  dev_zennera_app.o ABSOLUTE
    ..\\UserApp\\src\\dev_zennerb_app.c      0x00000000   Number         0  dev_zennerb_app.o ABSOLUTE
    ..\\UserApp\\src\\eeprom_app.c           0x00000000   Number         0  eeprom_app.o ABSOLUTE
    ..\\UserApp\\src\\expense_control_app.c  0x00000000   Number         0  expense_control_app.o ABSOLUTE
    ..\\UserApp\\src\\fault_alarm_app.c      0x00000000   Number         0  fault_alarm_app.o ABSOLUTE
    ..\\UserApp\\src\\host_communicate_app.c 0x00000000   Number         0  host_communicate_app.o ABSOLUTE
    ..\\UserApp\\src\\key_app.c              0x00000000   Number         0  key_app.o ABSOLUTE
    ..\\UserApp\\src\\lcd_adapter.c          0x00000000   Number         0  lcd_adapter.o ABSOLUTE
    ..\\UserApp\\src\\lcd_app.c              0x00000000   Number         0  lcd_app.o ABSOLUTE
    ..\\UserApp\\src\\measure_app.c          0x00000000   Number         0  measure_app.o ABSOLUTE
    ..\\UserApp\\src\\modbus_app.c           0x00000000   Number         0  modbus_app.o ABSOLUTE
    ..\\UserApp\\src\\protocol_huarun_app.c  0x00000000   Number         0  protocol_huarun_app.o ABSOLUTE
    ..\\UserApp\\src\\rtc_app.c              0x00000000   Number         0  rtc_app.o ABSOLUTE
    ..\\UserApp\\src\\test.c                 0x00000000   Number         0  test.o ABSOLUTE
    ..\\UserApp\\src\\valve_app.c            0x00000000   Number         0  valve_app.o ABSOLUTE
    ..\\UserApp\\src\\wireless_app.c         0x00000000   Number         0  wireless_app.o ABSOLUTE
    ..\\UserDriver\\src\\VoltageDetection_driver.c 0x00000000   Number         0  voltagedetection_driver.o ABSOLUTE
    ..\\UserDriver\\src\\dev_driver.c        0x00000000   Number         0  dev_driver.o ABSOLUTE
    ..\\UserDriver\\src\\eeprom_driver.c     0x00000000   Number         0  eeprom_driver.o ABSOLUTE
    ..\\UserDriver\\src\\key_driver.c        0x00000000   Number         0  key_driver.o ABSOLUTE
    ..\\UserDriver\\src\\lcd_driver.c        0x00000000   Number         0  lcd_driver.o ABSOLUTE
    ..\\UserDriver\\src\\measure_driver.c    0x00000000   Number         0  measure_driver.o ABSOLUTE
    ..\\UserDriver\\src\\rs485_driver.c      0x00000000   Number         0  rs485_driver.o ABSOLUTE
    ..\\UserDriver\\src\\rtc_driver.c        0x00000000   Number         0  rtc_driver.o ABSOLUTE
    ..\\UserDriver\\src\\valve_driver.c      0x00000000   Number         0  valve_driver.o ABSOLUTE
    ..\\UserDriver\\src\\wireless_driver.c   0x00000000   Number         0  wireless_driver.o ABSOLUTE
    ..\\UserOs\\src\\delay.c                 0x00000000   Number         0  delay.o ABSOLUTE
    ..\\UserOs\\src\\meter_init.c            0x00000000   Number         0  meter_init.o ABSOLUTE
    ..\\UserOs\\src\\public_function.c       0x00000000   Number         0  public_function.o ABSOLUTE
    ..\\UserOs\\src\\public_ram.c            0x00000000   Number         0  public_ram.o ABSOLUTE
    ..\\UserOs\\src\\soft_timer.c            0x00000000   Number         0  soft_timer.o ABSOLUTE
    ..\\UserOs\\src\\task.c                  0x00000000   Number         0  task.o ABSOLUTE
    cdcmple.s                                0x00000000   Number         0  cdcmple.o ABSOLUTE
    cdrcmple.s                               0x00000000   Number         0  cdrcmple.o ABSOLUTE
    dc.s                                     0x00000000   Number         0  dc.o ABSOLUTE
    handlers.s                               0x00000000   Number         0  handlers.o ABSOLUTE
    init.s                                   0x00000000   Number         0  init.o ABSOLUTE
    startup_stm32l476xx.s                    0x00000000   Number         0  startup_stm32l476xx.o ABSOLUTE
    RESET                                    0x08010000   Section      392  startup_stm32l476xx.o(RESET)
    .ARM.Collect$$$$00000000                 0x08010188   Section        0  entry.o(.ARM.Collect$$$$00000000)
    .ARM.Collect$$$$00000001                 0x08010188   Section        4  entry2.o(.ARM.Collect$$$$00000001)
    .ARM.Collect$$$$00000004                 0x0801018c   Section        4  entry5.o(.ARM.Collect$$$$00000004)
    .ARM.Collect$$$$00000008                 0x08010190   Section        0  entry7b.o(.ARM.Collect$$$$00000008)
    .ARM.Collect$$$$0000000A                 0x08010190   Section        0  entry8b.o(.ARM.Collect$$$$0000000A)
    .ARM.Collect$$$$0000000B                 0x08010190   Section        8  entry9a.o(.ARM.Collect$$$$0000000B)
    .ARM.Collect$$$$0000000E                 0x08010198   Section        4  entry12b.o(.ARM.Collect$$$$0000000E)
    .ARM.Collect$$$$0000000F                 0x0801019c   Section        0  entry10a.o(.ARM.Collect$$$$0000000F)
    .ARM.Collect$$$$00000011                 0x0801019c   Section        0  entry11a.o(.ARM.Collect$$$$00000011)
    .ARM.Collect$$$$00002712                 0x0801019c   Section        4  entry2.o(.ARM.Collect$$$$00002712)
    __lit__00000000                          0x0801019c   Data           4  entry2.o(.ARM.Collect$$$$00002712)
    .text                                    0x080101a0   Section       36  startup_stm32l476xx.o(.text)
    $v0                                      0x080101a0   Number         0  startup_stm32l476xx.o(.text)
    .text                                    0x080101c4   Section        0  uldiv.o(.text)
    .text                                    0x0801022c   Section        0  memcpya.o(.text)
    .text                                    0x08010250   Section        0  memseta.o(.text)
    .text                                    0x08010274   Section        0  strstr.o(.text)
    .text                                    0x08010298   Section        0  strncpy.o(.text)
    .text                                    0x080102b0   Section        0  strlen.o(.text)
    .text                                    0x080102be   Section        0  strcpy.o(.text)
    .text                                    0x080102d0   Section        0  __0sscanf.o(.text)
    .text                                    0x08010308   Section        0  _scanf_int.o(.text)
    .text                                    0x0801045a   Section        0  dadd.o(.text)
    .text                                    0x080105b8   Section        0  dmul.o(.text)
    .text                                    0x080106a2   Section        0  ddiv.o(.text)
    .text                                    0x08010780   Section        0  dflti.o(.text)
    .text                                    0x080107a2   Section        0  dfltui.o(.text)
    .text                                    0x080107bc   Section        0  dfltul.o(.text)
    .text                                    0x080107d4   Section        0  dfixi.o(.text)
    .text                                    0x08010812   Section        0  dfixui.o(.text)
    .text                                    0x08010844   Section        0  dfixul.o(.text)
    .text                                    0x08010874   Section        0  f2d.o(.text)
    .text                                    0x0801089c   Section       48  cdcmple.o(.text)
    .text                                    0x080108cc   Section       48  cdrcmple.o(.text)
    .text                                    0x080108fc   Section        0  d2f.o(.text)
    .text                                    0x08010934   Section        0  uidiv.o(.text)
    .text                                    0x08010960   Section        0  llshl.o(.text)
    .text                                    0x0801097e   Section        0  llushr.o(.text)
    .text                                    0x0801099e   Section        0  llsshr.o(.text)
    .text                                    0x080109c2   Section        0  _chval.o(.text)
    .text                                    0x080109e0   Section        0  scanf_char.o(.text)
    _scanf_char_input                        0x080109e1   Thumb Code    12  scanf_char.o(.text)
    .text                                    0x08010a08   Section        0  _sgetc.o(.text)
    .text                                    0x08010a48   Section        0  iusefp.o(.text)
    .text                                    0x08010a48   Section        0  fepilogue.o(.text)
    .text                                    0x08010ab6   Section        0  frnd.o(.text)
    .text                                    0x08010af2   Section        0  depilogue.o(.text)
    .text                                    0x08010bac   Section        0  dscalb.o(.text)
    .text                                    0x08010bdc   Section        0  drnd.o(.text)
    .text                                    0x08010c64   Section       36  init.o(.text)
    .text                                    0x08010c88   Section        0  isspace_c.o(.text)
    .text                                    0x08010c94   Section        0  _scanf.o(.text)
    .text                                    0x08010fca   Section        0  dsqrt.o(.text)
    .text                                    0x0801106c   Section        0  ctype_c.o(.text)
    .text                                    0x08011094   Section        0  __dclz77c.o(.text)
    i.ADC_Disable                            0x080110f4   Section        0  stm32l4xx_hal_adc.o(i.ADC_Disable)
    i.ADC_Enable                             0x08011190   Section        0  stm32l4xx_hal_adc.o(i.ADC_Enable)
    i.ADC_init                               0x08011258   Section        0  voltagedetection_driver.o(i.ADC_init)
    i.ASIC2BCD                               0x080112a4   Section        0  public_function.o(i.ASIC2BCD)
    i.AT24CXX_Read                           0x080112f8   Section        0  eeprom_driver.o(i.AT24CXX_Read)
    i.AT24CXX_ReadOneByte                    0x0801134c   Section        0  eeprom_driver.o(i.AT24CXX_ReadOneByte)
    i.AT24CXX_Write                          0x08011374   Section        0  eeprom_driver.o(i.AT24CXX_Write)
    i.AT24CXX_WriteOneByte                   0x080113d0   Section        0  eeprom_driver.o(i.AT24CXX_WriteOneByte)
    i.AddRoundKey                            0x08011404   Section        0  aes_128.o(i.AddRoundKey)
    i.Answer_ReadData                        0x08011434   Section        0  dev_zennera_app.o(i.Answer_ReadData)
    Answer_ReadData                          0x08011435   Thumb Code   884  dev_zennera_app.o(i.Answer_ReadData)
    i.Answer_ReadData_ZennerB                0x080117b4   Section        0  dev_zennerb_app.o(i.Answer_ReadData_ZennerB)
    i.BCD2ASIC                               0x08011934   Section        0  public_function.o(i.BCD2ASIC)
    i.BCD_compress                           0x0801196c   Section        0  public_function.o(i.BCD_compress)
    i.BCD_decompress                         0x080119c2   Section        0  public_function.o(i.BCD_decompress)
    i.Bat_Value_Det                          0x080119f4   Section        0  voltagedetection_app.o(i.Bat_Value_Det)
    i.Batter_Discharge_Stop                  0x08011aa8   Section        0  voltagedetection_app.o(i.Batter_Discharge_Stop)
    Batter_Discharge_Stop                    0x08011aa9   Thumb Code    16  voltagedetection_app.o(i.Batter_Discharge_Stop)
    i.Battery_Discharge                      0x08011abc   Section        0  voltagedetection_app.o(i.Battery_Discharge)
    Battery_Discharge                        0x08011abd   Thumb Code    34  voltagedetection_app.o(i.Battery_Discharge)
    i.BusFault_Handler                       0x08011af0   Section        0  stm32l4xx_it.o(i.BusFault_Handler)
    i.Chk_Busy                               0x08011af4   Section        0  lcd_driver.o(i.Chk_Busy)
    i.City_electric_io_init                  0x08011b54   Section        0  voltagedetection_driver.o(i.City_electric_io_init)
    City_electric_io_init                    0x08011b55   Thumb Code    94  voltagedetection_driver.o(i.City_electric_io_init)
    i.ConstructFrm                           0x08011bbc   Section        0  modbus_app.o(i.ConstructFrm)
    i.DebugMon_Handler                       0x08011bd6   Section        0  stm32l4xx_it.o(i.DebugMon_Handler)
    i.DelayInit                              0x08011bd8   Section        0  delay.o(i.DelayInit)
    i.DelayMs                                0x08011bf4   Section        0  delay.o(i.DelayMs)
    i.DelayUs                                0x08011c14   Section        0  delay.o(i.DelayUs)
    i.EXTI0_IRQHandler                       0x08011c5c   Section        0  meter_init.o(i.EXTI0_IRQHandler)
    i.EXTI15_10_IRQHandler                   0x08011c66   Section        0  meter_init.o(i.EXTI15_10_IRQHandler)
    i.EXTI1_IRQHandler                       0x08011c72   Section        0  meter_init.o(i.EXTI1_IRQHandler)
    i.EXTI2_IRQHandler                       0x08011c7c   Section        0  meter_init.o(i.EXTI2_IRQHandler)
    i.EXTI3_IRQHandler                       0x08011c86   Section        0  meter_init.o(i.EXTI3_IRQHandler)
    i.EXTI4_IRQHandler                       0x08011c90   Section        0  meter_init.o(i.EXTI4_IRQHandler)
    i.EXTI9_5_IRQHandler                     0x08011c9a   Section        0  meter_init.o(i.EXTI9_5_IRQHandler)
    i.Error_Handler                          0x08011cb0   Section        0  main.o(i.Error_Handler)
    i.FFmul                                  0x08011cb6   Section        0  aes_128.o(i.FFmul)
    i.FlowmeterData_Rxceive_Decode           0x08011d10   Section        0  dev_zennera_app.o(i.FlowmeterData_Rxceive_Decode)
    i.Get_ADC                                0x08011e50   Section        0  voltagedetection_driver.o(i.Get_ADC)
    Get_ADC                                  0x08011e51   Thumb Code    62  voltagedetection_driver.o(i.Get_ADC)
    i.Get_Adc_Average                        0x08011e94   Section        0  voltagedetection_driver.o(i.Get_Adc_Average)
    i.HAL_ADCEx_Calibration_Start            0x08011f4c   Section        0  stm32l4xx_hal_adc_ex.o(i.HAL_ADCEx_Calibration_Start)
    i.HAL_ADC_ConfigChannel                  0x08011ff8   Section        0  stm32l4xx_hal_adc.o(i.HAL_ADC_ConfigChannel)
    i.HAL_ADC_GetValue                       0x0801262c   Section        0  stm32l4xx_hal_adc.o(i.HAL_ADC_GetValue)
    i.HAL_ADC_Init                           0x08012634   Section        0  stm32l4xx_hal_adc.o(i.HAL_ADC_Init)
    i.HAL_ADC_MspInit                        0x0801291c   Section        0  voltagedetection_driver.o(i.HAL_ADC_MspInit)
    i.HAL_ADC_PollForConversion              0x080129f8   Section        0  stm32l4xx_hal_adc.o(i.HAL_ADC_PollForConversion)
    i.HAL_ADC_Start                          0x08012b94   Section        0  stm32l4xx_hal_adc.o(i.HAL_ADC_Start)
    i.HAL_DMA_Abort_IT                       0x08012ce0   Section        0  stm32l4xx_hal_dma.o(i.HAL_DMA_Abort_IT)
    i.HAL_GPIO_DeInit                        0x08012d3c   Section        0  stm32l4xx_hal_gpio.o(i.HAL_GPIO_DeInit)
    i.HAL_GPIO_EXTI_Callback                 0x08012e84   Section        0  meter_init.o(i.HAL_GPIO_EXTI_Callback)
    i.HAL_GPIO_EXTI_IRQHandler               0x08012fac   Section        0  stm32l4xx_hal_gpio.o(i.HAL_GPIO_EXTI_IRQHandler)
    i.HAL_GPIO_Init                          0x08012fc8   Section        0  stm32l4xx_hal_gpio.o(i.HAL_GPIO_Init)
    i.HAL_GPIO_ReadPin                       0x080131c4   Section        0  stm32l4xx_hal_gpio.o(i.HAL_GPIO_ReadPin)
    i.HAL_GPIO_WritePin                      0x080131d4   Section        0  stm32l4xx_hal_gpio.o(i.HAL_GPIO_WritePin)
    i.HAL_GetTick                            0x080131e0   Section        0  stm32l4xx_hal.o(i.HAL_GetTick)
    i.HAL_I2CEx_ConfigAnalogFilter           0x080131ec   Section        0  stm32l4xx_hal_i2c_ex.o(i.HAL_I2CEx_ConfigAnalogFilter)
    i.HAL_I2CEx_ConfigDigitalFilter          0x08013256   Section        0  stm32l4xx_hal_i2c_ex.o(i.HAL_I2CEx_ConfigDigitalFilter)
    i.HAL_I2C_DeInit                         0x080132c0   Section        0  stm32l4xx_hal_i2c.o(i.HAL_I2C_DeInit)
    i.HAL_I2C_Init                           0x080132fc   Section        0  stm32l4xx_hal_i2c.o(i.HAL_I2C_Init)
    i.HAL_I2C_Mem_Read                       0x080133c0   Section        0  stm32l4xx_hal_i2c.o(i.HAL_I2C_Mem_Read)
    i.HAL_I2C_Mem_Write                      0x08013584   Section        0  stm32l4xx_hal_i2c.o(i.HAL_I2C_Mem_Write)
    i.HAL_I2C_MspDeInit                      0x08013744   Section        0  eeprom_driver.o(i.HAL_I2C_MspDeInit)
    i.HAL_I2C_MspInit                        0x0801377c   Section        0  eeprom_driver.o(i.HAL_I2C_MspInit)
    i.HAL_IWDG_Init                          0x08013814   Section        0  stm32l4xx_hal_iwdg.o(i.HAL_IWDG_Init)
    i.HAL_IWDG_Refresh                       0x08013884   Section        0  stm32l4xx_hal_iwdg.o(i.HAL_IWDG_Refresh)
    i.HAL_IncTick                            0x08013894   Section        0  stm32l4xx_hal.o(i.HAL_IncTick)
    i.HAL_Init                               0x080138ac   Section        0  stm32l4xx_hal.o(i.HAL_Init)
    i.HAL_InitTick                           0x080138cc   Section        0  stm32l4xx_hal.o(i.HAL_InitTick)
    i.HAL_MspInit                            0x08013924   Section        0  stm32l4xx_hal_msp.o(i.HAL_MspInit)
    i.HAL_NVIC_DisableIRQ                    0x08013964   Section        0  stm32l4xx_hal_cortex.o(i.HAL_NVIC_DisableIRQ)
    i.HAL_NVIC_EnableIRQ                     0x080139a8   Section        0  stm32l4xx_hal_cortex.o(i.HAL_NVIC_EnableIRQ)
    i.HAL_NVIC_SetPriority                   0x080139d0   Section        0  stm32l4xx_hal_cortex.o(i.HAL_NVIC_SetPriority)
    i.HAL_NVIC_SetPriorityGrouping           0x08013a54   Section        0  stm32l4xx_hal_cortex.o(i.HAL_NVIC_SetPriorityGrouping)
    i.HAL_PWREx_ControlVoltageScaling        0x08013a7c   Section        0  stm32l4xx_hal_pwr_ex.o(i.HAL_PWREx_ControlVoltageScaling)
    i.HAL_PWREx_EnterSTOP2Mode               0x08013b08   Section        0  stm32l4xx_hal_pwr_ex.o(i.HAL_PWREx_EnterSTOP2Mode)
    i.HAL_PWREx_GetVoltageRange              0x08013b48   Section        0  stm32l4xx_hal_pwr_ex.o(i.HAL_PWREx_GetVoltageRange)
    i.HAL_PWR_EnableBkUpAccess               0x08013b58   Section        0  stm32l4xx_hal_pwr.o(i.HAL_PWR_EnableBkUpAccess)
    i.HAL_RCCEx_EnableMSIPLLMode             0x08013b6c   Section        0  stm32l4xx_hal_rcc_ex.o(i.HAL_RCCEx_EnableMSIPLLMode)
    i.HAL_RCCEx_PeriphCLKConfig              0x08013b80   Section        0  stm32l4xx_hal_rcc_ex.o(i.HAL_RCCEx_PeriphCLKConfig)
    i.HAL_RCC_ClockConfig                    0x08014054   Section        0  stm32l4xx_hal_rcc.o(i.HAL_RCC_ClockConfig)
    i.HAL_RCC_GetHCLKFreq                    0x08014208   Section        0  stm32l4xx_hal_rcc.o(i.HAL_RCC_GetHCLKFreq)
    i.HAL_RCC_GetPCLK1Freq                   0x08014214   Section        0  stm32l4xx_hal_rcc.o(i.HAL_RCC_GetPCLK1Freq)
    i.HAL_RCC_GetPCLK2Freq                   0x08014238   Section        0  stm32l4xx_hal_rcc.o(i.HAL_RCC_GetPCLK2Freq)
    i.HAL_RCC_GetSysClockFreq                0x0801425c   Section        0  stm32l4xx_hal_rcc.o(i.HAL_RCC_GetSysClockFreq)
    i.HAL_RCC_OscConfig                      0x08014348   Section        0  stm32l4xx_hal_rcc.o(i.HAL_RCC_OscConfig)
    i.HAL_RTCEx_DeactivateWakeUpTimer        0x08014a30   Section        0  stm32l4xx_hal_rtc_ex.o(i.HAL_RTCEx_DeactivateWakeUpTimer)
    i.HAL_RTCEx_SetWakeUpTimer_IT            0x08014ad4   Section        0  stm32l4xx_hal_rtc_ex.o(i.HAL_RTCEx_SetWakeUpTimer_IT)
    i.HAL_RTCEx_WakeUpTimerEventCallback     0x08014bd8   Section        0  meter_init.o(i.HAL_RTCEx_WakeUpTimerEventCallback)
    i.HAL_RTCEx_WakeUpTimerIRQHandler        0x08014bec   Section        0  stm32l4xx_hal_rtc_ex.o(i.HAL_RTCEx_WakeUpTimerIRQHandler)
    i.HAL_RTC_GetDate                        0x08014c24   Section        0  stm32l4xx_hal_rtc.o(i.HAL_RTC_GetDate)
    i.HAL_RTC_GetTime                        0x08014c70   Section        0  stm32l4xx_hal_rtc.o(i.HAL_RTC_GetTime)
    i.HAL_RTC_Init                           0x08014ccc   Section        0  stm32l4xx_hal_rtc.o(i.HAL_RTC_Init)
    i.HAL_RTC_MspInit                        0x08014d8c   Section        0  rtc_driver.o(i.HAL_RTC_MspInit)
    i.HAL_RTC_SetAlarm_IT                    0x08014df4   Section        0  stm32l4xx_hal_rtc.o(i.HAL_RTC_SetAlarm_IT)
    i.HAL_RTC_SetDate                        0x0801500c   Section        0  stm32l4xx_hal_rtc.o(i.HAL_RTC_SetDate)
    i.HAL_RTC_SetTime                        0x080150d8   Section        0  stm32l4xx_hal_rtc.o(i.HAL_RTC_SetTime)
    i.HAL_RTC_WaitForSynchro                 0x080151d0   Section        0  stm32l4xx_hal_rtc.o(i.HAL_RTC_WaitForSynchro)
    i.HAL_SYSTICK_Config                     0x08015208   Section        0  stm32l4xx_hal_cortex.o(i.HAL_SYSTICK_Config)
    i.HAL_UARTEx_WakeupCallback              0x0801523c   Section        0  stm32l4xx_hal_uart_ex.o(i.HAL_UARTEx_WakeupCallback)
    i.HAL_UART_DeInit                        0x0801523e   Section        0  stm32l4xx_hal_uart.o(i.HAL_UART_DeInit)
    i.HAL_UART_ErrorCallback                 0x08015286   Section        0  stm32l4xx_hal_uart.o(i.HAL_UART_ErrorCallback)
    i.HAL_UART_IRQHandler                    0x08015288   Section        0  stm32l4xx_hal_uart.o(i.HAL_UART_IRQHandler)
    i.HAL_UART_Init                          0x08015420   Section        0  stm32l4xx_hal_uart.o(i.HAL_UART_Init)
    i.HAL_UART_MspDeInit                     0x08015498   Section        0  rs485_driver.o(i.HAL_UART_MspDeInit)
    i.HAL_UART_MspInit                       0x08015510   Section        0  stm32l4xx_hal_uart.o(i.HAL_UART_MspInit)
    i.HAL_UART_Receive                       0x08015512   Section        0  stm32l4xx_hal_uart.o(i.HAL_UART_Receive)
    i.HAL_UART_Receive_IT                    0x08015628   Section        0  stm32l4xx_hal_uart.o(i.HAL_UART_Receive_IT)
    i.HAL_UART_RxCpltCallback                0x08015708   Section        0  meter_init.o(i.HAL_UART_RxCpltCallback)
    i.HAL_UART_Transmit                      0x0801573c   Section        0  stm32l4xx_hal_uart.o(i.HAL_UART_Transmit)
    i.HAL_UART_TxCpltCallback                0x08015804   Section        0  stm32l4xx_hal_uart.o(i.HAL_UART_TxCpltCallback)
    i.HardFault_Handler                      0x08015806   Section        0  stm32l4xx_it.o(i.HardFault_Handler)
    i.I2C_Flush_TXDR                         0x0801580a   Section        0  stm32l4xx_hal_i2c.o(i.I2C_Flush_TXDR)
    I2C_Flush_TXDR                           0x0801580b   Thumb Code    40  stm32l4xx_hal_i2c.o(i.I2C_Flush_TXDR)
    i.I2C_IsAcknowledgeFailed                0x08015834   Section        0  stm32l4xx_hal_i2c.o(i.I2C_IsAcknowledgeFailed)
    I2C_IsAcknowledgeFailed                  0x08015835   Thumb Code   136  stm32l4xx_hal_i2c.o(i.I2C_IsAcknowledgeFailed)
    i.I2C_RequestMemoryRead                  0x080158c0   Section        0  stm32l4xx_hal_i2c.o(i.I2C_RequestMemoryRead)
    I2C_RequestMemoryRead                    0x080158c1   Thumb Code   138  stm32l4xx_hal_i2c.o(i.I2C_RequestMemoryRead)
    i.I2C_RequestMemoryWrite                 0x08015950   Section        0  stm32l4xx_hal_i2c.o(i.I2C_RequestMemoryWrite)
    I2C_RequestMemoryWrite                   0x08015951   Thumb Code   138  stm32l4xx_hal_i2c.o(i.I2C_RequestMemoryWrite)
    i.I2C_TransferConfig                     0x080159e0   Section        0  stm32l4xx_hal_i2c.o(i.I2C_TransferConfig)
    I2C_TransferConfig                       0x080159e1   Thumb Code    52  stm32l4xx_hal_i2c.o(i.I2C_TransferConfig)
    i.I2C_WaitOnFlagUntilTimeout             0x08015a14   Section        0  stm32l4xx_hal_i2c.o(i.I2C_WaitOnFlagUntilTimeout)
    I2C_WaitOnFlagUntilTimeout               0x08015a15   Thumb Code    86  stm32l4xx_hal_i2c.o(i.I2C_WaitOnFlagUntilTimeout)
    i.I2C_WaitOnSTOPFlagUntilTimeout         0x08015a6a   Section        0  stm32l4xx_hal_i2c.o(i.I2C_WaitOnSTOPFlagUntilTimeout)
    I2C_WaitOnSTOPFlagUntilTimeout           0x08015a6b   Thumb Code    86  stm32l4xx_hal_i2c.o(i.I2C_WaitOnSTOPFlagUntilTimeout)
    i.I2C_WaitOnTXISFlagUntilTimeout         0x08015ac0   Section        0  stm32l4xx_hal_i2c.o(i.I2C_WaitOnTXISFlagUntilTimeout)
    I2C_WaitOnTXISFlagUntilTimeout           0x08015ac1   Thumb Code    90  stm32l4xx_hal_i2c.o(i.I2C_WaitOnTXISFlagUntilTimeout)
    i.Impulse_gpio_init                      0x08015b1c   Section        0  measure_driver.o(i.Impulse_gpio_init)
    Impulse_gpio_init                        0x08015b1d   Thumb Code    86  measure_driver.o(i.Impulse_gpio_init)
    i.InvMixColumns                          0x08015b78   Section        0  aes_128.o(i.InvMixColumns)
    i.InvShiftRows                           0x08015c20   Section        0  aes_128.o(i.InvShiftRows)
    i.InvSubBytes                            0x08015c68   Section        0  aes_128.o(i.InvSubBytes)
    i.KeyExpansion                           0x08015c98   Section        0  aes_128.o(i.KeyExpansion)
    i.LCD_ST7920_DataIO_Set_In               0x08015da8   Section        0  lcd_driver.o(i.LCD_ST7920_DataIO_Set_In)
    i.LCD_ST7920_DataIO_Set_Out              0x08015dd0   Section        0  lcd_driver.o(i.LCD_ST7920_DataIO_Set_Out)
    i.LCD_ST7920_SetAddress                  0x08015e00   Section        0  lcd_driver.o(i.LCD_ST7920_SetAddress)
    i.LCD_ST7920_WriteCmd                    0x08015e4c   Section        0  lcd_driver.o(i.LCD_ST7920_WriteCmd)
    i.LCD_ST7920_WriteData                   0x08015eac   Section        0  lcd_driver.o(i.LCD_ST7920_WriteData)
    i.LL_ADC_Enable                          0x08015f0c   Section        0  stm32l4xx_hal_adc.o(i.LL_ADC_Enable)
    LL_ADC_Enable                            0x08015f0d   Thumb Code    12  stm32l4xx_hal_adc.o(i.LL_ADC_Enable)
    i.LL_ADC_GetCommonPathInternalCh         0x08015f1c   Section        0  stm32l4xx_hal_adc.o(i.LL_ADC_GetCommonPathInternalCh)
    LL_ADC_GetCommonPathInternalCh           0x08015f1d   Thumb Code    10  stm32l4xx_hal_adc.o(i.LL_ADC_GetCommonPathInternalCh)
    i.LL_ADC_GetOffsetChannel                0x08015f26   Section        0  stm32l4xx_hal_adc.o(i.LL_ADC_GetOffsetChannel)
    LL_ADC_GetOffsetChannel                  0x08015f27   Thumb Code    18  stm32l4xx_hal_adc.o(i.LL_ADC_GetOffsetChannel)
    i.LL_ADC_IsInternalRegulatorEnabled      0x08015f38   Section        0  stm32l4xx_hal_adc.o(i.LL_ADC_IsInternalRegulatorEnabled)
    LL_ADC_IsInternalRegulatorEnabled        0x08015f39   Thumb Code    10  stm32l4xx_hal_adc.o(i.LL_ADC_IsInternalRegulatorEnabled)
    i.LL_ADC_REG_IsConversionOngoing         0x08015f42   Section        0  stm32l4xx_hal_adc.o(i.LL_ADC_REG_IsConversionOngoing)
    LL_ADC_REG_IsConversionOngoing           0x08015f43   Thumb Code    10  stm32l4xx_hal_adc.o(i.LL_ADC_REG_IsConversionOngoing)
    i.LL_ADC_REG_StartConversion             0x08015f4c   Section        0  stm32l4xx_hal_adc.o(i.LL_ADC_REG_StartConversion)
    LL_ADC_REG_StartConversion               0x08015f4d   Thumb Code    12  stm32l4xx_hal_adc.o(i.LL_ADC_REG_StartConversion)
    i.LL_ADC_SetChannelSamplingTime          0x08015f5c   Section        0  stm32l4xx_hal_adc.o(i.LL_ADC_SetChannelSamplingTime)
    LL_ADC_SetChannelSamplingTime            0x08015f5d   Thumb Code    82  stm32l4xx_hal_adc.o(i.LL_ADC_SetChannelSamplingTime)
    i.LL_ADC_SetCommonPathInternalCh         0x08015fae   Section        0  stm32l4xx_hal_adc.o(i.LL_ADC_SetCommonPathInternalCh)
    LL_ADC_SetCommonPathInternalCh           0x08015faf   Thumb Code    12  stm32l4xx_hal_adc.o(i.LL_ADC_SetCommonPathInternalCh)
    i.LL_ADC_SetOffsetState                  0x08015fba   Section        0  stm32l4xx_hal_adc.o(i.LL_ADC_SetOffsetState)
    LL_ADC_SetOffsetState                    0x08015fbb   Thumb Code    22  stm32l4xx_hal_adc.o(i.LL_ADC_SetOffsetState)
    i.MX_GPIO_Init                           0x08015fd0   Section        0  gpio.o(i.MX_GPIO_Init)
    i.Measure_Rs485_Pulse_handle             0x08016118   Section        0  measure_app.o(i.Measure_Rs485_Pulse_handle)
    i.MemManage_Handler                      0x080162f4   Section        0  stm32l4xx_it.o(i.MemManage_Handler)
    i.MixColumns                             0x080162f8   Section        0  aes_128.o(i.MixColumns)
    i.ModBusCRC16                            0x080163a0   Section        0  public_function.o(i.ModBusCRC16)
    i.ModbusMasterCommandSend_03             0x080163d4   Section        0  modbus_app.o(i.ModbusMasterCommandSend_03)
    i.NMI_Handler                            0x08016428   Section        0  stm32l4xx_it.o(i.NMI_Handler)
    i.PendSV_Handler                         0x0801642c   Section        0  stm32l4xx_it.o(i.PendSV_Handler)
    i.RCCEx_PLLSAI1_Config                   0x08016430   Section        0  stm32l4xx_hal_rcc_ex.o(i.RCCEx_PLLSAI1_Config)
    RCCEx_PLLSAI1_Config                     0x08016431   Thumb Code   378  stm32l4xx_hal_rcc_ex.o(i.RCCEx_PLLSAI1_Config)
    i.RCCEx_PLLSAI2_Config                   0x080165bc   Section        0  stm32l4xx_hal_rcc_ex.o(i.RCCEx_PLLSAI2_Config)
    RCCEx_PLLSAI2_Config                     0x080165bd   Thumb Code   342  stm32l4xx_hal_rcc_ex.o(i.RCCEx_PLLSAI2_Config)
    i.RCC_SetFlashLatencyFromMSIRange        0x08016720   Section        0  stm32l4xx_hal_rcc.o(i.RCC_SetFlashLatencyFromMSIRange)
    RCC_SetFlashLatencyFromMSIRange          0x08016721   Thumb Code   148  stm32l4xx_hal_rcc.o(i.RCC_SetFlashLatencyFromMSIRange)
    i.RD_12v_CMD                             0x080167bc   Section        0  host_communicate_app.o(i.RD_12v_CMD)
    i.RD_12v_ack                             0x080167d8   Section        0  host_communicate_app.o(i.RD_12v_ack)
    i.RD_7v2_CMD                             0x08016818   Section        0  host_communicate_app.o(i.RD_7v2_CMD)
    i.RD_7v2_ack                             0x0801683c   Section        0  host_communicate_app.o(i.RD_7v2_ack)
    i.RTC_Alarm_IRQHandler                   0x0801687c   Section        0  meter_init.o(i.RTC_Alarm_IRQHandler)
    i.RTC_Bcd2ToByte                         0x080168b0   Section        0  stm32l4xx_hal_rtc.o(i.RTC_Bcd2ToByte)
    i.RTC_ByteToBcd2                         0x080168c4   Section        0  stm32l4xx_hal_rtc.o(i.RTC_ByteToBcd2)
    i.RTC_EnterInitMode                      0x080168e0   Section        0  stm32l4xx_hal_rtc.o(i.RTC_EnterInitMode)
    i.RTC_ExitInitMode                       0x08016924   Section        0  stm32l4xx_hal_rtc.o(i.RTC_ExitInitMode)
    i.RTC_WKUP_IRQHandler                    0x0801698c   Section        0  meter_init.o(i.RTC_WKUP_IRQHandler)
    i.Receive_complete_soft_timer            0x0801699c   Section        0  rs485_driver.o(i.Receive_complete_soft_timer)
    i.Receive_complete_task_cb               0x080169b8   Section        0  rs485_driver.o(i.Receive_complete_task_cb)
    Receive_complete_task_cb                 0x080169b9   Thumb Code   156  rs485_driver.o(i.Receive_complete_task_cb)
    i.SET_Alarm                              0x08016a6c   Section        0  rtc_driver.o(i.SET_Alarm)
    i.SVC_Handler                            0x08016a98   Section        0  stm32l4xx_it.o(i.SVC_Handler)
    i.ShiftRows                              0x08016a9a   Section        0  aes_128.o(i.ShiftRows)
    i.SubBytes                               0x08016ae0   Section        0  aes_128.o(i.SubBytes)
    i.SysTick_Handler                        0x08016b10   Section        0  stm32l4xx_it.o(i.SysTick_Handler)
    i.SystemClock_Config                     0x08016b28   Section        0  main.o(i.SystemClock_Config)
    i.SystemInit                             0x08016ba8   Section        0  system_stm32l4xx.o(i.SystemInit)
    i.UART4Write                             0x08016bd8   Section        0  rs485_driver.o(i.UART4Write)
    i.UART4_IRQHandler                       0x08016c18   Section        0  meter_init.o(i.UART4_IRQHandler)
    i.UART_AdvFeatureConfig                  0x08016c90   Section        0  stm32l4xx_hal_uart.o(i.UART_AdvFeatureConfig)
    i.UART_CheckIdleState                    0x08016d88   Section        0  stm32l4xx_hal_uart.o(i.UART_CheckIdleState)
    i.UART_DMAAbortOnError                   0x08016dfc   Section        0  stm32l4xx_hal_uart.o(i.UART_DMAAbortOnError)
    UART_DMAAbortOnError                     0x08016dfd   Thumb Code    24  stm32l4xx_hal_uart.o(i.UART_DMAAbortOnError)
    i.UART_EndRxTransfer                     0x08016e14   Section        0  stm32l4xx_hal_uart.o(i.UART_EndRxTransfer)
    UART_EndRxTransfer                       0x08016e15   Thumb Code    36  stm32l4xx_hal_uart.o(i.UART_EndRxTransfer)
    i.UART_EndTransmit_IT                    0x08016e38   Section        0  stm32l4xx_hal_uart.o(i.UART_EndTransmit_IT)
    UART_EndTransmit_IT                      0x08016e39   Thumb Code    34  stm32l4xx_hal_uart.o(i.UART_EndTransmit_IT)
    i.UART_RxISR_16BIT                       0x08016e5a   Section        0  stm32l4xx_hal_uart.o(i.UART_RxISR_16BIT)
    UART_RxISR_16BIT                         0x08016e5b   Thumb Code   108  stm32l4xx_hal_uart.o(i.UART_RxISR_16BIT)
    i.UART_RxISR_8BIT                        0x08016ec6   Section        0  stm32l4xx_hal_uart.o(i.UART_RxISR_8BIT)
    UART_RxISR_8BIT                          0x08016ec7   Thumb Code   102  stm32l4xx_hal_uart.o(i.UART_RxISR_8BIT)
    i.UART_SetConfig                         0x08016f2c   Section        0  stm32l4xx_hal_uart.o(i.UART_SetConfig)
    i.UART_WaitOnFlagUntilTimeout            0x080173be   Section        0  stm32l4xx_hal_uart.o(i.UART_WaitOnFlagUntilTimeout)
    i.USART1_IRQHandler                      0x0801742c   Section        0  meter_init.o(i.USART1_IRQHandler)
    i.USART3SendByte                         0x080174f8   Section        0  rs485_driver.o(i.USART3SendByte)
    USART3SendByte                           0x080174f9   Thumb Code    22  rs485_driver.o(i.USART3SendByte)
    i.USART3Write                            0x08017514   Section        0  rs485_driver.o(i.USART3Write)
    i.USART3_IRQHandler                      0x08017554   Section        0  meter_init.o(i.USART3_IRQHandler)
    i.Uart4_Init                             0x080175e8   Section        0  rs485_driver.o(i.Uart4_Init)
    i.UsageFault_Handler                     0x0801765c   Section        0  stm32l4xx_it.o(i.UsageFault_Handler)
    i.Usart3_Init                            0x08017660   Section        0  rs485_driver.o(i.Usart3_Init)
    i.Valve_Close                            0x080176b4   Section        0  valve_driver.o(i.Valve_Close)
    i.Valve_Close_                           0x080176e0   Section        0  valve_app.o(i.Valve_Close_)
    Valve_Close_                             0x080176e1   Thumb Code   206  valve_app.o(i.Valve_Close_)
    i.Valve_Open                             0x080177b4   Section        0  valve_driver.o(i.Valve_Open)
    i.Voltage_Detection_app_init             0x080177e0   Section        0  voltagedetection_app.o(i.Voltage_Detection_app_init)
    i.Voltage_Detection_driver_init          0x080177f4   Section        0  voltagedetection_driver.o(i.Voltage_Detection_driver_init)
    i.ZENNER_A_SendReadCmdcode               0x0801780c   Section        0  dev_zennera_app.o(i.ZENNER_A_SendReadCmdcode)
    i.__0snprintf                            0x08017858   Section        0  printfa.o(i.__0snprintf)
    i.__0sprintf                             0x0801788c   Section        0  printfa.o(i.__0sprintf)
    i.__ARM_fpclassify                       0x080178b4   Section        0  fpclassify.o(i.__ARM_fpclassify)
    i.__NVIC_GetPriorityGrouping             0x080178e4   Section        0  stm32l4xx_hal_cortex.o(i.__NVIC_GetPriorityGrouping)
    __NVIC_GetPriorityGrouping               0x080178e5   Thumb Code    10  stm32l4xx_hal_cortex.o(i.__NVIC_GetPriorityGrouping)
    i.__NVIC_SetPriority                     0x080178f4   Section        0  stm32l4xx_hal_cortex.o(i.__NVIC_SetPriority)
    __NVIC_SetPriority                       0x080178f5   Thumb Code    32  stm32l4xx_hal_cortex.o(i.__NVIC_SetPriority)
    i.__hardfp_pow                           0x08017920   Section        0  pow.o(i.__hardfp_pow)
    i.__hardfp_round                         0x080185a0   Section        0  round.o(i.__hardfp_round)
    i.__hardfp_roundf                        0x08018680   Section        0  roundf.o(i.__hardfp_roundf)
    i.__kernel_poly                          0x0801871a   Section        0  poly.o(i.__kernel_poly)
    i.__mathlib_dbl_divzero                  0x08018818   Section        0  dunder.o(i.__mathlib_dbl_divzero)
    i.__mathlib_dbl_infnan2                  0x08018848   Section        0  dunder.o(i.__mathlib_dbl_infnan2)
    i.__mathlib_dbl_invalid                  0x08018860   Section        0  dunder.o(i.__mathlib_dbl_invalid)
    i.__mathlib_dbl_overflow                 0x08018880   Section        0  dunder.o(i.__mathlib_dbl_overflow)
    i.__mathlib_dbl_underflow                0x080188a0   Section        0  dunder.o(i.__mathlib_dbl_underflow)
    i.__scatterload_copy                     0x080188c0   Section       14  handlers.o(i.__scatterload_copy)
    i.__scatterload_null                     0x080188ce   Section        2  handlers.o(i.__scatterload_null)
    i.__scatterload_zeroinit                 0x080188d0   Section       14  handlers.o(i.__scatterload_zeroinit)
    i.__set_errno                            0x080188e0   Section        0  errno.o(i.__set_errno)
    i._fp_digits                             0x080188ec   Section        0  printfa.o(i._fp_digits)
    _fp_digits                               0x080188ed   Thumb Code   366  printfa.o(i._fp_digits)
    i._printf_core                           0x08018a78   Section        0  printfa.o(i._printf_core)
    _printf_core                             0x08018a79   Thumb Code  1704  printfa.o(i._printf_core)
    i._printf_post_padding                   0x08019132   Section        0  printfa.o(i._printf_post_padding)
    _printf_post_padding                     0x08019133   Thumb Code    36  printfa.o(i._printf_post_padding)
    i._printf_pre_padding                    0x08019156   Section        0  printfa.o(i._printf_pre_padding)
    _printf_pre_padding                      0x08019157   Thumb Code    46  printfa.o(i._printf_pre_padding)
    i._snputc                                0x08019184   Section        0  printfa.o(i._snputc)
    _snputc                                  0x08019185   Thumb Code    22  printfa.o(i._snputc)
    i._sputc                                 0x0801919a   Section        0  printfa.o(i._sputc)
    _sputc                                   0x0801919b   Thumb Code    10  printfa.o(i._sputc)
    i.acc_day_index_read                     0x080191a4   Section        0  eeprom_app.o(i.acc_day_index_read)
    acc_day_index_read                       0x080191a5   Thumb Code   368  eeprom_app.o(i.acc_day_index_read)
    i.acc_day_time_read                      0x08019318   Section        0  eeprom_app.o(i.acc_day_time_read)
    acc_day_time_read                        0x08019319   Thumb Code   450  eeprom_app.o(i.acc_day_time_read)
    i.acc_hour_index_read                    0x080194e0   Section        0  eeprom_app.o(i.acc_hour_index_read)
    acc_hour_index_read                      0x080194e1   Thumb Code   368  eeprom_app.o(i.acc_hour_index_read)
    i.acc_hour_time_read                     0x08019654   Section        0  eeprom_app.o(i.acc_hour_time_read)
    acc_hour_time_read                       0x08019655   Thumb Code   452  eeprom_app.o(i.acc_hour_time_read)
    i.acc_month_index_read                   0x0801981c   Section        0  eeprom_app.o(i.acc_month_index_read)
    acc_month_index_read                     0x0801981d   Thumb Code   368  eeprom_app.o(i.acc_month_index_read)
    i.acc_month_time_read                    0x08019990   Section        0  eeprom_app.o(i.acc_month_time_read)
    acc_month_time_read                      0x08019991   Thumb Code   450  eeprom_app.o(i.acc_month_time_read)
    i.account_end                            0x08019b58   Section        0  protocol_huarun_app.o(i.account_end)
    i.ack_is_ok_softtimer                    0x08019bfc   Section        0  wireless_app.o(i.ack_is_ok_softtimer)
    i.ack_is_ok_softtimer_cb                 0x08019c1c   Section        0  wireless_app.o(i.ack_is_ok_softtimer_cb)
    i.add_soft_timer                         0x08019cc4   Section        0  soft_timer.o(i.add_soft_timer)
    i.aerospace_sync                         0x08019cfc   Section        0  dev_htdl_app.o(i.aerospace_sync)
    i.aes_decryption                         0x08019d06   Section        0  aes_128.o(i.aes_decryption)
    i.aes_decryption_handle                  0x08019d50   Section        0  aes_128.o(i.aes_decryption_handle)
    i.aes_encryption                         0x08019e1e   Section        0  aes_128.o(i.aes_encryption)
    i.aes_encryption_handle                  0x08019e68   Section        0  aes_128.o(i.aes_encryption_handle)
    i.aizhi_sync                             0x08019f22   Section        0  dev_aizhi_app.o(i.aizhi_sync)
    i.alloc_new_data_block                   0x08019f2c   Section        0  public_ram.o(i.alloc_new_data_block)
    alloc_new_data_block                     0x08019f2d   Thumb Code    42  public_ram.o(i.alloc_new_data_block)
    i.apply_pub_ram                          0x08019f60   Section        0  public_ram.o(i.apply_pub_ram)
    i.array_inversion                        0x08019f74   Section        0  public_function.o(i.array_inversion)
    i.at_recieve_callback                    0x08019fc8   Section        0  wireless_app.o(i.at_recieve_callback)
    at_recieve_callback                      0x08019fc9   Thumb Code  1124  wireless_app.o(i.at_recieve_callback)
    i.at_recieve_handle                      0x0801a42c   Section        0  wireless_app.o(i.at_recieve_handle)
    i.at_send_handle                         0x0801a440   Section        0  wireless_app.o(i.at_send_handle)
    at_send_handle                           0x0801a441   Thumb Code   406  wireless_app.o(i.at_send_handle)
    i.authentication_respond_cmd             0x0801a5f8   Section        0  protocol_huarun_app.o(i.authentication_respond_cmd)
    i.authentication_upload                  0x0801a650   Section        0  protocol_huarun_app.o(i.authentication_upload)
    i.backup_power_err_handle                0x0801a6a0   Section        0  fault_alarm_app.o(i.backup_power_err_handle)
    i.bit2_get                               0x0801a774   Section        0  fault_alarm_app.o(i.bit2_get)
    i.buffer_clear                           0x0801a78c   Section        0  rs485_driver.o(i.buffer_clear)
    i.canglan1_sync                          0x0801a7b0   Section        0  dev_cangnan1_app.o(i.canglan1_sync)
    i.canglan2_sync                          0x0801a7ba   Section        0  dev_cangnan2_app.o(i.canglan2_sync)
    i.cb_lcd_progressbar_glow                0x0801a7c4   Section        0  lcd_app.o(i.cb_lcd_progressbar_glow)
    i.cb_receive0                            0x0801a95c   Section        0  dev_elster_app.o(i.cb_receive0)
    i.cb_receive1                            0x0801a9e0   Section        0  dev_elster_app.o(i.cb_receive1)
    i.cb_receive2                            0x0801aaf4   Section        0  dev_elster_app.o(i.cb_receive2)
    i.cb_receive_txa3                        0x0801ab98   Section        0  dev_tianxina3_app.o(i.cb_receive_txa3)
    i.cb_receive_txa4                        0x0801ac38   Section        0  dev_tianxina4_app.o(i.cb_receive_txa4)
    i.cb_receive_txv3                        0x0801acdc   Section        0  dev_tianxinv13_app.o(i.cb_receive_txv3)
    i.char_2_hex                             0x0801add4   Section        0  public_function.o(i.char_2_hex)
    i.check_su                               0x0801ae88   Section        0  lcd_app.o(i.check_su)
    i.check_sum                              0x0801aeb8   Section        0  public_function.o(i.check_sum)
    i.checksum_16                            0x0801aed0   Section        0  dev_tianxinv13_app.o(i.checksum_16)
    i.clear_acc_res_cmd                      0x0801aeea   Section        0  host_communicate_app.o(i.clear_acc_res_cmd)
    i.clear_key_cmd                          0x0801aef0   Section        0  host_communicate_app.o(i.clear_key_cmd)
    i.collect_cyc_para_init                  0x0801aef8   Section        0  rtc_app.o(i.collect_cyc_para_init)
    i.collect_handle                         0x0801b064   Section        0  rtc_app.o(i.collect_handle)
    collect_handle                           0x0801b065   Thumb Code   360  rtc_app.o(i.collect_handle)
    i.communicate_soft_timer_task_cb         0x0801b1ec   Section        0  host_communicate_app.o(i.communicate_soft_timer_task_cb)
    i.communicate_softtimer                  0x0801b200   Section        0  host_communicate_app.o(i.communicate_softtimer)
    i.compute_remain                         0x0801b220   Section        0  expense_control_app.o(i.compute_remain)
    compute_remain                           0x0801b221   Thumb Code   380  expense_control_app.o(i.compute_remain)
    i.connect_countdown                      0x0801b3ac   Section        0  rtc_app.o(i.connect_countdown)
    connect_countdown                        0x0801b3ad   Thumb Code   186  rtc_app.o(i.connect_countdown)
    i.crc16_XMODEM                           0x0801b478   Section        0  public_function.o(i.crc16_XMODEM)
    i.crc16_modbus                           0x0801b4f6   Section        0  public_function.o(i.crc16_modbus)
    i.crc16_xmodem                           0x0801b574   Section        0  public_function.o(i.crc16_xmodem)
    i.create_task                            0x0801b5b4   Section        0  task.o(i.create_task)
    i.cursor_down                            0x0801b5d0   Section        0  lcd_app.o(i.cursor_down)
    i.cursor_inc                             0x0801b604   Section        0  lcd_app.o(i.cursor_inc)
    i.cursor_init                            0x0801b63c   Section        0  lcd_app.o(i.cursor_init)
    i.cursor_right                           0x0801b6b4   Section        0  lcd_app.o(i.cursor_right)
    i.cursor_shift                           0x0801b718   Section        0  lcd_app.o(i.cursor_shift)
    i.date_after                             0x0801b7b4   Section        0  public_function.o(i.date_after)
    i.date_is_ok                             0x0801b8c4   Section        0  public_function.o(i.date_is_ok)
    i.day_interval                           0x0801b97e   Section        0  public_function.o(i.day_interval)
    i.days_err_handle                        0x0801baea   Section        0  fault_alarm_app.o(i.days_err_handle)
    i.deep_sleep                             0x0801bafc   Section        0  meter_init.o(i.deep_sleep)
    i.del_soft_timer                         0x0801bbfc   Section        0  soft_timer.o(i.del_soft_timer)
    i.dev_after_fail_read_data               0x0801bc24   Section        0  dev_driver.o(i.dev_after_fail_read_data)
    i.dev_after_success_read_data            0x0801bc4c   Section        0  dev_driver.o(i.dev_after_success_read_data)
    i.dev_change                             0x0801bdcc   Section        0  dev_driver.o(i.dev_change)
    i.dev_init                               0x0801bebc   Section        0  dev_driver.o(i.dev_init)
    i.dev_sync                               0x0801bed0   Section        0  dev_driver.o(i.dev_sync)
    i.dev_sync_softtimer_cb                  0x0801bf30   Section        0  dev_driver.o(i.dev_sync_softtimer_cb)
    i.display_opt_page                       0x0801bf58   Section        0  lcd_app.o(i.display_opt_page)
    i.do_expense_control_task                0x0801bfc4   Section        0  expense_control_app.o(i.do_expense_control_task)
    i.do_fualt_alarm_task                    0x0801bfe6   Section        0  fault_alarm_app.o(i.do_fualt_alarm_task)
    i.do_host_cmd_task                       0x0801c01c   Section        0  host_communicate_app.o(i.do_host_cmd_task)
    i.do_lcd_task                            0x0801c09c   Section        0  lcd_app.o(i.do_lcd_task)
    i.do_measure                             0x0801c0d0   Section        0  measure_app.o(i.do_measure)
    do_measure                               0x0801c0d1   Thumb Code    96  measure_app.o(i.do_measure)
    i.do_measure_task                        0x0801c14c   Section        0  measure_app.o(i.do_measure_task)
    i.do_rs485_task                          0x0801c180   Section        0  dev_driver.o(i.do_rs485_task)
    i.do_rtc_handle_task                     0x0801c1c0   Section        0  rtc_app.o(i.do_rtc_handle_task)
    i.do_valve_task                          0x0801c1f8   Section        0  valve_app.o(i.do_valve_task)
    i.do_voltage_task                        0x0801c274   Section        0  voltagedetection_app.o(i.do_voltage_task)
    i.do_wireless_task                       0x0801c2a4   Section        0  wireless_app.o(i.do_wireless_task)
    i.eep_test_ack                           0x0801c52c   Section        0  host_communicate_app.o(i.eep_test_ack)
    i.eep_test_cmd                           0x0801c554   Section        0  host_communicate_app.o(i.eep_test_cmd)
    i.eeprom_acc_day_handle                  0x0801c58c   Section        0  eeprom_app.o(i.eeprom_acc_day_handle)
    i.eeprom_acc_day_index_handle            0x0801c610   Section        0  eeprom_app.o(i.eeprom_acc_day_index_handle)
    i.eeprom_acc_hour_handle                 0x0801c634   Section        0  eeprom_app.o(i.eeprom_acc_hour_handle)
    i.eeprom_acc_hour_index_handle           0x0801c6b0   Section        0  eeprom_app.o(i.eeprom_acc_hour_index_handle)
    i.eeprom_acc_month_handle                0x0801c6d4   Section        0  eeprom_app.o(i.eeprom_acc_month_handle)
    i.eeprom_acc_month_index_handle          0x0801c758   Section        0  eeprom_app.o(i.eeprom_acc_month_index_handle)
    i.eeprom_access_mode_handle              0x0801c77a   Section        0  eeprom_app.o(i.eeprom_access_mode_handle)
    i.eeprom_app_init                        0x0801c79c   Section        0  eeprom_app.o(i.eeprom_app_init)
    i.eeprom_baud_handle                     0x0801cfe4   Section        0  eeprom_app.o(i.eeprom_baud_handle)
    i.eeprom_collect_cyc_para_handle         0x0801d006   Section        0  eeprom_app.o(i.eeprom_collect_cyc_para_handle)
    i.eeprom_collect_data_handle             0x0801d02c   Section        0  eeprom_app.o(i.eeprom_collect_data_handle)
    i.eeprom_collect_data_index_handle       0x0801d138   Section        0  eeprom_app.o(i.eeprom_collect_data_index_handle)
    i.eeprom_connect_failed_flag_handle      0x0801d15a   Section        0  eeprom_app.o(i.eeprom_connect_failed_flag_handle)
    i.eeprom_cumulant_s_handle               0x0801d180   Section        0  eeprom_app.o(i.eeprom_cumulant_s_handle)
    i.eeprom_cumulant_w_handle               0x0801d1a2   Section        0  eeprom_app.o(i.eeprom_cumulant_w_handle)
    i.eeprom_cur_acc_flow_handle             0x0801d1c4   Section        0  eeprom_app.o(i.eeprom_cur_acc_flow_handle)
    i.eeprom_cur_loss_day_num_handle         0x0801d1ea   Section        0  eeprom_app.o(i.eeprom_cur_loss_day_num_handle)
    i.eeprom_cur_non_measurement_day_num_handle 0x0801d210   Section        0  eeprom_app.o(i.eeprom_cur_non_measurement_day_num_handle)
    i.eeprom_cur_price_handle                0x0801d236   Section        0  eeprom_app.o(i.eeprom_cur_price_handle)
    i.eeprom_cur_remain_handle               0x0801d25c   Section        0  eeprom_app.o(i.eeprom_cur_remain_handle)
    i.eeprom_cyc_collect_handle              0x0801d282   Section        0  eeprom_app.o(i.eeprom_cyc_collect_handle)
    i.eeprom_dev_t_handle                    0x0801d2a8   Section        0  eeprom_app.o(i.eeprom_dev_t_handle)
    i.eeprom_driver_init                     0x0801d2cc   Section        0  eeprom_driver.o(i.eeprom_driver_init)
    i.eeprom_even_log_handle                 0x0801d370   Section        0  eeprom_app.o(i.eeprom_even_log_handle)
    i.eeprom_even_log_index_handle           0x0801d3ec   Section        0  eeprom_app.o(i.eeprom_even_log_index_handle)
    i.eeprom_first_power_on_handle           0x0801d40e   Section        0  eeprom_app.o(i.eeprom_first_power_on_handle)
    eeprom_first_power_on_handle             0x0801d40f   Thumb Code    34  eeprom_app.o(i.eeprom_first_power_on_handle)
    i.eeprom_func1_handle                    0x0801d430   Section        0  eeprom_app.o(i.eeprom_func1_handle)
    i.eeprom_func2_handle                    0x0801d452   Section        0  eeprom_app.o(i.eeprom_func2_handle)
    i.eeprom_func3_handle                    0x0801d478   Section        0  eeprom_app.o(i.eeprom_func3_handle)
    i.eeprom_func4_handle                    0x0801d49e   Section        0  eeprom_app.o(i.eeprom_func4_handle)
    i.eeprom_is_ok_handle                    0x0801d4c4   Section        0  eeprom_app.o(i.eeprom_is_ok_handle)
    eeprom_is_ok_handle                      0x0801d4c5   Thumb Code    34  eeprom_app.o(i.eeprom_is_ok_handle)
    i.eeprom_key_handle                      0x0801d4e6   Section        0  eeprom_app.o(i.eeprom_key_handle)
    i.eeprom_lcd_key_handle                  0x0801d50c   Section        0  eeprom_app.o(i.eeprom_lcd_key_handle)
    i.eeprom_loss_day_num_handle             0x0801d52e   Section        0  eeprom_app.o(i.eeprom_loss_day_num_handle)
    i.eeprom_loss_valve_type_handle          0x0801d554   Section        0  eeprom_app.o(i.eeprom_loss_valve_type_handle)
    i.eeprom_measure_class_handle            0x0801d57a   Section        0  eeprom_app.o(i.eeprom_measure_class_handle)
    i.eeprom_measure_edge_handle             0x0801d5a0   Section        0  eeprom_app.o(i.eeprom_measure_edge_handle)
    i.eeprom_measure_type_handle             0x0801d5c6   Section        0  eeprom_app.o(i.eeprom_measure_type_handle)
    i.eeprom_meter_id_handle                 0x0801d5e8   Section        0  eeprom_app.o(i.eeprom_meter_id_handle)
    i.eeprom_non_measurement_day_num_handle  0x0801d60a   Section        0  eeprom_app.o(i.eeprom_non_measurement_day_num_handle)
    i.eeprom_non_measurement_valve_type_handle 0x0801d630   Section        0  eeprom_app.o(i.eeprom_non_measurement_valve_type_handle)
    i.eeprom_prev_price_handle               0x0801d656   Section        0  eeprom_app.o(i.eeprom_prev_price_handle)
    i.eeprom_prev_purch_date_handle          0x0801d67c   Section        0  eeprom_app.o(i.eeprom_prev_purch_date_handle)
    i.eeprom_prev_purch_value_handle         0x0801d6a2   Section        0  eeprom_app.o(i.eeprom_prev_purch_value_handle)
    i.eeprom_prev_remain_handle              0x0801d6c8   Section        0  eeprom_app.o(i.eeprom_prev_remain_handle)
    i.eeprom_prev_settle_date_handle         0x0801d6ee   Section        0  eeprom_app.o(i.eeprom_prev_settle_date_handle)
    i.eeprom_pulse_value_handle              0x0801d714   Section        0  eeprom_app.o(i.eeprom_pulse_value_handle)
    i.eeprom_remain_alarm_limit_para_handle  0x0801d736   Section        0  eeprom_app.o(i.eeprom_remain_alarm_limit_para_handle)
    i.eeprom_report_cyc_para_handle          0x0801d75c   Section        0  eeprom_app.o(i.eeprom_report_cyc_para_handle)
    i.eeprom_report_data_index_handle        0x0801d782   Section        0  eeprom_app.o(i.eeprom_report_data_index_handle)
    i.eeprom_rsvd_value_handle               0x0801d7a4   Section        0  eeprom_app.o(i.eeprom_rsvd_value_handle)
    i.eeprom_safe_para_handle                0x0801d7ca   Section        0  eeprom_app.o(i.eeprom_safe_para_handle)
    i.eeprom_status1_handle                  0x0801d7f0   Section        0  eeprom_app.o(i.eeprom_status1_handle)
    i.eeprom_status2_handle                  0x0801d816   Section        0  eeprom_app.o(i.eeprom_status2_handle)
    i.eeprom_sub_meter_addr_handle           0x0801d83c   Section        0  eeprom_app.o(i.eeprom_sub_meter_addr_handle)
    i.eeprom_sub_meter_id_handle             0x0801d85e   Section        0  eeprom_app.o(i.eeprom_sub_meter_id_handle)
    i.eeprom_sub_meter_type_handle           0x0801d880   Section        0  eeprom_app.o(i.eeprom_sub_meter_type_handle)
    i.eeprom_uart_parity_handle              0x0801d8a2   Section        0  eeprom_app.o(i.eeprom_uart_parity_handle)
    i.eeprom_uart_stopbits_handle            0x0801d8c4   Section        0  eeprom_app.o(i.eeprom_uart_stopbits_handle)
    i.eeprom_uart_wordlength_handle          0x0801d8e6   Section        0  eeprom_app.o(i.eeprom_uart_wordlength_handle)
    i.eeprom_valve_close_time_handle         0x0801d908   Section        0  eeprom_app.o(i.eeprom_valve_close_time_handle)
    i.eeprom_valve_ele_handle                0x0801d92a   Section        0  eeprom_app.o(i.eeprom_valve_ele_handle)
    i.eeprom_valve_open_time_handle          0x0801d94c   Section        0  eeprom_app.o(i.eeprom_valve_open_time_handle)
    i.eeprom_wireless_info_handle            0x0801d96e   Section        0  eeprom_app.o(i.eeprom_wireless_info_handle)
    i.eeprom_wireless_info_heartbeat_interval_handle 0x0801d994   Section        0  eeprom_app.o(i.eeprom_wireless_info_heartbeat_interval_handle)
    i.eeprom_wireless_info_ip_handle         0x0801d9c0   Section        0  eeprom_app.o(i.eeprom_wireless_info_ip_handle)
    i.eeprom_wireless_info_port_handle       0x0801d9ec   Section        0  eeprom_app.o(i.eeprom_wireless_info_port_handle)
    i.eeprom_wireless_para_key_handle        0x0801da18   Section        0  eeprom_app.o(i.eeprom_wireless_para_key_handle)
    i.eeprom_wireless_para_user_handle       0x0801da3e   Section        0  eeprom_app.o(i.eeprom_wireless_para_user_handle)
    i.ele0_pad_in                            0x0801da64   Section        0  lcd_adapter.o(i.ele0_pad_in)
    i.ele0_pad_out                           0x0801da8c   Section        0  lcd_adapter.o(i.ele0_pad_out)
    i.ele1_pad_in                            0x0801dab4   Section        0  lcd_adapter.o(i.ele1_pad_in)
    i.ele1_pad_out                           0x0801dadc   Section        0  lcd_adapter.o(i.ele1_pad_out)
    i.elect_different_close                  0x0801db04   Section        0  valve_app.o(i.elect_different_close)
    i.elect_different_force_open             0x0801db0c   Section        0  valve_app.o(i.elect_different_force_open)
    i.elect_different_open                   0x0801db6c   Section        0  valve_app.o(i.elect_different_open)
    i.elster_sync                            0x0801dbc8   Section        0  dev_elster_app.o(i.elster_sync)
    i.err_ack                                0x0801dbfc   Section        0  protocol_huarun_app.o(i.err_ack)
    i.even_log_save_handle                   0x0801dc20   Section        0  eeprom_app.o(i.even_log_save_handle)
    i.event_log_read                         0x0801dc90   Section        0  eeprom_app.o(i.event_log_read)
    i.ever_year_month_maxday                 0x0801de86   Section        0  public_function.o(i.ever_year_month_maxday)
    i.ever_year_month_maxdays                0x0801df28   Section        0  wireless_app.o(i.ever_year_month_maxdays)
    i.execute_host_cmd                       0x0801dfa0   Section        0  host_communicate_app.o(i.execute_host_cmd)
    i.execute_host_test_cmd                  0x0801e040   Section        0  host_communicate_app.o(i.execute_host_test_cmd)
    i.expense_control_app_init               0x0801e0f0   Section        0  expense_control_app.o(i.expense_control_app_init)
    i.expense_control_err_handle             0x0801e108   Section        0  fault_alarm_app.o(i.expense_control_err_handle)
    i.expense_lcd_show                       0x0801e258   Section        0  expense_control_app.o(i.expense_lcd_show)
    i.fabs                                   0x0801e27c   Section        0  fabs.o(i.fabs)
    i.fail_time_check                        0x0801e294   Section        0  dev_driver.o(i.fail_time_check)
    i.fault_alarm_app_init                   0x0801e2d4   Section        0  fault_alarm_app.o(i.fault_alarm_app_init)
    i.fault_display_update                   0x0801e2e8   Section        0  fault_alarm_app.o(i.fault_display_update)
    i.fault_list_add                         0x0801e308   Section        0  fault_alarm_app.o(i.fault_list_add)
    i.fault_list_del                         0x0801e344   Section        0  fault_alarm_app.o(i.fault_list_del)
    i.fault_list_get                         0x0801e394   Section        0  fault_alarm_app.o(i.fault_list_get)
    i.fault_report_check                     0x0801e3b8   Section        0  fault_alarm_app.o(i.fault_report_check)
    i.fault_valve_handle                     0x0801e404   Section        0  fault_alarm_app.o(i.fault_valve_handle)
    i.fault_valve_name                       0x0801e43c   Section        0  fault_alarm_app.o(i.fault_valve_name)
    i.force_time_synchronize_cmd             0x0801e474   Section        0  protocol_huarun_app.o(i.force_time_synchronize_cmd)
    i.free                                   0x0801e508   Section        0  malloc.o(i.free)
    i.free_a_data_block                      0x0801e558   Section        0  public_ram.o(i.free_a_data_block)
    free_a_data_block                        0x0801e559   Thumb Code    16  public_ram.o(i.free_a_data_block)
    i.func38h_ackok_handle                   0x0801e56c   Section        0  protocol_huarun_app.o(i.func38h_ackok_handle)
    i.function1_get                          0x0801e628   Section        0  fault_alarm_app.o(i.function1_get)
    i.function2_get                          0x0801e63c   Section        0  fault_alarm_app.o(i.function2_get)
    i.function3_get                          0x0801e650   Section        0  fault_alarm_app.o(i.function3_get)
    i.function_para_config                   0x0801e664   Section        0  host_communicate_app.o(i.function_para_config)
    i.function_para_rd                       0x0801e990   Section        0  host_communicate_app.o(i.function_para_rd)
    i.get_be_val                             0x0801ec34   Section        0  public_function.o(i.get_be_val)
    i.get_keys_ack                           0x0801ec5a   Section        0  host_communicate_app.o(i.get_keys_ack)
    i.get_keys_cmd                           0x0801ec60   Section        0  host_communicate_app.o(i.get_keys_cmd)
    i.get_le_val                             0x0801ec66   Section        0  public_function.o(i.get_le_val)
    i.get_pub_ram_data                       0x0801ec8c   Section        0  public_ram.o(i.get_pub_ram_data)
    i.get_task_sig                           0x0801ecd8   Section        0  task.o(i.get_task_sig)
    i.get_unused_data_block                  0x0801ecf8   Section        0  public_ram.o(i.get_unused_data_block)
    get_unused_data_block                    0x0801ecf9   Thumb Code    20  public_ram.o(i.get_unused_data_block)
    i.get_voltage_ack                        0x0801ed0c   Section        0  host_communicate_app.o(i.get_voltage_ack)
    i.get_wireless_buf                       0x0801edd8   Section        0  wireless_driver.o(i.get_wireless_buf)
    i.get_zenner_frame                       0x0801edf0   Section        0  protocol_huarun_app.o(i.get_zenner_frame)
    i.get_zenner_frame_ack_port              0x0801ee78   Section        0  protocol_huarun_app.o(i.get_zenner_frame_ack_port)
    get_zenner_frame_ack_port                0x0801ee79   Thumb Code    46  protocol_huarun_app.o(i.get_zenner_frame_ack_port)
    i.get_zenner_frame_set_port              0x0801eeac   Section        0  protocol_huarun_app.o(i.get_zenner_frame_set_port)
    get_zenner_frame_set_port                0x0801eead   Thumb Code    46  protocol_huarun_app.o(i.get_zenner_frame_set_port)
    i.heart_beat_ackcmd                      0x0801eee0   Section        0  protocol_huarun_app.o(i.heart_beat_ackcmd)
    i.heartbeat_pack                         0x0801ef20   Section        0  protocol_huarun_app.o(i.heartbeat_pack)
    i.hhmm_to_mmmm                           0x0801ef88   Section        0  public_function.o(i.hhmm_to_mmmm)
    i.history_flow_read                      0x0801ef98   Section        0  eeprom_app.o(i.history_flow_read)
    i.history_handle                         0x0801f028   Section        0  rtc_app.o(i.history_handle)
    history_handle                           0x0801f029   Thumb Code   772  rtc_app.o(i.history_handle)
    i.host_0A_ack_data_complete              0x0801f374   Section        0  host_communicate_app.o(i.host_0A_ack_data_complete)
    i.host_config_id                         0x0801f394   Section        0  host_communicate_app.o(i.host_config_id)
    i.host_const_part                        0x0801f3c8   Section        0  host_communicate_app.o(i.host_const_part)
    i.host_const_part_0A                     0x0801f3d4   Section        0  host_communicate_app.o(i.host_const_part_0A)
    i.host_driver_init                       0x0801f3e4   Section        0  host_communicate_app.o(i.host_driver_init)
    i.host_id_rd_ack                         0x0801f408   Section        0  host_communicate_app.o(i.host_id_rd_ack)
    i.host_no_data_ack                       0x0801f43c   Section        0  host_communicate_app.o(i.host_no_data_ack)
    i.host_rd_485_para_ack                   0x0801f474   Section        0  host_communicate_app.o(i.host_rd_485_para_ack)
    i.host_rd_heartbeat_ack                  0x0801f4cc   Section        0  host_communicate_app.o(i.host_rd_heartbeat_ack)
    i.host_rd_password_ack                   0x0801f4fc   Section        0  host_communicate_app.o(i.host_rd_password_ack)
    i.host_rd_sub_info_ack                   0x0801f530   Section        0  host_communicate_app.o(i.host_rd_sub_info_ack)
    i.host_set_485_para                      0x0801f5a4   Section        0  host_communicate_app.o(i.host_set_485_para)
    i.host_set_account                       0x0801f690   Section        0  host_communicate_app.o(i.host_set_account)
    i.host_set_heartbeat                     0x0801f8d0   Section        0  host_communicate_app.o(i.host_set_heartbeat)
    i.host_set_password                      0x0801f900   Section        0  host_communicate_app.o(i.host_set_password)
    i.host_set_residue                       0x0801f930   Section        0  host_communicate_app.o(i.host_set_residue)
    i.host_set_sub_info                      0x0801f9a0   Section        0  host_communicate_app.o(i.host_set_sub_info)
    i.host_set_time                          0x0801fa64   Section        0  host_communicate_app.o(i.host_set_time)
    i.host_submeter_type_rd_ack              0x0801fabc   Section        0  host_communicate_app.o(i.host_submeter_type_rd_ack)
    i.host_test_start_analysis               0x0801faf0   Section        0  host_communicate_app.o(i.host_test_start_analysis)
    i.host_valve_close_time                  0x0801fb34   Section        0  host_communicate_app.o(i.host_valve_close_time)
    i.host_valve_close_time_rd_ack           0x0801fb74   Section        0  host_communicate_app.o(i.host_valve_close_time_rd_ack)
    i.host_valve_open_time                   0x0801fbb4   Section        0  host_communicate_app.o(i.host_valve_open_time)
    i.host_valve_open_time_rd_ack            0x0801fbf4   Section        0  host_communicate_app.o(i.host_valve_open_time_rd_ack)
    i.hour_interval                          0x0801fc34   Section        0  public_function.o(i.hour_interval)
    i.htdl_cmd1_rs485_tx                     0x0801fc7c   Section        0  dev_htdl_app.o(i.htdl_cmd1_rs485_tx)
    htdl_cmd1_rs485_tx                       0x0801fc7d   Thumb Code    58  dev_htdl_app.o(i.htdl_cmd1_rs485_tx)
    i.htdl_cmd2_rs485_tx                     0x0801fcbc   Section        0  dev_htdl_app.o(i.htdl_cmd2_rs485_tx)
    htdl_cmd2_rs485_tx                       0x0801fcbd   Thumb Code    66  dev_htdl_app.o(i.htdl_cmd2_rs485_tx)
    i.huarun_frame_const_part                0x0801fd04   Section        0  protocol_huarun_app.o(i.huarun_frame_const_part)
    huarun_frame_const_part                  0x0801fd05   Thumb Code    78  protocol_huarun_app.o(i.huarun_frame_const_part)
    i.huarun_protocol_analysis               0x0801fd5c   Section        0  protocol_huarun_app.o(i.huarun_protocol_analysis)
    huarun_protocol_analysis                 0x0801fd5d   Thumb Code   196  protocol_huarun_app.o(i.huarun_protocol_analysis)
    i.id_config_ack                          0x0801fe24   Section        0  host_communicate_app.o(i.id_config_ack)
    i.id_config_cmd                          0x0801fe5c   Section        0  host_communicate_app.o(i.id_config_cmd)
    i.impulse_measure_IO_init                0x0801fe84   Section        0  measure_driver.o(i.impulse_measure_IO_init)
    i.input_pulse_test_ack                   0x0801fef0   Section        0  host_communicate_app.o(i.input_pulse_test_ack)
    i.input_pulse_test_cmd                   0x0801ff30   Section        0  host_communicate_app.o(i.input_pulse_test_cmd)
    i.invert_uint16                          0x0801ff68   Section        0  public_function.o(i.invert_uint16)
    invert_uint16                            0x0801ff69   Thumb Code    42  public_function.o(i.invert_uint16)
    i.invert_uint8                           0x0801ff92   Section        0  public_function.o(i.invert_uint8)
    invert_uint8                             0x0801ff93   Thumb Code    42  public_function.o(i.invert_uint8)
    i.io_lp_handle                           0x0801ffbc   Section        0  meter_init.o(i.io_lp_handle)
    i.is_all_task_pending                    0x08020194   Section        0  task.o(i.is_all_task_pending)
    is_all_task_pending                      0x08020195   Thumb Code    38  task.o(i.is_all_task_pending)
    i.is_should_plus_non_measurement_err     0x080201c0   Section        0  fault_alarm_app.o(i.is_should_plus_non_measurement_err)
    i.iwdg_init                              0x080202b4   Section        0  meter_init.o(i.iwdg_init)
    i.key_assert                             0x080202e0   Section        0  wireless_app.o(i.key_assert)
    i.key_down_test_ack                      0x08020328   Section        0  host_communicate_app.o(i.key_down_test_ack)
    i.key_down_test_cmd                      0x08020368   Section        0  host_communicate_app.o(i.key_down_test_cmd)
    i.key_download_cmd                       0x080203ac   Section        0  protocol_huarun_app.o(i.key_download_cmd)
    i.key_driver_init                        0x08020418   Section        0  key_driver.o(i.key_driver_init)
    i.key_inc_test_ack                       0x08020424   Section        0  host_communicate_app.o(i.key_inc_test_ack)
    i.key_inc_test_cmd                       0x08020464   Section        0  host_communicate_app.o(i.key_inc_test_cmd)
    i.key_io_init                            0x080204a8   Section        0  key_driver.o(i.key_io_init)
    key_io_init                              0x080204a9   Thumb Code    78  key_driver.o(i.key_io_init)
    i.key_nvic_init                          0x08020500   Section        0  key_driver.o(i.key_nvic_init)
    key_nvic_init                            0x08020501   Thumb Code    68  key_driver.o(i.key_nvic_init)
    i.key_ret_test_cmd                       0x08020544   Section        0  host_communicate_app.o(i.key_ret_test_cmd)
    i.key_right_test_ack                     0x08020588   Section        0  host_communicate_app.o(i.key_right_test_ack)
    i.key_right_test_cmd                     0x080205c8   Section        0  host_communicate_app.o(i.key_right_test_cmd)
    i.key_rst_test_ack                       0x0802060c   Section        0  host_communicate_app.o(i.key_rst_test_ack)
    i.key_set_test_ack                       0x0802064c   Section        0  host_communicate_app.o(i.key_set_test_ack)
    i.key_set_test_cmd                       0x0802068c   Section        0  host_communicate_app.o(i.key_set_test_cmd)
    i.key_soft_timer_task_cb                 0x080206c4   Section        0  key_app.o(i.key_soft_timer_task_cb)
    key_soft_timer_task_cb                   0x080206c5   Thumb Code   164  key_app.o(i.key_soft_timer_task_cb)
    i.key_softtimer                          0x08020788   Section        0  key_app.o(i.key_softtimer)
    i.keys_bind                              0x080207b0   Section        0  key_app.o(i.keys_bind)
    i.lcd_app_deinit                         0x080207cc   Section        0  lcd_app.o(i.lcd_app_deinit)
    i.lcd_app_init                           0x0802080c   Section        0  lcd_app.o(i.lcd_app_init)
    i.lcd_app_wakeup                         0x08020834   Section        0  lcd_app.o(i.lcd_app_wakeup)
    i.lcd_baudrate_get                       0x080208b0   Section        0  lcd_adapter.o(i.lcd_baudrate_get)
    i.lcd_baudrate_set                       0x080208f0   Section        0  lcd_adapter.o(i.lcd_baudrate_set)
    i.lcd_clear                              0x08020928   Section        0  lcd_driver.o(i.lcd_clear)
    i.lcd_clearline                          0x08020948   Section        0  lcd_driver.o(i.lcd_clearline)
    i.lcd_countdown_init                     0x08020980   Section        0  lcd_app.o(i.lcd_countdown_init)
    i.lcd_date_get                           0x080209c8   Section        0  lcd_adapter.o(i.lcd_date_get)
    i.lcd_date_set                           0x08020a1c   Section        0  lcd_adapter.o(i.lcd_date_set)
    i.lcd_dev_t_get                          0x08020a64   Section        0  lcd_adapter.o(i.lcd_dev_t_get)
    i.lcd_dev_t_set                          0x08020a8c   Section        0  lcd_adapter.o(i.lcd_dev_t_set)
    i.lcd_driver_deinit                      0x08020ab4   Section        0  lcd_driver.o(i.lcd_driver_deinit)
    i.lcd_driver_init                        0x08020ae0   Section        0  lcd_driver.o(i.lcd_driver_init)
    i.lcd_ele0_down                          0x08020b3c   Section        0  lcd_app.o(i.lcd_ele0_down)
    i.lcd_ele0_inc                           0x08020b88   Section        0  lcd_app.o(i.lcd_ele0_inc)
    i.lcd_ele0_init                          0x08020bd4   Section        0  lcd_app.o(i.lcd_ele0_init)
    i.lcd_ele0_right                         0x08020c64   Section        0  lcd_app.o(i.lcd_ele0_right)
    i.lcd_ele0_set                           0x08020cdc   Section        0  lcd_app.o(i.lcd_ele0_set)
    i.lcd_ele1_down                          0x08020d14   Section        0  lcd_app.o(i.lcd_ele1_down)
    i.lcd_ele1_inc                           0x08020d40   Section        0  lcd_app.o(i.lcd_ele1_inc)
    i.lcd_ele1_init                          0x08020d68   Section        0  lcd_app.o(i.lcd_ele1_init)
    i.lcd_ele1_right                         0x08020e6c   Section        0  lcd_app.o(i.lcd_ele1_right)
    i.lcd_ele1_set                           0x08020e80   Section        0  lcd_app.o(i.lcd_ele1_set)
    i.lcd_ele1_shift                         0x08020eb0   Section        0  lcd_app.o(i.lcd_ele1_shift)
    i.lcd_ele_init                           0x08020eec   Section        0  lcd_app.o(i.lcd_ele_init)
    i.lcd_gpio_init                          0x08020f34   Section        0  lcd_driver.o(i.lcd_gpio_init)
    i.lcd_ip_get                             0x08021008   Section        0  lcd_adapter.o(i.lcd_ip_get)
    i.lcd_ip_set                             0x08021020   Section        0  lcd_adapter.o(i.lcd_ip_set)
    i.lcd_key_get                            0x08021040   Section        0  lcd_adapter.o(i.lcd_key_get)
    i.lcd_key_set                            0x08021054   Section        0  lcd_adapter.o(i.lcd_key_set)
    i.lcd_life_limit_get                     0x08021074   Section        0  lcd_adapter.o(i.lcd_life_limit_get)
    i.lcd_life_limit_set                     0x08021098   Section        0  lcd_adapter.o(i.lcd_life_limit_set)
    i.lcd_measure_edge_get                   0x080210c0   Section        0  lcd_adapter.o(i.lcd_measure_edge_get)
    i.lcd_measure_edge_set                   0x080210dc   Section        0  lcd_adapter.o(i.lcd_measure_edge_set)
    i.lcd_measure_mode_get                   0x08021104   Section        0  lcd_adapter.o(i.lcd_measure_mode_get)
    i.lcd_measure_mode_set                   0x08021120   Section        0  lcd_adapter.o(i.lcd_measure_mode_set)
    i.lcd_measuretype_get                    0x08021144   Section        0  lcd_adapter.o(i.lcd_measuretype_get)
    i.lcd_measuretype_set                    0x08021160   Section        0  lcd_adapter.o(i.lcd_measuretype_set)
    i.lcd_menu_display                       0x0802119c   Section        0  lcd_app.o(i.lcd_menu_display)
    i.lcd_menu_init                          0x080211e8   Section        0  lcd_app.o(i.lcd_menu_init)
    i.lcd_menu_ret                           0x08021244   Section        0  lcd_app.o(i.lcd_menu_ret)
    i.lcd_menu_set                           0x0802125c   Section        0  lcd_app.o(i.lcd_menu_set)
    i.lcd_on_wakeup                          0x08021280   Section        0  meter_init.o(i.lcd_on_wakeup)
    i.lcd_opt_page_init                      0x08021288   Section        0  lcd_app.o(i.lcd_opt_page_init)
    i.lcd_opt_rtc_update                     0x08021328   Section        0  lcd_adapter.o(i.lcd_opt_rtc_update)
    i.lcd_opt_update                         0x080213b0   Section        0  lcd_adapter.o(i.lcd_opt_update)
    i.lcd_opt_valve_state_update             0x080213d4   Section        0  lcd_adapter.o(i.lcd_opt_valve_state_update)
    i.lcd_page_update                        0x0802142c   Section        0  lcd_adapter.o(i.lcd_page_update)
    i.lcd_port_get                           0x0802145c   Section        0  lcd_adapter.o(i.lcd_port_get)
    i.lcd_port_set                           0x08021480   Section        0  lcd_adapter.o(i.lcd_port_set)
    i.lcd_progressbar_first_init             0x080214a4   Section        0  lcd_app.o(i.lcd_progressbar_first_init)
    lcd_progressbar_first_init               0x080214a5   Thumb Code    62  lcd_app.o(i.lcd_progressbar_first_init)
    i.lcd_progressbar_rs485_display          0x080214f0   Section        0  lcd_app.o(i.lcd_progressbar_rs485_display)
    i.lcd_progressbar_wireless_display       0x08021560   Section        0  lcd_app.o(i.lcd_progressbar_wireless_display)
    i.lcd_progressbar_wireless_goto          0x08021618   Section        0  lcd_app.o(i.lcd_progressbar_wireless_goto)
    i.lcd_progressbar_wireless_init          0x08021630   Section        0  lcd_app.o(i.lcd_progressbar_wireless_init)
    i.lcd_progressbar_wireless_leave         0x0802166c   Section        0  lcd_app.o(i.lcd_progressbar_wireless_leave)
    i.lcd_pulse_val_get                      0x08021678   Section        0  lcd_adapter.o(i.lcd_pulse_val_get)
    i.lcd_pulse_val_set                      0x080216c4   Section        0  lcd_adapter.o(i.lcd_pulse_val_set)
    i.lcd_show2char                          0x080216f4   Section        0  lcd_driver.o(i.lcd_show2char)
    i.lcd_showchars                          0x0802172c   Section        0  lcd_driver.o(i.lcd_showchars)
    i.lcd_showcursor                         0x08021770   Section        0  lcd_driver.o(i.lcd_showcursor)
    i.lcd_showele0_in_halfpage               0x080217b0   Section        0  lcd_app.o(i.lcd_showele0_in_halfpage)
    i.lcd_showele1_in_halfpage               0x080217e8   Section        0  lcd_app.o(i.lcd_showele1_in_halfpage)
    i.lcd_showele_in_halfpage                0x0802181c   Section        0  lcd_app.o(i.lcd_showele_in_halfpage)
    i.lcd_showline                           0x08021848   Section        0  lcd_driver.o(i.lcd_showline)
    i.lcd_showlines                          0x080218a8   Section        0  lcd_driver.o(i.lcd_showlines)
    i.lcd_shownstr                           0x080218e8   Section        0  lcd_driver.o(i.lcd_shownstr)
    i.lcd_showstr                            0x08021930   Section        0  lcd_driver.o(i.lcd_showstr)
    i.lcd_su_init                            0x0802196c   Section        0  lcd_app.o(i.lcd_su_init)
    i.lcd_time_get                           0x08021a14   Section        0  lcd_adapter.o(i.lcd_time_get)
    i.lcd_time_set                           0x08021a54   Section        0  lcd_adapter.o(i.lcd_time_set)
    i.lcd_usr_page_cmd                       0x08021a98   Section        0  lcd_app.o(i.lcd_usr_page_cmd)
    i.lcd_usr_page_display                   0x08021ab0   Section        0  lcd_app.o(i.lcd_usr_page_display)
    i.lcd_usr_page_init                      0x08021acc   Section        0  lcd_app.o(i.lcd_usr_page_init)
    i.lcd_usr_page_leave                     0x08021b04   Section        0  lcd_app.o(i.lcd_usr_page_leave)
    i.lcd_usr_page_shift                     0x08021b18   Section        0  lcd_app.o(i.lcd_usr_page_shift)
    i.lcd_usr_update                         0x08021b40   Section        0  lcd_adapter.o(i.lcd_usr_update)
    i.lcd_valve_close_get                    0x08021b64   Section        0  lcd_adapter.o(i.lcd_valve_close_get)
    i.lcd_valve_close_time_set               0x08021b94   Section        0  lcd_adapter.o(i.lcd_valve_close_time_set)
    i.lcd_valve_open_time_get                0x08021bcc   Section        0  lcd_adapter.o(i.lcd_valve_open_time_get)
    i.lcd_valve_open_time_set                0x08021bfc   Section        0  lcd_adapter.o(i.lcd_valve_open_time_set)
    i.lcd_valve_state_get                    0x08021c34   Section        0  lcd_adapter.o(i.lcd_valve_state_get)
    i.lcd_valve_state_set                    0x08021c5c   Section        0  lcd_adapter.o(i.lcd_valve_state_set)
    i.lcd_valve_type_get                     0x08021ce0   Section        0  lcd_adapter.o(i.lcd_valve_type_get)
    i.lcd_valve_type_set                     0x08021d08   Section        0  lcd_adapter.o(i.lcd_valve_type_set)
    i.list_add_tail                          0x08021d28   Section        0  soft_timer.o(i.list_add_tail)
    list_add_tail                            0x08021d29   Thumb Code    14  soft_timer.o(i.list_add_tail)
    i.list_del                               0x08021d36   Section        0  soft_timer.o(i.list_del)
    list_del                                 0x08021d37   Thumb Code    18  soft_timer.o(i.list_del)
    i.longpress_connect_cb                   0x08021d48   Section        0  lcd_adapter.o(i.longpress_connect_cb)
    i.loss_err_check                         0x08021d5c   Section        0  fault_alarm_app.o(i.loss_err_check)
    i.loss_err_handle                        0x08021dd0   Section        0  fault_alarm_app.o(i.loss_err_handle)
    i.lunci_sync                             0x08021ddc   Section        0  dev_lunci_app.o(i.lunci_sync)
    i.lunci_sync_softtimer                   0x08021df8   Section        0  dev_lunci_app.o(i.lunci_sync_softtimer)
    lunci_sync_softtimer                     0x08021df9   Thumb Code    22  dev_lunci_app.o(i.lunci_sync_softtimer)
    i.lunci_sync_softtimer_cb                0x08021e18   Section        0  dev_lunci_app.o(i.lunci_sync_softtimer_cb)
    i.main                                   0x08021e6c   Section        0  main.o(i.main)
    i.main_power_err_check                   0x08021e84   Section        0  fault_alarm_app.o(i.main_power_err_check)
    i.main_power_err_handle                  0x08021e98   Section        0  fault_alarm_app.o(i.main_power_err_handle)
    i.main_power_err_handle_softtimer        0x08021ea4   Section        0  fault_alarm_app.o(i.main_power_err_handle_softtimer)
    i.main_power_err_handle_softtimer_task_cb 0x08021ec0   Section        0  fault_alarm_app.o(i.main_power_err_handle_softtimer_task_cb)
    main_power_err_handle_softtimer_task_cb  0x08021ec1   Thumb Code    10  fault_alarm_app.o(i.main_power_err_handle_softtimer_task_cb)
    i.malloc                                 0x08021ecc   Section        0  malloc.o(i.malloc)
    i.max_flow_err_handle                    0x08021f38   Section        0  fault_alarm_app.o(i.max_flow_err_handle)
    i.measure_app_init                       0x08022004   Section        0  measure_app.o(i.measure_app_init)
    i.measure_driver_init                    0x08022018   Section        0  measure_driver.o(i.measure_driver_init)
    i.measure_save_handle                    0x08022038   Section        0  rtc_app.o(i.measure_save_handle)
    measure_save_handle                      0x08022039   Thumb Code   186  rtc_app.o(i.measure_save_handle)
    i.meter_init                             0x08022114   Section        0  meter_init.o(i.meter_init)
    i.meter_self_test                        0x08022184   Section        0  meter_init.o(i.meter_self_test)
    meter_self_test                          0x08022185   Thumb Code   228  meter_init.o(i.meter_self_test)
    i.module_4g_test_cmd                     0x0802227c   Section        0  host_communicate_app.o(i.module_4g_test_cmd)
    i.month_interval                         0x08022294   Section        0  public_function.o(i.month_interval)
    i.muti_timeout_handle                    0x080222f4   Section        0  wireless_app.o(i.muti_timeout_handle)
    muti_timeout_handle                      0x080222f5   Thumb Code     8  wireless_app.o(i.muti_timeout_handle)
    i.neo_para_rw_ack                        0x08022300   Section        0  host_communicate_app.o(i.neo_para_rw_ack)
    i.neo_para_rw_conf                       0x08022350   Section        0  host_communicate_app.o(i.neo_para_rw_conf)
    i.network_para_config                    0x080223dc   Section        0  host_communicate_app.o(i.network_para_config)
    i.network_para_rd_ack                    0x08022474   Section        0  host_communicate_app.o(i.network_para_rd_ack)
    i.no_data_ack                            0x080224ec   Section        0  protocol_huarun_app.o(i.no_data_ack)
    i.no_data_ack_host                       0x08022514   Section        0  host_communicate_app.o(i.no_data_ack_host)
    i.no_data_cmd                            0x08022570   Section        0  protocol_huarun_app.o(i.no_data_cmd)
    i.no_data_cmd_0A                         0x08022590   Section        0  host_communicate_app.o(i.no_data_cmd_0A)
    i.non_measurement_err_check              0x08022598   Section        0  fault_alarm_app.o(i.non_measurement_err_check)
    i.non_measurement_err_handle             0x08022600   Section        0  fault_alarm_app.o(i.non_measurement_err_handle)
    i.normal_upstreamdata_fill               0x0802260c   Section        0  protocol_huarun_app.o(i.normal_upstreamdata_fill)
    i.nullf                                  0x08022a88   Section        0  lcd_adapter.o(i.nullf)
    i.offline_valve_off_num_ack              0x08022a8c   Section        0  protocol_huarun_app.o(i.offline_valve_off_num_ack)
    i.opt_page_ret                           0x08022abc   Section        0  lcd_app.o(i.opt_page_ret)
    i.opt_page_set                           0x08022ac4   Section        0  lcd_app.o(i.opt_page_set)
    i.other_report_softtimer                 0x08022adc   Section        0  fault_alarm_app.o(i.other_report_softtimer)
    i.other_report_softtimer_task_cb         0x08022b30   Section        0  fault_alarm_app.o(i.other_report_softtimer_task_cb)
    other_report_softtimer_task_cb           0x08022b31   Thumb Code   218  fault_alarm_app.o(i.other_report_softtimer_task_cb)
    i.output_off_cmd                         0x08022c1c   Section        0  host_communicate_app.o(i.output_off_cmd)
    i.output_on_cmd                          0x08022c40   Section        0  host_communicate_app.o(i.output_on_cmd)
    i.para_config_cmd                        0x08022c64   Section        0  host_communicate_app.o(i.para_config_cmd)
    i.pcb_test                               0x08022c6c   Section        0  meter_init.o(i.pcb_test)
    i.pcb_test_lcdshow                       0x08022da0   Section        0  lcd_adapter.o(i.pcb_test_lcdshow)
    i.pend_task                              0x08022e08   Section        0  task.o(i.pend_task)
    pend_task                                0x08022e09   Thumb Code    26  task.o(i.pend_task)
    i.period_para_config                     0x08022e24   Section        0  host_communicate_app.o(i.period_para_config)
    i.period_para_rd_ack                     0x08022e78   Section        0  host_communicate_app.o(i.period_para_rd_ack)
    i.pkcs7_padding                          0x08022ec0   Section        0  public_function.o(i.pkcs7_padding)
    i.poll_soft_timer                        0x08022ef4   Section        0  soft_timer.o(i.poll_soft_timer)
    i.poll_task                              0x08022f7c   Section        0  task.o(i.poll_task)
    i.price_synchronization_cmd              0x0802300c   Section        0  protocol_huarun_app.o(i.price_synchronization_cmd)
    i.protcol_htdl_rxbuf_handle              0x0802321c   Section        0  dev_htdl_app.o(i.protcol_htdl_rxbuf_handle)
    protcol_htdl_rxbuf_handle                0x0802321d   Thumb Code   106  dev_htdl_app.o(i.protcol_htdl_rxbuf_handle)
    i.protocol_ack_data_handle               0x0802328c   Section        0  protocol_huarun_app.o(i.protocol_ack_data_handle)
    protocol_ack_data_handle                 0x0802328d   Thumb Code   420  protocol_huarun_app.o(i.protocol_ack_data_handle)
    i.protocol_aizhi_cmd1_handle             0x0802343c   Section        0  dev_aizhi_app.o(i.protocol_aizhi_cmd1_handle)
    protocol_aizhi_cmd1_handle               0x0802343d   Thumb Code   396  dev_aizhi_app.o(i.protocol_aizhi_cmd1_handle)
    i.protocol_aizhi_cmd1_handle_softtimer   0x080235e0   Section        0  dev_aizhi_app.o(i.protocol_aizhi_cmd1_handle_softtimer)
    protocol_aizhi_cmd1_handle_softtimer     0x080235e1   Thumb Code    22  dev_aizhi_app.o(i.protocol_aizhi_cmd1_handle_softtimer)
    i.protocol_aizhi_cmd1_handle_softtimer_task_cb 0x08023600   Section        0  dev_aizhi_app.o(i.protocol_aizhi_cmd1_handle_softtimer_task_cb)
    protocol_aizhi_cmd1_handle_softtimer_task_cb 0x08023601   Thumb Code   164  dev_aizhi_app.o(i.protocol_aizhi_cmd1_handle_softtimer_task_cb)
    i.protocol_aizhi_handle                  0x080236c0   Section        0  dev_aizhi_app.o(i.protocol_aizhi_handle)
    i.protocol_cangnan2handle                0x080236f8   Section        0  dev_cangnan2_app.o(i.protocol_cangnan2handle)
    i.protocol_cangnan_cmd1_handle           0x08023730   Section        0  dev_cangnan1_app.o(i.protocol_cangnan_cmd1_handle)
    protocol_cangnan_cmd1_handle             0x08023731   Thumb Code   728  dev_cangnan1_app.o(i.protocol_cangnan_cmd1_handle)
    i.protocol_cangnan_cmd1_handle           0x08023a2c   Section        0  dev_cangnan2_app.o(i.protocol_cangnan_cmd1_handle)
    protocol_cangnan_cmd1_handle             0x08023a2d   Thumb Code   318  dev_cangnan2_app.o(i.protocol_cangnan_cmd1_handle)
    i.protocol_cangnan_cmd1_handle_softtimer 0x08023b78   Section        0  dev_cangnan1_app.o(i.protocol_cangnan_cmd1_handle_softtimer)
    protocol_cangnan_cmd1_handle_softtimer   0x08023b79   Thumb Code    22  dev_cangnan1_app.o(i.protocol_cangnan_cmd1_handle_softtimer)
    i.protocol_cangnan_cmd1_handle_softtimer 0x08023b98   Section        0  dev_cangnan2_app.o(i.protocol_cangnan_cmd1_handle_softtimer)
    protocol_cangnan_cmd1_handle_softtimer   0x08023b99   Thumb Code    22  dev_cangnan2_app.o(i.protocol_cangnan_cmd1_handle_softtimer)
    i.protocol_cangnan_cmd1_handle_softtimer_task_cb 0x08023bb8   Section        0  dev_cangnan1_app.o(i.protocol_cangnan_cmd1_handle_softtimer_task_cb)
    protocol_cangnan_cmd1_handle_softtimer_task_cb 0x08023bb9   Thumb Code   142  dev_cangnan1_app.o(i.protocol_cangnan_cmd1_handle_softtimer_task_cb)
    i.protocol_cangnan_cmd1_handle_softtimer_task_cb 0x08023c60   Section        0  dev_cangnan2_app.o(i.protocol_cangnan_cmd1_handle_softtimer_task_cb)
    protocol_cangnan_cmd1_handle_softtimer_task_cb 0x08023c61   Thumb Code   142  dev_cangnan2_app.o(i.protocol_cangnan_cmd1_handle_softtimer_task_cb)
    i.protocol_cangnan_handle                0x08023d08   Section        0  dev_cangnan1_app.o(i.protocol_cangnan_handle)
    i.protocol_htdl_cmd1_handle              0x08023d40   Section        0  dev_htdl_app.o(i.protocol_htdl_cmd1_handle)
    protocol_htdl_cmd1_handle                0x08023d41   Thumb Code   320  dev_htdl_app.o(i.protocol_htdl_cmd1_handle)
    i.protocol_htdl_cmd1_handle_softtimer    0x08023e94   Section        0  dev_htdl_app.o(i.protocol_htdl_cmd1_handle_softtimer)
    protocol_htdl_cmd1_handle_softtimer      0x08023e95   Thumb Code    22  dev_htdl_app.o(i.protocol_htdl_cmd1_handle_softtimer)
    i.protocol_htdl_cmd1_handle_softtimer_task_cb 0x08023eb4   Section        0  dev_htdl_app.o(i.protocol_htdl_cmd1_handle_softtimer_task_cb)
    protocol_htdl_cmd1_handle_softtimer_task_cb 0x08023eb5   Thumb Code   136  dev_htdl_app.o(i.protocol_htdl_cmd1_handle_softtimer_task_cb)
    i.protocol_htdl_cmd2_handle              0x08023f5c   Section        0  dev_htdl_app.o(i.protocol_htdl_cmd2_handle)
    protocol_htdl_cmd2_handle                0x08023f5d   Thumb Code    72  dev_htdl_app.o(i.protocol_htdl_cmd2_handle)
    i.protocol_htdl_cmd2_handle_softtimer    0x08023fac   Section        0  dev_htdl_app.o(i.protocol_htdl_cmd2_handle_softtimer)
    protocol_htdl_cmd2_handle_softtimer      0x08023fad   Thumb Code    22  dev_htdl_app.o(i.protocol_htdl_cmd2_handle_softtimer)
    i.protocol_htdl_cmd2_handle_softtimer_task_cb 0x08023fcc   Section        0  dev_htdl_app.o(i.protocol_htdl_cmd2_handle_softtimer_task_cb)
    protocol_htdl_cmd2_handle_softtimer_task_cb 0x08023fcd   Thumb Code    44  dev_htdl_app.o(i.protocol_htdl_cmd2_handle_softtimer_task_cb)
    i.protocol_htdl_handle                   0x08024008   Section        0  dev_htdl_app.o(i.protocol_htdl_handle)
    i.protocol_lmt1_cmd1_handle              0x08024044   Section        0  dev_lmt1_app.o(i.protocol_lmt1_cmd1_handle)
    protocol_lmt1_cmd1_handle                0x08024045   Thumb Code   664  dev_lmt1_app.o(i.protocol_lmt1_cmd1_handle)
    i.protocol_lmt1_cmd1_handle_softtimer    0x0802430c   Section        0  dev_lmt1_app.o(i.protocol_lmt1_cmd1_handle_softtimer)
    protocol_lmt1_cmd1_handle_softtimer      0x0802430d   Thumb Code    22  dev_lmt1_app.o(i.protocol_lmt1_cmd1_handle_softtimer)
    i.protocol_lmt1_cmd1_handle_softtimer_task_cb 0x0802432c   Section        0  dev_lmt1_app.o(i.protocol_lmt1_cmd1_handle_softtimer_task_cb)
    protocol_lmt1_cmd1_handle_softtimer_task_cb 0x0802432d   Thumb Code   142  dev_lmt1_app.o(i.protocol_lmt1_cmd1_handle_softtimer_task_cb)
    i.protocol_lmt1_cmd2_handle              0x080243d4   Section        0  dev_lmt1_app.o(i.protocol_lmt1_cmd2_handle)
    protocol_lmt1_cmd2_handle                0x080243d5   Thumb Code   112  dev_lmt1_app.o(i.protocol_lmt1_cmd2_handle)
    i.protocol_lmt1_cmd2_handle_softtimer    0x0802444c   Section        0  dev_lmt1_app.o(i.protocol_lmt1_cmd2_handle_softtimer)
    protocol_lmt1_cmd2_handle_softtimer      0x0802444d   Thumb Code    22  dev_lmt1_app.o(i.protocol_lmt1_cmd2_handle_softtimer)
    i.protocol_lmt1_cmd2_handle_softtimer_task_cb 0x0802446c   Section        0  dev_lmt1_app.o(i.protocol_lmt1_cmd2_handle_softtimer_task_cb)
    protocol_lmt1_cmd2_handle_softtimer_task_cb 0x0802446d   Thumb Code    44  dev_lmt1_app.o(i.protocol_lmt1_cmd2_handle_softtimer_task_cb)
    i.protocol_lmt1_handle                   0x080244a8   Section        0  dev_lmt1_app.o(i.protocol_lmt1_handle)
    i.protocol_lmt2_cmd1_handle              0x08024520   Section        0  dev_lmt2_app.o(i.protocol_lmt2_cmd1_handle)
    protocol_lmt2_cmd1_handle                0x08024521   Thumb Code   238  dev_lmt2_app.o(i.protocol_lmt2_cmd1_handle)
    i.protocol_lmt2_cmd1_handle_softtimer    0x0802461c   Section        0  dev_lmt2_app.o(i.protocol_lmt2_cmd1_handle_softtimer)
    protocol_lmt2_cmd1_handle_softtimer      0x0802461d   Thumb Code    22  dev_lmt2_app.o(i.protocol_lmt2_cmd1_handle_softtimer)
    i.protocol_lmt2_cmd1_handle_softtimer_task_cb 0x0802463c   Section        0  dev_lmt2_app.o(i.protocol_lmt2_cmd1_handle_softtimer_task_cb)
    protocol_lmt2_cmd1_handle_softtimer_task_cb 0x0802463d   Thumb Code   142  dev_lmt2_app.o(i.protocol_lmt2_cmd1_handle_softtimer_task_cb)
    i.protocol_lmt2_handle                   0x080246e4   Section        0  dev_lmt2_app.o(i.protocol_lmt2_handle)
    i.protocol_lunci_handle                  0x0802471c   Section        0  dev_lunci_app.o(i.protocol_lunci_handle)
    protocol_lunci_handle                    0x0802471d   Thumb Code   228  dev_lunci_app.o(i.protocol_lunci_handle)
    i.protocol_modbus_cmd03h_handle          0x0802481c   Section        0  modbus_app.o(i.protocol_modbus_cmd03h_handle)
    i.protocol_modbus_cmd06h_handle          0x080248bc   Section        0  modbus_app.o(i.protocol_modbus_cmd06h_handle)
    i.protocol_recieve_data_handle           0x08024934   Section        0  protocol_huarun_app.o(i.protocol_recieve_data_handle)
    protocol_recieve_data_handle             0x08024935   Thumb Code   278  protocol_huarun_app.o(i.protocol_recieve_data_handle)
    i.protocol_yushun_cmd1_handle            0x08024a58   Section        0  dev_yushun_app.o(i.protocol_yushun_cmd1_handle)
    protocol_yushun_cmd1_handle              0x08024a59   Thumb Code   322  dev_yushun_app.o(i.protocol_yushun_cmd1_handle)
    i.protocol_yushun_cmd1_handle_softtimer  0x08024ba8   Section        0  dev_yushun_app.o(i.protocol_yushun_cmd1_handle_softtimer)
    protocol_yushun_cmd1_handle_softtimer    0x08024ba9   Thumb Code    22  dev_yushun_app.o(i.protocol_yushun_cmd1_handle_softtimer)
    i.protocol_yushun_cmd1_handle_softtimer1 0x08024bc8   Section        0  dev_yushun_app.o(i.protocol_yushun_cmd1_handle_softtimer1)
    protocol_yushun_cmd1_handle_softtimer1   0x08024bc9   Thumb Code    22  dev_yushun_app.o(i.protocol_yushun_cmd1_handle_softtimer1)
    i.protocol_yushun_cmd1_handle_softtimer1_task_cb 0x08024be8   Section        0  dev_yushun_app.o(i.protocol_yushun_cmd1_handle_softtimer1_task_cb)
    protocol_yushun_cmd1_handle_softtimer1_task_cb 0x08024be9   Thumb Code   100  dev_yushun_app.o(i.protocol_yushun_cmd1_handle_softtimer1_task_cb)
    i.protocol_yushun_cmd1_handle_softtimer2 0x08024c68   Section        0  dev_yushun_app.o(i.protocol_yushun_cmd1_handle_softtimer2)
    protocol_yushun_cmd1_handle_softtimer2   0x08024c69   Thumb Code    22  dev_yushun_app.o(i.protocol_yushun_cmd1_handle_softtimer2)
    i.protocol_yushun_cmd1_handle_softtimer2_task_cb 0x08024c88   Section        0  dev_yushun_app.o(i.protocol_yushun_cmd1_handle_softtimer2_task_cb)
    protocol_yushun_cmd1_handle_softtimer2_task_cb 0x08024c89   Thumb Code   162  dev_yushun_app.o(i.protocol_yushun_cmd1_handle_softtimer2_task_cb)
    i.protocol_yushun_cmd1_handle_softtimer_task_cb 0x08024d44   Section        0  dev_yushun_app.o(i.protocol_yushun_cmd1_handle_softtimer_task_cb)
    protocol_yushun_cmd1_handle_softtimer_task_cb 0x08024d45   Thumb Code    98  dev_yushun_app.o(i.protocol_yushun_cmd1_handle_softtimer_task_cb)
    i.protocol_yushun_handle                 0x08024dc4   Section        0  dev_yushun_app.o(i.protocol_yushun_handle)
    i.protocol_zennerb_handle                0x08024dfc   Section        0  dev_zennerb_app.o(i.protocol_zennerb_handle)
    i.protocol_zennnerb_cmd1_handle          0x08024e48   Section        0  dev_zennerb_app.o(i.protocol_zennnerb_cmd1_handle)
    i.pub_ram_init                           0x08024e9c   Section        0  public_ram.o(i.pub_ram_init)
    i.put_be_val                             0x08024eb0   Section        0  public_function.o(i.put_be_val)
    i.put_le_val                             0x08024ec8   Section        0  public_function.o(i.put_le_val)
    i.pwrkey_off                             0x08024ee2   Section        0  wireless_app.o(i.pwrkey_off)
    i.pwrkey_off_soft_timer                  0x08024eec   Section        0  wireless_app.o(i.pwrkey_off_soft_timer)
    pwrkey_off_soft_timer                    0x08024eed   Thumb Code    28  wireless_app.o(i.pwrkey_off_soft_timer)
    i.pwrkey_off_soft_timer_task_cb          0x08024f10   Section        0  wireless_app.o(i.pwrkey_off_soft_timer_task_cb)
    pwrkey_off_soft_timer_task_cb            0x08024f11   Thumb Code   190  wireless_app.o(i.pwrkey_off_soft_timer_task_cb)
    i.pwrkey_on                              0x08024fec   Section        0  wireless_app.o(i.pwrkey_on)
    i.pwrkey_on_soft_timer                   0x08024ff4   Section        0  wireless_app.o(i.pwrkey_on_soft_timer)
    pwrkey_on_soft_timer                     0x08024ff5   Thumb Code    42  wireless_app.o(i.pwrkey_on_soft_timer)
    i.pwrkey_on_soft_timer_task_cb           0x0802502c   Section        0  wireless_app.o(i.pwrkey_on_soft_timer_task_cb)
    pwrkey_on_soft_timer_task_cb             0x0802502d   Thumb Code   170  wireless_app.o(i.pwrkey_on_soft_timer_task_cb)
    i.rd_collect_upload_ack                  0x080250f4   Section        0  protocol_huarun_app.o(i.rd_collect_upload_ack)
    i.rd_event_log_cmd                       0x08025130   Section        0  protocol_huarun_app.o(i.rd_event_log_cmd)
    i.rd_history_ack                         0x08025164   Section        0  protocol_huarun_app.o(i.rd_history_ack)
    i.rd_history_cmd                         0x080251c4   Section        0  protocol_huarun_app.o(i.rd_history_cmd)
    i.rd_ip_ack                              0x08025208   Section        0  protocol_huarun_app.o(i.rd_ip_ack)
    i.rd_unload_valve_off_ack                0x08025274   Section        0  host_communicate_app.o(i.rd_unload_valve_off_ack)
    i.rd_unuse_valve_off_ack                 0x080252ac   Section        0  host_communicate_app.o(i.rd_unuse_valve_off_ack)
    i.read_device_ask                        0x080252e4   Section        0  protocol_huarun_app.o(i.read_device_ask)
    i.read_event_log_ack                     0x080253f0   Section        0  protocol_huarun_app.o(i.read_event_log_ack)
    i.read_float                             0x08025448   Section        0  fault_alarm_app.o(i.read_float)
    i.read_func_ack                          0x08025454   Section        0  protocol_huarun_app.o(i.read_func_ack)
    i.read_heartbeat_interval_ack            0x080256ec   Section        0  protocol_huarun_app.o(i.read_heartbeat_interval_ack)
    i.read_pub_ram_data                      0x08025714   Section        0  public_ram.o(i.read_pub_ram_data)
    i.read_residue_ask                       0x080257d4   Section        0  protocol_huarun_app.o(i.read_residue_ask)
    i.read_submeter_imf_ack                  0x080258c0   Section        0  protocol_huarun_app.o(i.read_submeter_imf_ack)
    i.read_time_ack                          0x0802591c   Section        0  protocol_huarun_app.o(i.read_time_ack)
    i.read_time_str                          0x08025964   Section        0  wireless_app.o(i.read_time_str)
    i.read_wireless_buf                      0x080259d4   Section        0  wireless_driver.o(i.read_wireless_buf)
    i.receive_zennner_a_task_cb              0x080259ec   Section        0  dev_zennera_app.o(i.receive_zennner_a_task_cb)
    receive_zennner_a_task_cb                0x080259ed   Thumb Code    12  dev_zennera_app.o(i.receive_zennner_a_task_cb)
    i.receive_zennner_b_task_cb              0x080259fc   Section        0  dev_zennerb_app.o(i.receive_zennner_b_task_cb)
    receive_zennner_b_task_cb                0x080259fd   Thumb Code   170  dev_zennerb_app.o(i.receive_zennner_b_task_cb)
    i.release_non_use_and_report_fault       0x08025ac4   Section        0  valve_app.o(i.release_non_use_and_report_fault)
    i.release_valve_access                   0x08025b38   Section        0  valve_app.o(i.release_valve_access)
    i.release_valve_handle                   0x08025b9c   Section        0  fault_alarm_app.o(i.release_valve_handle)
    i.remain_alarm_limit_init                0x08025d70   Section        0  fault_alarm_app.o(i.remain_alarm_limit_init)
    i.report_cyc_para_init                   0x08025e50   Section        0  rtc_app.o(i.report_cyc_para_init)
    i.report_handle                          0x08025fbc   Section        0  rtc_app.o(i.report_handle)
    report_handle                            0x08025fbd   Thumb Code   426  rtc_app.o(i.report_handle)
    i.reset_pub_ram                          0x0802618c   Section        0  public_ram.o(i.reset_pub_ram)
    i.romate1_sync                           0x0802619a   Section        0  dev_lmt1_app.o(i.romate1_sync)
    i.romate2_sync                           0x080261a4   Section        0  dev_lmt2_app.o(i.romate2_sync)
    i.rs485_Uart_Gpio_Init                   0x080261b0   Section        0  rs485_driver.o(i.rs485_Uart_Gpio_Init)
    i.rs485_driver_init                      0x080262f4   Section        0  rs485_driver.o(i.rs485_driver_init)
    i.rs485_err_handle                       0x080263c0   Section        0  fault_alarm_app.o(i.rs485_err_handle)
    i.rtc_app_init                           0x08026414   Section        0  rtc_app.o(i.rtc_app_init)
    i.rtc_driver_init                        0x08026428   Section        0  rtc_driver.o(i.rtc_driver_init)
    i.rtc_get_date                           0x08026528   Section        0  rtc_driver.o(i.rtc_get_date)
    i.rtc_get_time                           0x0802654c   Section        0  rtc_driver.o(i.rtc_get_time)
    i.rtc_set_date                           0x08026568   Section        0  rtc_driver.o(i.rtc_set_date)
    i.rtc_set_time                           0x080265b0   Section        0  rtc_driver.o(i.rtc_set_time)
    i.s_35v_init                             0x080265e4   Section        0  meter_init.o(i.s_35v_init)
    s_35v_init                               0x080265e5   Thumb Code    44  meter_init.o(i.s_35v_init)
    i.screen_test_cmd                        0x08026610   Section        0  host_communicate_app.o(i.screen_test_cmd)
    i.second_interrupt_lcd_auto_shutdown     0x0802663c   Section        0  rtc_app.o(i.second_interrupt_lcd_auto_shutdown)
    second_interrupt_lcd_auto_shutdown       0x0802663d   Thumb Code    72  rtc_app.o(i.second_interrupt_lcd_auto_shutdown)
    i.second_interrupt_rtc_show              0x0802669c   Section        0  rtc_app.o(i.second_interrupt_rtc_show)
    second_interrupt_rtc_show                0x0802669d   Thumb Code    58  rtc_app.o(i.second_interrupt_rtc_show)
    i.second_interrupt_voltage_show          0x080266f0   Section        0  rtc_app.o(i.second_interrupt_voltage_show)
    second_interrupt_voltage_show            0x080266f1   Thumb Code   118  rtc_app.o(i.second_interrupt_voltage_show)
    i.send_at_cmd                            0x08026780   Section        0  wireless_app.o(i.send_at_cmd)
    send_at_cmd                              0x08026781   Thumb Code    10  wireless_app.o(i.send_at_cmd)
    i.send_ate0_cmd                          0x08026794   Section        0  wireless_app.o(i.send_ate0_cmd)
    send_ate0_cmd                            0x08026795   Thumb Code    10  wireless_app.o(i.send_ate0_cmd)
    i.send_cgsn_cmd                          0x080267a8   Section        0  wireless_app.o(i.send_cgsn_cmd)
    send_cgsn_cmd                            0x080267a9   Thumb Code    10  wireless_app.o(i.send_cgsn_cmd)
    i.send_cimi_cmd                          0x080267c0   Section        0  wireless_app.o(i.send_cimi_cmd)
    send_cimi_cmd                            0x080267c1   Thumb Code    10  wireless_app.o(i.send_cimi_cmd)
    i.send_csq_cmd                           0x080267d8   Section        0  wireless_app.o(i.send_csq_cmd)
    send_csq_cmd                             0x080267d9   Thumb Code    10  wireless_app.o(i.send_csq_cmd)
    i.send_data_len                          0x080267f0   Section        0  wireless_app.o(i.send_data_len)
    send_data_len                            0x080267f1   Thumb Code   130  wireless_app.o(i.send_data_len)
    i.send_qccid_cmd                         0x0802689c   Section        0  wireless_app.o(i.send_qccid_cmd)
    send_qccid_cmd                           0x0802689d   Thumb Code    10  wireless_app.o(i.send_qccid_cmd)
    i.send_qiact_cmd                         0x080268b4   Section        0  wireless_app.o(i.send_qiact_cmd)
    send_qiact_cmd                           0x080268b5   Thumb Code    10  wireless_app.o(i.send_qiact_cmd)
    i.send_qiclose_cmd                       0x080268d0   Section        0  wireless_app.o(i.send_qiclose_cmd)
    send_qiclose_cmd                         0x080268d1   Thumb Code    10  wireless_app.o(i.send_qiclose_cmd)
    i.send_qicsgp_cmd                        0x080268ec   Section        0  wireless_app.o(i.send_qicsgp_cmd)
    send_qicsgp_cmd                          0x080268ed   Thumb Code    10  wireless_app.o(i.send_qicsgp_cmd)
    i.send_qiopen_cmd                        0x08026918   Section        0  wireless_app.o(i.send_qiopen_cmd)
    send_qiopen_cmd                          0x08026919   Thumb Code   286  wireless_app.o(i.send_qiopen_cmd)
    i.send_qntp_cmd                          0x08026a8c   Section        0  wireless_app.o(i.send_qntp_cmd)
    send_qntp_cmd                            0x08026a8d   Thumb Code    10  wireless_app.o(i.send_qntp_cmd)
    i.send_read_data_cmd                     0x08026ab8   Section        0  wireless_app.o(i.send_read_data_cmd)
    i.send_task_sig                          0x08026ad8   Section        0  task.o(i.send_task_sig)
    i.send_upstream_data                     0x08026af8   Section        0  wireless_app.o(i.send_upstream_data)
    send_upstream_data                       0x08026af9   Thumb Code    54  wireless_app.o(i.send_upstream_data)
    i.set_account_cmd                        0x08026b30   Section        0  protocol_huarun_app.o(i.set_account_cmd)
    i.set_collcet_upload_cmd                 0x08026d88   Section        0  protocol_huarun_app.o(i.set_collcet_upload_cmd)
    i.set_ele_id                             0x08026ddc   Section        0  lcd_app.o(i.set_ele_id)
    i.set_func_cmd                           0x08026e30   Section        0  protocol_huarun_app.o(i.set_func_cmd)
    i.set_heart_beat_interval_cmd            0x0802716c   Section        0  protocol_huarun_app.o(i.set_heart_beat_interval_cmd)
    i.set_nw_para_cmd                        0x0802719c   Section        0  protocol_huarun_app.o(i.set_nw_para_cmd)
    i.set_residue_alarm_cmd                  0x08027248   Section        0  protocol_huarun_app.o(i.set_residue_alarm_cmd)
    i.set_residue_cmd                        0x08027358   Section        0  protocol_huarun_app.o(i.set_residue_cmd)
    i.set_submeter_imf_cmd                   0x080273c0   Section        0  protocol_huarun_app.o(i.set_submeter_imf_cmd)
    i.set_unload_valve_off                   0x0802745c   Section        0  host_communicate_app.o(i.set_unload_valve_off)
    i.set_unload_valve_off_cmd               0x0802749c   Section        0  protocol_huarun_app.o(i.set_unload_valve_off_cmd)
    i.set_unuse_valve_off                    0x080274e8   Section        0  host_communicate_app.o(i.set_unuse_valve_off)
    i.set_unuse_valve_off_cmd                0x08027528   Section        0  protocol_huarun_app.o(i.set_unuse_valve_off_cmd)
    i.signal_line_err_check                  0x0802757c   Section        0  fault_alarm_app.o(i.signal_line_err_check)
    i.signal_line_err_handle                 0x0802758a   Section        0  fault_alarm_app.o(i.signal_line_err_handle)
    i.signal_line_err_handle_softtimer       0x08027598   Section        0  fault_alarm_app.o(i.signal_line_err_handle_softtimer)
    i.signal_line_err_handle_softtimer_task_cb 0x080275b4   Section        0  fault_alarm_app.o(i.signal_line_err_handle_softtimer_task_cb)
    i.simple_err_handle                      0x080275c0   Section        0  fault_alarm_app.o(i.simple_err_handle)
    i.soft_timer_init                        0x0802766c   Section        0  soft_timer.o(i.soft_timer_init)
    i.sqrt                                   0x08027680   Section        0  sqrt.o(i.sqrt)
    i.start_connect_wireless_net             0x080276ee   Section        0  wireless_app.o(i.start_connect_wireless_net)
    i.state1_update_get                      0x080276f8   Section        0  fault_alarm_app.o(i.state1_update_get)
    i.state2_update_get                      0x08027734   Section        0  fault_alarm_app.o(i.state2_update_get)
    i.store_remain                           0x08027774   Section        0  expense_control_app.o(i.store_remain)
    i.submeter_type_config                   0x080277bc   Section        0  host_communicate_app.o(i.submeter_type_config)
    i.sys_virtual_settle                     0x080277f0   Section        0  expense_control_app.o(i.sys_virtual_settle)
    sys_virtual_settle                       0x080277f1   Thumb Code    36  expense_control_app.o(i.sys_virtual_settle)
    i.test                                   0x0802781c   Section        0  test.o(i.test)
    i.test_485_ack_cb                        0x08027830   Section        0  rs485_driver.o(i.test_485_ack_cb)
    test_485_ack_cb                          0x08027831   Thumb Code    54  rs485_driver.o(i.test_485_ack_cb)
    i.test_485_cmd                           0x0802787c   Section        0  host_communicate_app.o(i.test_485_cmd)
    i.test_ack_soft_timer                    0x0802789c   Section        0  rs485_driver.o(i.test_ack_soft_timer)
    i.test_connect_cmd                       0x080278bc   Section        0  host_communicate_app.o(i.test_connect_cmd)
    i.test_init                              0x080278dc   Section        0  test.o(i.test_init)
    i.tianxina3_sync                         0x080278f0   Section        0  dev_tianxina3_app.o(i.tianxina3_sync)
    i.tianxina4_sync                         0x08027928   Section        0  dev_tianxina4_app.o(i.tianxina4_sync)
    i.tianxinv13_sync                        0x08027960   Section        0  dev_tianxinv13_app.o(i.tianxinv13_sync)
    i.time_calculation                       0x08027990   Section        0  valve_app.o(i.time_calculation)
    time_calculation                         0x08027991   Thumb Code    20  valve_app.o(i.time_calculation)
    i.timeout_handle                         0x080279a4   Section        0  wireless_app.o(i.timeout_handle)
    timeout_handle                           0x080279a5   Thumb Code     8  wireless_app.o(i.timeout_handle)
    i.tx2float                               0x080279b0   Section        0  dev_tianxinv13_app.o(i.tx2float)
    i.unuse_valve_off_num_ack                0x08027a4c   Section        0  protocol_huarun_app.o(i.unuse_valve_off_num_ack)
    i.upstream_ackcmd                        0x08027a7c   Section        0  protocol_huarun_app.o(i.upstream_ackcmd)
    i.upstream_data_fill                     0x08027ae4   Section        0  wireless_app.o(i.upstream_data_fill)
    upstream_data_fill                       0x08027ae5   Thumb Code    18  wireless_app.o(i.upstream_data_fill)
    i.usr_fault_adapt                        0x08027afc   Section        0  lcd_adapter.o(i.usr_fault_adapt)
    i.usr_fault_cmd                          0x08027bcc   Section        0  lcd_adapter.o(i.usr_fault_cmd)
    i.usr_home_adapt                         0x08027be4   Section        0  lcd_adapter.o(i.usr_home_adapt)
    i.usr_money2_adapt                       0x08027ef0   Section        0  lcd_adapter.o(i.usr_money2_adapt)
    i.usr_rs485_adapt                        0x08028118   Section        0  lcd_adapter.o(i.usr_rs485_adapt)
    i.usr_time_adapt                         0x08028508   Section        0  lcd_adapter.o(i.usr_time_adapt)
    i.usr_valve_cmd                          0x0802864c   Section        0  lcd_adapter.o(i.usr_valve_cmd)
    i.utc_to_lc                              0x08028694   Section        0  wireless_app.o(i.utc_to_lc)
    i.value_to_pc                            0x08028728   Section        0  voltagedetection_app.o(i.value_to_pc)
    value_to_pc                              0x08028729   Thumb Code   192  voltagedetection_app.o(i.value_to_pc)
    i.valve_InPalce_soft_timer_task_cb       0x080287f0   Section        0  valve_app.o(i.valve_InPalce_soft_timer_task_cb)
    valve_InPalce_soft_timer_task_cb         0x080287f1   Thumb Code   366  valve_app.o(i.valve_InPalce_soft_timer_task_cb)
    i.valve_NoInPalce_soft_timer_task_cb     0x08028974   Section        0  valve_app.o(i.valve_NoInPalce_soft_timer_task_cb)
    valve_NoInPalce_soft_timer_task_cb       0x08028975   Thumb Code   146  valve_app.o(i.valve_NoInPalce_soft_timer_task_cb)
    i.valve_abnormal_soft_timer              0x08028a18   Section        0  valve_app.o(i.valve_abnormal_soft_timer)
    valve_abnormal_soft_timer                0x08028a19   Thumb Code    26  valve_app.o(i.valve_abnormal_soft_timer)
    i.valve_abnormal_soft_timer_task_cb      0x08028a40   Section        0  valve_app.o(i.valve_abnormal_soft_timer_task_cb)
    i.valve_app_init                         0x08028a58   Section        0  valve_app.o(i.valve_app_init)
    i.valve_close_soft_timer                 0x08028a90   Section        0  valve_app.o(i.valve_close_soft_timer)
    valve_close_soft_timer                   0x08028a91   Thumb Code   222  valve_app.o(i.valve_close_soft_timer)
    i.valve_close_test_ack                   0x08028b8c   Section        0  host_communicate_app.o(i.valve_close_test_ack)
    i.valve_close_test_cmd                   0x08028bcc   Section        0  host_communicate_app.o(i.valve_close_test_cmd)
    i.valve_ctl_cmd                          0x08028c24   Section        0  protocol_huarun_app.o(i.valve_ctl_cmd)
    i.valve_ctrl                             0x08028c8c   Section        0  host_communicate_app.o(i.valve_ctrl)
    i.valve_drive_idle                       0x08028cf4   Section        0  valve_driver.o(i.valve_drive_idle)
    i.valve_driver_init                      0x08028d18   Section        0  valve_driver.o(i.valve_driver_init)
    i.valve_gpio_init                        0x08028d38   Section        0  valve_driver.o(i.valve_gpio_init)
    i.valve_inplace_interrupt                0x08028dd0   Section        0  rtc_app.o(i.valve_inplace_interrupt)
    valve_inplace_interrupt                  0x08028dd1   Thumb Code   212  rtc_app.o(i.valve_inplace_interrupt)
    i.valve_off_cmd                          0x08028ec0   Section        0  host_communicate_app.o(i.valve_off_cmd)
    i.valve_open_cmd                         0x08028f3c   Section        0  host_communicate_app.o(i.valve_open_cmd)
    i.valve_open_soft_timer                  0x08028fb8   Section        0  valve_app.o(i.valve_open_soft_timer)
    valve_open_soft_timer                    0x08028fb9   Thumb Code   112  valve_app.o(i.valve_open_soft_timer)
    i.valve_open_test_ack                    0x0802903c   Section        0  host_communicate_app.o(i.valve_open_test_ack)
    i.valve_open_test_cmd                    0x0802907c   Section        0  host_communicate_app.o(i.valve_open_test_cmd)
    i.valve_state_IO_init                    0x080290d4   Section        0  valve_driver.o(i.valve_state_IO_init)
    i.virtual_settle                         0x0802911c   Section        0  expense_control_app.o(i.virtual_settle)
    virtual_settle                           0x0802911d   Thumb Code   112  expense_control_app.o(i.virtual_settle)
    i.voltage_soft_timer_task_cb             0x08029190   Section        0  voltagedetection_app.o(i.voltage_soft_timer_task_cb)
    i.voltage_softtimer                      0x0802921c   Section        0  voltagedetection_app.o(i.voltage_softtimer)
    i.voltage_test_cmd                       0x0802923c   Section        0  host_communicate_app.o(i.voltage_test_cmd)
    i.wireless_app_init                      0x08029244   Section        0  wireless_app.o(i.wireless_app_init)
    i.wireless_driver_init                   0x08029268   Section        0  wireless_driver.o(i.wireless_driver_init)
    i.wireless_gpio_init                     0x0802928c   Section        0  wireless_driver.o(i.wireless_gpio_init)
    i.wireless_handle_soft_timer             0x0802933c   Section        0  wireless_app.o(i.wireless_handle_soft_timer)
    i.wireless_handle_soft_timer_task_cb     0x08029358   Section        0  wireless_app.o(i.wireless_handle_soft_timer_task_cb)
    wireless_handle_soft_timer_task_cb       0x08029359   Thumb Code    24  wireless_app.o(i.wireless_handle_soft_timer_task_cb)
    i.wireless_power_on_lock                 0x08029378   Section        0  wireless_app.o(i.wireless_power_on_lock)
    i.wireless_receive_ack                   0x080293cc   Section        0  meter_init.o(i.wireless_receive_ack)
    i.wireless_receive_timeout_handle_soft_timer 0x08029500   Section        0  wireless_app.o(i.wireless_receive_timeout_handle_soft_timer)
    i.wireless_receive_timeout_handle_soft_timer_task_cb 0x0802951c   Section        0  wireless_app.o(i.wireless_receive_timeout_handle_soft_timer_task_cb)
    wireless_receive_timeout_handle_soft_timer_task_cb 0x0802951d   Thumb Code    14  wireless_app.o(i.wireless_receive_timeout_handle_soft_timer_task_cb)
    i.wireless_send_string                   0x08029530   Section        0  wireless_driver.o(i.wireless_send_string)
    i.wireless_soft_timer                    0x08029548   Section        0  wireless_app.o(i.wireless_soft_timer)
    wireless_soft_timer                      0x08029549   Thumb Code    22  wireless_app.o(i.wireless_soft_timer)
    i.wireless_soft_timer_task_cb            0x08029568   Section        0  wireless_app.o(i.wireless_soft_timer_task_cb)
    wireless_soft_timer_task_cb              0x08029569   Thumb Code    70  wireless_app.o(i.wireless_soft_timer_task_cb)
    i.wireless_start_soft_timer              0x080295b8   Section        0  wireless_app.o(i.wireless_start_soft_timer)
    wireless_start_soft_timer                0x080295b9   Thumb Code    22  wireless_app.o(i.wireless_start_soft_timer)
    i.wireless_start_soft_timer_task_cb      0x080295d8   Section        0  wireless_app.o(i.wireless_start_soft_timer_task_cb)
    wireless_start_soft_timer_task_cb        0x080295d9   Thumb Code    10  wireless_app.o(i.wireless_start_soft_timer_task_cb)
    i.wireless_switch                        0x080295e4   Section        0  wireless_app.o(i.wireless_switch)
    i.wireless_uart_config                   0x0802962c   Section        0  wireless_driver.o(i.wireless_uart_config)
    i.write_pub_ram                          0x08029690   Section        0  public_ram.o(i.write_pub_ram)
    i.write_wireless_buf                     0x0802974c   Section        0  wireless_driver.o(i.write_wireless_buf)
    i.yushun_sync                            0x08029784   Section        0  dev_yushun_app.o(i.yushun_sync)
    i.zenner_protocol_handle                 0x0802978e   Section        0  protocol_huarun_app.o(i.zenner_protocol_handle)
    i.zennera_sync                           0x080297ac   Section        0  dev_zennera_app.o(i.zennera_sync)
    i.zennerb_sync                           0x080297e8   Section        0  dev_zennerb_app.o(i.zennerb_sync)
    .constdata                               0x080297f4   Section       72  system_stm32l4xx.o(.constdata)
    .constdata                               0x0802983c   Section        8  eeprom_app.o(.constdata)
    .constdata                               0x08029844   Section        3  lcd_data.o(.constdata)
    .constdata                               0x08029847   Section        1  lcd_adapter.o(.constdata)
    .constdata                               0x08029848   Section        9  wireless_app.o(.constdata)
    .constdata                               0x08029854   Section      580  protocol_huarun_app.o(.constdata)
    func_upstream_items                      0x08029854   Data         270  protocol_huarun_app.o(.constdata)
    func_downstream_items                    0x08029962   Data         300  protocol_huarun_app.o(.constdata)
    .constdata                               0x08029a98   Section     1076  host_communicate_app.o(.constdata)
    func_0A_upstream_items                   0x08029a98   Data         270  host_communicate_app.o(.constdata)
    host_func_upstream_items                 0x08029ba6   Data          80  host_communicate_app.o(.constdata)
    func_0A_downstream_items                 0x08029bf6   Data         270  host_communicate_app.o(.constdata)
    host_func_downstream_items               0x08029d04   Data         110  host_communicate_app.o(.constdata)
    func_test_upstream_items                 0x08029d72   Data         144  host_communicate_app.o(.constdata)
    func_test_downstream_items               0x08029e02   Data         192  host_communicate_app.o(.constdata)
    .constdata                               0x08029ed0   Section      136  pow.o(.constdata)
    bp                                       0x08029ed0   Data          16  pow.o(.constdata)
    dp_h                                     0x08029ee0   Data          16  pow.o(.constdata)
    dp_l                                     0x08029ef0   Data          16  pow.o(.constdata)
    L                                        0x08029f00   Data          48  pow.o(.constdata)
    P                                        0x08029f30   Data          40  pow.o(.constdata)
    .constdata                               0x08029f58   Section        8  qnan.o(.constdata)
    .constdata                               0x08029f60   Section       64  ctype_c.o(.constdata)
    .conststring                             0x08029fa0   Section      697  lcd_data.o(.conststring)
    .conststring                             0x0802a25c   Section     1134  protocol_huarun_app.o(.conststring)
    .conststring                             0x0802a6cc   Section     1257  host_communicate_app.o(.conststring)
    .data                                    0x20000000   Section        9  stm32l4xx_hal.o(.data)
    .data                                    0x2000000c   Section        4  system_stm32l4xx.o(.data)
    .data                                    0x20000010   Section       52  rs485_driver.o(.data)
    valve_soft_timer_task                    0x2000001c   Data          20  rs485_driver.o(.data)
    test_485_soft_timer_task                 0x20000030   Data          20  rs485_driver.o(.data)
    .data                                    0x20000048   Section      284  dev_driver.o(.data)
    softtimer                                0x20000150   Data          20  dev_driver.o(.data)
    .data                                    0x20000164   Section       18  rtc_driver.o(.data)
    .data                                    0x20000178   Section       16  measure_driver.o(.data)
    .data                                    0x20000188   Section      168  fault_alarm_app.o(.data)
    remain_alarm_value                       0x20000188   Data           4  fault_alarm_app.o(.data)
    other_report_softtimer_task              0x200001f0   Data          20  fault_alarm_app.o(.data)
    prev_remain_level                        0x20000204   Data           1  fault_alarm_app.o(.data)
    main_power_err_handle_softtimer_task     0x20000208   Data          20  fault_alarm_app.o(.data)
    signal_line_err_handle_softtimer_task    0x2000021c   Data          20  fault_alarm_app.o(.data)
    .data                                    0x20000230   Section        8  measure_app.o(.data)
    Flow_Metered_acc_impulse                 0x20000230   Data           8  measure_app.o(.data)
    .data                                    0x20000238   Section       24  rtc_app.o(.data)
    cur_collect_num                          0x20000238   Data           2  rtc_app.o(.data)
    cur_report_num                           0x2000023a   Data           2  rtc_app.o(.data)
    hour_lock_flag                           0x20000240   Data           2  rtc_app.o(.data)
    day_lock_flag                            0x20000242   Data           2  rtc_app.o(.data)
    fault_lock_flag                          0x20000244   Data           2  rtc_app.o(.data)
    collect_lock_flag                        0x20000246   Data           2  rtc_app.o(.data)
    report_lock_flag                         0x20000248   Data           2  rtc_app.o(.data)
    measure_save_lock_flag                   0x2000024a   Data           2  rtc_app.o(.data)
    adc_time                                 0x2000024c   Data           4  rtc_app.o(.data)
    .data                                    0x20000250   Section       56  key_app.o(.data)
    key_soft_timer_task                      0x20000274   Data          20  key_app.o(.data)
    .data                                    0x20000288   Section       84  lcd_app.o(.data)
    .data                                    0x200002dc   Section      872  lcd_data.o(.data)
    .data                                    0x20000644   Section      248  lcd_adapter.o(.data)
    .data                                    0x2000073c   Section       12  modbus_app.o(.data)
    .data                                    0x20000748   Section       64  valve_app.o(.data)
    valve_NoInPalce_soft_timer_task          0x20000760   Data          20  valve_app.o(.data)
    valve_soft_timer_task                    0x20000774   Data          20  valve_app.o(.data)
    .data                                    0x20000788   Section       68  voltagedetection_app.o(.data)
    voltage_soft_timer_task                  0x200007a4   Data          20  voltagedetection_app.o(.data)
    soft_timer_task                          0x200007b8   Data          20  voltagedetection_app.o(.data)
    .data                                    0x200007cc   Section      513  aes_128.o(.data)
    .data                                    0x200009d0   Section      388  wireless_app.o(.data)
    at_fsm_list                              0x200009e8   Data         220  wireless_app.o(.data)
    open_port_count                          0x20000ac4   Data           1  wireless_app.o(.data)
    wireless_handle_soft_timer_task          0x20000ac8   Data          20  wireless_app.o(.data)
    wireless_soft_timer_task                 0x20000adc   Data          20  wireless_app.o(.data)
    wireless_receive_timeout_soft_timer_task 0x20000af0   Data          20  wireless_app.o(.data)
    wireless_start_soft_timer_task           0x20000b04   Data          20  wireless_app.o(.data)
    pwrkey_on_soft_timer_task                0x20000b18   Data          20  wireless_app.o(.data)
    pwrkey_off_soft_timer_task               0x20000b2c   Data          20  wireless_app.o(.data)
    softtimer                                0x20000b40   Data          20  wireless_app.o(.data)
    .data                                    0x20000b54   Section        5  protocol_huarun_app.o(.data)
    pules_flag                               0x20000b58   Data           1  protocol_huarun_app.o(.data)
    .data                                    0x20000b5c   Section       36  host_communicate_app.o(.data)
    key_soft_timer_task                      0x20000b6c   Data          20  host_communicate_app.o(.data)
    .data                                    0x20000b80   Section       44  dev_zennera_app.o(.data)
    error_count                              0x20000b94   Data           1  dev_zennera_app.o(.data)
    protocol_zennera_cmd1_handle_softtimer_task 0x20000b98   Data          20  dev_zennera_app.o(.data)
    .data                                    0x20000bac   Section       28  dev_zennerb_app.o(.data)
    error_count                              0x20000bb2   Data           1  dev_zennerb_app.o(.data)
    zennerb_soft_timer_task                  0x20000bb4   Data          20  dev_zennerb_app.o(.data)
    .data                                    0x20000bc8   Section      540  dev_cangnan1_app.o(.data)
    auchCRCHi                                0x20000bc8   Data         256  dev_cangnan1_app.o(.data)
    auchCRCLo                                0x20000cc8   Data         256  dev_cangnan1_app.o(.data)
    rs485_err_num                            0x20000dcc   Data           1  dev_cangnan1_app.o(.data)
    protocol_cangnan_cmd1_handle_softtimer_task 0x20000dd0   Data          20  dev_cangnan1_app.o(.data)
    .data                                    0x20000de4   Section      540  dev_cangnan2_app.o(.data)
    auchCRCHi                                0x20000de4   Data         256  dev_cangnan2_app.o(.data)
    auchCRCLo                                0x20000ee4   Data         256  dev_cangnan2_app.o(.data)
    rs485_err_num                            0x20000fe8   Data           1  dev_cangnan2_app.o(.data)
    protocol_cangnan_cmd1_handle_softtimer_task 0x20000fec   Data          20  dev_cangnan2_app.o(.data)
    .data                                    0x20001000   Section       40  dev_tianxinv13_app.o(.data)
    soft_timer_task                          0x20001014   Data          20  dev_tianxinv13_app.o(.data)
    .data                                    0x20001028   Section       28  dev_tianxina3_app.o(.data)
    soft_timer_task                          0x20001030   Data          20  dev_tianxina3_app.o(.data)
    .data                                    0x20001044   Section       28  dev_tianxina4_app.o(.data)
    soft_timer_task                          0x2000104c   Data          20  dev_tianxina4_app.o(.data)
    .data                                    0x20001060   Section       60  dev_elster_app.o(.data)
    elster2_soft_timer_task                  0x20001060   Data          20  dev_elster_app.o(.data)
    elster1_soft_timer_task                  0x20001074   Data          20  dev_elster_app.o(.data)
    elster0_soft_timer_task                  0x20001088   Data          20  dev_elster_app.o(.data)
    .data                                    0x2000109c   Section       68  dev_yushun_app.o(.data)
    rs485_err_num                            0x200010a0   Data           1  dev_yushun_app.o(.data)
    protocol_yushun_cmd1_handle_softtimer2_task 0x200010a4   Data          20  dev_yushun_app.o(.data)
    protocol_yushun_cmd1_handle_softtimer1_task 0x200010b8   Data          20  dev_yushun_app.o(.data)
    protocol_yushun_cmd1_handle_softtimer_task 0x200010cc   Data          20  dev_yushun_app.o(.data)
    .data                                    0x200010e0   Section       44  dev_htdl_app.o(.data)
    rs485_err_num                            0x200010e3   Data           1  dev_htdl_app.o(.data)
    protocol_htdl_cmd1_handle_softtimer_task 0x200010e4   Data          20  dev_htdl_app.o(.data)
    protocol_htdl_cmd2_handle_softtimer_task 0x200010f8   Data          20  dev_htdl_app.o(.data)
    .data                                    0x2000110c   Section       28  dev_aizhi_app.o(.data)
    rs485_err_num                            0x20001110   Data           1  dev_aizhi_app.o(.data)
    protocol_aizhi_cmd1_handle_softtimer_task 0x20001114   Data          20  dev_aizhi_app.o(.data)
    .data                                    0x20001128   Section       48  dev_lmt1_app.o(.data)
    rs485_err_num                            0x2000112e   Data           1  dev_lmt1_app.o(.data)
    protocol_aizhi_cmd1_handle_softtimer_task 0x20001130   Data          20  dev_lmt1_app.o(.data)
    protocol_aizhi_cmd2_handle_softtimer_task 0x20001144   Data          20  dev_lmt1_app.o(.data)
    .data                                    0x20001158   Section       28  dev_lmt2_app.o(.data)
    rs485_err_num                            0x2000115c   Data           1  dev_lmt2_app.o(.data)
    protocol_lmt2_cmd1_handle_softtimer_task 0x20001160   Data          20  dev_lmt2_app.o(.data)
    .data                                    0x20001174   Section       24  dev_lunci_app.o(.data)
    rs485_err_num                            0x20001174   Data           1  dev_lunci_app.o(.data)
    softtimer                                0x20001178   Data          20  dev_lunci_app.o(.data)
    .data                                    0x2000118c   Section       28  meter_init.o(.data)
    uart4_data_rx_complete                   0x2000119c   Data           1  meter_init.o(.data)
    tick                                     0x200011a0   Data           4  meter_init.o(.data)
    a                                        0x200011a4   Data           4  meter_init.o(.data)
    .data                                    0x200011a8   Section       12  soft_timer.o(.data)
    timer_list                               0x200011a8   Data           8  soft_timer.o(.data)
    .data                                    0x200011b4   Section        8  task.o(.data)
    task_list                                0x200011b4   Data           8  task.o(.data)
    .data                                    0x200011bc   Section        2  delay.o(.data)
    fac_us                                   0x200011bc   Data           2  delay.o(.data)
    .data                                    0x200011c0   Section        4  mvars.o(.data)
    .data                                    0x200011c4   Section        4  mvars.o(.data)
    .data                                    0x200011c8   Section        4  errno.o(.data)
    _errno                                   0x200011c8   Data           4  errno.o(.data)
    .bss                                     0x200011cc   Section       76  eeprom_driver.o(.bss)
    .bss                                     0x20001218   Section     1290  rs485_driver.o(.bss)
    .bss                                     0x20001724   Section       24  dev_driver.o(.bss)
    .bss                                     0x2000173c   Section      100  rtc_driver.o(.bss)
    .bss                                     0x200017a0   Section      104  voltagedetection_driver.o(.bss)
    .bss                                     0x20001808   Section      160  wireless_driver.o(.bss)
    .bss                                     0x200018a8   Section       49  fault_alarm_app.o(.bss)
    tempremain                               0x200018c0   Data          25  fault_alarm_app.o(.bss)
    .bss                                     0x200018dc   Section       24  expense_control_app.o(.bss)
    .bss                                     0x200018f4   Section       24  measure_app.o(.bss)
    .bss                                     0x2000190c   Section       72  rtc_app.o(.bss)
    .bss                                     0x20001954   Section       41  lcd_app.o(.bss)
    .bss                                     0x20001980   Section       56  valve_app.o(.bss)
    .bss                                     0x200019b8   Section       24  voltagedetection_app.o(.bss)
    .bss                                     0x200019d0   Section      276  aes_128.o(.bss)
    .bss                                     0x20001ae4   Section     2048  wireless_app.o(.bss)
    .bss                                     0x200022e4   Section      259  protocol_huarun_app.o(.bss)
    .bss                                     0x200023e7   Section      512  host_communicate_app.o(.bss)
    .bss                                     0x200025e8   Section       24  test.o(.bss)
    .bss                                     0x20002600   Section      184  dev_zennera_app.o(.bss)
    .bss                                     0x200026b8   Section      160  dev_zennerb_app.o(.bss)
    .bss                                     0x20002758   Section       32  dev_cangnan1_app.o(.bss)
    .bss                                     0x20002778   Section       40  dev_cangnan2_app.o(.bss)
    .bss                                     0x200027a0   Section       32  dev_yushun_app.o(.bss)
    .bss                                     0x200027c0   Section       40  dev_htdl_app.o(.bss)
    .bss                                     0x200027e8   Section       32  dev_aizhi_app.o(.bss)
    .bss                                     0x20002808   Section       48  dev_lmt1_app.o(.bss)
    .bss                                     0x20002838   Section       32  dev_lmt2_app.o(.bss)
    .bss                                     0x20002858   Section      792  meter_init.o(.bss)
    .bss                                     0x20002b70   Section     4100  public_ram.o(.bss)
    .bss                                     0x20003b74   Section       24  soft_timer.o(.bss)
    st_task                                  0x20003b74   Data          24  soft_timer.o(.bss)
    HEAP                                     0x20003b90   Section     1280  startup_stm32l476xx.o(HEAP)
    STACK                                    0x20004090   Section     4096  startup_stm32l476xx.o(STACK)

    Global Symbols

    Symbol Name                              Value     Ov Type        Size  Object(Section)

    BuildAttributes$$THM_ISAv4$E$P$D$K$B$S$7EM$VFPi3$EXTD16$VFPS$VFMA$PE$A:L22UL41UL21$X:L11$S22US41US21$IEEE1$IW$USESV6$~STKCKD$USESV7$~SHL$OTIME$ROPI$IEEEX$EBA8$MICROLIB$REQ8$PRES8$EABIv2 0x00000000   Number         0  anon$$obj.o ABSOLUTE
    __ARM_use_no_argv                        0x00000000   Number         0  main.o ABSOLUTE
    _printf_a                                0x00000000   Number         0  stubs.o ABSOLUTE
    _printf_c                                0x00000000   Number         0  stubs.o ABSOLUTE
    _printf_charcount                        0x00000000   Number         0  stubs.o ABSOLUTE
    _printf_d                                0x00000000   Number         0  stubs.o ABSOLUTE
    _printf_e                                0x00000000   Number         0  stubs.o ABSOLUTE
    _printf_f                                0x00000000   Number         0  stubs.o ABSOLUTE
    _printf_flags                            0x00000000   Number         0  stubs.o ABSOLUTE
    _printf_fp_dec                           0x00000000   Number         0  stubs.o ABSOLUTE
    _printf_fp_hex                           0x00000000   Number         0  stubs.o ABSOLUTE
    _printf_g                                0x00000000   Number         0  stubs.o ABSOLUTE
    _printf_i                                0x00000000   Number         0  stubs.o ABSOLUTE
    _printf_int_dec                          0x00000000   Number         0  stubs.o ABSOLUTE
    _printf_l                                0x00000000   Number         0  stubs.o ABSOLUTE
    _printf_lc                               0x00000000   Number         0  stubs.o ABSOLUTE
    _printf_ll                               0x00000000   Number         0  stubs.o ABSOLUTE
    _printf_lld                              0x00000000   Number         0  stubs.o ABSOLUTE
    _printf_lli                              0x00000000   Number         0  stubs.o ABSOLUTE
    _printf_llo                              0x00000000   Number         0  stubs.o ABSOLUTE
    _printf_llu                              0x00000000   Number         0  stubs.o ABSOLUTE
    _printf_llx                              0x00000000   Number         0  stubs.o ABSOLUTE
    _printf_longlong_dec                     0x00000000   Number         0  stubs.o ABSOLUTE
    _printf_longlong_hex                     0x00000000   Number         0  stubs.o ABSOLUTE
    _printf_longlong_oct                     0x00000000   Number         0  stubs.o ABSOLUTE
    _printf_ls                               0x00000000   Number         0  stubs.o ABSOLUTE
    _printf_mbtowc                           0x00000000   Number         0  stubs.o ABSOLUTE
    _printf_n                                0x00000000   Number         0  stubs.o ABSOLUTE
    _printf_o                                0x00000000   Number         0  stubs.o ABSOLUTE
    _printf_p                                0x00000000   Number         0  stubs.o ABSOLUTE
    _printf_percent                          0x00000000   Number         0  stubs.o ABSOLUTE
    _printf_pre_padding                      0x00000000   Number         0  stubs.o ABSOLUTE
    _printf_return_value                     0x00000000   Number         0  stubs.o ABSOLUTE
    _printf_s                                0x00000000   Number         0  stubs.o ABSOLUTE
    _printf_sizespec                         0x00000000   Number         0  stubs.o ABSOLUTE
    _printf_str                              0x00000000   Number         0  stubs.o ABSOLUTE
    _printf_truncate_signed                  0x00000000   Number         0  stubs.o ABSOLUTE
    _printf_truncate_unsigned                0x00000000   Number         0  stubs.o ABSOLUTE
    _printf_u                                0x00000000   Number         0  stubs.o ABSOLUTE
    _printf_wc                               0x00000000   Number         0  stubs.o ABSOLUTE
    _printf_wctomb                           0x00000000   Number         0  stubs.o ABSOLUTE
    _printf_widthprec                        0x00000000   Number         0  stubs.o ABSOLUTE
    _printf_x                                0x00000000   Number         0  stubs.o ABSOLUTE
    __arm_fini_                               - Undefined Weak Reference
    __cpp_initialize__aeabi_                  - Undefined Weak Reference
    __cxa_finalize                            - Undefined Weak Reference
    _clock_init                               - Undefined Weak Reference
    _microlib_exit                            - Undefined Weak Reference
    _scanf_longlong                           - Undefined Weak Reference
    _scanf_real                               - Undefined Weak Reference
    _scanf_string                             - Undefined Weak Reference
    __Vectors_Size                           0x00000188   Number         0  startup_stm32l476xx.o ABSOLUTE
    __Vectors                                0x08010000   Data           4  startup_stm32l476xx.o(RESET)
    __Vectors_End                            0x08010188   Data           0  startup_stm32l476xx.o(RESET)
    __main                                   0x08010189   Thumb Code     0  entry.o(.ARM.Collect$$$$00000000)
    _main_stk                                0x08010189   Thumb Code     0  entry2.o(.ARM.Collect$$$$00000001)
    _main_scatterload                        0x0801018d   Thumb Code     0  entry5.o(.ARM.Collect$$$$00000004)
    __main_after_scatterload                 0x08010191   Thumb Code     0  entry5.o(.ARM.Collect$$$$00000004)
    _main_clock                              0x08010191   Thumb Code     0  entry7b.o(.ARM.Collect$$$$00000008)
    _main_cpp_init                           0x08010191   Thumb Code     0  entry8b.o(.ARM.Collect$$$$0000000A)
    _main_init                               0x08010191   Thumb Code     0  entry9a.o(.ARM.Collect$$$$0000000B)
    __rt_lib_shutdown_fini                   0x08010199   Thumb Code     0  entry12b.o(.ARM.Collect$$$$0000000E)
    __rt_final_cpp                           0x0801019d   Thumb Code     0  entry10a.o(.ARM.Collect$$$$0000000F)
    __rt_final_exit                          0x0801019d   Thumb Code     0  entry11a.o(.ARM.Collect$$$$00000011)
    Reset_Handler                            0x080101a1   Thumb Code     8  startup_stm32l476xx.o(.text)
    ADC1_2_IRQHandler                        0x080101bb   Thumb Code     0  startup_stm32l476xx.o(.text)
    ADC3_IRQHandler                          0x080101bb   Thumb Code     0  startup_stm32l476xx.o(.text)
    CAN1_RX0_IRQHandler                      0x080101bb   Thumb Code     0  startup_stm32l476xx.o(.text)
    CAN1_RX1_IRQHandler                      0x080101bb   Thumb Code     0  startup_stm32l476xx.o(.text)
    CAN1_SCE_IRQHandler                      0x080101bb   Thumb Code     0  startup_stm32l476xx.o(.text)
    CAN1_TX_IRQHandler                       0x080101bb   Thumb Code     0  startup_stm32l476xx.o(.text)
    COMP_IRQHandler                          0x080101bb   Thumb Code     0  startup_stm32l476xx.o(.text)
    DFSDM1_FLT0_IRQHandler                   0x080101bb   Thumb Code     0  startup_stm32l476xx.o(.text)
    DFSDM1_FLT1_IRQHandler                   0x080101bb   Thumb Code     0  startup_stm32l476xx.o(.text)
    DFSDM1_FLT2_IRQHandler                   0x080101bb   Thumb Code     0  startup_stm32l476xx.o(.text)
    DFSDM1_FLT3_IRQHandler                   0x080101bb   Thumb Code     0  startup_stm32l476xx.o(.text)
    DMA1_Channel1_IRQHandler                 0x080101bb   Thumb Code     0  startup_stm32l476xx.o(.text)
    DMA1_Channel2_IRQHandler                 0x080101bb   Thumb Code     0  startup_stm32l476xx.o(.text)
    DMA1_Channel3_IRQHandler                 0x080101bb   Thumb Code     0  startup_stm32l476xx.o(.text)
    DMA1_Channel4_IRQHandler                 0x080101bb   Thumb Code     0  startup_stm32l476xx.o(.text)
    DMA1_Channel5_IRQHandler                 0x080101bb   Thumb Code     0  startup_stm32l476xx.o(.text)
    DMA1_Channel6_IRQHandler                 0x080101bb   Thumb Code     0  startup_stm32l476xx.o(.text)
    DMA1_Channel7_IRQHandler                 0x080101bb   Thumb Code     0  startup_stm32l476xx.o(.text)
    DMA2_Channel1_IRQHandler                 0x080101bb   Thumb Code     0  startup_stm32l476xx.o(.text)
    DMA2_Channel2_IRQHandler                 0x080101bb   Thumb Code     0  startup_stm32l476xx.o(.text)
    DMA2_Channel3_IRQHandler                 0x080101bb   Thumb Code     0  startup_stm32l476xx.o(.text)
    DMA2_Channel4_IRQHandler                 0x080101bb   Thumb Code     0  startup_stm32l476xx.o(.text)
    DMA2_Channel5_IRQHandler                 0x080101bb   Thumb Code     0  startup_stm32l476xx.o(.text)
    DMA2_Channel6_IRQHandler                 0x080101bb   Thumb Code     0  startup_stm32l476xx.o(.text)
    DMA2_Channel7_IRQHandler                 0x080101bb   Thumb Code     0  startup_stm32l476xx.o(.text)
    FLASH_IRQHandler                         0x080101bb   Thumb Code     0  startup_stm32l476xx.o(.text)
    FMC_IRQHandler                           0x080101bb   Thumb Code     0  startup_stm32l476xx.o(.text)
    FPU_IRQHandler                           0x080101bb   Thumb Code     0  startup_stm32l476xx.o(.text)
    I2C1_ER_IRQHandler                       0x080101bb   Thumb Code     0  startup_stm32l476xx.o(.text)
    I2C1_EV_IRQHandler                       0x080101bb   Thumb Code     0  startup_stm32l476xx.o(.text)
    I2C2_ER_IRQHandler                       0x080101bb   Thumb Code     0  startup_stm32l476xx.o(.text)
    I2C2_EV_IRQHandler                       0x080101bb   Thumb Code     0  startup_stm32l476xx.o(.text)
    I2C3_ER_IRQHandler                       0x080101bb   Thumb Code     0  startup_stm32l476xx.o(.text)
    I2C3_EV_IRQHandler                       0x080101bb   Thumb Code     0  startup_stm32l476xx.o(.text)
    LCD_IRQHandler                           0x080101bb   Thumb Code     0  startup_stm32l476xx.o(.text)
    LPTIM1_IRQHandler                        0x080101bb   Thumb Code     0  startup_stm32l476xx.o(.text)
    LPTIM2_IRQHandler                        0x080101bb   Thumb Code     0  startup_stm32l476xx.o(.text)
    LPUART1_IRQHandler                       0x080101bb   Thumb Code     0  startup_stm32l476xx.o(.text)
    OTG_FS_IRQHandler                        0x080101bb   Thumb Code     0  startup_stm32l476xx.o(.text)
    PVD_PVM_IRQHandler                       0x080101bb   Thumb Code     0  startup_stm32l476xx.o(.text)
    QUADSPI_IRQHandler                       0x080101bb   Thumb Code     0  startup_stm32l476xx.o(.text)
    RCC_IRQHandler                           0x080101bb   Thumb Code     0  startup_stm32l476xx.o(.text)
    RNG_IRQHandler                           0x080101bb   Thumb Code     0  startup_stm32l476xx.o(.text)
    SAI1_IRQHandler                          0x080101bb   Thumb Code     0  startup_stm32l476xx.o(.text)
    SAI2_IRQHandler                          0x080101bb   Thumb Code     0  startup_stm32l476xx.o(.text)
    SDMMC1_IRQHandler                        0x080101bb   Thumb Code     0  startup_stm32l476xx.o(.text)
    SPI1_IRQHandler                          0x080101bb   Thumb Code     0  startup_stm32l476xx.o(.text)
    SPI2_IRQHandler                          0x080101bb   Thumb Code     0  startup_stm32l476xx.o(.text)
    SPI3_IRQHandler                          0x080101bb   Thumb Code     0  startup_stm32l476xx.o(.text)
    SWPMI1_IRQHandler                        0x080101bb   Thumb Code     0  startup_stm32l476xx.o(.text)
    TAMP_STAMP_IRQHandler                    0x080101bb   Thumb Code     0  startup_stm32l476xx.o(.text)
    TIM1_BRK_TIM15_IRQHandler                0x080101bb   Thumb Code     0  startup_stm32l476xx.o(.text)
    TIM1_CC_IRQHandler                       0x080101bb   Thumb Code     0  startup_stm32l476xx.o(.text)
    TIM1_TRG_COM_TIM17_IRQHandler            0x080101bb   Thumb Code     0  startup_stm32l476xx.o(.text)
    TIM1_UP_TIM16_IRQHandler                 0x080101bb   Thumb Code     0  startup_stm32l476xx.o(.text)
    TIM2_IRQHandler                          0x080101bb   Thumb Code     0  startup_stm32l476xx.o(.text)
    TIM3_IRQHandler                          0x080101bb   Thumb Code     0  startup_stm32l476xx.o(.text)
    TIM4_IRQHandler                          0x080101bb   Thumb Code     0  startup_stm32l476xx.o(.text)
    TIM5_IRQHandler                          0x080101bb   Thumb Code     0  startup_stm32l476xx.o(.text)
    TIM6_DAC_IRQHandler                      0x080101bb   Thumb Code     0  startup_stm32l476xx.o(.text)
    TIM7_IRQHandler                          0x080101bb   Thumb Code     0  startup_stm32l476xx.o(.text)
    TIM8_BRK_IRQHandler                      0x080101bb   Thumb Code     0  startup_stm32l476xx.o(.text)
    TIM8_CC_IRQHandler                       0x080101bb   Thumb Code     0  startup_stm32l476xx.o(.text)
    TIM8_TRG_COM_IRQHandler                  0x080101bb   Thumb Code     0  startup_stm32l476xx.o(.text)
    TIM8_UP_IRQHandler                       0x080101bb   Thumb Code     0  startup_stm32l476xx.o(.text)
    TSC_IRQHandler                           0x080101bb   Thumb Code     0  startup_stm32l476xx.o(.text)
    UART5_IRQHandler                         0x080101bb   Thumb Code     0  startup_stm32l476xx.o(.text)
    USART2_IRQHandler                        0x080101bb   Thumb Code     0  startup_stm32l476xx.o(.text)
    WWDG_IRQHandler                          0x080101bb   Thumb Code     0  startup_stm32l476xx.o(.text)
    __aeabi_uldivmod                         0x080101c5   Thumb Code    98  uldiv.o(.text)
    __aeabi_memcpy                           0x0801022d   Thumb Code    36  memcpya.o(.text)
    __aeabi_memcpy4                          0x0801022d   Thumb Code     0  memcpya.o(.text)
    __aeabi_memcpy8                          0x0801022d   Thumb Code     0  memcpya.o(.text)
    __aeabi_memset                           0x08010251   Thumb Code    14  memseta.o(.text)
    __aeabi_memset4                          0x08010251   Thumb Code     0  memseta.o(.text)
    __aeabi_memset8                          0x08010251   Thumb Code     0  memseta.o(.text)
    __aeabi_memclr                           0x0801025f   Thumb Code     4  memseta.o(.text)
    __aeabi_memclr4                          0x0801025f   Thumb Code     0  memseta.o(.text)
    __aeabi_memclr8                          0x0801025f   Thumb Code     0  memseta.o(.text)
    _memset$wrapper                          0x08010263   Thumb Code    18  memseta.o(.text)
    strstr                                   0x08010275   Thumb Code    36  strstr.o(.text)
    strncpy                                  0x08010299   Thumb Code    24  strncpy.o(.text)
    strlen                                   0x080102b1   Thumb Code    14  strlen.o(.text)
    strcpy                                   0x080102bf   Thumb Code    18  strcpy.o(.text)
    __0sscanf                                0x080102d1   Thumb Code    48  __0sscanf.o(.text)
    _scanf_int                               0x08010309   Thumb Code   332  _scanf_int.o(.text)
    __aeabi_dadd                             0x0801045b   Thumb Code   322  dadd.o(.text)
    __aeabi_dsub                             0x0801059d   Thumb Code     6  dadd.o(.text)
    __aeabi_drsub                            0x080105a3   Thumb Code     6  dadd.o(.text)
    __aeabi_dmul                             0x080105b9   Thumb Code   228  dmul.o(.text)
    __aeabi_ddiv                             0x080106a3   Thumb Code   222  ddiv.o(.text)
    __aeabi_i2d                              0x08010781   Thumb Code    34  dflti.o(.text)
    __aeabi_ui2d                             0x080107a3   Thumb Code    26  dfltui.o(.text)
    __aeabi_ul2d                             0x080107bd   Thumb Code    24  dfltul.o(.text)
    __aeabi_d2iz                             0x080107d5   Thumb Code    62  dfixi.o(.text)
    __aeabi_d2uiz                            0x08010813   Thumb Code    50  dfixui.o(.text)
    __aeabi_d2ulz                            0x08010845   Thumb Code    48  dfixul.o(.text)
    __aeabi_f2d                              0x08010875   Thumb Code    38  f2d.o(.text)
    __aeabi_cdcmpeq                          0x0801089d   Thumb Code     0  cdcmple.o(.text)
    __aeabi_cdcmple                          0x0801089d   Thumb Code    48  cdcmple.o(.text)
    __aeabi_cdrcmple                         0x080108cd   Thumb Code    48  cdrcmple.o(.text)
    __aeabi_d2f                              0x080108fd   Thumb Code    56  d2f.o(.text)
    __aeabi_uidiv                            0x08010935   Thumb Code     0  uidiv.o(.text)
    __aeabi_uidivmod                         0x08010935   Thumb Code    44  uidiv.o(.text)
    __aeabi_llsl                             0x08010961   Thumb Code    30  llshl.o(.text)
    _ll_shift_l                              0x08010961   Thumb Code     0  llshl.o(.text)
    __aeabi_llsr                             0x0801097f   Thumb Code    32  llushr.o(.text)
    _ll_ushift_r                             0x0801097f   Thumb Code     0  llushr.o(.text)
    __aeabi_lasr                             0x0801099f   Thumb Code    36  llsshr.o(.text)
    _ll_sshift_r                             0x0801099f   Thumb Code     0  llsshr.o(.text)
    _chval                                   0x080109c3   Thumb Code    28  _chval.o(.text)
    __vfscanf_char                           0x080109ed   Thumb Code    20  scanf_char.o(.text)
    _sgetc                                   0x08010a09   Thumb Code    30  _sgetc.o(.text)
    _sbackspace                              0x08010a27   Thumb Code    34  _sgetc.o(.text)
    __I$use$fp                               0x08010a49   Thumb Code     0  iusefp.o(.text)
    _float_round                             0x08010a49   Thumb Code    18  fepilogue.o(.text)
    _float_epilogue                          0x08010a5b   Thumb Code    92  fepilogue.o(.text)
    _frnd                                    0x08010ab7   Thumb Code    60  frnd.o(.text)
    _double_round                            0x08010af3   Thumb Code    30  depilogue.o(.text)
    _double_epilogue                         0x08010b11   Thumb Code   156  depilogue.o(.text)
    __ARM_scalbn                             0x08010bad   Thumb Code    46  dscalb.o(.text)
    scalbn                                   0x08010bad   Thumb Code     0  dscalb.o(.text)
    _drnd                                    0x08010bdd   Thumb Code   132  drnd.o(.text)
    __scatterload                            0x08010c65   Thumb Code    28  init.o(.text)
    __scatterload_rt2                        0x08010c65   Thumb Code     0  init.o(.text)
    isspace                                  0x08010c89   Thumb Code    10  isspace_c.o(.text)
    __vfscanf                                0x08010c95   Thumb Code   810  _scanf.o(.text)
    _dsqrt                                   0x08010fcb   Thumb Code   162  dsqrt.o(.text)
    __ctype_lookup                           0x0801106d   Thumb Code    34  ctype_c.o(.text)
    __decompress                             0x08011095   Thumb Code     0  __dclz77c.o(.text)
    __decompress2                            0x08011095   Thumb Code    94  __dclz77c.o(.text)
    ADC_Disable                              0x080110f5   Thumb Code   152  stm32l4xx_hal_adc.o(i.ADC_Disable)
    ADC_Enable                               0x08011191   Thumb Code   188  stm32l4xx_hal_adc.o(i.ADC_Enable)
    ADC_init                                 0x08011259   Thumb Code    66  voltagedetection_driver.o(i.ADC_init)
    ASIC2BCD                                 0x080112a5   Thumb Code    84  public_function.o(i.ASIC2BCD)
    AT24CXX_Read                             0x080112f9   Thumb Code    80  eeprom_driver.o(i.AT24CXX_Read)
    AT24CXX_ReadOneByte                      0x0801134d   Thumb Code    36  eeprom_driver.o(i.AT24CXX_ReadOneByte)
    AT24CXX_Write                            0x08011375   Thumb Code    86  eeprom_driver.o(i.AT24CXX_Write)
    AT24CXX_WriteOneByte                     0x080113d1   Thumb Code    46  eeprom_driver.o(i.AT24CXX_WriteOneByte)
    AddRoundKey                              0x08011405   Thumb Code    48  aes_128.o(i.AddRoundKey)
    Answer_ReadData_ZennerB                  0x080117b5   Thumb Code   374  dev_zennerb_app.o(i.Answer_ReadData_ZennerB)
    BCD2ASIC                                 0x08011935   Thumb Code    56  public_function.o(i.BCD2ASIC)
    BCD_compress                             0x0801196d   Thumb Code    86  public_function.o(i.BCD_compress)
    BCD_decompress                           0x080119c3   Thumb Code    50  public_function.o(i.BCD_decompress)
    Bat_Value_Det                            0x080119f5   Thumb Code   150  voltagedetection_app.o(i.Bat_Value_Det)
    BusFault_Handler                         0x08011af1   Thumb Code     4  stm32l4xx_it.o(i.BusFault_Handler)
    Chk_Busy                                 0x08011af5   Thumb Code    86  lcd_driver.o(i.Chk_Busy)
    ConstructFrm                             0x08011bbd   Thumb Code    26  modbus_app.o(i.ConstructFrm)
    DebugMon_Handler                         0x08011bd7   Thumb Code     2  stm32l4xx_it.o(i.DebugMon_Handler)
    DelayInit                                0x08011bd9   Thumb Code    16  delay.o(i.DelayInit)
    DelayMs                                  0x08011bf5   Thumb Code    32  delay.o(i.DelayMs)
    DelayUs                                  0x08011c15   Thumb Code    68  delay.o(i.DelayUs)
    EXTI0_IRQHandler                         0x08011c5d   Thumb Code    10  meter_init.o(i.EXTI0_IRQHandler)
    EXTI15_10_IRQHandler                     0x08011c67   Thumb Code    12  meter_init.o(i.EXTI15_10_IRQHandler)
    EXTI1_IRQHandler                         0x08011c73   Thumb Code    10  meter_init.o(i.EXTI1_IRQHandler)
    EXTI2_IRQHandler                         0x08011c7d   Thumb Code    10  meter_init.o(i.EXTI2_IRQHandler)
    EXTI3_IRQHandler                         0x08011c87   Thumb Code    10  meter_init.o(i.EXTI3_IRQHandler)
    EXTI4_IRQHandler                         0x08011c91   Thumb Code    10  meter_init.o(i.EXTI4_IRQHandler)
    EXTI9_5_IRQHandler                       0x08011c9b   Thumb Code    22  meter_init.o(i.EXTI9_5_IRQHandler)
    Error_Handler                            0x08011cb1   Thumb Code     6  main.o(i.Error_Handler)
    FFmul                                    0x08011cb7   Thumb Code    88  aes_128.o(i.FFmul)
    FlowmeterData_Rxceive_Decode             0x08011d11   Thumb Code   284  dev_zennera_app.o(i.FlowmeterData_Rxceive_Decode)
    Get_Adc_Average                          0x08011e95   Thumb Code   170  voltagedetection_driver.o(i.Get_Adc_Average)
    HAL_ADCEx_Calibration_Start              0x08011f4d   Thumb Code   172  stm32l4xx_hal_adc_ex.o(i.HAL_ADCEx_Calibration_Start)
    HAL_ADC_ConfigChannel                    0x08011ff9   Thumb Code  1556  stm32l4xx_hal_adc.o(i.HAL_ADC_ConfigChannel)
    HAL_ADC_GetValue                         0x0801262d   Thumb Code     8  stm32l4xx_hal_adc.o(i.HAL_ADC_GetValue)
    HAL_ADC_Init                             0x08012635   Thumb Code   710  stm32l4xx_hal_adc.o(i.HAL_ADC_Init)
    HAL_ADC_MspInit                          0x0801291d   Thumb Code   206  voltagedetection_driver.o(i.HAL_ADC_MspInit)
    HAL_ADC_PollForConversion                0x080129f9   Thumb Code   396  stm32l4xx_hal_adc.o(i.HAL_ADC_PollForConversion)
    HAL_ADC_Start                            0x08012b95   Thumb Code   318  stm32l4xx_hal_adc.o(i.HAL_ADC_Start)
    HAL_DMA_Abort_IT                         0x08012ce1   Thumb Code    92  stm32l4xx_hal_dma.o(i.HAL_DMA_Abort_IT)
    HAL_GPIO_DeInit                          0x08012d3d   Thumb Code   296  stm32l4xx_hal_gpio.o(i.HAL_GPIO_DeInit)
    HAL_GPIO_EXTI_Callback                   0x08012e85   Thumb Code   260  meter_init.o(i.HAL_GPIO_EXTI_Callback)
    HAL_GPIO_EXTI_IRQHandler                 0x08012fad   Thumb Code    24  stm32l4xx_hal_gpio.o(i.HAL_GPIO_EXTI_IRQHandler)
    HAL_GPIO_Init                            0x08012fc9   Thumb Code   470  stm32l4xx_hal_gpio.o(i.HAL_GPIO_Init)
    HAL_GPIO_ReadPin                         0x080131c5   Thumb Code    16  stm32l4xx_hal_gpio.o(i.HAL_GPIO_ReadPin)
    HAL_GPIO_WritePin                        0x080131d5   Thumb Code    10  stm32l4xx_hal_gpio.o(i.HAL_GPIO_WritePin)
    HAL_GetTick                              0x080131e1   Thumb Code     6  stm32l4xx_hal.o(i.HAL_GetTick)
    HAL_I2CEx_ConfigAnalogFilter             0x080131ed   Thumb Code   106  stm32l4xx_hal_i2c_ex.o(i.HAL_I2CEx_ConfigAnalogFilter)
    HAL_I2CEx_ConfigDigitalFilter            0x08013257   Thumb Code   106  stm32l4xx_hal_i2c_ex.o(i.HAL_I2CEx_ConfigDigitalFilter)
    HAL_I2C_DeInit                           0x080132c1   Thumb Code    60  stm32l4xx_hal_i2c.o(i.HAL_I2C_DeInit)
    HAL_I2C_Init                             0x080132fd   Thumb Code   192  stm32l4xx_hal_i2c.o(i.HAL_I2C_Init)
    HAL_I2C_Mem_Read                         0x080133c1   Thumb Code   434  stm32l4xx_hal_i2c.o(i.HAL_I2C_Mem_Read)
    HAL_I2C_Mem_Write                        0x08013585   Thumb Code   436  stm32l4xx_hal_i2c.o(i.HAL_I2C_Mem_Write)
    HAL_I2C_MspDeInit                        0x08013745   Thumb Code    42  eeprom_driver.o(i.HAL_I2C_MspDeInit)
    HAL_I2C_MspInit                          0x0801377d   Thumb Code   138  eeprom_driver.o(i.HAL_I2C_MspInit)
    HAL_IWDG_Init                            0x08013815   Thumb Code   112  stm32l4xx_hal_iwdg.o(i.HAL_IWDG_Init)
    HAL_IWDG_Refresh                         0x08013885   Thumb Code    14  stm32l4xx_hal_iwdg.o(i.HAL_IWDG_Refresh)
    HAL_IncTick                              0x08013895   Thumb Code    16  stm32l4xx_hal.o(i.HAL_IncTick)
    HAL_Init                                 0x080138ad   Thumb Code    30  stm32l4xx_hal.o(i.HAL_Init)
    HAL_InitTick                             0x080138cd   Thumb Code    74  stm32l4xx_hal.o(i.HAL_InitTick)
    HAL_MspInit                              0x08013925   Thumb Code    58  stm32l4xx_hal_msp.o(i.HAL_MspInit)
    HAL_NVIC_DisableIRQ                      0x08013965   Thumb Code    62  stm32l4xx_hal_cortex.o(i.HAL_NVIC_DisableIRQ)
    HAL_NVIC_EnableIRQ                       0x080139a9   Thumb Code    40  stm32l4xx_hal_cortex.o(i.HAL_NVIC_EnableIRQ)
    HAL_NVIC_SetPriority                     0x080139d1   Thumb Code   124  stm32l4xx_hal_cortex.o(i.HAL_NVIC_SetPriority)
    HAL_NVIC_SetPriorityGrouping             0x08013a55   Thumb Code    32  stm32l4xx_hal_cortex.o(i.HAL_NVIC_SetPriorityGrouping)
    HAL_PWREx_ControlVoltageScaling          0x08013a7d   Thumb Code   128  stm32l4xx_hal_pwr_ex.o(i.HAL_PWREx_ControlVoltageScaling)
    HAL_PWREx_EnterSTOP2Mode                 0x08013b09   Thumb Code    54  stm32l4xx_hal_pwr_ex.o(i.HAL_PWREx_EnterSTOP2Mode)
    HAL_PWREx_GetVoltageRange                0x08013b49   Thumb Code    10  stm32l4xx_hal_pwr_ex.o(i.HAL_PWREx_GetVoltageRange)
    HAL_PWR_EnableBkUpAccess                 0x08013b59   Thumb Code    14  stm32l4xx_hal_pwr.o(i.HAL_PWR_EnableBkUpAccess)
    HAL_RCCEx_EnableMSIPLLMode               0x08013b6d   Thumb Code    14  stm32l4xx_hal_rcc_ex.o(i.HAL_RCCEx_EnableMSIPLLMode)
    HAL_RCCEx_PeriphCLKConfig                0x08013b81   Thumb Code  1230  stm32l4xx_hal_rcc_ex.o(i.HAL_RCCEx_PeriphCLKConfig)
    HAL_RCC_ClockConfig                      0x08014055   Thumb Code   414  stm32l4xx_hal_rcc.o(i.HAL_RCC_ClockConfig)
    HAL_RCC_GetHCLKFreq                      0x08014209   Thumb Code     6  stm32l4xx_hal_rcc.o(i.HAL_RCC_GetHCLKFreq)
    HAL_RCC_GetPCLK1Freq                     0x08014215   Thumb Code    26  stm32l4xx_hal_rcc.o(i.HAL_RCC_GetPCLK1Freq)
    HAL_RCC_GetPCLK2Freq                     0x08014239   Thumb Code    26  stm32l4xx_hal_rcc.o(i.HAL_RCC_GetPCLK2Freq)
    HAL_RCC_GetSysClockFreq                  0x0801425d   Thumb Code   220  stm32l4xx_hal_rcc.o(i.HAL_RCC_GetSysClockFreq)
    HAL_RCC_OscConfig                        0x08014349   Thumb Code  1750  stm32l4xx_hal_rcc.o(i.HAL_RCC_OscConfig)
    HAL_RTCEx_DeactivateWakeUpTimer          0x08014a31   Thumb Code   164  stm32l4xx_hal_rtc_ex.o(i.HAL_RTCEx_DeactivateWakeUpTimer)
    HAL_RTCEx_SetWakeUpTimer_IT              0x08014ad5   Thumb Code   256  stm32l4xx_hal_rtc_ex.o(i.HAL_RTCEx_SetWakeUpTimer_IT)
    HAL_RTCEx_WakeUpTimerEventCallback       0x08014bd9   Thumb Code    16  meter_init.o(i.HAL_RTCEx_WakeUpTimerEventCallback)
    HAL_RTCEx_WakeUpTimerIRQHandler          0x08014bed   Thumb Code    52  stm32l4xx_hal_rtc_ex.o(i.HAL_RTCEx_WakeUpTimerIRQHandler)
    HAL_RTC_GetDate                          0x08014c25   Thumb Code    70  stm32l4xx_hal_rtc.o(i.HAL_RTC_GetDate)
    HAL_RTC_GetTime                          0x08014c71   Thumb Code    86  stm32l4xx_hal_rtc.o(i.HAL_RTC_GetTime)
    HAL_RTC_Init                             0x08014ccd   Thumb Code   186  stm32l4xx_hal_rtc.o(i.HAL_RTC_Init)
    HAL_RTC_MspInit                          0x08014d8d   Thumb Code    96  rtc_driver.o(i.HAL_RTC_MspInit)
    HAL_RTC_SetAlarm_IT                      0x08014df5   Thumb Code   530  stm32l4xx_hal_rtc.o(i.HAL_RTC_SetAlarm_IT)
    HAL_RTC_SetDate                          0x0801500d   Thumb Code   198  stm32l4xx_hal_rtc.o(i.HAL_RTC_SetDate)
    HAL_RTC_SetTime                          0x080150d9   Thumb Code   244  stm32l4xx_hal_rtc.o(i.HAL_RTC_SetTime)
    HAL_RTC_WaitForSynchro                   0x080151d1   Thumb Code    50  stm32l4xx_hal_rtc.o(i.HAL_RTC_WaitForSynchro)
    HAL_SYSTICK_Config                       0x08015209   Thumb Code    52  stm32l4xx_hal_cortex.o(i.HAL_SYSTICK_Config)
    HAL_UARTEx_WakeupCallback                0x0801523d   Thumb Code     2  stm32l4xx_hal_uart_ex.o(i.HAL_UARTEx_WakeupCallback)
    HAL_UART_DeInit                          0x0801523f   Thumb Code    72  stm32l4xx_hal_uart.o(i.HAL_UART_DeInit)
    HAL_UART_ErrorCallback                   0x08015287   Thumb Code     2  stm32l4xx_hal_uart.o(i.HAL_UART_ErrorCallback)
    HAL_UART_IRQHandler                      0x08015289   Thumb Code   402  stm32l4xx_hal_uart.o(i.HAL_UART_IRQHandler)
    HAL_UART_Init                            0x08015421   Thumb Code   120  stm32l4xx_hal_uart.o(i.HAL_UART_Init)
    HAL_UART_MspDeInit                       0x08015499   Thumb Code   100  rs485_driver.o(i.HAL_UART_MspDeInit)
    HAL_UART_MspInit                         0x08015511   Thumb Code     2  stm32l4xx_hal_uart.o(i.HAL_UART_MspInit)
    HAL_UART_Receive                         0x08015513   Thumb Code   272  stm32l4xx_hal_uart.o(i.HAL_UART_Receive)
    HAL_UART_Receive_IT                      0x08015629   Thumb Code   214  stm32l4xx_hal_uart.o(i.HAL_UART_Receive_IT)
    HAL_UART_RxCpltCallback                  0x08015709   Thumb Code    34  meter_init.o(i.HAL_UART_RxCpltCallback)
    HAL_UART_Transmit                        0x0801573d   Thumb Code   200  stm32l4xx_hal_uart.o(i.HAL_UART_Transmit)
    HAL_UART_TxCpltCallback                  0x08015805   Thumb Code     2  stm32l4xx_hal_uart.o(i.HAL_UART_TxCpltCallback)
    HardFault_Handler                        0x08015807   Thumb Code     4  stm32l4xx_it.o(i.HardFault_Handler)
    InvMixColumns                            0x08015b79   Thumb Code   162  aes_128.o(i.InvMixColumns)
    InvShiftRows                             0x08015c21   Thumb Code    72  aes_128.o(i.InvShiftRows)
    InvSubBytes                              0x08015c69   Thumb Code    42  aes_128.o(i.InvSubBytes)
    KeyExpansion                             0x08015c99   Thumb Code   246  aes_128.o(i.KeyExpansion)
    LCD_ST7920_DataIO_Set_In                 0x08015da9   Thumb Code    36  lcd_driver.o(i.LCD_ST7920_DataIO_Set_In)
    LCD_ST7920_DataIO_Set_Out                0x08015dd1   Thumb Code    42  lcd_driver.o(i.LCD_ST7920_DataIO_Set_Out)
    LCD_ST7920_SetAddress                    0x08015e01   Thumb Code    76  lcd_driver.o(i.LCD_ST7920_SetAddress)
    LCD_ST7920_WriteCmd                      0x08015e4d   Thumb Code    88  lcd_driver.o(i.LCD_ST7920_WriteCmd)
    LCD_ST7920_WriteData                     0x08015ead   Thumb Code    86  lcd_driver.o(i.LCD_ST7920_WriteData)
    MX_GPIO_Init                             0x08015fd1   Thumb Code   304  gpio.o(i.MX_GPIO_Init)
    Measure_Rs485_Pulse_handle               0x08016119   Thumb Code   442  measure_app.o(i.Measure_Rs485_Pulse_handle)
    MemManage_Handler                        0x080162f5   Thumb Code     4  stm32l4xx_it.o(i.MemManage_Handler)
    MixColumns                               0x080162f9   Thumb Code   162  aes_128.o(i.MixColumns)
    ModBusCRC16                              0x080163a1   Thumb Code    50  public_function.o(i.ModBusCRC16)
    ModbusMasterCommandSend_03               0x080163d5   Thumb Code    74  modbus_app.o(i.ModbusMasterCommandSend_03)
    NMI_Handler                              0x08016429   Thumb Code     4  stm32l4xx_it.o(i.NMI_Handler)
    PendSV_Handler                           0x0801642d   Thumb Code     2  stm32l4xx_it.o(i.PendSV_Handler)
    RD_12v_CMD                               0x080167bd   Thumb Code    24  host_communicate_app.o(i.RD_12v_CMD)
    RD_12v_ack                               0x080167d9   Thumb Code    58  host_communicate_app.o(i.RD_12v_ack)
    RD_7v2_CMD                               0x08016819   Thumb Code    28  host_communicate_app.o(i.RD_7v2_CMD)
    RD_7v2_ack                               0x0801683d   Thumb Code    58  host_communicate_app.o(i.RD_7v2_ack)
    RTC_Alarm_IRQHandler                     0x0801687d   Thumb Code    40  meter_init.o(i.RTC_Alarm_IRQHandler)
    RTC_Bcd2ToByte                           0x080168b1   Thumb Code    20  stm32l4xx_hal_rtc.o(i.RTC_Bcd2ToByte)
    RTC_ByteToBcd2                           0x080168c5   Thumb Code    28  stm32l4xx_hal_rtc.o(i.RTC_ByteToBcd2)
