:020000040801F1
:1000000090500020A1010108296401080758010847
:10001000F5620108F11A01085D7601080000000090
:10002000000000000000000000000000996A0108C4
:10003000D71B0108000000002D640108116B0108A6
:10004000BB010108BB010108BB0101088D69010862
:10005000BB010108BB0101085D1C0108731C0108FC
:100060007D1C0108871C0108911C0108BB010108C7
:10007000BB010108BB010108BB010108BB0101086C
:10008000BB010108BB010108BB010108BB0101085C
:10009000BB010108BB010108BB0101089B1C010851
:1000A000BB010108BB010108BB010108BB0101083C
:1000B000BB010108BB010108BB010108BB0101082C
:1000C000BB010108BB010108BB010108BB0101081C
:1000D000BB0101082D740108BB0101085575010819
:1000E000671C01087D680108BB010108BB0101080C
:1000F000BB010108BB010108BB010108BB010108EC
:10010000BB010108BB010108BB010108BB010108DB
:10011000196C0108BB010108BB010108BB01010802
:10012000BB010108BB010108BB010108BB010108BB
:10013000BB010108BB010108BB010108BB010108AB
:10014000BB010108BB010108BB010108BB0101089B
:10015000BB010108BB010108BB010108BB0101088B
:10016000BB010108BB010108BB010108BB0101087B
:10017000BB010108BB010108BB0101080000000030
:10018000BB010108BB010108DFF810D000F06AFDD7
:10019000004800476D1E0208AFF300809050002019
:1001A0000648804706480047FEE7FEE7FEE7FEE711
:1001B000FEE7FEE7FEE7FEE7FEE7FEE7A96B0108C4
:1001C000890101082DE9F05F0546002092469B4613
:1001D00088460646814640241BE02846414647465D
:1001E000224600F0CCFB53465A46C01A914110D328
:1001F00011461846224600F0B3FB2D1A67EB0108A2
:100200004F4622460120002100F0AAFB17EB00090F
:100210004E41201EA4F10104DFDC484631462A4647
:10022000434600F000B830BCBDE8C09F40EA01037F
:100230009B0703D009E008C9121F08C0042AFAD29C
:1002400003E011F8013B00F8013B521EF9D2704760
:10025000D2B201E000F8012B491EFBD27047002208
:10026000F6E710B513460A4604461946FFF7F0FFB5
:10027000204610BD30B505462A460B4612F8010B44
:1002800013F8014B08B1A042F8D01CB1002802D0ED
:100290006D1CF1E7284630BD10B5044604E00B782C
:1002A00000F8013B03B1491C521EF8D2204610BD94
:1002B000421C10F8011B0029FBD1801A704703462D
:1002C00011F8012B00F8012B002AF9D118467047CC
:1002D0000FB400B58DB010A909900B9000914FF0AC
:1002E000FF300A9000200C900548069005480790C2
:1002F0006A4609A80F9900F079FB0DB05DF814FB70
:10030000090A0108270A01082DE9FF5F1D464FF081
:10031000FF3BD5E9014691465F464FF00008A969C9
:100320007F1C01988847296A824688470028F6D1B1
:10033000BAF1FF3F0CD024F4C064002E19DD600632
:1003400014D5BAF12B0F09D0BAF12D0F0ED103E05D
:10035000584604B000F07EB844F48064A9697F1C5C
:1003600001988847761E8246002E02DDBAF1300FD2
:1003700003D0B9F1000F26D032E0A969761E44F40B
:1003800000747F1C019888478246002E05DDBAF173
:10039000780F06D0BAF1580F03D0B9F1000F10D082
:1003A0001EE0B9F1000F02D0B9F1100F18D1A96900
:1003B000761E24F400747F1C019888478246102022
:1003C00002E0082000E00A20814609E008FB090855
:1003D000A969761E44F400747F1C01988847824600
:1003E000002E05DD4946504600F0EBFA0028EDDA14
:1003F000E96901988847A00502D46FF00100A8E7D9
:10040000E00725D1600613D5600502D5C8F10000CC
:1004100000E0404629680A1D2A600968220501D5C6
:10042000087015E0220701D5088011E008600FE090
:100430002868011D29600068210502D580F8008028
:1004400006E0210702D5A0F8008001E0C0F8008096
:1004500038467EE730BCBDE8C09F2DE9FE4F8046A0
:1004600081EA0300C00F0C46009021F0004123F008
:100470000045B8EB0200A94105D24046214690460E
:100480001C460B46024623F00040104347D0270D80
:10049000C7F30A00C3F30A510290401A01904028A2
:1004A0006BDAC3F3130040F4801B0098924620B12E
:1004B0000023D2EB030A63EB0B0B01985946C0F102
:1004C0004002504600F04CFA06460D46504659464A
:1004D000019A00F064FA10EB08006141002487EAF9
:1004E000115284EAE7731A4340D0009A62B3019A2A
:1004F000012A4FEA075215DC001B61EB02014FF0A5
:10050000004202EA0752CDE90042001C41F5801189
:1005100032462B4600F0FCFA03B000F045B84046E6
:100520002146F9E7001B61EB0201001C41F5801335
:1005300000185B412018A2F5001747EB030140EAC1
:10054000D570B6196D4111E06D084FEA360645EADF
:10055000C0754FEA0752001B61EB0201001C41F518
:10056000801149084FEA30000019514132462B46AC
:1005700003B000F01CB800F0BCBA009801224000A3
:100580000023D0EB020263EBE073009821464FEAB0
:10059000E074B8EB000061EB0401E9E783F000438D
:1005A0005BE781F0004158E730BCBDE8C08F30BC4C
:1005B000BDE8C04FFFF7DFBF2DE9FE4F81EA03041E
:1005C00004F0004421F0004100944FF0000B23F0B0
:1005D000004350EA01045ED052EA03045BD0C3F347
:1005E0000A54C1F30A552C44A4F2F3340194A0FB3D
:1005F0000254C1F3130141F48011C3F3130343F414
:10060000801301FB024400FB034E840A970A44EA6C
:10061000815447EA8357A4FB076802958D0A05FBBE
:1006200007854FEA932C04FB0C542705029D4FEAE3
:10063000065847EA1637B5EB08056EEB070C870E30
:10064000920E47EA811742EA8312A7FB0201B6EB3A
:100650000B0164EB00042B0D43EA0C335E1844EBF2
:100660001C50DA465146E7FB0201C5F313044FEA7A
:100670000B3343EA14534FEA0432019C43EA060366
:10068000A4F10C040294009CCDE900B400F040FAFF
:1006900003B000F003B800200146F9E730BCBDE824
:1006A000C08F2DE9F04D81EA030404F0004B21F0E6
:1006B000004514464FF0000A23F0004150EA0502BD
:1006C00020D054EA01021DD0C5F30A570246C5F3F3
:1006D0001303C1F31300C1F30A5640F4801543F429
:1006E0008013A7EB0608101BD64608F2FD3873EB03
:1006F000050002D308F1010801E092185B41B8F14E
:10070000000F03DA00200146BDE8F08D00204FF411
:100710008011064684460EE0171B73EB050705D3D0
:10072000121B63EB050306434CEA010C49084FEA30
:10073000300092185B4150EA0107EDD152EA030004
:1007400012D082EA040083EA0501084305D0101B99
:10075000AB4106D20122002306E000224FF0004305
:1007600002E06FF0010253101AEB06004CEB085147
:1007700010EB0A0041EB0B01BDE8F04D00F0B9B9F8
:100780000EB5C10F80EAE0700844CA07002140F2AC
:1007900033438DE80E000A460B4600F0B9F903B06A
:1007A00000BD0EB540F2334102910021CDE90011A8
:1007B0000A460B4600F0ACF903B000BD0EB540F29E
:1007C000334202920022CDE90022134600F0A0F944
:1007D00003B000BD70B5C1F30A5201F0004500241A
:1007E000C1F3130140F2FF3341F480119A4201DA60
:1007F000002070BD40F233439A42A2F2334203DC40
:10080000524200F0BCF800E090402C43F1D040424E
:1008100070BDC1F30A5210B5C1F3130140F2FF33AA
:1008200041F480119A4201DA002010BD40F23343B6
:100830009A42A2F2334203DC524200F0A0F810BD0B
:10084000904010BDC1F30A52C1F3130140F2FF33CF
:1008500041F480119A4202DA00200146704740F2CA
:1008600033439A42A2F2334202DC524200F087B88C
:1008700000F076B800F0004230F000400AD0C10D20
:1008800001F56071C0F3160042EA0151C208400749
:1008900011437047002001467047000030B5041E28
:1008A00071F1000404DB4FF00044404264EB0101AD
:1008B000141E73F1000405DB1C464FF00043524246
:1008C00063EB04038B4208BF824230BD30B5041E87
:1008D00071F1000404DB4FF00044404264EB01017D
:1008E000141E73F1000405DB1C464FF00043524216
:1008F00063EB0403994208BF904230BD01F000430E
:1009000030B421F0004150EA010206D00A0DA2F5F0
:100910006072C1F31301002A02DC30BC0020704772
:10092000440F44EAC104C100E01830BC00EBC250DF
:1009300000F08AB830B50B46014600202022012481
:1009400009E021FA02F59D4205D303FA02F5491B9D
:1009500004FA02F52844151EA2F10102F1DC30BDB3
:10096000202A04DB203A00FA02F10020704791406F
:10097000C2F1200320FA03F3194390407047202A64
:1009800004DB203A21FA02F00021704721FA02F339
:10099000D040C2F120029140084319467047202AF6
:1009A00006DBCB17203A41FA02F043EAE07306E097
:1009B00041FA02F3D040C2F12002914008431946A7
:1009C00070473A2800D2303820F02002412A01D363
:1009D000A2F13700884201D34FF0FF30704700008A
:1009E000026811441378016018467047D1600449C9
:1009F00051610449116200211161114600F04AB9A8
:100A0000E1090108890C0108426842B1016811F846
:100A1000013B23B1521EC0E9001218467047012164
:100A2000C160881E704742685AB1C368016843B903
:100A300083688B4205D0491E521CC0E90012002079
:100A400070474FF0FF3070470029A8BF7047401C27
:100A5000490008BF20F00100704710B4B0FA80FCD4
:100A600000FA0CF050EA010404BF10BC704749B111
:100A7000CCF1200421FA04F411FA0CF118BF012181
:100A800021430843A3EB0C01CB1D4FEA00614FEA61
:100A9000102042BF002010BC704700EBC350104430
:100AA0000029A4BF10BC7047401C490008BF20F0BB
:100AB000010010BC704710B541000CD0C0F3C75105
:100AC000962908DC7E2909DC06DB410204D000F00F
:100AD000004040F07E5010BD002010BDC1F19604D2
:100AE000C4F1200100FA01F1E040FFF7ADFFA040A2
:100AF00010BD10B5141E73F1000408DA401C41F15A
:100B0000000192185B411A4301D120F0010010BD91
:100B10002DE9F04D92469B4611B1B1FA81F202E007
:100B2000B0FA80F220329046FFF71AFF04460F46D3
:100B300040EA0A0041EA0B0153465A46084313D0E3
:100B4000114653EA010019D0C8F140025046FFF7A0
:100B500016FF05460E46504659464246FFF700FF2F
:100B6000084305D0012004E020463946BDE8F08D59
:100B70000020054346EAE0762C4337430A98630594
:100B8000E40AA0EB08000022FD0A44EA47540A30B8
:100B900002D500200146E9E7010510196941DDE9A8
:100BA000084500196941BDE8F04DA2E770B521F094
:100BB000004303430CD0C1F30A550024D5EB0405D0
:100BC00064EB0403D617AD1AB34102DB00200146E3
:100BD00070BD201841EB025170BD00002DE9F041BD
:100BE000054621F000400C46284309D0C4F30A50C2
:100BF00040F23341884205DD28462146BDE8F081B8
:100C00002846FBE740F2FE31884210DC0CDB4FEA5D
:100C1000043040EA155050EA053105D0104804F080
:100C2000004101430020E9E700200146E6E7A0F289
:100C300033404642C6F1400228462146FFF790FE67
:100C400007468846284621463246FFF798FE434627
:100C50003A46FFF74EFF3246BDE8F041FFF780BE4F
:100C60000000F03F064C074D06E0E06840F001034D
:100C700094E8070098471034AC42F6D3FFF788FA9F
:100C8000B8AB0208D8AB0208C0B24FF4F05100F084
:100C9000EDB900002DE9F34F8BB04FF0000801F1E2
:100CA0000C000C464FF0010B46460DF1080A01906E
:100CB0006269012101989047051E2DD0252D2CD069
:100CC000216A8847C0B16269012101989047216A71
:100CD00088470028F7D1411E62690198904700E0DB
:100CE000761CA1690B988847216A88470028F7D1AC
:100CF000E1690B988847DBE7A1690B9888470746AD
:100D0000A84201D1761CD3E7E1690B9888477F1C84
:100D100002D1B8F1000F6FD047E1002762693D466C
:100D20003946019890472A2804D162690121019827
:100D300090470125DFF88892626901210198904768
:100D4000A0F130010A290AD24F45E5DC07EB870103
:100D500000EB4107303FDFD445F01005ECE7E90632
:100D600001D46FF000476C280AD04C2814D06828B2
:100D700015D06A280DD074281CD07A281AD01DE00E
:100D800062690121019890476C2802D045F0040562
:100D900014E045F002050DE045F020050AE0626927
:100DA000012101989047682802D045F0080505E028
:100DB00045F400656269012101989047C4E9015733
:100DC00065283DD019DC58287AD00CDC452837D06E
:100DD00004DC252826D0412831D131E046282FD007
:100DE00047282CD12CE05B2877D0612828D06328B5
:100DF0007CD0642823D15AE0D1E06F2848D008DCA9
:100E000066281DD067281BD0692821D06E2816D1EE
:100E100027E0702845D0732868D0752847D07828F7
:100E20000DD14DE0A1690B988847054625283FF470
:100E300069AFE1690B9888476D1C3FF46AAFB4E075
:100E400023466A466FF001000B99AFF300809FE0E4
:100E500045F040006060A80723464FF0000236D4FA
:100E60003EE0E8077FF447AF2068011D216000687D
:100E7000290501D506701BE7290701D5068017E76C
:100E8000A90703D5F117C0E9006111E706600FE774
:100E900045F040006060A80723464FF0080216D4D2
:100EA0001EE040F60E0125EA0100606016E045F004
:100EB00040006060A80723464FF00A0207D40FE005
:100EC00045F040006060A80708D5234610226FF067
:100ED00001000B99AFF300805AE007E0234610228F
:100EE0006FF001000B99FFF70FFA51E04FF0000986
:100EF0004F464B46632802D05B2807D041E020795B
:100F0000C00601D40120A06001273AE062690121F6
:100F1000019890475E2805D14FF001096269494662
:100F200001989047216939B900210A46534643F890
:100F30002120491C0829FADBB0B3216969B9C1171E
:100F400000EBD16253110AEB830122F01F02821AD7
:100F500001200B68904003430B60626901210198F6
:100F600090475D28E8D1B9F1000F09D00020514623
:100F700051F82020D24341F82020401C0828F7DBFC
:100F800002AB224600976FF001000B99AFF300808F
:100F900000280CDA401C08D1BBF1000F05D04FF03F
:100FA000FF300DB000F00EB8FFE74046F9E7E90763
:100FB00001D108F1010806444FF0000B78E600006B
:100FC000CCCCCC0C30BCBDE8C08F2DE9F04D00235B
:100FD0001A461B1A8A4103DB00200146BDE8F08D4A
:100FE000C1F30A52C1F3130141F480154FF0000B15
:100FF000D10702D100186D41521E0027044640F26D
:10100000FF11384601EB620A3E4680460246002048
:101010004FF48011FFF7B3FCC2197141BB1846EBC6
:101020000100B4EB030C75EB000C04D3E41A65EB80
:10103000000517460E46241908F101006D4180464F
:101040003428E3DDF91946EB0600091BA84103D259
:101050004FF0FF32134601E0002213461BEB07005E
:1010600046EB0A51BDE8F04DFFF743BD7F2801D99B
:10107000002208E0064A02EB5002C007127800D1B5
:10108000120902F00F020120904008407047000052
:10109000609F020870B58D1810F8014B14F0030220
:1010A00001D110F8012B231106D110F8013B03E008
:1010B00010F8016B01F8016B521EF9D1ABB110F8B9
:1010C000012B04F00C048A1A0C2C03D0A2EB84121E
:1010D0009B1C08E010F8014BA2EB0422F8E712F881
:1010E000014B01F8014B5B1EF9D5A942D4D3002076
:1010F00070BD000070B5044600252068806800F0CF
:101100000300012806D12068006800F0010008B142
:10111000012000E0002080B32068806800F00D000E
:10112000012800D100E0002050B120688168174AF2
:101130001140891C816000BF03202168086009E01C
:10114000A06D40F01000A065E06D40F00100E0658A
:10115000012070BD02F044F805460FE002F040F8AF
:10116000401B02280AD9A06D40F01000A065E06D78
:1011700040F00100E0650120EBE705E020688068B1
:1011800000F001000028E9D10020E2E7C0FFFF7F66
:1011900038B504460025002000902068806800F0E3
:1011A0000300012806D12068006800F0010008B1A2
:1011B000012000E00020002846D1206880682349F3
:1011C000084008B9012000E0002048B9A06D40F0B7
:1011D0001000A065E06D40F00100E065012038BD21
:1011E000206804F093FE1A4800681A49B0FBF1F039
:1011F00000EB80004000009002E00098401E00904C
:1012000000980028F9D101F0EBFF054616E02068B0
:10121000816801F0010111B9206804F077FE01F046
:10122000DFFF401B022809D9A06D40F01000A06527
:10123000E06D40F00100E0650120D0E72068006823
:1012400000F001000028E2D00020C8E73F00008045
:101250000C00002080841E0010B510481049086062
:101260004FF40030486000210D488160C160016189
:101270004161C16101210162002141628162C1625B
:101280000163816141638163C163416301F0D2F90C
:101290007F21034800F05AFE10BD000000000450FA
:1012A000A017002070B503460C4600211CE008463C
:1012B00001EBD0756D10A1EB45053DB9655C2D07BF
:1012C0002D0E01EBD07676109D550BE0084601EB14
:1012D000D0756D105D5D665C303E354301EBD076B8
:1012E00076109D55481C81B29142E0DB154602EB19
:1012F000D570C0F34F0070BD2DE9F0410646884619
:10130000144600251048807808B90BF0DFFF00274D
:1013100014E00CE04146304600F018F8054605B1EF
:1013200007E0601E84B2701C86B208F10108002C30
:10133000F0D100BF05B903E0781CC7B2032FE8DB8A
:1013400000BF2846BDE8F0818C110020FEB50446A0
:101350000D4600260A20012102232246CDE9005134
:101360000290A121024802F02BF806463046FEBD4D
:10137000CC1100202DE9F04107460C461546002609
:101380001248807808B90BF0A1FF4FF0000815E073
:101390000BE02178384600F01BF8064606B106E05F
:1013A000781C87B2641C681E85B2002DF1D100BF85
:1013B00006B906E008F1010000F0FF08B8F1030FDC
:1013C000E6DB00BF3046BDE8F08100008C11002054
:1013D00033B583B0044600250A20012104AA022364
:1013E000CDE9002102902246A021054802F0CAF86A
:1013F0000546052000F0FEFB284605B030BD000084
:10140000CC11002030B502460B4600210FE0002031
:101410000AE002EB8004645C03EB80056D5C6C40C9
:1014200002EB80056C54401C0428F2DB491C0429A3
:10143000EDDB30BDF0B52DED048B83B006460F46D5
:101440000025002F76D0002403E0681C85B2601CC4
:1014500084B2042CF9DB002408E0705DC4F10301C0
:1014600002AA5054681C85B2601C84B2042CF4DBC0
:10147000002408E0705DC4F1030101AA5054681C07
:1014800085B2601C84B2042CF4DB9DED010A10EEE1
:10149000101A0846FFF7EEF941EC180B9DED020A11
:1014A000DFEDC10A20EE200A10EE101A0846FFF701
:1014B000E1F941EC190B53EC182BFEF7CEFFBB4AB8
:1014C00003C2002408E0705DC4F1030102AA505475
:1014D000681C85B2601C84B2042CF4DB002408E094
:1014E000705DC4F1030101AA5054681C85B2601CF0
:1014F00084B2042CF4DB9DED010A10EE101A0846AC
:10150000FFF7B8F941EC180B9DED020ADFEDA60AD2
:1015100020EE200A10EE101A0846FFF7ABF941EC56
:10152000190B53EC182BFEF798FFA04AC2E90201F1
:1015300000240AE034E1715DC4F103029B481030DD
:101540008154681C85B2601C84B2042CF3DB002437
:1015500009E0715DC4F10302944814308154681CA1
:1015600085B2601C84B2042CF3DB002409E0715DB9
:10157000C4F103028D4818308154681C85B2601C88
:1015800084B2042CF3DB002409E0715DC4F1030292
:1015900086481C308154681C85B2601C84B2042CBF
:1015A000F3DB002409E0715DC4F103027F482030C1
:1015B0008154681C85B2601C84B2042CF3DB0024C7
:1015C00009E0715DC4F10302784824308154681C3D
:1015D00085B2601C84B2042CF3DB002409E0715D49
:1015E000C4F10102714828308154681C85B2601C26
:1015F00084B2022CF3DB2846691C8DB2305C6B4947
:1016000081F82A00084690F82A000A2190FBF1F29E
:1016100001FB1200654991F82A100A2291FBF2F1B0
:1016200000EB0110614981F82A002846691C8DB23F
:10163000315C5E4880F82B1090F82B000A2190FB5B
:10164000F1F201FB1201594890F82B000A2290FB9D
:10165000F2F001EB0010C1B2544880F82B1028467C
:10166000691C8DB2315C514880F82C1090F82C0028
:101670000A2190FBF1F201FB12014C4890F82C007A
:101680000A2290FBF2F001EB0010C1B2474880F84B
:101690002C102846691C8DB2315C444880F82D100E
:1016A00090F82D000A2190FBF1F201FB12013F4856
:1016B00090F82D000A2290FBF2F001EB0010C1B26D
:1016C0003A4880F82D102846691C8DB2315C3748A5
:1016D00080F82E1090F82E000A2190FBF1F201FB09
:1016E0001201324890F82E000A2290FBF2F001EB32
:1016F0000010C1B22D4880F82E102846691C8DB20A
:10170000315C2A4880F82F1090F82F000A2190FBB6
:10171000F1F201FB1201254890F82F000A2290FBFC
:10172000F2F001EB0010C1B2204880F82F10002425
:1017300009E0715DC4F103021C4830308154681C1B
:1017400085B2601C84B2042CF3DB002004460AE05E
:10175000715DC4F10302154834308154681C85B2B0
:10176000601C80B20446042CF2DB002407E000BFBA
:101770002A466B1C9DB2B05C0021621C94B2082CFE
:10178000F5DB0023DFF828C0CCF80030CCF80430BB
:101790006246D2E9003203430A43CCE9003200BF7B
:1017A00003B0BDEC048BF0BD0024744980260020FA
:1017B000880B0020F0B52DED048B83B006460F4654
:1017C0000025002F76D0002403E0681C85B2601C41
:1017D00084B2042CF9DB002408E0705DC4F103013D
:1017E00002AA5054681C85B2601C84B2042CF4DB3D
:1017F000002408E0705DC4F1030101AA5054681C84
:1018000085B2601C84B2042CF4DB9DED010A10EE5D
:10181000101A0846FFF72EF841EC180B9DED020A4E
:10182000DFED420A20EE200A10EE101A0846FFF7FC
:1018300021F841EC190B53EC182BFEF70EFE3C4A35
:1018400003C2002408E0705DC4F1030102AA5054F1
:10185000681C85B2601C84B2042CF4DB002408E010
:10186000705DC4F1030101AA5054681C85B2601C6C
:1018700084B2042CF4DB9DED010A10EE101A084628
:10188000FEF7F8FF41EC180B9DED020ADFED270A89
:1018900020EE200A10EE101A0846FEF7EBFF41EC8E
:1018A000190B53EC182BFEF7D8FD214AC2E90201AF
:1018B00000240AE035E0715DC4F103021C481030D9
:1018C0008154681C85B2601C84B2042CF3DB0024B4
:1018D00009E0715DC4F10302154814308154681C9D
:1018E00085B2601C84B2042CF3DB002409E0715D36
:1018F000C4F103020E4818308154681C85B2601C84
:1019000084B2042CF3DB002409E0715DC4F103020E
:1019100007481C308154681C85B2601C84B2042CBA
:10192000F3DB03B0BDEC048BF0BD00000024744970
:101930002027002030B503460C4600210FE0605CF4
:10194000302505EB201003F81100605C00F00F005B
:101950003030022505FB01356870481C81B2914288
:10196000EDDB4FF6FF7000EA420030BD70B5034674
:101970000C4600211DE0084601EBD0756D10A1EB6F
:1019800045053DB9655C2D072D0E01EBD07676102F
:101990009D550CE0084601EBD0756D105D5D665CF1
:1019A00006F00F06354301EBD07676109D55481CA6
:1019B00081B29142DFDB154602EBD570C0F34F00D8
:1019C00070BD30B503460C4600210CE0605C001190
:1019D00003F81100605C00F00F00022505FB0135E3
:1019E0006870481C81B29142F0DB4FF6FF7000EA4C
:1019F000420030BD10B52548407908B905F0FAFE1F
:101A00002348007858B9012021490870214800F086
:101A100041FA2148C0882149086017F0FFFB1C48A3
:101A20000078022830D10020194908701C4890ED38
:101A3000000AB8EE400ADFED1B0A80EE201AB2EE73
:101A4000040A21EE000A144880ED000AD0ED000AD5
:101A5000B2EE041A60EE810AB0EE600A06F010FEE3
:101A6000F2EE040A80EE201A0B4880ED001AD0ED49
:101A7000000AB0EE600A16F057FE0748D0ED000AE3
:101A8000B0EE600A08F00CFE10BD00008C110020C2
:101A900094070020040060088C07002098070020AD
:101AA000A00700200000804510B504460022012157
:101AB000014801F08FFB10BD0004004810B5012261
:101AC0001146074801F086FB064800680649096888
:101AD000084406498860084608F0F4F810BD000084
:101AE00000040048B011002088070020B80700203B
:101AF00000BFFEE710B5002404F056F900224FF4B1
:101B00008071124801F066FB012280210F4801F02C
:101B100061FB012240210D4801F05CFB022000F036
:101B200079F802E0012000F065F80948006800F447
:101B3000004020B12046611CCCB26428F2DB0022B8
:101B40004021024801F046FB10BD0000000800489B
:101B5000100C004800B587B000BF1648C06C40F0BC
:101B600002001449C8640846C06C00F002000190ED
:101B700000BF00BF4FF4005002904FF44410039098
:101B80000020049002A90C4801F01EFA032211461D
:101B9000282001F01DFF282001F006FF01200290FF
:101BA00003900020049002A9034801F00DFA07B049
:101BB00000BD0000001002400004004870B504465B
:101BC0000D462946204609F057FC06466655301258
:101BD0006119487070BD7047034800680349B0FB45
:101BE000F1F00349088070470C00002040420F00CC
:101BF000BC11002010B5044607E04FF4FA7000F065
:101C000009F84FF4FA7000F005F8201EA4F1010461
:101C1000F3D110BD70B5034600224FF0E026756980
:101C20000D4E368803FB06F44FF0E026B16910E054
:101C30004FF0E026B06988420BD0884202D20E1ADB
:101C4000324402E02E1A0E4432440146A24200D32E
:101C500000E0EDE700BF70BDBC11002010B5012011
:101C600001F0A4F910BD10B54FF4005001F09EF939
:101C700010BD10B5022001F099F910BD10B5042077
:101C800001F094F910BD10B5082001F08FF910BDD6
:101C900010B5102001F08AF910BD10B5202001F018
:101CA00085F9402001F082F9802001F07FF910BD14
:101CB00072B600BFFEE738B502460B4600208DF82D
:101CC0000030012113E04C1E1DF804406406240E70
:101CD0000DF801404C1E1DF8044004F080042CB1A6
:101CE0001DF8014084F01B040DF80140491C042933
:101CF000E9DB002108E042FA01F404F0010414B128
:101D00001DF801406040491C0429F4DB38BD000087
:101D10002DE9F047044645480078002875D044482E
:101D20000078002871D094F80090A578414805808B
:101D3000002605E0F01C205C3F498855701C86B2E7
:101D40003C4800888642F5DB00203B49394A12882E
:101D50008854281D215CE81C205C01EB00201FFA40
:101D600080F8E91C204609F087FB0746381200EB93
:101D7000072087B231480078814535D13048008846
:101D8000B5EB400F30D147452ED12A4801882A486B
:101D9000FFF750FB00202B4908702B4890ED020BF9
:101DA0002A4880ED7C0B284890ED000B274880EDF9
:101DB0007A0B254890ED050A244880ED7F0A2248D9
:101DC00090ED040A214880ED7E0A1F4890ED070A35
:101DD0001E4880ED810A1C4890ED060A1B4880EDE4
:101DE000800A09F033FF0FE016480078401CC0B2AB
:101DF00014490870032805DB0020087009F012FF61
:101E000002E002E00AF064F80EE00E480078401CA0
:101E1000C0B20C490870032804DB0020087009F0E8
:101E200001FF01E00AF054F8BDE8F087150000203A
:101E300014000020800B002018260020900B0020AA
:101E4000920B0020940B00208026002058280020B0
:101E500010B586B00446009406200190012002903F
:101E60007F200390042004900020059069460848D4
:101E700000F0C2F8064800F08DFE3221044800F060
:101E8000BBFD034800F0D2FB80B206B010BD0000DD
:101E9000A0170020FEB50546002601229103284820
:101EA00001F098F90520FFF7A5FE002406E028467A
:101EB000FFF7CEFF2DF81400601CC4B2052CF6DB32
:101EC00001211AE0002012E03DF81030421C3DF8DC
:101ED0001220934209DD3DF81060421C3DF81220AB
:101EE0002DF81020421C2DF81260421CD0B2C1F116
:101EF00005028242E8DC481CC1B20429E2DDBDF8DB
:101F000004001049C88010480078062810D0084600
:101F1000C08840F6790188420ADD0A48C08840F648
:101F20008531884204DA0748C08854300549C880A2
:101F300000224FF48041024801F04CF9FEBD000040
:101F4000001000488C070020880200202DE9F04195
:101F500004460D460026002700BF94F854000128CF
:101F600002D10220BDE8F081012084F8540000BFB6
:101F70002046FFF7BFF8064696BBA06D20F48850B8
:101F800040F00200A0652068806820F0804028436F
:101F9000216888602068806840F00040216888607F
:101FA00010E07F1CB7F57A4F0CD3A06D20F0020033
:101FB00040F01000A06500BF002084F8540000BF6E
:101FC0000120CFE72068806800F00040B0F1004FAA
:101FD000E7D0A06D20F0020040F00100A06504E011
:101FE000FFE7A06D40F01000A06500BF002084F85E
:101FF000540000BF3046B5E72DE9F84305460C46CE
:10200000002700200090FE49E068884200D000E0F0
:1020100000BF00BF95F85400012802D10220BDE89E
:10202000F883012085F8540000BF286803F089FF79
:10203000002876D1606805281AD86068022806D082
:10204000032807D0042808D005280DD108E00C206B
:1020500060600CE01220606009E01820606006E01B
:102060004FF48070606002E00620606000BF00BF37
:102070002968D4E9002000F4407C4FF4407898FAB5
:10208000A8F8B8FA88F82CFA08FC01F1300808EB37
:102090008C0300F01F094FF01F0808FA09F8D3F865
:1020A00000C02CEA080C00F01F09C2F3846808FA8B
:1020B00009F84CEA080CC3F800C000BF2868806823
:1020C00000F00C0008B1012000E00020002827D11A
:1020D000A2682168286803F041FF60692968C9681F
:1020E000C1F3C101490000FA01F62069042819D0A2
:1020F00028682268216900F1600C0CEB8103DFF88D
:102100000483D3F800C00CEA080C02F0F84848F049
:10211000004848EA06084CEA080CC3F800C000BFB3
:10212000A8E067E20021286803F0FDFEC0F312007A
:1021300030B90021286803F0F6FEC0F3846007E0A0
:102140000021286803F0EFFE90FAA0F0B0FA80F0CA
:102150002168C1F3120119B92168C1F3846104E057
:10216000216891FAA1F1B1FA81F1884204D10022EB
:102170001146286803F021FF0121286803F0D3FEEF
:10218000C0F3120030B90121286803F0CCFEC0F37F
:10219000846007E00121286803F0C5FE90FAA0F0F2
:1021A000B0FA80F02168C1F3120119B92168C1F3B6
:1021B000846104E0216891FAA1F1B1FA81F18842C9
:1021C00004D100220121286803F0F7FE02212868CB
:1021D00003F0A9FEC0F3120030B90221286803F011
:1021E000A2FEC0F3846007E00221286803F09BFE92
:1021F00090FAA0F0B0FA80F02168C1F3120119B989
:102200002168C1F3846104E0216891FAA1F1B1FA77
:1022100081F1884204D100220221286803F0CDFE1A
:102220000321286803F07FFEC0F3120030B90321B8
:10223000286803F078FEC0F3846007E00321286873
:1022400003F071FE90FAA0F0B0FA80F02168C1F3BB
:10225000120119B92168C1F3846104E0216891FA7F
:10226000A1F1B1FA81F1884204D10022032128684A
:1022700003F0A3FE2868806800F00300012806D15F
:102280002868006800F0010008B1012000E000208B
:1022900000287CD12868E2682168D0F8B030C1F30A
:1022A000120C23EA0C03C1F3120C02F02009DFF830
:1022B000588108FA09F80CEA080C43EA0C03C0F844
:1022C000B03000BF4E49E068884274D12368C3F340
:1022D00012031BB92368C3F3846304E0236893FAF1
:1022E000A3F3B3FA83F35B1C092B38D82368C3F339
:1022F00012031BB92368C3F3846304E0236893FAD1
:10230000A3F3B3FA83F35B1C4FF0010C0CFA03FC4C
:102310002368C3F312031BB92368C3F3846304E087
:10232000236893FAA3F3B3FA83F35B1C4CEA836C40
:102330002368C3F312031BB92368C3F3846304E067
:10234000236893FAA3F3B3FA83F35B1C03EB430311
:102350004FF0000848EA03534CEA03033AE02368CD
:10236000C3F312031BB92368C3F3846304E0236837
:1023700093FAA3F3B3FA83F35B1C4FF0010C0CFA4E
:1023800003FC2368C3F312032BB9236800E0C2E007
:10239000C3F3846304E0236893FAA3F3B3FA83F3EB
:1023A0005B1C4CEA836C2368C3F3120323B92368D4
:1023B000C3F3846305E012E0236893FAA3F3B3FA4E
:1023C00083F3093B03EB43034FF0007848EA0353E0
:1023D0004CEA03031946A268286803F0BFFD0B49C5
:1023E0002068884205D10A4803F098FD00F40000F7
:1023F00010B308492068884213D105480CE000005A
:1024000000007F4000F0FF03FFFF0700000052C7FD
:1024100000030450000084CB03F080FD00F08070C6
:1024200050B17A492068884275D1794803F076FD29
:1024300000F480000028F7D12868806800F00300CD
:10244000012806D12868006800F0010008B10120C9
:1024500000E0002000286FD16E492868884224D10E
:102460006D48006800F00300012807D16A48083869
:10247000006800F0010008B1012000E0002080B9F0
:102480006348F838006800F00300012807D162486B
:10249000F830006800F0010008B1012000E00020E1
:1024A00008B101204EE000204CE05B490839286863
:1024B000884223D15748806800F00300012806D1E4
:1024C0005448006800F0010008B1012000E000203D
:1024D00080B94F48F838006800F00300012807D1A0
:1024E0004D48F830006800F0010008B1012000E01C
:1024F000002008B1012010E000200EE0454880686F
:1025000000F00300012807D14248006800F00100F4
:1025100010B1012001E03CE0002080B93E48006895
:1025200000F00300012808D13B480838006800F09B
:10253000010010B1012001E043E0002008B10120BA
:1025400000E00020E8BB35492068884222D13149AB
:102550002868884204D03049F831286888424ED132
:102560002B4803F0DBFC40F400084146284803F008
:102570001EFD2B4800682B49B0FBF1F0C0EB0010AA
:10258000C000009002E00098401E009000980028D3
:10259000F9D134E024492068884213D11D492868C4
:1025A000884204D01C49F8312868884227D118484D
:1025B00003F0B4FC40F080784146154803F0F7FC86
:1025C0001DE011E011492068884218D1114928689E
:1025D000884214D10E4803F0A1FC40F48008414623
:1025E0000B4803F0E4FC0AE0A86D40F02000A86569
:1025F000012704E0A86D40F02000A865012700BF76
:10260000002085F8540000BF384608E5010000802E
:10261000000304500000045008010450000052C799
:102620000C00002080841E00000084CB0146086856
:10263000006C7047F8B50446002600250020009085
:102640000CB90120F8BD206918B1606A012800D1D9
:1026500000BFA06D30B9204600F060F90020E065B1
:1026600084F8540020688168C1F3407131B120685A
:102670008168A24A1140816000BF00BF206803F05A
:102680005BFCB8B9206881689D4A114041F08051D7
:10269000816000BF9B4800689B49B0FBF1F000EBF4
:1026A00080004000009002E00098401E00900098DA
:1026B0000028F9D1206803F03FFC40B9A06D40F03C
:1026C0001000A065E06D40F00100E0650126A06DFE
:1026D00000F01000002877D1206803F032FC0028B9
:1026E000F9D1A06D20F4807040F00200A065206850
:1026F000806800F00300012806D12068006800F01F
:10270000010008B1012000E00020002871D17F49BC
:102710002068884223D17E48006800F00300012829
:1027200007D17B480838006800F0010008B101209B
:1027300000E0002078B97748006800F00300012825
:1027400007D174480838006800F0010008B1012082
:1027500000E0002008B101204DE000204BE06C4972
:1027600008392068884222D16848806800F0030058
:10277000012806D16548006800F0010008B1012079
:1027800000E0002078B96348006800F003000128E9
:1027900007D160480838006800F0010008B1012046
:1027A00000E0002008B1012010E000200EE05748B2
:1027B000806800F00300012807D15448006800F049
:1027C000010010B1012001E090E0002078B95048EC
:1027D000006800F00300012807D14D480838006860
:1027E00000F0010008B1012000E0002010B101203C
:1027F00001E00DE0002058B960684649F831896869
:1028000021F47C110143434AF832916000BF00BFBC
:10281000A16BE06941EA4030E1680843A1680843E0
:10282000A18C40EA0145606A012803D1208D401E39
:1028300045EA4045E06A28B1A08D00F47070216B34
:10284000084305432068C06833490840284321688D
:10285000C8602068806800F00C0008B1012000E02A
:10286000002010BB0021A06941EA8031606B41EA81
:1028700040052068C06844F202018843284321686B
:10288000C860E06B012811D1206C40F00101606C40
:102890000843A16C0843E16C08432168096940F2D0
:1028A000FC72914308432168086105E020680069D3
:1028B00020F00100216808612069012809D1206801
:1028C000006B20F00F00216A491E0843216808634D
:1028D00005E02068006B20F00F0021680863A06D00
:1028E00020F0020040F00100A06504E0A06D40F07F
:1028F0001000A06501263046A4E60000C0FFFF5F7F
:10290000C0FFFF7F0C00002080841E0000000450E8
:10291000080104500802045007C0F0FF10B5A8B029
:10292000044600BF3148C06C40F004002F49C86421
:102930000846C06C00F00400009000BF00BF00BF5C
:102940000846C06C40F01000C8640846C06C00F037
:102950001000009000BF00BF4FF4804006904FF081
:102960004050249006A801F00BF900BF1F48C06C2E
:1029700040F400501D49C8640846C06C00F4005083
:10298000009000BF00BF00BF0846C06C40F00400CC
:10299000C8640846C06C00F00400009000BF00BF8F
:1029A000022001900B2002900020039001A9104802
:1029B00000F00AFB00BF0D48C06C40F010000B494E
:1029C000C8640846C06C00F01000009000BF00BF53
:1029D0004FF480400190012002900020039001A953
:1029E000044800F0F1FA28B010BD000000100240C9
:1029F00000080048001000482DE9F04704460D4645
:102A000000270026B0466069082801D1082641E069
:102A10005C492068884203D05B492068884214D111
:102A20005A48006800F01F0068B15848006800F07C
:102A30001F00052807D05548006800F01F0009282E
:102A400001D0012002E0002000E0002068B92068E9
:102A5000C06800F0010030B1A06D40F02000A0651A
:102A60000120BDE8F087042614E04848006800F41F
:102A70004040B0F5004F06D04448006800F44040A4
:102A8000B0F5404F05D1A06D40F02000A0650120B9
:102A9000E7E7042600F0A4FB074612E0681C80B1BB
:102AA00025B100F09DFBC01BA8420AD9A06D40F0E3
:102AB0000400A06500BF002084F8540000BF03207C
:102AC000CFE72068006830400028E7D0A06D40F4D0
:102AD0000070A0652068C06800F4406098B9E069A3
:102AE00088B92068006800F0080008280BD1A06DA4
:102AF00020F48070A065A06D00F4805018B9A06D1E
:102B000040F00100A0651F492068884203D0204999
:102B10002068884201D1012013E01C48006800F0C1
:102B20001F0058B11948006800F01F00052805D0A3
:102B30001648006800F01F00092801D1012000E0BC
:102B4000002018B12068D0F80C800DE00D492068F5
:102B5000884203D00E492068884201D1206800E0F5
:102B600008488146D9F80C80082E03D10820216836
:102B7000086005E008F4804010B90C202168086066
:102B800000206EE7000004500001045008030450C8
:102B90000002045070B504460025206803F0D1F906
:102BA000002871D100BF94F85400012801D10220FF
:102BB00070BD012084F8540000BF2046FEF7E8FAFB
:102BC0000546002D7DD1A06D40F60161884340F49B
:102BD0008070A0653F492068884203D03E49206844
:102BE000884201D1012007E03C48006800F01F0046
:102BF00008B9012000E0002018B1A06D20F4801079
:102C0000A065A06D00F48050B0F5805F04D1E06D48
:102C100020F00600E06501E00020E0651C2021684E
:102C2000086000BF002084F8540000BF29492068D4
:102C3000884203D028492068884201D1012013E04E
:102C40002648006800F01F0058B12448006800F0D2
:102C50001F00052805D02148006800F01F00092842
:102C600001D1012000E0002078B12068C06800F0A8
:102C7000007028B1A06D20F4005040F48050A06591
:102C8000206803F063F922E020E0A06D40F480109A
:102C9000A06510492068884203D00F492068884207
:102CA00002D1206801E00CE00A480646F06800F016
:102CB000007060B1A06D20F4005040F48050A06519
:102CC00005E000BF002084F8540000E002252846FB
:102CD0006EE7000000000450000204500803045096
:102CE00070B50446002594F82500022803D004207E
:102CF000E063012520E02068006820F00E002168D4
:102D000008602068006820F001002168086094F8DD
:102D1000440000F01C0101208840216C4860012023
:102D200084F8250000BF002084F8240000BFA06BB9
:102D300010B12046A16B8847284670BDF0B50B4600
:102D4000002189E001258D4005EA0302002A7DD09B
:102D5000444D8E0855F826408D072E0F0F25B5409F
:102D60002C40B0F1904F01D100251EE03E4DA8420D
:102D700001D1012519E03D4DA84201D1022514E001
:102D80003B4DA84201D103250FE03A4DA84201D1A5
:102D900004250AE0384DA84201D1052505E0374D4C
:102DA000A84201D1062500E007258E07360FB54061
:102DB000A54223D1324D2D689543314E3560351DE6
:102DC0002D689543361D35602D4D0C352D68954386
:102DD0002B4E0C363560351F2D689543361F3560F8
:102DE0008D072E0F0F2505FA06F41E4D8E0855F897
:102DF0002650A5431B4E8F0846F8275005684F0004
:102E00000326BE4035430560CE0800F1200555F885
:102E100026504E07F70E0F26BE40B543CF0800F1EF
:102E2000200646F8275085684F000326BE40B5436C
:102E30008560466801258D40AE434660C5684F00F9
:102E40000326BE40B543C560C56A00E003E0012625
:102E50008E40B543C562491C23FA01F5002D7FF46D
:102E600071AFF0BD080001400004004800080048B0
:102E7000000C0048001000480014004800180048EA
:102E80000004014010B50446B4F5005F04D10121EF
:102E90003D4813F021FE76E0022C04D102213A488D
:102EA00013F01AFE6FE0012C09D138480068401C6D
:102EB000364908606102364813F00EFE63E0202CAC
:102EC00007D0102C05D0082C03D0042C01D0802C66
:102ED00059D100F085F92F490978062901D10A2135
:102EE00000E096212C4A12681144401A04D500F0E3
:102EF00077F92949086046E000F072F92649086030
:102F0000002026490870102C16D004DC042C29D08F
:102F1000082C36D11BE0202C02D0802C31D12DE0A2
:102F20001F48006838B100201E4908704FF4800126
:102F30001D4813F0D1FD24E01948406830B101204C
:102F4000184908708105184813F0C6FD19E01448A7
:102F5000806830B10220134908704105124813F00F
:102F6000BBFD0EE00E48C06838B103200D49087063
:102F70004FF480010C4813F0AFFD02E00DF004FCAB
:102F800000BF00BF00BF10BDA818002078010020BE
:102F9000F418002088020020A01100208B020020DD
:102FA000540200206C0200205419002010B5044681
:102FB00004480068204020B1024804602046FFF722
:102FC00061FF10BD1404014078B502460B46002194
:102FD000DFE001268E401D6805EA0604002C7DD046
:102FE0001D7905F00305012D04D01D7905F00305B9
:102FF000022D13D190684E000325B540A8434E0022
:10300000DD68B54028439060506801258D40A84395
:103010001D79C5F300158D40284350601D7905F0DA
:103020000305032D09D1D06A01258D40A8431D79E0
:10303000C5F3C0058D402843D0621D7905F0030516
:10304000032D09D0D0684E000325B540A8434E009B
:103050009D68B5402843D0601D7905F00305022D19
:1030600013D1CE0802F1200555F826004D07EE0ECB
:103070000F25B540A8434E07F60E1D69B5402843FD
:10308000CE0802F1200545F8260010684E00032501
:10309000B540A8431D7905F003054E00B54028430F
:1030A00010605D6805F44035002D71D000BF3C4DC7
:1030B0002D6E45F001053A4E356635462D6E05F00C
:1030C0000105009500BF00BF4FEAB6358E0855F8E0
:1030D00026008D072E0F0F25B54000E058E0A843CD
:1030E000B2F1904F01D100251EE02E4DAA4201D130
:1030F000012519E02C4DAA4201D1022514E02B4DE7
:10310000AA4201D103250FE0294DAA4201D104258D
:103110000AE0284DAA4201D1052505E0264DAA4224
:1031200001D1062500E007258E07360FB54028435C
:10313000224D8E0845F82600214D2868A0435D6881
:1031400005F4801505B120431D4D28602D1D28680C
:10315000A0435D6805F4001505B12043184D2D1DF1
:103160002860174D2D1F2868A0435D6805F40035C1
:1031700005B12043124D2D1F28602D1F2868A04344
:103180005D6805F4803505B120430D4D083D28608C
:10319000491C1D68CD40002D7FF41BAF78BD000099
:1031A000001002400004004800080048000C0048DD
:1031B00000100048001400480018004808000140B2
:1031C00008040140024613690B400BB1012000E0E6
:1031D000002070470AB1816100E081627047000001
:1031E000014800687047000000000020024692F885
:1031F000410020282DD100BF92F84000012801D1C4
:1032000002207047012082F8400000BF242082F88D
:1032100041001068006820F0010013681860106811
:10322000006820F480501368186010680068084334
:10323000136818601068006840F001001368186097
:10324000202082F8410000BF002082F8400000BF2B
:10325000D7E70220D5E710B502460B46002192F8C9
:10326000410020282AD100BF92F84000012801D156
:10327000022010BD012082F8400000BF242082F807
:1032800041001068006820F0010014682060106898
:10329000016821F4706141EA03211068016010683F
:1032A000006840F0010014682060202082F841008E
:1032B00000BF002082F8400000BFDAE70220D8E714
:1032C00010B504460CB9012010BD242084F841003B
:1032D0002068006820F0010021680860204600F0A6
:1032E00031FA0020606484F84100206384F84200D1
:1032F00000BF84F8400000BF00BFE5E710B50446FA
:103300000CB9012010BD94F8410028B9002084F8C0
:103310004000204600F032FA242084F84100206862
:10332000006820F0010021680860606820F070608B
:10333000216808612068806820F400402168886066
:10334000E068012805D1A06840F400402168886049
:1033500004E0A06840F4044021688860E068022826
:1033600002D1800221684860206840681349084300
:10337000216848602068C06820F400402168C86067
:10338000D4E904010843A16940EA01202168C8602A
:10339000D4E907010843216808602068006840F00C
:1033A00001002168086000206064202084F841004A
:1033B0000020206384F8420000BFA3E700800002E1
:1033C0002DE9FC5F0446894692469B46DDE90C7870
:1033D0000E9E002594F8410020287DD117B1B8F148
:1033E000000F02D1012000F0C9B800BF94F84000DE
:1033F000012801D10220F6E7012084F8400000BF37
:10340000FFF7EEFE054619230122D1032046009561
:1034100002F000FB08B10320E5E7222084F8410018
:10342000402084F84200002060646762A4F82A808B
:1034300060635B46524649462046CDE9006502F08E
:103440003FFA80B1606C042806D100BF002084F8E8
:10345000400000BF0120C6E700BF002084F8400004
:1034600000BF0320BFE7608DFF280CD9FF20208517
:103470004048009094F828204FF080734946204639
:1034800002F0AEFA0BE0608D20853A48009094F887
:1034900028204FF000734946204602F0A1FA00BFF1
:1034A0003346002204212046009502F0B3FA08B109
:1034B000032098E72068406AC1B2626A501C6062CB
:1034C0001170208D401E2085608D401E6085208DEE
:1034D00048BB608D38B300E049E0334600228021CC
:1034E0002046009502F096FA08B103207BE7608D34
:1034F000FF280CD9FF2020850020009094F8282078
:103500004FF080734946204602F06AFA0BE0608D66
:1035100020850020009094F828204FF00073494641
:10352000204602F05DFA608D0028B9D12A46314666
:10353000204602F09AFA30B1606C042801D10120D3
:1035400051E703204FE720202168C86120684068C8
:103550000949084021684860202084F84100002083
:1035600084F8420000BF84F8400000BF3BE702201F
:1035700039E700000024008000E800FE3CBCBDE804
:10358000C09F00002DE9FC5F0446894692469B4699
:10359000DDE90C780E9E002594F8410020286ED1BC
:1035A00017B1B8F1000F02D1012000F0C7B800BF79
:1035B00094F84000012801D10220F6E7012084F8A8
:1035C000400000BFFFF70CFE054619230122D1037E
:1035D0002046009502F01EFA08B10320E5E72120FD
:1035E00084F84100402084F8420000206064676253
:1035F000A4F82A8060635B46524649462046CDE9DE
:10360000006502F0A5F980B1606C042806D100BF06
:10361000002084F8400000BF0120C6E700BF002062
:1036200084F8400000BF0320BFE7608DFF280CD95D
:10363000FF2020850020009094F828204FF0807310
:103640004946204602F0CCF90BE0608D2085002031
:10365000009094F828204FF000734946204602F06D
:10366000BFF900BF2A463146204602F029FA38B198
:10367000606C042801D1012097E7032095E759E009
:10368000616A481C6062087821688862608D401E0B
:103690006085208D401E2085208D38BB608D28B32D
:1036A0003346002280212046009502F0B3F908B18C
:1036B00003207AE7608DFF280CD9FF2020850020A9
:1036C000009094F828204FF080734946204602F07D
:1036D00087F90BE0608D20850020009094F8282069
:1036E0004FF000734946204602F07AF9608D0028B9
:1036F000B8D12A463146204602F0B7F930B1606CA5
:10370000042801D1012050E703204EE72020216842
:10371000C861206840680849084021684860202046
:1037200084F84100002084F8420000BF84F8400083
:1037300000BF3AE7022038E700E800FE3CBCBDE8E5
:10374000C09F000010B504460949206888420DD189
:103750000848806D20F4001006498865402106481D
:10376000FFF7ECFA80210448FFF7E8FA10BD0000EB
:1037700000540040001002400004004810B5A8B0FA
:103780000446142123A8FCF76AFD882101A8FCF750
:1037900066FD1D492068884233D1402001900020F9
:1037A000159001A800F0ECF908B1FEF781FA00BF0E
:1037B0001648C06C40F002001449C8640846C06C4A
:1037C00000F00200009000BF00BFC0202390122034
:1037D000249000202590032026900420279023A9E0
:1037E0000B48FFF7F1FB00BF0848806D40F4001064
:1037F000064988650846806D00F40010009000BFFF
:1038000000BF28B010BD000000540040001002406E
:103810000004004870B504460CB9012070BD4CF698
:10382000CC402168086045F2555021680860D4E911
:10383000001048602168A0688860FFF7D1FC054649
:103840000BE0FFF7CDFC401B312806D92068C0688B
:1038500000F0070008B10320E0E72068C06800F02E
:1038600007000028EDD120680169E068814203D09B
:103870002168E068086103E04AF6AA202168086030
:103880000020CBE701464AF6AA200A681060002013
:10389000704700000348006803490978084401495B
:1038A00008607047000000200800002010B50024C8
:1038B000032000F0CFF80F2000F008F808B1012431
:1038C00001E000F02FF8204610BD000070B504465E
:1038D000002511480078D8B10F4800784FF47A716C
:1038E000B1FBF0F00D490968B1FBF0F6304601F08C
:1038F0008BFC58B9102C07D200222146501E00F034
:1039000067F80748046004E0012502E0012500E0B3
:103910000125284670BD0000080000200C00002092
:103920000400002008B500BF0D48006E40F0010003
:103930000B4908660846006E00F00100009000BFC9
:1039400000BF00BF0846806D40F080508865084683
:10395000806D00F08050009000BF00BF08BD0000E7
:103960000010024010B501460846002817DB00F0A1
:103970001F0301229A400B4B440943F8242000BF47
:1039800000BF00BFBFF34F8F00BF00BF00BF00BF2D
:1039900000BF00BFBFF36F8F00BF00BF00BF00BFFD
:1039A00010BD000080E100E00146084600280DDB64
:1039B00000BF00BF00F01F0301229A4043099B0093
:1039C00003F1E023C3F8002100BF00BF00BF704730
:1039D0002DE9F05F80460D461646002703F082FF72
:1039E000074639462A46334601F00700C0F1070A68
:1039F000BAF1040F02D94FF0040A01E0C0F1070A3E
:103A0000D14600F1040ABAF1070F02D24FF0000AC2
:103A100001E0A0F1030AD4464FF0010A0AFA09FABC
:103A2000AAF1010A0AEA020A0AFA0CFA4FF0010B9B
:103A30000BFA0CFBABF1010B0BEA030B4AEA0B048C
:103A40002146404603F056FF00F000B830BCBDE808
:103A5000C09F000000BF00F00702064B19684FF638
:103A6000FF031940044B0B4343EA0221014B196049
:103A700000BF70470CED00E00000FA050246B2F509
:103A8000007F2AD11D48006800F4C060B0F5007FB7
:103A900032D01A48006820F4C06040F40070174B20
:103AA00018601748006832235843164BB0FBF3F0F8
:103AB000411C00E0491E1148406900F48060B0F5E7
:103AC000806F01D10029F5D10C48406900F4806075
:103AD000B0F5806F10D1032070470848006800F4EB
:103AE000C060B0F5806F07D00448006820F4C06063
:103AF00040F48060014B18600020EDE7007000404A
:103B00000C00002040420F000D49096821F0070118
:103B1000891C0B4A11600B49096841F00401094AEC
:103B20001160012801D130BF02E040BF20BF20BF9B
:103B30000449096821F00401024A1160704700003D
:103B40000070004010ED00E00248006800F4C06022
:103B500070470000007000400348006840F4807027
:103B60000149086070470000007000400348006889
:103B700040F0040001490860704700000010024056
:103B80002DE9F84304460025A846208800F400608B
:103B9000B0F5006F30D1606E80B1B0F5800F13D0FA
:103BA000B0F5000F03D0B0F5400F15D113E0FB487E
:103BB000C06840F48030F949C8600FE00021201D42
:103BC00002F036FC054609E0002104F1200002F075
:103BD000F5FC054602E001E0012500BF00BF55B934
:103BE000EE488830006820F44000616E0843EB49DD
:103BF000C1F8880000E0A846208800F48050B0F5A5
:103C0000805F30D1A06E80B1B0F1807F13D0B0F171
:103C1000007F03D0B0F1407F15D113E0DF48C068CA
:103C200040F48030DD49C8600FE00021201D02F023
:103C3000FFFB054609E0002104F1200002F0BEFC74
:103C4000054602E001E0012500BF00BF55B9D34899
:103C50008830006820F04070A16E0843CF49C1F859
:103C6000880000E0A846206800F40030B0F5003F6E
:103C700077D14FF00009C948806D012121EA107009
:103C800078B100BFC548806D40F08050C349886559
:103C90000846806D00F08050009000BF00BF4FF0DC
:103CA0000109BF48006840F48070BD490860FFF713
:103CB00097FA074606E0FFF793FAC01B022801D9DE
:103CC000032505E0B648006800F480700028F2D0B3
:103CD00000BF85BBB1489030006800F44076D6B193
:103CE000D4F88400B04216D0AC489030006820F47C
:103CF0004076AA48D0F8900040F48030A749C1F837
:103D000090000846D0F8900020F48030C1F8900070
:103D10000846C0F8906006F00100A8B1FFF760FA0D
:103D2000074609E0FFF75CFAC01B41F28831884280
:103D300002D9032507E017E098489030006800F0AA
:103D400002000028EED000BF65B9944890300068AA
:103D500020F44070D4F8841008439049C1F89000D2
:103D600003E00CE0A84600E0A846B9F1010F05D138
:103D70008A48806D20F080508849886500BF20788F
:103D800000F0010048B185488830006820F0030049
:103D9000A16B08438149C1F88800207800F0020037
:103DA000022809D17D488830006820F00C00E16BC2
:103DB00008437A49C1F88800207800F004000428FC
:103DC00009D176488830006820F03000216C084323
:103DD0007249C1F88800207800F00800082809D14D
:103DE0006E488830006820F0C000616C08436B4961
:103DF000C1F88800207800F01000102809D1674829
:103E00008830006820F44070A16C08436349C1F811
:103E10008800207800F02000202809D15F488830F1
:103E2000006820F44060E16C08435C49C1F88800F8
:103E3000208800F40070B0F5007F09D15748883021
:103E4000006820F44020E16D08435449C1F888001F
:103E5000208800F48060B0F5806F09D14F48883029
:103E6000006820F44010216E08434C49C1F88800D6
:103E7000207800F04000402809D148488830006888
:103E800020F44050216D08434449C1F8880020784F
:103E900000F08000802809D140488830006820F474
:103EA0004040616D08433D49C1F88800208800F416
:103EB0008070B0F5807F09D138488830006820F4E0
:103EC0004030A16D08433549C1F88800208800F4CE
:103ED0000050B0F5005F1FD130488830006820F0F6
:103EE0004060E16E08432D4988310860E06EB0F112
:103EF000006F06D12948C06840F480102749C86087
:103F00000AE0E06EB0F1806F06D10121201D02F0C1
:103F10008FFA054605B1A846206800F40020B0F5E8
:103F2000002F1FD11D488830006820F04060216FAD
:103F300008431A4988310860206FB0F1006F06D13C
:103F40001648C06840F480101449C8600AE0206F29
:103F5000B0F1806F06D10121201D02F069FA0546FB
:103F600005B1A846206800F48020B0F5802F24D148
:103F70000A488830006820F04060616F08430749B4
:103F800088310860606FB0F1006F0BD10348C068E2
:103F900040F480100149C8600FE0000000100240AA
:103FA00000700040606FB0F1806F06D10121201DCC
:103FB00002F03EFA054605B1A846208800F480408C
:103FC000B0F5804F1FD12248006820F04050A16F0B
:103FD00008431F490860A06FB0F1805F07D102213C
:103FE000201D02F025FA05466DB1A8460BE0A06F32
:103FF000B0F1005F07D1022104F1200002F0DEFAE7
:10400000054605B1A846208800F40040B0F5004FF1
:1040100009D10F48006820F08040E16F08430C4947
:104020008839C1F88800206800F48030B0F5803FFE
:104030000AD10748006820F00040D4F880100843F7
:1040400003498839C1F888004046BDE8F88300007C
:10405000881002402DE9F04104460D4614B90120B4
:10406000BDE8F0816348006800F00700A8420ED266
:104070006048006820F0070028435E490860084651
:10408000006800F00700A84201D00120E8E720788E
:1040900000F0020002280ED15749A068896801F09B
:1040A000F001884207D95448806820F0F000A168E8
:1040B000084351498860207800F0010078B36068B7
:1040C000032806D14C48006800F00070D8B90120E0
:1040D000C6E76068022806D14748006800F400304F
:1040E00088B90120BCE7606830B94348006800F037
:1040F000020040B90120B3E73F48006800F4806047
:1041000008B90120ACE73C48806820F003006168F2
:10411000084339498860FFF763F8064609E010E074
:10412000FFF75EF8801B41F28831884201D90320F5
:1041300096E73148806800F00C006168B0EB810FB1
:10414000EED1207800F0020002280ED12A49A068A2
:10415000896801F0F001884207D22748806820F082
:10416000F000A1680843244988602248006800F0F4
:104170000700A8420ED91F48006820F00700284316
:104180001C4908600846006800F00700A84201D0FA
:10419000012065E7207800F00400042807D11648C4
:1041A000806820F4E060E168084313498860207863
:1041B00000F00800082808D10F48806820F46050FB
:1041C000216940EAC1000C49886000F047F80A49BB
:1041D0008968C1F30311094A515C01F01F01C8400D
:1041E0000749086007480068FFF770FB0746384634
:1041F00036E700000020024000100240F497020859
:104200000C000020040000200148006870470000F6
:104210000C00002000B5FFF7F7FF05498968C1F3DE
:104220000221044A515C01F01F01C84000BD00009A
:10423000001002400498020800B5FFF7E5FF0549A9
:104240008968C1F3C221044A515C01F01F01C840D2
:1042500000BD00000010024004980208F0B50023E1
:104260000020DFF8D4C0DCF808C00CF00C01DFF847
:10427000C8C0DCF80CC00CF0030719B10C291ED122
:10428000012F1CD1DFF8B0C0DCF800C00CF0080C26
:10429000BCF1000F06D1DFF8A0C0DCF894C0CCF36D
:1042A000032305E0DFF890C0DCF800C0CCF3031373
:1042B000DFF888C05CF8233041B9184606E00429CD
:1042C00001D11F4802E0082900D11E480C2932D133
:1042D000DFF864C0DCF80CC00CF00304012C09D03A
:1042E000022C02D0032C04D101E0154A04E0154A47
:1042F00002E000BF1A4600BF00BFDFF83CC0DCF898
:104300000CC0CCF3021C0CF10106DFF82CC0DCF869
:104310000CC0CCF3062C0CFB02FCBCFBF6F2DFF865
:1043200018C0DCF80CC0CCF3416C0CF1010C4FEA66
:104330004C05B2FBF5F0F0BD001002400C980208ED
:104340000024F40000127A002DE9F843044614B961
:104350000120BDE8F883F948806800F00C06F748B2
:10436000C06800F00307207800F01000102877D113
:104370001EB10C2E76D1012F74D1F048006800F0E8
:10438000020018B1A06908B90120E2E7EB48216AF0
:10439000006800F0080020B1E848006800F0F00074
:1043A00005E0E6489430006800F47060000981423E
:1043B0001FD9206A02F0B4F908B10120C9E700BF93
:1043C000DE48006840F00800DC49086008460068E4
:1043D00020F0F000216A0843D849086000BF084671
:1043E000406820F47F40E16940EA0120D3494860F9
:1043F0001FE000BFD148006840F00800CF490860C6
:104400000846006820F0F000216A0843CB490860A4
:1044100000BF0846406820F47F40E16940EA01207F
:10442000C64948602EB9206A02F07AF908B1012025
:104430008FE7FFF713FFC1498968C1F30311C04A31
:10444000515C01F01F01C840BE490860BE480068C9
:10445000FFF73CFA8046B8F1000F4ED0404678E7AF
:104460004BE0FFE7A06980B3B448006840F001006A
:10447000B2490860FEF7B4FE054606E0FEF7B0FE5E
:10448000401B022801D9032063E7AC48006800F014
:1044900002000028F2D000BFA848006840F00800E1
:1044A000A64908600846006820F0F000216A084329
:1044B000A249086000BF0846406820F47F40E169D7
:1044C00040EA01209D49486017E0FFE79B480068EB
:1044D00020F0010099490860FEF782FE054606E0DB
:1044E000FEF77EFE401B022801D9032031E79348E6
:1044F000006800F002000028F2D1207800F00100EE
:1045000000285CD0082E03D00C2E0AD1032F08D12E
:104510008A48006800F4003088B3606878BB0120E6
:1045200017E700BF6068B0F5803F06D18348006898
:1045300040F48030814908601AE06068B0F5A02F2F
:104540000BD17E48006840F480207C490860084612
:10455000006840F4803008600AE07848006820F481
:104560008030764908600846006820F480200860A2
:1045700000BF606890B1FEF733FE054607E01EE01D
:10458000FEF72EFE401B642801D90320E1E66B48AC
:10459000006800F400300028F2D010E0FEF720FEA2
:1045A000054606E0FEF71CFE401B642801D90320E7
:1045B000CFE66248006800F400300028F2D120788D
:1045C00000F00200022852D1042E03D00C2E14D188
:1045D000022F12D15948006800F4806018B1E068D9
:1045E00008B90120B5E65548406820F0F850217C14
:1045F00040EA01605149486039E0E06800B34F4843
:10460000006840F480704D490860FEF7E9FD0546FA
:1046100006E0FEF7E5FD401B022801D9032098E6DD
:104620004648006800F480600028F2D043484068A3
:1046300020F0F850217C40EA01604049486016E0D3
:104640003E48006820F480703C490860FEF7C8FDD1
:10465000054606E0FEF7C4FD401B022801D90320F1
:1046600077E63648006800F480600028F2D12078B0
:1046700000F00800082836D16069D0B12F48943086
:10468000006840F001002D49C1F89400FEF7A8FD34
:10469000054606E0FEF7A4FD401B022801D90320D1
:1046A00057E626489430006800F002000028F1D058
:1046B00019E022489430006820F001001F49C1F839
:1046C0009400FEF78DFD054606E0FEF789FD401BD0
:1046D000022801D903203CE618489430006800F015
:1046E00002000028F1D1207800F00400042872D1E3
:1046F0004FF000091148806D00F0805078B900BF7C
:104700000E48806D40F080500C4988650846806DE9
:1047100000F08050009000BF00BF4FF001090B482F
:10472000006800F4807000BB0848006840F48070A6
:1047300006490860FEF754FD054610E000100240EF
:10474000F49702080C0000200400002000700040D4
:10475000FEF746FD401B022801D90320F9E5B048C9
:10476000006800F480700028F2D000BFA068012823
:1047700008D1AC48006840F00100AA499039C1F85E
:10478000900021E0A06805280FD1A648006840F0FD
:104790000400A4499039C1F890000846D0F8900070
:1047A00040F00100C1F890000EE09E48006820F043
:1047B00001009C499039C1F890000846D0F890005B
:1047C00020F00400C1F8900000BFA068A0B1FEF77F
:1047D00007FD054609E02EE0FEF702FD401B41F211
:1047E0008831884201D90320B3E58E48006800F083
:1047F00002000028F0D012E0FEF7F2FC054608E0C7
:10480000FEF7EEFC401B41F28831884201D90320BB
:104810009FE58448006800F002000028F0D1B9F15B
:10482000010F07D17F489038806D20F080507D497E
:104830009039886500BFA06A00287DD0A06A022850
:104840007BD178489038C76807F00301E06A81425D
:1048500028D107F07001206B401EB1EB001F21D161
:1048600007F4FE41606BB1EB002F1BD107F4003160
:10487000A06B072801D0012000E00020814211D167
:1048800007F4C001A08F0122C2EB5000B1EB405FE2
:1048900008D107F0C0614020005DC2EB5000B1EBD1
:1048A000406F6CD00C2E68D05E489038006800F0E5
:1048B000806028B95B489038006800F0805008B1EB
:1048C000012046E557489038006820F0807055492F
:1048D00090390860FEF784FC054606E0FEF780FC90
:1048E000401B022801D9032033E54E489038006868
:1048F00000F000700028F1D1D4E90B10401E41EA0D
:104900000011606B41EA0021A08F0122C2EB500030
:1049100041EA40514020005DC2EB500041EA406155
:10492000A06B000941EA40403E499039C9683E4ABF
:10493000114008433B4901E05CE046E09039C86023
:104940000846006840F0807008600846C06840F083
:104950008070C860FEF744FC054606E0FEF740FCA8
:10496000401B022801D90320F3E42E489038006848
:1049700000F000700028F1D04FE00120E9E4294860
:104980009038006800F00070A0BB2648903800689E
:1049900040F080702349903908600846C06840F0B4
:1049A0008070C860FEF71CFC054606E0FEF718FCA8
:1049B000401B022801D90320CBE41A489038006834
:1049C00000F000700028F1D027E00C2E23D015480D
:1049D0009038006820F08070124990390860FEF726
:1049E000FFFB054607E0FEF7FBFB401B022802D950
:1049F0000320AEE411E00B489038006800F000702E
:104A00000028F0D107489038C06808490840054997
:104A10009039C86001E001209BE4002099E4000087
:104A200000700040901002408C809DF9FCFFEEFE6B
:104A300070B5044600BF94F82000012801D102207F
:104A400070BD012084F8200000BF022084F82100FE
:104A500000BFCA202168486253202168486200BF15
:104A60002068806820F48060216888602068806801
:104A700020F4804021688860FEF7B2FB054614E010
:104A8000FEF7AEFB401BB0F57A7F0ED900BFFF20CA
:104A90002168486200BF032084F8210000BF002085
:104AA00084F8200000BF0320CAE72068C068C0F374
:104AB00080000028E4D000BFFF202168486200BFCA
:104AC000012084F8210000BF002084F8200000BFEE
:104AD00000BFB5E72DE9F04104460E46174600BF7A
:104AE00094F82000012802D10220BDE8F0810120C5
:104AF00084F8200000BF022084F8210000BFCA20F3
:104B00002168486253202168486200BF206880689D
:104B100020F48060216888602068C06800F0800010
:104B200060F490602168C8602068C06800F04000B0
:104B3000F0B9FEF755FB054614E0FEF751FB401BAC
:104B4000B0F57A7F0ED900BFFF202168486200BF10
:104B5000032084F8210000BF002084F8200000BF5B
:104B60000320C2E72068C06800F004000028E4D0F9
:104B7000206846612068806820F00700384321687B
:104B800088601448006840F4801012490860114899
:104B90000830006840F480100E4908310860206831
:104BA000806840F48040216888602068806840F414
:104BB00080602168886000BFFF202168486200BFD4
:104BC000012084F8210000BF002084F8200000BFED
:104BD00000BF8AE70004014010B504464FF40031DD
:104BE000014811F079FF10BD0C19002010B50446E2
:104BF0004FF480100A4908602068C068C0F3802024
:104C000050B12068C06800F0800060F490602168B6
:104C1000C8602046FFF7E0FF012084F8210010BDA6
:104C20001404014070B505460B46164628684068D6
:104C30000E4900EA0104200CD870C4F30420587017
:104C400004F03F009870C4F3423018705EB9D87811
:104C500001F02EFED870587801F02AFE587098782E
:104C600001F026FE9870002070BD00003FFFFF009D
:104C700070B504460B4616462068806A5860206866
:104C80000069C0F30E009860206800680E4900EAD1
:104C90000105C5F305401870C5F30620587005F0EE
:104CA0007F009870A80DD8705EB9187801F000FEEA
:104CB0001870587801F0FCFD5870987801F0F8FDF4
:104CC0009870002070BD00007F7F7F0070B50446A3
:104CD0000125002C55D094F8210028B9002084F833
:104CE0002000204600F052F8022084F821002068BD
:104CF000C068C0F3001000283ED100BFCA20216860
:104D0000486253202168486200BF204601F0E8FD58
:104D10000546CDB9206880681B4908402168886035
:104D2000216960680843A1690843216889680843CC
:104D3000216888602168E06808612068016920892D
:104D400041EA004021680861204601F0EBFD05467C
:104D50006DB92068C06C20F003002168C8646169E7
:104D6000E06908432168C96C08432168C86400BF32
:104D7000FF202168486200E0002515B9012084F871
:104D80002100284670BD0000BFFF8FFF10B5A2B004
:104D9000044688216846FBF762FA14492068884275
:104DA00022D14FF400300090401221906846FEF767
:104DB000E7FE08B1FCF77CFF0D48006840F40040B6
:104DC0000B499039C1F89000002211462920FEF7C6
:104DD000FFFD2920FEF7E8FD002211460320FEF723
:104DE000F7FD0320FEF7E0FD22B010BD00280040D3
:104DF000901002402DE9F04704460D46904600BF52
:104E000094F82000012802D10220BDE8F08701209B
:104E100084F8200000BF022084F82100B8F1000FC0
:104E20002AD12068806800F0400000B102E0002034
:104E3000E87000BF286A00B900E000BF287801F0E0
:104E400041FD4FEA0049687801F03CFD49EA00293C
:104E5000A87801F037FD49EA0009E87849EA805965
:104E600095F8240001F02EFD49EA0060296A084304
:104E7000696940EA01061BE02068806800F0400094
:104E800000B102E00020E87000BF287800046978D3
:104E900040EA0120A9780843E97840EA815095F872
:104EA000241040EA0160296A0843696940EA010662
:104EB000E969686840EA010700BFCA2021684862C2
:104EC00053202168486200BFA86AB0F5807F3ED1B8
:104ED0002068806820F48070216888602068C0683D
:104EE00000F0800060F4C0702168C860FEF778F9B7
:104EF000814615E0FEF774F9A0EB0900B0F57A7F62
:104F00000ED900BFFF202168486200BF032084F84B
:104F1000210000BF002084F8200000BF032074E7B8
:104F20002068C06800F001000028E3D02068C66156
:104F3000206847642068806840F480702168886039
:104F40002068806840F48050216888603EE02068D6
:104F5000806820F40070216888602068C06800F0D4
:104F6000800060F420702168C860FEF739F981463E
:104F700015E0FEF735F9A0EB0900B0F57A7F0ED900
:104F800000BFFF202168486200BF032084F8210091
:104F900000BF002084F8200000BF032035E7206810
:104FA000C068C0F340000028E3D020680662206893
:104FB00087642068806840F40070216888602068F9
:104FC000806840F400502168886000BF0E48006887
:104FD00040F480200C4908600B480830006840F419
:104FE000802009490831086000BFFF20216848621D
:104FF00000BF012084F8210000BF002084F82000B9
:1050000000BF00BF01E70000000401402DE9F047A8
:1050100005460C46174600BF95F82000012802D12E
:105020000220BDE8F087012085F8200000BF0220A3
:1050300085F821004FB9607800F01000102804D1E5
:10504000607800F0EF000A30607097B9E07801F006
:1050500039FC4FEA0049607801F034FC49EA002944
:10506000A07801F02FFC49EA0009207849EA40388D
:1050700009E0E0780004617840EA0120A178084363
:10508000217840EA413800BFCA202968486253208D
:105090002968486200BF284601F022FC064646B94E
:1050A0000C4808EA000029684860284601F03AFCEC
:1050B000064600BFFF202968486200BF16B90120DC
:1050C00085F8210000BF002085F8200000BF304691
:1050D000A7E700003FFFFF002DE9F04704460D461B
:1050E000904600BF94F82000012802D10220BDE8BC
:1050F000F087012084F8200000BF022084F82100FE
:1051000000BFCA202168486253202168486200BF5E
:10511000204601F0E5FB0646002E47D1B8F1000F0E
:105120001BD12068806800F0400000B102E0002040
:10513000E87000BF287801F0C5FB4FEA00496878A5
:1051400001F0C0FB49EA0029A87801F0BBFB49EA5D
:105150000009E87849EA805712E02068806800F08A
:10516000400000B102E00020E87000BF2878000491
:10517000697840EA0120A9780843E97840EA815734
:1051800012483840216808602068806820F4802038
:1051900021688860D5E903010843216889680843CC
:1051A00021688860204601F0BDFB064600BFFF2055
:1051B0002168486200BF16B9012084F8210000BFB1
:1051C000002084F8200000BF304690E77F7F7F00FA
:1051D00070B504460B482168C860FEF701F8054623
:1051E00007E0FDF7FDFF401BB0F57A7F01D90320F2
:1051F00070BD2068C06800F020000028F1D00020B9
:10520000F6E700005FFF030070B504462546681E00
:10521000B0F1807F01D301200FE0681E4FF0E02144
:1052200048610F214FF0FF3002F064FB00204FF087
:10523000E021886107200861002070BD704710B52B
:1052400004460CB9012010BD242084F871002068A8
:10525000006820F0010021680860002021680860D3
:105260002168486021688860204600F015F9002018
:10527000606784F8710084F8720000BF84F87000E1
:1052800000BF00BFDFE770472DE9F041044620680A
:10529000C569206806682068876805F00F08B8F1BE
:1052A000000F0CD105F0200048B106F0200030B10D
:1052B000206E10B12046216E8847BDE8F081B8F11C
:1052C000000F7FD007F0010018B906F49070002895
:1052D00078D005F0010048B106F4807030B10120AB
:1052E00021680862606F40F00100606705F002000D
:1052F00048B107F0010030B1022021680862606FF8
:1053000040F00400606705F0040048B107F00100B8
:1053100030B1042021680862606F40F002006067CD
:1053200005F0080060B106F0200010B907F0010098
:1053300030B1082021680862606F40F008006067A3
:10534000606F78B305F0200038B106F0200020B17E
:10535000206E10B12046216E8847606F00F0080073
:1053600028B92068806800F04000402824D12046F9
:1053700001F050FD2068806800F04000402817D1FF
:105380002068806820F0400021688860E06E58B195
:105390002248E16E8863E06EFDF7A2FC10B1E06E7A
:1053A000816B88470DE00DE02046FFF76CFF08E0B9
:1053B0002046FFF768FF04E02046FFF764FF002067
:1053C00060677AE705F4801078B107F4800060B177
:1053D0004FF4801021680862202084F8710084F85E
:1053E00072002046FFF72AFF67E705F0800040B112
:1053F00006F0800028B1606E10B12046616E8847CB
:105400005BE705F0400030B106F0400018B12046DF
:1054100001F012FD51E700BF4FE70000FD6D0108EC
:1054200010B504460CB9012010BDA06900B100E020
:1054300000BF94F8710028B9002084F8700020465D
:1054400000F066F8242084F871002068006820F0DD
:10545000010021680860204601F068FD012800D1A4
:10546000E2E7606A10B1204601F012FC2068406853
:1054700020F49040216848602068806820F02A006D
:10548000216888602068006840F001002168086099
:10549000204601F079FCC7E710B50446174920689B
:1054A00088420BD11648806D20F40020144988658D
:1054B0004FF440611348FDF741FC1EE0124920689B
:1054C00088420CD10E48006E20F480400C490866DA
:1054D0004FF4C0614FF09040FDF730FC0DE00B49F8
:1054E0002068884209D10648806D20F48020044954
:1054F000886530210348FDF721FC10BD004C0040B9
:1055000000100240000800480038014000480040F8
:1055100070472DE9F84F04460D46164699464FF060
:10552000000A94F87200202879D105B116B901203B
:1055300000F077B800BF94F87000012801D1022074
:10554000F6E7012084F8700000BF00205834E061C5
:105550002220A076FDF744FE824626806680583CD5
:1055600000BFA068B0F5805F0AD1206920B940F281
:10557000FF10A4F85C001CE0FF20A4F85C0018E019
:10558000A06848B9206918B9FF20A4F85C0010E0B1
:105590007F20A4F85C000CE0A068B0F1805F08D127
:1055A000206918B97F20A4F85C0002E03F20A4F82D
:1055B0005C0000BFB4F85C7023E053460022202159
:1055C0002046CDF8009001F0FAFE08B10320AFE7C5
:1055D000A068B0F5805F09D1206938B9A846206875
:1055E000808C3840A8F80000AD1C05E02068808C55
:1055F000F9B2084005F8010BB4F85A00401EA4F8AF
:105600005A00B4F85A000028D7D1202084F872003C
:1056100000BF002084F8700000BF89E7FFE7022088
:1056200086E718BCBDE8E08F10B5034693F872001A
:10563000202862D101B10AB9012010BD00BF93F842
:105640007000012801D10220F7E7012083F87000E3
:1056500000BF5965A3F85820A3F85A200020186607
:1056600000BF9868B0F5805F0AD1186920B940F290
:10567000FF10A3F85C001CE0FF20A3F85C0018E01A
:10568000986848B9186918B9FF20A3F85C0010E0C1
:105690007F20A3F85C000CE09868B0F1805F08D12F
:1056A000186918B97F20A3F85C0002E03F20A3F836
:1056B0005C0000BF00205867222083F87200186841
:1056C000806840F001001C68A0609868B0F5805FB9
:1056D00004D1186910B90A48186601E0094818662B
:1056E00000BF002083F8700000BF1868006840F415
:1056F00090701C68206000209FE702209DE700005A
:105700005B6E0108C76E010810B5044607492068A2
:10571000884209D101220649064813F0B9FF012247
:1057200003490548FFF780FF10BD0000004C004012
:1057300019000020F0150020781600202DE9F8430C
:1057400004460D4616461F464FF0000994F87100B6
:10575000202855D105B116B90120BDE8F88300BF56
:1057600094F87000012801D10220F6E7012084F8A6
:10577000700000BF00206067212084F87100FDF7F1
:105780002FFD8146A4F85060A4F8526021E04B46FA
:10579000002280212046009701F011FE08B103206D
:1057A000DBE7A068B0F5805F0AD1206940B9A84660
:1057B000B8F80000C0F3080021680885AD1C03E0BC
:1057C00015F8010B21680885B4F85200401EA4F8B2
:1057D0005200B4F852000028D9D14B460022402193
:1057E0002046009701F0EBFD08B10320B5E720202B
:1057F00084F8710000BF002084F8700000BFACE79F
:105800000220AAE7704700BFFEE701688969C1F37B
:10581000400111B10021026891620168896901F0BB
:10582000010129B90168896941F0010102689161AA
:105830007047000070B504460D4616462068806922
:10584000C0F30010002837D013E0681C88B125B1E0
:10585000FDF7C6FC801BA8420BD9202084F841002C
:10586000002084F8420000BF84F8400000BF0320FD
:1058700070BD20688069C0F340100028E5D010207A
:105880002168C86120202168C8612046FFF7BDFF5C
:105890002068406809490840216848600420606425
:1058A000202084F84100002084F8420000BF84F8E2
:1058B000400000BF0120DBE70020D9E700E800FE40
:1058C0002DE9F8430446894615461E46DDE9087869
:1058D0001E48F2B2002349460090204600F080F8AE
:1058E00042463946204600F0EBF838B1606C042897
:1058F00002D10120BDE8F8830320FBE7012E03D18C
:10590000E8B22168886213E0C5F307202168886245
:1059100042463946204600F0D3F830B1606C042886
:1059200001D10120E6E70320E4E7E8B221688862BC
:105930003B46002240212046CDF8008000F06AF866
:1059400008B10320D6E70020D4E700000020008043
:105950002DE9F8430446894615461E46DDE90878D8
:105960001E48F2B2C30249460090204600F038F8C3
:1059700042463946204600F0A3F838B1606C04284E
:1059800002D10120BDE8F8830320FBE7012E03D1FB
:10599000E8B22168886213E0C5F3072021688862B5
:1059A00042463946204600F08BF830B1606C04283E
:1059B00001D10120E6E70320E4E7E8B2216888622C
:1059C0003B46002280212046CDF8008000F022F8DE
:1059D00008B10320D6E70020D4E7000000200080B3
:1059E000F0B5059C05686D684FF4806606EA54566C
:1059F00066F0FC2646F4C046B543C1F309064FF4F1
:105A00007F0707EA02473E431E43264335430668A5
:105A10007560F0BD2DE9F04104460E4617461D465F
:105A2000DDF8188015E0681C98B12DB1FDF7D8FBA2
:105A3000A0EB0800A8420CD9202084F841000020E7
:105A400084F8420000BF84F8400000BF0320BDE896
:105A5000F081206880693040B04201D1012000E02F
:105A60000020B842DFD00020F1E770B504460D46B3
:105A700016461DE0324629462046FFF7DBFE08B1F8
:105A8000012070BD25B1FDF7ABFB801BA8420FD9EB
:105A9000606C40F020006064202084F84100002009
:105AA00084F8420000BF84F8400000BF0320E8E70C
:105AB00020688069C0F340100028DBD00020E0E7B8
:105AC00070B504460D4616461FE03246294620466C
:105AD000FFF7B0FE08B1012070BD681CA8B125B168
:105AE000FDF77EFB801BA8420FD9606C40F02000C0
:105AF0006064202084F84100002084F8420000BF48
:105B000084F8400000BF0320E6E720688069C0F306
:105B100040000028D9D00020DEE7000000B587B0A3
:105B200000BF1448C06C40F004001249C864084625
:105B3000C06C00F00400019000BF00BF0AF0A2F9A1
:105B4000022002904FF4441003900020049002A918
:105B50004FF09040FDF738FA002211460720FDF77C
:105B600037FF0720FDF7FEFE0720FDF71DFF07B0FA
:105B700000BD0000001002402DE9F8470646002550
:105B800047E0002405E006EB8400405D0DF80400CA
:105B9000641C042CF7DB002438E01DF804100E20F0
:105BA000FCF789F8824604F101094FEAE97009EB34
:105BB00090708010A9EB80001DF800100B20FCF7FE
:105BC0007AF88AEA000A04F102084FEAE87008EB62
:105BD00090708010A8EB80001DF800100D20FCF7DD
:105BE0006AF88AEA000AE71CF81707EB9070801041
:105BF000A7EB80001DF800100920FCF75CF88AEA8A
:105C0000000A06EB840000F805A0641C042CC4DB29
:105C10006D1C042DB5DB00F000B818BCBDE8E087B2
:105C200038B5024601211CE000200DE0441A231D76
:105C3000DC1703EB9474A410A3EB840402EB81053E
:105C40002C5D0DF80040401C0428EFDB002005E02F
:105C50001DF8003002EB81042354401C0428F7DBBC
:105C6000491C0429E0DB38BD10B5024600200DE0D8
:105C7000002108E002EB80035B5C064CE35C02EB76
:105C800080046354491C0429F4DB401C0428EFDB26
:105C900010BD0000CD0800202DE9FF4106460B464F
:105CA0000FF2EC0CDCE90075DCF808C0CDE9025C11
:105CB000019700200BE0002406E000EB8405755DF1
:105CC00003EB80073D55641C042CF6DB401C0428C4
:105CD000F1DB012157E0002252E0002010E032B158
:105CE00003EB011505EB8007551E7D5D05E04D1E9C
:105CF00003EB051505EB8005ED780DF80050401C11
:105D00000428ECDB42BB9DF80070002011E0451C2C
:105D10004FEAE57C05EB9C7C4FEAAC0CA5EB8C0CC8
:105D20001DF80CC0DFF8748018F80CC00DF800C026
:105D3000401C0328EBDB194DED5D8DF803509DF8F9
:105D40000050A1F1010C0DF1040818F80CC085EA0F
:105D50000C058DF8005000BF00200EE04D1E03EB37
:105D6000051505EB8005AD5C1DF800707D4003EB6B
:105D7000011707EB8007BD54401C0428EEDB521CC2
:105D8000042AAADB491C0A29A5DD00F009B8000095
:105D900001020408102040801B360000CD070020BF
:105DA00003BCBDE8FC81000000B585B01421684645
:105DB000FAF755FA4FF47F400090002001900290CE
:105DC00069460248FDF700F905B000BD000C004827
:105DD00000B585B014216846FAF741FA4FF47F40C8
:105DE000009001200190002002900220039069465B
:105DF0000248FDF7E9F805B000BD0000000C0048BE
:105E000070B504460D46072C01DC032D01DD012091
:105E100070BD302000F01AF825B944F0800000F081
:105E200015F811E0012D04D144F0900000F00EF8B7
:105E30000AE0022D04D144F0880000F007F803E0E6
:105E400044F0980000F002F80020E1E770B5044645
:105E5000FBF750FEFFF7BCFF00224FF480711148A2
:105E6000FDF7B8F9002280210E48FDF7B3F94FF68F
:105E7000FF7000EA04250C480068C0B228430A49B4
:105E800008606420FBF7C6FE012240210548FDF7AB
:105E9000A1F9FA20FBF7BEFE002240210148FDF7E0
:105EA00099F970BD00080048140C004870B504460C
:105EB000FBF720FEFFF78CFF012211021148FDF7CE
:105EC00089F9002280210F48FDF784F94FF6FF7011
:105ED00000EA04250C480068C0B228430A4908605B
:105EE0006420FBF797FE012240210648FDF772F976
:105EF000FA20FBF78FFE002240210248FDF76AF9E5
:105F000070BD000000080048140C00488168024A77
:105F10001140491C81607047C0FFFF7F01468868BF
:105F200000F0E0707047024602F1600000EB810370
:105F3000186800F0F840704701468868C0F30070A8
:105F4000704701468868C0F3800070478168024A44
:105F50001140091D81607047C0FFFF7F70B501F0DF
:105F600000744FF0007595FAA5F5B5FA85F5EC408B
:105F700000F1140505EB840301F0F8754FF0F87695
:105F800096FAA6F6B6FA86F6F5400726AE401C68E5
:105F9000B44301F0F8754FF0F87696FAA6F6B6FA23
:105FA00086F6F54002FA05F52C431C6070BD826848
:105FB00022F0E0720A438260704710B500F160047D
:105FC00004EB81031C6824F0004414431C6010BDE2
:105FD00000B587B0142102A8FAF741F900BF48487C
:105FE000C06C40F010004649C8640846C06C00F020
:105FF0001000019000BF00BF00BF0846C06C40F019
:106000000400C8640846C06C00F00400019000BFA2
:1060100000BF00BF0846C06C40F08000C86408465E
:10602000C06C00F08000019000BF00BF00BF0846B8
:10603000C06C40F00100C8640846C06C00F001006C
:10604000019000BF00BF00BF0846C06C40F00200D6
:10605000C8640846C06C00F00200019000BF00BF99
:1060600000BF0846C06C40F00800C8640846C06C19
:1060700000F00800019000BF00BF4FF6FF700290D3
:10608000032003900020049002A91E48FCF79CFF07
:1060900043F6FF700290032003900020049002A9B1
:1060A0001948FCF791FF0320029003900020049010
:1060B00002A91648FCF788FF49F6FF7002900320FA
:1060C00003900020049002A94FF09040FCF77CFF61
:1060D0004FF6FF700290032003900020049002A965
:1060E0000B48FCF771FF4FF6FF70029003200390FE
:1060F0000020049002A90748FCF766FF07B000BD26
:10610000001002400010004800080048001C004831
:1061100000040048000C004810B52DED048B044627
:10612000012C6BD10620FDF73FFC6A48006800286F
:1061300058D06948D0E90E100A235940014319D1BB
:1061400064480068FAF72DFB41EC190B9FED630BD7
:1061500053EC102BFAF730FA41EC180B614890ED34
:10616000000B53EC102B51EC180BFAF776F95D4A43
:1061700003C234E05848D0E90E106423594001436B
:1061800011D154490868FAF70CFB41EC180B55483B
:1061900090ED000B53EC102B51EC180BFAF75DF956
:1061A000504A03C21BE04C48D0E90E104FF47A72FB
:1061B0005140014313D14749096801EB810148006F
:1061C000FAF7EFFA41EC180B464890ED000B53EC50
:1061D000102B51EC180BFAF740F9424A03C2002089
:1061E0003C4908603F4890ED000B3F4880ED000BB4
:1061F0009FED3E0B3B4880ED000B67E0022C03D186
:106200000620FDF7AFFB61E0032C5FD10620FDF710
:10621000CBFB30480068002858D02F48D0E90E103A
:106220000A225140014319D12A480068FAF7B9FA05
:1062300041EC190B9FED290B53EC102BFAF7BCF92D
:1062400041EC180B274890ED000B53EC102B51EC50
:10625000180BFAF702F9234A03C234E01E48D0E9CA
:106260000E1064235940014311D11A490868FAF706
:1062700098FA41EC180B1B4890ED000B53EC102BD7
:1062800051EC180BFAF7E9F8164A03C21BE0124961
:10629000D1E90E014FF47A735840084313D10D49E8
:1062A000096801EB81014800FAF77BFA41EC180B11
:1062B0000C4890ED000B53EC102B51EC180BFAF737
:1062C000CCF8084A03C2002002490860BDEC048BE8
:1062D00010BD000078010020582800209A99999953
:1062E0009999B93F30020020800100200000000091
:1062F0000000000000BFFEE72DE9F8470646002534
:1063000047E0002405E006EB8400405D0DF8040042
:10631000641C042CF7DB002438E01DF80410022074
:10632000FBF7C9FC824604F101094FEAE97009EB69
:1063300090708010A9EB80001DF800100320FBF77F
:10634000BAFC8AEA000A04F102084FEAE87008EB96
:1063500090708010A8EB80001DF800100120FBF762
:10636000AAFC8AEA000AE71CF81707EB9070801075
:10637000A7EB80001DF800100120FBF79CFC8AEAC7
:10638000000A06EB840000F805A0641C042CC4DBA2
:106390006D1C042DB5DB00F000B818BCBDE8E0872B
:1063A00070B502460B464FF6FF7000210EE0565CBA
:1063B0007040002407E000F00105400815B14AF2E2
:1063C00001067040641C082CF5D3491C9942EED399
:1063D00070BD000070B588B004460D4604F0D6F9D3
:1063E0000F4800788DF800000E4800788DF8010005
:1063F000200A8DF80200E0B28DF80300280A8DF81B
:106400000400E8B28DF80500062631466846FBF721
:10641000D5FBB11C684600F0DFFB08B070BD000082
:10642000470700204607002000BFFEE77047000036
:106430002DE9F04104460F4600255C48C06800F095
:10644000030090B15948C06800F0030021688842F9
:1064500009D1206838B15548C068C0F30210401C0B
:106460006168884233D0012531E02068012804D0DA
:10647000022809D003281AD10DE04C48006800F02A
:10648000020000B9012514E04848006800F480606B
:1064900000B901250DE04548006800F4003028B936
:1064A0004248006800F4802000B9012501E0012580
:1064B00000BF00BF5DB9D4E90010401E41EA0010E2
:1064C0003A49C96821F0730108433849C860002D72
:1064D00068D13648006820F0806034490860FCF7D5
:1064E0007FFE064606E0FCF77BFE801B022801D9F2
:1064F000032505E02D48006800F000600028F2D177
:1065000000BFCDBB6FB9A0680002E168090940EA8D
:10651000414026490969264A114008432349086138
:1065200020E0012F0FD1A0680002218A0122C2EBD6
:10653000510140EA41501D4909691E4A1140084372
:106540001A4908610EE0A0680002217D0122C2EB19
:10655000510140EA416015490969174A1140084351
:10656000124908611148006840F080600F490860D6
:10657000FCF736FE064607E014E0FCF731FE801B10
:10658000022801D9032505E00848006800F00060F2
:106590000028F2D000BF2DB904480069A169084362
:1065A000024908612846BDE8F08100000010024061
:1065B000FF80FDFFFF809FFFFF80FFF92DE9F04185
:1065C00004460F4600255348C06800F0030090B110
:1065D0005048C06800F003002168884209D1206853
:1065E00038B14C48C068C0F30210401C6168884252
:1065F00033D0012531E02068012804D0022809D0D9
:1066000003281AD10DE04348006800F0020000B9E9
:10661000012514E03F48006800F4806000B90125BE
:106620000DE03C48006800F4003028B939480068A3
:1066300000F4802000B9012501E0012500BF00BF62
:106640005DB9D4E90010401E41EA00103149C96823
:1066500021F0730108432F49C860002D56D12D4801
:10666000006820F080502B490860FCF7B9FD064611
:1066700006E0FCF7B5FD801B022801D9032505E0E3
:106680002448006800F000500028F2D100BF75BB1C
:106690006FB9A0680002E168090940EA41401D495C
:1066A00049691D4A114008431A4948610EE0A06833
:1066B0000002217C0122C2EB510140EA41601549F0
:1066C0004969164A11400843124948611148006857
:1066D00040F080500F490860FCF782FD064607E055
:1066E000FCF77EFD801B022802D9032506E00DE0A1
:1066F0000848006800F000500028F1D000BF2DB914
:106700000448406961690843024948612846BDE878
:10671000F081000000100240FF80FDFFFF80FFF9C4
:10672000F8B5044600262348806D00F0805018B16B
:10673000FDF70AFA054616E000BF1E48806D40F0DE
:1067400080501C4988650846806D00F0805000909C
:1067500000BF00BFFDF7F8F905461648806D20F030
:10676000805014498865B5F5007F07D1802C10D979
:10677000A02C01D902260CE001260AE0802C01D9C8
:10678000032606E0802C01D1022602E0702C00D105
:1067900001260948006820F00700304306490860D8
:1067A0000846006800F00700B04201D00120F8BDA3
:1067B0000020FCE7001002400020024010B5044613
:1067C0004FF400510348FCF7FDFC08B9012010BD4F
:1067D0000020FCE70004004870B504460D46012087
:1067E0000C49096888710B490968CC71CC210948AA
:1067F0000068017207480068807900F108020548C6
:1068000001682846F9F712FD0248006880790830CF
:1068100070BD0000600B002010B504460548FBF772
:1068200039FB0548C088B0F5FB6F01DB012010BDC6
:106830000020FCE7040060088C07002070B50446C7
:106840000D4601200C49096888710B490968CC7113
:10685000CC2109480068017207480068807900F17E
:106860000802054801682846F9F7E0FC024800687C
:106870008079083070BD0000600B00200948006876
:10688000401C0849086008480068C06800F08000A3
:1068900060F4C07004490968C8604FF4802003495F
:1068A00008607047A41100203C1700201404014028
:1068B0000146080900EB8000420001F00F0010447F
:1068C000C0B2704702460023114603E05B1CA1F1F1
:1068D0000A00C1B20A29F9D2180741EA10607047CC
:1068E00070B5044600262068C06800F04000B8B9C2
:1068F000701E2168C860FCF773FC054609E0FCF7D0
:106900006FFC401BB0F57A7F03D90326032084F87F
:1069100021002068C06800F0400008B9032EEED1C5
:10692000304670BD70B5044600251748006820F059
:10693000800015490860081F006800F0200040B979
:106940002046FEF745FCE0B1032084F82100032532
:1069500017E00D48001F006820F020000A49091FB9
:1069600008602046FEF734FC18B1032084F82100AB
:1069700003250548001F006840F020000249091F58
:106980000860284670BD00000C28004010B5024881
:10699000FEF72CF910BD00003C17002010B504488C
:1069A00000680A3003498860084603F08BF910BD7F
:1069B000B01100201C00002038B5054601202549F3
:1069C00008702548007FA0B10B200090694623483D
:1069D000F9F750FC041E0BD00A20207020480178E3
:1069E0001E4800F097FD00201A4908701C490870E5
:1069F00000BF1848007860B31948007848B30024F5
:106A00001EE01648005DAA2818D11449601C085CD5
:106A1000AA2813D108461349086008460068008870
:106A20004AF6AA21884209D100200F4908700D4971
:106A30000968887807F0B4FA0AF0F8FC601CC4B260
:106A4000074800788442DCDB0020024908700449D2
:106A5000087038BD1300002058280020571300206C
:106A6000120000205C0B00208B02002010B50748AC
:106A70008078401C3C2190FBF1F201FB120004499C
:106A8000887001220348FEF7B5F910BD6017002099
:106A9000741700203C170020704738B502460121CA
:106AA0001BE000200CE04318DC1703EB9474A410E7
:106AB000A3EB840402EB81052C5D0DF80040401C23
:106AC0000428F0DB002005E01DF8003002EB810413
:106AD0002354401C0428F7DB491C0429E1DB38BDA2
:106AE00010B5024600200DE0002108E002EB800313
:106AF0005B5C064CE35C02EB80046354491C042994
:106B0000F4DB401C0428EFDB10BD0000CD070020A3
:106B100010B504480068401C02490860FCF7BAFE42
:106B200010BD0000B011002000B597B0442106A8A8
:106B3000F9F795FB142101A8F9F791FB4FF40070C8
:106B4000FCF79CFF08B1FBF7B3F8FDF705F8154813
:106B5000006820F0180013499039C1F89000142003
:106B60000690012008900C9000200D9060200E905F
:106B70000020109006A8FDF7E7FB08B1FBF798F896
:106B80000F200190002002900390049005900021B6
:106B900001A8FDF75FFA08B1FBF78AF8FCF7E6FFFA
:106BA00017B000BD901002404FF000600849086027
:106BB00008480860002080F3108800BF0448803037
:106BC000006840F47000024980310860704700009E
:106BD00008ED00E00000010870B504460D460122F2
:106BE000D1034FF09040FCF7F5FA0520FBF702F8CF
:106BF000AAB24FF47A7321460648FEF79FFD0220A1
:106C0000FAF7F8FF00224FF400414FF09040FCF7F4
:106C1000E1FA70BD7816002010B51A480068C06906
:106C200000F00400042802D11649096808621548DA
:106C30000068C06900F00200022802D11149096809
:106C4000086210480068C06900F00800082802D1F6
:106C50000C49096808620B480068C06900F0100020
:106C600010280AD1010408480FF036FF0120074917
:106C7000087010200349096808620248FEF704FB07
:106C800010BD000078160020D81500209C110020AF
:106C900090F8241001F0010139B10168496821F42C
:106CA0000031826A11430268516090F8241001F0AB
:106CB0000201022907D10168496821F48031C26AC2
:106CC00011430268516090F8241001F00401042976
:106CD00007D10168496821F48021026B11430268E1
:106CE000516090F8241001F00801082907D10168CB
:106CF000496821F40041426B11430268516090F8E9
:106D0000241001F01001102907D10168896821F4CD
:106D10008051826B11430268916090F8241001F059
:106D20002001202907D10168896821F40051C26B34
:106D300011430268916090F8241001F0400140294D
:106D400013D10168496821F48011026C1143026873
:106D50005160016CB1F5801F07D10168496821F4C9
:106D6000C001426C11430268516090F8241001F098
:106D70008001802907D10168496821F40021826CD3
:106D8000114302685160704738B504460025002061
:106D90006067FCF725FA05462068006800F00800E7
:106DA00008280CD16FF07E402B4600224FF40011D2
:106DB0000090204600F003FB08B1032038BD206896
:106DC000006800F0040004280CD16FF07E402B46D0
:106DD00000224FF480010090204600F0F0FA08B144
:106DE0000320EBE7202084F8710084F8720000BFD4
:106DF000002084F8700000BF00BFDFE770B50546D3
:106E0000AC6A0020A4F85A00A4F852002046FEF70D
:106E10003AFA70BD0168096821F490710268116046
:106E20000168896821F0010102689160202180F8E1
:106E3000721000210166704710B504462068006892
:106E400020F0400021680860202084F871000020B4
:106E500060662046FEF7D6FC10BD2DE9F0410446E1
:106E6000B4F85C7094F87200222824D12068868CD3
:106E7000656D06EA07002880606D801C6065B4F8C7
:106E80005A00401E80B2A4F85A00D0B920680068A9
:106E900020F49070216808602068806820F001006C
:106EA00021688860202084F8720000202066204637
:106EB000FEF72AFC05E02068008B40F008002168FE
:106EC0000883BDE8F08170B50446B4F85C6094F8BE
:106ED0007200222823D12068858CF0B22840626D90
:106EE000511C61651070B4F85A00401E80B2A4F8BD
:106EF0005A00D0B92068006820F4907021680860BA
:106F00002068806820F0010021688860202084F8D3
:106F10007200002020662046FEF7F6FB05E02068A0
:106F2000008B40F008002168088370BD2DE9F84F00
:106F300004464FF0000910264FF0000B00250020FA
:106F400000908246F7492068884200D100E000BFE7
:106F50002169A068084361690843E16940EA0109C1
:106F600020680068F049084040EA0900216808608C
:106F70002068406820F44050E16808432168486078
:106F8000D4F81890E7492068884202D0206A40EA85
:106F900009092068806820F4306040EA090021680F
:106FA000886000BFE1492068884216D1E048006847
:106FB00000F0030030B1012808D0022804D00328D3
:106FC00008D105E0012607E0022605E0042603E0DB
:106FD000082601E0102600BF8CE0D64920688842D0
:106FE00016D1D348006800F00C0030B1042808D056
:106FF000082804D00C2808D105E0002607E0022666
:1070000005E0042603E0082601E0102600BF71E039
:10701000C9492068884216D1C548006800F0300090
:1070200030B1102808D0202804D0302808D105E03D
:10703000002607E0022605E0042603E0082601E01A
:10704000102600BF56E0BD492068884216D1B848D6
:10705000006800F0C00030B1402808D0802804D07B
:10706000C02808D105E0002607E0022605E0042636
:1070700003E0082601E0102600BF3BE0B04920688D
:10708000884219D1AA48006800F4407048B1B0F5B0
:10709000807F0AD0B0F5007F05D0B0F5407F08D1E1
:1070A00005E0002607E0022605E0042603E00826A6
:1070B00001E0102600BF1DE09A492068884219D1DE
:1070C0009B48006800F4406048B1B0F5806F0AD07A
:1070D000B0F5006F05D0B0F5406F08D105E000268F
:1070E00007E0022605E0042603E0082601E010265A
:1070F00000BF00BF00BF8B492068884272D1042EB8
:1071000010D003DC3EB1022E13D108E0082E0DD0C2
:10711000102E0ED10EE0FDF77DF882460DE0DFF86F
:1071200024A20AE0FDF79AF8824606E04FF4004AEE
:1071300003E000BF0120009000BF00BFBAF1000FC4
:107140000AD0606800EB4000504503D86068000337
:10715000504502D20120009025E1042E2ED003DC00
:107160003EB1022E51D118E0082E3CD0102E4CD149
:107170004CE0FDF74FF84FF48071A0FB01316068DF
:1071800040081F1841F10001D4F804C062460023F2
:107190003846F9F717F805463BE0D4F804C04FEA43
:1071A0005C000021684BC71841EB010862460B46A2
:1071B00038464146F9F706F805462AE0FDF74EF84D
:1071C0004FF48071A0FB0130616849085F1840F1FD
:1071D0000001D4F804C0624600233846F8F7F2FFF5
:1071E000054616E022E0D4F804C04FEA5C00002116
:1071F0004FF40003C71841EB010862460B463846BE
:107200004146F8F7DFFF054603E000BF012000908C
:1072100000BF00BFB5F5407F05D3B5F5801F02D292
:107220002068C560BFE001200090BCE0E069B0F5D7
:10723000004F57D1042E28D005DC4EB1012E11D0BD
:10724000022E36D118E0082E29D0102E31D131E08F
:10725000FCF7E0FF4000616800EB5100B0FBF1F08B
:1072600085B22AE0FCF7E8FF4000616800EB5100BE
:10727000B0FBF1F085B220E03449606801EB5000CA
:107280006168B0FBF1F085B217E0FCF7E7FF400062
:10729000616800EB5100B0FBF1F085B20DE04FF4F6
:1072A0008031606801EB50006168B0FBF1F085B29D
:1072B00003E000BF0120009000BF00BF102D0ED3DF
:1072C000B5F5803F0BD24FF6F07005EA000BC5F321
:1072D00042004BEA000B2068C0F80CB063E00120CC
:1072E000009060E0042E3CD005DC4EB1012E10D0A1
:1072F000022E49D12CE0082E3CD0102E44D144E07F
:10730000FCF788FF616800EB5100B0FBF1F085B23B
:107310003EE0FCF791FF616800EB5100B0FBF1F03B
:1073200085B235E000800040F369FFEF003801408E
:10733000881002400044004000480040004C0040DB
:10734000005000400024F400000024F40048E8014C
:107350001849606801EB50006168B0FBF1F085B23C
:1073600016E0FCF77BFF616800EB5100B0FBF1F029
:1073700085B20DE04FF40041606801EB5000616898
:10738000B0FBF1F085B203E000BF0120009000BF28
:1073900000BF102D05D3B5F5803F02D22068C5602F
:1073A00001E001200090002020666066009800F057
:1073B00003B800000024F40018BCBDE8E08F2DE9FC
:1073C000F04104460D4617469846069E21E0701C83
:1073D000F8B12EB1FBF704FFA0EB0800B04218D9BA
:1073E0002068006820F4D0702168086020688068F8
:1073F00020F0010021688860202084F8710084F862
:10740000720000BF002084F8700000BF0320BDE8B8
:10741000F0812068C0692840A84201D1012000E025
:107420000020B842D3D00020F1E7000010B52C486E
:107430000068C069C0F34010F0B12A480088C4B2A7
:1074400029480088B0F5007F0DDB2848408820F0EF
:107450003000264948800020234908804FF40071FD
:107460002348F8F7FCFE204801880088401C1E4A8B
:1074700010801F48445400BF19480068C069C0F319
:10748000001050B11848008818B1012119480FF0B8
:1074900023FB102012490968086211480068C0697E
:1074A00000F00400042802D10D49096808620C4864
:1074B0000068C06900F00200022802D1084909688A
:1074C000086207480068C06900F00800082802D177
:1074D0000349096808620248FDF7D6FE10BD0000A6
:1074E0003018002024380140D8090020D00900209D
:1074F000E42000201818002000BF0549096801F0A9
:1075000040010029F9D002490C3108807047000081
:107510001C48004070B505460E46012280214FF000
:107520009040FBF757FE0520FAF764FB002404E0C7
:10753000285DFFF7E1FF601C84B2B442F8D3052058
:10754000FAF758FB002280214FF09040FBF742FEF3
:1075500070BD000008B521480068C06900F0040053
:10756000042802D11D49096808621C480068C069E6
:1075700000F00200022802D1184909680862174881
:107580000068C06900F00800082802D113490968A2
:10759000086212480068C069C0F34010D0B13223BD
:1075A000012269460D48FDF7B4FFFFF7F7F90C48D3
:1075B0000078FF280BDA9DF800000A49084A127883
:1075C000885407480078401C0549087002E00020F4
:1075D000034908700148FDF757FE08BD001600205A
:1075E00012000020571300202DE9F04104460F46F9
:1075F00015461E46164817490860084644608760CD
:10760000C5600661002181610C214161FDF708FF21
:1076100010480068006840F020000E4909680860C2
:1076200001220D490B48FDF7FFFF0A48006800687A
:1076300040F010000749096808603420FCF7B4F9ED
:10764000032211463420FCF7C3F9BDE8F0810000A5
:10765000004C0040781600201900002000BFFEE713
:107660002DE9F04104460F4615461E460F481049C5
:107670000860084644608760C5600661002181613A
:107680000C214161FDF7CCFE09480068006840F01C
:1076900020000749096808602720FCF785F90322C4
:1076A00011462720FCF794F9BDE8F081004800401E
:1076B0000016002010B5012208210748FBF78AFDBB
:1076C000012211020548FBF785FD00224FF40071ED
:1076D0000248FBF77FFD10BD000C00480004004885
:1076E00010B5334890F8190268BB314890F8180279
:1076F000222800D110BD2E4890F81802332804D15A
:1077000022202B4981F81802F4E7294890F8180242
:10771000552800D1EEE7264890F81802112809D024
:10772000234890F81802442804D0214890F8180201
:1077300066283AD1FFF7BEFF0021152006F070FA47
:1077400011F0A6F931E01A4890F8190201282CD15D
:10775000174890F81802332800D1CBE7144890F866
:107760001802222804D13320114981F81802C1E7F8
:107770000F4890F81802552800D1BBE70C4890F844
:107780001802112809D00A4890F81802442804D099
:10779000074890F81802662807D1FFF78BFF0021F1
:1077A000152006F03DFA11F073F900BFA2E70000C2
:1077B0005828002010B5012208210748FBF70AFDD0
:1077C000012211020548FBF705FD01225102034881
:1077D000FBF700FD10BD0000000C0048000400484D
:1077E00010B50249024803F0E5FE10BD75C201085C
:1077F000B819002010B5012003494871F9F72CFD94
:10780000FAF7A8F910BD00008C1100202DE9F04115
:1078100088B00746884614461D4602F0B7FF8DF82B
:1078200000708DF8018020128DF80200E0B28DF812
:10783000030028128DF80400E8B28DF80500062632
:1078400031466846FAF7BAF9B11C6846FFF7C4F941
:1078500008B0BDE8F08100000FB47CB50C0009ADA4
:1078600001D0611E00E00021CDE90001064B6A460F
:107870002946089801F000F9002C02D0009A002156
:1078800011707CBC5DF814FB859101080FB4084BA6
:1078900010B504A902AA039801F0EEF8044602A963
:1078A000002001F07AFC204610BC5DF814FB0000BB
:1078B0009B91010803B401984100009850EAC1204F
:1078C00018BF04204A0D18BF40F0010040F2FF72BB
:1078D000B2EB515F08BF40F00200012808BF05204D
:1078E00002B0704702480068C0F3022070470000F1
:1078F0000CED00E010B5002804DB0A07130E054A62
:10790000135406E00A07140E034A00F00F031B1F6E
:10791000D45410BD00E400E018ED00E000000000C9
:107920002DE9F04D2DED040B2DED0E8B96B0DDE91C
:107930002550279CDDF890A025F0004624F0004853
:10794000BAF1000F14BF0121002101EB4502FC49EF
:1079500053184A1093422AD3002814BF012300234E
:1079600003EB44030B44F7498B4220D358EA000150
:107970009FEDF59B76D0DFF8D8B35D4503D1BAF122
:10798000000F05D188E0BAF1000F08BF002100D038
:10799000012101EB450111F5001F08D8002814BF93
:1079A0000121002101EB440111F5001F0BD99DEDD0
:1079B000261B9DED240B16B000F0DABD04B0BDE827
:1079C000F04D00F041BF0027002DBCBFE1498845C4
:1079D00021DAE1498845A8BF02271CDAC3451ADC31
:1079E000DE4901EB2851142908DDC1F1340220FAE7
:1079F00002F101FA02F282420DD108E058B9C1F158
:107A0000140228FA02F101FA02F2424503D101F010
:107A10000101C1F1020756EA0A0124D1002C22DA41
:107A2000002D18BF022F01D0012F0AD0022000F034
:107A300057FF16B000F0A2BD04B0BDE8F04D00F055
:107A4000EBBE022000F04CFF00F0E6FE51EC100B04
:107A500081F0004141EC100B16B000F095BD04B070
:107A6000BDE8F08D18E09FEDBEAB9FEDBF8B002809
:107A700071D1B848804522D105F1804010F58010C1
:107A800008BFBAF1000F07D0B3450ADC002CA8BF2D
:107A90009DED260BE0DA0DE0B0EE490AF0EE690A42
:107AA000DAE7002C06DA9DED260B51EC100B81F085
:107AB00000416FE0AE48784490ED000BCCE7D8452C
:107AC0004DD1002C48DA2EB186423AD1BAF1000FDE
:107AD00042D126E0BAF1000F13D0022000F000FFDF
:107AE00000F0CEFE8DED020B9DED240B8DED000B15
:107AF00010EE900A039961F31E0003909DED020BB6
:107B0000AAE78DED02AB9DED240B1AEE901A10EE54
:107B1000900A8DED000B61F31E0003909DED020BAA
:107B20009AE78DED028B9DED240B18EE901A10EE66
:107B3000900A8DED000B61F31E0003909DED020B8A
:107B40008AE709DA9DED240B51EC190B53EC102B4D
:107B5000F8F7A7FD1EE020E09DED240B7CE78642B0
:107B60001BDAB4F1804F0DD0A4F10050B0F1FF50FA
:107B700013D1002D11DB9DED240B51EC100B0FF0F8
:107B80007FFD07E09DED240B53EC102B51EC100B07
:107B900000F0C2BC41EC100B5EE79DED240B51ECF4
:107BA000100B06F06BFBBAF1000FCDE90E0142D1CC
:107BB0009FED710B46B3A6F1E040B0F17F600CD0B1
:107BC0005E4538D1002D00DAA7B3022F0CBF01208B
:107BD0004FF0FF30F8F7D4FDDCE7002D01DD002C7D
:107BE0000DDA002D01DD002C1FDB002D16DA002C34
:107BF00014DB012F08BF9FED620B3FF42DAFB0EEF9
:107C00004A0AF0EE6A0A27E7022F18BF002D0CD0AF
:107C1000012F0AD1002DFFF61FAF06E0002DB8BFDF
:107C2000002C08DA012F3FF417AFB0EE480AF0EE4F
:107C3000680A11E71BE0012000EBE57050EA07013C
:107C400015D0791EB0EE498AF0EE698A084308BF64
:107C50009FED4D8B4E480025804570DD4D494E48C7
:107C6000884514DDB0420DDB002C19DB2FE001202C
:107C700000F036FE16B000F08DBC04B0BDE8F04D4B
:107C800000F0EEBDB34502DC002C09DC1FE08642AB
:107C900002DA002C1BDA03E05E452BDD002C16DD3A
:107CA000022000F01DFE00F0EBFD8DED020B53EC09
:107CB0001A2B51EC180BF8F77FFCCDE90001039962
:107CC000019861F31E0003909DED020BC4E60220B3
:107CD00000F006FE00F0E4FD10EE901A18EE900A97
:107CE0008DED020B8DED008B61F31E0003909DED79
:107CF000020BB1E69DED0E0B53EC192B51EC100B62
:107D0000F8F74CFC9FED260BCDE9080153EC102B46
:107D10009DED080B51EC100BF8F74EFC9FED221B6C
:107D200053EC112BF8F73DFC9DED081B53EC112B88
:107D3000F8F742FC9FED1E1B53EC112B3CE08CE04E
:107D4000FFFF1F00FFFF0F00000000000000F03FDA
:107D50000000F03F0000F07F0000404301FCFFFF07
:107D6000000000000000F07F0000000000000000A4
:107D70009E240100000000000000000000000080C0
:107D8000000000000000F0FF000000000000F0BF55
:107D90000000E0410000F043FFFFEF3F0000000063
:107DA000000000000000D03F555555555555D53FB2
:107DB000000000000000E03FF8F7F3FB9DED080B2A
:107DC00041EC1A0B53EC102B51EC100BF8F7F4FBB1
:107DD00053EC1A2BF8F7F0FB41EC1A0B9FEDFE0B5E
:107DE00053EC102B9DED080B51EC100BF8F7E4FB56
:107DF00041EC1B0B9FEDFA0B51EC1A0B53EC102BC3
:107E0000F8F7DAFB41EC1A0B9FEDF70B53EC102B54
:107E10009DED080B51EC100BF8F7CEFB53EC1A2B31
:107E2000F8F7BCFB41EC1A0B51EC1B0B53EC1A2B73
:107E3000F8F713FB0690CDE906519DED060B53ECC8
:107E40001B2B51EC100BF8F7A9FB53EC1A2BF8F78E
:107E5000A8FB41EC100B00F0A1B90020B6F5801F83
:107E60000EDA9FEDE30B53EC102B9DED0E0B51EC56
:107E7000100BF8F7A1FBCDE90E016FF034000E46B0
:107E800000EB2650A0F2FF37C6F31300DA4940F0AA
:107E90007F6646F040568842D8BF002408DDD749A7
:107EA0008142C8BF012403DC0024A6F580167F1C94
:107EB000D348784400EBC4000F9690ED00CB9DEDC5
:107EC0000E0B53EC1C2B51EC100BF8F767FB9DEDE0
:107ED0000E0B41EC1B0B53EC1C2B51EC100BF8F769
:107EE000BCFA41EC100B51EC190B53EC102BF8F7CA
:107EF000D8FB41EC1D0B51EC1B0B53EC1D2BF8F781
:107F00005BFB41EC1A0BBF488DED10AB784410952C
:107F100090ED000B4FF0005040EA660000EB84400B
:107F20008DED080B00F5002009909DED080B53EC3A
:107F30001C2B51EC100BF8F731FB9DED0E1B53EC95
:107F4000112BF8F72EFB41EC100B53EC102B9DED91
:107F5000100B51EC100BF8F72FFB9DED080B41ECCB
:107F60001C0B53EC102B9DED100B51EC100BF8F784
:107F700023FB53EC1B2BF8F714FB53EC1C2BF8F7EB
:107F80000DFB53EC1D2BF8F717FB41EC1C0B53ECCE
:107F90001A2B51EC1A0BF8F70FFB41EC1B0B9A480C
:107FA0000621B0EE4B0AF0EE6B0A784400F0B5FB08
:107FB000B0EE401AF0EE601AB0EE41DAF0EE61DA9F
:107FC00053EC1B2B51EC1B0BF8F7F6FA53EC1D2B63
:107FD000F8F7F2FA9DED100B41EC1B0B53EC1A2B4A
:107FE00051EC100BF8F739FA53EC1C2BF8F7E4FAC4
:107FF00053EC1B2BF8F731FA9DED100B41EC1B0BEA
:1080000053EC102B51EC100BF8F7D6FA41EC1D0B8A
:108010009FED7FEB53EC1E2BF8F71FFA53EC1B2B55
:10802000F8F71BFA0890CDE908519DED080B53ECC9
:108030001E2B51EC100BF8F7B1FA53EC1D2BF8F78F
:10804000ADFA53EC1B2BF8F7ACFA9DED080B41ECA5
:108050001D0B53EC102B9DED100B51EC100BF8F792
:10806000ABFA41EC1B0B53EC1A2B51EC1D0BF8F740
:10807000A3FA9DED080B41EC1A0B53EC102B51ECBD
:108080001C0BF8F799FA53EC1A2BF8F7E6F941ECC8
:108090001A0B51EC1B0B53EC1A2BF8F7DEF90C9072
:1080A000CDE90C519DED0C0B53EC1B2B51EC100B3F
:1080B000F8F774FA53EC1A2BF8F773FA41EC1B0B30
:1080C0009FED550B53EC102B9DED0C0B51EC100B51
:1080D000F8F772FA41EC1A0B9FED510B51EC1B0BA8
:1080E00053EC102BF8F768FA41EC1B0B9FED4E0B8D
:1080F00053EC102B9DED0C0B51EC100BF8F75CFAC8
:1081000053EC1B2BF8F7A9F941EC100B48487844C5
:1081100000EBC40090ED001B51EC100B53EC112B45
:10812000F8F79BF941EC1B0B3846F8F729FBCDE932
:10813000080153EC1B2B51EC1A0BF8F78EF941ECAC
:10814000100B3C48784400EBC40090ED00CB51ECA0
:10815000100B53EC1C2BF8F780F99DED081B53EC2A
:10816000112BF8F77AF90690CDE906519DED080B31
:1081700053EC102B9DED060B51EC100BF8F70EFA9B
:1081800053EC1C2BF8F70AFA53EC1A2BF8F706FA03
:1081900053EC1B2BF8F705FA41EC100B9DED261B59
:1081A00053EC102B8DED001B00959DED260B51EC33
:1081B000100BF8F701FA9DED000B41EC1A0B53EC94
:1081C000102B9DED260B51EC100BF8F7E7F99DED08
:1081D000061B53EC112B2FE0000000604715F73F02
:1081E000FE822B654715F73F44DF5DF80BAE543E2A
:1081F00000000000000040438E9803007AB60B0098
:108200001A20010048200100521F01000000000058
:108210000000000000000840000000E009C7EE3F39
:10822000FD033ADC09C7EE3FF5015B14E02F3EBECB
:10823000DE1D0100981D0100F8F7BEF953EC1A2B62
:10824000F8F70BF99DED060B41EC1A0B53EC102BD4
:108250009DED000B51EC100BF8F7AEF9CDE90C01D8
:108260009DED0C0B51EC1A0B53EC102BF8F7F5F8B5
:10827000CDE902010C46AA498C422FDB611A084362
:1082800018D19DED0C0B53EC102B9DED020B51EC16
:10829000100BF8F783F941EC1B0B9FEDA30B51EC8E
:1082A0001A0B53EC102BF8F7D8F853EC1B2BF8F7FC
:1082B0000DFB2DD2022000F013FB00F0E1FA10EECE
:1082C000901A18EE900A8DED020B8DED008B61F384
:1082D0001E0003909DED020BFFF7BEBB944A24F0F5
:1082E0000041914214D39349214408437FF4EFACF9
:1082F0009DED0C0B53EC102B9DED020B51EC100B74
:10830000F8F74CF953EC1A2BF8F7E0FA7FF6DFACEC
:1083100024F000408849894A002601EB205182421E
:108320002BDA481C4FF4801121FA00F02044844AD3
:10833000C0F30A517A44A1F2FF3192ED000B814A59
:108340008DED080BCA4020EA0202C0F3130040F48E
:108350008010C1F1140120FA01F60992002CB8BF77
:1083600076429DED080B53EC102B9DED0C0B51EC60
:10837000100BF8F713F9CDE90C019DED0C0B51EC46
:108380001A0B53EC102BF8F768F89FED6F0B089061
:10839000CDE9085153EC102B9DED080B51EC100B5F
:1083A000F8F70AF941EC1B0B9FED690B53EC102B0E
:1083B0009DED080B51EC100BF8F7FEF89DED0C0B42
:1083C00041EC1C0B53EC102B9DED080B51EC100BEA
:1083D000F8F7E4F853EC1A2BF8F7E3F89FED5E1B7F
:1083E00053EC112BF8F7E8F853EC1C2BF8F735F8A1
:1083F00041EC1A0B51EC1B0B53EC1A2BF8F72DF830
:10840000CDE902019DED020B53EC1B2B51EC100B3F
:10841000F8F7C4F853EC1A2BF8F7C3F89DED020BEC
:1084200041EC1A0B53EC102B51EC100BF8F7C4F87D
:10843000CDE908014A489DED080B0521784400F07C
:108440006CF99DED081B51EC100B53EC112BF8F758
:10845000B3F89DED021B53EC112BF8F7A2F8CDE910
:1084600006019DED020B53EC1A2B51EC100BF8F7A3
:10847000A3F853EC1A2BF7F7F0FF9FED3B0B41EC01
:108480001A0B53EC102B9DED060B51EC100BF8F76B
:1084900085F89DED060B41EC1B0B53EC102B9DED6D
:1084A000020B51EC100BF8F787F853EC1B2BF8F785
:1084B000F8F853EC1A2BF8F771F89DED021B53EC0A
:1084C000112BF8F76BF853EC192BF8F76AF8CDE994
:1084D000020101EB065001150029C8BF039015DC0D
:1084E0009DED020B324651EC100BF8F75FFBFFF7E6
:1084F000E1F9042808BF00F0D3F932469DED020BE4
:1085000051EC100BF8F752FBCDE902019DED020B87
:1085100051EC180B53EC102BF8F74EF8FFF73ABB61
:108520000000904000000000FE822B654715973C3C
:1085300000CC904000346F3F01FCFFFF0000E03FA3
:10854000201C0100FFFF0F0000000000432EE63F4B
:10855000396CA80C615C20BEEF39FAFE422EE63F72
:10856000F01A0100000000000000000000000040C0
:10857000BDEC088BBDEC06CBFFF720BABDEC088B39
:10858000BDEC06CBFFF758BABDEC088BBDEC06CBB3
:10859000FFF765BABDEC088BBDEC06CBFFF76DBBF2
:1085A00010B52DED020B2DED088B84B09DED0C0B5D
:1085B00051EC100BF8F712FB41EC180B9DED0C0B76
:1085C00053EC182B51EC100BF7F7E8FF41EC190BAB
:1085D0000D989FED290B10F0004F53EC102B51EC30
:1085E000190B9FED21AB9FED22BB0ED0F8F756F98A
:1085F0000ED953EC1B2B51EC190BF8F767F91CD271
:1086000014E000BF41EC180B17E0F8F747F906D269
:1086100053EC1A2B51EC180BF7F7C0FFF2E753ECB1
:108620001B2B51EC190BF8F751F906D853EC1A2B08
:1086300051EC180BF7F711FFE4E78DED028B9DED80
:108640000C0B18EE901A10EE900A8DED000B61F3F2
:108650001E0003909DED020B04B0BDEC088B02B030
:1086600010BD000000000000000000000000F03F0E
:10867000000000000000E03F000000000000E0BF3C
:1086800010B52DED028BB0EE408A18EE100AF8F707
:1086900012FA01EE100A18EE100AB7EE000A78EE90
:1086A000410A10F0004F4FF07F4010EE901A12D0A8
:1086B000B1F13F4F24BF10EE901AB0EB410F12D230
:1086C00010EE901AB1F17C5F1CDD10EE901AB0EB49
:1086D000410F17D314E0B1F13F4F07D910EE901AB4
:1086E000B0EB410F02D331EE401A0BE010EE901ABE
:1086F000B1F17C5F06DB10EE901AB0EB410F01D3B5
:1087000031EE001A18EE100ABDEC028B11EE101AB1
:1087100061F31E0000EE100A10BD70B504462DED89
:10872000028B4D1E00EBC500B0EE408AF0EE608A71
:1087300090ED000B35F0060017D053EC182B51ECE0
:10874000100BF7F739FF41EC100B6D1E04EBC50061
:1087500090ED001B51EC100B53EC112BF7F77DFE45
:1087600041EC100B35F00600E7D1022D36D0042D78
:108770001CD0062D1CBFBDEC028B70BD53EC182B1A
:1087800051EC100BF7F718FF94ED0A1B53EC112B6B
:10879000F7F763FE53EC182BF7F70EFF94ED081B69
:1087A00053EC112BF7F759FE41EC100B53EC182B3F
:1087B00051EC100BF7F700FF94ED061B53EC112B57
:1087C000F7F74BFE53EC182BF7F7F6FE94ED040B7E
:1087D00053EC102BF7F741FE41EC100B53EC182B28
:1087E00051EC100BF7F7E8FE94ED021B53EC112B44
:1087F000F7F733FE53EC182BF7F7DEFE94ED001B72
:1088000053EC112BF7F729FEBDEC028B41EC100B5A
:1088100070BD0000000000009FED070B10B553EC89
:10882000102B9FED070B51EC100BF7F73AFF41ECC3
:10883000100B10BD00000000000000000000000050
:10884000000000000000F03F10B553EC112B51EC7C
:10885000100BF7F702FE41EC100B10BD00000000FA
:108860009FED050B10B553EC102B51EC100BF7F7E7
:1088700018FF41EC100B10BD0000000000000000CC
:108880009FED050B10B553EC102B51EC100BF7F7C7
:1088900093FE41EC100B10BD0000000000000070C2
:1088A0009FED050B10B553EC102B51EC100BF7F7A7
:1088B00083FE41EC100B10BD000000000000001012
:1088C00002E008C8121F08C1002AFAD17047704799
:1088D000002001E001C1121F002AFBD170470000F7
:1088E0000149086070470000C81100202DE9FF5FB2
:1088F00082B00021DDE90430020DDDF840B0034311
:1089000018D044F61050A2F2FF32424315141198C9
:1089100001281FD0A5EB0B00401C5FEA000A4FF0B6
:1089200000064E4FDFF83891B046504615D5CAF1D3
:10893000000413E0119801244AA3012801D16FEA31
:108940000B010298119AC0E90031C0E9024206B059
:1089500000F08EB8CBF10000DFE704460021404A6A
:10896000491842EB0450CDE9001012E0E00707D0AF
:1089700032463B4640464946F7F71EFE804689464A
:1089800032463B4610461946F7F716FE06460F4696
:108990006410002CEAD1DDE90401DDE90023BAF11D
:1089A000000F06DAF7F708FE42464B46F7F704FEDB
:1089B00005E0F7F776FE42464B46F7F772FE0446AF
:1089C0000E460022284BF7F781FF03D84FF0FF3007
:1089D000014607E00022254B20463146F7F73DFDD2
:1089E000F7F730FF102409E0002C0ADB0A220023ED
:1089F000F7F7E8FB039B30321A55641E50EA010278
:108A0000F2D1641C039AC4F111031444119A012A8F
:108A100003D0012208430DD10AE0084304D000200E
:108A20004FF0110B119072E7A3EB0B056D1E0DE0DB
:108A30005B4504DD4FF0000205F1010504E003DAB7
:108A40004FF00002A5F10105002AECD0029811991F
:108A5000C0E90231C0E9004579E700000000144098
:108A60000000F03F300000000000F0430000E03F55
:108A700030BCBDE8C09F00002DE9FF4F95B09A467D
:108A8000884606460025EEE1252877D100242746B2
:108A9000F94A0121039400E0044316F8013F203B0A
:108AA00001FA03F01042F7D130782A2811D06FF084
:108AB0002F033078A0F13002092A16D8039A44F027
:108AC000020402EB820203EB42021044761C039084
:108AD000EFE758F8042B0392002A03DA504244F4DB
:108AE0000054039044F00204761C30782E2816D1EE
:108AF00016F8010F44F004042A280DD06FF02F025D
:108B00003078A0F13003092B09D807EB870302EB7B
:108B10004303C718761CF3E758F8047B761C3078BB
:108B20006C280FD006DC4C2817D068280DD06A2896
:108B300014D104E0742810D07A280FD10DE044F449
:108B400000140AE044F4801401E044F44014727804
:108B5000824202D104F58014761C761C3078662897
:108B60000BD013DC582877D009DC002875D04528B5
:108B7000F6D04628F4D047281AD193E118E06328AC
:108B800035D0642879D0652812D18BE1702873D054
:108B900008DC6728F1D069286FD06E280DD06F28C7
:108BA00006D1ACE073282CD0752874D0782853D027
:108BB0005246179990476D1C54E1C4F302500228A5
:108BC00009D003280DD0D8F8001004280DD00D606E
:108BD00008F1040846E1D8F80010EA17C1E900528C
:108BE000F6E7D8F800100D80F2E70D70F0E718F8FE
:108BF000041B8DF8001000208DF80100EB460120C9
:108C000003E058F804BB4FF0FF3061074FF000015C
:108C100002D40DE009F101018946B9420FDA81451C
:108C2000F8DB1BF809100029F4D108E009F1010173
:108C300089468142FADB1BF809100029F6D1039816
:108C40005346A0EB090721463846179A00F083FAED
:108C5000284400EB090507E044E008E10DE01BF8BB
:108C6000010B524617999047B9F10109F7D25346C3
:108C700021463846179AF2E039E00A21C4F302523D
:108C80004FF0000B0091022A06D058F8040BC117D0
:108C9000032A09D00AE023E008F1070020F00702C8
:108CA000F2E80201904605E000B2C117042A01D1A2
:108CB00040B2C117002906DA0A460021404261EBA2
:108CC00002012D2202E0220504D52B228DF804207A
:108CD000012203E0E20701D02022F7E7914657E0A6
:108CE0000A2100E010214FF0000B00910BE0102151
:108CF0004FF0000B44F004040827009103E0082023
:108D00004FF0000B0090C4F30252022A05D058F82D
:108D1000040B0021032A08D008E008F1070020F026
:108D20000702F2E80201904603E080B2042A00D173
:108D3000C0B24FF0000922072AD53278702A07D036
:108D4000DDF800C08CF0100C5CEA0B0C05D00EE0D6
:108D500040228DF80420012208E050EA010306D0E9
:108D600030238DF804308DF8052002229146009BB7
:108D700083F0080353EA0B030AD150EA010201D140
:108D8000620705D530228DF804204FF001097F1EBF
:108D90003278582A04D039A20C920CAA02920BE025
:108DA0003BA2F9E75B46009AF7F70CFA0C9B9B5C39
:108DB000029A521E0292137050EA0102F2D10298F6
:108DC00004A9081A00F1200B600702D524F48034AE
:108DD00000E001275F4502DDA7EB0B0000E000206B
:108DE00000EB0B01009003984944401A0390E00304
:108DF00006D453462146179A039800F0ACF905446F
:108E0000002706E001A85246C05D179990476D1CE7
:108E10007F1C4F45F6DBE0030CD553462146179ADD
:108E2000039800F098F9054404E030205246179961
:108E300090476D1C0099481E00900029F5DC08E061
:108E40000298029952460078491C0291179990475E
:108E50006D1CBBF10001ABF1010BF1DC5BE100F03B
:108E600068F90544761C307800287FF40DAE19B0FF
:108E7000284600F05BB90000092801003031323388
:108E80003435363738396162636465660000000046
:108E90003031323334353637383941424344454630
:108EA00000000000600700D4062708F1070020F04A
:108EB0000700F0E80223804603F0004C5FEA0C0054
:108EC00001D097A009E0200501D596A005E0E007B4
:108ED00001D095A001E0AFF24C001390307823F060
:108EE000004365280CD006DC452809D046281DD053
:108EF00047287FD13BE0662818D067287AD136E032
:108F00000021112F01DB112000E0781CCDE90001C8
:108F100004A90CA8FFF7EAFCDDE90D010C9A4FF05B
:108F2000000B07F10109109200914EE04FF0004054
:108F30000097CDE9011004A90CA8FFF7D7FCDDE9E3
:108F40000D020C9B0F994FF0000B9146109300926D
:108F500011B9791C00EB0109B7EB090003D4C0F18A
:108F6000FF3B07F10109A9EB0700019042E0012F47
:108F700000DA01270021112F01DD112000E0384621
:108F8000CDE9000104A90CA8FFF7B0FCDDE90D0153
:108F90000C9A00914FF0000BB946109221070FD4A4
:108FA000009A4A4503DA914601E0A9F10109B9F1B5
:108FB000010F05DD109AA9F10101515C3029F4D0AF
:108FC000B84202DA10F1040F03DA0121CDE90110F1
:108FD00010E0002803DC8344A9EB000102E0411CFF
:108FE000494500DD8946A0EB0B00401C01904FF085
:108FF00000400290200705D40198484502DB4FF05D
:10900000FF30019000208DF84B0002980DF14B07C6
:10901000B0F1004F25D002200C902B200D9002982B
:1090200000280CDA404202902D200D9007E00A2122
:109030000298F7F77FFC3031029007F8011D0C9978
:10904000481E0C900029F2DC02980028EFD1791E0E
:109050000D980870307800F0200040F0450007F8C7
:10906000020D11A8C01BC01D02901398007800B11A
:10907000012000EB0901019801EBE0710298014425
:109080000398401A401E0390E00306D4534621463D
:10909000179A039800F05FF805441398007818B108
:1090A0005246179990476D1CE00323D5534621463D
:1090B000179A039800F04FF805441BE0BBF1000F2E
:1090C00007DB0098584504DD1098179910F80B003D
:1090D00001E0179930205246904701980BF1010B9F
:1090E000401E05F10105019004D12E20524617992A
:1090F00090476D1CB9F10001A9F10109DEDC05E022
:1091000017F8010B5246179990476D1C0299481E9B
:1091100002900029F4DC53462146179A03989EE6F4
:109120002D0000002B0000002000000030BCBDE836
:10913000C08F2DE9F041044600251E4617468804DD
:1091400004D405E039462020B0476D1C641EF9D5D3
:109150002846BDE8F0812DE9F041044600251E4671
:109160009046C80301D5302700E02027880404D5A5
:1091700005E041463846B0476D1C641EF9D52846C7
:10918000BDE8F0814A68002A06D00A68531C0B60CB
:1091900010704868401E486070470A68531C0B6096
:1091A000107070472DE9F0478CB00646884691460E
:1091B0000027707800F00F007178091101EB810130
:1091C00000EB4100317801F00F013278121102EB0F
:1091D000820201EB420101EBC10202EB011100EB43
:1091E000810084B2B42C01DC012C03DA00200CB025
:1091F000BDE8F087B8F1180F01DD4FF018082546DB
:10920000C2462F22694644F6DD40F8F775F86846F5
:1092100002F058FBA0BB3F48B0F84A00A04202DA77
:109220003C48B0F84A403B48B0F84A00001B401C9C
:1092300084B2254616E0C5EB051101EB451101F599
:10924000305188B22F226946F8F756F8C7EB07115C
:1092500001EB471101EB09002F226946F6F7E6FF03
:10926000781CC7B2BAF10000AAF1010101F0FF0AAF
:1092700004D0281EA5F101018DB2DCD13846B6E735
:10928000FFE7B42C00DDB424C4F1B5002149B1F8E6
:109290004A100844B42190FBF1F201FB120084B2A1
:1092A00025462DE0AC4205DA1A48B0F84A00A8423B
:1092B00000DD2CE01748B0F84A00A04205DA154856
:1092C000B0F84A00A84200DD21E0681E85B2C5EB77
:1092D000051101EB451101F5305188B22F22694685
:1092E000F8F70AF8C7EB071101EB471101EB09008A
:1092F0002F226946F6F79AFF05B9B425781CC7B244
:10930000BAF10000AAF1010101F0FF0ACAD100BFC1
:1093100038466CE7582800202DE9F0478CB080468D
:109320000E4692460027002006E0411C18F8011066
:1093300008F80010411CC8B20328F6DB0122032103
:1093400008F10300F6F784FF404602F0BBFA18B9B3
:1093500000200CB0BDE8F087182E00DD18265F490C
:10936000B1F84A10491EC1EB011202EB411101F59F
:10937000305188B22F226946F7F7BEFF6946404652
:1093800002F0FDFA0546B42D00DBB325002D01DA0D
:109390000020DEE75148B0F84A00401B002804DDF9
:1093A0004E48B0F84A00401B04E04C48B0F84A0070
:1093B000B430401BC4B24948B0F84A00A04205DBB3
:1093C0004648B0F84A00001B401C06E0C4F1B40156
:1093D0004248B0F84A000844401CB04214DA3F4802
:1093E000B0F84A00A04205DB3C48B0F84A00001B38
:1093F000401C06E0C4F1B4013848B0F84A00084403
:10940000401C00F0FF0900E0B1462F22694644F6F7
:10941000DD40F7F771FF684602F054FAA8BB2F4809
:10942000B0F84A00A0420CDA01242C48B0F84A00F7
:10943000B04203DA2948B0F84A0000E0304600F0B4
:10944000FF0919E0611EC1EB011202EB411101F5A8
:10945000305188B22F226946F7F74EFFC7EB07114C
:1094600001EB471101EB0A002F226946F6F7DEFEF9
:10947000601CC4B2781CC7B2B9F10000A9F10101A7
:1094800001F0FF09DED1384663E7FFE71CE0611E0B
:10949000C1EB011202EB411101F5305188B22F22CC
:1094A0006946F7F729FFC7EB071101EB471101EBFD
:1094B0000A002F226946F6F7B9FEB42C00D1002429
:1094C000601CC4B2781CC7B2B9F10000A9F1010157
:1094D00001F0FF09DBD138463BE7000058280020A7
:1094E0002DE9F0478CB006468846914600277078F3
:1094F00000F00F007178091101EB810100EB4100D0
:10950000317801F00F013278121102EB820201EB87
:10951000420101EBC10202EB011100EB810084B2B8
:10952000A82C01DC012C03DA00200CB0BDE8F08788
:10953000B8F1180F01DD4FF018082546C2462F225A
:10954000694642F6A920F7F7D7FE684602F0BAF955
:10955000A0BB3F48B0F84800A04202DA3C48B0F84F
:1095600048403B48B0F84800001B401C84B22546E8
:1095700016E0C5EB051101EB451101F5406188B21C
:109580002F226946F7F7B8FEC7EB071101EB471129
:1095900001EB09002F226946F6F748FE781CC7B296
:1095A000BAF10000AAF1010101F0FF0A04D0281E5F
:1095B000A5F101018DB2DCD13846B6E7FFE7A82C52
:1095C00000DDA824C4F1A9002149B1F848100844DD
:1095D000A82190FBF1F201FB120084B225462DE098
:1095E000AC4205DA1A48B0F84800A84200DD2CE089
:1095F0001748B0F84800A04205DA1548B0F848000E
:10960000A84200DD21E0681E85B2C5EB051101EB23
:10961000451101F5406188B22F226946F7F76CFECB
:10962000C7EB071101EB471101EB09002F22694637
:10963000F6F7FCFD05B9A825781CC7B2BAF1000001
:10964000AAF1010101F0FF0ACAD100BF38466CE758
:10965000582800202DE9F0478CB080460E469246EF
:1096600000270025002006E0411C18F8011008F82A
:109670000010411CC8B20428F6DB0122022108F1C7
:109680000400F6F7E5FD404602F01CF918B9002089
:109690000CB0BDE8F087182E00DD18265E49B1F841
:1096A0004810491EC1EB011202EB411101F5406166
:1096B00088B22F226946F7F71FFE6946404606F03A
:1096C000B9FA0546A82D00DBA725002D01DA0020F8
:1096D000DEE75148B0F84800401B002804DD4E4842
:1096E000B0F84800401B04E04B48B0F84800A830F0
:1096F000401BC4B24848B0F84800A04205DB4648C9
:10970000B0F84800001B401C06E0C4F1A800424924
:10971000B1F848100844401CB04214DA3E48B0F892
:109720004800A04205DB3C48B0F84800001B401C44
:1097300006E0C4F1A8003849B1F848100844401CBC
:1097400000F0FF0900E0B1462F22694642F6A92049
:10975000F7F7D2FD684602F0B5F8A8BB2E48B0F87E
:109760004800A0420CDA01242B48B0F84800B0426F
:1097700003DA2948B0F8480000E0304600F0FF095D
:1097800019E0611EC1EB011202EB411101F54061CC
:1097900088B22F226946F7F7AFFDC7EB071101EB3F
:1097A000471101EB0A002F226946F6F73FFD601CC6
:1097B000C4B2781CC7B2B9F10000A9F1010101F0EF
:1097C000FF09DED1384663E7FFE71CE0611EC1EB0D
:1097D000011202EB411101F5406188B22F22694666
:1097E000F7F78AFDC7EB071101EB471101EB0A0000
:1097F0002F226946F6F71AFDA82C00D10024601C20
:10980000C4B2781CC7B2B9F10000A9F1010101F09E
:10981000FF09DBD138463BE7582800202DE9F04707
:109820008CB00646884691460027707800F00F00FD
:109830007178091101EB810100EB4100317801F0F1
:109840000F013278121102EB820201EB420101EBAF
:10985000C10202EB011100EB810084B2242C01DC77
:10986000012C03DA00200CB0BDE8F087B8F1180F26
:1098700001DD4FF018082546C2462F22694645F201
:109880006D60F7F739FD684602F01CF8A0BB3F4851
:10989000B0F84C00A04202DA3C48B0F84C403B48DB
:1098A000B0F84C00001B401C84B2254616E0C5EB06
:1098B000051101EB451101F5A04188B22F2269463F
:1098C000F7F71AFDC7EB071101EB471101EB090090
:1098D0002F226946F6F7AAFC781CC7B2BAF100003D
:1098E000AAF1010101F0FF0A04D0281EA5F101012F
:1098F0008DB2DCD13846B6E7FFE7242C00DD242406
:10990000C4F125002149B1F84C100844242190FBF2
:10991000F1F201FB120084B225462DE0AC4205DADB
:109920001A48B0F84C00A84200DD2CE01748B0F807
:109930004C00A04205DA1548B0F84C00A84200DD02
:1099400021E0681E85B2C5EB051101EB451101F55B
:10995000A04188B22F226946F7F7CEFCC7EB07116A
:1099600001EB471101EB09002F226946F6F75EFC77
:1099700005B92425781CC7B2BAF10000AAF101018B
:1099800001F0FF0ACAD100BF38466CE75828002012
:109990002DE9F0478CB080460E4692460027002005
:1099A00006E0411C18F8011008F80010411CC8B26C
:1099B0000228F6DB0122042108F10200F6F748FC38
:1099C000404601F07FFF18B900200CB0BDE8F087D9
:1099D000182E00DD18265F49B1F84C10491EC1EB66
:1099E000011202EB411101F5A04188B22F22694614
:1099F000F7F782FC6946404608F04CFC0546242DEA
:109A000000DB2325002D01DA0020DEE75148B0F805
:109A10004C00401B002804DD4E48B0F84C00401BB1
:109A200004E04C48B0F84C002430401BC4B2494814
:109A3000B0F84C00A04205DB4648B0F84C00001BD3
:109A4000401C06E0C4F124014248B0F84C00084430
:109A5000401CB04214DA3F48B0F84C00A04205DB8D
:109A60003C48B0F84C00001B401C06E0C4F1240147
:109A70003848B0F84C000844401C00F0FF0900E0F2
:109A8000B1462F22694645F26D60F7F735FC68460E
:109A900001F018FFA8BB2F48B0F84C00A0420CDA28
:109AA00001242C48B0F84C00B04203DA2948B0F841
:109AB0004C0000E0304600F0FF0919E0611EC1EBE8
:109AC000011202EB411101F5A04188B22F22694633
:109AD000F7F712FCC7EB071101EB471101EB0A0086
:109AE0002F226946F6F7A2FB601CC4B2781CC7B2ED
:109AF000B9F10000A9F1010101F0FF09DED13846FA
:109B000063E7FFE71CE0611EC1EB011202EB4111AC
:109B100001F5A04188B22F226946F7F7EDFBC7EBAC
:109B2000071101EB471101EB0A002F226946F6F7F6
:109B30007DFB242C00D10024601CC4B2781CC7B269
:109B4000B9F10000A9F1010101F0FF09DBD13846AC
:109B50003BE70000582800207CB5044620460AF068
:109B6000E9FE0546204890F85902002834D1607E6D
:109B70001E498870207E4870E07D0870A07D1C49D9
:109B80008870607D4870207DC8700846C0788DF868
:109B90000000084640788DF80100084680788DF86E
:109BA0000200124800788DF80300104840788DF8C4
:109BB00004000E4880788DF80500684601F082FEAA
:109BC00048B1012209490B48FBF786FA01220849EE
:109BD0000848FBF71BFA00BF4FF4006106480CF081
:109BE0007BFF28467CBD000058280020601700201D
:109BF000640100203C1700201818002010B505480B
:109C0000006841F28831084403498860084600F042
:109C100059F810BDB0110020400B002010B50446CB
:109C2000264890F86502002847D12448B0F866021B
:109C3000382804D03F2820D05A283CD100BF1F48E4
:109C400090F8681290F86802401CC2B21B4880F875
:109C50006822022905DA4FF4806119480CF03CFFB4
:109C60000AE00221154880F86812012180F8651287
:109C7000C90213480CF030FF1EE0104890F868123B
:109C800090F86802401CC2B20C4880F86822022991
:109C900005DA4FF400410A480CF01EFF0AE00221E9
:109CA000064880F86812012180F86512C90204484C
:109CB0000CF012FF00E000BF00BF10BD58280020CC
:109CC0001818002070B5044600BFEFF31080054659
:109CD00072B6206808B1606818B90649204608F0D5
:109CE00023F800BF85F3108800BF042102480CF060
:109CF000F3FE70BDA8110020743B002010B50B20AE
:109D00000AF082F910BD2DE9FC47804689461646C7
:109D10001C46DDE90AA700250FE0102000FB05A086
:109D2000CDE90007102000FB056223464946404666
:109D300000F00EF8103C40376D1C1CB104F00F0011
:109D40000028EAD000F000B80CBCBDE8F0870000A5
:109D50002DE9F04F81461746DDE909AB0026B046F4
:109D6000002500242A494846FBF796FF00BF10E073
:109D700000240AE005EB840017F80080254800EB7A
:109D8000850000F80480601CC4B2042CF2DB681C5F
:109D9000C5B2042DECDB1E49A0311E48F7F732FB9B
:109DA000092611E01B48FBF73BFF1A48FBF75CFF55
:109DB000174800EB06111748F7F724FB16B11548B2
:109DC000FBF7DAFE701EC6B2002EEBDC1148FBF783
:109DD00027FF1048FBF748FF0D490E48F7F712FB25
:109DE000002510E000240AE00A4800EB850010F886
:109DF000048005EB84000AF80080601CC4B2042CC7
:109E0000F2DB681CC5B2042DECDB00F005B80000E5
:109E1000241A0020D41A002030BCBDE8C08F2DE9E0
:109E2000FC478046894616461C46DDE90AA7002500
:109E30000FE0102000FB05A0CDE90007102000FB7B
:109E4000056223464946404600F00EF8103C403774
:109E50006D1C1CB104F00F000028EAD000F000B81F
:109E60000CBCBDE8F08700002DE9F04F8146174695
:109E7000DDE909AB0026B046002500242549484607
:109E8000FBF70AFF00BF10E000240AE005EB8400A6
:109E900017F80080204800EB850000F80480601C63
:109EA000C4B2042CF2DB681CC5B2042DECDB1949EA
:109EB0001948F7F7A7FA012612E01748FCF710FE39
:109EC0001548FCF7EAFD0A2E02D01348FCF714FAF5
:109ED000104800EB06111048F7F794FA701CC6B250
:109EE0000A2EEADD002510E000240AE00A4800EB13
:109EF000850010F8048005EB84000AF80080601CDF
:109F0000C4B2042CF2DB681CC5B2042DECDB00F0FB
:109F100005B80000241A0020D41A002030BCBDE887
:109F2000C08F10B5032009F0CBFB10BD70B50A48F7
:109F300004680CB9FF2070BD204604F0DDFE054624
:109F4000601E044004480460FF2040EA0521034AE3
:109F500050542846EFE70000703B0020702B002093
:109F60004FF47F424260026000228260002900DDDF
:109F7000C16070472DE9F0418AB006460F4615468C
:109F800028216846F6F76BF92A4631466846F6F707
:109F90004DF900240DE01DF80480681E001B1DF81B
:109FA00000000DF80400681E001B0DF80080601C06
:109FB000C4B2B4EB650FEEDB2A4669463846F6F7C5
:109FC00035F90AB0BDE8F0812DE9F04385B00646C9
:109FD000F74800780B2872D2DFE800F0062D3F51D9
:109FE000768DADBFD1FDFC00F2A13046F6F742F907
:109FF000041E05D1F0A13046F6F73CF9041E18D036
:10A00000EE4800210160416001810020EC49088098
:10A01000EC48007F18B9022005B0BDE8F083EAA241
:10A0200007CA02AB07C3092102A8FCF7D5FD05202A
:10A03000F2E70120F0E7DFA13046F6F71BF9041E36
:10A0400009D0DE4800210160416001810020DC4927
:10A0500008800220E0E70120DEE7D6A13046F6F7CF
:10A0600009F9041E09D0D548002101604160018131
:10A070000020D34908800220CEE70120CCE7D5A1FB
:10A080003046F6F7F7F8041E1CD0E0793038A17995
:10A09000303901EB810100EB410041B2C94880F841
:10A0A000D2120020C64908801421C448F6F7D7F818
:10A0B000C44890F8D202632802D10120ACE773E1D2
:10A0C0000220A9E70120A7E7C4A13046F6F7D2F89D
:10A0D000041E0ED0142204F10801C348F6F7A6F8B6
:10A0E0000020B74908803221B448F6F7B8F80220BA
:10A0F00092E7012090E7AFA13046F6F7BBF8041EC7
:10A1000018D000200190029003900490A4F1130154
:10A110000F2201A8F6F78AF8B349083901A800F020
:10A1200059FE0020A64908803221A448F6F797F886
:10A13000022071E700BF9FA13046F6F79BF8041E8E
:10A1400009D09E48002101604160018100209C49A6
:10A150000880022060E701205EE796A13046F6F70E
:10A1600089F8041E09D095480021016041600181F1
:10A1700000209349088002204EE701204CE79BA174
:10A180003046F6F777F80546002D7DD003A905F196
:10A190000C000BF0E7FB03A80EF07CFA9DF80D0015
:10A1A000401CC0B28DF80D009DF80E00401CC0B2DE
:10A1B0008DF80E009DF80E000A2190FBF1F201FBD4
:10A1C00012009DF80E100A2291FBF2F100EB011033
:10A1D000C7B201E097E075E09DF80D00114690FBD5
:10A1E000F1F201FB12009DF80D100A2291FBF2F131
:10A1F00000EB011000F0FF089DF80C00114690FBE9
:10A20000F1F201FB12009DF80C100A2291FBF2F111
:10A2100000EB011000F0FF093A46414648460CF0B9
:10A22000A3F99DF811000A2190FBF1F201FB120045
:10A230009DF811100A2291FBF2F100EB0110C7B258
:10A240009DF81000114690FBF1F201FB12009DF801
:10A2500010100A2291FBF2F100EB011000F0FF0850
:10A260009DF80F00114690FBF1F201FB12009DF8E2
:10A270000F100A2291FBF2F100EB011000F0FF0930
:10A280003A464146484600E01AE00CF091F9322186
:10A290004A48F5F7E4FF002049490880564800780D
:10A2A00008B90220B8E6002053490870534A07CA8B
:10A2B0008DE8070007216846FDF72CF90520ABE67D
:10A2C0000120A9E63BA13046F5F7D4FF041E18D0C3
:10A2D00000200190029003900490A4F113010F223A
:10A2E00001A8F5F7A3FF40491F3101A800F072FD56
:10A2F00000203349088032213048F5F7B0FF0220B2
:10A300008AE6012088E63EA13046F5F7B3FF041E39
:10A310003CD02748408820F00F00801D2449488009
:10A320000B2008703AA20221002007F001FB20490F
:10A33000087807F071F91E48408820F0400040304E
:10A340001B49488007F092F91E4890F84F01C0F36E
:10A35000001030B14FF400513148F8F733FF0128B5
:10A3600006D11E21174880F880121E2006F008FB37
:10A3700000201349088014211048F5F770FF4FF4AE
:10A38000806128480CF0A8FB022045E626480078AA
:10A39000401CC0B224490870062803DD0020087064
:10A3A000052039E6012037E600BF00BF002033E674
:10A3B000D00900204F4B000052445900E4200020F7
:10A3C000D809002058280020AAAA660B070101011D
:10A3D000CC0000002B4353513A2000002B51434343
:10A3E00049443A2000000000332B00202B514E54EA
:10A3F000503A20302C000000D6090020489802086E
:10A400002B51494F50454E3A20302C30000000006F
:10A41000636F6E6E65637420737563636573730039
:10A420000004004818180020C40A002010B5044693
:10A430002046FFF7C9FD0149487010BDD009002032
:10A4400010B565484078052815D106206249487046
:10A450000846408820F00F0048804FF400615F48B4
:10A460000CF03AFB00215E48A0F8F11280F8EF12E0
:10A4700080F8F012AEE058484078032807D1042055
:10A4800055494870410255480CF026FBA2E052485D
:10A49000407878B9012050494870084600780B2868
:10A4A000E8DA097801EB81014E4A02EB8101486844
:10A4B00080478FE048484078012863D14848B0F889
:10A4C000F102401C81B24648A0F8F11242480078DF
:10A4D00000EB8000434A02EB8000008A814279DD74
:10A4E00000213F48A0F8F11290F8EF02401CC1B2E1
:10A4F0003B4880F8EF123848007800EB800002EB10
:10A500008000807C814208DA3349097801EB8101BF
:10A5100002EB8101886880475CE033A202210020C1
:10A5200007F006FA2E4890F8F002401CC1B22C4801
:10A5300080F8F0122848007800EB8000294A02EBEE
:10A540008000C07C814219DA234800780A280BD1A8
:10A55000234890F8F302C043214991F8F31260F3C5
:10A5600000011F4880F8F3121B49097801EB8101B3
:10A570001C4A02EB8101C86880472BE00520164980
:10A58000487027E014484078022820D1124800780B
:10A590000B281FD00021124880F8EF120E480078D7
:10A5A00000EB80000F4901EB800040780B2811DAA6
:10A5B0000948007800EB800001EB800040780649F4
:10A5C000087000204870087807F026F802E005209F
:10A5D0000149487010BD0000D00900201818002063
:10A5E00058280020E8090020636F6E6E65637420B0
:10A5F0006661696C6564000070B5044620460AF027
:10A6000099F90546104890F85902D8B9E07C70B91C
:10A6100001210D4880F8651280F861120A21A0F826
:10A620007E124FF4806109480CF056FA0AE0E07C93
:10A63000022807D10121044880F86512C9020348A5
:10A640000CF04AFA284670BD58280020181800203F
:10A6500070B50446082602230F4A5A2000210AF04A
:10A6600033FC204605F04EFB0C480168C4F813107B
:10A670004068C4F817000948B0F86302401C81B272
:10A680000648A0F86312224631465A2008F0FEFD23
:10A690000546284670BD0000E02300205828002011
:10A6A00070B52DED028BB0EE408AB1EE080AB4EE23
:10A6B000C08AF1EE10FA0AD8B1EE060AB4EEC08AEA
:10A6C000F1EE10FA01D8022002E0012000E00020A3
:10A6D0000446274890F83B01C0F34105AC4209DA33
:10A6E000B1EE0C0AB4EEC08AF1EE10FA02D2BDEC63
:10A6F000028B70BD1E4890F83B0164F342001C4978
:10A7000081F83B0184EA050078B324B901211720C0
:10A7100003F086FA04E01DB90021172003F080FA47
:10A72000AC4216DD012C0AD1002003F045FE104991
:10A7300091F84311C1F3810003F064FE09E00120A8
:10A7400003F03AFE0A4991F84311C1F3011003F0F6
:10A7500059FE25B1E8B203F0F5FD0BF01FFA14B174
:10A76000E0B203F0D1FD03F0BFFD00BFBFE7000082
:10A770005828002030B502460B4603245D001068BF
:10A78000E84000EA0401084630BD000010B5002092
:10A790000449087004490870FF210448F5F75FFD7B
:10A7A00010BD0000140000201500002096140020A9
:10A7B00010B5032009F0A8FA10BD10B5032008F069
:10A7C0009BFF10BD1CB5044652480078062804D0F3
:10A7D00050480078052800D01CBD4F480078401C28
:10A7E000052190FBF1F201FB12004B4908704B4828
:10A7F0004078012818D1002009E0474909788842AB
:10A8000001DA2E2100E020210DF80010401C042860
:10A81000F3DB40480078062842D004236A46002132
:10A82000062006F083FF3BE03C488078012837D1C2
:10A830003B4890F90000002809DC364800780628DB
:10A8400020D038A20021084607F072F81AE03148FB
:10A850000078062804D038A20021084607F068F8DE
:10A860002F4890F9003038A203216846FCF7F4FF26
:10A8700028480078062805D002236A4600210720D0
:10A8800006F054FF264890F90000002802DA002064
:10A890002249887022480078401E40B22049087042
:10A8A0001E48407830BB1D48007818BB1B48807894
:10A8B00000BB18480078062800D18DE72348007FA8
:10A8C00090B923480078052803D021480078114921
:10A8D00008701048007807281ADA1E490D4A1278C5
:10A8E00051F82200804713E01849087F002108F042
:10A8F00057FA0DE00948007810B9032006F024F853
:10A900001548006800F57A70A0602046FFF7DAF974
:10A9100000BF61E788020020C2020020C3020020BD
:10A92000C6020020436F6E6E656374204F766572B9
:10A93000202020200000000074696D652072656D84
:10A9400061696E3A0000000025326400582800203A
:10A95000C10200208C020020B011002010B5044676
:10A960001748007838B11748007820B10D211648F3
:10A9700000F082FD10B103F08DFC10BD04221349DC
:10A980001148C01CFFF7F6FA042211490E48C01DF9
:10A99000FFF7F0FA06214FF4FA70FBF71BFD0120D8
:10A9A0000C4948770C48006800F57A700B498860BC
:10A9B0000846FFF787F900200249087000BFDCE76E
:10A9C0001500002014000020961400205C000020D8
:10A9D0005800002058280020B011002074100020DA
:10A9E00010B52DED068B82B004463848007838B19A
:10A9F0003748007820B11121364800F03DFD28B1DC
:10AA000003F048FC02B0BDEC068B10BD042201A986
:10AA10003048C01CFFF7AEFA022269462D48C01D1F
:10AA2000FFF7A8FABDF80000F5F7BBFE41EC1A0BE2
:10AA30009FED290B53EC102BF5F733FE41EC180B6F
:10AA40000198F5F7AEFE41EC190B53EC182BF5F716
:10AA500004FD234A03C2042201A91E480930FFF75E
:10AA600089FA022269461B480D30FFF783FABDF8C8
:10AA70000000F5F796FE41EC1A0B9FED170B53EC17
:10AA8000102BF5F70EFE41EC180B0198F5F789FE37
:10AA900041EC190B53EC182BF5F7DFFC114A03C2FC
:10AAA00000200B49087004214FF49970FBF792FCC9
:10AAB00001200D4948770D48006800F57A700C496F
:10AAC00088600846FFF7FEF800BF9BE715000020EE
:10AAD0001400002096140020000000000088C340ED
:10AAE000500000204800002058280020B01100200D
:10AAF0006010002010B504461D48007838B11D488C
:10AB0000007820B10D211C4800F0B6FC10B103F014
:10AB1000C1FB10BD042219491748C01CFFF72AFACF
:10AB200004221649091D1448C01DFFF723FA1448D2
:10AB300090ED000B134880ED7C0B134890ED000B5B
:10AB4000104880ED7A0B114890ED000A0D4880ED19
:10AB50007F0A0F4890ED000A0A4880ED7E0A002027
:10AB6000044908700B49087001F070F800BFD0E785
:10AB7000150000201400002096140020582A002000
:10AB800048000020582800205000002058000020D5
:10AB90005C0000204D01002010B504461E480078DE
:10ABA00038B11E48007820B11D211D4800F064FC1A
:10ABB00010B103F06FFB10BD9FED1A0B1B4880ED29
:10ABC0007A0B082200F5F8711548C01CFFF7D2F97E
:10ABD0000422174912480B30FFF7CCF9042214491C
:10ABE000091F0F480F30FFF7C5F90422104908313B
:10ABF0000B481330FFF7BEF904220D49091D084820
:10AC00001730FFF7B7F900200449087009490870A8
:10AC100001F01CF800BFCEE7150000201400002052
:10AC200096140020000000000000000058280020BA
:10AC3000542A00204D01002010B504461E4800781B
:10AC400038B11E48007820B127211D4800F014FCBF
:10AC500010B103F01FFB10BD9FED1A0B1B4880EDD8
:10AC60007A0B082200F5F8711548C01CFFF782F92D
:10AC70000422174912480B30FFF77CF904221449CB
:10AC8000091F0F480F30FFF775F9042210490831EA
:10AC90000B481330FFF76EF904220D49091D0848CF
:10ACA0001730FFF767F900200A4908700A49087051
:10ACB00000F0CCFF00BFCEE71500002014000020FC
:10ACC000961400200000000000000000582800201A
:10ACD000542A0020120000204D010020F8B507463C
:10ACE0002121324800F0F4F805463048B0F82160E0
:10ACF0002F48007840B12F48007828B1B54203D1E1
:10AD00002C480078242802DA03F0C4FAF8BD9FED3D
:10AD10002A0B2B4880ED7A0B9FED2A0A80ED7E0AE4
:10AD200022490C3168460CF043FE9DED000A244890
:10AD300080ED7F0A1D48407C1C49097C00EB012402
:10AD40001A49123168460CF033FE1F48604300EE8A
:10AD5000100AB8EEC00ADDED000A30EE200A10EE4F
:10AD6000101A0846F5F786FD0A4601461748C0E95D
:10AD700002120E49163168460CF01AFE9DED000ACB
:10AD80000F4880ED810A09491A3168460CF010FE1F
:10AD90009DED000A0A4880ED800A002005490870F0
:10ADA0000B49087000F052FF00BFAFE79614002077
:10ADB000150000201400002000000000000000002A
:10ADC000582800200000000040420F00402A0020C8
:10ADD0004D0100202DE9F04780460E4644464FF0D5
:10ADE0000009CA4600252046F5F762FAC7B22AE0F4
:10ADF0002078392808DD2078462802DD207866286A
:10AE000002DC2078373801E02078303800F0FF0984
:10AE1000601C04460078392808DD2078462802DDC9
:10AE20002078662802DC2078373801E02078303836
:10AE300000F0FF0A09F00F01504661F31F10705532
:10AE4000641C681CC5B207EBD771B5EB610FCFDB93
:10AE5000384607EBD0714910A7EB410191B120783A
:10AE6000392808DD2078462802DD2078662802DCB3
:10AE70002078373801E0207830387055705D000751
:10AE8000000E7055BDE8F08710B5002409E00848B1
:10AE9000015D0848005D814202D006F017FE10BD3A
:10AEA000641C042CF3DB06F09FF900BFF7E70000F9
:10AEB0006C190020E803002010B50246002002E0D3
:10AEC000535C0344D8B20B1EA1F10101F8D110BDAF
:10AED00010B502460023002003E0145C1C44A3B21A
:10AEE000401C8842F9DB184610BD0146002070471F
:10AEF00001460020704700007CB5002056490880BC
:10AF0000182256495648F5F791F9002430E004EB31
:10AF10004400534931F810004FF6FF7188420CD0BD
:10AF200004EB44014E4A32F8110004F02DF804EB12
:10AF300044014B4A22F8110008E004EB4400484960
:10AF400001EB40000021016081800FE004EB440030
:10AF5000434901EB40004088032806DA032004EB54
:10AF600044013F4A02EB4101488000BF601CC4B26B
:10AF7000042CCCDB002139E0002031E000EB400262
:10AF8000374B33F81230421C02EB4202344C34F897
:10AF90001220934222DD00EB4002234603EB4202E3
:10AFA000136800939288ADF8042000EB400223461A
:10AFB00003EB4203421C02EB420204EB4202146820
:10AFC0001C6092889A80421C02EB4202244B03EBE5
:10AFD0004202009B1360BDF804309380421CD0B243
:10AFE000C1F103028242C9DC481CC1B20429C3DB9F
:10AFF00000202DE000EB4001194A32F8112000EB4F
:10B000004001174B03EB41014B8800EB4001144C0E
:10B0100004EB41018988491E03FB01218DB200EB3D
:10B020004001224602EB4101898879B1411C01EBC4
:10B03000410132F81110C91EA94207DAE91C8AB28F
:10B04000411C01EB4101234623F81120411CC8B2E9
:10B050000328CFDB7CBD00003802002078290020C7
:10B060003C1900202DE9F04100260122574958489B
:10B07000F9F7D8FD012257495548F9F7F9FD554927
:10B08000497801F00F01534A5278121102EB820203
:10B0900001EB42024F49097801F00F014D4B1B783B
:10B0A0001B1103EB830301EB430102EB012188B287
:10B0B00003F06AFF0546002009E000EB4001464A24
:10B0C00002EB4101898831448EB2411CC8B2042888
:10B0D000F3DB00BF0EB9002451E040480088B042C5
:10B0E00004DB00203E490880BDE8F081002043E0F9
:10B0F0000027002109E001EB4102374B03EB42023C
:10B1000092883A4497B24A1CD1B2421C9142F2DB77
:10B1100000EB4001304A02EB4101898851B32F49CD
:10B120000988C91B26D500EB400132F8111000EB4D
:10B130004002294B03EB4202528800EB4003DFF848
:10B1400098C00CEB43039B88FB1ADFF890C0BCF857
:10B1500000C0ACEB030302FB03118CB2A54208DD77
:10B16000291B012905DD1D490988491C1B4A11803D
:10B17000B0E703E0411CC8B20428B9DB00BF18489F
:10B18000B0F90000002812DCA54210DB601C8542EB
:10B190000DDA7820124908804FF4000111480BF0B5
:10B1A0009BFC0E480088401C0C4908800CE00C48B1
:10B1B000B0F90000002807DD094800880A4909782D
:10B1C000401A00B20649088000BF8DE764010020E4
:10B1D0003C170020601700203C1900203802002096
:10B1E00046020020241700203C02002010B504462F
:10B1F00000200249087706F069FC10BD582800209D
:10B2000010B50548006847F230510844034988608A
:10B210000846FEF757FD10BDB01100206C0B002052
:10B2200010B52DED048B5D4890ED642BB0EE420A15
:10B23000F0EE620A90ED7C2BB0EE421AF0EE621A4C
:10B2400053EC102B51EC110BF5F7A8F941EC180B4E
:10B250009FED530B53EC102B51EC180BF5F71EFB25
:10B2600002D2BDEC048B10BD4C4890F88801012837
:10B2700038D14A4890F83D01C0F38000A8B1474852
:10B2800090ED661BB0EE410AF0EE610A53EC182B0C
:10B2900051EC100BF5F782F9434AC2E904013F482B
:10B2A00090ED7C0B80ED640B76E03C4890F83D011E
:10B2B000C0F3800000286FD1384890ED761BB0EEC7
:10B2C000410AF0EE610A53EC182B51EC100BF5F724
:10B2D00065F9354AC2E91401304890ED7C0B80EDE8
:10B2E000640B59E02D4890F88801022854D12B486E
:10B2F00090F83D01C0F3800020B3284890ED681B12
:10B30000B0EE410AF0EE610A53EC102B51EC180B31
:10B31000F5F752F941EC190B204890ED661BB0EEA1
:10B32000410AF0EE610A53EC102B51EC190BF5F7C2
:10B3300038F91D4AC2E90401184890ED7C0B80EDF4
:10B34000640B29E0154890F83D01C0F3800018BB5C
:10B35000124890ED681BB0EE410AF0EE610A53EC22
:10B36000102B51EC180BF5F727F941EC190B0B4892
:10B3700090ED761BB0EE410AF0EE610A53EC102B13
:10B3800051EC190BF5F70DF9074AC2E9140103480E
:10B3900090ED7C0B80ED640B00BF62E75828002025
:10B3A0000000000000000000E029002010B52E4839
:10B3B00090F85F0200B910BD2C4800780B2850D1DE
:10B3C000294890F84F01C0F3001030B14FF40051FC
:10B3D0002748F7F7F7FE012815D1234890F8800297
:10B3E000401EC1B2204880F8801290F8800220B13F
:10B3F0001D4890F880021E2833DD4FF400611D487F
:10B400000BF06AFB2DE0184890F84F01C0F30010D4
:10B4100038B3154890F8610218B34FF4005114483E
:10B42000F7F7D0FEE8B91048B0F87E0230B10E4808
:10B43000B0F87E1290F87C0281420ADD4FF40041A0
:10B440000C480BF049FB084890F87C12A0F87E12DB
:10B4500007E00548B0F87E02401E81B20248A0F81D
:10B460007E1200BFA7E7000058280020D009002066
:10B4700000040048181800202DE9FC4104460D4640
:10B480004FF6FF70019048F205070020009026E07B
:10B4900014F8010B00906946684604F07AFDBDF887
:10B4A00004009DF8001080EA01200190002614E0BD
:10B4B000BDF8040000F4004030B1BDF8040087EA94
:10B4C000400080B2019006E0BDF804004FF6FF7125
:10B4D00001EA40000190701CC6B2082EE8DB281E6D
:10B4E000A5F10105D4D101A901A804F03DFDBDF8E5
:10B4F0000400BDE8FC812DE9FC4104460D464FF6F1
:10B50000FF70019048F205070020009026E014F833
:10B51000010B00906946684604F03BFDBDF804004D
:10B520009DF8001080EA01200190002614E0BDF88B
:10B53000040000F4004030B1BDF8040087EA400088
:10B5400080B2019006E0BDF804004FF6FF7101EAF9
:10B5500040000190701CC6B2082EE8DB281EA5F141
:10B560000105D4D101A901A804F0FEFCBDF8040036
:10B57000BDE8FC8130B502460B46002015E012F80C
:10B58000015B80EA052000210DE000F400442CB1AD
:10B5900041F2210484EA4004A0B203E04FF6FF74B4
:10B5A00004EA4000491C0829EFD31C1EA3F1010343
:10B5B000E5D130BD0B46436104494A6848600160EB
:10B5C0004260106000BF00BF70470000B41100204F
:10B5D00010B5094800780949087007480078401CF0
:10B5E0000749097890FBF1F201FB1200024908704B
:10B5F00000F092F810BD0000A8020020A90200206F
:10B60000AA02002010B50A4800780A4908700848C4
:10B610000078094909780844401E0749097890FBD9
:10B62000F1F201FB12000249087000F075F810BD3C
:10B63000A8020020A9020020AA0200202DE9F0475C
:10B6400004460D4616461F46DDF820801448047057
:10B650001448057014480670144807601448C0F870
:10B6600000800068804705F05FF910480068804757
:10B670000B4800780C49097890FBF1F201FB1200AD
:10B6800009490978042292FBF1F1484300F0FF09CF
:10B690003E2300224946072006F06AF8BDE8F087FD
:10B6A000A8020020AA020020AB020020AC02002069
:10B6B000B002002010B5144800781449097890FBB6
:10B6C000F1F0C4B212480078124908700E480078B0
:10B6D0000E49097890FBF1F201FB120008B1601CE1
:10B6E000C4B20B4800780949097890FBF1F0401C7E
:10B6F00090FBF4F104FB1100044909784843044924
:10B70000087000F009F810BDAA020020AB0200206A
:10B71000A8020020A902002010B521480068804737
:10B72000204800782049097890FBF1F11F48007803
:10B730001D4A127890FBF2F0814205D005F0F4F832
:10B740001B480068804714E01848007816490978BB
:10B7500090FBF1F201FB120013490978042292FBDD
:10B76000F1F14843C4B2202300222146072005F00E
:10B77000FFFF0C4800780C49097890FBF1F201FBBF
:10B78000120009490978042292FBF1F14843C4B23E
:10B790003E2300222146072005F0EAFF10BD0000ED
:10B7A000B0020020A8020020AB020020A902002065
:10B7B000AC02002010B50246107800F00F0013789C
:10B7C0001B1103EB830300EB43000B7803F00F0323
:10B7D0000C78241104EB840403EB4403984201DD4C
:10B7E000012010BD507800F00F0053781B1103EBBF
:10B7F000830300EB43004B7803F00F034C782411D4
:10B8000004EB840403EB4403984201DD0120E8E7E4
:10B81000907800F00F0093781B1103EB830300EB8B
:10B8200043008B7803F00F038C78241104EB84041D
:10B8300003EB4403984201DD0120D2E7D07800F009
:10B840000F00D3781B1103EB830300EB4300CB788D
:10B8500003F00F03CC78241104EB840403EB4403BE
:10B86000984201DD0120BCE7107900F00F00137948
:10B870001B1103EB830300EB43000B7903F00F0371
:10B880000C79241104EB840403EB4403984201DD9A
:10B890000120A6E7507900F00F0053791B1103EB4C
:10B8A000830300EB43004B7903F00F034C79241121
:10B8B00004EB840403EB4403984201DD012090E78C
:10B8C00000208EE70146087800F00F000A78121178
:10B8D00002EB820200EB420063284CDC487800F067
:10B8E0000F004A78121102EB820200EB420001289D
:10B8F00041DB487800F00F004A78121102EB820217
:10B9000000EB42000C2836DC887800F00F008A78C3
:10B91000121102EB820200EB420001282BDB887837
:10B9200000F00F008A78121102EB820200EB420055
:10B930001F2820DCC87800F00F00CA78121102EB33
:10B94000820200EB4200172815DC087900F00F0096
:10B950000A79121102EB820200EB42003B280ADC5A
:10B96000487900F00F004A79121102EB820200EBD5
:10B9700042003B2801DD002070470120FCE72DE953
:10B98000F0470246507800F00F0092F801804FEA2D
:10B99000281808EB880800EB480009304FF00C0825
:10B9A00090FBF8F908FB190085B20A2095FBF0F02E
:10B9B00092F8008008F00F0892F800904FEA2919D9
:10B9C00009EB890908EB4908A8EB000083B24FF0A6
:10B9D000640893FBF8F84FEAE37903EB99794FEAAF
:10B9E000A90940F26D1A0AFB0399A9EB08084FF464
:10B9F000C87993FBF9F9C84405EB051909EBC909A6
:10BA00004FF0050A0AEB49094FF00A0A99FBFAF9C7
:10BA1000C14492F8028008F00F0892F802A04FEAA1
:10BA20002A1A0AEB8A0A08EB4A08A8F1010809EB6E
:10BA30000807487800F00F0091F801804FEA2818B5
:10BA400008EB880800EB480009304FF00C0890FB29
:10BA5000F8F908FB190086B20A2096FBF0F091F87D
:10BA6000008008F00F0891F800904FEA291909EBBF
:10BA7000890908EB4908A8EB000084B24FF064087C
:10BA800094FBF8F84FEAE47904EB99794FEAA909B5
:10BA900040F26D1A0AFB0499A9EB08084FF4C87923
:10BAA00094FBF9F9C84406EB061909EBC9094FF0F4
:10BAB000050A0AEB49094FF00A0A99FBFAF9C14451
:10BAC00091F8028008F00F0891F802A04FEA2A1AB4
:10BAD0000AEB8A0A08EB4A08A8F1010809EB080CEE
:10BAE000ACEB070000B2BDE8F08710B50446A11C1E
:10BAF000C8B201210BF064FD10BD000008B500BF05
:10BB00003948806D40F08050374988650846806D1F
:10BB100000F08050009000BF00BF1F2033498861B3
:10BB2000334800780A280BD03248F8F781FF00220A
:10BB30004FF4A0412F48F8F7CDFF0A202C49087098
:10BB40000120F7F7E1FF00BF00BF00BF00BF00BF4B
:10BB5000F7F7ACFEFAF7E8FF00BF2348C06C40F0EF
:10BB600010002149C8640846C06C00F01000009025
:10BB700000BF00BF00BF0846C06C40F00400C864AE
:10BB80000846C06C00F00400009000BF00BF00BF7A
:10BB90000846C06C40F00100C8640846C06C00F064
:10BBA0000100009000BF00BF00BF0846C06C40F01D
:10BBB0000200C8640846C06C00F00200009000BF9C
:10BBC00000BF00BF0846C06C40F00800C8640846CB
:10BBD000C06C00F00800009000BF00BF06480021C4
:10BBE0000160416008BD000000100240007000408C
:10BBF0003C0200203C1700208C11002070B5044648
:10BC000000BFEFF31080054672B6206820B160686F
:10BC100010B1204606F08FF800BF85F3108800BFF2
:10BC200070BD000010B501200AF0CAFB012005F02C
:10BC30005FFC012003490870012220210248F7F728
:10BC4000C9FA10BD4C010020000C004800B58BB0B3
:10BC5000012253495348F9F70BF801225249514840
:10BC6000F8F7E0FF5148C1688068CDE901014F480D
:10BC70006838C16E806ECDE903014D48D0F8FC01F3
:10BC800005904B48D0F8F80106904948D0F80402D6
:10BC900007904748D0F8000208904348C0788DF8D4
:10BCA0002400414840788DF825003F4880788DF881
:10BCB00026003B4800788DF82700394840788DF8F9
:10BCC0002800374880788DF8290001A9012001F06B
:10BCD000ADF9374890F85200002813DD3448B0F829
:10BCE00050000121B1EB102F0CD1314890F85200D7
:10BCF000401EC1B22E4880F8521000F152010120BE
:10BD000001F03FFD00200AF05BFB2948D0ED7E0AE0
:10BD1000B0EE600A06F010F9254890F83C01C0F337
:10BD2000801020B14FF4002122480AF0D5FE2048AF
:10BD3000B0F85000000A18B91D48B0F8500000E0F3
:10BD400028201B4991F85210401AC1B2184880F8B7
:10BD5000541000F5F871012001F012FA1349012086
:10BD600001F01FFA0121124880F8E0111021124859
:10BD70000AF0B2FE1148007828B91148007802286C
:10BD800001D105F053FB022005F0B2FB01200D4963
:10BD90000870012220210C48F7F71CFA0BB000BDF7
:10BDA000601700203C17002064010020402A00207A
:10BDB00058280020A8180020DC1800208802002045
:10BDC000890200204C010020000C004810B53848C2
:10BDD00090F8290000EB4000364901EB80008068B4
:10BDE00030B1B0F5806F08D0B0F5C06F0FD109E069
:10BDF00000212F4880F82D100EE001212C4880F8FA
:10BE00002D1009E002212A4880F82D1004E00021BD
:10BE1000274880F82D1000BF00BF0021244880F87B
:10BE20002C1080F82B1090F8290000EB40002149DD
:10BE300051F820101E480163024692F8292002EBB7
:10BE400042021C4C04EB82029368024692F82D20B9
:10BE500012B14FF4805200E000221146144A106BD8
:10BE60000022FBF7C1FB124890F8290000EB4000CC
:10BE7000104901EB800000790F4908700C49293105
:10BE8000012001F011FA0A493031012001F0AAF82D
:10BE900007492D31012001F004FD05492C31012015
:10BEA00001F010FD02492B31012001F01CFD10BDF5
:10BEB000582800206C0000204707002010B50249D8
:10BEC0000248FFF777FB10BD81C10108241700204D
:10BED00010B5124890F84400012800D110BD104858
:10BEE000007808B90AF006FA20210E48F7F76AF937
:10BEF00058B1002220210B48F7F76CF90A48006876
:10BF000000F5FA700949886003E0074800680749AE
:10BF100088600648FDF7D6FE00BFDFE758280020FE
:10BF20008C110020000C0048B011002050010020AE
:10BF300010B50446002005F0DBFA054991F82910F8
:10BF4000044A52F82100804701200149487710BD7A
:10BF500058280020140100202DE9F04114490878E8
:10BF600000EBD0714F100024002518E01148405D0F
:10BF700011490978884210D104EBD471B7EB610FF5
:10BF800009D1264604EBD6714910A4EB4101C8B291
:10BF9000294605F043FC601CC4B2681CC5B20748C2
:10BFA0000078074909780844A842DFDCBDE8F08141
:10BFB000A8020020780500208A0200204598020887
:10BFC0004698020870B50546284602F085FE0446EC
:10BFD00004F0100008B10DF0A1F804F0807008B171
:10BFE0000BF006FC70BD70B50546284602F074FEE5
:10BFF000044604F0010008B105F054FF04F002000B
:10C0000008B10BF0C9FA04F4802008B105F0E0FE95
:10C0100004F4002008B106F0F3FA70BD70B5ADF578
:10C02000006D06464FF400626946174809F072FB3E
:10C0300005461648007F01280ED1A9B2684603F0D4
:10C0400057FD044644B11149087F002106F0A8FEBF
:10C0500001F0F6FFFFF7D4F80C48407F01280FD11C
:10C060000A48007F60B90020084948772A46694697
:10C070000748F4F7DBF807490D70012006490870FE
:10C080000DF5006D70BD0000F0150020582800204F
:10C0900096140020140000201500002070B50546FD
:10C0A000284602F019FE044604F4001008B104F01A
:10C0B0008DFB04F4800028B10349044A127851F83A
:10C0C0002200804770BD0000540200206C02002056
:10C0D00010B50120FAF720F8154890ED7C1BB0EE62
:10C0E000410AF0EE610A134890ED001B53EC112B4E
:10C0F00051EC100BF4F7B1F90F4AC2E9020110211B
:10C100000E480AF0E9FC0A4890F83C01C0F38010A0
:10C1100020B14FF400210A480AF0DEFC09480078FB
:10C1200028B909480078022801D10BF0F5FF10BDAD
:10C130005828002080010020402A0020DC18002020
:10C14000A8180020880200208902002070B504464B
:10C15000204602F0C1FD054605F4007050B10648C6
:10C1600090F8440030B10548007908B905F054FF53
:10C17000FFF7AEFF70BD0000582800208C11002092
:10C1800070B504460B48007890B10B48007F78B931
:10C190000A48007860B9002006490870204602F07D
:10C1A0009BFD054605F4000008B1FFF791FE00BFB6
:10C1B00070BD00004C01002058280020680B0020B2
:10C1C00070B50446204602F087FD054605F40030B0
:10C1D00088B102F029FFFEF745FF09F0EFFE05F0F8
:10C1E0002BFF0AF05BFA0AF083FA0AF027FAFFF74E
:10C1F000DDF80CF0EDFD70BD70B505461848C0784F
:10C2000008B90CF089FD0021164880F81B1280F84F
:10C210001C12284602F060FD044604F0200018B10C
:10C2200009F050FC01F0A2FC04F0007018B109F014
:10C2300049FC01F06BFC04F0400008B101F062FC25
:10C240000948007810B90948007830B106480078EC
:10C25000032804D10648007808B905F0E7F870BD56
:10C260008C1100205828002088020020890200201C
:10C270008A02002070B505460948407908B9FBF7E5
:10C28000B9FA284602F028FD044604F0800008B1FF
:10C29000F5F7B0FB04F4807008B1F5F70FFC70BD42
:10C2A0008C1100202DE9F041ADF5006D80469648D7
:10C2B000407808B90CF0D8FF4FF400616846F3F7F6
:10C2C000CEFF404602F008FD044604F0010008B12C
:10C2D0000DF07CF804F4005000287ED04FF400618B
:10C2E000684602F079FD0546002D76D0294668465D
:10C2F00002F07EFD0746002F66D0844890F84F017B
:10C30000C0F3001030B14FF400518148F6F75AFFE6
:10C31000012806D11E217D4880F880121E2004F0DD
:10C320002FFB4FF4C0617B48F3F799FF79493846FA
:10C330000DF02DFA78490880002078490880784867
:10C34000408820F40070764948804FF400717548A9
:10C35000F3F785FF6D48B0F86602382809D16B48BD
:10C3600090F8650228B90121684880F8651202F04A
:10C37000FDF86948008878B16948408820F00F00CE
:10C380000830674948801E206049C1F869024FF4AF
:10C39000804165480AF0A0FB022107F1110002F07C
:10C3A00062FC162141186846A7EB00000E183146C2
:10C3B000684609F00FFBB5420ED94FF400515A48B8
:10C3C0000AF08AFB08E008E0B5F5006F04D14FF4ED
:10C3D0000061684609F0FEFA00BF04F48060E8B32B
:10C3E00003F07EFF4FF4C0614A48F3F738FF474837
:10C3F00090F84F01C0F30010D8B1444890F86102A2
:10C40000B8B94FF400514248F6F7DCFE88B93F480E
:10C41000B0F866025A2806D05A213C48A0F86612A5
:10C42000002180F868123B48FEF712F93A4908806B
:10C430000FE03648B0F86602382806D03821334875
:10C44000A0F86612002180F868120BF04BFB32490D
:10C45000088000212D4880F8651200E006E0FDF715
:10C46000CDFB4FF4804130480AF036FB04F4004025
:10C4700030B3264890F8610210B34FF4C0612548EC
:10C48000F3F7EDFE03F02CFF2048B0F866023F28DA
:10C4900006D03F211D48A0F86612002180F86812DE
:10C4A00000211A4880F86512FDF7A8FB194802F030
:10C4B00037FD194908804FF480411B480AF00CFBF6
:10C4C00004F4804018B1144800880AF091F904F48B
:10C4D000803058B11248408820F00F00C01D10492C
:10C4E00048800D4801880B480AF006FB04F4805090
:10C4F00008B108F07BFD04F4006008B108F0F1FC1D
:10C500000DF5006DBDE8F0818C1100205828002049
:10C5100000040048E41A0020D4090020D8090020B3
:10C52000D0090020E42000201818002070B505462E
:10C530000C4607480068807900F108020448016849
:10C540002046F3F773FE024800688079083070BD1A
:10C55000600B002010B504460B4804600068827927
:10C5600009480168C91D4FF4C040F4F703FF0648AD
:10C570000068827904480168C91D4FF4C040F4F78F
:10C58000BBFE012010BD0000600B002070B504460A
:10C590000D467CB91D49B1F84A10491EC1EB011284
:10C5A00002EB411101F5305188B22F222946F4F7F0
:10C5B000A3FE29E01548B0F84A00B42808DB0021A2
:10C5C0001248A0F84A1000F14A01012000F020F8BA
:10C5D0000E49B1F84A10C1EB011202EB411101F50D
:10C5E000305188B22F222946F4F7C4FE60B90748BB
:10C5F000B0F84A00401C81B20448A0F84A1000F18B
:10C600004A01012000F004F870BD00005828002005
:10C6100070B504460D462CB9022229464C20F4F789
:10C620006BFE28B124B1022229464C20F4F7A2FE69
:10C6300070BD000070B504460D467CB91B49B1F8C9
:10C640004810491EC1EB011202EB411101F5406196
:10C6500088B22F222946F4F74FFE26E01348B0F89F
:10C660004800A82807DB00201049A1F848004831FD
:10C67000012000F01DF80D49B1F84810C1EB01127E
:10C6800002EB411101F5406188B22F222946F4F7EF
:10C6900071FE50B90548B0F84800401C0349A1F8A4
:10C6A00048004831012000F003F870BD58280020F0
:10C6B00070B504460D462CB9022229464A20F4F7EB
:10C6C0001BFE28B124B1022229464A20F4F752FE6B
:10C6D00070BD000070B504460D467CB91D49B1F827
:10C6E0004C10491EC1EB011202EB411101F5A041B2
:10C6F00088B22F222946F4F7FFFD29E01548B0F84B
:10C700004C00242808DB00211248A0F84C1000F14E
:10C710004C01012000F020F80E49B1F84C10C1EB9B
:10C72000011202EB411101F5A04188B22F222946E6
:10C73000F4F720FE60B90748B0F84C00401C81B205
:10C740000448A0F84C1000F14C01012000F004F85E
:10C7500070BD00005828002070B504460D462CB965
:10C76000022229464E20F4F7C7FD28B124B1022247
:10C7700029464E20F4F7FEFD70BD70B504460D4607
:10C780002CB9012229462820F4F7B6FD28B124B19E
:10C79000012229462820F4F7EDFD70BD00B59DB0BB
:10C7A000FEA000681C901CA9012000F08BFE0DF17A
:10C7B0007101002000F086FE9DF871009DF8701058
:10C7C00088427DD1FF208DF870001CA9002000F068
:10C7D0001EFE9DF87000772873D1F149002000F00B
:10C7E00003FFF0490020FFF7C8FFEE49491C002075
:10C7F00001F09BF8EB49C91D002001F0A7F8E949B9
:10C800000B31002001F080F8E6491231002000F0E1
:10C810000FFFE4491031002000F0F7FEE149143128
:10C82000002000F0F5FCDF491131002000F092FEFD
:10C83000DC490F31002000F07AFEDA491331002084
:10C8400000F0D3FCD64948310020FFF731FFD4492E
:10C850004A310020FFF7DCFED1494C310020FFF7C0
:10C860007BFFCF494E31002000F0C0FDCC49B1F82C
:10C87000481021B1CA49B1F84810491E00E0002112
:10C88000C1EB011202EB411101F5406188B22F2288
:10C8900010A9F4F731FD10A8FFF714F8E8B1C24869
:10C8A00010990160BDF8441081809DF84000BF4997
:10C8B000C8709DF8410048709DF84200887001E002
:10C8C0004EE3FCE09DF84300B94908709DF8440030
:10C8D00048709DF84500887020E02320B249087018
:10C8E00009204870012088702120C8703820087104
:10C8F0000020487108460078AC49C870AA484078C2
:10C900004870A94880788870A748C078A8490870FE
:10C91000A54800794870A448407988700021162005
:10C9200001F07EF99F492939002000F029FC9D493A
:10C930003139002000F035FC99494531002000F0E4
:10C940002FFE98499139002000F017FE9549813952
:10C95000002000F083FC93494139002000F022FFC1
:10C9600090498939002000F02DFC8E49793900204A
:10C9700000F061FC8B496939002000F06CFE8949A8
:10C980005939002000F0A0FE86496139002000F0EE
:10C99000AEFE84495139002000F070FE81494939CA
:10C9A000002000F07EFE7E49EE31002000F0C3FE44
:10C9B0007C49D639002000F03BFD7A49D23900206D
:10C9C00000F047FD7749CE39002000F055FD75494C
:10C9D000CA39002000F063FD0FA9002000F008FF15
:10C9E0000F9800F4CC206E49C1F83B0101F25111BF
:10C9F000002000F0EAFE6A495E31002000F073FD7D
:10CA000068491731002001F01AF866492B310020DF
:10CA100001F002F863494931002000F09EFB6149B2
:10CA20005031002000F0A3FF5E49F939002000F0EA
:10CA3000EAFA6049002000F091FE59495031002087
:10CA400000F07AFB56495231002000F09AFE54491A
:10CA50005331002000F015FC51490831002000F04E
:10CA600055FD4F493031002000F0BCFA4C492B31C4
:10CA7000002000F038FF4A492C31002000F022FF4E
:10CA800047492D31002000F00CFF45492931002095
:10CA900000F00AFC42493831002000F03BFE4049DA
:10CAA0002031002000F0DBFE3D492631002000F05F
:10CAB000E7FE3B494431002000F085FD50E23EA1F5
:10CAC00003C9CDE91A013648DDE91A1206C0344916
:10CAD000012000F089FD33490120FFF74EFE314966
:10CAE000491C012000F021FF35492D48C0F82012D3
:10CAF000C0F8241200F50871012000F027FF294931
:10CB00000B31012000F000FF26491231012000F016
:10CB10008FFD0021224880F8291200F229210120EE
:10CB200000F073FD1F491431012000F071FB1D4915
:10CB30001131012000F00EFD0021194880F8281263
:10CB400000F50A71012000F0F2FC164913310120B2
:10CB500000F04BFB272110A8F3F781FB194903C90B
:10CB6000CDE90E0118A207CA0BAB07C3A7200C49D9
:10CB7000A1F84800B3210A48A0F84A102321A0F8E0
:10CB80004C10C721A0F84E100EA90120FFF752FD4E
:10CB90000EA90120FFF7FAFC0EA91BE0AA55000020
:10CBA00058280020712A0020700100206401002014
:10CBB000601700206029002012345678123456780D
:10CBC000F82401003C980208FFFFFFFFFFFF11223D
:10CBD000330000000120FFF77DFD0BA9012000F0CC
:10CBE000C7FB2320DF4908700920487001208870A6
:10CBF0002120C8703820087100204871084601685B
:10CC00000E918088ADF83C000EA90120FFF712FDBF
:10CC10000020D549A1F848000021D348A0F84A10C7
:10CC2000A0F84C10A0F84E1000F148010120FFF7C9
:10CC30003FFDCD494A310120FFF7EAFCCA494C319A
:10CC40000120FFF789FDC8494E31012000F0CEFBDD
:10CC5000C649012000F094FAC4490839012000F0C7
:10CC6000A0FAC1494531012000F09AFC0220BE49DA
:10CC700081F888019FEDBE0B084680ED680B00F53A
:10CC8000C471012000F079FCB8495839012000F046
:10CC9000E5FAB6491839012000F084FDB34960393E
:10CCA000012000F08FFAB1495039012000F0C3FA99
:10CCB000AE493039012000F007FDAC493839002079
:10CCC00000F015FDA9494039012000F0C4FCA74936
:10CCD0002839012000F00BFDA4492039012000F083
:10CCE000E0FC0220A04981F8EE009FEDA30A10EEBF
:10CCF000100AC1F8EF0033219B4880F8F31000F1CF
:10CD0000EE01012000F017FD38209749C1F84301DA
:10CD100001F24311012000F08BFB9449A939012055
:10CD200000F097FB4FF400608F49C1F84B0101F20E
:10CD30004B11012000F0A0FB26208B49A1F84F01E8
:10CD400001F24F11012000F0AAFB8849B5390120FA
:10CD500000F04EFD8549B139012000F05CFD9FEDEA
:10CD6000870A10EE100A8049C1F855019FED840A28
:10CD700010EE100AC1F851019FED820A10EE100A60
:10CD8000C1F85D019FED800A10EE100AC1F859014B
:10CD90009FED790A10EE100AC1F865019FED7B0A3C
:10CDA00010EE100AC1F86101BBEE0E0A10EE100A77
:10CDB000C1F86D019FED730A10EE100AC1F8690108
:10CDC0009FED730A10EE100AC1F875019FED710A0C
:10CDD00010EE100AC1F871019FED6F0A10EE100AF3
:10CDE000C1F87D019FED6D0A10EE100AC1F87901BE
:10CDF00001F25111012000F0E8FC69A2D2E90030F3
:10CE0000D2E90212CDE90730CDE90912102207A9B3
:10CE100055485E30F3F70AFA53495E31012000F0BD
:10CE200062FB52494031012000F009FE4F49543164
:10CE3000012000F0F1FD4D497231012000F08DF923
:10CE40004021494880F87C1259A100F28220F3F772
:10CE500036FA41F690714448A0F8F61200F26921C2
:10CE6000012000F084FD182255A101A8F3F7DEF996
:10CE700001A9012000F0C7F801A9012000F06EFC13
:10CE800039495031012000F057F93749523101201A
:10CE900000F077FC34495331012000F0F2F94EA143
:10CEA00031480830F3F70BFA2F490831012000F020
:10CEB0002DFB4FF416512C480163002180F82B10F4
:10CEC00080F82C1080F82D1000F13001012000F0C6
:10CED00089F825492B31012000F005FD22492C312C
:10CEE000012000F0EFFC20492D31012000F0D9FC99
:10CEF0001D492931012000F0D7F90A2200211A48E2
:10CF0000C0E90E21062300F12002012007F0DCFF1A
:10CF10000323154A26323248002107F0D5FF124973
:10CF20003831012000F0F6FB0F492031012000F0DC
:10CF300096FC0D492631012000F0A2FC02210A488E
:10CF400080F8441000F14401012000F03CFB772000
:10CF50008DF871000DF17101012000F058FA00BF49
:10CF60001DB000BD7001002058280020482A002074
:10CF7000000000000000F03F00000000000020C2A0
:10CF80000000A04200008C4200007A440000FA44F5
:10CF90000000F04200806D440000484200C0F344AD
:10CFA00086CAD727DEB54263B73960AA79C5D9B733
:10CFB0003132342E3232332E39342E3434000000E4
:10CFC000FFFFFFFFFFFFFFFFFFFFFFFFFFFFFFFF71
:10CFD000FFFFFFFFFFFFFFFF303930300000000090
:10CFE0007030010070B504460D462CB90422294664
:10CFF0001420F4F781F928B124B104222946142021
:10D00000F4F7B8F970BD70B504460D4634B918226E
:10D0100029464FF48B70F4F76FF930B12CB1182218
:10D0200029464FF48B70F4F7A5F970BD70B504462E
:10D030000D468CB93F4991F85010491E01EB410251
:10D0400002EB01114FF4806202EB410188B226220B
:10D050002946F4F751F96BE0364890F8530001285F
:10D060002CD1344890F8500040B30021314880F86A
:10D07000531000F15301012000F003F92D4890F8FE
:10D080005000401E2B49B1F8501060F307012948A9
:10D09000A0F8501090F8500000280FDC2548B0F898
:10D0A00050000121B1EB102F08D12248B0F85000F8
:10D0B00020F0FF0027301F49A1F850001D4890F8CC
:10D0C0005000282814DB1B4890F8500000F58070B1
:10D0D0001849A1F850000846B0F8500020F0FF01B0
:10D0E0001448A0F8501000F15001012000F024F87D
:10D0F000104991F8501001EB410202EB01114FF47D
:10D10000806202EB410026222946F4F733F978B910
:10D11000084890F85000411C0648B0F8500061F3F0
:10D1200007000449A1F850005031012000F004F834
:10D1300070BD00005828002070B504460D462CB97B
:10D14000022229465220F4F7D7F828B124B102224E
:10D1500029465220F4F70EF970BD70B504460D460D
:10D1600034B9012229464FF4E070F4F7C5F830B124
:10D170002CB1012229464FF4E070F4F7FBF870BDA2
:10D1800070B504460D462CB9082229463120F4F723
:10D19000B3F828B124B1082229463120F4F7EAF87F
:10D1A00070BD70B504460D462CB9082229462920C9
:10D1B000F4F7A2F828B124B1082229462920F4F76F
:10D1C000D9F870BD70B504460D4634B90822294619
:10D1D00040F24910F4F790F830B12CB108222946FA
:10D1E00040F24910F4F7C6F870BD70B504460D461C
:10D1F00034B90122294640F2BF10F4F77DF830B16E
:10D200002CB10122294640F2BF10F4F7B3F870BDEB
:10D2100070B504460D4634B9012229464FF4DF703B
:10D22000F4F76AF830B12CB1012229464FF4DF70CF
:10D23000F4F7A0F870BD70B504460D4634B9082265
:10D24000294640F25910F4F757F830B12CB10822B2
:10D25000294640F25910F4F78DF870BD70B50446B8
:10D260000D4634B90822294640F25110F4F744F82B
:10D2700030B12CB10822294640F25110F4F77AF867
:10D2800070BD70B504460D4634B90122294640F2FE
:10D29000C110F4F731F830B12CB10122294640F227
:10D2A000C110F4F767F870BD70B504460D462CB98F
:10D2B000012229461320F4F71FF828B124B10122D6
:10D2C00029461320F4F756F870BD000000B585B06C
:10D2D000012022498870012240214FF09040F5F74B
:10D2E00079FF0A20F4F786FC1D481E4908601E4895
:10D2F000486000211B4881600121C160002101615B
:10D3000041618161C1610162F5F7F8FF08B1F4F78D
:10D31000CFFC00211348F5F769FF08B1F4F7C8FC0A
:10D3200000211048F5F797FF08B1F4F7C1FC14216C
:10D330006846F2F794FF0820009011200190002029
:10D340000290039069460948F5F73EFE0022082145
:10D350000648F5F73FFF05B000BD00008C11002026
:10D3600000540040CC110020553D800000040048CE
:10D3700070B504460D466CB91B49B1F84E10491EF4
:10D3800001EBC10101F5B04188B209222946F3F74A
:10D39000B3FF27E01448B0F84E00C82808DB00218E
:10D3A0001148A0F84E1000F14E01012000F01EF8C7
:10D3B0000D49B1F84E1001EBC10101F5B04188B241
:10D3C00009222946F3F7D6FF60B90748B0F84E00A6
:10D3D000401C81B20448A0F84E1000F14E0101201B
:10D3E00000F004F870BD00005828002070B5044615
:10D3F0000D462CB9022229465020F3F77DFF28B1B3
:10D4000024B1022229465020F3F7B4FF70BD70B555
:10D4100004460D462CB9012229460020F3F76CFF83
:10D4200028B124B1012229460020F3F7A3FF70BDE3
:10D4300070B504460D462CB9042229469001F3F735
:10D440005BFF28B124B1042229469001F3F792FF33
:10D4500070BD70B504460D4634B9042229464FF418
:10D460008270F3F749FF30B12CB1042229464FF402
:10D470008270F3F77FFF70BD70B504460D4634B976
:10D48000042229464FF48470F3F736FF30B12CB1F3
:10D49000042229464FF48470F3F76CFF70BD70B519
:10D4A00004460D4634B9022229464FF48670F3F73C
:10D4B00023FF30B12CB1022229464FF48670F3F7D6
:10D4C00059FF70BD70B504460D462CB9012229469E
:10D4D0001046F3F711FF28B124B101222946104666
:10D4E000F3F748FF70BD70B504460D4634B990227D
:10D4F00029464FF40070F3F7FFFE30B12CB19022B3
:10D5000029464FF40070F3F735FF70BD70B504463F
:10D510000D462CB9042229461B20F3F7EDFE28B155
:10D5200024B1042229461B20F3F724FF70BD70B5F7
:10D5300004460D4634B90122294640F2BD10F3F7E6
:10D54000DBFE30B12CB10122294640F2BD10F3F7C9
:10D5500011FF70BD70B504460D4634B9012229464D
:10D560004FF4DE70F3F7C8FE30B12CB1012229462A
:10D570004FF4DE70F3F7FEFE70BD70B504460D4645
:10D5800034B9012229464FF4A470F3F7B5FE30B147
:10D590002CB1012229464FF4A470F3F7EBFE70BDC5
:10D5A00070B504460D4634B9012229464FF4C240F5
:10D5B000F3F7A2FE30B12CB1012229464FF4C2404C
:10D5C000F3F7D8FE70BD70B504460D462CB90122A4
:10D5D00029464920F3F790FE28B124B101222946BB
:10D5E0004920F3F7C7FE70BD70B504460D462CB94F
:10D5F000082229460220F3F77FFE28B124B1082231
:10D6000029460220F3F7B6FE70BD70B504460D46FC
:10D6100034B90122294640F2BB10F3F76DFE30B158
:10D620002CB10122294640F2BB10F3F7A3FE70BDD6
:10D6300070B504460D4634B9012229464FF4DD7019
:10D64000F3F75AFE30B12CB1012229464FF4DD70B8
:10D65000F3F790FE70BD70B504460D4634B908224C
:10D6600029464FF4B170F3F747FE30B12CB10822D0
:10D6700029464FF4B170F3F77DFE70BD70B50446D6
:10D680000D4634B9042229464FF4BB70F3F734FE3B
:10D6900030B12CB1042229464FF4BB70F3F76AFE77
:10D6A00070BD70B504460D4634B9082229464FF4C2
:10D6B000BD70F3F721FE30B12CB1082229464FF49A
:10D6C000BD70F3F757FE70BD70B504460D4634B912
:10D6D000082229464FF4B770F3F70EFE30B12CB193
:10D6E000082229464FF4B770F3F744FE70BD70B5B9
:10D6F00004460D4634B9042229464FF4B570F3F7B9
:10D70000FBFD30B12CB1042229464FF4B570F3F77C
:10D7100031FE70BD70B504460D462CB9082229466D
:10D720003920F3F7E9FD28B124B108222946392030
:10D73000F3F720FE70BD70B504460D4634B91A22C9
:10D7400029464FF49770F3F7D7FD30B12CB11A2268
:10D7500029464FF49770F3F70DFE70BD70B504467F
:10D760000D4634B9182229464FF42470F3F7C4FD4E
:10D7700030B12CB1182229464FF42470F3F7FAFD8A
:10D7800070BD70B504460D462CB9012229465420BF
:10D79000F3F7B2FD28B124B1012229465420F3F752
:10D7A000E9FD70BD70B504460D4634B9082229461E
:10D7B0004FF4C170F3F7A0FD30B12CB10822294617
:10D7C0004FF4C170F3F7D6FD70BD70B504460D4639
:10D7D00034B9302229464FF4C570F3F78DFD30B1CE
:10D7E0002CB1302229464FF4C570F3F7C3FD70BD4C
:10D7F00070B504460D4634B9042229464FF48770AB
:10D80000F3F77AFD30B12CB1042229464FF487702A
:10D81000F3F7B0FD70BD70B504460D4634B904226F
:10D8200029464FF48970F3F767FD30B12CB104221B
:10D8300029464FF48970F3F79DFD70BD70B504461D
:10D840000D462CB9012229464520F3F755FD28B194
:10D8500024B1012229464520F3F78CFD70BD70B537
:10D8600004460D462CB9062229460A20F3F744FD4A
:10D8700028B124B1062229460A20F3F77BFD70BDAA
:10D8800070B504460D462CB9032229461020F3F743
:10D8900033FD28B124B1032229461020F3F76AFD95
:10D8A00070BD70B504460D462CB9012229464820AA
:10D8B000F3F722FD28B124B1012229464820F3F7CD
:10D8C00059FD70BD70B504460D462CB9012229469C
:10D8D0004720F3F711FD28B124B101222946472042
:10D8E000F3F748FD70BD70B504460D462CB9012212
:10D8F00029464620F3F700FD28B124B1012229462C
:10D900004620F3F737FD70BD70B504460D462CB9BF
:10D91000042229462420F3F7EFFC28B124B1042285
:10D9200029462420F3F726FD70BD70B504460D4648
:10D930002CB9012229461F20F3F7DEFC28B124B1BF
:10D94000012229461F20F3F715FD70BD70B504466E
:10D950000D462CB9042229462020F3F7CDFC28B12E
:10D9600024B1042229462020F3F704FD70BD70B5D0
:10D9700004460D4634B9992229464FF43470F3F722
:10D98000BBFC30B12CB1992229464FF43470F3F727
:10D99000F1FC70BD70B504460E4613253CB905F583
:10D9A000347188B201223146F3F7A6FC38B134B1A4
:10D9B00005F5347188B201223146F3F7DBFC70BD06
:10D9C00070B504460E4619253CB905F5347188B288
:10D9D00050223146F3F790FC38B134B105F534717B
:10D9E00088B250223146F3F7C5FC70BD70B50446CD
:10D9F0000E468D253CB905F5347188B204223146B6
:10DA0000F3F77AFC38B134B105F5347188B20422E9
:10DA10003146F3F7AFFC70BD70B504460D4634B91E
:10DA2000142229464FF42F70F3F766FC30B12CB165
:10DA3000142229464FF42F70F3F79CFC70BD70B58B
:10DA400004460D4634B9142229464FF42A70F3F7E0
:10DA500053FC30B12CB1142229464FF42A70F3F74D
:10DA600089FC70BD10B50446054800EB4410103029
:10DA700004490860044951F82400804710BD0000A3
:10DA8000D8030020940600209806002010B5044614
:10DA9000054800EB4410103004490860044951F86F
:10DAA0002400804710BD0000D80300209406002009
:10DAB000B806002010B5044604EB8400044901EBCD
:10DAC000800004490860044951F82400804710BDD3
:10DAD000D8040020D8060020FC06002010B504461B
:10DAE00004EB8400044901EB800004490860044908
:10DAF00051F82400804710BDD8040020D80600202B
:10DB00001C07002010B5F9F7EBFD10BD10B5144847
:10DB100090F81802112804D0114890F818024428EF
:10DB200000D110BD0E4890F81802222809D00C48E8
:10DB300090F81802332804D0094890F81802662893
:10DB40000BD1F9F737FE0748006807490860002144
:10DB5000142000F065F80BF02FFA00BFE1E7000099
:10DB600058280020B01100209819002010B5134843
:10DB700090F81802112804D0104890F81802442890
:10DB800000D110BD0D4890F81902A8B90B4890F8C3
:10DB90001802222804D0094890F8180233280BD123
:10DBA000F9F708FE064800680649086000211420BD
:10DBB00000F036F80BF000FA00BFE2E7582800202A
:10DBC000B01100209819002010B5002008490870F5
:10DBD00004214FF4A370F8F7FDFB0648006800F538
:10DBE0007A70054988600846FCF76CF810BD0000A3
:10DBF00014000020B01100208810002070B50546E8
:10DC00000C46064890F85A02E0742E25224601215F
:10DC1000284605F03BFB0646304670BD58280020DC
:10DC20003EB505460C46012216491748F7F720F87D
:10DC3000012216491448F6F7F5FF1448C0788DF80C
:10DC40000000124840788DF80100104880788DF867
:10DC500002000C4800788DF803000A4840788DF8DF
:10DC60000400084880788DF805008DF806500020E3
:10DC70008DF807008DF8084069460120FFF778FB12
:10DC80003EBD0000601700203C170020640100200A
:10DC90002DE9FE4F0546884692460027002004E005
:10DCA000411C695C2954411CC8B20528F8DB592085
:10DCB00068712846FDF706FE10B9002000F0E0B8B4
:10DCC000B8F1180F01DD4FF018086C4890F84E407D
:10DCD0004FF0C8090146B1F84E10491E01EBC101D1
:10DCE00001F5B04188B209226946F3F705FB20E04F
:10DCF000B9F10000A9F1010101F0FF0905D15F4868
:10DD000090F84E00401CC4B219E06846FDF7DAFDF9
:10DD100008B9012413E0601EC4B204B9C824611E0E
:10DD200001EBC10101F5B04188B209226946F3F760
:10DD3000E3FA29466846FDF73DFD0028D8D100BF2B
:10DD400028789DF80010884213D168789DF801105A
:10DD500088420ED1A8789DF80210884209D1E8784F
:10DD60009DF80310884204D128799DF80410884258
:10DD700008D04248B0F84E00A04201D100209DE7F3
:10DD8000601CC4B23D48B0F84E00A04205DB3B48E1
:10DD9000B0F84E00001B401C06E0C4F1C801374833
:10DDA000B0F84E000844401C404513DA3348B0F840
:10DDB0004E00A04205DB3148B0F84E00001B401C6D
:10DDC00006E0C4F1C8012D48B0F84E000844401CDC
:10DDD00000F0FF082646C1460922694645F6FF6065
:10DDE000F3F78AFA6846FDF76DFD08BB17E0711E70
:10DDF00001EBC10101F5B04188B209226946F3F790
:10DE00007BFA07EBC700504400990160019941601B
:10DE10009DF808100172701CC6B2781CC7B2B9F127
:10DE20000000A9F1010101F0FF09E0D1384645E702
:10DE30001AE0711E01EBC10101F5B04188B209225F
:10DE40006946F3F759FA07EBC7005044009901609F
:10DE5000019941609DF808100172C82E00D100267A
:10DE6000701CC6B2781CC7B2B9F10000A9F101015B
:10DE700001F0FF09DDD1384620E7000058280020D6
:10DE80001EBCBDE8E08FF0B503460C4603F00F055D
:10DE90001E1106EB860605EB460505F5FA61CE1761
:10DEA00001EB9676B610A1EB86063EB9642691FB8F
:10DEB000F6F706FB17160EB1002209E04FF4C875FD
:10DEC00091FBF5F605FB16150DB9002200E00122C5
:10DED000132C27D2DFE804F0260A200C180E1A10A3
:10DEE000121C262626262626141E1600312019E08E
:10DEF000312017E0312015E0312013E0312011E00E
:10DF000031200FE031200DE030200BE0302009E01F
:10DF1000302007E0302005E00AB1282500E029255F
:10DF2000284600BF00BFF0BD70B50246D51702EB12
:10DF30009575AD10A2EB85052DB9642592FBF5F61C
:10DF400005FB162535B94FF4C87592FBF5F605FBB0
:10DF500016250DB9012300E000234C1CE1B20D2968
:10DF60001BD2DFE801F01A0714080F09100A0B1181
:10DF70000C120D0000BF00BF00BF00BF00BF00BFFC
:10DF80001F200AE000BF00BF00BF1E2005E00BB14C
:10DF90001D2400E01C24204600BF00BF70BD00000F
:10DFA0002DE9F04780460B26002416E02048006843
:10DFB000807804EB84011F4A32F8111088420AD19C
:10DFC00004EB840002EB4000D0F80610184800680B
:10DFD0008847054603E0FE25641CB442E6DB00BF2B
:10DFE000082600241FE012480068807804EB8401B2
:10DFF000114A32F81110884213D1FE2D11D004EBD2
:10E000008400114601EB4000D0F806200B49284659
:10E010009047814649460948F9F77CFA0120BDE856
:10E02000F087FE27641CB442DDDB3846F7E70000CA
:10E030005C0B0020049D0208A69B0208E723002039
:10E04000F0B5ADF6040D102500241BE00321254892
:10E050000068C01C00F0EEFD04EB4402224B03EB11
:10E0600082021268504008430AD104EB44001A4669
:10E0700002EB800081681B4800688847074603E080
:10E08000FE27641CAC42E1DB00BF0C25002425E028
:10E09000032114480068C01C00F0CCFD04EB4402CE
:10E0A000124B03EB820212685040084311D104EB7B
:10E0B0004400194601EB8000826801A93846904768
:10E0C000C6B2314601A8F8F787FD01200DF6040D10
:10E0D000F0BD681EA04200D1FE27641CAC42D7DB15
:10E0E0003846F3E7600B0020029E0208729D02088A
:10E0F00010B507F03DFE02490248FDF75BFA10BD7E
:10E10000C5BF0108DC1800202DE9F0472DED028B7A
:10E110000546B0EE408A4B4EA6F5D47090F8EE90CE
:10E12000052700200EE000EB8001474A11440968F2
:10E1300000EE101AB4EEC80AF1EE10FA01DBC7B215
:10E1400002E0401C0528EEDB00BF40480078B842E2
:10E150000AD0B9F1020F00D035B107EB87013A4A76
:10E160001144087900F04EF938480770052F01D0A6
:10E17000012000E00020044621460F2009F0BCFAEF
:10E1800080462DB1324890F8A801012800D1012421
:10E1900088EA0400B8B15CB1052000F0B5F80520AC
:10E1A00000F00AF9307801280BD00120307008E027
:10E1B000052000F0C7F8307808B10020307007F073
:10E1C000EDFC00F091F8B5EEC08AF1EE10FA01D83E
:10E1D000012000E0002004462DB11D4890F8A80160
:10E1E000022800D101242146102009F085FA80463A
:10E1F00088EA040008B3CCB1062000F085F80620B8
:10E2000000F0DAF8124890F83D01C0F3800090B9B0
:10E2100001210F4880F8191240210E4808F05CFCDB
:10E22000084971310120FEF7A8FA04E007F0B6FCB6
:10E23000062000F087F800F057F8BDEC028BBDE82F
:10E24000F0870000002A0020C018002004020020EF
:10E25000582800208019002010B50648007840B9E1
:10E260000548007818B104480078012801D103F06E
:10E27000DDF810BD880200208902002082B0CDE9BF
:10E28000000121F0004001909DED000B02B051EC27
:10E29000100B704710B50C480078022805D10020FB
:10E2A00009490870FDF7BEFC09E007480078401CEA
:10E2B000054908704FF40001044808F00DFC0120E6
:10E2C0000349087010BD00004D01002024170020F4
:10E2D0004C01002010B502490248FDF76BF910BD52
:10E2E000E7BF0108A818002010B50548007828B934
:10E2F00004480078042801D103F098F810BD00000C
:10E30000880200208902002070B505460C2003F029
:10E31000DDFD04462572002020600848006860602A
:10E320000648006810B105480068046003480460AE
:10E3300003480078401C0249087070BD8C01002021
:10E340009001002070B50546104804681AE0207A54
:10E35000A84216D1606810B1D4E9000108602068B5
:10E3600018B1D4E90010486002E00849606808600C
:10E37000204600F0C9F806480078401E044908709D
:10E3800070BD6468002CE2D100BFF9E78C01002069
:10E3900090010020024607480168002306E09342EE
:10E3A00001D1084670474968581CC3B20029F6D10C
:10E3B0000020F7E78C01002070B504460F48007F6D
:10E3C00010B90F48007800B170BD0C48B0F83801A2
:10E3D000204100F0010575B90848B0F83801012165
:10E3E000A14008430549A1F838010421034880F8F9
:10E3F000721204F073FB00BFE6E70000582800200B
:10E40000680B002010B504469CB104F0010060B117
:10E41000084890F8190240B90121064880F81912FD
:10E4200000F219210120FEF7A8F94021024808F066
:10E4300053FB10BD582800208019002070B50446F9
:10E440000D46002624B9284600F0EEF806460DE0F9
:10E45000012C0BD12DB9064890F82A0240F0100685
:10E4600004E0034890F82B0240F01006304670BDDF
:10E47000582800207CB50446204606F05BFA054685
:10E480001D4890F85902002834D11C48217DC170E4
:10E49000617D4170A17D81701948E17D0170217E0F
:10E4A0004170617E81701548C0788DF80000134876
:10E4B00040788DF80100114880788DF802001048EE
:10E4C00000788DF803000E4840788DF804000C4861
:10E4D00080788DF805006846FDF7F4F948B101220F
:10E4E00006490848F6F792FD012205490548F6F766
:10E4F000F3FD00BF28467CBD5828002064010020A1
:10E50000601700203C17002010B5002821D0114BC7
:10E510000022001F196803E0814203D80A464968B7
:10E520000029F9D152B11368841A9C4204D10068C1
:10E5300018441060104602E0506000E0186039B1E5
:10E5400002680B1A934203D10B681A4402604968AF
:10E55000416010BDC01100200349096801228240BA
:10E560001143014A11607047703B002010B5002133
:10E570002B4880F8531000F153010120FEF781FE73
:10E580000121274880F8621200F262210120FEF783
:10E59000E4FD234890F83C01C0F3401020B14FF453
:10E5A0008021204808F098FA1D4890F8521090F801
:10E5B0005400082801DB082002E0194890F85400B4
:10E5C0000844C1B2164880F8521090F8541090F8E0
:10E5D0005400082801DB082002E0114890F854009C
:10E5E000081AC1B20E4880F8541090F8540020B1B7
:10E5F0000B4890F8540028280CDD0021084880F8CA
:10E600005410A0F8501080F8521000F15001012071
:10E61000FEF792FD024952310120FFF7B2F810BD1A
:10E6200058280020A818002010B5044621460248AA
:10E63000FCF7A0F810BD00009B29002010B504468F
:10E6400021460248FCF796F810BD00009F290020E3
:10E6500010B5044621460248FCF78CF810BD0000B6
:10E66000A329002070B506460422C54906F10B0017
:10E67000FBF780FC0422C249091D06F10F00FBF7DD
:10E6800079FC0422BE49083106F11300FBF772FC45
:10E69000BC4890F84B0100F00300032819D1022177
:10E6A00006F1170000F0C6FA04B204F4004018B1F5
:10E6B000C4F30E04604204B200EE104AF8EEC00A41
:10E6C0009FEDB11A80EE810A10EE100AAD49C1F833
:10E6D0005101AC4890F84B01C0F38100032819D1D7
:10E6E000022106F1190000F0A5FA04B204F400407A
:10E6F00018B1C4F30E04604204B200EE104AF8EE02
:10E70000C00A9FEDA11A80EE810A10EE100A9D4901
:10E71000C1F855019B4890F84B01C0F30110032844
:10E7200012D1042106F11B0000F084FA054600EE28
:10E73000105AF8EEC00A9FED941A80EE810A10EE8E
:10E74000100A9049C1F859018E4890F84B010321F5
:10E75000B1EB901F12D1042106F11F0000F06AFAFC
:10E76000054600EE105AF8EEC00A9FED871A80EEBB
:10E77000810A10EE100A8349C1F85D01814890F8C2
:10E780004C0100F00300032812D1042106F12300FC
:10E7900000F050FA054600EE105AF8EEC00A9FED60
:10E7A0007A1A80EE810A10EE100A7649C1F86101EA
:10E7B000744890F84C01C0F38100032812D1042161
:10E7C00006F1270000F036FA054600EE105AF8EE82
:10E7D000C00A9FED6D1A80EE810A10EE100A694999
:10E7E000C1F86501674890F84C01C0F30110032897
:10E7F00019D1022106F12B0000F01CFA04B204F436
:10E80000004018B1C4F30E04604204B200EE104A96
:10E81000F8EEC00A9FED5C1A80EE810A10EE100A35
:10E820005849C1F86901574890F84C010321B1EBF0
:10E83000901F19D1022106F12D0000F0FBF904B25E
:10E8400004F4004018B1C4F30E04604204B200EEB8
:10E85000104AF8EEC00A9FED4C1A80EE810A10EEC5
:10E86000100A4849C1F86D01464890F84D0100F082
:10E870000300032812D1042106F12F0000F0DAF979
:10E88000054600EE105AF8EEC00A9FED3F1A80EEE2
:10E89000810A10EE100A3B49C1F87101394890F81D
:10E8A0004D01C0F38100032812D1042106F1330089
:10E8B00000F0C0F9054600EE105AF8EEC00A9FEDD0
:10E8C000321A80EE810A10EE100A2E49C1F8750145
:10E8D0002C4890F84D01C0F30110032812D10421F7
:10E8E00006F1370000F0A6F9054600EE105AF8EEE2
:10E8F000C00A9FED251A80EE810A10EE100A214908
:10E90000C1F879011F4890F84D010321B1EB901F28
:10E9100012D1042106F13B0000F08CF9054600EE0F
:10E92000105AF8EEC00A9FED181A80EE810A10EE18
:10E93000100A1449C1F87D01022211490C3106F177
:10E940003F00FBF717FB0E490120FEF771FD0C4954
:10E95000091D0120FEF77DFD094908310120FEF760
:10E960008BFD07490E310120FEF72FFF04490C31C2
:10E970000120FEF794FD05480068007970BD000095
:10E980009B290020582800200000C8425C0B002072
:10E990002DE9F04707460E464FF03C08A248016AB1
:10E9A000C6F80510808CA6F80900042206F10B01B8
:10E9B0009E48FBF7DFFA042206F10F019B48001D79
:10E9C000FBF7D8FA042206F1130198480830FBF748
:10E9D000D1FA9548D0F8510100EE100ADFED940A03
:10E9E00020EE200ABDEEC00A10EE100A04B204F4B4
:10E9F000004020B1604204B244F4004004B202235B
:10EA000006F117022046E11706F052FA8648D0F8C0
:10EA1000550100EE100ADFED860A20EE200ABDEE59
:10EA2000C00A10EE100A04B204F4004020B16042A3
:10EA300004B244F4004004B2022306F11902204655
:10EA4000E11706F035FA7848D0F8590100EE100ABF
:10EA5000DFED770A20EE200ABDEEC00A10EE105A54
:10EA6000042306F11B022846E91706F021FA6E4836
:10EA7000D0F85D0100EE100ADFED6D0A20EE200AED
:10EA8000BDEEC00A10EE105A042306F11F022846FC
:10EA9000E91706F00DFA6448D0F8610100EE100A9B
:10EAA000DFED630A20EE200ABDEEC00A10EE105A18
:10EAB000042306F123022846E91706F0F9F95A481B
:10EAC000D0F8650100EE100ADFED590A20EE200AA9
:10EAD000BDEEC00A10EE105A042306F127022846A4
:10EAE000E91706F0E5F95048D0F8690100EE100A80
:10EAF000DFED4F0A20EE200ABDEEC00A10EE100A2C
:10EB000004B204F4004020B1604204B244F4004076
:10EB100004B2022306F12B022046E11706F0C8F9E1
:10EB20004148D0F86D0100EE100ADFED410A20EEF9
:10EB3000200ABDEEC00A10EE100A04B204F4004030
:10EB400020B1604204B244F4004004B2022306F152
:10EB50002D022046E11706F0ABF93348D0F87101D9
:10EB600000EE100ADFED320A20EE200ABDEEC00AE8
:10EB700010EE105A042306F12F022846E91706F07A
:10EB800097F92948D0F8750100EE100ADFED280A40
:10EB900020EE200ABDEEC00A10EE105A042306F142
:10EBA00033022846E91706F083F91F48D0F87901A7
:10EBB00000EE100ADFED1E0A20EE200ABDEEC00AAC
:10EBC00010EE105A042306F137022846E91706F022
:10EBD0006FF91548D0F87D0100EE100ADFED140A38
:10EBE00020EE200ABDEEC00A10EE105A042306F1F2
:10EBF0003B022846E91706F05BF9022206F13F01C5
:10EC00000A480C30FBF7B6F908F0FF01F8B23246BB
:10EC100000F0E0FB08F0FF00314600F0ABFB81465E
:10EC20004846BDE8F0870000582800209B290020B6
:10EC30000000C842F0B502460B460025284629468A
:10EC400006E00C0244EA1061000212F8014B204376
:10EC50001C1EA3F10103F4DCF0BD02460020704746
:10EC6000014600207047F0B503460A4600252846B5
:10EC7000294605E00C0244EA106100029C5C204336
:10EC8000141EA2F10102F5DCF0BD0000F0B5034650
:10EC90000C46002000BFEFF31086354672B69E8802
:10ECA000B7B21E88B1B22E4686F3108800BF0CE0C2
:10ECB000CEB2FF2E02D1074E765C3102054E765C55
:10ECC0002654401C4E1CB1B2521E0AB1B942EFD1BB
:10ECD000F0BD0000702B002010B5014600BFEFF31F
:10ECE0001080024672B68B6800208860104680F360
:10ECF000108800BF184610BD0146002001E0401CEE
:10ED0000490801F00102002AF9D070472DE9F843C3
:10ED100080460C4692256421201DF1F7A0FA4FF49D
:10ED200000512948F4F74EFA18B9002084F837004A
:10ED300020E000260BE000BFEFF31080074672B61C
:10ED4000F2F758FE384680F3108800BF761C052E77
:10ED5000F1DB1E4890ED000AF1EE060AB4EEE00A7F
:10ED6000F1EE10FA03DD002084F8370002E0012004
:10ED700084F837000822164904F16800F2F7DAFD3A
:10ED800008221349273104F17700F2F7D3FD14224A
:10ED90000F49083104F18600F2F784FA2246294629
:10EDA000062000F011FBA91E2046FCF7A4FB0090F2
:10EDB000A81E2044BDF800100180002005490870FD
:10EDC0002846BDE8F8830000000400488C070020B6
:10EDD0002B2B0020680B002070B504460D462A46F8
:10EDE00021460248FFF752FF70BD000008180020BE
:10EDF0002DE9F04705468846002400BF04E0285D61
:10EE0000CC2800D102E0641C4445F8D300BFA8EB35
:10EE10000400132802D20020BDE8F08705EB040AA5
:10EE200002210AF11100FFF71EFF814609F11606C3
:10EE300040F22A40864201D9641CDFE7A019401E37
:10EE4000285CEE2815D1311F621CA818FCF792FB34
:10EE50000746A019C01E295CF8B2814205D1A0194D
:10EE6000801E285CB0EB172F01D0641CC6E750460B
:10EE7000D2E7641CC2E7000010B502461B240A4B0F
:10EE800000210CE001EB810003EB40000088904280
:10EE900004D101EB810003EB400010BD491CA142ED
:10EEA000F0DB0020F9E700005498020810B5024694
:10EEB0001E240A4B00210CE001EB810003EB400013
:10EEC0000088904204D101EB810003EB400010BDAB
:10EED000491CA142F0DB0020F9E70000629902081A
:10EEE00070B50446204605F025FD05460B4890F810
:10EEF000590260B9E07C28B90121084880F8651200
:10EF0000284670BDE07C012801D12846F9E70021A0
:10EF1000024880F85A122E20F3E7000058280020FB
:10EF200070B504460A260223154A3F20002105F049
:10EF3000CBFF204600F0E6FE0121124880F87D124A
:10EF400090F87D02E0740F48D0F8730260610D48BC
:10EF5000D0F87702E0610B4890F87B0284F820003B
:10EF60000848B0F86302401C81B20648A0F863125A
:10EF7000224631463F2004F089F90546284670BDF7
:10EF8000E0230020582800200146CAB20B0AC3EB38
:10EF9000031302EB830070472DE9F04704460D464A
:10EFA00016461F46DDF820804FF00009DCB925B178
:10EFB000012D09D0022D15D10DE0424639463046CB
:10EFC000FAF78EFA81460DE0424639463046FAF7A6
:10EFD000E9F8814606E0424639463046FAF71EFC1B
:10EFE000814600BF1DE0012C1BD125B1012D09D0A8
:10EFF000022D15D10DE0424639463046FAF72AFB7C
:10F0000081460DE0424639463046FAF785F9814699
:10F0100006E0424639463046FAF7BAFC814600BF60
:10F0200000BF4846BDE8F08730B52DED028B8DB0AE
:10F030000122BE49BE48F5F7F5FD0122BD49BC4895
:10F04000F5F716FEBC48B0F90000002878DCB94896
:10F050004078012874DCF020B7490880B348C078B4
:10F060008DF80400B14840788DF80500AF488078ED
:10F070008DF80600AF4800788DF80700AD4840785D
:10F080008DF80800AB4880788DF80900AB4881689E
:10F09000CDF80A10C068CDF80E00A8486838816E17
:10F0A000CDF81210C06ECDF81600A548D0F8FC01BE
:10F0B000CDF81A00A248D0F8F801CDF81E00A048FB
:10F0C000D0F80402CDF822009D48D0F80002CDF817
:10F0D00026009B4890F888018DF82A00984890ED0A
:10F0E000681BB0EE410AF0EE610A9FED961B53ECEF
:10F0F000112B51EC100BF1F75FFA41EC180BF1F703
:10F1000088FB0446CDF82B408D4890ED661BB0EE91
:10F11000410AF0EE610A9FED8D1B53EC112B51EC6F
:10F12000100BF1F749FA41EC180BF1F753FB0546C8
:10F13000CDF82F5001A90120FDF77CFA0DE0FFE783
:10F140007D48B0F90000002807DD7B480088814930
:10F150000978401A00B2784908807F48B0F9000069
:10F1600000287DDC73480078232803D1714840785B
:10F17000592807DA6F480078002871D16D48407827
:10F1800000286DDCF020744908806848C0788DF84C
:10F190000400664840788DF80500644880788DF852
:10F1A0000600644800788DF80700624840788DF8C2
:10F1B0000800604880788DF8090060488168CDF8C3
:10F1C0000A10C068CDF80E005C486838816ECDF832
:10F1D0001210C06ECDF816005948D0F8FC01CDF8D9
:10F1E0001A005748D0F8F801CDF81E005448D0F85E
:10F1F0000402CDF822005248D0F80002CDF82600D3
:10F200004F4890F888018DF82A004D4890ED681B12
:10F21000B0EE410AF0EE610A9FED4A1B53EC112B50
:10F2200051EC100BF1F7C8F941EC180BF1F7F1FABA
:10F230000446CDF82B40424890ED661BB0EE410AE3
:10F24000F0EE610A9FED411B53EC112B51EC100BBA
:10F25000F1F7B2F941EC180BF1F7BCFA054600E002
:10F2600013E0CDF82F5001A90120FDF78FF92F4AA7
:10F270005178D078FEF707FE2C498978884211D161
:10F2800001A90120FDF726FA0CE03348B0F900008F
:10F29000002807DD304800882E490978401A00B25E
:10F2A0002D4908802D48B0F9000000282DDC2148A8
:10F2B000007850BB1F484078022826DAF020274902
:10F2C0000880002026490880264908801C49A1F8AA
:10F2D00038014FF48021244807F0FEFB0120234928
:10F2E0000870C104204807F0F7FB154890F83D016D
:10F2F000C0F38010B0B90D480078072812D14FF440
:10F3000080711B4807F0E8FB0CE01448B0F90000DE
:10F31000002807DD114800880E490978401A00B21C
:10F320000E4908800DB0BDEC028B30BD6401002099
:10F330003C1700206017002040020020402A0020D7
:10F3400058280020000000000088C3400000000092
:10F35000000059403C0200204202002044020020EC
:10F36000380200203A020020A8180020DC0100200A
:10F370008019002038B504460D46611D2846FCF76B
:10F38000BAF80090601D2844BDF800100180E01D0F
:10F3900038BD000010B504460948D4F805100160D6
:10F3A000D4F80910416001460120FEF71DF9012142
:10F3B000034880F8591203480068007910BD000026
:10F3C000582800205C0B00204AF6AA231380907076
:10F3D000D17070474AF6AA2313800A239370D17024
:10F3E0001071704710B54FF400610448FAF7B8FD8A
:10F3F00003490448FCF7DEF810BD0000F0150020BA
:10F400001DC00108D81500202DE9F04106460D4623
:10F41000102408220849681DF2F7D3FA2146F0B2F9
:10F420002A46FFF7D7FF20462946FFF7A3FF0746E6
:10F430003846BDE8F0810000582800202DE9F04151
:10F4400007460C46012509490968087922462946DC
:10F45000FFF7C0FF064890F8590260712146284620
:10F46000FFF788FF06463046BDE8F0815C0B0020C0
:10F47000582800202DE9F04106460C460825114881
:10F4800000786071104890F82B00A0710E4890F839
:10F490002C00E071042204F108010B483030FAF727
:10F4A00069FD094890F82D0020732946F0B22246E4
:10F4B000FFF790FF28462146FFF75CFF07463846D6
:10F4C000BDE8F08147070020582800202DE9F041D1
:10F4D00006460D460124084890F87C0268712146D2
:10F4E000F0B22A46FFF776FF20462946FFF742FF93
:10F4F00007463846BDE8F081582800202DE9F04144
:10F5000006460D46102410220849681DF0F78EFEAD
:10F510002146F0B22A46FFF75DFF20462946FFF755
:10F5200029FF07463846BDE8F0810000602800202A
:10F53000F8B506460C4600251948016A44F8051F2F
:10F54000808CA0801648C18CE18090F82800207241
:10F55000641F134890ED7C1BB0EE410AF0EE610A87
:10F5600051EC100BF1F7CAF90090042204F10E01DE
:10F570006846FAF7FFFC022204F11201084838300D
:10F58000FAF7F8FC0F352946F0B22246FFF722FFC2
:10F5900028462146FFF7EEFE07463846F8BD000034
:10F5A0005828002070B50446364861790170364805
:10F5B000A17980F82B10E17980F82C10042200F159
:10F5C000300104F10800FAF7D5FC2F48217B80F8C0
:10F5D0002D1090F82C0030B1012806D0022807D059
:10F5E00003280BD107E000260AE04FF4805607E01D
:10F5F0004FF4405604E04FF4005601E0002600BFEF
:10F6000000BF214890F82D0020B1012804D0022825
:10F6100008D104E0002507E04FF4806504E04FF4D2
:10F62000C06501E0002500BF00BF15B14FF4805256
:10F6300000E000221146144A2B46106B3246F7F7C1
:10F64000D3FF11492A310120FEF7F8F80E492B317A
:10F650000120FEF748F90C492C310120FEF732F960
:10F66000094930310120FDF7BDFC07492D3101204A
:10F67000FEF717F90121044880F859120348006881
:10F68000007970BD47070020582800205C0B00203F
:10F6900010B590B0044660790F909DF83C000128A9
:10F6A0004DD19FED7F0B804880ED760B9FED7C0B5D
:10F6B00080ED660B9FED7A0B80ED640B9FED780B70
:10F6C00080ED700B0021C0F8B8119FED750B80ED37
:10F6D0006C0BC0F8C8119FED720B80ED740B90F8A5
:10F6E0003D0120F00400001D6F4981F83D0101F546
:10F6F000CC710120FDF7B2FD6C490120FDF762FDE0
:10F700006A4930310120FDF7DFFF684928310020C8
:10F71000FDF7EDFF654920310120FDF79CFF6349AE
:10F7200038310120FDF7E3FF604940310120FDF74A
:10F73000B8FF5E4948310120FEF734F89BE09DF8A0
:10F740003C000028FAD1272105A8F0F788FD584988
:10F7500003C9CDE9030157A207CA8DE80700A72016
:10F760005149A1F84800B3214F48A0F84A1023217D
:10F77000A0F84C10C721A0F84E1003A90120FCF7F7
:10F7800059FF03A90120FCF701FF03A90120FCF7A1
:10F79000A1FF69460120FDF7EBFD232048490870D1
:10F7A00009204870012088702120C8703820087115
:10F7B000002048710846016803918088ADF8100068
:10F7C00003A90120FCF736FF00203749A1F84800C3
:10F7D00000213548A0F84A10A0F84C10A0F84E10AF
:10F7E00000F148010120FCF763FF2F494A31012055
:10F7F000FCF70EFF2C494C310120FCF7ADFF2A49E4
:10F800004E310120FDF7F2FD9FED250B264880EDDE
:10F810007C0B9FED230B80ED7A0B00F5F871012036
:10F82000FDF7AEFC214958310120FDF7BAFC9FEDF0
:10F83000250A1D4880ED7F0A9FED220A80ED7E0A91
:10F840009FED200A80ED810A9FED1E0A80ED800A5F
:10F850009FED130B80ED640B90F83D0120F0020149
:10F86000114880F83D1190F83D0120F004010E4848
:10F8700080F83D1100BF00F033FD0C4955390120DF
:10F88000FDF7B6FF1021104807F026F901210648C0
:10F8900080F859120D480068007910B010BD0000C2
:10F8A000000000000000000058280020E829002087
:10F8B000C49E0208FFFFFFFFFFFF1122330000007C
:10F8C0007001002000000000DC1800205C0B00200C
:10F8D00010B504466179084880F87C1200F269216D
:10F8E0000120FEF744F80121034880F8591203482B
:10F8F0000068007910BD0000582800205C0B002033
:10F9000010B504460848D4F80510816000F10801DC
:10F910000120FDF7FBFD0121034880F8591203483F
:10F920000068007910BD0000582800205C0B002002
:10F9300010B52DED028B82B00446042201A9601D92
:10F94000FAF718FB0198F0F72CFF41EC180B9FED2C
:10F950000E0B53EC102BF0F7A4FE0D4AC2E9140174
:10F9600002F150010120FDF71DFF1021094807F0A9
:10F97000B3F80121084880F8591208480068007956
:10F9800002B0BDEC028B10BD000000000000594029
:10F99000E0290020DC180020582800205C0B002003
:10F9A0001CB504462B4854F8051F0162A1888184C8
:10F9B000E188C184217A641F80F82810042201A9FB
:10F9C00004F10E00FAF7D6FA9DED010AB5EEC00A71
:10F9D000F1EE10FA03D29FED200A8DED010A019895
:10F9E000F0F748FF1D4AC2E902010222694604F10C
:10F9F0001200FAF7BFFABDF800000A280AD0BDF8D5
:10FA00000000642806D0BDF80000B0F57A7F01D070
:10FA1000FE201CBD0F48BDF80010018700F1200139
:10FA20000120FDF71CFF0B4926310120FDF728FFBF
:10FA30000A4908310120FDF7A3FB064938310120AE
:10FA4000FDF768FE0121034880F859120448006858
:10FA50000079DEE75828002000000000402A00203E
:10FA60005C0B002010B504460F48A179C170E17904
:10FA70004170217A81700D48617A0170A17A4170DC
:10FA8000E17A8170012208490948F5F7BFFA01229D
:10FA900006490748F5F720FB0121064880F859126E
:10FAA00005480068007910BD64010020601700203F
:10FAB0003C170020582800205C0B00202DE9F04165
:10FAC00006460D4601240122691D0848FAF752FA3C
:10FAD0002146F0B22A46FFF77DFC20462946FFF773
:10FAE00049FC07463846BDE8F08100008128002027
:10FAF00010B5024600200BE0135CAA2B07D1431C73
:10FB0000D35CAA2B03D11318094C236003E0401CDB
:10FB1000CB1F8342F0DC00BF054800688078662870
:10FB200001D0002010BD02480068C01CFAE70000A8
:10FB3000600B002038B5044604226946601DFAF7C0
:10FB400019FA4FF47A71009848430849C1F8240221
:10FB50000121064880F8591200F509710120FDF7CE
:10FB6000D3FE03480068007938BD00005828002003
:10FB70005C0B0020F8B506460D4604240C48D0F86E
:10FB800024024FF47A71B0FBF1F000900422691D59
:10FB90006846FAF7EFF92146F0B22A46FFF71AFC59
:10FBA00020462946FFF7E6FB07463846F8BD000029
:10FBB0005828002038B5044604226946601DFAF72B
:10FBC000D9F94FF47A71009848430849C1F82002E6
:10FBD0000121064880F8591200F508710120FDF74F
:10FBE000B5FE03480068007938BD000058280020A1
:10FBF0005C0B0020F8B506460D4604240C48D0F8EE
:10FC000020024FF47A71B0FBF1F000900422691DDC
:10FC10006846FAF7AFF92146F0B22A46FFF7DAFB59
:10FC200020462946FFF7A6FB07463846F8BD0000E8
:10FC3000582800202DE9F04104460D46E07800F0F8
:10FC40000F00E178091101EB810100EB4106E87832
:10FC500000F00F00E978091101EB810100EB410789
:10FC600029462046FBF78BFE804608EB480007EB51
:10FC7000C000801B00B2BDE8F08100001CB53C2034
:10FC80008DF800000C4880788DF801000B208DF86D
:10FC9000020000208DF8030004216846FBF70CF9F0
:10FCA00004468DF804403E208DF805000621684684
:10FCB000F6F792FF1CBD0000E01000201CB53C20B0
:10FCC0008DF800000E4840788DF80100F5208DF881
:10FCD000020001208DF80300094880788DF80400A7
:10FCE00005216846FBF7E8F804468DF805403E20FC
:10FCF0008DF8060007216846F6F76EFF1CBD000070
:10FD0000E0100020DD2101700121124A51701146DE
:10FD100049784170122191701146897881700E499D
:10FD20000A68C0F803204968C0F807100A4991F82A
:10FD30007112C1720749898981810649C989C181C6
:10FD40000449097C01740349B1F81110A0F811109D
:10FD500070470000D4230020582800202DE9FC41E2
:10FD600004460F464FF00008022104F10C00FEF794
:10FD70007AFF1FFA80F84046FFF798F806462848B1
:10FD8000E189A0F863120EB3D6F80600F0B1D4F8FA
:10FD900003000090D4F807000190214ADDE900102B
:10FDA000D2E9003259405040014309D001211C489A
:10FDB00080F85912082180F85A124FF02E080EE0F0
:10FDC000D6F8061020468847804608E007211448E8
:10FDD00080F85912092180F85A124FF02E08104865
:10FDE00090F8590208B14FF02E084046FFF744F84A
:10FDF000054685B1D5F8060068B1022104F10C0072
:10FE0000FEF731FF1FFA80F8D5F806203946404644
:10FE10009047804601E04FF000084046BDE8FC8175
:10FE200058280020F8B506460C4608220A49201D2D
:10FE3000F1F7C7FDC5B2207A22462946FFF7C4FA7A
:10FE4000291D2046FBF757FB0090281D2044BDF8D4
:10FE500000100180A81DF8BD5828002010B50446E8
:10FE6000102204F114010648F1F780FD04F1140199
:10FE70000348F0F7FFF908B9002010BD0120FCE7A6
:10FE80005828002000B587B000BF1648C06C40F06D
:10FE900004001449C8640846C06C00F004000190D6
:10FEA00000BF00BF012002900F4890F8450018B134
:10FEB0004FF48810039002E04FF4041003900020E8
:10FEC000049002A90948F3F77FF8002211460620A2
:10FED000F3F77EFD0620F3F745FD0620F3F764FDFA
:10FEE00007B000BD0010024058280020000800485C
:10FEF00070B504460D4601200C49096888710B490C
:10FF00000968CC71CC210948006801720748006873
:10FF1000807900F10802054801682846F0F786F963
:10FF2000024800688079083070BD0000600B002036
:10FF300010B5034600220B48016800BF0948046859
:10FF4000481C844205D21046521C6FF07F44A042E8
:10FF5000F4D304480468481C844201D3012010BD36
:10FF60000020FCE77801002030B502460023002085
:10FF70000BE00C88012585402C402CB1C0F10F0509
:10FF80000124AC401C43A3B2401C1028F1DB1380B9
:10FF900030BD30B50246002300200BE00C7801256F
:10FFA00085402C402CB1C0F107050124AC401C4316
:10FFB000E3B2401C0828F1DB137030BD00B587B0F8
:10FFC00000BF6B48C06C40F010006949C864084627
:10FFD000C06C00F01000019000BF00BF00BF0846D9
:10FFE000C06C40F00400C8640846C06C00F0040017
:10FFF000019000BF00BF00BF0846C06C40F0010088
:020000040802F0
:10000000C8640846C06C00F00100019000BF00BF4A
:1000100000BF0846C06C40F00200C8640846C06CCF
:1000200000F00200019000BF00BF00BF0846C06C96
:1000300040F00800C8640846C06C00F00800019059
:1000400000BF00BF002240214FF09040F3F7C2F8FC
:1000500049F6BD7002900B2003900020049005909B
:1000600002A94FF09040F2F7AFFF0022082141486B
:10007000F3F7B0F800224FF480713F48F3F7AAF885
:10008000012211033C48F3F7A5F84CF6FB600290FF
:100090000B20039000200490059002A93648F2F747
:1000A00093FF43F6FE7002900B2003900020049013
:1000B000059002A93148F2F787FF002208212D4858
:1000C000F3F788F8012220212A48F3F783F8012268
:1000D00080212848F3F77EF84FF6577002900B20E6
:1000E000039000200490059002A92248F2F76CFFCB
:1000F00000224FF480412248F3F76CF84BF603706E
:1001000002900B20039000200490059002A91C4847
:10011000F2F75AFF1648C06C20F001001449C86479
:100120000846C06C20F00200C8640846C06C20F08D
:100130000400C8640846C06C20F00800C864084683
:10014000C06C20F01000C8640E48F5F778F80E482F
:10015000F5F775F80D48F5F772F80D48F3F7B0F8B4
:1001600000204FF0E0210861886107B000BD000069
:1001700000100240000C004800040048000800483D
:1001800000100048301800200016002078160020CB
:10019000CC1100200948006801460868024607E0C3
:1001A000087B012801D000207047114610680246E4
:1001B00002488142F4D10120F6E70000B41100208A
:1001C00000B52DED068B8FB02F2202A944F6DD403D
:1001D000F1F792F83448B0F84A0001280FDD3249AF
:1001E000B1F84A10891EC1EB011202EB411101F571
:1001F000305188B22F2202A9F1F77EF80FE002A851
:10020000FBF760FB30B12F2202A944F6DD40F1F785
:1002100073F804E00020CDF80E00CDF81200DDF8F0
:100220000E000090DDF8120001909FED200B53ECC2
:10023000102B9DED000B51EC100BF0F7BDF941ECCC
:100240001A0BB0EE4A0AF0EE6A0AF8F7A9F9B0EE16
:10025000408AF0EE608A144890ED7C1BB0EE410AB3
:10026000F0EE610A9FED111B53EC112B51EC100BBA
:10027000F0F7A2F941EC1A0BB0EE4A0AF0EE6A0A66
:10028000F8F78EF9B0EE409AF0EE609A53EC182B26
:1002900051EC190BF0F702FB04D101200FB0BDECBB
:1002A000068B00BD0020F9E7582800200000000060
:1002B0000000244010B5084808490860052048603F
:1002C00040F6FF710548C1608160F3F7A3FA08B1F9
:1002D000F1F7EEFC10BD000000300040602B002064
:1002E0000F4890F83D01C0F3800020B901210C486F
:1002F00080F8711212E00A4890F83D01C0F3400006
:1003000020B90121064880F8711207E0054800680D
:1003100000F00700801C024981F87102704700005C
:1003200058280020B011002070B504460D46012069
:100330000C49096888710B490968CC71CC210948BE
:100340000068017207480068807900F108020548DA
:1003500001682846EFF76AFF024800688079083094
:1003600070BD0000600B002070B5064610210D48DE
:10037000F2F728FF0446002500BF10210948F2F7D4
:1003800021FF20B128466D1C07498842F5DB10216A
:100390000448F2F717FF04460CB9012070BD002095
:1003A000FCE7000000100048FFFF0F0070B5054695
:1003B000284604F0BFFA0646164890F8590220BBBA
:1003C00002240DE0A21E132303EB02125119621E38
:1003D000104B5E3303EB02101022EFF727FF641C73
:1003E000092CEFDD0B495E310120FDF77CF809484F
:1003F00090F83D0120F00200801C064981F83D0183
:1004000001F23B110120FDF7F3F9FFF769FF3046D8
:1004100070BD00005828002010B500F045F800F02D
:100420006FF810BD70B504460D4601200C490968EF
:1004300088710B490968CC71CC21094800680172A8
:1004400007480068807900F10802054801682846DD
:10045000EFF7ECFE024800688079083070BD0000BC
:10046000600B002070B5064604210D48F2F7AAFE85
:100470000446002500BF04210948F2F7A3FE20B17D
:1004800028466D1C07498842F5DB04210448F2F731
:1004900099FE04460CB9012070BD0020FCE7000065
:1004A00000100048FFFF0F0000B587B000BF1248E2
:1004B000C06C40F010001049C8640846C06C00F0E1
:1004C0001000019000BF00BF7C2002900801039043
:1004D0000120049002A90948F2F776FD80200290DD
:1004E0004FF4041003900120049002A90348F2F78E
:1004F0006BFD07B000BD0000001002400010004876
:1005000010B5002202211720F3F762FA1720F3F743
:100510004BFA012202210820F3F75AFA0820F3F7D8
:1005200043FA022211460920F3F752FA0920F3F7A1
:100530003BFA032202210A20F3F74AFA0A20F3F7D2
:1005400033FA10BD70B5064680210D48F2F73AFE29
:100550000446002500BF80210948F2F733FE20B190
:1005600028466D1C07498842F5DB80210448F2F7D4
:1005700029FE04460CB9012070BD0020FCE70000F4
:1005800000100048FFFF0F0070B504460D46012023
:100590000C49096888710B490968CC71CC2109485C
:1005A0000068017207480068807900F10802054878
:1005B00001682846EFF73AFE024800688079083063
:1005C00070BD0000600B002070B5064608210D4884
:1005D000F2F7F8FD0446002500BF08210948F2F7AC
:1005E000F1FD20B128466D1C07498842F5DB082142
:1005F0000448F2F7E7FD04460CB9012070BD002065
:10060000FCE7000000100048FFFF0F0070B5044633
:100610000D4601200C49096888710B490968CC71A5
:10062000CC2109480068017207480068807900F110
:100630000802054801682846EFF7F8FD02480068FF
:100640008079083070BD0000600B002070B5044652
:100650000D4601200C49096888710B490968CC7165
:10066000CC2109480068017207480068807900F1D0
:100670000802054801682846EFF7D8FD02480068DF
:100680008079083070BD0000600B002070B5064610
:10069000002500BF20210948F2F794FD20B128462B
:1006A0006D1C07498842F5DB20210448F2F78AFDDA
:1006B00004460CB9012070BD0020FCE70010004882
:1006C000FFFF0F0070B5044680212748F2F77AFD3E
:1006D0000546F5B925480088401C2449088024486F
:1006E000006824490968401AB0F5FA6F09DB22480E
:1006F000406910B120494869804700201B490880A3
:1007000031E01B4800680A30A0602046F9F7DAFAA9
:1007100029E01948006918B31448008801281FDB34
:100720001648007870B91648007858B9154890F8FE
:100730001802222806D1134890F8190210B907F0C0
:1007400085FF02E00C49086980470C4800780628BC
:1007500006D10020094908700949087000F06AF8BC
:1007600000200249088070BD00100048500200209F
:10077000B0110020700200205402002088020020E6
:10078000890200205828002010B506480068064954
:100790000860044800680A30044988600846F9F790
:1007A00091FA10BDB01100207002002074020020E8
:1007B00070B5DDE90445044E30607160B260F360ED
:1007C0003461756170BD0000540200201CB5062024
:1007D0000A49087000200A4908700A48007810B1D8
:1007E00000200849087000F065F9074801460346F3
:1007F0000246CDE90010FFF7DBFF1CBD8802002098
:100800008B020020680B00203508020810B506484E
:10081000007818B905490648FAF7CCFE00F060F9EF
:1008200001F054F910BD0000880200209DC00108AD
:10083000541900201CB500F023FD00F051F90020F0
:10084000154908701548807828B91448007810B9FF
:100850001248407868B105201149087000201149FC
:10086000087000900346024601460190FFF7A0FF82
:1008700001E001F02BF90C48007801280BD00B485F
:10088000F4F7D6F800224FF400610848F4F722F993
:100890000120054908701CBD89020020C302002008
:1008A000880200208B0200203C0200203C17002020
:1008B00000210BE00B4850F821200B48006B8242CE
:1008C00003D10A4A1268917302E0491C0829F1D346
:1008D00000BF064800680069044A1268927B50F81D
:1008E00022007047DC06002058280020D80600208F
:1008F00010B50A480068807B094951F82010094862
:100900000163014600231A46086B1946F6F76CFE90
:10091000044930310120FCF765FB10BDD8060020EA
:10092000DC0600205828002010B50648007806286C
:1009300000D110BD3020F5F789FA0120F5F786FACD
:1009400000BFF6E78802002070B505460B48007826
:10095000062801D1002070BD29460020F5F750FA85
:1009600008B10120F7E7002404E02020F5F79EFA03
:10097000601CC4B2102CF8DB0020ECE788020020D9
:1009800010B5044600F08EFD0A480078062801D014
:10099000FFF7CAFF0848047001200849887008481A
:1009A000006800F57A70074988600846F9F78AF907
:1009B00010BD000088020020C6020020C3020020F3
:1009C000B0110020C80200201CB501220A490B48C2
:1009D000F4F74EF905F0A8FD0948807808494978F0
:1009E000CDE900100648C37806A20B210A4800682A
:1009F000F6F732FF1CBD0000601700203C170020F6
:100A00006401002025303278202F25303278202FC5
:100A10002530327800000000940600201FB501A8A0
:100A200002AB03AA09A100900D480068EFF750FC43
:100A3000019BDAB2029BD9B2039BD8B205F094FDB8
:100A40004FF4FA70F1F7D6F81FBD00002530327868
:100A5000202F25303278202F2530327800000000FA
:100A600094060020074890F8290007490968887310
:100A700005480068006904490968897B50F821002D
:100A80007047000058280020D806002010B50748FD
:100A90000068817B064880F82910FBF797F9044924
:100AA00029310120FCF700FC10BD0000D806002011
:100AB0005828002010B5012211030748F2F78AFBDD
:100AC000002202210548F2F785FB0022012103489C
:100AD000F2F780FB10BD0000000400480010004841
:100AE00010B5012012498871012240214FF0904039
:100AF000F2F770FB00F01EFA00224FF480510D480F
:100B0000F2F768FB012202210B48F2F763FB012296
:100B100011460948F2F75EFB3220F1F76BF8FFF758
:100B200003FF0620F5F792F90C20F5F78FF910BDB9
:100B30008C110020000400480010004870B51048D7
:100B400010490978405C27380A2190FBF1F201FB3B
:100B5000120030300A490B4A1278885409490C783F
:100B600004EBD4714910064B03EB410205490D78A3
:100B700005EBD5714810012100F0BCFD70BD0000EF
:100B80006C190020B802002070B51048104909788F
:100B9000405C2F380A2190FBF1F201FB120030304B
:100BA000C1B20A480A4A1278815409490C7804EB08
:100BB000D4714910034603EB410205490D7805EB5A
:100BC000D5714810012100F095FD70BD6C19002011
:100BD000B80200201CB500201849087000240AE063
:100BE00017481849097800EB41101030005D16498C
:100BF0000855601CC4B2102CF2DBFFF795FE1048BC
:100C00001049097800EB41120021084600F090FEDF
:100C10000D4A0121002000F08BFE5E2300220221FC
:100C2000104600F0A5FD094809490A4B0A4ACDE9DA
:100C300000100A490A48FFF7BBFD1CBDB80200209E
:100C4000D8030020B60200206C190020892A02086F
:100C500089120208890B0208650C02083D0B020884
:100C6000DD0C020870B51A490C7804EBD4714810F9
:100C700020230122022100F07BFD16481649097845
:100C800000EB4110C58900BF11490978481CC11704
:100C900000EB11710911A0EB01110D4A1170104602
:100CA00001780120884028400028EDD111460C78B9
:100CB00004EBD4714910A4EB4101CAB204490E7887
:100CC00006EBD67148105E23022100F051FD70BD85
:100CD000B8020020D8030020B602002010B500247E
:100CE00009E00948015D0948094A127800EB421001
:100CF00010300155641C102CF3DB05480078FCF71C
:100D0000C5FE00F0C1FA10BD6C190020D803002008
:100D1000B602002010B50848007808490978084450
:100D2000401E0649097890FBF1F201FB12000249CE
:100D3000087000F0BDF810BDB9020020BA02002012
:100D400010B507480078401C0649097890FBF1F27D
:100D500001FB12000249087000F0AAF810BD000063
:100D6000B9020020BA02002000B587B02F480078F1
:100D700000EB80002E4901EB8000807B2D4908703C
:100D8000084602782CA103A8F6F780FD27480078D2
:100D900000EB8000264901EB8000C07B28490870E9
:100DA0002248007800EB8000214901EB80000069B7
:100DB00024490860FFF7B8FD1C48007801280CD0D2
:100DC0001A48007800EB8000194901EB80021023DB
:100DD0000021084600F088FD05E008231AA2002142
:100DE000084600F0A3FC102303AA0121002000F014
:100DF0007BFD0E48007800EB80000D4901EB800080
:100E000000690C49097850F82120102303210020A3
:100E100000F06AFD0F481049104B114ACDE900104F
:100E200010491148FFF7C4FC07B000BDB60200200E
:100E3000D8040020B90200202530326400000000F0
:100E4000BA020020BC020020B7A7C3C5B6AFD7F7CF
:100E500000000000892A020889120208410D0208D8
:100E60006D0E0208150D0208810E020810B5002053
:100E70000249087000F01CF810BD0000B902002003
:100E800010B5084800780849097801EB8101074A44
:100E900002EB8101887304480078FCF71FFE00F024
:100EA000F3F910BDB9020020B6020020D8040020DA
:100EB0001FB50A4802780AA16846F6F7E7FC6946BA
:100EC000012000F0C1FC08480068044A127850F87C
:100ED0002210032000F0B8FC1FBD0000B902002062
:100EE0002530326400000000BC02002010B5042050
:100EF0000C4908700C4800780C490978884206DAD9
:100F0000094800780A490870FFF764FE08E00648BF
:100F1000007806490978401A05490870FFF724FF50
:100F200010BD000088020020B5020020459802088C
:100F3000B602002000B587B000BF2F48C06C40F05B
:100F400002002D49C8640846C06C00F00200019000
:100F500000BF00BF00BF0846C06C40F00400C8647A
:100F60000846C06C00F00400019000BF00BF00BF45
:100F70000846C06C40F00800C8640846C06C00F029
:100F80000800019000BF00BF00BF0846C06C40F0E1
:100F90001000C8640846C06C00F01000019000BF4B
:100FA00000BF142102A8EFF75AF94FF4A0500290A5
:100FB000012003900020049002A91048F2F704F8E1
:100FC0004FF4E07002900120039000200490022072
:100FD000059002A90A48F1F7F7FF032002900120CB
:100FE0000390002004900220059002A90548F1F723
:100FF000EBFF07B000BD00000010024000040048F5
:10100000000800480010004810B5102202490348AB
:101010000068EFF70BF910BDDA2A002094060020D3
:1010200010B51022044801680448EFF7FFF803499F
:101030000120FCF7C5FC10BD94060020DA2A002030
:1010400002480068024989680160704794060020E0
:101050005828002010B505480549096809688160CD
:1010600000F108010120FCF751FA10BD58280020BA
:101070009406002010B504480488224603A10548C0
:101080000068F6F703FC10BD3E02002025303364F3
:10109000207300009406002008B56A4604A10648A3
:1010A0000068EFF715F905490098088008BD0000B1
:1010B0002530336420730000940600203E02002097
:1010C000044800680169044890F8450051F8200080
:1010D00070470000D80600205828002010B50748A7
:1010E0000068817B064880F84510FEF7CBFE044976
:1010F00045310120FCF754FA10BD0000D80600204D
:1011000058280020044800680069044991F88811B3
:1011100050F8210070470000D80600205828002011
:1011200010B506480068807B054981F8880101F503
:10113000C4710120FCF721FA10BD0000D806002080
:1011400058280020044800680169044890F84400C9
:1011500051F8200070470000D806002058280020D1
:1011600010B50C480068817B0B4880F8441000F1F2
:1011700044010120FCF727FA074890F844000128B1
:1011800007D1054890F83D0120F00801024880F899
:101190003D1110BDD80600205828002070B50F4919
:1011A0000878C11700EB91718D10002411E004EB59
:1011B00085000B490978884200D10CE004EB8500DA
:1011C000084951F820202146002000F0B1FB601CA6
:1011D000C4B2042CEBDB00BF70BD0000A8020020ED
:1011E00044980208EC0200201CB502200B4908704C
:1011F0000B480C4B042200900B4801780B480078F8
:10120000FAF71CFA06480A490A4B0B4ACDE90010C6
:101210000A490B48FFF7CCFA1CBD000088020020E9
:10122000892A02089D110208449802088A020020B7
:101230004512020805B60108B5B60108D1B5010886
:101240005D12020810B5034800780349087000F0E9
:101250003DFC10BDA80200208A02002010B5054800
:1012600000780549087000200449087000F00CF867
:1012700010BD0000A80200208A020020B402002055
:1012800010B505F037F810BD1CB5032017490870DC
:1012900000201749087000240CE01648005D16492C
:1012A0000978884204D112480078401C104908701F
:1012B000601CC4B211480078114909780844A04262
:1012C000EBDC1048104B02220090094801780F48CF
:1012D0000078FAF7B3F90E480E490F4B0F4ACDE9E3
:1012E00000100F490F48FFF763FA1CBD8802002069
:1012F000B7020020780500208A02002045980208E5
:1013000046980208DD6D020859BF0108B4020020AA
:10131000892A0208BD2A020805B60108B5B60108E7
:10132000D1B50108C52A020800B585B005F00EF94F
:101330001348807812494978CDE9001010480378A5
:1013400010A20B2102A8F6F787FA02AA03210020B7
:1013500000F0EEFA05F0E8F80F4880780E49497879
:10136000CDE900100C48C3780CA20B2102A8F6F7B7
:1013700073FA02AA0121002000F0DAFA05B000BDDC
:101380006017002025303278203A25303278203A14
:1013900025303278000000006401002025303278CA
:1013A000202F25303278202F2530327800000000A1
:1013B00010B506480649097850F8210028B10349BC
:1013C000034A127851F82200804710BD7C060020A5
:1013D0008A02002010B51048007803281BD10F485E
:1013E0000078C0B90E49087800EBD0710122B2EB49
:1013F000610F10D10B4890F8180200F00F04062C72
:1014000008DC601EC0EBC000074942180321002021
:1014100000F08EFA00BF10BD880200208A02002072
:10142000A8020020582800202003002010B50948F9
:10143000007F00B110BD0848007810B900F080FBB3
:1014400005E005480078032801D1FFF7B1FF00BF90
:10145000F0E70000582800208802002010B504485A
:10146000B0F8F62203A105480068F6F70FFA10BDA0
:101470005828002025303575000000009406002013
:1014800010B5054A05A106480068EEF721FF02499C
:101490000120FCF7ABFA10BD4E2B0020256875002B
:1014A000940600201CB50F480078062803D10020C0
:1014B0000D49087014E00B480078052806D009484B
:1014C000007809490870052006490870002007497E
:1014D000087000900346024601460190FFF768F944
:1014E0001CBD000088020020C10200208B020020E9
:1014F00010B5044615480078062800D110BDFFF746
:10150000D1FF1348407820B91148807808B9FFF717
:101510000BFA032C07DA04EB04100E4942180321DE
:10152000002000F005FA64B10020094908700A485B
:10153000006800F5FA60094988600846F8F7C2FBC0
:1015400002E001200249087000BFD7E788020020AE
:10155000C3020020E8050020B0110020C8020020CE
:1015600008B523480078062800D108BD2148007836
:1015700010B9FFF7D9F908E00020FFF7E5F90120DD
:10158000FFF7E2F90220FFF7DFF91BA2002108466E
:1015900000F0CEF9174803781AA203216846F6F73F
:1015A0005BF96A460021052000F0A4F816481149AD
:1015B000097800EBC10207230221002000F0B6F8F1
:1015C0000C480078042811DB10A20121002000F053
:1015D000AFF9104890F9D2320AA203216846F6F713
:1015E0003BF96A460121022000F084F800BFBCE705
:1015F00088020020C0020020636F6E6E656374690C
:101600006E67000025640000880500206373713A4E
:10161000000000005828002010B504460B2C01DA09
:1016200002480470FFF79CFF10BD0000C0020020BC
:1016300010B5FFF737FF012008494870002008491E
:101640000870FFF78DFF0748006800F57A700649BB
:1016500088600846F8F736FB10BD0000C302002082
:10166000C0020020B0110020C80200200020014963
:1016700048707047C302002010B500210FE00E48EB
:1016800050F82100C2170D4CD4E90E345840624086
:10169000104303D10A4A1268917302E0491C0329DE
:1016A000EDD300BF064800680069054A1268927BC6
:1016B00050F8220010BD00004406002058280020E9
:1016C000D806002010B508480068807B074951F80B
:1016D0002000C117064AC2E90E0102F138010120BB
:1016E000FCF718F810BD0000D806002044060020C2
:1016F0005828002070B505460E4614460A48007862
:10170000062801D1002070BD31462846F4F778FB49
:1017100008B10120F7E714F8010BF4F7C7FB2078B4
:10172000F4F7C4FB0020EEE7880200202DE9F04129
:101730000746884614461E460C480078062802D103
:101740000020BDE8F08141463846F4F759FB08B166
:101750000120F6E7002505E014F8010BF4F7A6FBDD
:10176000681CC5B2B542F7DB0020EAE7880200201A
:101770002DE9F04106460F4614461D460B480078F9
:10178000062802D10020BDE8F08139463046F4F742
:1017900037FB08B10120F6E714B12020F4F786FBEF
:1017A0002846F4F783FB0020EDE7000088020020C4
:1017B00070B504460D460B4A02EB45116206100E49
:1017C00000F042F82846FCF74DF9064A02EB4512B4
:1017D00002F11001012202EB4402D0B200F034F811
:1017E00070BD0000D803002070B504460D4605EB1F
:1017F0008502094B03EB82016206100E00F024F80B
:101800002846FCF757F90646012101EB4401C8B20E
:10181000314600F019F870BDD804002070B50546B7
:101820000C4608480078844204DA21462846FFF72F
:10183000BFFF06E003480078201AC1B22846FFF730
:10184000D3FF70BD459802082DE9F04106460C46CD
:1018500014480078062802D10020BDE8F081314606
:101860000020F4F7CDFA08B10120F6E7002514E0D6
:10187000207820B114F8010BF4F718FB0BE00027D7
:1018800003E02020F4F712FB7F1CC5F11000B842E2
:10189000F7DC0020E1E7681CC5B2102DE8DB002072
:1018A000DBE70000880200202DE9F04104460F46E6
:1018B00015461E460B480078062801D1BDE8F08188
:1018C00021460020FFF7C0FF39460120FFF7BCFF8B
:1018D00029460220FFF7B8FF31460320FFF7B4FF87
:1018E00000BFEBE7880200202DE9F041074688465B
:1018F00015461E460D480078062802D10020BDE896
:10190000F08141463846F4F77BFA08B10120F6E74A
:10191000002404E02146641C685CF4F7C7FA285DE3
:1019200008B1B442F6DB0020E9E70000880200209D
:1019300070B505460E4614460B480078062801D1BE
:10194000002070BD31462846F4F75AFA08B101204C
:10195000F7E703E014F8010BF4F7A8FA2078002861
:10196000F8D100BFEDE70000880200201CB501207F
:101970001B49087000201B4908701B49087000248F
:1019800008E0042C01DA302000E020201749085537
:10199000601CC4B2102CF4DB102215491548EEF778
:1019A00045FCFEF7C1FF1448002102680846FFF716
:1019B000BFFF0E4A01210020FFF7BAFF5E2300227D
:1019C00002211046FFF7D4FE0C480D490D4B0E4A7C
:1019D000CDE900100D490E48FEF7EAFE1CBD0000DF
:1019E00088020020B8020020B60200206C190020F6
:1019F00060280020E8030020E8020020892A02086D
:101A0000CD1A0208890B0208650C02083D0B02087A
:101A100089AE01081CB504F099FD07488078064995
:101A20004978CDE900100448037804A20B21084846
:101A30000068F5F711FF1CBD6017002025303278D3
:101A4000203A25303278203A2530327800000000E4
:101A5000940600201FB501A802AB03AA08A10090BC
:101A60000C480068EEF734FC019BDAB2029BD9B255
:101A7000039BD8B204F09CFD6420F0F7BBF81FBDB7
:101A800025303278203A25303278203A25303278A5
:101A9000000000009406002010B50349034A1278A4
:101AA00051F82200804710BD540600208902002012
:101AB00010B5FEF739FF0349034A127851F82200A6
:101AC000804710BD68060020890200201CB5002058
:101AD00007490870FFF7ECFF06480749074B1A460D
:101AE000CDE9001011460648FEF762FE1CBD00005D
:101AF00088020020991A0208191B0208892A020884
:101B0000051B020810B5012002490870FFF72EFFDF
:101B100010BD00008802002010B507480078401C66
:101B20000649097890FBF1F201FB120002490870A6
:101B3000FFF7BEFF10BD0000890200204798020891
:101B400010B506480649097850F8210028B1034924
:101B5000034A127851F82200804710BD6806002021
:101B60008902002010B50748D0F824024FF47A719A
:101B7000B0FBF1F4224604A105480068F5F786FEA3
:101B800010BD000058280020253033642073000069
:101B90009406002008B56A4608A10A480068EEF7D6
:101BA00097FB4FF47A71009848430749C1F8240223
:101BB00001F509710120FBF7A7FE08BD253033644C
:101BC00020730000940600205828002010B5074814
:101BD000D0F820024FF47A71B0FBF1F4224604A150
:101BE00005480068F5F752FE10BD00005828002097
:101BF00025303364207300009406002008B56A463F
