Component: ARM Compiler 5.06 update 7 (build 960) Tool: armlink [4d3601]

==============================================================================

Section Cross References

    startup_stm32l476xx.o(RESET) refers to startup_stm32l476xx.o(STACK) for __initial_sp
    startup_stm32l476xx.o(RESET) refers to startup_stm32l476xx.o(.text) for Reset_Handler
    startup_stm32l476xx.o(RESET) refers to stm32l4xx_it.o(i.NMI_Handler) for NMI_Handler
    startup_stm32l476xx.o(RESET) refers to stm32l4xx_it.o(i.HardFault_Handler) for HardFault_Handler
    startup_stm32l476xx.o(RESET) refers to stm32l4xx_it.o(i.MemManage_Handler) for MemManage_Handler
    startup_stm32l476xx.o(RESET) refers to stm32l4xx_it.o(i.BusFault_Handler) for BusFault_Handler
    startup_stm32l476xx.o(RESET) refers to stm32l4xx_it.o(i.UsageFault_Handler) for UsageFault_Handler
    startup_stm32l476xx.o(RESET) refers to port.o(.emb_text) for SVC_Handler
    startup_stm32l476xx.o(RESET) refers to stm32l4xx_it.o(i.DebugMon_Handler) for DebugMon_Handler
    startup_stm32l476xx.o(RESET) refers to cmsis_os2.o(i.SysTick_Handler) for SysTick_Handler
    startup_stm32l476xx.o(RESET) refers to stm32l4xx_it.o(i.TIM4_IRQHandler) for TIM4_IRQHandler
    startup_stm32l476xx.o(RESET) refers to stm32l4xx_it.o(i.USART1_IRQHandler) for USART1_IRQHandler
    startup_stm32l476xx.o(RESET) refers to stm32l4xx_it.o(i.USART2_IRQHandler) for USART2_IRQHandler
    startup_stm32l476xx.o(RESET) refers to stm32l4xx_it.o(i.TIM7_IRQHandler) for TIM7_IRQHandler
    startup_stm32l476xx.o(.text) refers to system_stm32l4xx.o(i.SystemInit) for SystemInit
    startup_stm32l476xx.o(.text) refers to entry.o(.ARM.Collect$$$$00000000) for __main
    main.o(i.HAL_TIM_PeriodElapsedCallback) refers to stm32l4xx_hal.o(i.HAL_IncTick) for HAL_IncTick
    main.o(i.SystemClock_Config) refers to memseta.o(.text) for __aeabi_memclr4
==============================================================================

Removing Unused input sections from the image.

    Removing main.o(.rev16_text), (4 bytes).
    Removing main.o(.revsh_text), (4 bytes).
    Removing main.o(.rrx_text), (6 bytes).
    Removing gpio.o(.rev16_text), (4 bytes).
    Removing gpio.o(.revsh_text), (4 bytes).
    Removing gpio.o(.rrx_text), (6 bytes).
    Removing freertos.o(.rev16_text), (4 bytes).
    Removing freertos.o(.revsh_text), (4 bytes).
    Removing freertos.o(.rrx_text), (6 bytes).
    Removing stm32l4xx_it.o(.rev16_text), (4 bytes).
    Removing stm32l4xx_it.o(.revsh_text), (4 bytes).
    Removing stm32l4xx_it.o(.rrx_text), (6 bytes).
    Removing stm32l4xx_hal_msp.o(.rev16_text), (4 bytes).
    Removing stm32l4xx_hal_msp.o(.revsh_text), (4 bytes).
    Removing stm32l4xx_hal_msp.o(.rrx_text), (6 bytes).
    Removing stm32l4xx_hal_timebase_tim.o(.rev16_text), (4 bytes).
    Removing stm32l4xx_hal_timebase_tim.o(.revsh_text), (4 bytes).
    Removing stm32l4xx_hal_timebase_tim.o(.rrx_text), (6 bytes).
==============================================================================

Image Symbol Table

    Local Symbols

    Symbol Name                              Value     Ov Type        Size  Object(Section)

    ../Core/Src/freertos.c                   0x00000000   Number         0  freertos.o ABSOLUTE
    ../Core/Src/gpio.c                       0x00000000   Number         0  gpio.o ABSOLUTE
    ../Core/Src/main.c                       0x00000000   Number         0  main.o ABSOLUTE
    ../Core/Src/stm32l4xx_hal_msp.c          0x00000000   Number         0  stm32l4xx_hal_msp.o ABSOLUTE
    ../Core/Src/stm32l4xx_hal_timebase_tim.c 0x00000000   Number         0  stm32l4xx_hal_timebase_tim.o ABSOLUTE
    ../Core/Src/stm32l4xx_it.c               0x00000000   Number         0  stm32l4xx_it.o ABSOLUTE
    ../Core/Src/system_stm32l4xx.c           0x00000000   Number         0  system_stm32l4xx.o ABSOLUTE
    ../Core/Src/usart.c                      0x00000000   Number         0  usart.o ABSOLUTE
    ../Drivers/STM32L4xx_HAL_Driver/Src/stm32l4xx_hal.c 0x00000000   Number         0  stm32l4xx_hal.o ABSOLUTE
    ../Drivers/STM32L4xx_HAL_Driver/Src/stm32l4xx_hal_cortex.c 0x00000000   Number         0  stm32l4xx_hal_cortex.o ABSOLUTE
    ../Drivers/STM32L4xx_HAL_Driver/Src/stm32l4xx_hal_dma.c 0x00000000   Number         0  stm32l4xx_hal_dma.o ABSOLUTE
    ../Drivers/STM32L4xx_HAL_Driver/Src/stm32l4xx_hal_dma_ex.c 0x00000000   Number         0  stm32l4xx_hal_dma_ex.o ABSOLUTE
    ../Drivers/STM32L4xx_HAL_Driver/Src/stm32l4xx_hal_exti.c 0x00000000   Number         0  stm32l4xx_hal_exti.o ABSOLUTE
    ../Drivers/STM32L4xx_HAL_Driver/Src/stm32l4xx_hal_flash.c 0x00000000   Number         0  stm32l4xx_hal_flash.o ABSOLUTE
    ../Drivers/STM32L4xx_HAL_Driver/Src/stm32l4xx_hal_flash_ex.c 0x00000000   Number         0  stm32l4xx_hal_flash_ex.o ABSOLUTE
    ../Drivers/STM32L4xx_HAL_Driver/Src/stm32l4xx_hal_flash_ramfunc.c 0x00000000   Number         0  stm32l4xx_hal_flash_ramfunc.o ABSOLUTE
    ../Drivers/STM32L4xx_HAL_Driver/Src/stm32l4xx_hal_gpio.c 0x00000000   Number         0  stm32l4xx_hal_gpio.o ABSOLUTE
    ../Drivers/STM32L4xx_HAL_Driver/Src/stm32l4xx_hal_pwr.c 0x00000000   Number         0  stm32l4xx_hal_pwr.o ABSOLUTE
    ../Drivers/STM32L4xx_HAL_Driver/Src/stm32l4xx_hal_pwr_ex.c 0x00000000   Number         0  stm32l4xx_hal_pwr_ex.o ABSOLUTE
    ../Drivers/STM32L4xx_HAL_Driver/Src/stm32l4xx_hal_rcc.c 0x00000000   Number         0  stm32l4xx_hal_rcc.o ABSOLUTE
    ../Drivers/STM32L4xx_HAL_Driver/Src/stm32l4xx_hal_rcc_ex.c 0x00000000   Number         0  stm32l4xx_hal_rcc_ex.o ABSOLUTE
    ../Drivers/STM32L4xx_HAL_Driver/Src/stm32l4xx_hal_tim.c 0x00000000   Number         0  stm32l4xx_hal_tim.o ABSOLUTE
    ../Drivers/STM32L4xx_HAL_Driver/Src/stm32l4xx_hal_tim_ex.c 0x00000000   Number         0  stm32l4xx_hal_tim_ex.o ABSOLUTE
    ../Drivers/STM32L4xx_HAL_Driver/Src/stm32l4xx_hal_uart.c 0x00000000   Number         0  stm32l4xx_hal_uart.o ABSOLUTE
    ../Drivers/STM32L4xx_HAL_Driver/Src/stm32l4xx_hal_uart_ex.c 0x00000000   Number         0  stm32l4xx_hal_uart_ex.o ABSOLUTE
    ../Middlewares/Third_Party/FreeRTOS/Source/CMSIS_RTOS_V2/cmsis_os2.c 0x00000000   Number         0  cmsis_os2.o ABSOLUTE
    ../Middlewares/Third_Party/FreeRTOS/Source/croutine.c 0x00000000   Number         0  croutine.o ABSOLUTE
    ../Middlewares/Third_Party/FreeRTOS/Source/event_groups.c 0x00000000   Number         0  event_groups.o ABSOLUTE
    ../Middlewares/Third_Party/FreeRTOS/Source/list.c 0x00000000   Number         0  list.o ABSOLUTE
    ../Middlewares/Third_Party/FreeRTOS/Source/portable/MemMang/heap_4.c 0x00000000   Number         0  heap_4.o ABSOLUTE
    ../Middlewares/Third_Party/FreeRTOS/Source/portable/RVDS/ARM_CM4F/port.c 0x00000000   Number         0  port.o ABSOLUTE
    ../Middlewares/Third_Party/FreeRTOS/Source/queue.c 0x00000000   Number         0  queue.o ABSOLUTE
    ../Middlewares/Third_Party/FreeRTOS/Source/stream_buffer.c 0x00000000   Number         0  stream_buffer.o ABSOLUTE
    ../Middlewares/Third_Party/FreeRTOS/Source/tasks.c 0x00000000   Number         0  tasks.o ABSOLUTE
    ../Middlewares/Third_Party/FreeRTOS/Source/timers.c 0x00000000   Number         0  timers.o ABSOLUTE
    ../clib/../cmprslib/zerorunl2.c          0x00000000   Number         0  __dczerorl2.o ABSOLUTE
    ../clib/microlib/ctype/ctype.c           0x00000000   Number         0  isprint_o.o ABSOLUTE
    ../clib/microlib/ctype/ctype.c           0x00000000   Number         0  islower_o.o ABSOLUTE
    ../clib/microlib/ctype/ctype.c           0x00000000   Number         0  isgraph_o.o ABSOLUTE
    ../clib/microlib/ctype/ctype.c           0x00000000   Number         0  isdigit_o.o ABSOLUTE
    ../clib/microlib/ctype/ctype.c           0x00000000   Number         0  iscntrl_o.o ABSOLUTE
    ../clib/microlib/ctype/ctype.c           0x00000000   Number         0  isblank_o.o ABSOLUTE
    ../clib/microlib/ctype/ctype.c           0x00000000   Number         0  isalpha_o.o ABSOLUTE
    ../clib/microlib/ctype/ctype.c           0x00000000   Number         0  isspace_o.o ABSOLUTE
    ../clib/microlib/ctype/ctype.c           0x00000000   Number         0  isalnum_o.o ABSOLUTE
    ../clib/microlib/ctype/ctype.c           0x00000000   Number         0  isupper_o.o ABSOLUTE
    ../clib/microlib/ctype/ctype.c           0x00000000   Number         0  isxdigit_o.o ABSOLUTE
    ../clib/microlib/ctype/ctype.c           0x00000000   Number         0  ctype_o.o ABSOLUTE
    ../clib/microlib/ctype/ctype.c           0x00000000   Number         0  ispunct_o.o ABSOLUTE
    ../clib/microlib/division.c              0x00000000   Number         0  uldiv.o ABSOLUTE
    ../clib/microlib/division.c              0x00000000   Number         0  uidiv.o ABSOLUTE
    ../clib/microlib/errno.c                 0x00000000   Number         0  errno.o ABSOLUTE
    ../clib/microlib/init/entry.s            0x00000000   Number         0  entry10b.o ABSOLUTE
    ../clib/microlib/init/entry.s            0x00000000   Number         0  entry10a.o ABSOLUTE
    ../clib/microlib/init/entry.s            0x00000000   Number         0  entry9b.o ABSOLUTE
    ../clib/microlib/init/entry.s            0x00000000   Number         0  entry9a.o ABSOLUTE
    ../clib/microlib/init/entry.s            0x00000000   Number         0  entry8b.o ABSOLUTE
    ../clib/microlib/init/entry.s            0x00000000   Number         0  entry8a.o ABSOLUTE
    ../clib/microlib/init/entry.s            0x00000000   Number         0  entry7b.o ABSOLUTE
    ../clib/microlib/init/entry.s            0x00000000   Number         0  entry5.o ABSOLUTE
    ../clib/microlib/init/entry.s            0x00000000   Number         0  entry2.o ABSOLUTE
    ../clib/microlib/init/entry.s            0x00000000   Number         0  entry.o ABSOLUTE
    ../clib/microlib/init/entry.s            0x00000000   Number         0  entry7a.o ABSOLUTE
    ../clib/microlib/init/entry.s            0x00000000   Number         0  entry12b.o ABSOLUTE
    ../clib/microlib/init/entry.s            0x00000000   Number         0  entry12a.o ABSOLUTE
    ../clib/microlib/init/entry.s            0x00000000   Number         0  entry11b.o ABSOLUTE
    ../clib/microlib/init/entry.s            0x00000000   Number         0  entry11a.o ABSOLUTE
    ../clib/microlib/longlong.c              0x00000000   Number         0  llushr.o ABSOLUTE
    ../clib/microlib/longlong.c              0x00000000   Number         0  llshl.o ABSOLUTE
    ../clib/microlib/longlong.c              0x00000000   Number         0  llsshr.o ABSOLUTE
    ../clib/microlib/malloc/malloc.c         0x00000000   Number         0  malloc.o ABSOLUTE
    ../clib/microlib/malloc/malloc.c         0x00000000   Number         0  mallocr.o ABSOLUTE
    ../clib/microlib/malloc/malloc.c         0x00000000   Number         0  malloca.o ABSOLUTE
    ../clib/microlib/malloc/malloc.c         0x00000000   Number         0  mallocra.o ABSOLUTE
    ../clib/microlib/malloc/mvars.c          0x00000000   Number         0  mvars.o ABSOLUTE
    ../clib/microlib/printf/printf.c         0x00000000   Number         0  printf4.o ABSOLUTE
    ../clib/microlib/printf/printf.c         0x00000000   Number         0  printf3.o ABSOLUTE
    ../clib/microlib/printf/printf.c         0x00000000   Number         0  printf2.o ABSOLUTE
    ../clib/microlib/printf/printf.c         0x00000000   Number         0  printfb.o ABSOLUTE
    ../clib/microlib/printf/printf.c         0x00000000   Number         0  printf8.o ABSOLUTE
    ../clib/microlib/printf/printf.c         0x00000000   Number         0  printfa.o ABSOLUTE
    ../clib/microlib/printf/printf.c         0x00000000   Number         0  printf0.o ABSOLUTE
    ../clib/microlib/printf/printf.c         0x00000000   Number         0  printf7.o ABSOLUTE
    ../clib/microlib/printf/printf.c         0x00000000   Number         0  printf6.o ABSOLUTE
    ../clib/microlib/printf/printf.c         0x00000000   Number         0  printf5.o ABSOLUTE
    ../clib/microlib/printf/printf.c         0x00000000   Number         0  printf1.o ABSOLUTE
    ../clib/microlib/printf/stubs.s          0x00000000   Number         0  stubs.o ABSOLUTE
    ../clib/microlib/stdio/fputc.c           0x00000000   Number         0  fputc.o ABSOLUTE
    ../clib/microlib/stdio/semi.s            0x00000000   Number         0  semi.o ABSOLUTE
    ../clib/microlib/stdio/streams.c         0x00000000   Number         0  stdout.o ABSOLUTE
    ../clib/microlib/string/memcmp.c         0x00000000   Number         0  memcmp.o ABSOLUTE
    ../clib/microlib/string/memcpy.c         0x00000000   Number         0  memcpyb.o ABSOLUTE
    ../clib/microlib/string/memcpy.c         0x00000000   Number         0  memcpya.o ABSOLUTE
    ../clib/microlib/string/memset.c         0x00000000   Number         0  memseta.o ABSOLUTE
    ../clib/microlib/string/strcpy.c         0x00000000   Number         0  strcpy.o ABSOLUTE
    ../clib/microlib/string/strlen.c         0x00000000   Number         0  strlen.o ABSOLUTE
    ../clib/microlib/string/strstr.c         0x00000000   Number         0  strstr.o ABSOLUTE
    ../clib/microlib/stubs.s                 0x00000000   Number         0  iusefp.o ABSOLUTE
    ../clib/microlib/stubs.s                 0x00000000   Number         0  iusesemip.o ABSOLUTE
    ../clib/scanf.c                          0x00000000   Number         0  atoi.o ABSOLUTE
    ../clib/scanf.c                          0x00000000   Number         0  _chval.o ABSOLUTE
    ../clib/scanf.c                          0x00000000   Number         0  _strtoul.o ABSOLUTE
    ../clib/scanf.c                          0x00000000   Number         0  strtol.o ABSOLUTE
    ../fplib/microlib/fpadd.c                0x00000000   Number         0  dadd.o ABSOLUTE
    ../fplib/microlib/fpdiv.c                0x00000000   Number         0  ddiv.o ABSOLUTE
    ../fplib/microlib/fpepilogue.c           0x00000000   Number         0  depilogue.o ABSOLUTE
    ../fplib/microlib/fpfix.c                0x00000000   Number         0  dfixul.o ABSOLUTE
    ../fplib/microlib/fpmul.c                0x00000000   Number         0  dmul.o ABSOLUTE
    ..\Core\Src\delay.c                      0x00000000   Number         0  delay.o ABSOLUTE
    ..\Core\Src\freertos.c                   0x00000000   Number         0  freertos.o ABSOLUTE
    ..\Core\Src\gpio.c                       0x00000000   Number         0  gpio.o ABSOLUTE
    ..\Core\Src\main.c                       0x00000000   Number         0  main.o ABSOLUTE
    ..\Core\Src\stm32l4xx_hal_msp.c          0x00000000   Number         0  stm32l4xx_hal_msp.o ABSOLUTE
    ..\Core\Src\stm32l4xx_hal_timebase_tim.c 0x00000000   Number         0  stm32l4xx_hal_timebase_tim.o ABSOLUTE
    ..\Core\Src\stm32l4xx_it.c               0x00000000   Number         0  stm32l4xx_it.o ABSOLUTE
    ..\Core\Src\system_stm32l4xx.c           0x00000000   Number         0  system_stm32l4xx.o ABSOLUTE
    ..\Debug\src\debug.c                     0x00000000   Number         0  debug.o ABSOLUTE
    ..\Drivers\STM32L4xx_HAL_Driver\Src\stm32l4xx_hal.c 0x00000000   Number         0  stm32l4xx_hal.o ABSOLUTE
    ..\Drivers\STM32L4xx_HAL_Driver\Src\stm32l4xx_hal_cortex.c 0x00000000   Number         0  stm32l4xx_hal_cortex.o ABSOLUTE
    ..\Drivers\STM32L4xx_HAL_Driver\Src\stm32l4xx_hal_dma.c 0x00000000   Number         0  stm32l4xx_hal_dma.o ABSOLUTE
    ..\Drivers\STM32L4xx_HAL_Driver\Src\stm32l4xx_hal_dma_ex.c 0x00000000   Number         0  stm32l4xx_hal_dma_ex.o ABSOLUTE
    ..\Drivers\STM32L4xx_HAL_Driver\Src\stm32l4xx_hal_exti.c 0x00000000   Number         0  stm32l4xx_hal_exti.o ABSOLUTE
    ..\Drivers\STM32L4xx_HAL_Driver\Src\stm32l4xx_hal_flash.c 0x00000000   Number         0  stm32l4xx_hal_flash.o ABSOLUTE
    ..\Drivers\STM32L4xx_HAL_Driver\Src\stm32l4xx_hal_flash_ex.c 0x00000000   Number         0  stm32l4xx_hal_flash_ex.o ABSOLUTE
    ..\Drivers\STM32L4xx_HAL_Driver\Src\stm32l4xx_hal_flash_ramfunc.c 0x00000000   Number         0  stm32l4xx_hal_flash_ramfunc.o ABSOLUTE
    ..\Drivers\STM32L4xx_HAL_Driver\Src\stm32l4xx_hal_gpio.c 0x00000000   Number         0  stm32l4xx_hal_gpio.o ABSOLUTE
    ..\Drivers\STM32L4xx_HAL_Driver\Src\stm32l4xx_hal_pwr.c 0x00000000   Number         0  stm32l4xx_hal_pwr.o ABSOLUTE
    ..\Drivers\STM32L4xx_HAL_Driver\Src\stm32l4xx_hal_pwr_ex.c 0x00000000   Number         0  stm32l4xx_hal_pwr_ex.o ABSOLUTE
    ..\Drivers\STM32L4xx_HAL_Driver\Src\stm32l4xx_hal_rcc.c 0x00000000   Number         0  stm32l4xx_hal_rcc.o ABSOLUTE
    ..\Drivers\STM32L4xx_HAL_Driver\Src\stm32l4xx_hal_rcc_ex.c 0x00000000   Number         0  stm32l4xx_hal_rcc_ex.o ABSOLUTE
    ..\Drivers\STM32L4xx_HAL_Driver\Src\stm32l4xx_hal_tim.c 0x00000000   Number         0  stm32l4xx_hal_tim.o ABSOLUTE
    ..\Drivers\STM32L4xx_HAL_Driver\Src\stm32l4xx_hal_tim_ex.c 0x00000000   Number         0  stm32l4xx_hal_tim_ex.o ABSOLUTE
    ..\Drivers\STM32L4xx_HAL_Driver\Src\stm32l4xx_hal_uart.c 0x00000000   Number         0  stm32l4xx_hal_uart.o ABSOLUTE
    ..\Drivers\STM32L4xx_HAL_Driver\Src\stm32l4xx_hal_uart_ex.c 0x00000000   Number         0  stm32l4xx_hal_uart_ex.o ABSOLUTE
    ..\Middlewares\Third_Party\FreeRTOS\Source\CMSIS_RTOS_V2\cmsis_os2.c 0x00000000   Number         0  cmsis_os2.o ABSOLUTE
    ..\Middlewares\Third_Party\FreeRTOS\Source\portable\RVDS\ARM_CM4F\port.c 0x00000000   Number         0  port.o ABSOLUTE
    ..\User_app\src\lcd_app.c                0x00000000   Number         0  lcd_app.o ABSOLUTE
    ..\User_app\src\ota_uart1_app.c          0x00000000   Number         0  ota_uart1_app.o ABSOLUTE
    ..\User_app\src\test_at_app.c            0x00000000   Number         0  test_at_app.o ABSOLUTE
    ..\User_app\src\uart2_app.c              0x00000000   Number         0  uart2_app.o ABSOLUTE
    ..\User_app\src\wireless_app.c           0x00000000   Number         0  wireless_app.o ABSOLUTE
    ..\User_drive\src\flash.c                0x00000000   Number         0  flash.o ABSOLUTE
    ..\User_drive\src\lcd_driver.c           0x00000000   Number         0  lcd_driver.o ABSOLUTE
    ..\User_drive\src\uart_driver.c          0x00000000   Number         0  uart_driver.o ABSOLUTE
    ..\\Core\\Src\\delay.c                   0x00000000   Number         0  delay.o ABSOLUTE
    ..\\Debug\\src\\debug.c                  0x00000000   Number         0  debug.o ABSOLUTE
    ..\\User_app\\src\\lcd_app.c             0x00000000   Number         0  lcd_app.o ABSOLUTE
    ..\\User_app\\src\\ota_uart1_app.c       0x00000000   Number         0  ota_uart1_app.o ABSOLUTE
    ..\\User_app\\src\\test_at_app.c         0x00000000   Number         0  test_at_app.o ABSOLUTE
    ..\\User_app\\src\\uart2_app.c           0x00000000   Number         0  uart2_app.o ABSOLUTE
    ..\\User_app\\src\\wireless_app.c        0x00000000   Number         0  wireless_app.o ABSOLUTE
    ..\\User_drive\\src\\flash.c             0x00000000   Number         0  flash.o ABSOLUTE
    ..\\User_drive\\src\\lcd_driver.c        0x00000000   Number         0  lcd_driver.o ABSOLUTE
    ..\\User_drive\\src\\uart_driver.c       0x00000000   Number         0  uart_driver.o ABSOLUTE
    cdrcmple.s                               0x00000000   Number         0  cdrcmple.o ABSOLUTE
    dc.s                                     0x00000000   Number         0  dc.o ABSOLUTE
    handlers.s                               0x00000000   Number         0  handlers.o ABSOLUTE
    init.s                                   0x00000000   Number         0  init.o ABSOLUTE
    startup_stm32l476xx.s                    0x00000000   Number         0  startup_stm32l476xx.o ABSOLUTE
    RESET                                    0x08000000   Section      392  startup_stm32l476xx.o(RESET)
    .ARM.Collect$$$$00000000                 0x08000188   Section        0  entry.o(.ARM.Collect$$$$00000000)
    .ARM.Collect$$$$00000001                 0x08000188   Section        4  entry2.o(.ARM.Collect$$$$00000001)
    .ARM.Collect$$$$00000004                 0x0800018c   Section        4  entry5.o(.ARM.Collect$$$$00000004)
    .ARM.Collect$$$$00000008                 0x08000190   Section        0  entry7b.o(.ARM.Collect$$$$00000008)
    .ARM.Collect$$$$0000000A                 0x08000190   Section        0  entry8b.o(.ARM.Collect$$$$0000000A)
    .ARM.Collect$$$$0000000B                 0x08000190   Section        8  entry9a.o(.ARM.Collect$$$$0000000B)
    .ARM.Collect$$$$0000000E                 0x08000198   Section        4  entry12b.o(.ARM.Collect$$$$0000000E)
    .ARM.Collect$$$$0000000F                 0x0800019c   Section        0  entry10a.o(.ARM.Collect$$$$0000000F)
    .ARM.Collect$$$$00000011                 0x0800019c   Section        0  entry11a.o(.ARM.Collect$$$$00000011)
    .ARM.Collect$$$$00002712                 0x0800019c   Section        4  entry2.o(.ARM.Collect$$$$00002712)
    __lit__00000000                          0x0800019c   Data           4  entry2.o(.ARM.Collect$$$$00002712)
    .emb_text                                0x080001a0   Section      190  port.o(.emb_text)
    $v0                                      0x080001a0   Number         0  port.o(.emb_text)
    .text                                    0x08000280   Section       36  startup_stm32l476xx.o(.text)
    $v0                                      0x08000280   Number         0  startup_stm32l476xx.o(.text)
    .text                                    0x080002a4   Section        0  uldiv.o(.text)
    .text                                    0x0800030c   Section        0  memcpya.o(.text)
    .text                                    0x08000330   Section        0  memseta.o(.text)
    .text                                    0x08000354   Section        0  strstr.o(.text)
    .text                                    0x08000378   Section        0  strlen.o(.text)
    .text                                    0x08000386   Section        0  memcmp.o(.text)
    .text                                    0x080003a0   Section        0  strcpy.o(.text)
    .text                                    0x080003b2   Section        0  atoi.o(.text)
    .text                                    0x080003cc   Section        0  uidiv.o(.text)
    .text                                    0x080003f8   Section        0  llshl.o(.text)
    .text                                    0x08000416   Section        0  llushr.o(.text)
    .text                                    0x08000436   Section        0  strtol.o(.text)
    .text                                    0x080004a6   Section        0  iusefp.o(.text)
    .text                                    0x080004a6   Section        0  dadd.o(.text)
    .text                                    0x08000604   Section        0  dmul.o(.text)
    .text                                    0x080006ee   Section        0  ddiv.o(.text)
    .text                                    0x080007cc   Section        0  dfixul.o(.text)
    .text                                    0x080007fc   Section       48  cdrcmple.o(.text)
    .text                                    0x0800082c   Section       36  init.o(.text)
    .text                                    0x08000850   Section        0  semi.o(.text)
    .text                                    0x08000850   Section        0  llsshr.o(.text)
    .text                                    0x08000874   Section        0  ctype_o.o(.text)
    .text                                    0x0800087c   Section        0  _strtoul.o(.text)
    .text                                    0x08000920   Section        0  depilogue.o(.text)
    .text                                    0x08000920   Section        0  iusesemip.o(.text)
    .text                                    0x080009da   Section        0  _chval.o(.text)
    .text                                    0x080009f6   Section        0  __dczerorl2.o(.text)
    i.BusFault_Handler                       0x08000a4c   Section        0  stm32l4xx_it.o(i.BusFault_Handler)
    i.Chk_Busy                               0x08000a50   Section        0  lcd_driver.o(i.Chk_Busy)
    i.ConfigureTimeForRunTimeStats           0x08000aa4   Section        0  debug.o(i.ConfigureTimeForRunTimeStats)
    i.DebugMon_Handler                       0x08000ab8   Section        0  stm32l4xx_it.o(i.DebugMon_Handler)
    i.DelayInit                              0x08000abc   Section        0  delay.o(i.DelayInit)
    i.DelayMs                                0x08000ad8   Section        0  delay.o(i.DelayMs)
    i.Error_Handler                          0x08000af4   Section        0  main.o(i.Error_Handler)
    i.FLASH_FlushCaches                      0x08000afc   Section        0  stm32l4xx_hal_flash_ex.o(i.FLASH_FlushCaches)
    i.FLASH_MassErase                        0x08000b74   Section        0  stm32l4xx_hal_flash_ex.o(i.FLASH_MassErase)
    FLASH_MassErase                          0x08000b75   Thumb Code    50  stm32l4xx_hal_flash_ex.o(i.FLASH_MassErase)
    i.FLASH_PageErase                        0x08000bac   Section        0  stm32l4xx_hal_flash_ex.o(i.FLASH_PageErase)
    i.FLASH_Program_DoubleWord               0x08000bf4   Section        0  stm32l4xx_hal_flash.o(i.FLASH_Program_DoubleWord)
    FLASH_Program_DoubleWord                 0x08000bf5   Thumb Code    36  stm32l4xx_hal_flash.o(i.FLASH_Program_DoubleWord)
    i.FLASH_Program_Fast                     0x08000c1c   Section        0  stm32l4xx_hal_flash.o(i.FLASH_Program_Fast)
    FLASH_Program_Fast                       0x08000c1d   Thumb Code    60  stm32l4xx_hal_flash.o(i.FLASH_Program_Fast)
    i.FLASH_WaitForLastOperation             0x08000c5c   Section        0  stm32l4xx_hal_flash.o(i.FLASH_WaitForLastOperation)
    i.Get_FLASH_Bank                         0x08000ce8   Section        0  flash.o(i.Get_FLASH_Bank)
    Get_FLASH_Bank                           0x08000ce9   Thumb Code    52  flash.o(i.Get_FLASH_Bank)
    i.Get_OtaStep_EventBit                   0x08000d20   Section        0  ota_uart1_app.o(i.Get_OtaStep_EventBit)
    Get_OtaStep_EventBit                     0x08000d21   Thumb Code    40  ota_uart1_app.o(i.Get_OtaStep_EventBit)
    i.Get_ota_step                           0x08000d48   Section        0  ota_uart1_app.o(i.Get_ota_step)
    Get_ota_step                             0x08000d49   Thumb Code    58  ota_uart1_app.o(i.Get_ota_step)
    i.HAL_DMA_Abort                          0x08000d88   Section        0  stm32l4xx_hal_dma.o(i.HAL_DMA_Abort)
    i.HAL_DMA_Abort_IT                       0x08000de2   Section        0  stm32l4xx_hal_dma.o(i.HAL_DMA_Abort_IT)
    i.HAL_Delay                              0x08000e40   Section        0  stm32l4xx_hal.o(i.HAL_Delay)
    i.HAL_FLASHEx_Erase                      0x08000e68   Section        0  stm32l4xx_hal_flash_ex.o(i.HAL_FLASHEx_Erase)
    i.HAL_FLASH_Lock                         0x08000f6c   Section        0  stm32l4xx_hal_flash.o(i.HAL_FLASH_Lock)
    i.HAL_FLASH_Program                      0x08000f80   Section        0  stm32l4xx_hal_flash.o(i.HAL_FLASH_Program)
    i.HAL_FLASH_Unlock                       0x08001040   Section        0  stm32l4xx_hal_flash.o(i.HAL_FLASH_Unlock)
    i.HAL_GPIO_Init                          0x08001070   Section        0  stm32l4xx_hal_gpio.o(i.HAL_GPIO_Init)
    i.HAL_GPIO_WritePin                      0x0800126c   Section        0  stm32l4xx_hal_gpio.o(i.HAL_GPIO_WritePin)
    i.HAL_GetTick                            0x08001278   Section        0  stm32l4xx_hal.o(i.HAL_GetTick)
    i.HAL_IncTick                            0x08001284   Section        0  stm32l4xx_hal.o(i.HAL_IncTick)
    i.HAL_Init                               0x0800129c   Section        0  stm32l4xx_hal.o(i.HAL_Init)
    i.HAL_InitTick                           0x080012bc   Section        0  stm32l4xx_hal_timebase_tim.o(i.HAL_InitTick)
    i.HAL_MspInit                            0x0800136c   Section        0  stm32l4xx_hal_msp.o(i.HAL_MspInit)
    i.HAL_NVIC_EnableIRQ                     0x080013b4   Section        0  stm32l4xx_hal_cortex.o(i.HAL_NVIC_EnableIRQ)
    i.HAL_NVIC_SetPriority                   0x080013dc   Section        0  stm32l4xx_hal_cortex.o(i.HAL_NVIC_SetPriority)
    i.HAL_NVIC_SetPriorityGrouping           0x08001460   Section        0  stm32l4xx_hal_cortex.o(i.HAL_NVIC_SetPriorityGrouping)
    i.HAL_PWREx_ControlVoltageScaling        0x08001488   Section        0  stm32l4xx_hal_pwr_ex.o(i.HAL_PWREx_ControlVoltageScaling)
    i.HAL_PWREx_GetVoltageRange              0x08001514   Section        0  stm32l4xx_hal_pwr_ex.o(i.HAL_PWREx_GetVoltageRange)
    i.HAL_RCCEx_PeriphCLKConfig              0x08001524   Section        0  stm32l4xx_hal_rcc_ex.o(i.HAL_RCCEx_PeriphCLKConfig)
    i.HAL_RCC_ClockConfig                    0x080019f8   Section        0  stm32l4xx_hal_rcc.o(i.HAL_RCC_ClockConfig)
    i.HAL_RCC_DeInit                         0x08001bac   Section        0  stm32l4xx_hal_rcc.o(i.HAL_RCC_DeInit)
    i.HAL_RCC_GetClockConfig                 0x08001cbc   Section        0  stm32l4xx_hal_rcc.o(i.HAL_RCC_GetClockConfig)
    i.HAL_RCC_GetHCLKFreq                    0x08001d00   Section        0  stm32l4xx_hal_rcc.o(i.HAL_RCC_GetHCLKFreq)
    i.HAL_RCC_GetPCLK1Freq                   0x08001d0c   Section        0  stm32l4xx_hal_rcc.o(i.HAL_RCC_GetPCLK1Freq)
    i.HAL_RCC_GetPCLK2Freq                   0x08001d30   Section        0  stm32l4xx_hal_rcc.o(i.HAL_RCC_GetPCLK2Freq)
    i.HAL_RCC_GetSysClockFreq                0x08001d54   Section        0  stm32l4xx_hal_rcc.o(i.HAL_RCC_GetSysClockFreq)
    i.HAL_RCC_OscConfig                      0x08001e40   Section        0  stm32l4xx_hal_rcc.o(i.HAL_RCC_OscConfig)
    i.HAL_SuspendTick                        0x08002528   Section        0  stm32l4xx_hal_timebase_tim.o(i.HAL_SuspendTick)
    i.HAL_TIMEx_Break2Callback               0x08002540   Section        0  stm32l4xx_hal_tim_ex.o(i.HAL_TIMEx_Break2Callback)
    i.HAL_TIMEx_BreakCallback                0x08002542   Section        0  stm32l4xx_hal_tim_ex.o(i.HAL_TIMEx_BreakCallback)
    i.HAL_TIMEx_CommutCallback               0x08002544   Section        0  stm32l4xx_hal_tim_ex.o(i.HAL_TIMEx_CommutCallback)
    i.HAL_TIM_Base_Init                      0x08002546   Section        0  stm32l4xx_hal_tim.o(i.HAL_TIM_Base_Init)
    i.HAL_TIM_Base_MspInit                   0x080025b4   Section        0  debug.o(i.HAL_TIM_Base_MspInit)
    i.HAL_TIM_Base_Start_IT                  0x080025f8   Section        0  stm32l4xx_hal_tim.o(i.HAL_TIM_Base_Start_IT)
    i.HAL_TIM_IC_CaptureCallback             0x080026a0   Section        0  stm32l4xx_hal_tim.o(i.HAL_TIM_IC_CaptureCallback)
    i.HAL_TIM_IRQHandler                     0x080026a2   Section        0  stm32l4xx_hal_tim.o(i.HAL_TIM_IRQHandler)
    i.HAL_TIM_OC_DelayElapsedCallback        0x0800282e   Section        0  stm32l4xx_hal_tim.o(i.HAL_TIM_OC_DelayElapsedCallback)
    i.HAL_TIM_PWM_PulseFinishedCallback      0x08002830   Section        0  stm32l4xx_hal_tim.o(i.HAL_TIM_PWM_PulseFinishedCallback)
    i.HAL_TIM_PeriodElapsedCallback          0x08002834   Section        0  main.o(i.HAL_TIM_PeriodElapsedCallback)
    i.HAL_TIM_TriggerCallback                0x0800284c   Section        0  stm32l4xx_hal_tim.o(i.HAL_TIM_TriggerCallback)
    i.HAL_UARTEx_RxEventCallback             0x0800284e   Section        0  stm32l4xx_hal_uart.o(i.HAL_UARTEx_RxEventCallback)
    i.HAL_UARTEx_WakeupCallback              0x08002850   Section        0  stm32l4xx_hal_uart_ex.o(i.HAL_UARTEx_WakeupCallback)
    i.HAL_UART_ErrorCallback                 0x08002852   Section        0  stm32l4xx_hal_uart.o(i.HAL_UART_ErrorCallback)
    i.HAL_UART_GetState                      0x08002854   Section        0  stm32l4xx_hal_uart.o(i.HAL_UART_GetState)
    i.HAL_UART_IRQHandler                    0x08002864   Section        0  stm32l4xx_hal_uart.o(i.HAL_UART_IRQHandler)
    i.HAL_UART_Init                          0x08002bb8   Section        0  stm32l4xx_hal_uart.o(i.HAL_UART_Init)
    i.HAL_UART_MspInit                       0x08002c2c   Section        0  uart_driver.o(i.HAL_UART_MspInit)
    i.HAL_UART_Receive_IT                    0x08002d38   Section        0  stm32l4xx_hal_uart.o(i.HAL_UART_Receive_IT)
    i.HAL_UART_RxCpltCallback                0x08002d94   Section        0  stm32l4xx_it.o(i.HAL_UART_RxCpltCallback)
    i.HAL_UART_Transmit                      0x08002e44   Section        0  stm32l4xx_hal_uart.o(i.HAL_UART_Transmit)
    i.HAL_UART_TxCpltCallback                0x08002f04   Section        0  stm32l4xx_hal_uart.o(i.HAL_UART_TxCpltCallback)
    i.HardFault_Handler                      0x08002f06   Section        0  stm32l4xx_it.o(i.HardFault_Handler)
    i.JumpAppAdd                             0x08002f0c   Section        0  flash.o(i.JumpAppAdd)
    i.LCD_ST7920_DataIO_Set_In               0x08002f78   Section        0  lcd_driver.o(i.LCD_ST7920_DataIO_Set_In)
    i.LCD_ST7920_DataIO_Set_Out              0x08002fa0   Section        0  lcd_driver.o(i.LCD_ST7920_DataIO_Set_Out)
    i.LCD_ST7920_SetAddress                  0x08002fd0   Section        0  lcd_driver.o(i.LCD_ST7920_SetAddress)
    i.LCD_ST7920_WriteCmd                    0x0800301c   Section        0  lcd_driver.o(i.LCD_ST7920_WriteCmd)
    i.LCD_ST7920_WriteData                   0x0800307c   Section        0  lcd_driver.o(i.LCD_ST7920_WriteData)
    i.MX_FREERTOS_Init                       0x080030dc   Section        0  freertos.o(i.MX_FREERTOS_Init)
    i.MX_GPIO_Init                           0x08003110   Section        0  gpio.o(i.MX_GPIO_Init)
    i.MX_TIM7_Init                           0x0800319c   Section        0  debug.o(i.MX_TIM7_Init)
    i.MX_USART1_UART_Init                    0x080031f0   Section        0  uart_driver.o(i.MX_USART1_UART_Init)
    i.MX_USART2_UART_Init                    0x08003230   Section        0  uart_driver.o(i.MX_USART2_UART_Init)
    i.MemManage_Handler                      0x08003270   Section        0  stm32l4xx_it.o(i.MemManage_Handler)
    i.NMI_Handler                            0x08003274   Section        0  stm32l4xx_it.o(i.NMI_Handler)
    i.Power_ON_ack                           0x08003278   Section        0  wireless_app.o(i.Power_ON_ack)
    Power_ON_ack                             0x08003279   Thumb Code    60  wireless_app.o(i.Power_ON_ack)
    i.Power_Reset_ack                        0x080032e4   Section        0  wireless_app.o(i.Power_Reset_ack)
    Power_Reset_ack                          0x080032e5   Thumb Code    28  wireless_app.o(i.Power_Reset_ack)
    i.RCCEx_PLLSAI1_Config                   0x08003304   Section        0  stm32l4xx_hal_rcc_ex.o(i.RCCEx_PLLSAI1_Config)
    RCCEx_PLLSAI1_Config                     0x08003305   Thumb Code   378  stm32l4xx_hal_rcc_ex.o(i.RCCEx_PLLSAI1_Config)
    i.RCCEx_PLLSAI2_Config                   0x08003490   Section        0  stm32l4xx_hal_rcc_ex.o(i.RCCEx_PLLSAI2_Config)
    RCCEx_PLLSAI2_Config                     0x08003491   Thumb Code   342  stm32l4xx_hal_rcc_ex.o(i.RCCEx_PLLSAI2_Config)
    i.RCC_SetFlashLatencyFromMSIRange        0x080035f4   Section        0  stm32l4xx_hal_rcc.o(i.RCC_SetFlashLatencyFromMSIRange)
    RCC_SetFlashLatencyFromMSIRange          0x080035f5   Thumb Code   148  stm32l4xx_hal_rcc.o(i.RCC_SetFlashLatencyFromMSIRange)
    i.STMFLASH_Read                          0x08003690   Section        0  flash.o(i.STMFLASH_Read)
    i.STMFLASH_ReadWord                      0x080036b0   Section        0  flash.o(i.STMFLASH_ReadWord)
    i.STMFLASH_Write                         0x080036b8   Section        0  flash.o(i.STMFLASH_Write)
    i.STMFLASH_Write_NoCheck                 0x080037ec   Section        0  flash.o(i.STMFLASH_Write_NoCheck)
    i.StartDefaultTask                       0x08003850   Section        0  freertos.o(i.StartDefaultTask)
    i.SysTick_Handler                        0x08003914   Section        0  cmsis_os2.o(i.SysTick_Handler)
    i.SystemClock_Config                     0x0800392a   Section        0  main.o(i.SystemClock_Config)
    i.SystemInit                             0x0800398c   Section        0  system_stm32l4xx.o(i.SystemInit)
    i.TIM4_IRQHandler                        0x080039a0   Section        0  stm32l4xx_it.o(i.TIM4_IRQHandler)
    i.TIM7_IRQHandler                        0x080039b0   Section        0  stm32l4xx_it.o(i.TIM7_IRQHandler)
    i.TIM_Base_SetConfig                     0x080039cc   Section        0  stm32l4xx_hal_tim.o(i.TIM_Base_SetConfig)
    i.TestPower_ON                           0x08003a98   Section        0  test_at_app.o(i.TestPower_ON)
    i.TestPower_ON_ack                       0x08003afc   Section        0  test_at_app.o(i.TestPower_ON_ack)
    i.TsetAT_Ack                             0x08003b30   Section        0  test_at_app.o(i.TsetAT_Ack)
    i.TsetAT_Send                            0x08003b5c   Section        0  test_at_app.o(i.TsetAT_Send)
    i.UART_AdvFeatureConfig                  0x08003c40   Section        0  stm32l4xx_hal_uart.o(i.UART_AdvFeatureConfig)
    i.UART_CheckIdleState                    0x08003d38   Section        0  stm32l4xx_hal_uart.o(i.UART_CheckIdleState)
    i.UART_DMAAbortOnError                   0x08003e1e   Section        0  stm32l4xx_hal_uart.o(i.UART_DMAAbortOnError)
    UART_DMAAbortOnError                     0x08003e1f   Thumb Code    24  stm32l4xx_hal_uart.o(i.UART_DMAAbortOnError)
    i.UART_EndRxTransfer                     0x08003e36   Section        0  stm32l4xx_hal_uart.o(i.UART_EndRxTransfer)
    UART_EndRxTransfer                       0x08003e37   Thumb Code   102  stm32l4xx_hal_uart.o(i.UART_EndRxTransfer)
    i.UART_EndTransmit_IT                    0x08003e9c   Section        0  stm32l4xx_hal_uart.o(i.UART_EndTransmit_IT)
    UART_EndTransmit_IT                      0x08003e9d   Thumb Code    46  stm32l4xx_hal_uart.o(i.UART_EndTransmit_IT)
    i.UART_RxISR_16BIT                       0x08003ecc   Section        0  stm32l4xx_hal_uart.o(i.UART_RxISR_16BIT)
    UART_RxISR_16BIT                         0x08003ecd   Thumb Code   254  stm32l4xx_hal_uart.o(i.UART_RxISR_16BIT)
    i.UART_RxISR_8BIT                        0x08003fd0   Section        0  stm32l4xx_hal_uart.o(i.UART_RxISR_8BIT)
    UART_RxISR_8BIT                          0x08003fd1   Thumb Code   250  stm32l4xx_hal_uart.o(i.UART_RxISR_8BIT)
    i.UART_SetConfig                         0x080040d0   Section        0  stm32l4xx_hal_uart.o(i.UART_SetConfig)
    i.UART_Start_Receive_IT                  0x08004440   Section        0  stm32l4xx_hal_uart.o(i.UART_Start_Receive_IT)
    i.UART_WaitOnFlagUntilTimeout            0x08004534   Section        0  stm32l4xx_hal_uart.o(i.UART_WaitOnFlagUntilTimeout)
    i.USART1_IRQHandler                      0x080045d8   Section        0  stm32l4xx_it.o(i.USART1_IRQHandler)
    i.USART2_IRQHandler                      0x08004640   Section        0  stm32l4xx_it.o(i.USART2_IRQHandler)
    i.Uart2_Task_Hand                        0x08004694   Section        0  uart2_app.o(i.Uart2_Task_Hand)
    i.UsageFault_Handler                     0x08004948   Section        0  stm32l4xx_it.o(i.UsageFault_Handler)
    i.__0printf                              0x0800494c   Section        0  printfa.o(i.__0printf)
    i.__0sprintf                             0x0800496c   Section        0  printfa.o(i.__0sprintf)
    i.__0vsprintf                            0x08004994   Section        0  printfa.o(i.__0vsprintf)
    i.__NVIC_GetPriorityGrouping             0x080049b8   Section        0  stm32l4xx_hal_cortex.o(i.__NVIC_GetPriorityGrouping)
    __NVIC_GetPriorityGrouping               0x080049b9   Thumb Code    10  stm32l4xx_hal_cortex.o(i.__NVIC_GetPriorityGrouping)
    i.__NVIC_SetPriority                     0x080049c8   Section        0  stm32l4xx_hal_cortex.o(i.__NVIC_SetPriority)
    __NVIC_SetPriority                       0x080049c9   Thumb Code    32  stm32l4xx_hal_cortex.o(i.__NVIC_SetPriority)
    i.__aeabi_errno_addr                     0x080049f0   Section        0  errno.o(i.__aeabi_errno_addr)
    i.__get_IPSR                             0x080049f8   Section        0  cmsis_os2.o(i.__get_IPSR)
    __get_IPSR                               0x080049f9   Thumb Code     6  cmsis_os2.o(i.__get_IPSR)
    i.__scatterload_copy                     0x080049fe   Section       14  handlers.o(i.__scatterload_copy)
    i.__scatterload_null                     0x08004a0c   Section        2  handlers.o(i.__scatterload_null)
    i.__scatterload_zeroinit                 0x08004a0e   Section       14  handlers.o(i.__scatterload_zeroinit)
    i._fp_digits                             0x08004a1c   Section        0  printfa.o(i._fp_digits)
    _fp_digits                               0x08004a1d   Thumb Code   366  printfa.o(i._fp_digits)
    i._printf_core                           0x08004ba8   Section        0  printfa.o(i._printf_core)
    _printf_core                             0x08004ba9   Thumb Code  1704  printfa.o(i._printf_core)
    i._printf_post_padding                   0x08005262   Section        0  printfa.o(i._printf_post_padding)
    _printf_post_padding                     0x08005263   Thumb Code    36  printfa.o(i._printf_post_padding)
    i._printf_pre_padding                    0x08005286   Section        0  printfa.o(i._printf_pre_padding)
    _printf_pre_padding                      0x08005287   Thumb Code    46  printfa.o(i._printf_pre_padding)
    i._sputc                                 0x080052b4   Section        0  printfa.o(i._sputc)
    _sputc                                   0x080052b5   Thumb Code    10  printfa.o(i._sputc)
    i.ack_AT                                 0x080052c0   Section        0  wireless_app.o(i.ack_AT)
    ack_AT                                   0x080052c1   Thumb Code    48  wireless_app.o(i.ack_AT)
    i.ack_ATE0                               0x08005304   Section        0  wireless_app.o(i.ack_ATE0)
    ack_ATE0                                 0x08005305   Thumb Code    38  wireless_app.o(i.ack_ATE0)
    i.ack_CEREG                              0x08005340   Section        0  wireless_app.o(i.ack_CEREG)
    ack_CEREG                                0x08005341   Thumb Code    38  wireless_app.o(i.ack_CEREG)
    i.ack_CPIN                               0x08005384   Section        0  wireless_app.o(i.ack_CPIN)
    ack_CPIN                                 0x08005385   Thumb Code    38  wireless_app.o(i.ack_CPIN)
    i.ack_CREG                               0x080053cc   Section        0  wireless_app.o(i.ack_CREG)
    ack_CREG                                 0x080053cd   Thumb Code    48  wireless_app.o(i.ack_CREG)
    i.ack_CSQ                                0x08005424   Section        0  wireless_app.o(i.ack_CSQ)
    ack_CSQ                                  0x08005425   Thumb Code    70  wireless_app.o(i.ack_CSQ)
    i.ack_QIACT                              0x08005488   Section        0  wireless_app.o(i.ack_QIACT)
    ack_QIACT                                0x08005489   Thumb Code    38  wireless_app.o(i.ack_QIACT)
    i.ack_QICSGP                             0x080054c4   Section        0  wireless_app.o(i.ack_QICSGP)
    ack_QICSGP                               0x080054c5   Thumb Code    38  wireless_app.o(i.ack_QICSGP)
    i.ack_QIDEACT                            0x08005500   Section        0  wireless_app.o(i.ack_QIDEACT)
    ack_QIDEACT                              0x08005501   Thumb Code    38  wireless_app.o(i.ack_QIDEACT)
    i.ack_QIOPEN                             0x08005540   Section        0  wireless_app.o(i.ack_QIOPEN)
    ack_QIOPEN                               0x08005541   Thumb Code    38  wireless_app.o(i.ack_QIOPEN)
    i.check_upgrade_state_ack                0x08005588   Section        0  ota_uart1_app.o(i.check_upgrade_state_ack)
    check_upgrade_state_ack                  0x08005589   Thumb Code    72  ota_uart1_app.o(i.check_upgrade_state_ack)
    i.check_upgrade_state_hande              0x080055f8   Section        0  ota_uart1_app.o(i.check_upgrade_state_hande)
    check_upgrade_state_hande                0x080055f9   Thumb Code    54  ota_uart1_app.o(i.check_upgrade_state_hande)
    i.check_upgrade_task_ack                 0x08005638   Section        0  ota_uart1_app.o(i.check_upgrade_task_ack)
    check_upgrade_task_ack                   0x08005639   Thumb Code   168  ota_uart1_app.o(i.check_upgrade_task_ack)
    i.check_upgrade_task_hand                0x0800572c   Section        0  ota_uart1_app.o(i.check_upgrade_task_hand)
    check_upgrade_task_hand                  0x0800572d   Thumb Code    60  ota_uart1_app.o(i.check_upgrade_task_hand)
    i.debug_task                             0x08005770   Section        0  debug.o(i.debug_task)
    i.download_upgrade_pake_ack              0x08005788   Section        0  ota_uart1_app.o(i.download_upgrade_pake_ack)
    download_upgrade_pake_ack                0x08005789   Thumb Code   238  ota_uart1_app.o(i.download_upgrade_pake_ack)
    i.download_upgrade_pake_hand             0x080058b8   Section        0  ota_uart1_app.o(i.download_upgrade_pake_hand)
    download_upgrade_pake_hand               0x080058b9   Thumb Code    80  ota_uart1_app.o(i.download_upgrade_pake_hand)
    i.eTaskGetState                          0x08005910   Section        0  tasks.o(i.eTaskGetState)
    i.fputc                                  0x0800598c   Section        0  fputc.o(i.fputc)
    i.free                                   0x080059a0   Section        0  malloc.o(i.free)
    i.inHandlerMode                          0x080059f0   Section        0  uart_driver.o(i.inHandlerMode)
    inHandlerMode                            0x080059f1   Thumb Code     8  uart_driver.o(i.inHandlerMode)
    i.lcd_clear                              0x080059f8   Section        0  lcd_driver.o(i.lcd_clear)
    i.lcd_clearline                          0x08005a08   Section        0  lcd_driver.o(i.lcd_clearline)
    i.lcd_driver_init                        0x08005a30   Section        0  lcd_driver.o(i.lcd_driver_init)
    i.lcd_gpio_init                          0x08005a88   Section        0  lcd_driver.o(i.lcd_gpio_init)
    i.lcd_showline                           0x08005b8c   Section        0  lcd_driver.o(i.lcd_showline)
    i.lcd_showstr                            0x08005bc4   Section        0  lcd_driver.o(i.lcd_showstr)
    i.main                                   0x08005bee   Section        0  main.o(i.main)
    i.malloc                                 0x08005c18   Section        0  malloc.o(i.malloc)
    i.osKernelInitialize                     0x08005c84   Section        0  cmsis_os2.o(i.osKernelInitialize)
    i.osKernelStart                          0x08005cb0   Section        0  cmsis_os2.o(i.osKernelStart)
    i.ota_overtime_ack                       0x08005d10   Section        0  ota_uart1_app.o(i.ota_overtime_ack)
    ota_overtime_ack                         0x08005d11   Thumb Code   342  ota_uart1_app.o(i.ota_overtime_ack)
    i.ota_step_ack_handel                    0x08005eb0   Section        0  ota_uart1_app.o(i.ota_step_ack_handel)
    ota_step_ack_handel                      0x08005eb1   Thumb Code   292  ota_uart1_app.o(i.ota_step_ack_handel)
    i.ota_step_send_handel                   0x08006018   Section        0  ota_uart1_app.o(i.ota_step_send_handel)
    ota_step_send_handel                     0x08006019   Thumb Code   146  ota_uart1_app.o(i.ota_step_send_handel)
    i.over_activate_ack                      0x080060d8   Section        0  wireless_app.o(i.over_activate_ack)
    i.prvAddCurrentTaskToDelayedList         0x08006250   Section        0  tasks.o(i.prvAddCurrentTaskToDelayedList)
    prvAddCurrentTaskToDelayedList           0x08006251   Thumb Code   100  tasks.o(i.prvAddCurrentTaskToDelayedList)
    i.prvAddNewTaskToReadyList               0x080062cc   Section        0  tasks.o(i.prvAddNewTaskToReadyList)
    prvAddNewTaskToReadyList                 0x080062cd   Thumb Code   154  tasks.o(i.prvAddNewTaskToReadyList)
    i.prvCheckForValidListAndQueue           0x08006384   Section        0  timers.o(i.prvCheckForValidListAndQueue)
    prvCheckForValidListAndQueue             0x08006385   Thumb Code    78  timers.o(i.prvCheckForValidListAndQueue)
    i.prvCheckTasksWaitingTermination        0x080063f8   Section        0  tasks.o(i.prvCheckTasksWaitingTermination)
    prvCheckTasksWaitingTermination          0x080063f9   Thumb Code    60  tasks.o(i.prvCheckTasksWaitingTermination)
    i.prvCopyDataFromQueue                   0x08006440   Section        0  queue.o(i.prvCopyDataFromQueue)
    prvCopyDataFromQueue                     0x08006441   Thumb Code    42  queue.o(i.prvCopyDataFromQueue)
    i.prvCopyDataToQueue                     0x0800646a   Section        0  queue.o(i.prvCopyDataToQueue)
    prvCopyDataToQueue                       0x0800646b   Thumb Code   126  queue.o(i.prvCopyDataToQueue)
    i.prvDeleteTCB                           0x080064e8   Section        0  tasks.o(i.prvDeleteTCB)
    prvDeleteTCB                             0x080064e9   Thumb Code    40  tasks.o(i.prvDeleteTCB)
    i.prvGetDisinheritPriorityAfterTimeout   0x08006510   Section        0  queue.o(i.prvGetDisinheritPriorityAfterTimeout)
    prvGetDisinheritPriorityAfterTimeout     0x08006511   Thumb Code    20  queue.o(i.prvGetDisinheritPriorityAfterTimeout)
    i.prvGetNextExpireTime                   0x08006524   Section        0  timers.o(i.prvGetNextExpireTime)
    prvGetNextExpireTime                     0x08006525   Thumb Code    36  timers.o(i.prvGetNextExpireTime)
    i.prvHeapInit                            0x0800654c   Section        0  heap_4.o(i.prvHeapInit)
    prvHeapInit                              0x0800654d   Thumb Code    98  heap_4.o(i.prvHeapInit)
    i.prvIdleTask                            0x080065c8   Section        0  tasks.o(i.prvIdleTask)
    prvIdleTask                              0x080065c9   Thumb Code    32  tasks.o(i.prvIdleTask)
    i.prvInitialiseNewQueue                  0x080065f0   Section        0  queue.o(i.prvInitialiseNewQueue)
    prvInitialiseNewQueue                    0x080065f1   Thumb Code    42  queue.o(i.prvInitialiseNewQueue)
    i.prvInitialiseNewTask                   0x0800661a   Section        0  tasks.o(i.prvInitialiseNewTask)
    prvInitialiseNewTask                     0x0800661b   Thumb Code   156  tasks.o(i.prvInitialiseNewTask)
    i.prvInitialiseNewTimer                  0x080066bc   Section        0  timers.o(i.prvInitialiseNewTimer)
    prvInitialiseNewTimer                    0x080066bd   Thumb Code    58  timers.o(i.prvInitialiseNewTimer)
    i.prvInitialiseTaskLists                 0x080066f8   Section        0  tasks.o(i.prvInitialiseTaskLists)
    prvInitialiseTaskLists                   0x080066f9   Thumb Code    70  tasks.o(i.prvInitialiseTaskLists)
    i.prvInsertBlockIntoFreeList             0x08006760   Section        0  heap_4.o(i.prvInsertBlockIntoFreeList)
    prvInsertBlockIntoFreeList               0x08006761   Thumb Code    96  heap_4.o(i.prvInsertBlockIntoFreeList)
    i.prvInsertTimerInActiveList             0x080067c8   Section        0  timers.o(i.prvInsertTimerInActiveList)
    prvInsertTimerInActiveList               0x080067c9   Thumb Code    80  timers.o(i.prvInsertTimerInActiveList)
    i.prvIsQueueEmpty                        0x08006820   Section        0  queue.o(i.prvIsQueueEmpty)
    prvIsQueueEmpty                          0x08006821   Thumb Code    26  queue.o(i.prvIsQueueEmpty)
    i.prvIsQueueFull                         0x0800683a   Section        0  queue.o(i.prvIsQueueFull)
    prvIsQueueFull                           0x0800683b   Thumb Code    30  queue.o(i.prvIsQueueFull)
    i.prvListTasksWithinSingleList           0x08006858   Section        0  tasks.o(i.prvListTasksWithinSingleList)
    prvListTasksWithinSingleList             0x08006859   Thumb Code   106  tasks.o(i.prvListTasksWithinSingleList)
    i.prvProcessExpiredTimer                 0x080068c4   Section        0  timers.o(i.prvProcessExpiredTimer)
    prvProcessExpiredTimer                   0x080068c5   Thumb Code    86  timers.o(i.prvProcessExpiredTimer)
    i.prvProcessReceivedCommands             0x08006920   Section        0  timers.o(i.prvProcessReceivedCommands)
    prvProcessReceivedCommands               0x08006921   Thumb Code   264  timers.o(i.prvProcessReceivedCommands)
    i.prvProcessTimerOrBlockTask             0x08006a2c   Section        0  timers.o(i.prvProcessTimerOrBlockTask)
    prvProcessTimerOrBlockTask               0x08006a2d   Thumb Code   102  timers.o(i.prvProcessTimerOrBlockTask)
    i.prvResetNextTaskUnblockTime            0x08006aa0   Section        0  tasks.o(i.prvResetNextTaskUnblockTime)
    prvResetNextTaskUnblockTime              0x08006aa1   Thumb Code    42  tasks.o(i.prvResetNextTaskUnblockTime)
    i.prvSampleTimeNow                       0x08006ad4   Section        0  timers.o(i.prvSampleTimeNow)
    prvSampleTimeNow                         0x08006ad5   Thumb Code    40  timers.o(i.prvSampleTimeNow)
    i.prvSwitchTimerLists                    0x08006b00   Section        0  timers.o(i.prvSwitchTimerLists)
    prvSwitchTimerLists                      0x08006b01   Thumb Code   126  timers.o(i.prvSwitchTimerLists)
    i.prvTaskCheckFreeStackSpace             0x08006b88   Section        0  tasks.o(i.prvTaskCheckFreeStackSpace)
    prvTaskCheckFreeStackSpace               0x08006b89   Thumb Code    22  tasks.o(i.prvTaskCheckFreeStackSpace)
    i.prvTaskExitError                       0x08006b9e   Section        0  port.o(i.prvTaskExitError)
    prvTaskExitError                         0x08006b9f   Thumb Code    22  port.o(i.prvTaskExitError)
    i.prvTestWaitCondition                   0x08006bb4   Section        0  event_groups.o(i.prvTestWaitCondition)
    prvTestWaitCondition                     0x08006bb5   Thumb Code    30  event_groups.o(i.prvTestWaitCondition)
    i.prvTimerTask                           0x08006bd2   Section        0  timers.o(i.prvTimerTask)
    prvTimerTask                             0x08006bd3   Thumb Code    26  timers.o(i.prvTimerTask)
    i.prvUnlockQueue                         0x08006bec   Section        0  queue.o(i.prvUnlockQueue)
    prvUnlockQueue                           0x08006bed   Thumb Code   126  queue.o(i.prvUnlockQueue)
    i.prvWriteNameToBuffer                   0x08006c6a   Section        0  tasks.o(i.prvWriteNameToBuffer)
    prvWriteNameToBuffer                     0x08006c6b   Thumb Code    42  tasks.o(i.prvWriteNameToBuffer)
    i.pvPortMalloc                           0x08006c94   Section        0  heap_4.o(i.pvPortMalloc)
    i.pvTaskIncrementMutexHeldCount          0x08006d74   Section        0  tasks.o(i.pvTaskIncrementMutexHeldCount)
    i.pxPortInitialiseStack                  0x08006d94   Section        0  port.o(i.pxPortInitialiseStack)
    i.retry_at                               0x08006dc0   Section        0  ota_uart1_app.o(i.retry_at)
    retry_at                                 0x08006dc1   Thumb Code    46  ota_uart1_app.o(i.retry_at)
    i.send_AT                                0x08006e34   Section        0  wireless_app.o(i.send_AT)
    send_AT                                  0x08006e35   Thumb Code    22  wireless_app.o(i.send_AT)
    i.send_ATE0                              0x08006e5c   Section        0  wireless_app.o(i.send_ATE0)
    send_ATE0                                0x08006e5d   Thumb Code    22  wireless_app.o(i.send_ATE0)
    i.send_CEREG                             0x08006e84   Section        0  wireless_app.o(i.send_CEREG)
    send_CEREG                               0x08006e85   Thumb Code    22  wireless_app.o(i.send_CEREG)
    i.send_CPIN                              0x08006eb0   Section        0  wireless_app.o(i.send_CPIN)
    send_CPIN                                0x08006eb1   Thumb Code    22  wireless_app.o(i.send_CPIN)
    i.send_CREG                              0x08006edc   Section        0  wireless_app.o(i.send_CREG)
    send_CREG                                0x08006edd   Thumb Code    22  wireless_app.o(i.send_CREG)
    i.send_CSQ                               0x08006f08   Section        0  wireless_app.o(i.send_CSQ)
    send_CSQ                                 0x08006f09   Thumb Code    22  wireless_app.o(i.send_CSQ)
    i.send_QIACT                             0x08006f34   Section        0  wireless_app.o(i.send_QIACT)
    send_QIACT                               0x08006f35   Thumb Code    22  wireless_app.o(i.send_QIACT)
    i.send_QICSGP                            0x08006f64   Section        0  wireless_app.o(i.send_QICSGP)
    send_QICSGP                              0x08006f65   Thumb Code    22  wireless_app.o(i.send_QICSGP)
    i.send_QIDEACT                           0x08006fa0   Section        0  wireless_app.o(i.send_QIDEACT)
    send_QIDEACT                             0x08006fa1   Thumb Code    22  wireless_app.o(i.send_QIDEACT)
    i.send_QIOPEN                            0x08006fd0   Section        0  wireless_app.o(i.send_QIOPEN)
    send_QIOPEN                              0x08006fd1   Thumb Code    22  wireless_app.o(i.send_QIOPEN)
    i.send_date                              0x0800701c   Section        0  ota_uart1_app.o(i.send_date)
    send_date                                0x0800701d   Thumb Code    26  ota_uart1_app.o(i.send_date)
    i.send_read_data_cmd                     0x08007054   Section        0  wireless_app.o(i.send_read_data_cmd)
    send_read_data_cmd                       0x08007055   Thumb Code    28  wireless_app.o(i.send_read_data_cmd)
    i.str_get_data                           0x080070a0   Section        0  ota_uart1_app.o(i.str_get_data)
    str_get_data                             0x080070a1   Thumb Code    58  ota_uart1_app.o(i.str_get_data)
    i.task_runtime_print                     0x080070dc   Section        0  debug.o(i.task_runtime_print)
    i.task_tatus_print                       0x08007130   Section        0  debug.o(i.task_tatus_print)
    i.test_AT_task                           0x08007200   Section        0  test_at_app.o(i.test_AT_task)
    i.test_OTA_task                          0x0800720c   Section        0  ota_uart1_app.o(i.test_OTA_task)
    i.uart1_clear                            0x080072fc   Section        0  wireless_app.o(i.uart1_clear)
    i.uart2_clear                            0x08007318   Section        0  uart2_app.o(i.uart2_clear)
    i.uart_printf                            0x0800733c   Section        0  uart_driver.o(i.uart_printf)
    i.up_upgrade_state_ack                   0x080073bc   Section        0  ota_uart1_app.o(i.up_upgrade_state_ack)
    up_upgrade_state_ack                     0x080073bd   Thumb Code    60  ota_uart1_app.o(i.up_upgrade_state_ack)
    i.up_upgrade_state_hand                  0x08007420   Section        0  ota_uart1_app.o(i.up_upgrade_state_hand)
    up_upgrade_state_hand                    0x08007421   Thumb Code    98  ota_uart1_app.o(i.up_upgrade_state_hand)
    i.up_versions_ack                        0x08007498   Section        0  ota_uart1_app.o(i.up_versions_ack)
    up_versions_ack                          0x08007499   Thumb Code    40  ota_uart1_app.o(i.up_versions_ack)
    i.up_versions_hand                       0x080074d4   Section        0  ota_uart1_app.o(i.up_versions_hand)
    up_versions_hand                         0x080074d5   Thumb Code    96  ota_uart1_app.o(i.up_versions_hand)
    i.uxListRemove                           0x08007564   Section        0  list.o(i.uxListRemove)
    i.uxTaskGetNumberOfTasks                 0x0800758c   Section        0  tasks.o(i.uxTaskGetNumberOfTasks)
    i.uxTaskGetSystemState                   0x08007598   Section        0  tasks.o(i.uxTaskGetSystemState)
    i.uxTaskResetEventItemValue              0x08007650   Section        0  tasks.o(i.uxTaskResetEventItemValue)
    i.vApplicationGetIdleTaskMemory          0x0800766c   Section        0  cmsis_os2.o(i.vApplicationGetIdleTaskMemory)
    i.vApplicationGetTimerTaskMemory         0x08007684   Section        0  cmsis_os2.o(i.vApplicationGetTimerTaskMemory)
    i.vListInitialise                        0x0800769c   Section        0  list.o(i.vListInitialise)
    i.vListInitialiseItem                    0x080076b6   Section        0  list.o(i.vListInitialiseItem)
    i.vListInsert                            0x080076bc   Section        0  list.o(i.vListInsert)
    i.vListInsertEnd                         0x080076f0   Section        0  list.o(i.vListInsertEnd)
    i.vPortEnterCritical                     0x08007708   Section        0  port.o(i.vPortEnterCritical)
    i.vPortExitCritical                      0x0800772c   Section        0  port.o(i.vPortExitCritical)
    i.vPortFree                              0x0800774c   Section        0  heap_4.o(i.vPortFree)
    i.vPortSetupTimerInterrupt               0x080077a4   Section        0  port.o(i.vPortSetupTimerInterrupt)
    i.vQueueAddToRegistry                    0x080077cc   Section        0  queue.o(i.vQueueAddToRegistry)
    i.vQueueWaitForMessageRestricted         0x080077f8   Section        0  queue.o(i.vQueueWaitForMessageRestricted)
    i.vTaskDelay                             0x08007844   Section        0  tasks.o(i.vTaskDelay)
    i.vTaskDelete                            0x08007878   Section        0  tasks.o(i.vTaskDelete)
    i.vTaskGetInfo                           0x08007918   Section        0  tasks.o(i.vTaskGetInfo)
    i.vTaskGetRunTimeStats                   0x0800799c   Section        0  tasks.o(i.vTaskGetRunTimeStats)
    i.vTaskInternalSetTimeOutState           0x08007a60   Section        0  tasks.o(i.vTaskInternalSetTimeOutState)
    i.vTaskMissedYield                       0x08007a78   Section        0  tasks.o(i.vTaskMissedYield)
    i.vTaskPlaceOnEventList                  0x08007a84   Section        0  tasks.o(i.vTaskPlaceOnEventList)
    i.vTaskPlaceOnEventListRestricted        0x08007aa4   Section        0  tasks.o(i.vTaskPlaceOnEventListRestricted)
    i.vTaskPlaceOnUnorderedEventList         0x08007acc   Section        0  tasks.o(i.vTaskPlaceOnUnorderedEventList)
    i.vTaskPriorityDisinheritAfterTimeout    0x08007af8   Section        0  tasks.o(i.vTaskPriorityDisinheritAfterTimeout)
    i.vTaskRemoveFromUnorderedEventList      0x08007b84   Section        0  tasks.o(i.vTaskRemoveFromUnorderedEventList)
    i.vTaskStartScheduler                    0x08007be4   Section        0  tasks.o(i.vTaskStartScheduler)
    i.vTaskSuspend                           0x08007c7c   Section        0  tasks.o(i.vTaskSuspend)
    i.vTaskSuspendAll                        0x08007d1c   Section        0  tasks.o(i.vTaskSuspendAll)
    i.vTaskSwitchContext                     0x08007d2c   Section        0  tasks.o(i.vTaskSwitchContext)
    i.wireless_data_send                     0x08007de4   Section        0  wireless_app.o(i.wireless_data_send)
    wireless_data_send                       0x08007de5   Thumb Code    28  wireless_app.o(i.wireless_data_send)
    i.wireless_init                          0x08007e14   Section        0  wireless_app.o(i.wireless_init)
    i.wireless_module_activate               0x08007e7c   Section        0  wireless_app.o(i.wireless_module_activate)
    i.wireless_module_activate_Ack           0x08007fc0   Section        0  wireless_app.o(i.wireless_module_activate_Ack)
    i.wireless_power_off                     0x080080f4   Section        0  wireless_app.o(i.wireless_power_off)
    i.wireless_power_on                      0x080082e4   Section        0  wireless_app.o(i.wireless_power_on)
    i.wireless_task                          0x080083cc   Section        0  wireless_app.o(i.wireless_task)
    i.xEventGroupCreate                      0x08008618   Section        0  event_groups.o(i.xEventGroupCreate)
    i.xEventGroupSetBits                     0x08008636   Section        0  event_groups.o(i.xEventGroupSetBits)
    i.xEventGroupWaitBits                    0x080086d0   Section        0  event_groups.o(i.xEventGroupWaitBits)
    i.xPortStartScheduler                    0x080087a4   Section        0  port.o(i.xPortStartScheduler)
    i.xPortSysTickHandler                    0x080087ec   Section        0  port.o(i.xPortSysTickHandler)
    i.xQueueGenericCreate                    0x08008820   Section        0  queue.o(i.xQueueGenericCreate)
    i.xQueueGenericCreateStatic              0x0800885a   Section        0  queue.o(i.xQueueGenericCreateStatic)
    i.xQueueGenericReset                     0x08008888   Section        0  queue.o(i.xQueueGenericReset)
    i.xQueueGenericSend                      0x08008908   Section        0  queue.o(i.xQueueGenericSend)
    i.xQueueGenericSendFromISR               0x08008a20   Section        0  queue.o(i.xQueueGenericSendFromISR)
    i.xQueueGiveFromISR                      0x08008ab0   Section        0  queue.o(i.xQueueGiveFromISR)
    i.xQueuePeek                             0x08008b28   Section        0  queue.o(i.xQueuePeek)
    i.xQueueReceive                          0x08008c34   Section        0  queue.o(i.xQueueReceive)
    i.xQueueSemaphoreTake                    0x08008d38   Section        0  queue.o(i.xQueueSemaphoreTake)
    i.xTaskCheckForTimeOut                   0x08008e68   Section        0  tasks.o(i.xTaskCheckForTimeOut)
    i.xTaskCreate                            0x08008ec4   Section        0  tasks.o(i.xTaskCreate)
    i.xTaskCreateStatic                      0x08008f2e   Section        0  tasks.o(i.xTaskCreateStatic)
    i.xTaskGetSchedulerState                 0x08008f84   Section        0  tasks.o(i.xTaskGetSchedulerState)
    i.xTaskGetTickCount                      0x08008fa4   Section        0  tasks.o(i.xTaskGetTickCount)
    i.xTaskIncrementTick                     0x08008fb0   Section        0  tasks.o(i.xTaskIncrementTick)
    i.xTaskPriorityDisinherit                0x080090c8   Section        0  tasks.o(i.xTaskPriorityDisinherit)
    i.xTaskPriorityInherit                   0x08009128   Section        0  tasks.o(i.xTaskPriorityInherit)
    i.xTaskRemoveFromEventList               0x080091cc   Section        0  tasks.o(i.xTaskRemoveFromEventList)
    i.xTaskResumeAll                         0x0800924c   Section        0  tasks.o(i.xTaskResumeAll)
    i.xTimerCreate                           0x08009334   Section        0  timers.o(i.xTimerCreate)
    i.xTimerCreateTimerTask                  0x08009370   Section        0  timers.o(i.xTimerCreateTimerTask)
    i.xTimerGenericCommand                   0x080093d0   Section        0  timers.o(i.xTimerGenericCommand)
    .constdata                               0x0800943c   Section       72  system_stm32l4xx.o(.constdata)
    .constdata                               0x08009484   Section      129  ctype_o.o(.constdata)
    .constdata                               0x08009508   Section        4  ctype_o.o(.constdata)
    table                                    0x08009508   Data           4  ctype_o.o(.constdata)
    .conststring                             0x0800950c   Section      664  ota_uart1_app.o(.conststring)
    .conststring                             0x080097a4   Section      144  debug.o(.conststring)
    .data                                    0x20000000   Section       28  freertos.o(.data)
    .data                                    0x2000001c   Section        2  delay.o(.data)
    fac_us                                   0x2000001c   Data           2  delay.o(.data)
    .data                                    0x20000020   Section        9  stm32l4xx_hal.o(.data)
    .data                                    0x2000002c   Section       32  stm32l4xx_hal_flash.o(.data)
    .data                                    0x2000004c   Section        4  system_stm32l4xx.o(.data)
    .data                                    0x20000050   Section       68  tasks.o(.data)
    pxDelayedTaskList                        0x20000054   Data           4  tasks.o(.data)
    pxOverflowDelayedTaskList                0x20000058   Data           4  tasks.o(.data)
    uxDeletedTasksWaitingCleanUp             0x2000005c   Data           4  tasks.o(.data)
    uxCurrentNumberOfTasks                   0x20000060   Data           4  tasks.o(.data)
    xTickCount                               0x20000064   Data           4  tasks.o(.data)
    uxTopReadyPriority                       0x20000068   Data           4  tasks.o(.data)
    xSchedulerRunning                        0x2000006c   Data           4  tasks.o(.data)
    xPendedTicks                             0x20000070   Data           4  tasks.o(.data)
    xYieldPending                            0x20000074   Data           4  tasks.o(.data)
    xNumOfOverflows                          0x20000078   Data           4  tasks.o(.data)
    uxTaskNumber                             0x2000007c   Data           4  tasks.o(.data)
    xNextTaskUnblockTime                     0x20000080   Data           4  tasks.o(.data)
    xIdleTaskHandle                          0x20000084   Data           4  tasks.o(.data)
    uxSchedulerSuspended                     0x20000088   Data           4  tasks.o(.data)
    ulTaskSwitchedInTime                     0x2000008c   Data           4  tasks.o(.data)
    ulTotalRunTime                           0x20000090   Data           4  tasks.o(.data)
    .data                                    0x20000094   Section       20  timers.o(.data)
    pxCurrentTimerList                       0x20000094   Data           4  timers.o(.data)
    pxOverflowTimerList                      0x20000098   Data           4  timers.o(.data)
    xTimerQueue                              0x2000009c   Data           4  timers.o(.data)
    xTimerTaskHandle                         0x200000a0   Data           4  timers.o(.data)
    xLastTime                                0x200000a4   Data           4  timers.o(.data)
    .data                                    0x200000a8   Section        4  cmsis_os2.o(.data)
    KernelState                              0x200000a8   Data           4  cmsis_os2.o(.data)
    .data                                    0x200000ac   Section       32  heap_4.o(.data)
    xStart                                   0x200000ac   Data           8  heap_4.o(.data)
    pxEnd                                    0x200000b4   Data           4  heap_4.o(.data)
    xFreeBytesRemaining                      0x200000b8   Data           4  heap_4.o(.data)
    xMinimumEverFreeBytesRemaining           0x200000bc   Data           4  heap_4.o(.data)
    xNumberOfSuccessfulAllocations           0x200000c0   Data           4  heap_4.o(.data)
    xNumberOfSuccessfulFrees                 0x200000c4   Data           4  heap_4.o(.data)
    xBlockAllocatedBit                       0x200000c8   Data           4  heap_4.o(.data)
    .data                                    0x200000cc   Section        4  port.o(.data)
    uxCriticalNesting                        0x200000cc   Data           4  port.o(.data)
    .data                                    0x200000d0   Section        4  flash.o(.data)
    JumpAddress                              0x200000d0   Data           4  flash.o(.data)
    .data                                    0x200000d4   Section      610  ota_uart1_app.o(.data)
    Retry_Semaphore                          0x200000e4   Data           4  ota_uart1_app.o(.data)
    ota_parameter                            0x200000ec   Data         380  ota_uart1_app.o(.data)
    upgrade_setp_str                         0x2000026c   Data         100  ota_uart1_app.o(.data)
    pack_num                                 0x20000334   Data           1  ota_uart1_app.o(.data)
    retey                                    0x20000335   Data           1  ota_uart1_app.o(.data)
    .data                                    0x20000338   Section       16  uart2_app.o(.data)
    .data                                    0x20000348   Section        8  test_at_app.o(.data)
    .data                                    0x20000350   Section      306  wireless_app.o(.data)
    reset                                    0x20000480   Data           1  wireless_app.o(.data)
    send_step                                0x20000481   Data           1  wireless_app.o(.data)
    .data                                    0x20000484   Section       28  debug.o(.data)
    task_state                               0x20000488   Data          24  debug.o(.data)
    .data                                    0x200004a0   Section        4  stdout.o(.data)
    .data                                    0x200004a4   Section        4  mvars.o(.data)
    .data                                    0x200004a8   Section        4  mvars.o(.data)
    .data                                    0x200004ac   Section        4  errno.o(.data)
    _errno                                   0x200004ac   Data           4  errno.o(.data)
    .bss                                     0x200004b0   Section       76  stm32l4xx_hal_timebase_tim.o(.bss)
    .bss                                     0x200004fc   Section       64  queue.o(.bss)
    .bss                                     0x2000053c   Section     1220  tasks.o(.bss)
    pxReadyTasksLists                        0x2000053c   Data        1120  tasks.o(.bss)
    xDelayedTaskList1                        0x2000099c   Data          20  tasks.o(.bss)
    xDelayedTaskList2                        0x200009b0   Data          20  tasks.o(.bss)
    xPendingReadyList                        0x200009c4   Data          20  tasks.o(.bss)
    xTasksWaitingTermination                 0x200009d8   Data          20  tasks.o(.bss)
    xSuspendedTaskList                       0x200009ec   Data          20  tasks.o(.bss)
    .bss                                     0x20000a00   Section      280  timers.o(.bss)
    xActiveTimerList1                        0x20000a00   Data          20  timers.o(.bss)
    xActiveTimerList2                        0x20000a14   Data          20  timers.o(.bss)
    xStaticTimerQueue                        0x20000a28   Data          80  timers.o(.bss)
    ucStaticTimerQueueStorage                0x20000a78   Data         160  timers.o(.bss)
    .bss                                     0x20000b18   Section     1728  cmsis_os2.o(.bss)
    Idle_TCB                                 0x20000b18   Data          96  cmsis_os2.o(.bss)
    Idle_Stack                               0x20000b78   Data         512  cmsis_os2.o(.bss)
    Timer_TCB                                0x20000d78   Data          96  cmsis_os2.o(.bss)
    Timer_Stack                              0x20000dd8   Data        1024  cmsis_os2.o(.bss)
    .bss                                     0x200011d8   Section    20480  heap_4.o(.bss)
    ucHeap                                   0x200011d8   Data       20480  heap_4.o(.bss)
    .bss                                     0x200061d8   Section     8500  uart_driver.o(.bss)
    .bss                                     0x20008310   Section     2048  flash.o(.bss)
    STMFLASH_BUF                             0x20008310   Data        2048  flash.o(.bss)
    .bss                                     0x20008b10   Section     4096  ota_uart1_app.o(.bss)
    .bss                                     0x20009b10   Section       76  debug.o(.bss)
    HEAP                                     0x20009b60   Section      512  startup_stm32l476xx.o(HEAP)
    STACK                                    0x20009d60   Section     1024  startup_stm32l476xx.o(STACK)

    Global Symbols

    Symbol Name                              Value     Ov Type        Size  Object(Section)

    BuildAttributes$$THM_ISAv4$E$P$D$K$B$S$7EM$VFPi3$EXTD16$VFPS$VFMA$PE$A:L22UL41UL21$X:L11$S22US41US21$IEEE1$IW$USESV6$~STKCKD$USESV7$~SHL$OSPACE$ROPI$EBA8$MICROLIB$REQ8$PRES8$EABIv2 0x00000000   Number         0  anon$$obj.o ABSOLUTE
    __ARM_use_no_argv                        0x00000000   Number         0  main.o ABSOLUTE
    _printf_a                                0x00000000   Number         0  stubs.o ABSOLUTE
    _printf_c                                0x00000000   Number         0  stubs.o ABSOLUTE
    _printf_charcount                        0x00000000   Number         0  stubs.o ABSOLUTE
    _printf_d                                0x00000000   Number         0  stubs.o ABSOLUTE
    _printf_e                                0x00000000   Number         0  stubs.o ABSOLUTE
    _printf_f                                0x00000000   Number         0  stubs.o ABSOLUTE
    _printf_flags                            0x00000000   Number         0  stubs.o ABSOLUTE
    _printf_fp_dec                           0x00000000   Number         0  stubs.o ABSOLUTE
    _printf_fp_hex                           0x00000000   Number         0  stubs.o ABSOLUTE
    _printf_g                                0x00000000   Number         0  stubs.o ABSOLUTE
    _printf_i                                0x00000000   Number         0  stubs.o ABSOLUTE
    _printf_int_dec                          0x00000000   Number         0  stubs.o ABSOLUTE
    _printf_l                                0x00000000   Number         0  stubs.o ABSOLUTE
    _printf_lc                               0x00000000   Number         0  stubs.o ABSOLUTE
    _printf_ll                               0x00000000   Number         0  stubs.o ABSOLUTE
    _printf_lld                              0x00000000   Number         0  stubs.o ABSOLUTE
    _printf_lli                              0x00000000   Number         0  stubs.o ABSOLUTE
    _printf_llo                              0x00000000   Number         0  stubs.o ABSOLUTE
    _printf_llu                              0x00000000   Number         0  stubs.o ABSOLUTE
    _printf_llx                              0x00000000   Number         0  stubs.o ABSOLUTE
    _printf_longlong_dec                     0x00000000   Number         0  stubs.o ABSOLUTE
    _printf_longlong_hex                     0x00000000   Number         0  stubs.o ABSOLUTE
    _printf_longlong_oct                     0x00000000   Number         0  stubs.o ABSOLUTE
    _printf_ls                               0x00000000   Number         0  stubs.o ABSOLUTE
    _printf_mbtowc                           0x00000000   Number         0  stubs.o ABSOLUTE
    _printf_n                                0x00000000   Number         0  stubs.o ABSOLUTE
    _printf_o                                0x00000000   Number         0  stubs.o ABSOLUTE
    _printf_p                                0x00000000   Number         0  stubs.o ABSOLUTE
    _printf_percent                          0x00000000   Number         0  stubs.o ABSOLUTE
    _printf_pre_padding                      0x00000000   Number         0  stubs.o ABSOLUTE
    _printf_return_value                     0x00000000   Number         0  stubs.o ABSOLUTE
    _printf_s                                0x00000000   Number         0  stubs.o ABSOLUTE
    _printf_sizespec                         0x00000000   Number         0  stubs.o ABSOLUTE
    _printf_str                              0x00000000   Number         0  stubs.o ABSOLUTE
    _printf_truncate_signed                  0x00000000   Number         0  stubs.o ABSOLUTE
    _printf_truncate_unsigned                0x00000000   Number         0  stubs.o ABSOLUTE
    _printf_u                                0x00000000   Number         0  stubs.o ABSOLUTE
    _printf_wc                               0x00000000   Number         0  stubs.o ABSOLUTE
    _printf_wctomb                           0x00000000   Number         0  stubs.o ABSOLUTE
    _printf_widthprec                        0x00000000   Number         0  stubs.o ABSOLUTE
    _printf_x                                0x00000000   Number         0  stubs.o ABSOLUTE
    __arm_fini_                               - Undefined Weak Reference
    __cpp_initialize__aeabi_                  - Undefined Weak Reference
    __cxa_finalize                            - Undefined Weak Reference
    _clock_init                               - Undefined Weak Reference
    _microlib_exit                            - Undefined Weak Reference
    __Vectors_Size                           0x00000188   Number         0  startup_stm32l476xx.o ABSOLUTE
    __Vectors                                0x08000000   Data           4  startup_stm32l476xx.o(RESET)
    __Vectors_End                            0x08000188   Data           0  startup_stm32l476xx.o(RESET)
    __main                                   0x08000189   Thumb Code     0  entry.o(.ARM.Collect$$$$00000000)
    _main_stk                                0x08000189   Thumb Code     0  entry2.o(.ARM.Collect$$$$00000001)
    _main_scatterload                        0x0800018d   Thumb Code     0  entry5.o(.ARM.Collect$$$$00000004)
    __main_after_scatterload                 0x08000191   Thumb Code     0  entry5.o(.ARM.Collect$$$$00000004)
    _main_clock                              0x08000191   Thumb Code     0  entry7b.o(.ARM.Collect$$$$00000008)
    _main_cpp_init                           0x08000191   Thumb Code     0  entry8b.o(.ARM.Collect$$$$0000000A)
    _main_init                               0x08000191   Thumb Code     0  entry9a.o(.ARM.Collect$$$$0000000B)
    __rt_lib_shutdown_fini                   0x08000199   Thumb Code     0  entry12b.o(.ARM.Collect$$$$0000000E)
    __rt_final_cpp                           0x0800019d   Thumb Code     0  entry10a.o(.ARM.Collect$$$$0000000F)
    __rt_final_exit                          0x0800019d   Thumb Code     0  entry11a.o(.ARM.Collect$$$$00000011)
    SVC_Handler                              0x080001a1   Thumb Code    28  port.o(.emb_text)
    __asm___6_port_c_39a90d8d__prvStartFirstTask 0x080001c1   Thumb Code    36  port.o(.emb_text)
    __asm___6_port_c_39a90d8d__prvEnableVFP  0x080001e9   Thumb Code    16  port.o(.emb_text)
    PendSV_Handler                           0x080001fd   Thumb Code    88  port.o(.emb_text)
    vPortGetIPSR                             0x08000259   Thumb Code     6  port.o(.emb_text)
    Reset_Handler                            0x08000281   Thumb Code     8  startup_stm32l476xx.o(.text)
    ADC1_2_IRQHandler                        0x0800029b   Thumb Code     0  startup_stm32l476xx.o(.text)
    ADC3_IRQHandler                          0x0800029b   Thumb Code     0  startup_stm32l476xx.o(.text)
    CAN1_RX0_IRQHandler                      0x0800029b   Thumb Code     0  startup_stm32l476xx.o(.text)
    CAN1_RX1_IRQHandler                      0x0800029b   Thumb Code     0  startup_stm32l476xx.o(.text)
    CAN1_SCE_IRQHandler                      0x0800029b   Thumb Code     0  startup_stm32l476xx.o(.text)
    CAN1_TX_IRQHandler                       0x0800029b   Thumb Code     0  startup_stm32l476xx.o(.text)
    COMP_IRQHandler                          0x0800029b   Thumb Code     0  startup_stm32l476xx.o(.text)
    DFSDM1_FLT0_IRQHandler                   0x0800029b   Thumb Code     0  startup_stm32l476xx.o(.text)
    DFSDM1_FLT1_IRQHandler                   0x0800029b   Thumb Code     0  startup_stm32l476xx.o(.text)
    DFSDM1_FLT2_IRQHandler                   0x0800029b   Thumb Code     0  startup_stm32l476xx.o(.text)
    DFSDM1_FLT3_IRQHandler                   0x0800029b   Thumb Code     0  startup_stm32l476xx.o(.text)
    DMA1_Channel1_IRQHandler                 0x0800029b   Thumb Code     0  startup_stm32l476xx.o(.text)
    DMA1_Channel2_IRQHandler                 0x0800029b   Thumb Code     0  startup_stm32l476xx.o(.text)
    DMA1_Channel3_IRQHandler                 0x0800029b   Thumb Code     0  startup_stm32l476xx.o(.text)
    DMA1_Channel4_IRQHandler                 0x0800029b   Thumb Code     0  startup_stm32l476xx.o(.text)
    DMA1_Channel5_IRQHandler                 0x0800029b   Thumb Code     0  startup_stm32l476xx.o(.text)
    DMA1_Channel6_IRQHandler                 0x0800029b   Thumb Code     0  startup_stm32l476xx.o(.text)
    DMA1_Channel7_IRQHandler                 0x0800029b   Thumb Code     0  startup_stm32l476xx.o(.text)
    DMA2_Channel1_IRQHandler                 0x0800029b   Thumb Code     0  startup_stm32l476xx.o(.text)
    DMA2_Channel2_IRQHandler                 0x0800029b   Thumb Code     0  startup_stm32l476xx.o(.text)
    DMA2_Channel3_IRQHandler                 0x0800029b   Thumb Code     0  startup_stm32l476xx.o(.text)
    DMA2_Channel4_IRQHandler                 0x0800029b   Thumb Code     0  startup_stm32l476xx.o(.text)
    DMA2_Channel5_IRQHandler                 0x0800029b   Thumb Code     0  startup_stm32l476xx.o(.text)
    DMA2_Channel6_IRQHandler                 0x0800029b   Thumb Code     0  startup_stm32l476xx.o(.text)
    DMA2_Channel7_IRQHandler                 0x0800029b   Thumb Code     0  startup_stm32l476xx.o(.text)
    EXTI0_IRQHandler                         0x0800029b   Thumb Code     0  startup_stm32l476xx.o(.text)
    EXTI15_10_IRQHandler                     0x0800029b   Thumb Code     0  startup_stm32l476xx.o(.text)
    EXTI1_IRQHandler                         0x0800029b   Thumb Code     0  startup_stm32l476xx.o(.text)
    EXTI2_IRQHandler                         0x0800029b   Thumb Code     0  startup_stm32l476xx.o(.text)
    EXTI3_IRQHandler                         0x0800029b   Thumb Code     0  startup_stm32l476xx.o(.text)
    EXTI4_IRQHandler                         0x0800029b   Thumb Code     0  startup_stm32l476xx.o(.text)
    EXTI9_5_IRQHandler                       0x0800029b   Thumb Code     0  startup_stm32l476xx.o(.text)
    FLASH_IRQHandler                         0x0800029b   Thumb Code     0  startup_stm32l476xx.o(.text)
    FMC_IRQHandler                           0x0800029b   Thumb Code     0  startup_stm32l476xx.o(.text)
    FPU_IRQHandler                           0x0800029b   Thumb Code     0  startup_stm32l476xx.o(.text)
    I2C1_ER_IRQHandler                       0x0800029b   Thumb Code     0  startup_stm32l476xx.o(.text)
    I2C1_EV_IRQHandler                       0x0800029b   Thumb Code     0  startup_stm32l476xx.o(.text)
    I2C2_ER_IRQHandler                       0x0800029b   Thumb Code     0  startup_stm32l476xx.o(.text)
    I2C2_EV_IRQHandler                       0x0800029b   Thumb Code     0  startup_stm32l476xx.o(.text)
    I2C3_ER_IRQHandler                       0x0800029b   Thumb Code     0  startup_stm32l476xx.o(.text)
    I2C3_EV_IRQHandler                       0x0800029b   Thumb Code     0  startup_stm32l476xx.o(.text)
    LCD_IRQHandler                           0x0800029b   Thumb Code     0  startup_stm32l476xx.o(.text)
    LPTIM1_IRQHandler                        0x0800029b   Thumb Code     0  startup_stm32l476xx.o(.text)
    LPTIM2_IRQHandler                        0x0800029b   Thumb Code     0  startup_stm32l476xx.o(.text)
    LPUART1_IRQHandler                       0x0800029b   Thumb Code     0  startup_stm32l476xx.o(.text)
    OTG_FS_IRQHandler                        0x0800029b   Thumb Code     0  startup_stm32l476xx.o(.text)
    PVD_PVM_IRQHandler                       0x0800029b   Thumb Code     0  startup_stm32l476xx.o(.text)
    QUADSPI_IRQHandler                       0x0800029b   Thumb Code     0  startup_stm32l476xx.o(.text)
    RCC_IRQHandler                           0x0800029b   Thumb Code     0  startup_stm32l476xx.o(.text)
    RNG_IRQHandler                           0x0800029b   Thumb Code     0  startup_stm32l476xx.o(.text)
    RTC_Alarm_IRQHandler                     0x0800029b   Thumb Code     0  startup_stm32l476xx.o(.text)
    RTC_WKUP_IRQHandler                      0x0800029b   Thumb Code     0  startup_stm32l476xx.o(.text)
    SAI1_IRQHandler                          0x0800029b   Thumb Code     0  startup_stm32l476xx.o(.text)
    SAI2_IRQHandler                          0x0800029b   Thumb Code     0  startup_stm32l476xx.o(.text)
    SDMMC1_IRQHandler                        0x0800029b   Thumb Code     0  startup_stm32l476xx.o(.text)
    SPI1_IRQHandler                          0x0800029b   Thumb Code     0  startup_stm32l476xx.o(.text)
    SPI2_IRQHandler                          0x0800029b   Thumb Code     0  startup_stm32l476xx.o(.text)
    SPI3_IRQHandler                          0x0800029b   Thumb Code     0  startup_stm32l476xx.o(.text)
    SWPMI1_IRQHandler                        0x0800029b   Thumb Code     0  startup_stm32l476xx.o(.text)
    TAMP_STAMP_IRQHandler                    0x0800029b   Thumb Code     0  startup_stm32l476xx.o(.text)
    TIM1_BRK_TIM15_IRQHandler                0x0800029b   Thumb Code     0  startup_stm32l476xx.o(.text)
    TIM1_CC_IRQHandler                       0x0800029b   Thumb Code     0  startup_stm32l476xx.o(.text)
    TIM1_TRG_COM_TIM17_IRQHandler            0x0800029b   Thumb Code     0  startup_stm32l476xx.o(.text)
    TIM1_UP_TIM16_IRQHandler                 0x0800029b   Thumb Code     0  startup_stm32l476xx.o(.text)
    TIM2_IRQHandler                          0x0800029b   Thumb Code     0  startup_stm32l476xx.o(.text)
    TIM3_IRQHandler                          0x0800029b   Thumb Code     0  startup_stm32l476xx.o(.text)
    TIM5_IRQHandler                          0x0800029b   Thumb Code     0  startup_stm32l476xx.o(.text)
    TIM6_DAC_IRQHandler                      0x0800029b   Thumb Code     0  startup_stm32l476xx.o(.text)
    TIM8_BRK_IRQHandler                      0x0800029b   Thumb Code     0  startup_stm32l476xx.o(.text)
    TIM8_CC_IRQHandler                       0x0800029b   Thumb Code     0  startup_stm32l476xx.o(.text)
    TIM8_TRG_COM_IRQHandler                  0x0800029b   Thumb Code     0  startup_stm32l476xx.o(.text)
    TIM8_UP_IRQHandler                       0x0800029b   Thumb Code     0  startup_stm32l476xx.o(.text)
    TSC_IRQHandler                           0x0800029b   Thumb Code     0  startup_stm32l476xx.o(.text)
    UART4_IRQHandler                         0x0800029b   Thumb Code     0  startup_stm32l476xx.o(.text)
    UART5_IRQHandler                         0x0800029b   Thumb Code     0  startup_stm32l476xx.o(.text)
    USART3_IRQHandler                        0x0800029b   Thumb Code     0  startup_stm32l476xx.o(.text)
    WWDG_IRQHandler                          0x0800029b   Thumb Code     0  startup_stm32l476xx.o(.text)
    __aeabi_uldivmod                         0x080002a5   Thumb Code    98  uldiv.o(.text)
    __aeabi_memcpy                           0x0800030d   Thumb Code    36  memcpya.o(.text)
    __aeabi_memcpy4                          0x0800030d   Thumb Code     0  memcpya.o(.text)
    __aeabi_memcpy8                          0x0800030d   Thumb Code     0  memcpya.o(.text)
    __aeabi_memset                           0x08000331   Thumb Code    14  memseta.o(.text)
    __aeabi_memset4                          0x08000331   Thumb Code     0  memseta.o(.text)
    __aeabi_memset8                          0x08000331   Thumb Code     0  memseta.o(.text)
    __aeabi_memclr                           0x0800033f   Thumb Code     4  memseta.o(.text)
    __aeabi_memclr4                          0x0800033f   Thumb Code     0  memseta.o(.text)
    __aeabi_memclr8                          0x0800033f   Thumb Code     0  memseta.o(.text)
    _memset$wrapper                          0x08000343   Thumb Code    18  memseta.o(.text)
    strstr                                   0x08000355   Thumb Code    36  strstr.o(.text)
    strlen                                   0x08000379   Thumb Code    14  strlen.o(.text)
    memcmp                                   0x08000387   Thumb Code    26  memcmp.o(.text)
    strcpy                                   0x080003a1   Thumb Code    18  strcpy.o(.text)
    atoi                                     0x080003b3   Thumb Code    26  atoi.o(.text)
    __aeabi_uidiv                            0x080003cd   Thumb Code     0  uidiv.o(.text)
    __aeabi_uidivmod                         0x080003cd   Thumb Code    44  uidiv.o(.text)
    __aeabi_llsl                             0x080003f9   Thumb Code    30  llshl.o(.text)
    _ll_shift_l                              0x080003f9   Thumb Code     0  llshl.o(.text)
    __aeabi_llsr                             0x08000417   Thumb Code    32  llushr.o(.text)
    _ll_ushift_r                             0x08000417   Thumb Code     0  llushr.o(.text)
    strtol                                   0x08000437   Thumb Code   112  strtol.o(.text)
    __I$use$fp                               0x080004a7   Thumb Code     0  iusefp.o(.text)
    __aeabi_dadd                             0x080004a7   Thumb Code   322  dadd.o(.text)
    __aeabi_dsub                             0x080005e9   Thumb Code     6  dadd.o(.text)
    __aeabi_drsub                            0x080005ef   Thumb Code     6  dadd.o(.text)
    __aeabi_dmul                             0x08000605   Thumb Code   228  dmul.o(.text)
    __aeabi_ddiv                             0x080006ef   Thumb Code   222  ddiv.o(.text)
    __aeabi_d2ulz                            0x080007cd   Thumb Code    48  dfixul.o(.text)
    __aeabi_cdrcmple                         0x080007fd   Thumb Code    48  cdrcmple.o(.text)
    __scatterload                            0x0800082d   Thumb Code    28  init.o(.text)
    __scatterload_rt2                        0x0800082d   Thumb Code     0  init.o(.text)
    __aeabi_lasr                             0x08000851   Thumb Code    36  llsshr.o(.text)
    __semihosting_library_function           0x08000851   Thumb Code     0  semi.o(.text)
    _ll_sshift_r                             0x08000851   Thumb Code     0  llsshr.o(.text)
    __rt_ctype_table                         0x08000875   Thumb Code     4  ctype_o.o(.text)
    _strtoul                                 0x0800087d   Thumb Code   158  _strtoul.o(.text)
    __I$use$semihosting$fputc                0x08000921   Thumb Code     0  iusesemip.o(.text)
    _double_round                            0x08000921   Thumb Code    30  depilogue.o(.text)
    _double_epilogue                         0x0800093f   Thumb Code   156  depilogue.o(.text)
    _chval                                   0x080009db   Thumb Code    28  _chval.o(.text)
    __decompress                             0x080009f7   Thumb Code     0  __dczerorl2.o(.text)
    __decompress1                            0x080009f7   Thumb Code    86  __dczerorl2.o(.text)
    BusFault_Handler                         0x08000a4d   Thumb Code     4  stm32l4xx_it.o(i.BusFault_Handler)
    Chk_Busy                                 0x08000a51   Thumb Code    76  lcd_driver.o(i.Chk_Busy)
    ConfigureTimeForRunTimeStats             0x08000aa5   Thumb Code    14  debug.o(i.ConfigureTimeForRunTimeStats)
    DebugMon_Handler                         0x08000ab9   Thumb Code     2  stm32l4xx_it.o(i.DebugMon_Handler)
    DelayInit                                0x08000abd   Thumb Code    16  delay.o(i.DelayInit)
    DelayMs                                  0x08000ad9   Thumb Code    28  delay.o(i.DelayMs)
    Error_Handler                            0x08000af5   Thumb Code     6  main.o(i.Error_Handler)
    FLASH_FlushCaches                        0x08000afd   Thumb Code   110  stm32l4xx_hal_flash_ex.o(i.FLASH_FlushCaches)
    FLASH_PageErase                          0x08000bad   Thumb Code    66  stm32l4xx_hal_flash_ex.o(i.FLASH_PageErase)
    FLASH_WaitForLastOperation               0x08000c5d   Thumb Code   132  stm32l4xx_hal_flash.o(i.FLASH_WaitForLastOperation)
    HAL_DMA_Abort                            0x08000d89   Thumb Code    90  stm32l4xx_hal_dma.o(i.HAL_DMA_Abort)
    HAL_DMA_Abort_IT                         0x08000de3   Thumb Code    92  stm32l4xx_hal_dma.o(i.HAL_DMA_Abort_IT)
    HAL_Delay                                0x08000e41   Thumb Code    36  stm32l4xx_hal.o(i.HAL_Delay)
    HAL_FLASHEx_Erase                        0x08000e69   Thumb Code   252  stm32l4xx_hal_flash_ex.o(i.HAL_FLASHEx_Erase)
    HAL_FLASH_Lock                           0x08000f6d   Thumb Code    16  stm32l4xx_hal_flash.o(i.HAL_FLASH_Lock)
    HAL_FLASH_Program                        0x08000f81   Thumb Code   182  stm32l4xx_hal_flash.o(i.HAL_FLASH_Program)
    HAL_FLASH_Unlock                         0x08001041   Thumb Code    36  stm32l4xx_hal_flash.o(i.HAL_FLASH_Unlock)
    HAL_GPIO_Init                            0x08001071   Thumb Code   470  stm32l4xx_hal_gpio.o(i.HAL_GPIO_Init)
    HAL_GPIO_WritePin                        0x0800126d   Thumb Code    10  stm32l4xx_hal_gpio.o(i.HAL_GPIO_WritePin)
    HAL_GetTick                              0x08001279   Thumb Code     6  stm32l4xx_hal.o(i.HAL_GetTick)
    HAL_IncTick                              0x08001285   Thumb Code    16  stm32l4xx_hal.o(i.HAL_IncTick)
    HAL_Init                                 0x0800129d   Thumb Code    30  stm32l4xx_hal.o(i.HAL_Init)
    HAL_InitTick                             0x080012bd   Thumb Code   154  stm32l4xx_hal_timebase_tim.o(i.HAL_InitTick)
    HAL_MspInit                              0x0800136d   Thumb Code    68  stm32l4xx_hal_msp.o(i.HAL_MspInit)
    HAL_NVIC_EnableIRQ                       0x080013b5   Thumb Code    40  stm32l4xx_hal_cortex.o(i.HAL_NVIC_EnableIRQ)
    HAL_NVIC_SetPriority                     0x080013dd   Thumb Code   124  stm32l4xx_hal_cortex.o(i.HAL_NVIC_SetPriority)
    HAL_NVIC_SetPriorityGrouping             0x08001461   Thumb Code    32  stm32l4xx_hal_cortex.o(i.HAL_NVIC_SetPriorityGrouping)
    HAL_PWREx_ControlVoltageScaling          0x08001489   Thumb Code   128  stm32l4xx_hal_pwr_ex.o(i.HAL_PWREx_ControlVoltageScaling)
    HAL_PWREx_GetVoltageRange                0x08001515   Thumb Code    10  stm32l4xx_hal_pwr_ex.o(i.HAL_PWREx_GetVoltageRange)
    HAL_RCCEx_PeriphCLKConfig                0x08001525   Thumb Code  1230  stm32l4xx_hal_rcc_ex.o(i.HAL_RCCEx_PeriphCLKConfig)
    HAL_RCC_ClockConfig                      0x080019f9   Thumb Code   414  stm32l4xx_hal_rcc.o(i.HAL_RCC_ClockConfig)
    HAL_RCC_DeInit                           0x08001bad   Thumb Code   250  stm32l4xx_hal_rcc.o(i.HAL_RCC_DeInit)
    HAL_RCC_GetClockConfig                   0x08001cbd   Thumb Code    58  stm32l4xx_hal_rcc.o(i.HAL_RCC_GetClockConfig)
    HAL_RCC_GetHCLKFreq                      0x08001d01   Thumb Code     6  stm32l4xx_hal_rcc.o(i.HAL_RCC_GetHCLKFreq)
    HAL_RCC_GetPCLK1Freq                     0x08001d0d   Thumb Code    26  stm32l4xx_hal_rcc.o(i.HAL_RCC_GetPCLK1Freq)
    HAL_RCC_GetPCLK2Freq                     0x08001d31   Thumb Code    26  stm32l4xx_hal_rcc.o(i.HAL_RCC_GetPCLK2Freq)
    HAL_RCC_GetSysClockFreq                  0x08001d55   Thumb Code   220  stm32l4xx_hal_rcc.o(i.HAL_RCC_GetSysClockFreq)
    HAL_RCC_OscConfig                        0x08001e41   Thumb Code  1750  stm32l4xx_hal_rcc.o(i.HAL_RCC_OscConfig)
    HAL_SuspendTick                          0x08002529   Thumb Code    18  stm32l4xx_hal_timebase_tim.o(i.HAL_SuspendTick)
    HAL_TIMEx_Break2Callback                 0x08002541   Thumb Code     2  stm32l4xx_hal_tim_ex.o(i.HAL_TIMEx_Break2Callback)
    HAL_TIMEx_BreakCallback                  0x08002543   Thumb Code     2  stm32l4xx_hal_tim_ex.o(i.HAL_TIMEx_BreakCallback)
    HAL_TIMEx_CommutCallback                 0x08002545   Thumb Code     2  stm32l4xx_hal_tim_ex.o(i.HAL_TIMEx_CommutCallback)
    HAL_TIM_Base_Init                        0x08002547   Thumb Code   110  stm32l4xx_hal_tim.o(i.HAL_TIM_Base_Init)
    HAL_TIM_Base_MspInit                     0x080025b5   Thumb Code    58  debug.o(i.HAL_TIM_Base_MspInit)
    HAL_TIM_Base_Start_IT                    0x080025f9   Thumb Code   138  stm32l4xx_hal_tim.o(i.HAL_TIM_Base_Start_IT)
    HAL_TIM_IC_CaptureCallback               0x080026a1   Thumb Code     2  stm32l4xx_hal_tim.o(i.HAL_TIM_IC_CaptureCallback)
    HAL_TIM_IRQHandler                       0x080026a3   Thumb Code   396  stm32l4xx_hal_tim.o(i.HAL_TIM_IRQHandler)
    HAL_TIM_OC_DelayElapsedCallback          0x0800282f   Thumb Code     2  stm32l4xx_hal_tim.o(i.HAL_TIM_OC_DelayElapsedCallback)
    HAL_TIM_PWM_PulseFinishedCallback        0x08002831   Thumb Code     2  stm32l4xx_hal_tim.o(i.HAL_TIM_PWM_PulseFinishedCallback)
    HAL_TIM_PeriodElapsedCallback            0x08002835   Thumb Code    18  main.o(i.HAL_TIM_PeriodElapsedCallback)
    HAL_TIM_TriggerCallback                  0x0800284d   Thumb Code     2  stm32l4xx_hal_tim.o(i.HAL_TIM_TriggerCallback)
    HAL_UARTEx_RxEventCallback               0x0800284f   Thumb Code     2  stm32l4xx_hal_uart.o(i.HAL_UARTEx_RxEventCallback)
    HAL_UARTEx_WakeupCallback                0x08002851   Thumb Code     2  stm32l4xx_hal_uart_ex.o(i.HAL_UARTEx_WakeupCallback)
    HAL_UART_ErrorCallback                   0x08002853   Thumb Code     2  stm32l4xx_hal_uart.o(i.HAL_UART_ErrorCallback)
    HAL_UART_GetState                        0x08002855   Thumb Code    14  stm32l4xx_hal_uart.o(i.HAL_UART_GetState)
    HAL_UART_IRQHandler                      0x08002865   Thumb Code   844  stm32l4xx_hal_uart.o(i.HAL_UART_IRQHandler)
    HAL_UART_Init                            0x08002bb9   Thumb Code   116  stm32l4xx_hal_uart.o(i.HAL_UART_Init)
    HAL_UART_MspInit                         0x08002c2d   Thumb Code   254  uart_driver.o(i.HAL_UART_MspInit)
    HAL_UART_Receive_IT                      0x08002d39   Thumb Code    88  stm32l4xx_hal_uart.o(i.HAL_UART_Receive_IT)
    HAL_UART_RxCpltCallback                  0x08002d95   Thumb Code   150  stm32l4xx_it.o(i.HAL_UART_RxCpltCallback)
    HAL_UART_Transmit                        0x08002e45   Thumb Code   186  stm32l4xx_hal_uart.o(i.HAL_UART_Transmit)
    HAL_UART_TxCpltCallback                  0x08002f05   Thumb Code     2  stm32l4xx_hal_uart.o(i.HAL_UART_TxCpltCallback)
    HardFault_Handler                        0x08002f07   Thumb Code     4  stm32l4xx_it.o(i.HardFault_Handler)
    JumpAppAdd                               0x08002f0d   Thumb Code    96  flash.o(i.JumpAppAdd)
    LCD_ST7920_DataIO_Set_In                 0x08002f79   Thumb Code    36  lcd_driver.o(i.LCD_ST7920_DataIO_Set_In)
    LCD_ST7920_DataIO_Set_Out                0x08002fa1   Thumb Code    42  lcd_driver.o(i.LCD_ST7920_DataIO_Set_Out)
    LCD_ST7920_SetAddress                    0x08002fd1   Thumb Code    76  lcd_driver.o(i.LCD_ST7920_SetAddress)
    LCD_ST7920_WriteCmd                      0x0800301d   Thumb Code    88  lcd_driver.o(i.LCD_ST7920_WriteCmd)
    LCD_ST7920_WriteData                     0x0800307d   Thumb Code    86  lcd_driver.o(i.LCD_ST7920_WriteData)
    MX_FREERTOS_Init                         0x080030dd   Thumb Code    36  freertos.o(i.MX_FREERTOS_Init)
    MX_GPIO_Init                             0x08003111   Thumb Code   136  gpio.o(i.MX_GPIO_Init)
    MX_TIM7_Init                             0x0800319d   Thumb Code    72  debug.o(i.MX_TIM7_Init)
    MX_USART1_UART_Init                      0x080031f1   Thumb Code    56  uart_driver.o(i.MX_USART1_UART_Init)
    MX_USART2_UART_Init                      0x08003231   Thumb Code    56  uart_driver.o(i.MX_USART2_UART_Init)
    MemManage_Handler                        0x08003271   Thumb Code     4  stm32l4xx_it.o(i.MemManage_Handler)
    NMI_Handler                              0x08003275   Thumb Code     4  stm32l4xx_it.o(i.NMI_Handler)
    STMFLASH_Read                            0x08003691   Thumb Code    32  flash.o(i.STMFLASH_Read)
    STMFLASH_ReadWord                        0x080036b1   Thumb Code     6  flash.o(i.STMFLASH_ReadWord)
    STMFLASH_Write                           0x080036b9   Thumb Code   294  flash.o(i.STMFLASH_Write)
    STMFLASH_Write_NoCheck                   0x080037ed   Thumb Code    94  flash.o(i.STMFLASH_Write_NoCheck)
    StartDefaultTask                         0x08003851   Thumb Code   128  freertos.o(i.StartDefaultTask)
    SysTick_Handler                          0x08003915   Thumb Code    22  cmsis_os2.o(i.SysTick_Handler)
    SystemClock_Config                       0x0800392b   Thumb Code    96  main.o(i.SystemClock_Config)
    SystemInit                               0x0800398d   Thumb Code    14  system_stm32l4xx.o(i.SystemInit)
    TIM4_IRQHandler                          0x080039a1   Thumb Code    10  stm32l4xx_it.o(i.TIM4_IRQHandler)
    TIM7_IRQHandler                          0x080039b1   Thumb Code    20  stm32l4xx_it.o(i.TIM7_IRQHandler)
    TIM_Base_SetConfig                       0x080039cd   Thumb Code   170  stm32l4xx_hal_tim.o(i.TIM_Base_SetConfig)
    TestPower_ON                             0x08003a99   Thumb Code    78  test_at_app.o(i.TestPower_ON)
    TestPower_ON_ack                         0x08003afd   Thumb Code    32  test_at_app.o(i.TestPower_ON_ack)
    TsetAT_Ack                               0x08003b31   Thumb Code    20  test_at_app.o(i.TsetAT_Ack)
    TsetAT_Send                              0x08003b5d   Thumb Code   124  test_at_app.o(i.TsetAT_Send)
    UART_AdvFeatureConfig                    0x08003c41   Thumb Code   248  stm32l4xx_hal_uart.o(i.UART_AdvFeatureConfig)
    UART_CheckIdleState                      0x08003d39   Thumb Code   230  stm32l4xx_hal_uart.o(i.UART_CheckIdleState)
    UART_SetConfig                           0x080040d1   Thumb Code   836  stm32l4xx_hal_uart.o(i.UART_SetConfig)
    UART_Start_Receive_IT                    0x08004441   Thumb Code   234  stm32l4xx_hal_uart.o(i.UART_Start_Receive_IT)
    UART_WaitOnFlagUntilTimeout              0x08004535   Thumb Code   162  stm32l4xx_hal_uart.o(i.UART_WaitOnFlagUntilTimeout)
    USART1_IRQHandler                        0x080045d9   Thumb Code    86  stm32l4xx_it.o(i.USART1_IRQHandler)
    USART2_IRQHandler                        0x08004641   Thumb Code    70  stm32l4xx_it.o(i.USART2_IRQHandler)
    Uart2_Task_Hand                          0x08004695   Thumb Code   422  uart2_app.o(i.Uart2_Task_Hand)
    UsageFault_Handler                       0x08004949   Thumb Code     4  stm32l4xx_it.o(i.UsageFault_Handler)
    __0printf                                0x0800494d   Thumb Code    22  printfa.o(i.__0printf)
    __1printf                                0x0800494d   Thumb Code     0  printfa.o(i.__0printf)
    __2printf                                0x0800494d   Thumb Code     0  printfa.o(i.__0printf)
    __c89printf                              0x0800494d   Thumb Code     0  printfa.o(i.__0printf)
    printf                                   0x0800494d   Thumb Code     0  printfa.o(i.__0printf)
    __0sprintf                               0x0800496d   Thumb Code    34  printfa.o(i.__0sprintf)
    __1sprintf                               0x0800496d   Thumb Code     0  printfa.o(i.__0sprintf)
    __2sprintf                               0x0800496d   Thumb Code     0  printfa.o(i.__0sprintf)
    __c89sprintf                             0x0800496d   Thumb Code     0  printfa.o(i.__0sprintf)
    sprintf                                  0x0800496d   Thumb Code     0  printfa.o(i.__0sprintf)
    __0vsprintf                              0x08004995   Thumb Code    30  printfa.o(i.__0vsprintf)
    __1vsprintf                              0x08004995   Thumb Code     0  printfa.o(i.__0vsprintf)
    __2vsprintf                              0x08004995   Thumb Code     0  printfa.o(i.__0vsprintf)
    __c89vsprintf                            0x08004995   Thumb Code     0  printfa.o(i.__0vsprintf)
    vsprintf                                 0x08004995   Thumb Code     0  printfa.o(i.__0vsprintf)
    __aeabi_errno_addr                       0x080049f1   Thumb Code     4  errno.o(i.__aeabi_errno_addr)
    __rt_errno_addr                          0x080049f1   Thumb Code     0  errno.o(i.__aeabi_errno_addr)
    __scatterload_copy                       0x080049ff   Thumb Code    14  handlers.o(i.__scatterload_copy)
    __scatterload_null                       0x08004a0d   Thumb Code     2  handlers.o(i.__scatterload_null)
    __scatterload_zeroinit                   0x08004a0f   Thumb Code    14  handlers.o(i.__scatterload_zeroinit)
    debug_task                               0x08005771   Thumb Code    22  debug.o(i.debug_task)
    eTaskGetState                            0x08005911   Thumb Code   104  tasks.o(i.eTaskGetState)
    fputc                                    0x0800598d   Thumb Code    18  fputc.o(i.fputc)
    free                                     0x080059a1   Thumb Code    76  malloc.o(i.free)
    lcd_clear                                0x080059f9   Thumb Code    16  lcd_driver.o(i.lcd_clear)
    lcd_clearline                            0x08005a09   Thumb Code    40  lcd_driver.o(i.lcd_clearline)
    lcd_driver_init                          0x08005a31   Thumb Code    80  lcd_driver.o(i.lcd_driver_init)
    lcd_gpio_init                            0x08005a89   Thumb Code   242  lcd_driver.o(i.lcd_gpio_init)
    lcd_showline                             0x08005b8d   Thumb Code    56  lcd_driver.o(i.lcd_showline)
    lcd_showstr                              0x08005bc5   Thumb Code    42  lcd_driver.o(i.lcd_showstr)
    main                                     0x08005bef   Thumb Code    40  main.o(i.main)
    malloc                                   0x08005c19   Thumb Code    92  malloc.o(i.malloc)
    osKernelInitialize                       0x08005c85   Thumb Code    38  cmsis_os2.o(i.osKernelInitialize)
    osKernelStart                            0x08005cb1   Thumb Code    82  cmsis_os2.o(i.osKernelStart)
    over_activate_ack                        0x080060d9   Thumb Code   274  wireless_app.o(i.over_activate_ack)
    pvPortMalloc                             0x08006c95   Thumb Code   198  heap_4.o(i.pvPortMalloc)
    pvTaskIncrementMutexHeldCount            0x08006d75   Thumb Code    26  tasks.o(i.pvTaskIncrementMutexHeldCount)
    pxPortInitialiseStack                    0x08006d95   Thumb Code    38  port.o(i.pxPortInitialiseStack)
    task_runtime_print                       0x080070dd   Thumb Code    44  debug.o(i.task_runtime_print)
    task_tatus_print                         0x08007131   Thumb Code   158  debug.o(i.task_tatus_print)
    test_AT_task                             0x08007201   Thumb Code    10  test_at_app.o(i.test_AT_task)
    test_OTA_task                            0x0800720d   Thumb Code   164  ota_uart1_app.o(i.test_OTA_task)
    uart1_clear                              0x080072fd   Thumb Code    22  wireless_app.o(i.uart1_clear)
    uart2_clear                              0x08007319   Thumb Code    30  uart2_app.o(i.uart2_clear)
    uart_printf                              0x0800733d   Thumb Code   120  uart_driver.o(i.uart_printf)
    uxListRemove                             0x08007565   Thumb Code    40  list.o(i.uxListRemove)
    uxTaskGetNumberOfTasks                   0x0800758d   Thumb Code     6  tasks.o(i.uxTaskGetNumberOfTasks)
    uxTaskGetSystemState                     0x08007599   Thumb Code   154  tasks.o(i.uxTaskGetSystemState)
    uxTaskResetEventItemValue                0x08007651   Thumb Code    24  tasks.o(i.uxTaskResetEventItemValue)
    vApplicationGetIdleTaskMemory            0x0800766d   Thumb Code    14  cmsis_os2.o(i.vApplicationGetIdleTaskMemory)
    vApplicationGetTimerTaskMemory           0x08007685   Thumb Code    16  cmsis_os2.o(i.vApplicationGetTimerTaskMemory)
    vListInitialise                          0x0800769d   Thumb Code    26  list.o(i.vListInitialise)
    vListInitialiseItem                      0x080076b7   Thumb Code     6  list.o(i.vListInitialiseItem)
    vListInsert                              0x080076bd   Thumb Code    52  list.o(i.vListInsert)
    vListInsertEnd                           0x080076f1   Thumb Code    24  list.o(i.vListInsertEnd)
    vPortEnterCritical                       0x08007709   Thumb Code    30  port.o(i.vPortEnterCritical)
    vPortExitCritical                        0x0800772d   Thumb Code    28  port.o(i.vPortExitCritical)
    vPortFree                                0x0800774d   Thumb Code    74  heap_4.o(i.vPortFree)
    vPortSetupTimerInterrupt                 0x080077a5   Thumb Code    36  port.o(i.vPortSetupTimerInterrupt)
    vQueueAddToRegistry                      0x080077cd   Thumb Code    38  queue.o(i.vQueueAddToRegistry)
    vQueueWaitForMessageRestricted           0x080077f9   Thumb Code    74  queue.o(i.vQueueWaitForMessageRestricted)
    vTaskDelay                               0x08007845   Thumb Code    46  tasks.o(i.vTaskDelay)
    vTaskDelete                              0x08007879   Thumb Code   132  tasks.o(i.vTaskDelete)
    vTaskGetInfo                             0x08007919   Thumb Code   126  tasks.o(i.vTaskGetInfo)
    vTaskGetRunTimeStats                     0x0800799d   Thumb Code   168  tasks.o(i.vTaskGetRunTimeStats)
    vTaskInternalSetTimeOutState             0x08007a61   Thumb Code    14  tasks.o(i.vTaskInternalSetTimeOutState)
    vTaskMissedYield                         0x08007a79   Thumb Code     8  tasks.o(i.vTaskMissedYield)
    vTaskPlaceOnEventList                    0x08007a85   Thumb Code    28  tasks.o(i.vTaskPlaceOnEventList)
    vTaskPlaceOnEventListRestricted          0x08007aa5   Thumb Code    36  tasks.o(i.vTaskPlaceOnEventListRestricted)
    vTaskPlaceOnUnorderedEventList           0x08007acd   Thumb Code    40  tasks.o(i.vTaskPlaceOnUnorderedEventList)
    vTaskPriorityDisinheritAfterTimeout      0x08007af9   Thumb Code   130  tasks.o(i.vTaskPriorityDisinheritAfterTimeout)
    vTaskRemoveFromUnorderedEventList        0x08007b85   Thumb Code    80  tasks.o(i.vTaskRemoveFromUnorderedEventList)
    vTaskStartScheduler                      0x08007be5   Thumb Code   124  tasks.o(i.vTaskStartScheduler)
    vTaskSuspend                             0x08007c7d   Thumb Code   140  tasks.o(i.vTaskSuspend)
    vTaskSuspendAll                          0x08007d1d   Thumb Code    12  tasks.o(i.vTaskSuspendAll)
    vTaskSwitchContext                       0x08007d2d   Thumb Code   150  tasks.o(i.vTaskSwitchContext)
    wireless_init                            0x08007e15   Thumb Code    92  wireless_app.o(i.wireless_init)
    wireless_module_activate                 0x08007e7d   Thumb Code   252  wireless_app.o(i.wireless_module_activate)
    wireless_module_activate_Ack             0x08007fc1   Thumb Code   226  wireless_app.o(i.wireless_module_activate_Ack)
    wireless_power_off                       0x080080f5   Thumb Code   392  wireless_app.o(i.wireless_power_off)
    wireless_power_on                        0x080082e5   Thumb Code   144  wireless_app.o(i.wireless_power_on)
    wireless_task                            0x080083cd   Thumb Code   402  wireless_app.o(i.wireless_task)
    xEventGroupCreate                        0x08008619   Thumb Code    30  event_groups.o(i.xEventGroupCreate)
    xEventGroupSetBits                       0x08008637   Thumb Code   146  event_groups.o(i.xEventGroupSetBits)
    xEventGroupWaitBits                      0x080086d1   Thumb Code   198  event_groups.o(i.xEventGroupWaitBits)
    xPortStartScheduler                      0x080087a5   Thumb Code    58  port.o(i.xPortStartScheduler)
    xPortSysTickHandler                      0x080087ed   Thumb Code    46  port.o(i.xPortSysTickHandler)
    xQueueGenericCreate                      0x08008821   Thumb Code    58  queue.o(i.xQueueGenericCreate)
    xQueueGenericCreateStatic                0x0800885b   Thumb Code    46  queue.o(i.xQueueGenericCreateStatic)
    xQueueGenericReset                       0x08008889   Thumb Code   122  queue.o(i.xQueueGenericReset)
    xQueueGenericSend                        0x08008909   Thumb Code   276  queue.o(i.xQueueGenericSend)
    xQueueGenericSendFromISR                 0x08008a21   Thumb Code   138  queue.o(i.xQueueGenericSendFromISR)
    xQueueGiveFromISR                        0x08008ab1   Thumb Code   120  queue.o(i.xQueueGiveFromISR)
    xQueuePeek                               0x08008b29   Thumb Code   262  queue.o(i.xQueuePeek)
    xQueueReceive                            0x08008c35   Thumb Code   256  queue.o(i.xQueueReceive)
    xQueueSemaphoreTake                      0x08008d39   Thumb Code   300  queue.o(i.xQueueSemaphoreTake)
    xTaskCheckForTimeOut                     0x08008e69   Thumb Code    84  tasks.o(i.xTaskCheckForTimeOut)
    xTaskCreate                              0x08008ec5   Thumb Code   100  tasks.o(i.xTaskCreate)
    xTaskCreateStatic                        0x08008f2f   Thumb Code    78  tasks.o(i.xTaskCreateStatic)
    xTaskGetSchedulerState                   0x08008f85   Thumb Code    24  tasks.o(i.xTaskGetSchedulerState)
    xTaskGetTickCount                        0x08008fa5   Thumb Code     6  tasks.o(i.xTaskGetTickCount)
    xTaskIncrementTick                       0x08008fb1   Thumb Code   236  tasks.o(i.xTaskIncrementTick)
    xTaskPriorityDisinherit                  0x080090c9   Thumb Code    86  tasks.o(i.xTaskPriorityDisinherit)
    xTaskPriorityInherit                     0x08009129   Thumb Code   150  tasks.o(i.xTaskPriorityInherit)
    xTaskRemoveFromEventList                 0x080091cd   Thumb Code   102  tasks.o(i.xTaskRemoveFromEventList)
    xTaskResumeAll                           0x0800924d   Thumb Code   194  tasks.o(i.xTaskResumeAll)
    xTimerCreate                             0x08009335   Thumb Code    54  timers.o(i.xTimerCreate)
    xTimerCreateTimerTask                    0x08009371   Thumb Code    76  timers.o(i.xTimerCreateTimerTask)
    xTimerGenericCommand                     0x080093d1   Thumb Code   104  timers.o(i.xTimerGenericCommand)
    AHBPrescTable                            0x0800943c   Data          16  system_stm32l4xx.o(.constdata)
    APBPrescTable                            0x0800944c   Data           8  system_stm32l4xx.o(.constdata)
    MSIRangeTable                            0x08009454   Data          48  system_stm32l4xx.o(.constdata)
    __ctype_table                            0x08009484   Data         129  ctype_o.o(.constdata)
    Region$$Table$$Base                      0x08009834   Number         0  anon$$obj.o(Region$$Table)
    Region$$Table$$Limit                     0x08009854   Number         0  anon$$obj.o(Region$$Table)
    defaultTaskHandle                        0x20000000   Data           4  freertos.o(.data)
    StartTask_Handler                        0x20000004   Data           4  freertos.o(.data)
    Uart2Task_Handler                        0x20000008   Data           4  freertos.o(.data)
    OtaTask_Handler                          0x2000000c   Data           4  freertos.o(.data)
    AtTask_Handler                           0x20000010   Data           4  freertos.o(.data)
    WirelessTask_Handler                     0x20000014   Data           4  freertos.o(.data)
    DebugTask_Handler                        0x20000018   Data           4  freertos.o(.data)
    uwTick                                   0x20000020   Data           4  stm32l4xx_hal.o(.data)
    uwTickPrio                               0x20000024   Data           4  stm32l4xx_hal.o(.data)
    uwTickFreq                               0x20000028   Data           1  stm32l4xx_hal.o(.data)
    pFlash                                   0x2000002c   Data          32  stm32l4xx_hal_flash.o(.data)
    SystemCoreClock                          0x2000004c   Data           4  system_stm32l4xx.o(.data)
    pxCurrentTCB                             0x20000050   Data           4  tasks.o(.data)
    EventGroupHandler                        0x200000d4   Data           4  ota_uart1_app.o(.data)
    OtaBuf_xQueue                            0x200000d8   Data           4  ota_uart1_app.o(.data)
    OtaRetry_xQueue                          0x200000dc   Data           4  ota_uart1_app.o(.data)
    AckData_Semaphore                        0x200000e0   Data           4  ota_uart1_app.o(.data)
    OTA_OverTimer_Handler                    0x200000e8   Data           4  ota_uart1_app.o(.data)
    ota_step_bits                            0x20000268   Data           4  ota_uart1_app.o(.data)
    upgrade_step_list                        0x200002d0   Data         100  ota_uart1_app.o(.data)
    order_task                               0x20000338   Data           8  uart2_app.o(.data)
    AT_Flag                                  0x20000340   Data           1  uart2_app.o(.data)
    Wireless_Queue                           0x20000344   Data           4  uart2_app.o(.data)
    Timer1Timer_Handler                      0x20000348   Data           4  test_at_app.o(.data)
    Timer2Timer_Handler                      0x2000034c   Data           4  test_at_app.o(.data)
    PowerOn_Timer_Handler                    0x20000350   Data           4  wireless_app.o(.data)
    PowerReset_Timer_Handler                 0x20000354   Data           4  wireless_app.o(.data)
    AT_Step_Timer_Handler                    0x20000358   Data           4  wireless_app.o(.data)
    AT_Step_Wait_Timer                       0x2000035c   Data           4  wireless_app.o(.data)
    wireless                                 0x20000360   Data           6  wireless_app.o(.data)
    at_fsm_list                              0x20000368   Data         280  wireless_app.o(.data)
    FreeRTOSRunTimeTicks                     0x20000484   Data           4  debug.o(.data)
    __stdout                                 0x200004a0   Data           4  stdout.o(.data)
    __microlib_freelist                      0x200004a4   Data           4  mvars.o(.data)
    __microlib_freelist_initialised          0x200004a8   Data           4  mvars.o(.data)
    htim4                                    0x200004b0   Data          76  stm32l4xx_hal_timebase_tim.o(.bss)
    xQueueRegistry                           0x200004fc   Data          64  queue.o(.bss)
    huart1                                   0x200061d8   Data         136  uart_driver.o(.bss)
    huart2                                   0x20006260   Data         136  uart_driver.o(.bss)
    uart1_buf                                0x200062e8   Data        2060  uart_driver.o(.bss)
    uart2_buf                                0x20006af4   Data        2060  uart_driver.o(.bss)
    temporary_buf                            0x20007300   Data        2060  uart_driver.o(.bss)
    printf_buf                               0x20007b0c   Data        2048  uart_driver.o(.bss)
    Erase_Sector                             0x20008b10   Data        2048  ota_uart1_app.o(.bss)
    ota_buf                                  0x20009310   Data        2048  ota_uart1_app.o(.bss)
    htim7                                    0x20009b10   Data          76  debug.o(.bss)
    __heap_base                              0x20009b60   Data           0  startup_stm32l476xx.o(HEAP)
    __heap_limit                             0x20009d60   Data           0  startup_stm32l476xx.o(HEAP)
    __initial_sp                             0x2000a160   Data           0  startup_stm32l476xx.o(STACK)



==============================================================================

Memory Map of the image

  Image Entry point : 0x08000189

  Load Region LR_IROM1 (Base: 0x08000000, Size: 0x00009d04, Max: 0x00010000, ABSOLUTE, COMPRESSED[0x00009a0c])

    Execution Region ER_IROM1 (Exec base: 0x08000000, Load base: 0x08000000, Size: 0x00009854, Max: 0x00010000, ABSOLUTE)

    Exec Addr    Load Addr    Size         Type   Attr      Idx    E Section Name        Object

    0x08000000   0x08000000   0x00000188   Data   RO            3    RESET               startup_stm32l476xx.o
    0x08000188   0x08000188   0x00000000   Code   RO         6154  * .ARM.Collect$$$$00000000  mc_w.l(entry.o)
    0x08000188   0x08000188   0x00000004   Code   RO         6464    .ARM.Collect$$$$00000001  mc_w.l(entry2.o)
    0x0800018c   0x0800018c   0x00000004   Code   RO         6467    .ARM.Collect$$$$00000004  mc_w.l(entry5.o)
    0x08000190   0x08000190   0x00000000   Code   RO         6469    .ARM.Collect$$$$00000008  mc_w.l(entry7b.o)
    0x08000190   0x08000190   0x00000000   Code   RO         6471    .ARM.Collect$$$$0000000A  mc_w.l(entry8b.o)
    0x08000190   0x08000190   0x00000008   Code   RO         6472    .ARM.Collect$$$$0000000B  mc_w.l(entry9a.o)
    0x08000198   0x08000198   0x00000004   Code   RO         6479    .ARM.Collect$$$$0000000E  mc_w.l(entry12b.o)
    0x0800019c   0x0800019c   0x00000000   Code   RO         6474    .ARM.Collect$$$$0000000F  mc_w.l(entry10a.o)
    0x0800019c   0x0800019c   0x00000000   Code   RO         6476    .ARM.Collect$$$$00000011  mc_w.l(entry11a.o)
    0x0800019c   0x0800019c   0x00000004   Code   RO         6465    .ARM.Collect$$$$00002712  mc_w.l(entry2.o)
    0x080001a0   0x080001a0   0x000000de   Code   RO         5289    .emb_text           port.o
    0x0800027e   0x0800027e   0x00000002   PAD
    0x08000280   0x08000280   0x00000024   Code   RO            4    .text               startup_stm32l476xx.o
    0x080002a4   0x080002a4   0x00000068   Code   RO         6157    .text               mc_w.l(uldiv.o)
    0x0800030c   0x0800030c   0x00000024   Code   RO         6159    .text               mc_w.l(memcpya.o)
    0x08000330   0x08000330   0x00000024   Code   RO         6161    .text               mc_w.l(memseta.o)
    0x08000354   0x08000354   0x00000024   Code   RO         6163    .text               mc_w.l(strstr.o)
    0x08000378   0x08000378   0x0000000e   Code   RO         6165    .text               mc_w.l(strlen.o)
    0x08000386   0x08000386   0x0000001a   Code   RO         6167    .text               mc_w.l(memcmp.o)
    0x080003a0   0x080003a0   0x00000012   Code   RO         6169    .text               mc_w.l(strcpy.o)
    0x080003b2   0x080003b2   0x0000001a   Code   RO         6462    .text               mc_w.l(atoi.o)
    0x080003cc   0x080003cc   0x0000002c   Code   RO         6483    .text               mc_w.l(uidiv.o)
    0x080003f8   0x080003f8   0x0000001e   Code   RO         6485    .text               mc_w.l(llshl.o)
    0x08000416   0x08000416   0x00000020   Code   RO         6487    .text               mc_w.l(llushr.o)
    0x08000436   0x08000436   0x00000070   Code   RO         6498    .text               mc_w.l(strtol.o)
    0x080004a6   0x080004a6   0x00000000   Code   RO         6500    .text               mc_w.l(iusefp.o)
    0x080004a6   0x080004a6   0x0000015e   Code   RO         6501    .text               mf_w.l(dadd.o)
    0x08000604   0x08000604   0x000000ea   Code   RO         6503    .text               mf_w.l(dmul.o)
    0x080006ee   0x080006ee   0x000000de   Code   RO         6505    .text               mf_w.l(ddiv.o)
    0x080007cc   0x080007cc   0x00000030   Code   RO         6507    .text               mf_w.l(dfixul.o)
    0x080007fc   0x080007fc   0x00000030   Code   RO         6509    .text               mf_w.l(cdrcmple.o)
    0x0800082c   0x0800082c   0x00000024   Code   RO         6511    .text               mc_w.l(init.o)
    0x08000850   0x08000850   0x00000000   Code   RO         6513    .text               mc_w.l(semi.o)
    0x08000850   0x08000850   0x00000024   Code   RO         6514    .text               mc_w.l(llsshr.o)
    0x08000874   0x08000874   0x00000008   Code   RO         6516    .text               mc_w.l(ctype_o.o)
    0x0800087c   0x0800087c   0x000000a4   Code   RO         6544    .text               mc_w.l(_strtoul.o)
    0x08000920   0x08000920   0x00000000   Code   RO         6546    .text               mc_w.l(iusesemip.o)
    0x08000920   0x08000920   0x000000ba   Code   RO         6547    .text               mf_w.l(depilogue.o)
    0x080009da   0x080009da   0x0000001c   Code   RO         6549    .text               mc_w.l(_chval.o)
    0x080009f6   0x080009f6   0x00000056   Code   RO         6559    .text               mc_w.l(__dczerorl2.o)
    0x08000a4c   0x08000a4c   0x00000004   Code   RO          333    i.BusFault_Handler  stm32l4xx_it.o
    0x08000a50   0x08000a50   0x00000054   Code   RO         5363    i.Chk_Busy          lcd_driver.o
    0x08000aa4   0x08000aa4   0x00000014   Code   RO         6086    i.ConfigureTimeForRunTimeStats  debug.o
    0x08000ab8   0x08000ab8   0x00000002   Code   RO          334    i.DebugMon_Handler  stm32l4xx_it.o
    0x08000aba   0x08000aba   0x00000002   PAD
    0x08000abc   0x08000abc   0x0000001c   Code   RO          484    i.DelayInit         delay.o
    0x08000ad8   0x08000ad8   0x0000001c   Code   RO          485    i.DelayMs           delay.o
    0x08000af4   0x08000af4   0x00000006   Code   RO           13    i.Error_Handler     main.o
    0x08000afa   0x08000afa   0x00000002   PAD
    0x08000afc   0x08000afc   0x00000078   Code   RO         1113    i.FLASH_FlushCaches  stm32l4xx_hal_flash_ex.o
    0x08000b74   0x08000b74   0x00000038   Code   RO         1114    i.FLASH_MassErase   stm32l4xx_hal_flash_ex.o
    0x08000bac   0x08000bac   0x00000048   Code   RO         1123    i.FLASH_PageErase   stm32l4xx_hal_flash_ex.o
    0x08000bf4   0x08000bf4   0x00000028   Code   RO         1004    i.FLASH_Program_DoubleWord  stm32l4xx_hal_flash.o
    0x08000c1c   0x08000c1c   0x00000040   Code   RO         1005    i.FLASH_Program_Fast  stm32l4xx_hal_flash.o
    0x08000c5c   0x08000c5c   0x0000008c   Code   RO         1006    i.FLASH_WaitForLastOperation  stm32l4xx_hal_flash.o
    0x08000ce8   0x08000ce8   0x00000038   Code   RO         5596    i.Get_FLASH_Bank    flash.o
    0x08000d20   0x08000d20   0x00000028   Code   RO         5685    i.Get_OtaStep_EventBit  ota_uart1_app.o
    0x08000d48   0x08000d48   0x00000040   Code   RO         5686    i.Get_ota_step      ota_uart1_app.o
    0x08000d88   0x08000d88   0x0000005a   Code   RO         1309    i.HAL_DMA_Abort     stm32l4xx_hal_dma.o
    0x08000de2   0x08000de2   0x0000005c   Code   RO         1310    i.HAL_DMA_Abort_IT  stm32l4xx_hal_dma.o
    0x08000e3e   0x08000e3e   0x00000002   PAD
    0x08000e40   0x08000e40   0x00000028   Code   RO          529    i.HAL_Delay         stm32l4xx_hal.o
    0x08000e68   0x08000e68   0x00000104   Code   RO         1124    i.HAL_FLASHEx_Erase  stm32l4xx_hal_flash_ex.o
    0x08000f6c   0x08000f6c   0x00000014   Code   RO         1010    i.HAL_FLASH_Lock    stm32l4xx_hal_flash.o
    0x08000f80   0x08000f80   0x000000c0   Code   RO         1015    i.HAL_FLASH_Program  stm32l4xx_hal_flash.o
    0x08001040   0x08001040   0x00000030   Code   RO         1017    i.HAL_FLASH_Unlock  stm32l4xx_hal_flash.o
    0x08001070   0x08001070   0x000001fc   Code   RO         1245    i.HAL_GPIO_Init     stm32l4xx_hal_gpio.o
    0x0800126c   0x0800126c   0x0000000a   Code   RO         1249    i.HAL_GPIO_WritePin  stm32l4xx_hal_gpio.o
    0x08001276   0x08001276   0x00000002   PAD
    0x08001278   0x08001278   0x0000000c   Code   RO          533    i.HAL_GetTick       stm32l4xx_hal.o
    0x08001284   0x08001284   0x00000018   Code   RO          539    i.HAL_IncTick       stm32l4xx_hal.o
    0x0800129c   0x0800129c   0x0000001e   Code   RO          540    i.HAL_Init          stm32l4xx_hal.o
    0x080012ba   0x080012ba   0x00000002   PAD
    0x080012bc   0x080012bc   0x000000b0   Code   RO          445    i.HAL_InitTick      stm32l4xx_hal_timebase_tim.o
    0x0800136c   0x0800136c   0x00000048   Code   RO          421    i.HAL_MspInit       stm32l4xx_hal_msp.o
    0x080013b4   0x080013b4   0x00000028   Code   RO         1804    i.HAL_NVIC_EnableIRQ  stm32l4xx_hal_cortex.o
    0x080013dc   0x080013dc   0x00000082   Code   RO         1810    i.HAL_NVIC_SetPriority  stm32l4xx_hal_cortex.o
    0x0800145e   0x0800145e   0x00000002   PAD
    0x08001460   0x08001460   0x00000028   Code   RO         1811    i.HAL_NVIC_SetPriorityGrouping  stm32l4xx_hal_cortex.o
    0x08001488   0x08001488   0x0000008c   Code   RO         1536    i.HAL_PWREx_ControlVoltageScaling  stm32l4xx_hal_pwr_ex.o
    0x08001514   0x08001514   0x00000010   Code   RO         1569    i.HAL_PWREx_GetVoltageRange  stm32l4xx_hal_pwr_ex.o
    0x08001524   0x08001524   0x000004d4   Code   RO          878    i.HAL_RCCEx_PeriphCLKConfig  stm32l4xx_hal_rcc_ex.o
    0x080019f8   0x080019f8   0x000001b4   Code   RO          757    i.HAL_RCC_ClockConfig  stm32l4xx_hal_rcc.o
    0x08001bac   0x08001bac   0x00000110   Code   RO          758    i.HAL_RCC_DeInit    stm32l4xx_hal_rcc.o
    0x08001cbc   0x08001cbc   0x00000044   Code   RO          760    i.HAL_RCC_GetClockConfig  stm32l4xx_hal_rcc.o
    0x08001d00   0x08001d00   0x0000000c   Code   RO          761    i.HAL_RCC_GetHCLKFreq  stm32l4xx_hal_rcc.o
    0x08001d0c   0x08001d0c   0x00000024   Code   RO          763    i.HAL_RCC_GetPCLK1Freq  stm32l4xx_hal_rcc.o
    0x08001d30   0x08001d30   0x00000024   Code   RO          764    i.HAL_RCC_GetPCLK2Freq  stm32l4xx_hal_rcc.o
    0x08001d54   0x08001d54   0x000000ec   Code   RO          766    i.HAL_RCC_GetSysClockFreq  stm32l4xx_hal_rcc.o
    0x08001e40   0x08001e40   0x000006e8   Code   RO          769    i.HAL_RCC_OscConfig  stm32l4xx_hal_rcc.o
    0x08002528   0x08002528   0x00000018   Code   RO          447    i.HAL_SuspendTick   stm32l4xx_hal_timebase_tim.o
    0x08002540   0x08002540   0x00000002   Code   RO         2738    i.HAL_TIMEx_Break2Callback  stm32l4xx_hal_tim_ex.o
    0x08002542   0x08002542   0x00000002   Code   RO         2739    i.HAL_TIMEx_BreakCallback  stm32l4xx_hal_tim_ex.o
    0x08002544   0x08002544   0x00000002   Code   RO         2740    i.HAL_TIMEx_CommutCallback  stm32l4xx_hal_tim_ex.o
    0x08002546   0x08002546   0x0000006e   Code   RO         2013    i.HAL_TIM_Base_Init  stm32l4xx_hal_tim.o
    0x080025b4   0x080025b4   0x00000044   Code   RO         6088    i.HAL_TIM_Base_MspInit  debug.o
    0x080025f8   0x080025f8   0x000000a8   Code   RO         2018    i.HAL_TIM_Base_Start_IT  stm32l4xx_hal_tim.o
    0x080026a0   0x080026a0   0x00000002   Code   RO         2047    i.HAL_TIM_IC_CaptureCallback  stm32l4xx_hal_tim.o
    0x080026a2   0x080026a2   0x0000018c   Code   RO         2061    i.HAL_TIM_IRQHandler  stm32l4xx_hal_tim.o
    0x0800282e   0x0800282e   0x00000002   Code   RO         2064    i.HAL_TIM_OC_DelayElapsedCallback  stm32l4xx_hal_tim.o
    0x08002830   0x08002830   0x00000002   Code   RO         2091    i.HAL_TIM_PWM_PulseFinishedCallback  stm32l4xx_hal_tim.o
    0x08002832   0x08002832   0x00000002   PAD
    0x08002834   0x08002834   0x00000018   Code   RO           14    i.HAL_TIM_PeriodElapsedCallback  main.o
    0x0800284c   0x0800284c   0x00000002   Code   RO         2104    i.HAL_TIM_TriggerCallback  stm32l4xx_hal_tim.o
    0x0800284e   0x0800284e   0x00000002   Code   RO         3032    i.HAL_UARTEx_RxEventCallback  stm32l4xx_hal_uart.o
    0x08002850   0x08002850   0x00000002   Code   RO         3431    i.HAL_UARTEx_WakeupCallback  stm32l4xx_hal_uart_ex.o
    0x08002852   0x08002852   0x00000002   Code   RO         3048    i.HAL_UART_ErrorCallback  stm32l4xx_hal_uart.o
    0x08002854   0x08002854   0x0000000e   Code   RO         3050    i.HAL_UART_GetState  stm32l4xx_hal_uart.o
    0x08002862   0x08002862   0x00000002   PAD
    0x08002864   0x08002864   0x00000354   Code   RO         3051    i.HAL_UART_IRQHandler  stm32l4xx_hal_uart.o
    0x08002bb8   0x08002bb8   0x00000074   Code   RO         3052    i.HAL_UART_Init     stm32l4xx_hal_uart.o
    0x08002c2c   0x08002c2c   0x0000010c   Code   RO         5506    i.HAL_UART_MspInit  uart_driver.o
    0x08002d38   0x08002d38   0x0000005c   Code   RO         3057    i.HAL_UART_Receive_IT  stm32l4xx_hal_uart.o
    0x08002d94   0x08002d94   0x000000b0   Code   RO          335    i.HAL_UART_RxCpltCallback  stm32l4xx_it.o
    0x08002e44   0x08002e44   0x000000c0   Code   RO         3061    i.HAL_UART_Transmit  stm32l4xx_hal_uart.o
    0x08002f04   0x08002f04   0x00000002   Code   RO         3064    i.HAL_UART_TxCpltCallback  stm32l4xx_hal_uart.o
    0x08002f06   0x08002f06   0x00000004   Code   RO          336    i.HardFault_Handler  stm32l4xx_it.o
    0x08002f0a   0x08002f0a   0x00000002   PAD
    0x08002f0c   0x08002f0c   0x0000006c   Code   RO         5597    i.JumpAppAdd        flash.o
    0x08002f78   0x08002f78   0x00000028   Code   RO         5364    i.LCD_ST7920_DataIO_Set_In  lcd_driver.o
    0x08002fa0   0x08002fa0   0x00000030   Code   RO         5365    i.LCD_ST7920_DataIO_Set_Out  lcd_driver.o
    0x08002fd0   0x08002fd0   0x0000004c   Code   RO         5366    i.LCD_ST7920_SetAddress  lcd_driver.o
    0x0800301c   0x0800301c   0x00000060   Code   RO         5367    i.LCD_ST7920_WriteCmd  lcd_driver.o
    0x0800307c   0x0800307c   0x00000060   Code   RO         5368    i.LCD_ST7920_WriteData  lcd_driver.o
    0x080030dc   0x080030dc   0x00000034   Code   RO          268    i.MX_FREERTOS_Init  freertos.o
    0x08003110   0x08003110   0x0000008c   Code   RO          244    i.MX_GPIO_Init      gpio.o
    0x0800319c   0x0800319c   0x00000054   Code   RO         6089    i.MX_TIM7_Init      debug.o
    0x080031f0   0x080031f0   0x00000040   Code   RO         5507    i.MX_USART1_UART_Init  uart_driver.o
    0x08003230   0x08003230   0x00000040   Code   RO         5508    i.MX_USART2_UART_Init  uart_driver.o
    0x08003270   0x08003270   0x00000004   Code   RO          337    i.MemManage_Handler  stm32l4xx_it.o
    0x08003274   0x08003274   0x00000004   Code   RO          338    i.NMI_Handler       stm32l4xx_it.o
    0x08003278   0x08003278   0x0000006c   Code   RO         5894    i.Power_ON_ack      wireless_app.o
    0x080032e4   0x080032e4   0x00000020   Code   RO         5895    i.Power_Reset_ack   wireless_app.o
    0x08003304   0x08003304   0x0000018c   Code   RO          882    i.RCCEx_PLLSAI1_Config  stm32l4xx_hal_rcc_ex.o
    0x08003490   0x08003490   0x00000164   Code   RO          883    i.RCCEx_PLLSAI2_Config  stm32l4xx_hal_rcc_ex.o
    0x080035f4   0x080035f4   0x0000009c   Code   RO          770    i.RCC_SetFlashLatencyFromMSIRange  stm32l4xx_hal_rcc.o
    0x08003690   0x08003690   0x00000020   Code   RO         5598    i.STMFLASH_Read     flash.o
    0x080036b0   0x080036b0   0x00000006   Code   RO         5599    i.STMFLASH_ReadWord  flash.o
    0x080036b6   0x080036b6   0x00000002   PAD
    0x080036b8   0x080036b8   0x00000132   Code   RO         5600    i.STMFLASH_Write    flash.o
    0x080037ea   0x080037ea   0x00000002   PAD
    0x080037ec   0x080037ec   0x00000064   Code   RO         5601    i.STMFLASH_Write_NoCheck  flash.o
    0x08003850   0x08003850   0x000000c4   Code   RO          269    i.StartDefaultTask  freertos.o
    0x08003914   0x08003914   0x00000016   Code   RO         4719    i.SysTick_Handler   cmsis_os2.o
    0x0800392a   0x0800392a   0x00000060   Code   RO           15    i.SystemClock_Config  main.o
    0x0800398a   0x0800398a   0x00000002   PAD
    0x0800398c   0x0800398c   0x00000014   Code   RO         3516    i.SystemInit        system_stm32l4xx.o
    0x080039a0   0x080039a0   0x00000010   Code   RO          339    i.TIM4_IRQHandler   stm32l4xx_it.o
    0x080039b0   0x080039b0   0x0000001c   Code   RO          340    i.TIM7_IRQHandler   stm32l4xx_it.o
    0x080039cc   0x080039cc   0x000000cc   Code   RO         2106    i.TIM_Base_SetConfig  stm32l4xx_hal_tim.o
    0x08003a98   0x08003a98   0x00000064   Code   RO         5843    i.TestPower_ON      test_at_app.o
    0x08003afc   0x08003afc   0x00000034   Code   RO         5844    i.TestPower_ON_ack  test_at_app.o
    0x08003b30   0x08003b30   0x0000002c   Code   RO         5845    i.TsetAT_Ack        test_at_app.o
    0x08003b5c   0x08003b5c   0x000000e4   Code   RO         5846    i.TsetAT_Send       test_at_app.o
    0x08003c40   0x08003c40   0x000000f8   Code   RO         3066    i.UART_AdvFeatureConfig  stm32l4xx_hal_uart.o
    0x08003d38   0x08003d38   0x000000e6   Code   RO         3067    i.UART_CheckIdleState  stm32l4xx_hal_uart.o
    0x08003e1e   0x08003e1e   0x00000018   Code   RO         3068    i.UART_DMAAbortOnError  stm32l4xx_hal_uart.o
    0x08003e36   0x08003e36   0x00000066   Code   RO         3078    i.UART_EndRxTransfer  stm32l4xx_hal_uart.o
    0x08003e9c   0x08003e9c   0x0000002e   Code   RO         3079    i.UART_EndTransmit_IT  stm32l4xx_hal_uart.o
    0x08003eca   0x08003eca   0x00000002   PAD
    0x08003ecc   0x08003ecc   0x00000104   Code   RO         3081    i.UART_RxISR_16BIT  stm32l4xx_hal_uart.o
    0x08003fd0   0x08003fd0   0x00000100   Code   RO         3082    i.UART_RxISR_8BIT   stm32l4xx_hal_uart.o
    0x080040d0   0x080040d0   0x0000036e   Code   RO         3083    i.UART_SetConfig    stm32l4xx_hal_uart.o
    0x0800443e   0x0800443e   0x00000002   PAD
    0x08004440   0x08004440   0x000000f4   Code   RO         3085    i.UART_Start_Receive_IT  stm32l4xx_hal_uart.o
    0x08004534   0x08004534   0x000000a2   Code   RO         3088    i.UART_WaitOnFlagUntilTimeout  stm32l4xx_hal_uart.o
    0x080045d6   0x080045d6   0x00000002   PAD
    0x080045d8   0x080045d8   0x00000068   Code   RO          341    i.USART1_IRQHandler  stm32l4xx_it.o
    0x08004640   0x08004640   0x00000054   Code   RO          342    i.USART2_IRQHandler  stm32l4xx_it.o
    0x08004694   0x08004694   0x000002b4   Code   RO         5807    i.Uart2_Task_Hand   uart2_app.o
    0x08004948   0x08004948   0x00000004   Code   RO          343    i.UsageFault_Handler  stm32l4xx_it.o
    0x0800494c   0x0800494c   0x00000020   Code   RO         6406    i.__0printf         mc_w.l(printfa.o)
    0x0800496c   0x0800496c   0x00000028   Code   RO         6408    i.__0sprintf        mc_w.l(printfa.o)
    0x08004994   0x08004994   0x00000024   Code   RO         6412    i.__0vsprintf       mc_w.l(printfa.o)
    0x080049b8   0x080049b8   0x00000010   Code   RO         1817    i.__NVIC_GetPriorityGrouping  stm32l4xx_hal_cortex.o
    0x080049c8   0x080049c8   0x00000028   Code   RO         1818    i.__NVIC_SetPriority  stm32l4xx_hal_cortex.o
    0x080049f0   0x080049f0   0x00000008   Code   RO         6491    i.__aeabi_errno_addr  mc_w.l(errno.o)
    0x080049f8   0x080049f8   0x00000006   Code   RO         4721    i.__get_IPSR        cmsis_os2.o
    0x080049fe   0x080049fe   0x0000000e   Code   RO         6553    i.__scatterload_copy  mc_w.l(handlers.o)
    0x08004a0c   0x08004a0c   0x00000002   Code   RO         6554    i.__scatterload_null  mc_w.l(handlers.o)
    0x08004a0e   0x08004a0e   0x0000000e   Code   RO         6555    i.__scatterload_zeroinit  mc_w.l(handlers.o)
    0x08004a1c   0x08004a1c   0x0000018a   Code   RO         6413    i._fp_digits        mc_w.l(printfa.o)
    0x08004ba6   0x08004ba6   0x00000002   PAD
    0x08004ba8   0x08004ba8   0x000006ba   Code   RO         6414    i._printf_core      mc_w.l(printfa.o)
    0x08005262   0x08005262   0x00000024   Code   RO         6415    i._printf_post_padding  mc_w.l(printfa.o)
    0x08005286   0x08005286   0x0000002e   Code   RO         6416    i._printf_pre_padding  mc_w.l(printfa.o)
    0x080052b4   0x080052b4   0x0000000a   Code   RO         6418    i._sputc            mc_w.l(printfa.o)
    0x080052be   0x080052be   0x00000002   PAD
    0x080052c0   0x080052c0   0x00000044   Code   RO         5896    i.ack_AT            wireless_app.o
    0x08005304   0x08005304   0x0000003c   Code   RO         5897    i.ack_ATE0          wireless_app.o
    0x08005340   0x08005340   0x00000044   Code   RO         5898    i.ack_CEREG         wireless_app.o
    0x08005384   0x08005384   0x00000048   Code   RO         5899    i.ack_CPIN          wireless_app.o
    0x080053cc   0x080053cc   0x00000058   Code   RO         5900    i.ack_CREG          wireless_app.o
    0x08005424   0x08005424   0x00000064   Code   RO         5901    i.ack_CSQ           wireless_app.o
    0x08005488   0x08005488   0x0000003c   Code   RO         5902    i.ack_QIACT         wireless_app.o
    0x080054c4   0x080054c4   0x0000003c   Code   RO         5903    i.ack_QICSGP        wireless_app.o
    0x08005500   0x08005500   0x00000040   Code   RO         5904    i.ack_QIDEACT       wireless_app.o
    0x08005540   0x08005540   0x00000048   Code   RO         5905    i.ack_QIOPEN        wireless_app.o
    0x08005588   0x08005588   0x00000070   Code   RO         5687    i.check_upgrade_state_ack  ota_uart1_app.o
    0x080055f8   0x080055f8   0x00000040   Code   RO         5688    i.check_upgrade_state_hande  ota_uart1_app.o
    0x08005638   0x08005638   0x000000f4   Code   RO         5689    i.check_upgrade_task_ack  ota_uart1_app.o
    0x0800572c   0x0800572c   0x00000044   Code   RO         5690    i.check_upgrade_task_hand  ota_uart1_app.o
    0x08005770   0x08005770   0x00000016   Code   RO         6090    i.debug_task        debug.o
    0x08005786   0x08005786   0x00000002   PAD
    0x08005788   0x08005788   0x00000130   Code   RO         5691    i.download_upgrade_pake_ack  ota_uart1_app.o
    0x080058b8   0x080058b8   0x00000058   Code   RO         5692    i.download_upgrade_pake_hand  ota_uart1_app.o
    0x08005910   0x08005910   0x0000007c   Code   RO         4128    i.eTaskGetState     tasks.o
    0x0800598c   0x0800598c   0x00000012   Code   RO         6480    i.fputc             mc_w.l(fputc.o)
    0x0800599e   0x0800599e   0x00000002   PAD
    0x080059a0   0x080059a0   0x00000050   Code   RO         6434    i.free              mc_w.l(malloc.o)
    0x080059f0   0x080059f0   0x00000008   Code   RO         5509    i.inHandlerMode     uart_driver.o
    0x080059f8   0x080059f8   0x00000010   Code   RO         5369    i.lcd_clear         lcd_driver.o
    0x08005a08   0x08005a08   0x00000028   Code   RO         5370    i.lcd_clearline     lcd_driver.o
    0x08005a30   0x08005a30   0x00000058   Code   RO         5372    i.lcd_driver_init   lcd_driver.o
    0x08005a88   0x08005a88   0x00000104   Code   RO         5373    i.lcd_gpio_init     lcd_driver.o
    0x08005b8c   0x08005b8c   0x00000038   Code   RO         5377    i.lcd_showline      lcd_driver.o
    0x08005bc4   0x08005bc4   0x0000002a   Code   RO         5379    i.lcd_showstr       lcd_driver.o
    0x08005bee   0x08005bee   0x00000028   Code   RO           16    i.main              main.o
    0x08005c16   0x08005c16   0x00000002   PAD
    0x08005c18   0x08005c18   0x0000006c   Code   RO         6435    i.malloc            mc_w.l(malloc.o)
    0x08005c84   0x08005c84   0x0000002c   Code   RO         4736    i.osKernelInitialize  cmsis_os2.o
    0x08005cb0   0x08005cb0   0x00000060   Code   RO         4739    i.osKernelStart     cmsis_os2.o
    0x08005d10   0x08005d10   0x000001a0   Code   RO         5693    i.ota_overtime_ack  ota_uart1_app.o
    0x08005eb0   0x08005eb0   0x00000168   Code   RO         5694    i.ota_step_ack_handel  ota_uart1_app.o
    0x08006018   0x08006018   0x000000c0   Code   RO         5695    i.ota_step_send_handel  ota_uart1_app.o
    0x080060d8   0x080060d8   0x00000178   Code   RO         5906    i.over_activate_ack  wireless_app.o
    0x08006250   0x08006250   0x0000007c   Code   RO         4130    i.prvAddCurrentTaskToDelayedList  tasks.o
    0x080062cc   0x080062cc   0x000000b8   Code   RO         4131    i.prvAddNewTaskToReadyList  tasks.o
    0x08006384   0x08006384   0x00000074   Code   RO         4547    i.prvCheckForValidListAndQueue  timers.o
    0x080063f8   0x080063f8   0x00000048   Code   RO         4132    i.prvCheckTasksWaitingTermination  tasks.o
    0x08006440   0x08006440   0x0000002a   Code   RO         3717    i.prvCopyDataFromQueue  queue.o
    0x0800646a   0x0800646a   0x0000007e   Code   RO         3718    i.prvCopyDataToQueue  queue.o
    0x080064e8   0x080064e8   0x00000028   Code   RO         4133    i.prvDeleteTCB      tasks.o
    0x08006510   0x08006510   0x00000014   Code   RO         3719    i.prvGetDisinheritPriorityAfterTimeout  queue.o
    0x08006524   0x08006524   0x00000028   Code   RO         4548    i.prvGetNextExpireTime  timers.o
    0x0800654c   0x0800654c   0x0000007c   Code   RO         5234    i.prvHeapInit       heap_4.o
    0x080065c8   0x080065c8   0x00000028   Code   RO         4134    i.prvIdleTask       tasks.o
    0x080065f0   0x080065f0   0x0000002a   Code   RO         3721    i.prvInitialiseNewQueue  queue.o
    0x0800661a   0x0800661a   0x000000a2   Code   RO         4135    i.prvInitialiseNewTask  tasks.o
    0x080066bc   0x080066bc   0x0000003a   Code   RO         4549    i.prvInitialiseNewTimer  timers.o
    0x080066f6   0x080066f6   0x00000002   PAD
    0x080066f8   0x080066f8   0x00000068   Code   RO         4136    i.prvInitialiseTaskLists  tasks.o
    0x08006760   0x08006760   0x00000068   Code   RO         5235    i.prvInsertBlockIntoFreeList  heap_4.o
    0x080067c8   0x080067c8   0x00000058   Code   RO         4550    i.prvInsertTimerInActiveList  timers.o
    0x08006820   0x08006820   0x0000001a   Code   RO         3722    i.prvIsQueueEmpty   queue.o
    0x0800683a   0x0800683a   0x0000001e   Code   RO         3723    i.prvIsQueueFull    queue.o
    0x08006858   0x08006858   0x0000006a   Code   RO         4137    i.prvListTasksWithinSingleList  tasks.o
    0x080068c2   0x080068c2   0x00000002   PAD
    0x080068c4   0x080068c4   0x0000005c   Code   RO         4551    i.prvProcessExpiredTimer  timers.o
    0x08006920   0x08006920   0x0000010c   Code   RO         4552    i.prvProcessReceivedCommands  timers.o
    0x08006a2c   0x08006a2c   0x00000074   Code   RO         4553    i.prvProcessTimerOrBlockTask  timers.o
    0x08006aa0   0x08006aa0   0x00000034   Code   RO         4138    i.prvResetNextTaskUnblockTime  tasks.o
    0x08006ad4   0x08006ad4   0x0000002c   Code   RO         4554    i.prvSampleTimeNow  timers.o
    0x08006b00   0x08006b00   0x00000088   Code   RO         4555    i.prvSwitchTimerLists  timers.o
    0x08006b88   0x08006b88   0x00000016   Code   RO         4140    i.prvTaskCheckFreeStackSpace  tasks.o
    0x08006b9e   0x08006b9e   0x00000016   Code   RO         5290    i.prvTaskExitError  port.o
    0x08006bb4   0x08006bb4   0x0000001e   Code   RO         3558    i.prvTestWaitCondition  event_groups.o
    0x08006bd2   0x08006bd2   0x0000001a   Code   RO         4556    i.prvTimerTask      timers.o
    0x08006bec   0x08006bec   0x0000007e   Code   RO         3724    i.prvUnlockQueue    queue.o
    0x08006c6a   0x08006c6a   0x0000002a   Code   RO         4142    i.prvWriteNameToBuffer  tasks.o
    0x08006c94   0x08006c94   0x000000e0   Code   RO         5236    i.pvPortMalloc      heap_4.o
    0x08006d74   0x08006d74   0x00000020   Code   RO         4143    i.pvTaskIncrementMutexHeldCount  tasks.o
    0x08006d94   0x08006d94   0x0000002c   Code   RO         5291    i.pxPortInitialiseStack  port.o
    0x08006dc0   0x08006dc0   0x00000074   Code   RO         5696    i.retry_at          ota_uart1_app.o
    0x08006e34   0x08006e34   0x00000028   Code   RO         5907    i.send_AT           wireless_app.o
    0x08006e5c   0x08006e5c   0x00000028   Code   RO         5908    i.send_ATE0         wireless_app.o
    0x08006e84   0x08006e84   0x0000002c   Code   RO         5909    i.send_CEREG        wireless_app.o
    0x08006eb0   0x08006eb0   0x0000002c   Code   RO         5910    i.send_CPIN         wireless_app.o
    0x08006edc   0x08006edc   0x0000002c   Code   RO         5911    i.send_CREG         wireless_app.o
    0x08006f08   0x08006f08   0x0000002c   Code   RO         5912    i.send_CSQ          wireless_app.o
    0x08006f34   0x08006f34   0x00000030   Code   RO         5913    i.send_QIACT        wireless_app.o
    0x08006f64   0x08006f64   0x0000003c   Code   RO         5914    i.send_QICSGP       wireless_app.o
    0x08006fa0   0x08006fa0   0x00000030   Code   RO         5915    i.send_QIDEACT      wireless_app.o
    0x08006fd0   0x08006fd0   0x0000004c   Code   RO         5916    i.send_QIOPEN       wireless_app.o
    0x0800701c   0x0800701c   0x00000038   Code   RO         5697    i.send_date         ota_uart1_app.o
    0x08007054   0x08007054   0x0000004c   Code   RO         5917    i.send_read_data_cmd  wireless_app.o
    0x080070a0   0x080070a0   0x0000003a   Code   RO         5698    i.str_get_data      ota_uart1_app.o
    0x080070da   0x080070da   0x00000002   PAD
    0x080070dc   0x080070dc   0x00000054   Code   RO         6091    i.task_runtime_print  debug.o
    0x08007130   0x08007130   0x000000d0   Code   RO         6092    i.task_tatus_print  debug.o
    0x08007200   0x08007200   0x0000000a   Code   RO         5847    i.test_AT_task      test_at_app.o
    0x0800720a   0x0800720a   0x00000002   PAD
    0x0800720c   0x0800720c   0x000000f0   Code   RO         5699    i.test_OTA_task     ota_uart1_app.o
    0x080072fc   0x080072fc   0x0000001c   Code   RO         5918    i.uart1_clear       wireless_app.o
    0x08007318   0x08007318   0x00000024   Code   RO         5808    i.uart2_clear       uart2_app.o
    0x0800733c   0x0800733c   0x00000080   Code   RO         5510    i.uart_printf       uart_driver.o
    0x080073bc   0x080073bc   0x00000064   Code   RO         5700    i.up_upgrade_state_ack  ota_uart1_app.o
    0x08007420   0x08007420   0x00000078   Code   RO         5701    i.up_upgrade_state_hand  ota_uart1_app.o
    0x08007498   0x08007498   0x0000003c   Code   RO         5702    i.up_versions_ack   ota_uart1_app.o
    0x080074d4   0x080074d4   0x00000090   Code   RO         5703    i.up_versions_hand  ota_uart1_app.o
    0x08007564   0x08007564   0x00000028   Code   RO         3677    i.uxListRemove      list.o
    0x0800758c   0x0800758c   0x0000000c   Code   RO         4146    i.uxTaskGetNumberOfTasks  tasks.o
    0x08007598   0x08007598   0x000000b8   Code   RO         4148    i.uxTaskGetSystemState  tasks.o
    0x08007650   0x08007650   0x0000001c   Code   RO         4152    i.uxTaskResetEventItemValue  tasks.o
    0x0800766c   0x0800766c   0x00000018   Code   RO         4793    i.vApplicationGetIdleTaskMemory  cmsis_os2.o
    0x08007684   0x08007684   0x00000018   Code   RO         4794    i.vApplicationGetTimerTaskMemory  cmsis_os2.o
    0x0800769c   0x0800769c   0x0000001a   Code   RO         3678    i.vListInitialise   list.o
    0x080076b6   0x080076b6   0x00000006   Code   RO         3679    i.vListInitialiseItem  list.o
    0x080076bc   0x080076bc   0x00000034   Code   RO         3680    i.vListInsert       list.o
    0x080076f0   0x080076f0   0x00000018   Code   RO         3681    i.vListInsertEnd    list.o
    0x08007708   0x08007708   0x00000024   Code   RO         5293    i.vPortEnterCritical  port.o
    0x0800772c   0x0800772c   0x00000020   Code   RO         5294    i.vPortExitCritical  port.o
    0x0800774c   0x0800774c   0x00000058   Code   RO         5237    i.vPortFree         heap_4.o
    0x080077a4   0x080077a4   0x00000028   Code   RO         5295    i.vPortSetupTimerInterrupt  port.o
    0x080077cc   0x080077cc   0x0000002c   Code   RO         3730    i.vQueueAddToRegistry  queue.o
    0x080077f8   0x080077f8   0x0000004a   Code   RO         3734    i.vQueueWaitForMessageRestricted  queue.o
    0x08007842   0x08007842   0x00000002   PAD
    0x08007844   0x08007844   0x00000034   Code   RO         4153    i.vTaskDelay        tasks.o
    0x08007878   0x08007878   0x000000a0   Code   RO         4155    i.vTaskDelete       tasks.o
    0x08007918   0x08007918   0x00000084   Code   RO         4157    i.vTaskGetInfo      tasks.o
    0x0800799c   0x0800799c   0x000000c4   Code   RO         4158    i.vTaskGetRunTimeStats  tasks.o
    0x08007a60   0x08007a60   0x00000018   Code   RO         4159    i.vTaskInternalSetTimeOutState  tasks.o
    0x08007a78   0x08007a78   0x0000000c   Code   RO         4161    i.vTaskMissedYield  tasks.o
    0x08007a84   0x08007a84   0x00000020   Code   RO         4163    i.vTaskPlaceOnEventList  tasks.o
    0x08007aa4   0x08007aa4   0x00000028   Code   RO         4164    i.vTaskPlaceOnEventListRestricted  tasks.o
    0x08007acc   0x08007acc   0x0000002c   Code   RO         4165    i.vTaskPlaceOnUnorderedEventList  tasks.o
    0x08007af8   0x08007af8   0x0000008c   Code   RO         4166    i.vTaskPriorityDisinheritAfterTimeout  tasks.o
    0x08007b84   0x08007b84   0x00000060   Code   RO         4168    i.vTaskRemoveFromUnorderedEventList  tasks.o
    0x08007be4   0x08007be4   0x00000098   Code   RO         4172    i.vTaskStartScheduler  tasks.o
    0x08007c7c   0x08007c7c   0x000000a0   Code   RO         4173    i.vTaskSuspend      tasks.o
    0x08007d1c   0x08007d1c   0x00000010   Code   RO         4174    i.vTaskSuspendAll   tasks.o
    0x08007d2c   0x08007d2c   0x000000b8   Code   RO         4175    i.vTaskSwitchContext  tasks.o
    0x08007de4   0x08007de4   0x00000030   Code   RO         5919    i.wireless_data_send  wireless_app.o
    0x08007e14   0x08007e14   0x00000068   Code   RO         5920    i.wireless_init     wireless_app.o
    0x08007e7c   0x08007e7c   0x00000144   Code   RO         5921    i.wireless_module_activate  wireless_app.o
    0x08007fc0   0x08007fc0   0x00000134   Code   RO         5922    i.wireless_module_activate_Ack  wireless_app.o
    0x080080f4   0x080080f4   0x000001f0   Code   RO         5923    i.wireless_power_off  wireless_app.o
    0x080082e4   0x080082e4   0x000000e8   Code   RO         5924    i.wireless_power_on  wireless_app.o
    0x080083cc   0x080083cc   0x0000024c   Code   RO         5925    i.wireless_task     wireless_app.o
    0x08008618   0x08008618   0x0000001e   Code   RO         3566    i.xEventGroupCreate  event_groups.o
    0x08008636   0x08008636   0x00000098   Code   RO         3569    i.xEventGroupSetBits  event_groups.o
    0x080086ce   0x080086ce   0x00000002   PAD
    0x080086d0   0x080086d0   0x000000d2   Code   RO         3572    i.xEventGroupWaitBits  event_groups.o
    0x080087a2   0x080087a2   0x00000002   PAD
    0x080087a4   0x080087a4   0x00000048   Code   RO         5296    i.xPortStartScheduler  port.o
    0x080087ec   0x080087ec   0x00000034   Code   RO         5297    i.xPortSysTickHandler  port.o
    0x08008820   0x08008820   0x0000003a   Code   RO         3739    i.xQueueGenericCreate  queue.o
    0x0800885a   0x0800885a   0x0000002e   Code   RO         3740    i.xQueueGenericCreateStatic  queue.o
    0x08008888   0x08008888   0x00000080   Code   RO         3741    i.xQueueGenericReset  queue.o
    0x08008908   0x08008908   0x00000118   Code   RO         3742    i.xQueueGenericSend  queue.o
    0x08008a20   0x08008a20   0x00000090   Code   RO         3743    i.xQueueGenericSendFromISR  queue.o
    0x08008ab0   0x08008ab0   0x00000078   Code   RO         3746    i.xQueueGiveFromISR  queue.o
    0x08008b28   0x08008b28   0x0000010c   Code   RO         3750    i.xQueuePeek        queue.o
    0x08008c34   0x08008c34   0x00000104   Code   RO         3752    i.xQueueReceive     queue.o
    0x08008d38   0x08008d38   0x00000130   Code   RO         3754    i.xQueueSemaphoreTake  queue.o
    0x08008e68   0x08008e68   0x0000005c   Code   RO         4177    i.xTaskCheckForTimeOut  tasks.o
    0x08008ec4   0x08008ec4   0x0000006a   Code   RO         4178    i.xTaskCreate       tasks.o
    0x08008f2e   0x08008f2e   0x00000054   Code   RO         4179    i.xTaskCreateStatic  tasks.o
    0x08008f82   0x08008f82   0x00000002   PAD
    0x08008f84   0x08008f84   0x00000020   Code   RO         4184    i.xTaskGetSchedulerState  tasks.o
    0x08008fa4   0x08008fa4   0x0000000c   Code   RO         4185    i.xTaskGetTickCount  tasks.o
    0x08008fb0   0x08008fb0   0x00000118   Code   RO         4187    i.xTaskIncrementTick  tasks.o
    0x080090c8   0x080090c8   0x00000060   Code   RO         4190    i.xTaskPriorityDisinherit  tasks.o
    0x08009128   0x08009128   0x000000a4   Code   RO         4191    i.xTaskPriorityInherit  tasks.o
    0x080091cc   0x080091cc   0x00000080   Code   RO         4192    i.xTaskRemoveFromEventList  tasks.o
    0x0800924c   0x0800924c   0x000000e8   Code   RO         4193    i.xTaskResumeAll    tasks.o
    0x08009334   0x08009334   0x0000003c   Code   RO         4563    i.xTimerCreate      timers.o
    0x08009370   0x08009370   0x00000060   Code   RO         4565    i.xTimerCreateTimerTask  timers.o
    0x080093d0   0x080093d0   0x0000006c   Code   RO         4566    i.xTimerGenericCommand  timers.o
    0x0800943c   0x0800943c   0x00000048   Data   RO         3517    .constdata          system_stm32l4xx.o
    0x08009484   0x08009484   0x00000081   Data   RO         6517    .constdata          mc_w.l(ctype_o.o)
    0x08009505   0x08009505   0x00000003   PAD
    0x08009508   0x08009508   0x00000004   Data   RO         6518    .constdata          mc_w.l(ctype_o.o)
    0x0800950c   0x0800950c   0x00000298   Data   RO         5705    .conststring        ota_uart1_app.o
    0x080097a4   0x080097a4   0x00000090   Data   RO         6094    .conststring        debug.o
    0x08009834   0x08009834   0x00000020   Data   RO         6551    Region$$Table       anon$$obj.o


    Execution Region RW_IRAM2 (Exec base: 0x10000000, Load base: 0x08009a0c, Size: 0x00000000, Max: 0x00008000, ABSOLUTE)

    **** No section assigned to this execution region ****


    Execution Region RW_IRAM1 (Exec base: 0x20000000, Load base: 0x08009854, Size: 0x0000a160, Max: 0x00018000, ABSOLUTE, COMPRESSED[0x000001b8])

    Exec Addr    Load Addr    Size         Type   Attr      Idx    E Section Name        Object

    0x20000000   COMPRESSED   0x0000001c   Data   RW          270    .data               freertos.o
    0x2000001c   COMPRESSED   0x00000002   Data   RW          487    .data               delay.o
    0x2000001e   COMPRESSED   0x00000002   PAD
    0x20000020   COMPRESSED   0x00000009   Data   RW          557    .data               stm32l4xx_hal.o
    0x20000029   COMPRESSED   0x00000003   PAD
    0x2000002c   COMPRESSED   0x00000020   Data   RW         1018    .data               stm32l4xx_hal_flash.o
    0x2000004c   COMPRESSED   0x00000004   Data   RW         3518    .data               system_stm32l4xx.o
    0x20000050   COMPRESSED   0x00000044   Data   RW         4196    .data               tasks.o
    0x20000094   COMPRESSED   0x00000014   Data   RW         4574    .data               timers.o
    0x200000a8   COMPRESSED   0x00000004   Data   RW         4796    .data               cmsis_os2.o
    0x200000ac   COMPRESSED   0x00000020   Data   RW         5243    .data               heap_4.o
    0x200000cc   COMPRESSED   0x00000004   Data   RW         5298    .data               port.o
    0x200000d0   COMPRESSED   0x00000004   Data   RW         5605    .data               flash.o
    0x200000d4   COMPRESSED   0x00000262   Data   RW         5706    .data               ota_uart1_app.o
    0x20000336   COMPRESSED   0x00000002   PAD
    0x20000338   COMPRESSED   0x00000010   Data   RW         5809    .data               uart2_app.o
    0x20000348   COMPRESSED   0x00000008   Data   RW         5848    .data               test_at_app.o
    0x20000350   COMPRESSED   0x00000132   Data   RW         5926    .data               wireless_app.o
    0x20000482   COMPRESSED   0x00000002   PAD
    0x20000484   COMPRESSED   0x0000001c   Data   RW         6095    .data               debug.o
    0x200004a0   COMPRESSED   0x00000004   Data   RW         6482    .data               mc_w.l(stdout.o)
    0x200004a4   COMPRESSED   0x00000004   Data   RW         6489    .data               mc_w.l(mvars.o)
    0x200004a8   COMPRESSED   0x00000004   Data   RW         6490    .data               mc_w.l(mvars.o)
    0x200004ac   COMPRESSED   0x00000004   Data   RW         6494    .data               mc_w.l(errno.o)
    0x200004b0        -       0x0000004c   Zero   RW          448    .bss                stm32l4xx_hal_timebase_tim.o
    0x200004fc        -       0x00000040   Zero   RW         3756    .bss                queue.o
    0x2000053c        -       0x000004c4   Zero   RW         4195    .bss                tasks.o
    0x20000a00        -       0x00000118   Zero   RW         4573    .bss                timers.o
    0x20000b18        -       0x000006c0   Zero   RW         4795    .bss                cmsis_os2.o
    0x200011d8        -       0x00005000   Zero   RW         5242    .bss                heap_4.o
    0x200061d8        -       0x00002134   Zero   RW         5511    .bss                uart_driver.o
    0x2000830c   COMPRESSED   0x00000004   PAD
    0x20008310        -       0x00000800   Zero   RW         5604    .bss                flash.o
    0x20008b10        -       0x00001000   Zero   RW         5704    .bss                ota_uart1_app.o
    0x20009b10        -       0x0000004c   Zero   RW         6093    .bss                debug.o
    0x20009b5c   COMPRESSED   0x00000004   PAD
    0x20009b60        -       0x00000200   Zero   RW            2    HEAP                startup_stm32l476xx.o
    0x20009d60        -       0x00000400   Zero   RW            1    STACK               startup_stm32l476xx.o


==============================================================================

Image component sizes


      Code (inc. data)   RO Data    RW Data    ZI Data      Debug   Object Name

       216         38          0          4       1728      46127   cmsis_os2.o
       486        118        144         28         76       4395   debug.o
        56         12          0          2          0       1218   delay.o
       422          6          0          0          0      24451   event_groups.o
       608         28          0          4       2048      10703   flash.o
       248         84          0         28          0       3604   freertos.o
       140          4          0          0          0        911   gpio.o
       540         74          0         32      20480       4355   heap_4.o
       942         62          0          0          0       8086   lcd_driver.o
       148          0          0          0          0      12562   list.o
       166          6          0          0          0     871337   main.o
      2846        714        664        610       4096      14995   ota_uart1_app.o
       520         56          0          4          0       9896   port.o
      2138         30          0          0         64      21089   queue.o
        36          8        392          0       1536        840   startup_stm32l476xx.o
       106         18          0          9          0      13722   stm32l4xx_hal.o
       266         22          0          0          0      33590   stm32l4xx_hal_cortex.o
       182          0          0          0          0       1767   stm32l4xx_hal_dma.o
       504         42          0         32          0      22658   stm32l4xx_hal_flash.o
       508         30          0          0          0       3178   stm32l4xx_hal_flash_ex.o
       518         38          0          0          0       2092   stm32l4xx_hal_gpio.o
        72          4          0          0          0        858   stm32l4xx_hal_msp.o
       156         18          0          0          0       1358   stm32l4xx_hal_pwr_ex.o
      3020        142          0          0          0       8814   stm32l4xx_hal_rcc.o
      1988         48          0          0          0       3944   stm32l4xx_hal_rcc_ex.o
       886         64          0          0          0       6075   stm32l4xx_hal_tim.o
         6          0          0          0          0       2200   stm32l4xx_hal_tim_ex.o
       200         28          0          0         76       1969   stm32l4xx_hal_timebase_tim.o
      3722         90          0          0          0      16397   stm32l4xx_hal_uart.o
         2          0          0          0          0        984   stm32l4xx_hal_uart_ex.o
       430         72          0          0          0       6083   stm32l4xx_it.o
         0          0          0          0          0       9372   stream_buffer.o
        20          6         72          4          0       1193   system_stm32l4xx.o
      3994        544          0         68       1220      51439   tasks.o
       434        170          0          8          0       3458   test_at_app.o
      1248        122          0         20        280      14286   timers.o
       728        276          0         16          0       1984   uart2_app.o
       532         38          0          0       8500      12846   uart_driver.o
      3920       1320          0        306          0      20336   wireless_app.o

    ----------------------------------------------------------------------
     33006       4332       1304       1184      40112    1275172   Object Totals
         0          0         32          0          0          0   (incl. Generated)
        52          0          0          9          8          0   (incl. Padding)

    ----------------------------------------------------------------------

      Code (inc. data)   RO Data    RW Data    ZI Data      Debug   Library Member Name

        86          0          0          0          0          0   __dczerorl2.o
        28          0          0          0          0         68   _chval.o
       164          0          0          0          0         92   _strtoul.o
        26          0          0          0          0         80   atoi.o
         8          4        133          0          0         68   ctype_o.o
         0          0          0          0          0          0   entry.o
         0          0          0          0          0          0   entry10a.o
         0          0          0          0          0          0   entry11a.o
         4          0          0          0          0          0   entry12b.o
         8          4          0          0          0          0   entry2.o
         4          0          0          0          0          0   entry5.o
         0          0          0          0          0          0   entry7b.o
         0          0          0          0          0          0   entry8b.o
         8          4          0          0          0          0   entry9a.o
         8          4          0          4          0         68   errno.o
        18          0          0          0          0         80   fputc.o
        30          0          0          0          0          0   handlers.o
        36          8          0          0          0         68   init.o
         0          0          0          0          0          0   iusefp.o
         0          0          0          0          0          0   iusesemip.o
        30          0          0          0          0         68   llshl.o
        36          0          0          0          0         68   llsshr.o
        32          0          0          0          0         68   llushr.o
       188         20          0          0          0        160   malloc.o
        26          0          0          0          0         80   memcmp.o
        36          0          0          0          0         68   memcpya.o
        36          0          0          0          0        108   memseta.o
         0          0          0          8          0          0   mvars.o
      2316        102          0          0          0        696   printfa.o
         0          0          0          0          0          0   semi.o
         0          0          0          4          0          0   stdout.o
        18          0          0          0          0         68   strcpy.o
        14          0          0          0          0         68   strlen.o
        36          0          0          0          0         80   strstr.o
       112          0          0          0          0         88   strtol.o
        44          0          0          0          0         80   uidiv.o
       104          0          0          0          0         92   uldiv.o
        48          0          0          0          0         68   cdrcmple.o
       350          0          0          0          0        148   dadd.o
       222          0          0          0          0        100   ddiv.o
       186          0          0          0          0        176   depilogue.o
        48          0          0          0          0         68   dfixul.o
       234          0          0          0          0         96   dmul.o

    ----------------------------------------------------------------------
      4550        146        136         16          0       2972   Library Totals
         6          0          3          0          0          0   (incl. Padding)

    ----------------------------------------------------------------------

      Code (inc. data)   RO Data    RW Data    ZI Data      Debug   Library Name

      3456        146        133         16          0       2316   mc_w.l
      1088          0          0          0          0        656   mf_w.l

    ----------------------------------------------------------------------
      4550        146        136         16          0       2972   Library Totals

    ----------------------------------------------------------------------

==============================================================================


      Code (inc. data)   RO Data    RW Data    ZI Data      Debug   

     37556       4478       1440       1200      40112    1249816   Grand Totals
     37556       4478       1440        440      40112    1249816   ELF Image Totals (compressed)
     37556       4478       1440        440          0          0   ROM Totals

==============================================================================

    Total RO  Size (Code + RO Data)                38996 (  38.08kB)
    Total RW  Size (RW Data + ZI Data)             41312 (  40.34kB)
    Total ROM Size (Code + RO Data + RW Data)      39436 (  38.51kB)

==============================================================================

