:020000040800F2
:1000000060A100208102000875320008072F000857
:10001000713200084D0A000849490008000000003C
:10002000000000000000000000000000A101000826
:10003000B90A000800000000FD0100081539000899
:100040009B0200089B0200089B0200089B0200081C
:100050009B0200089B0200089B0200089B0200080C
:100060009B0200089B0200089B0200089B020008FC
:100070009B0200089B0200089B0200089B020008EC
:100080009B0200089B0200089B0200089B020008DC
:100090009B0200089B0200089B0200089B020008CC
:1000A0009B0200089B0200089B0200089B020008BC
:1000B0009B0200089B020008A13900089B0200086F
:1000C0009B0200089B0200089B0200089B0200089C
:1000D0009B020008D9450008414600089B02000821
:1000E0009B0200089B0200089B0200089B0200087C
:1000F0009B0200089B0200089B0200089B0200086C
:100100009B0200089B0200089B0200089B0200085B
:100110009B0200089B0200089B020008B1390008FE
:100120009B0200089B0200089B0200089B0200083B
:100130009B0200089B0200089B0200089B0200082B
:100140009B0200089B0200089B0200089B0200081B
:100150009B0200089B0200089B0200089B0200080B
:100160009B0200089B0200089B0200089B020008FB
:100170009B0200089B0200089B0200080000000090
:100180009B0200089B020008DFF810D000F04EFB35
:1001900000480047EF5B0008AFF3008060A100203B
:1001A0002C4B1968086800F05AB880F30988BFF32F
:1001B0006F8F4FF0000080F311887047000000003F
:1001C00008480068006880F308884FF0000080F35A
:1001D000148862B661B6BFF34F8FBFF36F8F00DF35
:1001E00000BF00BF08ED00E0DFF80C00016841F43B
:1001F00070010160704700BF88ED00E0EFF30980F7
:10020000BFF36F8F134B1A681EF0100F08BF20ED5D
:10021000108A20E9F04F106009B44FF0500080F3CD
:100220001188BFF34F8FBFF36F8F07F07FFD4FF043
:10023000000080F3118809BC1968086800F014B840
:100240001EF0100F08BF00F014B880F30988BFF348
:100250006F8F704750000020EFF30580704730C863
:10026000B0E8C04FFFF7A1BF30C8B0E8C04FFFF7FC
:10027000E7BFB0EC088AB0EC08CAFFF7E6BF0000A1
:100280000648804706480047FEE7FEE7FEE7FEE730
:10029000FEE7FEE7FEE7FEE7FEE7FEE78D39000832
:1002A000890100082DE9F05F0546002092469B4633
:1002B00088460646814640241BE02846414647467C
:1002C000224600F0A8F853465A46C01A914110D36E
:1002D00011461846224600F08FF82D1A67EB0108E8
:1002E0004F4622460120002100F086F817EB000956
:1002F0004E41201EA4F10104DFDC484631462A4667
:10030000434600F000B830BCBDE8C09F40EA01039E
:100310009B0703D009E008C9121F08C0042AFAD2BB
:1003200003E011F8013B00F8013B521EF9D270477F
:10033000D2B201E000F8012B491EFBD27047002227
:10034000F6E710B513460A4604461946FFF7F0FFD4
:10035000204610BD30B505462A460B4612F8010B63
:1003600013F8014B08B1A042F8D01CB1002802D00C
:100370006D1CF1E7284630BD421C10F8011B002916
:10038000FBD1801A704730B504460020034600E0D8
:100390005B1C934203D2E05CCD5C401BF8D030BDC7
:1003A000034611F8012B00F8012B002AF9D1184659
:1003B000704770B5064604F01BFB046805460A2228
:1003C0000021304600F037F82C6070BD30B50B4688
:1003D000014600202022012409E021FA02F59D4275
:1003E00005D303FA02F5491B04FA02F52844151E49
:1003F000A2F10102F1DC30BD202A04DB203A00FA30
:1004000002F1002070479140C2F1200320FA03F36B
:10041000194390407047202A04DB203A21FA02F069
:100420000021704721FA02F3D040C2F1200291402E
:100430000843194670472DE9F04791460F4680461C
:100440000446002614F8015B2DB100F013FA006891
:10045000405DC007F6D12B2D02D02D2D18D0641E83
:100460004A463946204600F009FA27B13968A142C8
:1004700001D1C7F8008071054FF002040BD540424E
:10048000002803DD04F0B4FA0460A007BDE8F0879B
:1004900046F48066E4E70028F8DA04F0A9FA04607C
:1004A0006FF00040F2E72DE9FE4F804681EA03003D
:1004B000C00F0C46009021F0004123F00045B8EB3E
:1004C0000200A94105D24046214690461C460B46F3
:1004D000024623F00040104347D0270DC7F30A001F
:1004E000C3F30A510290401A019040286BDAC3F31B
:1004F000130040F4801B0098924620B10023D2EBF9
:10050000030A63EB0B0B01985946C0F140025046B9
:10051000FFF772FF06460D4650465946019A00F015
:1005200097F910EB08006141002487EA115284EA30
:10053000E7731A4340D0009A62B3019A012A4FEA46
:10054000075215DC001B61EB02014FF0004202EA8A
:100550000752CDE90042001C41F5801132462B467E
:1005600000F0EDF903B000F045B840462146F9E748
:10057000001B61EB0201001C41F5801300185B4178
:100580002018A2F5001747EB030140EAD570B61911
:100590006D4111E06D084FEA360645EAC0754FEA35
:1005A0000752001B61EB0201001C41F58011490854
:1005B0004FEA30000019514132462B4603B000F09B
:1005C0001CB800F0ADB90098012240000023D0EB28
:1005D000020263EBE073009821464FEAE074B8EB47
:1005E000000061EB0401E9E783F000435BE781F081
:1005F000004158E730BCBDE8C08F30BCBDE8C04FFB
:10060000FFF7DFBF2DE9FE4F81EA030404F0004449
:1006100021F0004100944FF0000B23F0004350EA1A
:1006200001045ED052EA03045BD0C3F30A54C1F361
:100630000A552C44A4F2F3340194A0FB0254C1F3F4
:10064000130141F48011C3F3130343F4801301FB3E
:10065000024400FB034E840A970A44EA815447EAA5
:100660008357A4FB076802958D0A05FB07854FEAAF
:10067000932C04FB0C542705029D4FEA065847EAC9
:100680001637B5EB08056EEB070C870E920E47EA9E
:10069000811742EA8312A7FB0201B6EB0B0164EB60
:1006A00000042B0D43EA0C335E1844EB1C50DA4671
:1006B0005146E7FB0201C5F313044FEA0B3343EA4B
:1006C00014534FEA0432019C43EA0603A4F10C04DC
:1006D0000294009CCDE900B400F031F903B000F0C1
:1006E00003B800200146F9E730BCBDE8C08F2DE912
:1006F000F04D81EA030404F0004B21F0004514465C
:100700004FF0000A23F0004150EA050220D054EADD
:1007100001021DD0C5F30A570246C5F31303C1F306
:100720001300C1F30A5640F4801543F48013A7EB7D
:100730000608101BD64608F2FD3873EB050002D3FD
:1007400008F1010801E092185B41B8F1000F03DAEB
:1007500000200146BDE8F08D00204FF480110646D0
:1007600084460EE0171B73EB050705D3121B63EBE2
:10077000050306434CEA010C49084FEA3000921881
:100780005B4150EA0107EDD152EA030012D082EA40
:10079000040083EA0501084305D0101BAB4106D2D3
:1007A0000122002306E000224FF0004302E06FF038
:1007B000010253101AEB06004CEB085110EB0A0033
:1007C00041EB0B01BDE8F04D00F0AAB8C1F30A52AD
:1007D000C1F3130140F2FF3341F480119A4202DA6F
:1007E00000200146704740F233439A42A2F233425E
:1007F00002DC5242FFF70FBEFFF7FEBD30B5041E0C
:1008000071F1000404DB4FF00044404264EB01014D
:10081000141E73F1000405DB1C464FF000435242E6
:1008200063EB0403994208BF904230BD064C074D6C
:1008300006E0E06840F0010394E8070098471034B0
:10084000AC42F6D3FFF7A4FC349800085498000893
:10085000202A06DBCB17203A41FA02F043EAE07384
:1008600006E041FA02F3D040C2F120029140084371
:100870001946704700487047089500082DE9F05F59
:1008800082460078002715468B460AF10104B946D6
:10089000302801D09DB113E014F8010B012778280E
:1008A00003D0582801D045B10AE00DB1102D07D171
:1008B0000027102514F8010B02E0082500E00A25A6
:1008C0000026B0460EE005FB080005FB06F10127F7
:1008D00001EB10461FFA80F8B6F5803F00D3B94609
:1008E00014F8010B294600F078F80028EBDABBF188
:1008F000000F05D00FB1641E00E05446CBF8004055
:10090000B9F1000F06D004F073F802210160C81E8F
:1009100000F003B848EA0640FAE730BCBDE8C09FE3
:1009200010B5141E73F1000408DA401C41F10001F7
:1009300092185B411A4301D120F0010010BD2DE94E
:10094000F04D92469B4611B1B1FA81F202E0B0FA45
:1009500080F220329046FFF74FFD04460F4640EAF2
:100960000A0041EA0B0153465A46084313D0114688
:1009700053EA010019D0C8F140025046FFF74BFD81
:1009800005460E46504659464246FFF735FD084398
:1009900005D0012004E020463946BDE8F08D002056
:1009A000054346EAE0762C4337430A986305E40A98
:1009B000A0EB08000022FD0A44EA47540A3002D5A1
:1009C00000200146E9E7010510196941DDE9084504
:1009D00000196941BDE8F04DA2E73A2800D230384D
:1009E00020F02002412A01D3A2F13700884201D32E
:1009F0004FF0FF30704770B58C1810F8015B15F0A0
:100A0000070301D110F8013B2A1106D110F8012B80
:100A100003E010F8016B01F8016B5B1EF9D12B07A5
:100A200005D40023521E0DD401F8013BFAE710F85B
:100A3000013BCB1A921C03E013F8015B01F8015B48
:100A4000521EF9D5A142D8D3002070BD00BFFEE7E9
:100A500010B502F091FA00224FF480710F4800F0B7
:100A600005FC012280210D4800F000FC01224021FC
:100A70000A4800F0FBFB012000F02EF8012000F0F6
:100A80002BF800BF0648006800F400400028F9D1A8
:100A900000224021014800F0E9FB10BD0008004899
:100AA000100C004810B502F079FB002001490860E5
:100AB00010BD000084040020704700000348006857
:100AC0000349B0FBF1F00349088070474C00002057
:100AD00040420F001C00002009E002E000BF531C50
:100AE0009AB2B2F57A7FF9DB4A1C92B21146814282
:100AF000F3D3704772B600BFFEE700001B49087FC2
:100B0000012801D0032816D11949096821F4007180
:100B1000174A116000BF1146096841F40061116075
:100B20001146096821F40061116000BF114609688F
:100B300041F400711160022801D0032811D100BFD7
:100B40000B49096841F48051094A1160114609684E
:100B500021F48051116000BF1146096841F48061A1
:100B600011600021014A1177704700002C0000201D
:100B70000020024000F0010129B10B49496941F010
:100B80000401094A516100F0020129B1064949698D
:100B900041F40041044A51610349496941F48031FB
:100BA000014A5161704700000020024001F001023B
:100BB00032B10F4A526922F400620D4B5A6105E0CE
:100BC0000B4A526942F40062094B5A61084A526961
:100BD00060F3CA02064B5A611A46526942F0020299
:100BE0005A611A46526942F480325A6170470000D5
:100BF0000020024010B50849496941F00101064C46
:100C00006161026000BF00BF00BFBFF36F8F00BF14
:100C100000BF00BF436010BD00200240F0B5024697
:100C2000402314460D460C4E766946F480260A4F42
:100C30007E6100BFEFF31086304672B600BF2E68AB
:100C40002660241D2D1D5E1EF3B2002BF7D100BFC0
:100C500080F3108800BFF0BD0020024070B505464B
:100C600000F00AFB064608E0681C30B100F004FB07
:100C7000801BA84201D3032070BD1948006900F40D
:100C800080300028F0D1164800694CF2FA3100EAB1
:100C90000104CCB11348406820431249486000BFAA
:100CA00004F0404030B10E48806904F040410843F0
:100CB0000B49886124F0404018B124F040400849B5
:100CC000086100BF0120D7E70548006900F0010076
:100CD00020B100BF01200249086100BF0020CBE71E
:100CE000002002402C000020014600200B4A128800
:100CF00092B24FF6FF739A4202D14FF4801203E092
:100D0000064A1288120492094FF0006303EB520264
:100D10008A4201D9012000E002207047E075FF1FE0
:100D2000014605290ED2DFE801F0030507090B0093
:100D3000012070470220FCE70420FAE70820F8E7CA
:100D40001020F6E7FF20F4E701460E48008880B245
:100D500004280ED004DC012807D002280FD106E0B9
:100D6000082808D010280AD107E000207047012089
:100D7000FCE70220FAE70320F8E70420F6E7FF206B
:100D8000F4E70000680200200146002291F82500E7
:100D9000022808D00420C86300BF002081F8240086
:100DA00000BF012070470868006820F00E000B6843
:100DB00018600868006820F001000B68186091F85E
:100DC000440000F01C03012098400B6C5860012087
:100DD00081F8250000BF002081F8240000BF1046E4
:100DE000E0E770B50446002594F82500022803D0FA
:100DF0000420E063012520E02068006820F00E0058
:100E0000216808602068006820F0010021680860FF
:100E100094F8440000F01C0101208840216C4860D7
:100E2000012084F8250000BF002084F8240000BFC2
:100E3000A06B10B12046A16B8847284670BD00000A
:100E400070B5044600F018FA06462546681C10B135
:100E500004480078054400BF00F00EFA801BA84249
:100E6000FAD370BD280000202DE9F04104460F465A
:100E700000BF3C480078012802D10220BDE8F08183
:100E800001203849087000BF4CF25030FFF7E6FEF1
:100E90000646002E5FD1334948603348006800F4AD
:100EA000007090B13048006800F4806048B12E486E
:100EB000006820F480602C490860032029490877E5
:100EC00015E001202749087711E02748006800F461
:100ED000806048B12448006820F48060224908609E
:100EE00002202049087702E000201E490877206888
:100EF00001280FD16068FFF73DFE4CF25030FFF73C
:100F0000ADFE06461848406948F204018843164978
:100F100048611EE04FF0FF303860A56813E02846B6
:100F20006168FFF743FE4CF25030FFF797FE06462C
:100F30000D48406940F2FA7188430B4948610EB18F
:100F40003D6005E06D1CD4E902010844A842E6D8E2
:100F500000BFFFF7D3FD00BF00200249087000BFAB
:100F600030468BE72C0000200020024003484069F7
:100F700040F00040014948610020704700200240D5
:100F80002DE9F0470446884615461E464FF00009F5
:100F900000BF29480078012802D10220BDE8F0876F
:100FA00001202549087000BF4CF25030FFF756FE73
:100FB0000746002F38D1204948602048006800F4D7
:100FC000806048B11D48006820F480601B490860BB
:100FD00002201949087702E00020174908773CB938
:100FE0002A4633464046FFF705FE4FF001090BE065
:100FF000012C01D0022C07D129464046FFF70EFEF6
:10100000022C01D14FF480294CF25030FFF726FE1C
:101010000746B9F1000F05D00848406920EA0900E9
:1010200006494861FFF76AFD00BF002002490870C9
:1010300000BF3846B2E700002C000020002002402C
:1010400000200849496901F0004151B10649054AAB
:101050009160064991601146496901F0004101B172
:10106000012070470020024023016745AB89EFCD86
:1010700078B502460B460021DFE001268E401D6850
:1010800005EA0604002C7DD01D7905F00305012D2D
:1010900004D01D7905F00305022D13D190684E0090
:1010A0000325B540A8434E00DD68B5402843906055
:1010B000506801258D40A8431D79C5F300158D406A
:1010C000284350601D7905F00305032D09D1D06A2E
:1010D00001258D40A8431D79C5F3C0058D402843E7
:1010E000D0621D7905F00305032D09D0D0684E00AC
:1010F0000325B540A8434E009D68B5402843D06005
:101100001D7905F00305022D13D1CE0802F120054B
:1011100055F826004D07EE0E0F25B540A8434E07A3
:10112000F60E1D69B5402843CE0802F1200545F8AA
:10113000260010684E000325B540A8431D7905F030
:1011400003054E00B540284310605D6805F4403546
:10115000002D71D000BF3C4D2D6E45F001053A4E7B
:10116000356635462D6E05F00105009500BF00BFC0
:101170004FEAB6358E0855F826008D072E0F0F253D
:10118000B54000E058E0A843B2F1904F01D10025EE
:101190001EE02E4DAA4201D1012519E02C4DAA4294
:1011A00001D1022514E02B4DAA4201D103250FE005
:1011B000294DAA4201D104250AE0284DAA4201D1B5
:1011C000052505E0264DAA4201D1062500E00725A8
:1011D0008E07360FB5402843224D8E0845F826006D
:1011E000214D2868A0435D6805F4801505B12043B2
:1011F0001D4D28602D1D2868A0435D6805F400156D
:1012000005B12043184D2D1D2860174D2D1F28684E
:10121000A0435D6805F4003505B12043124D2D1F34
:1012200028602D1F2868A0435D6805F4803505B14E
:1012300020430D4D083D2860491C1D68CD40002D00
:101240007FF41BAF78BD000000100240000400488E
:1012500000080048000C0048001000480014004836
:101260000018004808000140080401400AB18161EB
:1012700000E081627047000001480068704700008C
:101280002000002003480068034909780844014908
:1012900008607047200000202800002010B50024BE
:1012A000032000F0DDF80F2000F008F808B1012459
:1012B00001E000F05BF8204610BD00002DE9F04190
:1012C00088B00446002600BF2348806D40F004002B
:1012D000214988650846806D00F00400019000BF38
:1012E00000BF02A903A800F0E9FC069F1FB900F0A7
:1012F0000DFD054602E000F009FD45001748B5FB6D
:10130000F0F0A0F1010816481649086040F2E731F4
:101310001448C160C0F804800021016181608161CE
:1013200001F011F9064696B90E4801F065F9064636
:101330006EB91E2000F03EF8102C07D20022214684
:101340001E2000F04BF80848046000E001263046FB
:1013500008B0BDE8F08100000010024040420F00DC
:1013600000080040B00400202400002008B500BFA1
:101370000F48006E40F001000D4908660846006EF7
:1013800000F00100009000BF00BF00BF0846806D64
:1013900040F0805088650846806D00F080500090D5
:1013A00000BF00BF00220F21901E00F017F808BDFB
:1013B000001002400146084600280DDB00BF00BFB8
:1013C00000F01F0301229A4043099B0003F1E02330
:1013D000C3F8002100BF00BF00BF70472DE9F05FD8
:1013E00080460D461646002703F0E6FA07463946C2
:1013F0002A46334601F00700C0F1070ABAF1040F8C
:1014000002D94FF0040A01E0C0F1070AD14600F109
:10141000040ABAF1070F02D24FF0000A01E0A0F16E
:10142000030AD4464FF0010A0AFA09FAAAF1010A9E
:101430000AEA020A0AFA0CFA4FF0010B0BFA0CFB4B
:10144000ABF1010B0BEA030B4AEA0B0421464046C1
:1014500003F0BAFA00F000B830BCBDE8C09F00004D
:1014600000BF00F00702064B19684FF6FF03194052
:10147000044B0B4343EA0221014B196000BF704744
:101480000CED00E00000FA050246B2F5007F2AD11B
:101490001D48006800F4C060B0F5007F32D01A48E3
:1014A000006820F4C06040F40070174B18601748C3
:1014B000006832235843164BB0FBF3F0411C00E0A8
:1014C000491E1148406900F48060B0F5806F01D179
:1014D0000029F5D10C48406900F48060B0F5806FB8
:1014E00010D1032070470848006800F4C060B0F5D0
:1014F000806F07D00448006820F4C06040F480602A
:10150000014B18600020EDE7007000404C00002007
:1015100040420F000248006800F4C06070470000BD
:10152000007000402DE9F84304460025A8462088B5
:1015300000F40060B0F5006F30D1606E80B1B0F59E
:10154000800F13D0B0F5000F03D0B0F5400F15D1C8
:1015500013E0FB48C06840F48030F949C8600FE0F0
:101560000021201D01F0CEFE054609E0002104F116
:10157000200001F08DFF054602E001E0012500BFDB
:1015800000BF55B9EE488830006820F44000616E15
:101590000843EB49C1F8880000E0A846208800F421
:1015A0008050B0F5805F30D1A06E80B1B0F1807F07
:1015B00013D0B0F1007F03D0B0F1407F15D113E01C
:1015C000DF48C06840F48030DD49C8600FE000218A
:1015D000201D01F097FE054609E0002104F12000DE
:1015E00001F056FF054602E001E0012500BF00BF03
:1015F00055B9D3488830006820F04070A16E084388
:10160000CF49C1F8880000E0A846206800F4003007
:10161000B0F5003F77D14FF00009C948806D012136
:1016200021EA107078B100BFC548806D40F080504D
:10163000C34988650846806D00F08050009000BF67
:1016400000BF4FF00109BF48006840F48070BD49F9
:101650000860FFF711FE074606E0FFF70DFEC01B0E
:10166000022801D9032505E0B648006800F480701F
:101670000028F2D000BF85BBB1489030006800F46C
:101680004076D6B1D4F88400B04216D0AC48903041
:10169000006820F44076AA48D0F8900040F48030EA
:1016A000A749C1F890000846D0F8900020F4803097
:1016B000C1F890000846C0F8906006F00100A8B19B
:1016C000FFF7DAFD074609E0FFF7D6FDC01B41F240
:1016D0008831884202D9032507E017E09848903006
:1016E000006800F002000028EED000BF65B9944801
:1016F0009030006820F44070D4F88410084390497A
:10170000C1F8900003E00CE0A84600E0A846B9F15B
:10171000010F05D18A48806D20F080508849886586
:1017200000BF207800F0010048B18548883000688B
:1017300020F00300A16B08438149C1F8880020789C
:1017400000F00200022809D17D488830006820F0AE
:101750000C00E16B08437A49C1F88800207800F05A
:101760000400042809D176488830006820F0300051
:10177000216C08437249C1F88800207800F0080005
:10178000082809D16E488830006820F0C000616CDC
:1017900008436B49C1F88800207800F01000102839
:1017A00009D167488830006820F44070A16C084374
:1017B0006349C1F88800207800F02000202809D172
:1017C0005F488830006820F44060E16C08435C4961
:1017D000C1F88800208800F40070B0F5007F09D1BE
:1017E00057488830006820F44020E16D0843544990
:1017F000C1F88800208800F48060B0F5806F09D1BE
:101800004F488830006820F44010216E08434C494E
:10181000C1F88800207800F04000402809D14848ED
:101820008830006820F44050216D08434449C1F8D5
:101830008800207800F08000802809D14048883056
:10184000006820F44040616D08433D49C1F88800BC
:10185000208800F48070B0F5807F09D13848883046
:10186000006820F44030A16D08433549C1F8880074
:10187000208800F40050B0F5005F1FD13048883058
:10188000006820F04060E16E08432D49883108600F
:10189000E06EB0F1006F06D12948C06840F48010B6
:1018A0002749C8600AE0E06EB0F1806F06D10121DF
:1018B000201D01F027FD054605B1A846206800F46B
:1018C0000020B0F5002F1FD11D488830006820F09F
:1018D0004060216F08431A4988310860206FB0F1D9
:1018E000006F06D11648C06840F480101449C860E3
:1018F0000AE0206FB0F1806F06D10121201D01F0B8
:1019000001FD054605B1A846206800F48020B0F529
:10191000802F24D10A488830006820F04060616F31
:101920000843074988310860606FB0F1006F0BD140
:101930000348C06840F480100149C8600FE000000F
:101940000010024000700040606FB0F1806F06D15F
:101950000121201D01F0D6FC054605B1A8462088CE
:1019600000F48040B0F5804F1FD12248006820F07D
:101970004050A16F08431F490860A06FB0F1805F1D
:1019800007D10221201D01F0BDFC05466DB1A8461E
:101990000BE0A06FB0F1005F07D1022104F120003D
:1019A00001F076FD054605B1A846208800F4004008
:1019B000B0F5004F09D10F48006820F08040E16F7A
:1019C00008430C498839C1F88800206800F4803049
:1019D000B0F5803F0AD10748006820F00040D4F8F5
:1019E0008010084303498839C1F888004046BDE8A3
:1019F000F8830000881002402DE9F04104460D46AE
:101A000014B90120BDE8F0816348006800F00700C8
:101A1000A8420ED26048006820F0070028435E49C3
:101A200008600846006800F00700A84201D00120C5
:101A3000E8E7207800F0020002280ED15749A0689C
:101A4000896801F0F001884207D95448806820F085
:101A5000F000A168084351498860207800F0010037
:101A600078B36068032806D14C48006800F0007025
:101A7000D8B90120C6E76068022806D14748006847
:101A800000F4003088B90120BCE7606830B94348F1
:101A9000006800F0020040B90120B3E73F48006849
:101AA00000F4806008B90120ACE73C48806820F071
:101AB00003006168084339498860FFF7DDFB06468B
:101AC00009E010E0FFF7D8FB801B41F28831884223
:101AD00001D9032096E73148806800F00C00616866
:101AE000B0EB810FEED1207800F0020002280ED179
:101AF0002A49A068896801F0F001884207D2274886
:101B0000806820F0F000A1680843244988602248DA
:101B1000006800F00700A8420ED91F48006820F0B6
:101B2000070028431C4908600846006800F00700C9
:101B3000A84201D0012065E7207800F004000428C5
:101B400007D11648806820F4E060E1680843134933
:101B50008860207800F00800082808D10F488068C5
:101B600020F46050216940EAC1000C49886000F00F
:101B7000F1F80A498968C1F30311094A515C01F07F
:101B80001F01C8400749086007480068FFF796FB37
:101B90000746384636E700000020024000100240A9
:101BA0003C9400084C0000202400002010B53E4862
:101BB000006840F001003C490860FFF75DFB044607
:101BC00006E0FFF759FB001B022801D9032010BDD6
:101BD0003548006800F002000028F2D03248006862
:101BE00020F0F00040F060002F490860002088607D
:101BF0002E482F4908602F480068FFF75FFB08B1A7
:101C00000120E4E7FFF738FB044608E0FFF734FB68
:101C1000001B41F28831884201D90320D7E72248CE
:101C2000806800F00C000028F0D11F4800682249AD
:101C300008401D490860FFF71FFB044606E0FFF758
:101C40001BFB001B022801D90320C0E716480068CF
:101C500000F028500028F2D11349C8600846C06837
:101C600040F48050C860002008610846006940F4D4
:101C700080500861002048610846406940F4805067
:101C800048610846006820F48020086000208861D0
:101C9000401E086204489430006840F40000C1F817
:101CA0009400002093E700000010024000093D006E
:101CB0004C00002024000020FFF4FEEA0F22026006
:101CC0000D4A926802F0030242600B4A926802F0E9
:101CD000F0028260084A926802F4E062C260064A3A
:101CE000926802F46052D2080261044A126802F05B
:101CF00007020A6070470000001002400020024006
:101D000001480068704700004C00002000B5FFF754
:101D1000F7FF05498968C1F30221044A515C01F0CB
:101D20001F01C84000BD0000001002404C94000894
:101D300000B5FFF7E5FF05498968C1F3C221044AF0
:101D4000515C01F01F01C84000BD000000100240BE
:101D50004C940008F0B500230020DFF8D4C0DCF874
:101D600008C00CF00C01DFF8C8C0DCF80CC00CF0A7
:101D7000030719B10C291ED1012F1CD1DFF8B0C007
:101D8000DCF800C00CF0080CBCF1000F06D1DFF845
:101D9000A0C0DCF894C0CCF3032305E0DFF890C0CA
:101DA000DCF800C0CCF30313DFF888C05CF8233004
:101DB00041B9184606E0042901D11F4802E008296C
:101DC00000D11E480C2932D1DFF864C0DCF80CC009
:101DD0000CF00304012C09D0022C02D0032C04D1F6
:101DE00001E0154A04E0154A02E000BF1A4600BFB0
:101DF00000BFDFF83CC0DCF80CC0CCF3021C0CF1D7
:101E00000106DFF82CC0DCF80CC0CCF3062C0CFB70
:101E100002FCBCFBF6F2DFF818C0DCF80CC0CCF317
:101E2000416C0CF1010C4FEA4C05B2FBF5F0F0BD32
:101E300000100240549400080024F40000127A00BC
:101E40002DE9F843044614B90120BDE8F883F948A8
:101E5000806800F00C06F748C06800F0030720789F
:101E600000F01000102877D11EB10C2E76D1012F72
:101E700074D1F048006800F0020018B1A06908B9F8
:101E80000120E2E7EB48216A006800F0080020B179
:101E9000E848006800F0F00005E0E648943000688B
:101EA00000F47060000981421FD9206A01F0A2FB92
:101EB00008B10120C9E700BFDE48006840F0080013
:101EC000DC4908600846006820F0F000216A0843F9
:101ED000D849086000BF0846406820F47F40E169A7
:101EE00040EA0120D34948601FE000BFD1480068A4
:101EF00040F00800CF4908600846006820F0F00074
:101F0000216A0843CB49086000BF0846406820F4B6
:101F10007F40E16940EA0120C64948602EB9206A45
:101F200001F068FB08B101208FE7FFF713FFC149FB
:101F30008968C1F30311C04A515C01F01F01C84018
:101F4000BE490860BE480068FFF7B8F98046B8F19E
:101F5000000F4ED0404678E74BE0FFE7A06980B322
:101F6000B448006840F00100B2490860FFF784F906
:101F7000054606E0FFF780F9401B022801D903203F
:101F800063E7AC48006800F002000028F2D000BF10
:101F9000A848006840F00800A649086008460068A4
:101FA00020F0F000216A0843A249086000BF0846FB
:101FB000406820F47F40E16940EA01209D49486083
:101FC00017E0FFE79B48006820F00100994908608E
:101FD000FFF752F9054606E0FFF74EF9401B0228CD
:101FE00001D9032031E79348006800F0020000287F
:101FF000F2D1207800F0010000285CD0082E03D038
:102000000C2E0AD1032F08D18A48006800F4003052
:1020100088B3606878BB012017E700BF6068B0F53F
:10202000803F06D18348006840F4803081490860D1
:102030001AE06068B0F5A02F0BD17E48006840F42C
:1020400080207C4908600846006840F480300860C1
:102050000AE07848006820F4803076490860084635
:10206000006820F48020086000BF606890B1FFF72E
:1020700003F9054607E01EE0FFF7FEF8401B642861
:1020800001D90320E1E66B48006800F40030002825
:10209000F2D010E0FFF7F0F8054606E0FFF7ECF8A5
:1020A000401B642801D90320CFE66248006800F491
:1020B00000300028F2D1207800F00200022852D12E
:1020C000042E03D00C2E14D1022F12D159480068CF
:1020D00000F4806018B1E06808B90120B5E6554801
:1020E000406820F0F850217C40EA01605149486086
:1020F00039E0E06800B34F48006840F480704D4913
:102100000860FFF7B9F8054606E0FFF7B5F8401B91
:10211000022801D9032098E64648006800F4806050
:102120000028F2D04348406820F0F850217C40EA73
:1021300001604049486016E03E48006820F4807025
:102140003C490860FFF798F8054606E0FFF794F869
:10215000401B022801D9032077E63648006800F4C6
:1021600080600028F2D1207800F00800082836D1DD
:102170006069D0B12F489430006840F001002D49CB
:10218000C1F89400FFF778F8054606E0FFF774F809
:10219000401B022801D9032057E6264894300068E6
:1021A00000F002000028F1D019E0224894300068C5
:1021B00020F001001F49C1F89400FFF75DF80546C3
:1021C00006E0FFF759F8401B022801D903203CE63E
:1021D00018489430006800F002000028F1D12078FF
:1021E00000F00400042872D14FF000091148806DFE
:1021F00000F0805078B900BF0E48806D40F08050EC
:102200000C4988650846806D00F08050009000BF42
:1022100000BF4FF001090B48006800F4807000BB5C
:102220000848006840F4807006490860FFF724F809
:10223000054610E0001002403C9400084C000020CD
:102240002400002000700040FFF716F8401B022811
:1022500001D90320F9E5B048006800F48070002837
:10226000F2D000BFA068012808D1AC48006840F057
:102270000100AA499039C1F8900021E0A068052822
:102280000FD1A648006840F00400A4499039C1F875
:1022900090000846D0F8900040F00100C1F890008E
:1022A0000EE09E48006820F001009C499039C1F87A
:1022B00090000846D0F8900020F00400C1F890008B
:1022C00000BFA068A0B1FEF7D7FF054609E02EE0E9
:1022D000FEF7D2FF401B41F28831884201D903202A
:1022E000B3E58E48006800F002000028F0D012E04C
:1022F000FEF7C2FF054608E0FEF7BEFF401B41F2B5
:102300008831884201D903209FE58448006800F0A5
:1023100002000028F0D1B9F1010F07D17F489038B1
:10232000806D20F080507D499039886500BFA06A9B
:1023300000287DD0A06A02287BD178489038C768F1
:1023400007F00301E06A814228D107F07001206B99
:10235000401EB1EB001F21D107F4FE41606BB1EBD1
:10236000002F1BD107F40031A06B072801D00120FA
:1023700000E00020814211D107F4C001A08F0122AA
:10238000C2EB5000B1EB405F08D107F0C0614020C4
:10239000005DC2EB5000B1EB406F6CD00C2E68D0EA
:1023A0005E489038006800F0806028B95B4890383B
:1023B000006800F0805008B1012046E55748903889
:1023C000006820F08070554990390860FEF754FF8E
:1023D000054606E0FEF750FF401B022801D9032006
:1023E00033E54E489038006800F000700028F1D1C5
:1023F000D4E90B10401E41EA0011606B41EA002154
:10240000A08F0122C2EB500041EA40514020005D04
:10241000C2EB500041EA4061A06B000941EA404034
:102420003E499039C9683E4A114008433B4901E0A2
:102430005CE046E09039C8600846006840F0807073
:1024400008600846C06840F08070C860FEF714FF5E
:10245000054606E0FEF710FF401B022801D90320C5
:10246000F3E42E489038006800F000700028F1D0A6
:102470004FE00120E9E429489038006800F000703E
:10248000A0BB26489038006840F0807023499039FE
:1024900008600846C06840F08070C860FEF7ECFE37
:1024A000054606E0FEF7E8FE401B022801D903209E
:1024B000CBE41A489038006800F000700028F1D092
:1024C00027E00C2E23D015489038006820F080704B
:1024D000124990390860FEF7CFFE054607E0FEF787
:1024E000CBFE401B022802D90320AEE411E00B48CA
:1024F0009038006800F000700028F0D1074890384C
:10250000C0680849084005499039C86001E00120C9
:102510009BE4002099E4000000700040901002400D
:102520008C809DF9FCFFEEFE04480068C06820F036
:10253000010002490968C86070470000B00400202B
:1025400070477047704710B504460CB9012010BDA4
:1025500094F83D0028B9002084F83C00204600F0A3
:1025600029F8022084F83D00211D206801F02EFA90
:10257000012084F8480000BF84F83E0001213F207C
:10258000015540200155412001554220015543206D
:10259000015500BF00BF012084F8440045200155CB
:1025A000462001554720015500BF012084F83D0019
:1025B0000020CCE738B504460D492068884215D183
:1025C00000BF0C48806D40F020000A49886508462D
:1025D000806D00F02000009000BF00BF00220421A9
:1025E0003720FEF7FBFE3720FEF7E4FE38BD000083
:1025F0000014004000100240014691F83D000128FF
:1026000001D001207047022081F83D000868C068B1
:1026100040F001000B68D8601A4B0868984217D048
:102620000868B0F1804F13D0174B086898420FD05C
:10263000164B086898420BD0154B0868984207D093
:10264000144B0868984203D0134B0868984210D185
:1026500008688068114B00EA0302062A0FD0B2F521
:10266000803F0CD00868006840F001000B681860DB
:1026700005E00868006840F001000B681860002061
:10268000C0E70000002C01400004004000080040AA
:10269000000C0040003401400040014007000100F0
:1026A000704770B504462068C5682068066906F062
:1026B0000200022819D105F00200022815D1401F9E
:1026C00021680861012020772068806900F00300FC
:1026D00018B12046FFF7E4FF05E0204600F0A7F818
:1026E000204600F0A5F80020207706F0040004281A
:1026F00019D105F00400042815D1C04321680861F0
:10270000022020772068806900F4407018B12046CC
:10271000FFF7C6FF05E0204600F089F8204600F0EC
:1027200087F80020207706F00800082819D105F066
:102730000800082815D1C0432168086104202077CB
:102740002068C06900F0030018B12046FFF7A8FF19
:1027500005E0204600F06BF8204600F069F8002004
:10276000207706F01000102819D105F0100010286D
:1027700015D1C04321680861082020772068C0690E
:1027800000F4407018B12046FFF78AFF05E02046AC
:1027900000F04DF8204600F04BF80020207706F0BE
:1027A000010048B105F0010030B16FF0010021686F
:1027B0000861204600F03EF806F08000802809D12C
:1027C00005F08000802805D1C043216808612046BB
:1027D000FFF7B7FE06F48070B0F5807F0AD105F0F0
:1027E0008000802806D16FF480702168086120463F
:1027F000FFF7A6FE06F04000402809D105F0400092
:10280000402805D1C04321680861204600F01EF829
:1028100006F02000202809D105F02000202805D14D
:10282000C043216808612046FFF78CFE70BD7047E9
:102830007047000010B5044603492068884201D162
:10284000FEF720FD10BD00000008004070477047F3
:10285000704770470146CB6FD1F8802043EA0200F1
:10286000704700002DE9F04704462068C5692068DC
:1028700006682068876840F60F0005EA0009B9F18C
:10288000000F0CD105F0200048B106F0200030B157
:10289000A06E10B12046A16E8847BDE8F087B9F15F
:1028A000000F7DD007F0010018B9C1483040002862
:1028B000F7D005F0010058B106F4807040B1012056
:1028C00021680862D4F8840040F00100C4F8840054
:1028D00005F0020058B107F0010040B10220216864
:1028E0000862D4F8840040F00400C4F8840005F0C5
:1028F000040058B107F0010040B1042021680862CB
:10290000D4F8840040F00200C4F8840005F0080008
:1029100070B106F0200010B907F0010040B10820A6
:1029200021680862D4F8840040F00800C4F88400EC
:1029300005F4006060B106F0806048B14FF40060BB
:1029400021680862D4F8840040F02000C4F88400B4
:10295000D4F8840000284BD005F0200038B106F0F0
:10296000200020B1A06E10B12046A16E8847D4F897
:1029700084A02068806800F04000402802D00AF05F
:10298000280070B3204601F056FA2068806800F0F5
:102990004000402821D100BF00BF2168083100E07D
:1029A00027E051E8001F21F040002168083141E88C
:1029B0000002002AF1D100BF606F50B17D48616F05
:1029C0008863606FFEF70DFA90B1606F816B884786
:1029D0000EE02046FFF73DFF0AE02046FFF739FFF3
:1029E00006E0FFE72046FFF734FF0020C4F884002C
:1029F00053E7206E012872D105F0100000286ED038
:102A000006F010000028FAD0102021680862206823
:102A1000806800F04000402862D1606F0068406824
:102A20001FFA80F8B8F1000F58D0B4F858004045AC
:102A300054DDA4F85A80606F0068006800F0200040
:102A4000F0BB00BF00BF216851E8001F21F4807077
:102A5000226842E800010029F5D100BF00BF00BF95
:102A60002168083151E8001F21F001002168083178
:102A700041E80002002AF3D100BF00BF00BF216877
:102A8000083151E8001F21F040002168083141E879
:102A90000002002AF3D100BF2020C4F880000020EB
:102AA000206600BF00BF216851E8001F21F0100020
:102AB000226842E800010029F5D100BF606F00E004
:102AC00001E0FEF761F902206066B4F85800B4F83E
:102AD0005A20801A81B22046FFF7B9FEDDE641E0B8
:102AE00034F8580F6188401A1FFA80F86088583C03
:102AF000B8B3B8F1000F34D000BF00BF216851E86F
:102B0000001F21F49070226842E800010029F5D1ED
:102B100000BF00BF00BF2168083151E8001F21F04D
:102B200001002168083141E80002002AF3D100BF0A
:102B30002020C4F8800000202066A06600BF00BFEF
:102B4000216851E8001F21F01000226842E80001CE
:102B50000029F5D100BF0220606641462046FFF7FC
:102B600076FE9AE605F4801050B107F4800038B183
:102B70004FF48010216808622046FFF769FE8CE65A
:102B800005F0800040B106F0800028B1E06E10B181
:102B90002046E16E884780E605F0400030B106F03F
:102BA000400018B1204601F079F976E600BF74E6DE
:102BB000200100041F3E000810B504460CB9012096
:102BC00010BDA06900B100E000BFE06F28B900208F
:102BD00084F87800204600F029F82420E067206877
:102BE000006820F0010021680860606A10B120468A
:102BF00001F026F8204601F06BFA012800D1DFE74A
:102C00002068406820F4904021684860206880680F
:102C100020F02A00216888602068006840F00100E8
:102C200021680860204601F087F8C9E710B5A8B010
:102C30000446142123A8FDF782FB882101A8FDF793
:102C40007EFB3A492068884235D10120019000205E
:102C50000F9001A8FEF766FC08B1FDF74BFF00BF1F
:102C60003348006E40F48040314908660846006EE3
:102C700000F48040009000BF00BF00BF0846C06C59
:102C800040F00100C8640846C06C00F001000090EC
:102C900000BF00BF4FF4C0602390022024900120A9
:102CA0002590032026900720279023A94FF09040DD
:102CB000FEF7DEF937E01F492068884233D1022051
:102CC00001900020109001A8FEF72CFC08B1FDF740
:102CD00011FF00BF1648806D40F40030144988652C
:102CE0000846806D00F40030009000BF00BF00BFB8
:102CF0000846C06C40F00100C8640846C06C00F093
:102D00000100009000BF00BF0C20239002202490FF
:102D100000202590032026900720279023A94FF01C
:102D20009040FEF7A5F928B010BD00000038014022
:102D3000001002400044004070B504460D4616469F
:102D4000D4F88000202821D105B10EB9012070BD32
:102D5000002020660E492068884211D02068406813
:102D600000F4000060B100BF00BF216851E8001FFF
:102D700041F08060226842E800010029F5D100BFDF
:102D800032462946204601F05BFBE0E70220DEE701
:102D90000080004010B504462449206888421FD1B5
:102DA0002348B0F80008B0F5006F15DA204890F815
:102DB00002081F49B1F800181D4A50541046B0F8D7
:102DC0000008401C1146A1F80008012201F602018A
:102DD0001848FFF7B1FF03E000201549A1F80008EB
:102DE0001549206888421FD11448B0F80008B0F592
:102DF000006F15DA114890F802081049B1F8001870
:102E00000E4A50541046B0F80008401C1146A1F874
:102E10000008012201F602010948FFF78DFF03E0D7
:102E200000200649A1F8000810BD0000003801404C
:102E3000E8620020D861002000440040F46A0020CD
:102E4000606200202DE9F84F04460E461746994669
:102E5000E06F202851D106B117B9012000F04FB81A
:102E60000020503460632120E062FEF705FA8246BC
:102E700027806780503CA068B0F5805F04D120694E
:102E800010B90025B04602E035464FF000081FE0BB
:102E90005346002280212046CDF8009001F04AFBE5
:102EA00018B12020E0670320D8E745B9B8F8000042
:102EB000C0F308002168088508F1020803E02878BB
:102EC000216808856D1CB4F85200401EA4F8520019
:102ED000B4F852000028DBD153460022402120469E
:102EE000CDF8009001F026FB18B12020E067032008
:102EF000B4E72020E0670020B0E70220AEE718BC6E
:102F0000BDE8E08F704700BFFEE7000010B5044643
:102F1000012080F3108800BF00204FF0E0210861FD
:102F200048618861FFF700FBFEF740FE002008E0E3
:102F30004FF0FF320D4941F820200D4941F8202083
:102F4000401C0828F4DB60680A490860206880F3A8
:102F5000098800BF206880F3088800BF002080F344
:102F6000148800BF08460068804710BD80E100E07B
:102F700080E200E0D000002000B585B01421684652
:102F8000FDF7DDF94FF47F400090002001900290A2
:102F900069460248FEF76CF805B000BD000C004819
:102FA00000B585B014216846FDF7C9F94FF47F409C
:102FB00000900120019000200290022003906946B9
:102FC0000248FEF755F805B000BD0000000C0048AF
:102FD00070B504460D46072C01DC032D01DD0120F0
:102FE00070BD302000F01AF825B944F0800000F0E0
:102FF00015F811E0012D04D144F0900000F00EF816
:103000000AE0022D04D144F0880000F007F803E044
:1030100044F0980000F002F80020E1E770B50446A3
:10302000FDF716FDFFF7BCFF00224FF48071114839
:10303000FEF71CF9002280210E48FEF717F94FF623
:10304000FF7000EA04250C480068C0B228430A4912
:1030500008600120FDF740FD012240210548FEF7F0
:1030600005F90320FDF738FD002240210148FEF755
:10307000FDF870BD00080048140C004870B5044607
:10308000FDF7E6FCFFF78CFF012211021148FEF765
:10309000EDF8002280210F48FEF7E8F84FF6FF70A8
:1030A00000EA04250C480068C0B228430A490860B9
:1030B0000120FDF711FD012240210648FEF7D6F858
:1030C0000320FDF709FD002240210248FEF7CEF85B
:1030D00070BD000000080048140C00481CB502F048
:1030E000A7FC04F097FE0648012100238A02CDE9DF
:1030F000001004A1054805F0E5FE04F073FD1CBDB9
:1031000004000020737461727400000051380008DC
:1031100008B500BF2048C06C40F001001E49C864DB
:103120000846C06C00F00100009000BF00BF00BF67
:103130000846C06C40F00200C8640846C06C00F04D
:103140000200009000BF00BF00BF0846C06C40F006
:103150000400C8640846C06C00F00400009000BF82
:1031600000BF00BF0846C06C40F00800C8640846B5
:10317000C06C00F00800009000BF00BF00BF084610
:10318000C06C40F01000C8640846C06C00F010002D
:10319000009000BF00BF08BD0010024008B500BF8E
:1031A0001048806D40F020000E4988650846806D0B
:1031B00000F02000009000BF00BF0B480B490860E2
:1031C0000F2048600021094881606421C16080218E
:1031D0008161FFF7B8F908B1FDF78CFC0348FFF7F0
:1031E0000BFA08BD0010024000140040109B0020A4
:1031F00010B50D480D4908604FF4E13048600021DA
:103200000A488160C16001610C2141610021816136
:10321000C16101620020054948620846FFF7CCFC05
:1032200008B1FDF767FC10BD00380140D8610020EF
:1032300010B50D480D4908604FF4E1304860002199
:103240000A488160C16001610C21416100218161F6
:10325000C16101620020054948620846FFF7ACFCE5
:1032600008B1FDF747FC10BD00440040606200203B
:1032700000BFFEE700BFFEE708B54FF0FF300023B8
:103280001A46052100900B48006806F0A1F802F0EC
:10329000B3FB09A20021084602F094FC01200A4970
:1032A00048700020887009A10D4804F047F804F028
:1032B000E5FD08BD50030020D5FDD4DAC1AACDF844
:1032C000D6D02E2E2E2E000060030020506F776582
:1032D000725F4F4E204F4B2121210D0A000000004C
:1032E0006062002008B54FF0FF3000231A46052128
:1032F00000900348006806F06BF804F0F3FF08BD87
:10330000540300202DE9F04104460F4600255C4897
:10331000C06800F0030090B15948C06800F0030095
:103320002168884209D1206838B15548C068C0F387
:103330000210401C6168884233D0012531E02068CA
:10334000012804D0022809D003281AD10DE04C48E6
:10335000006800F0020000B9012514E04848006848
:1033600000F4806000B901250DE04548006800F4D4
:10337000003028B94248006800F4802000B90125D7
:1033800001E0012500BF00BF5DB9D4E90010401E77
:1033900041EA00103A49C96821F0730108433849ED
:1033A000C860002D68D13648006820F0806034493C
:1033B0000860FDF761FF064606E0FDF75DFF801B34
:1033C000022801D9032505E02D48006800F00060BF
:1033D0000028F2D100BFCDBB6FB9A0680002E16840
:1033E000090940EA414026490969264A1140084333
:1033F0002349086120E0012F0FD1A0680002218A33
:103400000122C2EB510140EA41501D4909691E4A9F
:10341000114008431A4908610EE0A0680002217DAE
:103420000122C2EB510140EA416015490969174A7E
:1034300011400843124908611148006840F080605B
:103440000F490860FDF718FF064607E014E0FDF796
:1034500013FF801B022801D9032505E008480068F6
:1034600000F000600028F2D000BF2DB904480069C8
:10347000A1690843024908612846BDE8F0810000BF
:1034800000100240FF80FDFFFF809FFFFF80FFF9DB
:103490002DE9F04104460F4600255348C06800F06E
:1034A000030090B15048C06800F0030021688842D2
:1034B00009D1206838B14C48C068C0F30210401CE4
:1034C0006168884233D0012531E02068012804D0AA
:1034D000022809D003281AD10DE04348006800F003
:1034E000020000B9012514E03F48006800F4806044
:1034F00000B901250DE03C48006800F4003028B90F
:103500003948006800F4802000B9012501E0012558
:1035100000BF00BF5DB9D4E90010401E41EA0010B1
:103520003149C96821F0730108432F49C860002D53
:1035300056D12D48006820F080502B490860FDF7D7
:103540009BFE064606E0FDF797FE801B022801D988
:10355000032505E02448006800F000500028F2D15F
:1035600000BF75BB6FB9A0680002E168090940EAB5
:1035700041401D4949691D4A114008431A494861A3
:103580000EE0A0680002217C0122C2EB510140EA5A
:10359000416015494969164A11400843124948617A
:1035A0001148006840F080500F490860FDF764FE44
:1035B000064607E0FDF760FE801B022802D90325BE
:1035C00006E00DE00848006800F000500028F1D047
:1035D00000BF2DB904484069616908430249486148
:1035E0002846BDE8F081000000100240FF80FDFF8A
:1035F000FF80FFF9F8B5044600262348806D00F0EF
:10360000805018B1FDF786FF054616E000BF1E4842
:10361000806D40F080501C4988650846806D00F040
:103620008050009000BF00BFFDF774FF05461648AC
:10363000806D20F0805014498865B5F5007F07D172
:10364000802C10D9A02C01D902260CE001260AE01A
:10365000802C01D9032606E0802C01D1022602E04D
:10366000702C00D101260948006820F00700304383
:10367000064908600846006800F00700B04201D023
:103680000120F8BD0020FCE70010024000200240AD
:1036900030B503460C461546002206E0184600F0F9
:1036A00007F844F822001B1D521CAA42F6D330BD75
:1036B00001460868704700002DE9F04F87B080464A
:1036C0008B46164601200690B8F1006F02D308F031
:1036D000070028B100200690069807B000F082B8D5
:1036E000A8F1006A4FEADA25CAF3C707C7F5807464
:1036F000A64200D8B4B2FDF7A3FC6AE04FF0006127
:1037000001EBC5208A143649FFF7C2FF4FF00009CC
:1037100011E007EB0900324901EBC000D0E90010CD
:103720004FF0FF3359405840014300D005E009F104
:1037300001001FFA80F9A145EBDB00BFA14529DAA2
:10374000002002904FF0006101EBC520FDF7CCFA9C
:1037500003900495012005900398022802D1049853
:103760008030049001A902A8FDF77EFB10B1002073
:1037700006902FE0E2001A4901EBC7005946FCF71A
:10378000C5FD4FF0006101EBC520CA14144900F0DB
:103790002DF80DE0E200124901EBC7005946FCF795
:1037A000B5FD0F4800EBC7012246404600F01EF869
:1037B000A64200D10EE06D1C00270BEBC40B08EBFA
:1037C000C408361BB6F5807F02D94FF4807400E040
:1037D000B4B293E700BFFDF7C9FB06987DE7000090
:1037E0001083002030BCBDE8C08F00002DE9F047F9
:1037F00005460E4691464FF0000A002420E006EBF5
:10380000C400D0E900733A4629460020FDF7B8FB12
:1038100090B15046411C01F0FF0A0A2800DB11E07C
:10382000641E00BF0948806940F040400749886134
:103830004CF2FA30086102E04FF0000A0835641CCF
:103840004C45DCD300BFBDE8F087000000200240FB
:103850001CB5044603F058FF1D48032100234FF414
:103860000072CDE900101BA11C4805F02BFB1C4881
:10387000022100230A02CDE900101AA11A4805F01E
:1038800021FB1748022100230A02CDE9001017A1ED
:10389000174805F017FB1248022100230A02CDE960
:1038A000001014A1154805F00DFB15480121002357
:1038B0000A02CDE9001013A1144805F003FB1448D7
:1038C000006803F0D9FF03F033FC03F02FFF1CBDA9
:1038D00008000020756172743200000095460008EF
:1038E0000C0000204F5441000D72000841540000AC
:1038F000017200086D6F64756C650000CD8300086F
:1039000018000020646562756700000071570008A8
:103910000400002010B54FF0E020006905F032FBF4
:10392000012801D004F062FF10BD00B597B044211A
:1039300006A8FCF704FD142101A8FCF700FD4FF4D4
:103940000070FDF7A1FD08B1FDF7D4F80220069044
:10395000C001099010200A900020109006A8FEF7E0
:103960006FFA08B1FDF7C6F80F2001900120029010
:103970000020039004900590002101A8FEF73CF878
:1039800008B1FDF7B7F817B000BD000003480068A4
:1039900040F47000014908607047000088ED00E0C5
:1039A00010B50248FEF77DFE10BD0000B0040020F7
:1039B00010B50448FEF775FE03480068401C024934
:1039C000086010BD109B00208404002010B5026820
:1039D000294B98420ED0B0F1804F0BD0274B984224
:1039E00008D0274B984205D0264B984202D0264B50
:1039F000984203D122F070024B681A431E4B984242
:103A000017D0B0F1804F14D01C4B984211D01C4BF2
:103A100098420ED01B4B98420BD01B4B984208D0BB
:103A20001A4B984205D01A4B984202D0194B984233
:103A300003D122F44072CB681A4322F080034C6910
:103A400043EA040202608B68C3620B6883620A4B1C
:103A500098420BD00C4B984208D00C4B984205D0A2
:103A60000B4B984202D00B4B984201D10B69036378
:103A70000123436110BD0000002C01400004004000
:103A800000080040000C00400034014000400140AC
:103A9000004401400048014038B5012240214FF068
:103AA0009040FDF7E3FB00BF002280210E48FDF7A8
:103AB000DDFB00BF0D480123002241F27071009030
:103AC0000BA005F037FC0C49086005F06BFA0446C2
:103AD0004FF0FF3000232246012100900648006885
:103AE00005F076FC38BD0000000C0048FD3A0008E7
:103AF00054696D65723100004803002010B501F073
:103B00007BFF06A20021084602F05CF803F0FCFDF2
:103B100001200649087003F009FE10BD4154D6B8D3
:103B2000C1EEB2E2CAD4C4A3CABD00004003002063
:103B300010B50446224603A1074803F0FFFB03F03B
:103B4000DDFB10BD55415254312D3E55415254328A
:103B5000202025730D0A00006062002010B5044685
:103B60001DA12046FCF7F6FB60B122461BA12048B0
:103B700003F0E4FB22461FA11F4803F0DFFB03F024
:103B8000CBFB28E01DA12046FCF7E4FBA0421CD1A2
:103B90001C480078C8B101F02FFF1BA20021084685
:103BA00002F010F81CA20121002002F00BF803F033
:103BB000B3FB1CA10E4803F0C1FB03F0A5FD0020E0
:103BC0001049087003F0B2FD05E003F0A5FB19A150
:103BD000074803F0B3FB10BD0D0A000055415254D5
:103BE000322D3E55415254312020257300000000F3
:103BF0006062002025730000D861002041545F45B9
:103C00007869740040030020CAE4C8EBD6B8C1EE5E
:103C1000BDF8C8EB0000000054657374C4A3CABDAE
:103C20000000000041545F45786974204F4B0D0A35
:103C30000D0A0000636F6D206572720D0A000000AE
:103C400090F8241001F00801082907D1016849689B
:103C500021F40041426B11430268516090F8241036
:103C600001F0010139B10168496821F40031826A2B
:103C700011430268516090F8241001F002010229FA
:103C800007D10168496821F48031C26A1143026892
:103C9000516090F8241001F00401042907D1016853
:103CA000496821F48021026B11430268516090F849
:103CB000241001F01001102907D10168896821F44E
:103CC0008051826B11430268916090F8241001F0DA
:103CD0002001202907D10168896821F40051C26BB5
:103CE00011430268916090F8241001F040014029CE
:103CF00013D10168496821F48011026C11430268F4
:103D00005160016CB1F5801F07D10168496821F449
:103D1000C001426C11430268516090F8241001F018
:103D20008001802907D10168496821F40021826C53
:103D3000114302685160704738B504460020C4F84A
:103D40008400FDF799FA05462068006800F0080035
:103D5000082820D16FF07E402B4600224FF400113E
:103D60000090204600F0E6FBA8B100BF00BF21682C
:103D700051E8001F21F08000226842E8000100297C
:103D8000F5D100BF2020E06700BF002084F8780054
:103D900000BF032038BD2068006800F0040004283C
:103DA00030D16FF07E402B4600224FF4800100900E
:103DB000204600F0BFFB28B300BF00BF216851E8D8
:103DC000001F21F49070226842E800010029F5D11B
:103DD00000BF00BF00BF2168083151E8001F21F07B
:103DE00001002168083141E80002002AF3D100BF38
:103DF0002020C4F8800000BF002084F8780000BFB5
:103E00000320C7E72020E067C4F880000020206678
:103E1000606600BF84F8780000BF00BFBAE770B5E5
:103E20000546AC6A0020A4F85A00A4F852002046C7
:103E3000FEF70FFD70BD00BF00BF026852E8002F03
:103E400022F49071036843E80012002AF5D100BF04
:103E500000BF00BF0268083252E8002F22F00101C3
:103E60000268083242E80013002BF3D100BF016E54
:103E700001290CD100BF00BF026852E8002F22F0D8
:103E80001001036843E80012002AF5D100BF202189
:103E9000C0F88010002101668166704710B50446A5
:103EA00000BF00BF216851E8001F21F040002268D8
:103EB00042E800010029F5D100BF2020E067002082
:103EC000E0662046FFF71EF810BD00002DE9F04126
:103ED0000446B4F85C70D4F8800022286DD12068C4
:103EE000868C656D06EA07002880606D801C606521
:103EF000B4F85A00401EA4F85A00B4F85A0000283A
:103F000061D100BF00BF216851E8001F21F490700B
:103F1000226842E800010029F5D100BF00BF00BFC0
:103F20002168083151E8001F21F0010021680831A3
:103F300041E80002002AF3D100BF2020C4F880002D
:103F40000020A066606621492068884211D0206860
:103F5000406800F4000060B100BF00BF216851E874
:103F6000001F21F08060226842E800010029F5D19D
:103F700000BF206E01281CD10020206600BF00BFBA
:103F8000216851E8001F21F01000226842E800017A
:103F90000029F5D100BF2068C069C0F3001010B13E
:103FA000102021680862B4F858102046FEF74FFC34
:103FB00009E02046FEF7EEFE05E02068008B40F0A9
:103FC000080021680883BDE8F081000000800040FF
:103FD00070B50446B4F85C60D4F8800022286DD136
:103FE0002068858CF0B22840616D0870606D401CBF
:103FF0006065B4F85A00401EA4F85A00B4F85A009C
:10400000002861D100BF00BF216851E8001F21F4E2
:104010009070226842E800010029F5D100BF00BF7E
:1040200000BF2168083151E8001F21F0010021681C
:10403000083141E80002002AF3D100BF2020C4F873
:1040400080000020A066606620492068884211D068
:104050002068406800F4000060B100BF00BF216824
:1040600051E8001F21F08060226842E80001002929
:10407000F5D100BF206E01281CD10020206600BFB2
:1040800000BF216851E8001F21F01000226842E8BB
:1040900000010029F5D100BF2068C069C0F30010FD
:1040A00010B1102021680862B4F858102046FEF7BD
:1040B000CEFB09E02046FEF76DFE05E02068008B90
:1040C00040F008002168088370BD000000800040B7
:1040D0002DE9F84F044600200090CE492068884220
:1040E00000D100E000BF2169A0680843616908436E
:1040F000E16940EA010A20680068C749084040EACF
:104100000A00216808602068406820F44050E16897
:10411000084321684860D4F818A0BE492068884246
:1041200002D0206A40EA0A0A2068806820F43060E1
:1041300040EA0A002168886000BFB84920688842C8
:1041400016D1B748006800F0030030B1012808D04C
:10415000022804D0032808D105E0012507E0022544
:1041600005E0042503E0082501E0102500BF8DE0EF
:10417000AC492068884216D1A948006800F00C00BC
:1041800030B1042808D0082804D00C2808D105E054
:10419000002507E0022505E0042503E0082501E0ED
:1041A000102500BF72E0A0492068884216D19C48C3
:1041B000006800F0300030B1102808D0202804D06A
:1041C000302808D105E0002507E0022505E0042598
:1041D00003E0082501E0102500BF57E0934920685F
:1041E000884216D18E48006800F0C00030B14028E7
:1041F00008D0802804D0C02808D105E0002507E0B9
:10420000022505E0042503E0082501E0102500BF94
:104210003CE087492068884219D18148006800F451
:10422000407048B1B0F5807F0AD0B0F5007F05D06E
:10423000B0F5407F08D105E0002507E0022505E044
:10424000042503E0082501E0102500BF1EE07149A8
:104250002068884219D17248006800F4406048B173
:10426000B0F5806F0AD0B0F5006F05D0B0F5406FA3
:1042700008D105E0002507E0022505E0042503E05C
:10428000082501E0102500BF00E0102500BF6149AE
:104290002068884245D135B1022D08D0042D08D0C0
:1042A000082D0DD109E0FDF731FD06460CE0614E09
:1042B0000AE0FDF74FFD064606E04FF4004603E036
:1042C00000260120009000BF00BF002E0AD06068C9
:1042D00000EB4000B04203D860680003B04202D255
:1042E0000120009090E04FF48070A6FB0030D4F8DD
:1042F00004C04FEA5C015F1840F1000162460023F0
:104300003846FBF7CFFF8146B9F5407F06D3B9F5B4
:10431000801F03D22068C0F80C9075E00120009047
:1043200072E0E069B0F5004F3AD1092D17D2DFE80D
:1043300005F005090D160F1616161300FDF7E6FC1D
:10434000064610E0FDF7F4FC06460CE0394E0AE0A4
:10435000FDF700FD064606E04FF4004603E00026A8
:104360000120009000BF00BF8EB37000616800EBB9
:104370005100B0FBF1F9B9F1100F0ED3B9F5803F40
:104380000BD24FF6F07009EA000BC9F342004BEA7A
:10439000000B2068C0F80CB036E00120009033E03C
:1043A000092D18D2DFE805F005090D170F171717AB
:1043B0001400FDF7ABFC064611E0FDF7B9FC06461C
:1043C0000DE01C4E0BE0FDF7C5FC064607E01BE0C8
:1043D0004FF4004603E000260120009000BF00BF1C
:1043E00096B1606806EB50006168B0FBF1F9B9F175
:1043F000100F07D3B9F5803F04D21FFA89F0216866
:10440000C86001E0012000900020A066E0660098EE
:1044100000F012B800800040F369FFEF003801405F
:10442000881002400044004000480040004C00401A
:10443000005000400024F40018BCBDE8E08F0000EC
:1044400030B503465965A3F85820A3F85A20002038
:10445000986600BF9868B0F5805F0AD1186920B9E6
:1044600040F2FF10A3F85C0020E0FF20A3F85C00FE
:104470001CE0986848B9186918B9FF20A3F85C00D7
:1044800014E07F20A3F85C0010E09868B0F1805F32
:1044900009D1186918B97F20A3F85C0006E03F2015
:1044A000A3F85C0002E00020A3F85C0000BF00203D
:1044B000C3F884002220C3F8800000BF00BF1C683E
:1044C000083454E8004F44F001001C68083444E804
:1044D0000005002DF3D100BF9868B0F5805F04D1CE
:1044E000186910B91148986601E011489866186972
:1044F00060B100BF00BF1C6854E8004F44F49070E6
:104500001D6845E80004002CF5D10CE000BF00BF99
:104510001C6854E8004F44F020001D6845E8000482
:10452000002CF5D100BF002030BD0000CD3E0008BA
:10453000D13F00082DE9F04104460D461746984644
:10454000069E3CE0701CC8B3FCF796FEA0EB08008A
:10455000B04200D816B90320BDE8F0812068006899
:1045600000F0040050B32068C069C0F3C00078B107
:104570000820216808622046FFF75DFC0820C4F887
:10458000840000BF002084F8780000BF0120E3E72A
:104590002068C069C0F3C02080B14FF4006021687A
:1045A00008622046FFF747FC2020C4F8840000BFC3
:1045B000002084F8780000BF0320CDE7FFE72068E3
:1045C000C0692840A84201D1012000E00020B84283
:1045D000B8D00020C0E7000008B51548FEF742F942
:1045E00013480068C069C0F30010F8B110201049EA
:1045F000096808620F48B0F8000868B10E480078F2
:10460000012803D10B48FFF793FA05E00949D1F8D7
:104610000408694604F04CFA009838B14FF0805015
:1046200006490860BFF34F8FBFF36F8F08BD0000CE
:10463000D8610020E86200204003002004ED00E083
:1046400008B51148FEF70EF90F480068C069C0F3BD
:104650000010B8B110200C49096808620B48B0F886
:10466000000828B10949D1F80408694604F020FA85
:10467000009838B14FF0805005490860BFF34F8F64
:10468000BFF36F8F08BD000060620020F46A002055
:1046900004ED00E008B569480068006840F02000BB
:1046A000664909680860102064490968086263481F
:1046B0000068006840F01000604909680860262022
:1046C000FCF778FE002206212620FCF787FE012257
:1046D0005B495A48FEF730FB00205A49C1F80408EC
:1046E00003220021012004F09BF85649C1F8040878
:1046F0000846D0F8040810B953A000F027F90022AA
:104700000121084604F08CF8564908600846006804
:1047100010B955A000F01AF901F06EF959A2002164
:10472000084601F04FFA5BA20121002001F04AFA8D
:1047300082E04449D1F804084FF0FF3104F0FCFA5C
:10474000012875D15648007818B13E48FFF706FA9F
:104750006EE054A13B48FBF7FDFD3A4988420FD17A
:1047600001F04AF952A20021084601F02BFA53A1A8
:10477000324802F0E3FD02F0CFFDFFF78DF957E07C
:1047800052A13048FBF7E6FD2E49884216D101F0D0
:1047900033F951A20021084601F014FA51A127482B
:1047A00002F0CCFD02F0B8FD0120009002230022AF
:1047B00069462C48006804F0A7F839E04DA121486B
:1047C000FBF7C8FD1F49884210D102F0A5FD01F09A
:1047D00013F94BA20021084601F0F4F941A1174852
:1047E00002F0ACFD4948FEF791FB21E048A11548D5
:1047F000FBF7B0FD1349884208D102F08DFD47A1B7
:104800000E4802F09BFD02F093FC11E047A10D4819
:10481000FBF7A0FD0B49884208D102F07DFD46A1BF
:10482000064802F08BFD02F059FC01E002F074FD35
:104830004FF47A7003F006F87BE700006062002016
:10484000F6720020F46A0020B4B4BDA875617274D9
:1048500032BFD5CFD0B6FED6B5D0C5BAC5CAA7B07F
:10486000DC0D0A0044030020B4B4BDA8776972656A
:104870006C657373CFFBCFA2B6D3C1D0CAA7B0DC2F
:104880000D0A0000CAE4C8EBD6B8C1EEBDF8C8EB0B
:104890000000000054657374C4A3CABD000000008A
:1048A0004003002041545F546573740D0A000000FA
:1048B000C4A3D7E9BFAABBFAD6D0000041545F54C5
:1048C000657374204F4B0D0A0D0A00004F54415F71
:1048D000546573740D0A00004F544120B2E2CAD4EB
:1048E000000000004F54415F54657374204F4B0D1E
:1048F0000A0000004A554D5020414444310D0A0041
:104900004A554D5020414444310000000000010848
:104910005461736B53746174650D0A005461736B59
:104920005374617465204F4B0D0A00005461736B22
:1049300054696D650D0A00005461736B54696D65AF
:10494000204F4B0D0A00000000BFFEE70FB4054BDF
:1049500010B503A9044A029800F026F910BC5DF8CE
:1049600014FB00008D590008A00400200FB4084B70
:1049700010B504A902AA039800F016F9044602A98A
:10498000002000F097FC204610BC5DF814FB0000EE
:10499000B552000837B514460846064B6A4621460C
:1049A00000F002F904466946002000F083FC20462E
:1049B0003EBD0000B552000802480068C0F3022066
:1049C000704700000CED00E010B5002804DB0A077A
:1049D000130E054A135406E00A07140E034A00F0AA
:1049E0000F031B1FD45410BD00E400E018ED00E0DD
:1049F00000487047AC040020EFF30580704702E0E8
:104A000008C8121F08C1002AFAD170477047002059
:104A100001E001C1121F002AFBD170472DE9FF5FA1
:104A200082B00021DDE90430020DDDF840B003431F
:104A300018D044F61050A2F2FF32424315141198D8
:104A400001281FD0A5EB0B00401C5FEA000A4FF0C5
:104A500000064E4FDFF83891B046504615D5CAF1E2
:104A6000000413E0119801244AA3012801D16FEA40
:104A70000B010298119AC0E90031C0E9024206B068
:104A800000F08EB8CBF10000DFE704460021404A79
:104A9000491842EB0450CDE9001012E0E00707D0BE
:104AA00032463B4640464946FBF7ACFD80468946C8
:104AB00032463B4610461946FBF7A4FD06460F4614
:104AC0006410002CEAD1DDE90401DDE90023BAF12C
:104AD000000F06DAFBF796FD42464B46FBF792FDC8
:104AE00005E0FBF704FE42464B46FBF700FE04469A
:104AF0000E460022284BFBF781FE03D84FF0FF3013
:104B0000014607E00022254B20463146FBF7CBFC4F
:104B1000FBF75CFE102409E0002C0ADB0A220023CC
:104B2000FBF7C0FB039B30321A55641E50EA0102AA
:104B3000F2D1641C039AC4F111031444119A012A9E
:104B400003D0012208430DD10AE0084304D000201D
:104B50004FF0110B119072E7A3EB0B056D1E0DE0EA
:104B60005B4504DD4FF0000205F1010504E003DAC6
:104B70004FF00002A5F10105002AECD0029811992E
:104B8000C0E90231C0E9004579E7000000001440A7
:104B90000000F03F300000000000F0430000E03F64
:104BA00030BCBDE8C09F00002DE9FF4F95B09A468C
:104BB000884606460025EEE1252877D100242746C1
:104BC000F94A0121039400E0044316F8013F203B19
:104BD00001FA03F01042F7D130782A2811D06FF093
:104BE0002F033078A0F13002092A16D8039A44F036
:104BF000020402EB820203EB42021044761C039093
:104C0000EFE758F8042B0392002A03DA504244F4E9
:104C10000054039044F00204761C30782E2816D1FC
:104C200016F8010F44F004042A280DD06FF02F026B
:104C30003078A0F13003092B09D807EB870302EB8A
:104C40004303C718761CF3E758F8047B761C3078CA
:104C50006C280FD006DC4C2817D068280DD06A28A5
:104C600014D104E0742810D07A280FD10DE044F458
:104C700000140AE044F4801401E044F44014727813
:104C8000824202D104F58014761C761C30786628A6
:104C90000BD013DC582877D009DC002875D04528C4
:104CA000F6D04628F4D047281AD193E118E06328BB
:104CB00035D0642879D0652812D18BE1702873D063
:104CC00008DC6728F1D069286FD06E280DD06F28D6
:104CD00006D1ACE073282CD0752874D0782853D036
:104CE0005246179990476D1C54E1C4F302500228B4
:104CF00009D003280DD0D8F8001004280DD00D607D
:104D000008F1040846E1D8F80010EA17C1E900529A
:104D1000F6E7D8F800100D80F2E70D70F0E718F80C
:104D2000041B8DF8001000208DF80100EB460120D7
:104D300003E058F804BB4FF0FF3061074FF000016B
:104D400002D40DE009F101018946B9420FDA81452B
:104D5000F8DB1BF809100029F4D108E009F1010182
:104D600089468142FADB1BF809100029F6D1039825
:104D70005346A0EB090721463846179A00F083FAFC
:104D8000284400EB090507E044E008E10DE01BF8CA
:104D9000010B524617999047B9F10109F7D25346D2
:104DA00021463846179AF2E039E00A21C4F302524C
:104DB0004FF0000B0091022A06D058F8040BC117DF
:104DC000032A09D00AE023E008F1070020F00702D7
:104DD000F2E80201904605E000B2C117042A01D1B1
:104DE00040B2C117002906DA0A460021404261EBB1
:104DF00002012D2202E0220504D52B228DF8042089
:104E0000012203E0E20701D02022F7E7914657E0B4
:104E10000A2100E010214FF0000B00910BE010215F
:104E20004FF0000B44F004040827009103E0082031
:104E30004FF0000B0090C4F30252022A05D058F83C
:104E4000040B0021032A08D008E008F1070020F035
:104E50000702F2E80201904603E080B2042A00D182
:104E6000C0B24FF0000922072AD53278702A07D045
:104E7000DDF800C08CF0100C5CEA0B0C05D00EE0E5
:104E800040228DF80420012208E050EA010306D0F8
:104E900030238DF804308DF8052002229146009BC6
:104EA00083F0080353EA0B030AD150EA010201D14F
:104EB000620705D530228DF804204FF001097F1ECE
:104EC0003278582A04D039A20C920CAA02920BE034
:104ED0003BA2F9E75B46009AFBF7E4F90C9B9B5C6D
:104EE000029A521E0292137050EA0102F2D1029805
:104EF00004A9081A00F1200B600702D524F48034BD
:104F000000E001275F4502DDA7EB0B0000E0002079
:104F100000EB0B01009003984944401A0390E00312
:104F200006D453462146179A039800F0ACF905447D
:104F3000002706E001A85246C05D179990476D1CF6
:104F40007F1C4F45F6DBE0030CD553462146179AEC
:104F5000039800F098F9054404E030205246179970
:104F600090476D1C0099481E00900029F5DC08E070
:104F70000298029952460078491C0291179990476D
:104F80006D1CBBF10001ABF1010BF1DC5BE100F04A
:104F900068F90544761C307800287FF40DAE19B00E
:104FA000284600F05BB90000092801003031323397
:104FB0003435363738396162636465660000000055
:104FC000303132333435363738394142434445463F
:104FD00000000000600700D4062708F1070020F059
:104FE0000700F0E80223804603F0004C5FEA0C0063
:104FF00001D097A009E0200501D596A005E0E007C3
:1050000001D095A001E0AFF24C001390307823F06E
:10501000004365280CD006DC452809D046281DD061
:1050200047287FD13BE0662818D067287AD136E040
:105030000021112F01DB112000E0781CCDE90001D7
:1050400004A90CA8FFF7EAFCDDE90D010C9A4FF06A
:10505000000B07F10109109200914EE04FF0004063
:105060000097CDE9011004A90CA8FFF7D7FCDDE9F2
:105070000D020C9B0F994FF0000B9146109300927C
:1050800011B9791C00EB0109B7EB090003D4C0F199
:10509000FF3B07F10109A9EB0700019042E0012F56
:1050A00000DA01270021112F01DD112000E0384630
:1050B000CDE9000104A90CA8FFF7B0FCDDE90D0162
:1050C0000C9A00914FF0000BB946109221070FD4B3
:1050D000009A4A4503DA914601E0A9F10109B9F1C4
:1050E000010F05DD109AA9F10101515C3029F4D0BE
:1050F000B84202DA10F1040F03DA0121CDE9011000
:1051000010E0002803DC8344A9EB000102E0411C0D
:10511000494500DD8946A0EB0B00401C01904FF093
:1051200000400290200705D40198484502DB4FF06B
:10513000FF30019000208DF84B0002980DF14B07D5
:10514000B0F1004F25D002200C902B200D9002983A
:1051500000280CDA404202902D200D9007E00A2131
:105160000298FBF733F93031029007F8011D0C99D2
:10517000481E0C900029F2DC02980028EFD1791E1D
:105180000D980870307800F0200040F0450007F8D6
:10519000020D11A8C01BC01D02901398007800B129
:1051A000012000EB0901019801EBE0710298014434
:1051B0000398401A401E0390E00306D4534621464C
:1051C000179A039800F05FF805441398007818B117
:1051D0005246179990476D1CE00323D5534621464C
:1051E000179A039800F04FF805441BE0BBF1000F3D
:1051F00007DB0098584504DD1098179910F80B004C
:1052000001E0179930205246904701980BF1010BAD
:10521000401E05F10105019004D12E205246179938
:1052200090476D1CB9F10001A9F10109DEDC05E030
:1052300017F8010B5246179990476D1C0299481EAA
:1052400002900029F4DC53462146179A03989EE603
:105250002D0000002B0000002000000030BCBDE845
:10526000C08F2DE9F041044600251E4617468804EC
:1052700004D405E039462020B0476D1C641EF9D5E2
:105280002846BDE8F0812DE9F041044600251E4680
:105290009046C80301D5302700E02027880404D5B4
:1052A00005E041463846B0476D1C641EF9D52846D6
:1052B000BDE8F0810A68531C0B6010707047000055
:1052C00010B504460AA12046FBF744F820B909A10D
:1052D0002046FBF73FF838B102F010F806A1084865
:1052E00002F02CF8012010BD02F008F80020FAE7C7
:1052F0004F4B0000524459004154204F4B0D0A00BF
:105300006062002010B5044608A12046FBF722F891
:1053100038B101F0F3FF06A1084802F00FF80120B0
:1053200010BD01F0EBFF0020FAE700004F4B00003A
:1053300041544530204F4B0D0A00000060620020B0
:1053400010B5044608A12046FBF704F838B101F077
:10535000D5FF08A10A4801F0F1FF012010BD01F0BE
:10536000CDFF0020FAE700002B43455245473A2085
:10537000302C31004345524547204F4B0D0A000069
:105380006062002010B5044608A12046FAF7E2FF4B
:1053900038B101F0B3FF09A10B4801F0CFFF0120A4
:1053A00010BD01F0ABFF0020FAE700002B4350498D
:1053B0004E3A205245414459000000004350494EA6
:1053C000204F4B0D0A0000006062002010B504461B
:1053D0000AA12046FAF7BEFF20B90BA12046FAF732
:1053E000B9FF38B101F08AFF0AA10D4801F0A6FF0C
:1053F000012010BD01F082FF0020FAE72B43524547
:10540000473A20302C3100002B43455245473A2083
:10541000302C350043524547204F4B0D0A00000009
:105420006062002070B5054610A12846FAF792FF89
:10543000B8B10EA12846FAF78DFF0446E07930385E
:10544000A179303901EB810100EB410040B20949FB
:10545000487101F053FF08A10A4801F06FFF0120D5
:1054600070BD01F04BFF0020FAE700002B435351C1
:105470003A20000060030020435351204F4B0D0A97
:10548000000000006062002010B5044608A120461C
:10549000FAF760FF38B101F031FF06A1084801F0CA
:1054A0004DFF012010BD01F029FF0020FAE70000A8
:1054B0004F4B00005149414354204F4B0D0A00000F
:1054C0006062002010B5044608A12046FAF742FFAA
:1054D00038B101F013FF06A1084801F02FFF0120A9
:1054E00010BD01F00BFF0020FAE700004F4B000059
:1054F000514943534750204F4B0D0A006062002032
:1055000010B5044608A12046FAF724FF38B101F08F
:10551000F5FE06A1094801F011FF012010BD01F0C0
:10552000EDFE0020FAE700004F4B000051494445D2
:10553000414354204F4B0D0A0000000060620020E0
:1055400010B5044608A12046FAF704FF38B101F06F
:10555000D5FE09A10B4801F0F1FE012010BD01F0BC
:10556000CDFE0020FAE700002B51494F50454E3A3E
:1055700020302C300000000051494F50454E204F44
:105580004B0D0A006062002070B5054610A1284648
:10559000FAF7E0FEC0B112A212A1284601F080FD88
:1055A000044634B12046FAF704FF114981F8780126
:1055B00001E0002070BD01F0A1FE08210D48006847
:1055C00003F039F80120F5E701F098FE0020F1E73B
:1055D000226D7367223A2273756363220000000014
:1055E0002C00000022737461747573223A0000006D
:1055F000EC000020D40000207CB504464FF400618C
:105600002046FAF79CFE0A490846D0F8680101F2E4
:105610003B1301F59672CDE9000106492046FFF7DC
:10562000A5F92046FAF7A8FE85B228467CBD000001
:10563000EC000020FC95000870B5054628A128461E
:10564000FAF788FE002847D029A22AA1284601F0AF
:1056500027FD044634B12046FAF7ABFE284981F80D
:10566000780101E0002070BD21A226A1284601F0AA
:1056700017FD044634B12046FAF79BFE2049C1F8D5
:105680006C0101E00020EEE719A220A1284601F0FC
:1056900007FD044634B12046FAF78BFE1849C1F8DD
:1056A000680101E00020DEE711A21AA1284601F0FE
:1056B000F7FC04462CB1224619A11A48FFF756F907
:1056C00001E00020CFE701F019FE04211648006830
:1056D00002F0B1FF0120C6E701F010FE0020C2E792
:1056E000226D7367223A2273756363220000000003
:1056F0002C00000022737461747573223A0000005C
:10570000EC0000202273697A65223A0022746964F1
:10571000223A000022746172676574223A00000028
:105720002573000045020020D40000203EB5044649
:105730004FF400612046FAF702FE0B4A02F24F10C6
:105740001146D1F86411A0F11403CDE901020091D2
:10575000A0F1230205492046FFF708F92046FAF791
:105760000BFE85B228463EBDEC0000207495000873
:1057700008E001F0DDFC4FF47A7002F063F80020DD
:1057800002F07CFAF5E7000070B586B00546002609
:1057900039A12846FAF7DEFD0446002C65D0143402
:1057A00001F0B2FF3949D1F87421D1F87011384BAA
:1057B000C8182146FDF780FF01F0B8FF3348D0F844
:1057C0007421D0F87001324BC1182046FAF7DBFD86
:1057D00090B92E48D0F870012C49D1F874110844C2
:1057E0002A49C1F8700101F089FD012610212948DC
:1057F000006802F020FF00E00026244890ED5C0ADB
:10580000F8EE400A90ED5B0AB8EE401A80EE810A8D
:10581000DFED210A20EE200ABCEEC00A10EE100ACD
:105820001A4981F87B01084690F87B01642803DB64
:10583000C92081F87B010126144890F87B01C92812
:1058400004D116A101A8FFF791F806E00F4890F8DF
:105850007B2115A101A8FFF789F8022000F0D4F8F8
:1058600001A9022000F092F900E0002601F046FDB7
:10587000304606B070BD0000507261676D613A201D
:105880006E6F2D636163686500000000EC0000200E
:1058900000000108D40000200000C842CFC2D4D8C4
:1058A000CDEAB3C900000000646F776E6C6F61646D
:1058B00065643A25642525007FB504464FF40061F0
:1058C0002046FAF73CFD1048D0F870010E49D1F897
:1058D000741108440C49D1F870110B4B1A46D2F8D8
:1058E0006821CDE90023CDE9021003F23B13A3F1B7
:1058F0000F0206492046FFF739F82046FAF73CFD2B
:1059000085B2284604B070BDEC0000200C9500085C
:105910002DE9F04707463E4617480068864201D108
:10592000002426E001F0F0FE75691448D0F80090DC
:105930001348D0F8008001F0F9FE4D4501D04545EF
:1059400001D1022415E00F4885420BD1B06A38B965
:1059500096F85C00012801D102240AE0032408E043
:10596000022406E00848854200D00DB9042400E076
:1059700001242046BDE8F08750000020540000209C
:1059800058000020EC090020D809002038B5044652
:105990008DF8000069460320ABBE204638BD0000EC
:1059A00010B5002821D0114B0022001F196803E018
:1059B000814203D80A4649680029F9D152B11368D7
:1059C000841A9C4204D1006818441060104602E01A
:1059D000506000E0186039B102680B1A934203D19D
:1059E0000B681A4402604968416010BDA40400209D
:1059F00000BFEFF30580704710B53020FDF70EFBB8
:105A00000120FDF70BFB10BD70B5054629460020AF
:105A1000FDF7DEFA08B1012070BD002404E020206B
:105A2000FDF72CFB601CC4B2102CF8DB0020F3E760
:105A300010B5012240214FF09040FBF717FC00F019
:105A400023F800224FF480510D48FBF70FFC012290
:105A500002210C48FBF70AFC012211460948FBF71A
:105A600005FC3220FBF738F8FFF7C6FF0620FDF7EC
:105A7000D5FA0C20FDF7D2FA3220FBF72DF810BD35
:105A8000000400480010004800B587B000BF3B4844
:105A9000C06C40F001003949C8640846C06C00F091
:105AA0000100019000BF00BF00BF0846C06C40F07D
:105AB0000200C8640846C06C00F00200019000BFFC
:105AC00000BF00BF0846C06C40F00400C864084630
:105AD000C06C00F00400019000BF00BF00BF08468A
:105AE000C06C40F00800C8640846C06C00F00800B4
:105AF000019000BF00BF00BF0846C06C40F010001E
:105B0000C8640846C06C00F01000019000BF00BFE0
:105B1000142102A8FAF713FC402002900120039000
:105B20000020049002A94FF09040FBF7A1FA4FF437
:105B3000A0500290012003900020049002A9104878
:105B4000FBF796FA4FF4E0700290012003900020DA
:105B500004900220059002A90A48FBF789FA032065
:105B6000029001200390002004900220059002A9D9
:105B70000548FBF77DFA07B000BD000000100240A9
:105B800000040048000800480010004870B50646B0
:105B90000C4631460020FDF71BFA08B1012070BD0C
:105BA00000250BE0207820B114F8010BFDF766FA10
:105BB00002E02020FDF762FA681CC5B2102DF1DB6F
:105BC0000020ECE770B505460E46144631462846DF
:105BD000FDF7FEF908B1012070BD03E014F8010BD8
:105BE000FDF74CFA20780028F8D100BFF4E7FBF766
:105BF00055FBFDF79AFEFAF761FFFDF789FAFDF70D
:105C0000F7FAFDF715FB00F03DF8FDF767FA00F035
:105C10004FF800BFFEE70000F0B50B30154D20F047
:105C200007010024144A0FE003688B420BD38B4218
:105C300005D95E1A43184768C3E9006700E0436866
:105C4000136002C004E0021D10680028ECD1204659
:105C5000002802D1286808B10020F0BD064A074894
:105C60001060074A121A22F00702C0E9002401203E
:105C70002860D7E7A8040020A4040020649B00202B
:105C8000609D002010B5FEF7B7FE10B16FF005045F
:105C900009E00648006820B9012004490860002492
:105CA00001E04FF0FF34204610BD0000A8000020A6
:105CB00070B5FEF7A1FE10B16FF005041FE01148AA
:105CC0000068012819D100BF801F0021002804DBD3
:105CD0000A07130E0C4A135406E00A07150E0B4A66
:105CE00000F00F031B1FD55400BF00BF0220054961
:105CF000086001F077FF002401E04FF0FF342046F8
:105D000070BD0000A800002000E400E018ED00E0F5
:105D100038B54FF0FF3000231A4603210090524857
:105D2000006803F055FB51480068FBF70DF8044686
:105D3000FF2C36D004EB84004D4901EB8000007A43
:105D400003282FDA04EB840001EB8000007A401C6A
:105D500004EB8401464A02EB8101087204EB8400E3
:105D6000114601EB8000037A04EB840001EB800014
:105D700040A14268424801F0E1FA01F021F8002117
:105D80004048006802F0D8FF01286BD12046FAF79E
:105D9000C7FF0546FF2D65D029463B48006802F045
:105DA0004AFC5FE004EB8400314901EB8000407A5B
:105DB000032839DA04EB840001EB8000407A401CB0
:105DC00004EB84012A4A02EB81014872002004EBB3
:105DD000840102EB8101087204EB8400114601EB9F
:105DE0008000407A8DF8010004EB840001EB800014
:105DF000007A8DF8000000231A466946234800689F
:105E000002F082FD04EB8400194901EB8000437A23
:105E100004EB840001EB80001DA14268184801F0EA
:105E20008DFA02F067F91DE004EB8400104901EBE4
:105E300080001BA14268124801F080FA02F05AF972
:105E400000200DE0002100EB8002094B03EB8202F1
:105E5000117200EB800203EB82025172411CC8B246
:105E60000528EFDB38BD0000E800002068020020B4
:105E7000D00200202573B3ACCAB13A25640D0A00E4
:105E800060620020E4000020D4000020DC0000203C
:105E90002573B3ACCAB1D6D8C6F43A25640D0A004E
:105EA00025733ACEB4D3A6B4F0B9D8BBFA0D0A0024
:105EB00038B54FF0FF3000231A46032100904548C3
:105EC000006803F085FA44480068FAF73DFF04468D
:105ED000FF2C7AD004EB8400404A02EB8000016979
:105EE0003F48884718B100203E49087071E03D489E
:105EF0000078032825DA3B480078401C39490870AF
:105F000004EB8400354901EB800042683548037892
:105F100035A1384801F012FA00F052FF002136484E
:105F2000006802F009FF012853D12046FAF7F8FE75
:105F30000546FF2D4DD029463048006802F07BFB16
:105F400047E000202749087004EB8400234901EB57
:105F50008000407A401C04EB8401204A02EB81015E
:105F6000487204EB8400114601EB8000407A8DF802
:105F7000010004EB840001EB8000007A8DF8000042
:105F800000231A4669461E48006802F0BDFC02F074
:105F9000B1F804EB8400114901EB8000407A03283A
:105FA00011DD00200DE0002100EB80020B4B03EB24
:105FB0008202117200EB800203EB82025172411CDB
:105FC000C8B20528EFDB04E0FFE70EA1094801F0A5
:105FD000B5F938BDE800002068020020D00200209A
:105FE000E8620020350300202573D6D8CAD43A25AC
:105FF000640D0A0060620020E4000020D40000204C
:10600000DC000020BBF1C8A14F5441B2BDD6E8B4BA
:10601000EDCEF30D0A0000003EB524480068FAF703
:1060200093FE0446FF2C3BD004EB8400204A02EB95
:106030008000C1681F488847ADF808001D480190DE
:1060400000231A4601A91C48006802F05DFCBDF857
:10605000080000F0E3FF0120FFF7D6FC04EB84000A
:10606000134A02EB800041680120FFF78FFD4FF0DB
:10607000FF30002341F28832042100900F4800686D
:1060800003F0A6F902F08EFF05464FF0FF30002323
:106090002A46012100900948006803F099F903E0BD
:1060A00007A10C4801F04AF93EBD0000680200203B
:1060B000D002002010930020D8000020E80000202B
:1060C000BBF1C8A14F5441B2BDD6E8B4EDCEF30D3B
:1060D0000A0000006062002008B54FF0FF30002386
:1060E0001A46032100904148006803F071F94048C6
:1060F00000790A2800D108BD3D480079C0EBC000F6
:106100003C4901EB8000C07A032820DA3848007946
:10611000C0EBC00001EB8000C07A401C3449097913
:10612000C1EBC101334A02EB8101C87230480079EA
:10613000C0EBC000114601EB8000C37A2C48027905
:106140002DA1364801F0FAF801F098FE4BE02848FE
:106150000079C0EBC000274901EB8000007B0328D9
:1061600029DA002022490979C1EBC101214A02EB59
:106170008101C8721E480079C0EBC000114601EBD6
:106180008000007B401C1A490979C1EBC10102EB78
:106190008101087316480079C0EBC000114601EB7D
:1061A0008000037B124802791DA11C4801F0C6F84B
:1061B00001F0A0FF17E022A1184801F0BFF801F09C
:1061C00099FF00200DE00021C0EBC002094B03EB5A
:1061D0008202D172C0EBC00203EB82021173411C38
:1061E000C8B20A28EFDB00BF85E700005803002093
:1061F00060030020680300204F76657254696D6566
:106200000920737465703A256409206F76657220E1
:106210006E756D3A25640D0A000000006062002072
:1062200052657365740920737465703A256409209A
:106230007265736574206E756D3A25640D0A0000F1
:106240004F7665722052657365740D0A0000000078
:106250002DE9F04105460E461648076816480068C5
:10626000001D01F07FF9681C38B936B11248016889
:10627000091D124801F03CFA1AE07C190E4800682A
:106280004460BC4207D20C480168091D0C480068F4
:1062900001F014FA0CE008480168091D094800687B
:1062A00001F00CFA08480068844201D206480460F4
:1062B000BDE8F0816400002050000020EC090020BF
:1062C00058000020540000208000002010B5044633
:1062D00001F01AFA24480068401C2349086023484A
:1062E000006840B9214804600846006801280DD1C3
:1062F00000F002FA0AE01E48006838B91B4800683E
:10630000C06AE16A884201D81848046019480068E8
:10631000401C184908600846006860641649E06A35
:106320000968884202D91449E06A0860E16A01EB11
:106330008101124A02EB8100211D01F0D9F901F01F
:10634000F5F90B48006868B108480068C06AE16A5E
:10635000884207D24FF0805009490860BFF34F8F41
:10636000BFF36F8F10BD00006000002050000020C0
:106370006C0000207C000020680000203C0500200C
:1063800004ED00E008B501F0BFF912480068E8B973
:10639000114801F083F9114801F080F90E481049C5
:1063A00008600E480F49086000200F4B0F4A10216B
:1063B00000900A2002F051FA064908600846006879
:1063C00020B10BA10348006801F000FA01F0AEF91A
:1063D00008BD00009C000020000A0020140A0020D4
:1063E0009400002098000020280A0020780A00204D
:1063F000546D72510000000010B516E001F084F9F0
:106400000C48C068C468201D01F0ACF80A48006858
:10641000401E0949086009480068401E0749086095
:1064200001F084F9204600F05FF804480068002875
:10643000E4D110BDD8090020600000205C000020DD
:1064400070B504460D46206C70B1216CE0680144C3
:10645000E160D4E90210884201D32168E160284656
:10646000226CE168F9F752FF70BD2DE9F041044656
:106470000F4615464FF00008A66B206C48B92068FF
:1064800000282CD1A06802F01FFE80460020A060EA
:1064900025E07DB93946226C6068F9F737FF216C39
:1064A000606808446060D4E90101884217D320681D
:1064B000606014E03946226CE068F9F727FF216C30
:1064C000E068411AE1602168E068884203D2216CEB
:1064D000A068411AE160022D01D106B1761E701C40
:1064E000A0634046BDE8F08110B5044694F85D0015
:1064F00030B9206B01F02AF9204601F027F906E0B7
:1065000094F85D00012802D1204601F01FF910BD6A
:1065100001464A6A22B10A6B1268C2F1380000E0F3
:10652000002070470146084A126812680AB9012221
:1065300000E000220A600A6822B9034A1268D268A1
:10654000106800E0002070479400002030B54FF440
:10655000A043174800F007042CB1C01D20F007002D
:10656000134C041B1B1B0246124C22600024114DCD
:106570006C60D018083820F007000F4C2060002411
:106580000D4D2D686C600C4D2D682C601146441A21
:106590004C60094C24680C60084D4C682C60084D18
:1065A0004C682C604FF00044064D2C6030BD00005C
:1065B000D8110020AC000020B4000020BC00002056
:1065C000B8000020C800002000BFFFF715FF0648F4
:1065D00000680128F9D94FF0805004490860BFF3E2
:1065E0004F8FBFF36F8FF0E73C05002004ED00E014
:1065F0002DE9F04106460D4617469846069C0DB912
:10660000246000E02760E66325640121204602F053
:106610003BF984F84C80BDE8F0812DE9F05F8146BC
:106620000E4690469A460A9F0C9C4FEA8801A52286
:10663000206BF9F77DFEA8F10100216B01EB800BC7
:106640002BF0070B86B1002507E0715D04F13400E3
:106650004155705D00B902E06D1C102DF5D300BFEF
:1066600000214320015502E0002084F83400382F37
:1066700000D33727E762E76400202065201D01F082
:106680001AF804F1180001F016F82461C7F1380077
:10669000A061646200206065A06584F85C005246D9
:1066A0004946584600F076FB20600B9808B10B98DD
:1066B000046000F000B830BCBDE8C09F2DE9F04791
:1066C00005460E4617469846DDE908948CB1FFF75B
:1066D00059FE2560A661C4F81C80C4F82090201DD6
:1066E00000F0E9FF2FB194F8280040F0040084F88E
:1066F0002800BDE8F087000010B5002407E004EB97
:1067000084010F4A02EB810000F0C8FF641C382CA2
:10671000F5D30C4800F0C2FF0B4800F0BFFF0B4858
:1067200000F0BCFF0A4800F0B9FF0A4800F0B6FFCD
:1067300004480949086004480849086010BD000081
:106740003C0500209C090020B0090020C40900205D
:10675000D8090020EC090020540000205800002037
:1067600010B50146164800E0006803688B42FBD371
:106770000246436813448B4204D143684C68234467
:10678000436001460A464B6813440468A34211D192
:106790000C4C03682468A34208D04B680468646802
:1067A00023444B6003681B680B6005E0054B1B68C6
:1067B0000B6001E003680B60884200D0016010BDEF
:1067C000AC000020B40000202DE9F04104460D4645
:1067D00016461F464FF0000865602461B5420CD88C
:1067E000F01BA169884202D34FF0010811E0211D7E
:1067F0000948006800F062FF0BE0BE4204D2BD42CF
:1068000002D34FF0010804E0211D0448006800F0A5
:1068100055FF4046BDE8F08198000020940000201C
:1068200070B5054600F070FFA86B08B9012400E0C0
:10683000002400F07BFF204670BD70B5054600F0D7
:1068400063FFA86BE96B884201D1012400E00024BA
:1068500000F06CFF204670BD2DE9F04707460C465E
:1068600090460026206848B3204641684968416048
:1068700000F1080142688A4202D1416849684160DA
:106880004168D1F80C9000BF2046416849684160DA
:1068900000F1080142688A4202D1416849684160BA
:1068A0004168CD6806EBC60007EB80014346012234
:1068B000284601F031F8761C4D45E5D13046BDE85B
:1068C000F0870000F8B505460E4614480068C06819
:1068D000C468201D00F046FE94F8280000F0040073
:1068E00088B1A06941192B4632462046FFF76CFF5C
:1068F00078B1002003462A4601460090204602F067
:1069000067FD074605E094F8280020F0010084F8B0
:1069100028002046216A8847F8BD00009400002026
:10692000F0B587B076E00398002805DA04AED6E922
:106930000020B168904700BF039800286ADB059CDF
:10694000606908B9012000E0002010B9201D00F0A6
:1069500009FE02A800F0BEF8054603980A2857D29F
:10696000DFE800F00905072D354606082E3600BF82
:1069700000BF00BF00BF94F8280040F0010084F879
:1069800028000498A269811803462A462046FFF78A
:106990001BFF98B12046216A884794F8280000F030
:1069A000040058B1002000900498A1694218002307
:1069B0001946204602F00CFD074600BF29E000BF43
:1069C00094F8280020F0010084F8280021E000BF9E
:1069D00094F8280040F0010084F828000498A06191
:1069E000A06941192B462A462046FFF7EDFE10E02C
:1069F00094F8280000F0020018B9204600F0A6FE26
:106A000005E094F8280020F0010084F8280000E058
:106A100000BF00BF002203A90348006802F00AF982
:106A2000002880D107B0F0BD9C000020F8B50546D5
:106A30000C4601F073F9684600F04CF806460098E1
:106A400020BB44B9B54206D802F000FC31462846C6
:106A5000FFF738FF1CE03CB10E480068006808B939
:106A6000012000E000200446A91B22460A480068D5
:106A700000F0C2FE02F0EAFB50B94FF08050074927
:106A80000860BFF34F8FBFF36F8F01E002F0DEFBB2
:106A9000F8BD0000980000209C00002004ED00E0FC
:106AA0000A490968096809B9012100E0002121B1FA
:106AB0004FF0FF31064A116006E004490968C968D1
:106AC000C868034A41681160704700005400002004
:106AD0008000002070B5044602F064FA05460748BD
:106AE0000068854204D200F00BF80120206001E02C
:106AF0000020206001480560284670BDA4000020E9
:106B00002DE9F84328E01E480068C06805681C4865
:106B10000068C068C468201D00F024FD2046216A7A
:106B2000884794F8280000F00400A8B1A06946192D
:106B3000AE4207D966602461211D1148006800F04B
:106B4000BDFD09E0002003462A460146009020468C
:106B500002F03EFC804600BF09480068006808B9A2
:106B6000012000E000200028CDD005480768054836
:106B700000680349086003480760BDE8F883000027
:106B800094000020980000200246002101E0521CE1
:106B9000491C1078A528FAD0890888B2704700BF30
:106BA000502080F31188BFF34F8FBFF36F8F00BF6A
:106BB00000BFFEE710B50346002022B903EA010436
:106BC00034B1012004E003EA01048C4200D1012029
:106BD00010BD08B500BF6846FFF7A4FC0446204678
:106BE0000099FFF723FFFFF79BFEF4E770B504461B
:106BF00000F08AFD94F9455010E0606A08B9012060
:106C000000E0002038B904F1240002F0DFFA18B1E6
:106C100000F032FF00E003E0681E45B2002DECDC1E
:106C200000BFFF2084F8450000F080FD00F06CFDFF
:106C300094F9445010E0206908B9012000E00020D8
:106C400048B904F1100002F0C1FA08B100F014FFD5
:106C5000681E45B200E001E0002DECDC00BFFF2023
:106C600084F8440000F062FD70BD70B505460E4624
:106C700031462846F9F794FB2846F9F77DFB044690
:106C800002E020202855641C0F2CFAD30020285540
:106C9000281970BD2DE9F04105464FF0000801F0BC
:106CA0003DF82E48006808B9FFF750FC2C480068F2
:106CB000284000284CD145B1083505F0070020B127
:106CC00005F00700C0F108000544002D40D025481C
:106CD000006885423CD8244E3046046801E02646D0
:106CE00024686068A84202D220680028F7D11B48B7
:106CF000006884422CD0306800F1080820683060B9
:106D00006068401B102807D967196068401B7860CD
:106D100065603846FFF724FD124960680968081A63
:106D2000104908600846006810490968884203D283
:106D30000C4800680D490860094960680968084303
:106D40006060002020600A480068401C0849086014
:106D500002F07CFA4046BDE8F0810000B40000205B
:106D6000C8000020B8000020AC000020BC000020BB
:106D7000C00000200648006830B10549096801F1EB
:106D80005000096D491C016001480068704700000F
:106D900050000020001F4FF080730360001F21F09F
:106DA00001030360001F054B036014380260001FDD
:106DB0006FF0020303602038704700009F6B0008EB
:106DC00010B50BA10E4800F0B9FAC820FAF738F850
:106DD0000CA10B4800F0B2FAC820FAF731F80023F2
:106DE0001A4619461248006801F08EFD10BD0000D9
:106DF00041542B5149434C4F53453D300D0A00003F
:106E0000D861002041542B51494F50454E3D312C03
:106E1000302C22544350222C3138332E3233302E32
:106E200034302E33332C38302C302C300D0A000007
:106E3000E400002010B505A1064800F07FFA03A188
:106E4000054800F07BFA012010BD000041540D0AF6
:106E500000000000D86100206062002010B505A18C
:106E6000064800F06BFA03A1054800F067FA01201C
:106E700010BD0000415445300D0A0000D8610020CB
:106E80006062002010B505A1074800F057FA03A181
:106E9000064800F053FA012010BD000041542B4376
:106EA000455245473F0D0A00D8610020606200202E
:106EB00010B505A1074800F041FA03A1064800F00B
:106EC0003DFA012010BD000041542B4350494E3F74
:106ED0000D0A0000D86100206062002010B505A1F5
:106EE000074800F02BFA03A1064800F027FA01201A
:106EF00010BD000041542B435245473F0D0A00008E
:106F0000D86100206062002010B505A1074800F09C
:106F100015FA03A1064800F011FA012010BD000087
:106F200041542B4353510D0A00000000D86100204A
:106F30006062002010B505A1084800F0FFF903A128
:106F4000074800F0FBF9012010BD000041542B510F
:106F5000494143543D310D0A00000000D861002032
:106F60006062002010B505A10B4800F0E7F903A10D
:106F70000A4800F0E3F9012010BD000041542B51F4
:106F800049435347503D312C312C22434D4E4554FB
:106F9000222C2C2C310D0A00D861002060620020C8
:106FA00010B505A1084800F0C9F903A1074800F091
:106FB000C5F9012010BD000041542B514944454101
:106FC00043543D310D0A0000D8610020606200206A
:106FD00010B505A10F4800F0B1F903A10E4800F06B
:106FE000ADF9012010BD000041542B51494F5045CF
:106FF0004E3D312C302C22544350222C3138332E2C
:107000003233302E34302E33332C38302C302C3079
:107010000D0A0000D86100206062002010B504460F
:10702000224605A1094800F089F9224602A1084834
:1070300000F084F910BD000041542B514953454ED6
:10704000443D302C25640D0A00000000D86100206A
:107050006062002010B540F2DC5205A1084800F043
:107060006DF940F2DC5207A10C4800F067F910BD41
:1070700041542B514952443D302C25640D0A0000E7
:10708000D86100206174636D643A41542B514952B8
:10709000443D302C25640D0A000000006062002091
:1070A0002DE9F04180460D4616460024002729466A
:1070B0004046F9F74FF904466CB131462046F9F7DE
:1070C00049F907463FB1002038702846F9F754F9CE
:1070D0002044BDE8F0810020FBE7000010B54FF42C
:1070E000FA60FEF799FD0446204600F057FC06A121
:1070F0000C4800F023F922460BA10A4800F01EF9C3
:107100002046FEF74DFC10BDC8CECEF1C3FB0909E9
:10711000B5CEB4F0BCC6CAFD09D4CBD0D0D5BCB175
:10712000C80D0A006062002025730D0A00000000EF
:10713000F0B585B000F02AFA0646B000FEF76CFD07
:10714000054600223146284600F026FA0746204927
:10715000204800F0F3F8002432E004EBC40005EB13
:107160008000806804EBC40105EB8101098C04EB0D
:10717000C40205EB8202926904EBC40305EB8303AE
:107180005B69CDE90132CDE9031004EBC40005EBE6
:1071900080000069009004EBC40005EB8000007BD8
:1071A0000D4901EB800C04EBC40005EB8000426844
:1071B0000AA10848DCF8003000F0C0F8601CC4B236
:1071C000BC42CAD32846FEF7EBFB05B0F0BD000079
:1071D000A497000860620020880400202573090934
:1071E0002573090925640909256409090925640924
:1071F0000909256409090925640D0A0D0A00000022
:1072000002E0002000F03AFDFBE7000008B501F0C5
:1072100003FA2749086000220821012001F000FB41
:10722000244908600020244908600322002101202D
:1072300001F0F6FA204908600846006810B91FA05E
:10724000FDF784FB03220021012001F0E9FA234924
:10725000086000220221012001F0E2FA20490860C2
:107260002048052300224FF4FA5100901EA002F09E
:1072700061F8204908601AE000210F48006801F019
:107280005BFD012801D1FEF713FE4FF0FF30002314
:1072900001221F2100900648006801F019FA1649E2
:1072A0000860FEF7B9FE4FF47A7000F0CBFAE3E71E
:1072B000D4000020D8000020E0000020B4B4BDA815
:1072C000D3A6B4F0CAFDBEDD20B6FED6B5D0C5BA91
:1072D000C5C1BFCAA7B0DC0D0A000000E400002051
:1072E000DC000020115D000841545F4F7665725448
:1072F000696D6500E80000206802002010B50548AF
:10730000B0F80018F9F71BF800200249A1F80008AE
:1073100010BD0000E862002010B500F0F5F9064845
:10732000B0F80018F9F70BF800200349A1F800089D
:1073300000F0FCF910BD0000F46A00200FB438B56D
:107340000546FEF755FB48B100BF502080F3118879
:10735000BFF34F8FBFF36F8F00BF0DE007E04FF01B
:10736000805014490860BFF34F8FBFF36F8F2846DA
:10737000FBF770FA2128F2D006A800900E48009A78
:107380000599FDF707FB002000900B48F8F7F4FF84
:1073900084B26423224608492846FBF753FDFEF7D2
:1073A00027FB20B1002080F3118800BF00BF38BC4C
:1073B0005DF814FB04ED00E00C7B002010B50446E2
:1073C0000DA12046F8F7C6FF90B10F4890F87B0159
:1073D000C92804D10DA11048FFF7B0FF04E0042133
:1073E0000E48006801F027F9FFF788FF012010BD63
:1073F000FFF784FF0020FAE7226D7367223A2273B9
:107400007563632200000000EC000020CFC2D4D8D6
:10741000CDEAB3C90D0A000060620020D40000204C
:1074200030B59DB00546642104A8F8F788FF1548DB
:1074300090F87B2114A104A8FDF798FA04A8F8F7A6
:107440009BFF401C84B24FF400612846F8F777FF99
:107450000C4890F87B010B4A1146D1F8681102F2F2
:107460003B138DE81600039002F5967209492846F1
:10747000FDF77CFA2846F8F77FFF84B220461DB05E
:1074800030BD0000EC0000207B2273746570223A4E
:1074900025647D000897000810B5044608A1204621
:1074A000F8F758FF40B102210948006801F0C3F81D
:1074B000FFF724FF012010BDFFF720FF0020FAE7AF
:1074C000226D7367223A2273756363220000000005
:1074D000D400002030B59DB00546642104A8F8F71B
:1074E0002EFF4FF400612846F8F729FF114B03F1F6
:1074F0000A0211A104A8FDF739FA04A8F8F73CFF25
:10750000401C84B20B4800F10A01A0F24512A0F120
:107510000A03CDE90024CDE90210A0F119021049B7
:107520002846FDF723FA2846F8F726FF84B22046BE
:107530001DB030BD310200207B22735F766572730F
:10754000696F6E223A222573222C2022665F7665AF
:107550007273696F6E223A20222573227D0000002B
:107560005496000801460A69D1E901309860D1E9D2
:10757000010358605068884201D18868506000203B
:1075800008611068401E106010687047014800686C
:1075900070470000600000202DE9F0410546884654
:1075A00016460024382700F0B9FB224800688045C1
:1075B0003AD300BF7F1E07EB87021F4B03EB82010C
:1075C00004EBC40205EB82000122FFF745F90444F5
:1075D000002FEFD104EBC40105EB81000222174913
:1075E0000968FFF739F9044404EBC40105EB810095
:1075F000022213490968FFF72FF9044404EBC40180
:1076000005EB810004220F49FFF726F9044404EB3F
:10761000C40105EB810003220B49FFF71DF9044467
:1076200016B10A480068306001F010FE2046BDE83F
:10763000F0810000600000203C0500205400002084
:1076400058000020D8090020EC0900208404002004
:1076500005490968886904490968C96AC1F138019E
:10766000014A12689161704750000020034B03608B
:10767000034B0B608023136070470000180B002041
:10768000780B0020034B0360034B0B604FF48073B7
:1076900013607047780D0020D80D002000F108011C
:1076A00041604FF0FF31816000F10801C16001616C
:1076B00000210160704700210161704710B502464A
:1076C0000B685C1C0CB9106907E002F1080000E0CF
:1076D0004068446824689C42FAD944684C604C680D
:1076E000A160886041600A611468641C146010BD68
:1076F00042684A6093688B60936859609160086142
:1077000003685B1C0360704700BF502080F3118842
:10771000BFF34F8FBFF36F8F00BF03480068401C5B
:107720000149086070470000CC000020064800684E
:10773000401E054908600846006820B9002080F313
:10774000118800BF00BF7047CC00002070B506460E
:107750003546FEB1083D2C460F496068096808406F
:10776000C0B12068B0B90C4960680968884360609E
:1077700000F0D4FA094960680968084407490860BC
:107780002046FEF7EDFF06480068401C04490860EB
:1077900001F05CFD70BD0000C8000020B8000020B2
:1077A000C400002000204FF0E021086188610648F5
:1077B00000684FF47A71B0FBF1F0401E4FF0E02109
:1077C00048610720086170474C00002002460020F5
:1077D0000BE0084B53F8303033B9064B43F8301008
:1077E00003EBC0035A6002E0401C0828F1D300BF3D
:1077F00070470000FC0400202DE9F04105460E46CC
:1078000017462C46FFF780FF94F94400401C10B93E
:10781000002084F8440094F94500401C10B9002071
:1078200084F84500FFF782FFA06B28B93A4631463D
:1078300004F1240000F036F92046FFF7D7F9BDE83F
:10784000F081000070B50446002544B100F066FAEE
:1078500000212046FEF7FCFC01F0F8FC05463DB98E
:107860004FF0805003490860BFF34F8FBFF36F8F15
:1078700070BD000004ED00E070B50546FFF744FF61
:1078800015B91E48006800E028460446201DFFF791
:1078900069FEA06A18B104F11800FFF763FE1848EA
:1078A0000068401C1649086014480068844209D1E9
:1078B000211D1448FFF71CFF13480068401C1249A3
:1078C000086009E011480068401E10490860204621
:1078D000FEF70AFEFFF7E4F8FFF728FF0C48006800
:1078E00058B106480068844207D14FF080500949DA
:1078F0000860BFF34F8FBFF36F8F70BD5000002043
:107900007C000020D80900205C00002060000020DE
:107910006C00002004ED00E02DE9F04107460C4624
:1079200090461E4617B91C48006800E038460546D8
:10793000256005F134006060E86A2061286BE06131
:10794000686CA060E86C6061686DA061052E12D063
:1079500011480068854202D1002020730FE0267391
:10796000032E0CD100F0DAF9A86A08B102202073C6
:1079700001F06CFC03E02846FDF7CAFF2073B8F164
:10798000000F04D0286BFFF7FFF8208401E00020EF
:107990002084BDE8F0810000500000202DE9F8436C
:1079A0000646002030702748D0F80080014609685C
:1079B00001EBC1018800FFF76DF90546002D3FD0AE
:1079C0006A4641462846FFF7E7FD80466421009855
:1079D000B0FBF1F00090009800282ED000242AE09F
:1079E00004EBC40005EB800080690099B0FBF1F75F
:1079F00004EBC40005EB800041683046FFF735F921
:107A0000064657B104EBC40005EB80003B460EA1CF
:107A100082693046FCF7AAFF08E004EBC40005EBDE
:107A200080000CA182693046FCF7A0FF3046F8F7D1
:107A3000A3FC0644641C4445D2D32846FFF786FEC7
:107A4000BDE8F88360000020092575090925752522
:107A5000250D0A0009257509093C3125250D0A0067
:107A600003490968016003490968416070470000E3
:107A70007800002064000020012001490860704760
:107A80007400002070B505460C46054801681831A1
:107A90002846FFF713FE01212046FEF7D9FB70BDF3
:107AA0005000002070B506460D4614460648016891
:107AB00018313046FFF71CFE0CB14FF0FF35214660
:107AC0002846FEF7C5FB70BD5000002070B5064685
:107AD0000C46154644F0004006490968886105488F
:107AE000016818313046FFF703FE01212846FEF7F2
:107AF000AFFB70BD500000202DE9F04706460F4651
:107B000034464FF00109002E35D0E06CB84201D266
:107B10003D4600E0E56CE06AA8422CD0206D0128CB
:107B200029D1D4F82C80E562A06900F0004010B99A
:107B3000C5F13800A06108EB8801104A02EB810111
:107B40006069884201D1012000E0002098B1201D29
:107B5000FFF708FD0A49E06A0968884202D9084926
:107B6000E06A0860E16A01EB8101044A02EB8100EE
:107B7000211DFFF7BDFDBDE8F08700003C0500209A
:107B80006800002070B505460E4646F000402860AB
:107B9000EC682846FFF7E6FC201DFFF7E3FC0D49E3
:107BA000E06A0968884202D90A49E06A0860E16A25
:107BB00001EB8101084A02EB8100211DFFF798FDCE
:107BC0000649E06A0968C96A884202D90120044965
:107BD000086070BD680000203C05002050000020B7
:107BE0007400002010B586B000200590049003AA10
:107BF00004A905A8FFF73AFD0022DDE904101346A9
:107C0000CDE90021029016A11748039A01F08FF9DF
:107C1000164908600846006808B1012400E0002405
:107C2000012C02D101F0A4FB0446012C16D100BFA7
:107C3000502080F31188BFF34F8FBFF36F8F00BFC9
:107C40004FF0FF300A49086001200A49086000200F
:107C500009490860F8F726FF00F0A4FD06B010BD42
:107C600049444C4500000000C9650008840000201C
:107C7000800000206C0000206400002070B50546E4
:107C8000FFF742FD15B92048006800E02846044689
:107C9000201DFFF767FCA06A18B104F11800FFF778
:107CA00061FC211D1948FFF723FD94F85C000128B1
:107CB00002D1002084F85C00FFF738FD144800680A
:107CC00028B1FFF721FDFEF7EBFEFFF72FFD0E4871
:107CD0000068844217D10E48006840B14FF08050D0
:107CE0000C490860BFF34F8FBFF36F8F0BE007485D
:107CF000006809490968884203D1002002490860E8
:107D000001E000F013F870BD50000020EC090020E5
:107D10006C00002004ED00E06000002002480068D4
:107D2000401C014908607047880000202548006811
:107D300018B101202449086042E00020224908606F
:107D400022480068224908600846006821490968FD
:107D500088420BD92049096801F15400496D1C4A39
:107D600012681C4B1B68D21A114401601848006845
:107D7000184908601948016800E0491E01EB8100BC
:107D8000174A52F8200008B9012000E0002000281E
:107D9000F3D101EB8102124B03EB8200426852687F
:107DA000426000F108024368934202D1426852687F
:107DB00042604268D268084B1A600848016000BF00
:107DC0007047000088000020740000208404002018
:107DD000900000208C00002050000020680000204F
:107DE0003C05002070B504460D46224604A1054816
:107DF000FFF7A4FA224604A10548FFF79FFA70BDD9
:107E000025730000D861002025730D0A00000000D2
:107E10006062002000B587B000BF1548C06C40F01C
:107E200008001349C8640846C06C00F008000190BF
:107E300000BF00BF142102A8F8F781FA8020029049
:107E4000012003900020049002A90A48F9F710F9D4
:107E500000BF012280210748F9F708FA00BF00207F
:107E60000549887008704870C870087107B000BD77
:107E700000100240000C0048600300203EB53E4860
:107E80004078012802D13C48807800B13EBD3A4894
:107E900000790A2844DA0120FDF7B6FD364800795A
:107EA000C0EBC000354A02EB80010120FDF76EFEF9
:107EB00031490979C1EBC101304A02EB8101088ADD
:107EC000FFF7C0FC2EA13148FFF738FA2A4909799B
:107ED000C1EBC101294A02EB8101486980470028B2
:107EE00048D04FF0FF30009023480079C0EBC0002D
:107EF000224901EB8000C289002304212448006844
:107F000001F066FA01F04EF804464FF0FF3000230E
:107F10002246012100901E48006801F059FA29E02C
:107F2000154800790A2825D11AA11848FFF706FA42
:107F3000FDF762FD1CA200210846FDF743FE0E4836
:107F400090F905201BA16846FCF710FD6A46002148
:107F50000520FDF737FE0220074948700120887090
:107F600040F6B830FFF76EFC01211448006800F0BD
:107F700062FB00BF00BF89E76003002068030020A8
:107F800053656E6420436F6D6D09000060620020D0
:107F9000580300204154D6B8C1EED1E9D6A4CDEAA9
:107FA000B3C90D0A00000000B3C9B9A6C1AACDF833
:107FB000000000004353513A25640000D400002023
:107FC00038B5044637484078012802D135488078D2
:107FD00000B138BD4FF0FF3000231A460321009056
:107FE0003148006801F0F4F92E4800790A284EDA89
:107FF0002C480079C0EBC0002C4A02EB800081695C
:108000002046884760B1FFF779F9002028490870B9
:1080100024480079401C23490871FFF72FFF3EE0F8
:10802000FFF76CF92248007802280DDA2048007822
:10803000401C1F490870084602781EA12248FFF71D
:108040007DF9FFF71BFF2AE0002019490870154849
:108050000079C0EBC000154901EB8000007B401C9B
:1080600010490979C1EBC101104A02EB8101087383
:108070000C480079C0EBC000114601EB8000027B88
:1080800012A11148FFF75AF900F034F807E005484B
:1080900000790A2803D113A10B48FFF74FF900BF5D
:1080A00097E70000600300205803002068030020C9
:1080B00080040020526563656976655F436F6D6D6E
:1080C0003A202564200D0A00606200205265636535
:1080D0006976655F436F6D6D204572723A25640A5B
:1080E000000000004163746976617465204F4B0D98
:1080F0000A0000001CB56148007810B100205F49FB
:1081000008705E48407810B100205C4948705B48B8
:108110008078002862D159480079C0EBC0005849E6
:1081200001EB8000007B002833DD54480079C0EB70
:10813000C00001EB8000007B03282ADC00BF012285
:1081400080215048F9F792F800BFFDF755FC4EA288
:1081500000210846FDF736FD4EA15348FFF7EEF823
:1081600052480223002240F6B831009050A001F09E
:10817000E1F85249086000F015FF04464FF0FF3067
:1081800000232246012100904C48006801F020F9AC
:1081900073E0FDF731FC4AA200210846FDF712FD0D
:1081A00000BF012280213748F9F760F800BF0020A6
:1081B0000DE00021C0EBC002314B03EB8202D17213
:1081C000C0EBC00203EB82021173411CC8B20A2843
:1081D000EFDB3EA13448FFF7B1F84EE02748807846
:1081E00001284AD1002201A93D48006800F022FD83
:1081F0009DF8050000282EDD9DF8050003282ADCE7
:1082000000BF012280211F48F9F730F800BFFDF7B9
:10821000F3FB1DA200210846FDF7D4FC1DA1224856
:10822000FFF78CF821480223002240F6B831009075
:108230001FA001F07FF82149086000F0B3FE04465A
:108240004FF0FF3000232246012100901B480068B8
:1082500001F0BEF811E0FDF7CFFB19A2002108469E
:10826000FDF7B0FC00BF012280210648F8F7FEFFB1
:1082700000BF16A10C48FFF761F81CBD6003002089
:1082800068030020000C0048C4A3D7E9D6D8C6F480
:1082900000000000506F7765725F5265736574214E
:1082A00021210D0A0000000060620020E532000874
:1082B000506F7765725F52657365740054030020D8
:1082C000C4A3D7E9B9D8BBFA00000000506F7765A6
:1082D000725F4F4646204F4B2121210D0A000000BE
:1082E000DC00002038B523480078012800D138BDD3
:1082F000012240214FF09040F8F7B8FF00BF002264
:1083000080211D48F8F7B2FF00BF0120194908700D
:1083100000200871FDF770FB18A200210846FDF748
:1083200051FC19A11D48FFF709F81D48032300223D
:1083300041F2707100901BA000F0FCFF1C49086026
:108340001C4800901C48C189042300221BA000F097
:10835000F1FF1D49086000F025FE04464FF0FF3094
:1083600000232246012100901148006801F030F8F6
:1083700000BFBCE760030020000C0048C4A3D7E99D
:10838000BFAABBFAD6D00000506F776572204F4E5F
:108390002E2E2E2E2E2E0D0A0000000060620020D0
:1083A00079320008506F7765725F4F6E00000000F1
:1083B00050030020D96000086803002041545F4F3B
:1083C00076657254696D6500580300200EB56448E7
:1083D0000068006840F02000614909680860604852
:1083E0000068006840F010005D49096808601020CE
:1083F0005B49096808622520F8F7DCFF00220621A6
:108400002520F8F7EBFF012256495548FAF794FC6E
:1084100000205549C1F8040803220021012000F082
:10842000FFF95149C1F804080846D0F8040818B902
:108430004EA15548FEF782FF90E04FF0FF3202A9AF
:108440005248006800F070FB9DF808000128F3D145
:10845000FFF748FF4449D1F804084FF0FF3100F01E
:108460006BFC01287AD14A48807830B94848407876
:1084700018B13D48FFF7A4FD70E04548C07878B1D9
:1084800000204349C870384A42A13F48FEF756FFD2
:1084900000231A4619464448006800F035FA5DE0AA
:1084A00042A13148F7F756FFC8B101204049087092
:1084B0002D4A38A13448FEF741FFFEF71FFF002286
:1084C00069463C48006800F0B5FBBDF80410009810
:1084D000FFF788FC38A12C48FEF730FF3EE039A1B9
:1084E0002148F7F737FF90B13148007801280ED1C5
:1084F00002202F4908701C4A26A12348FEF71EFFC0
:10850000FEF7FCFE31A12048FEF718FF26E032A15D
:108510001548F7F71FFFB8B125480078022813D196
:10852000002023490870104A1AA11748FEF706FFD9
:10853000FEF7E4FEFEF78EFD01201549C8702BA161
:108540001148FEF7FBFE09E0002019490870064AB1
:108550002AA10D48FEF7F2FEFEF7D0FE6DE70000FF
:10856000D8610020EA6A0020E8620020B4B4BDA807
:108570007561727431BFD5CFD0B6FED6B5D0C5BA4D
:10858000C5CAA7B0DC0D0A006062002044030020C9
:108590006003002075617274312D3E756172743212
:1085A00025730D0A00000000E00000203E000000DE
:1085B00081040020D8000020273E27204F4B0D0AC1
:1085C0000000000053454E44204F4B002753454EBA
:1085D00044204F4B270D0A002B51495552433A2056
:1085E0002272656376222C3000000000272B51494F
:1085F0005552433A204F4B270D0A0000C6E4CBFBEF
:10860000CAFDBEDD75617274312D3E7561727432C2
:1086100025730D0A0000000010B52020FEF73AFB7C
:10862000044634B100202060201DFFF737F80020F9
:108630002077204610BD2DE9FE4F064689460020D2
:1086400001903446009004F1040B0BF108000290F5
:10865000FFF764FBDBF80C70206840EA090020603B
:1086600026E0D7F804A03D680020009005F07F4880
:1086700025F07F4508F0806028B92068284040B187
:108680000120009005E020682840A84201D1012087
:108690000090009858B108F0807010B101982843FC
:1086A0000190206840F000713846FFF76BFA57469A
:1086B00002988742D5D1206801998843206000F054
:1086C000C5FD206800F000B81EBCBDE8E08F0000CA
:1086D0002DE9FF5F80460E4617469946DDF838A023
:1086E00044464FF0000B00200190FFF717FB206875
:1086F00000904A4631460098FEF75CFA03900398D2
:1087000030B1009DDA46CFB12068B043206015E05B
:10871000BAF1000F03D1009D012001900EE00FB1CE
:108720004BF0807BB9F1000F01D04BF0806B46EA33
:108730000B015246201DFFF7C9F9002500F086FD08
:108740000290BAF1000F22D0029838B94FF0805051
:1087500011490860BFF34F8FBFF36F8FFEF778FFAB
:10876000054605F0007080B9FEF7CEFF25684A4641
:1087700031462846FEF71EFA18B117B12068B043FB
:10878000206001200190FEF7D1FF25F07F452846AB
:1087900004B000F003B8000004ED00E030BCBDE818
:1087A000C09F000010B50E48006840F470000C49EE
:1087B00008600846006840F070400860FEF7F2FF6D
:1087C000002008490860F7F70FFD0748006840F0EF
:1087D000404005490860F7F7F3FC002010BD000099
:1087E00020ED00E0CC00002034EF00E010B500BF29
:1087F000502080F31188BFF34F8FBFF36F8F00BFFE
:1088000000F0D6FB18B14FF080500449086000BF5B
:10881000002080F3118800BF10BD000004ED00E0CF
:108820002DE9F84305460E46174605FB06F909F102
:108830005000FEF72FFA044664B1A04608F1500834
:10884000002084F846003B464246314628460094C4
:10885000FDF7CEFE2046BDE8F8832DE9F843064635
:108860000F4690461D46DDF820902C464CB1012065
:1088700084F846004B464246394630460094FDF7A0
:10888000B7FE2046BDE8F88370B505460E462C4677
:10889000FEF73AFFD4E90F12206801FB0200A06046
:1088A0000020A06320686060E06B401E226C21689D
:1088B00000FB0211E160FF2084F8440084F84500C9
:1088C0009EB9206908B9012000E00020A8B904F190
:1088D000100000F07BFC80B14FF080500949086027
:1088E000BFF34F8FBFF36F8F07E004F11000FEF767
:1088F000D5FE04F12400FEF7D1FEFEF717FF01209C
:1089000070BD000004ED00E02DE9FF4383B0074691
:1089100088461D464FF000093C4600BFFEF7F4FEB6
:10892000A06BE16B884201D3022D28D12A46414633
:108930002046FDF79AFD0646606A08B9012000E06E
:10894000002068B904F1240000F040FC88B14FF029
:10895000805032490860BFF34F8FBFF36F8F08E03C
:108960003EB14FF080502D490860BFF34F8FBFF3E9
:108970006F8FFEF7DBFE012007B0BDE8F08305989E
:1089800018B9FEF7D3FE0020F6E7B9F1000F04D1C5
:1089900001A8FFF765F84FF00109FEF7C7FEFFF7E2
:1089A000BDF9FEF7B1FE94F94400401C10B9002057
:1089B00084F8440094F94500401C10B9002084F864
:1089C0004500FEF7B3FE05A901A800F04DFAF0B985
:1089D0002046FDF732FFA0B104F110000599FFF722
:1089E00051F82046FEF702F900F030FC002895D13E
:1089F0004FF0805009490860BFF34F8FBFF36F8F6E
:108A00008CE72046FEF7F2F800F020FC86E72046CF
:108A1000FEF7ECF800F01AFC0020ADE704ED00E0F2
:108A20002DE9F84F05468A4616461F462C4600BFDC
:108A30005021EFF3118081F31188BFF34F8FBFF303
:108A40006F8F00BF8146A06BE16B884201D3022F7C
:108A500022D194F945B0A06B00903A465146204689
:108A6000FDF703FD0BF1010070B9606A08B9012040
:108A700000E0002038B904F1240000F0A7FB10B199
:108A80000EB10120306004E00BF1010040B284F827
:108A900045004FF0010801E04FF0000800BF89F3E6
:108AA000118800BF404600F000B818BCBDE8E08F58
:108AB0002DE9F04705460E462C4600BF5021EFF346
:108AC000118081F31188BFF34F8FBFF36F8F00BF09
:108AD0008046D4F83890E06B48451DD994F945A0FC
:108AE00009F10100A0630AF1010070B9606A08B9D8
:108AF000012000E0002068B904F1240000F066FBCA
:108B000040B13EB10120306004E00AF1010040B202
:108B100084F84500012700E0002700BF88F3118892
:108B200000BF3846BDE8F0872DE9F74382B005461F
:108B30000F464FF000082C4600BFFEF7E5FDD4F8C5
:108B40003890B9F1000F1ED0E66839462046FDF78F
:108B500077FCE660606A08B9012000E0002060B997
:108B600004F1240000F032FB38B14FF0805030495E
:108B70000860BFF34F8FBFF36F8FFEF7D7FD012063
:108B800005B0BDE8F083049818B9FEF7CFFD0020CA
:108B9000F6E7B8F1000F04D16846FEF761FF4FF029
:108BA0000108FEF7C3FDFFF7B9F8FEF7ADFD94F934
:108BB0004400401C10B9002084F8440094F945009A
:108BC000401C10B9002084F84500FEF7AFFD04A951
:108BD000684600F049F9F0B92046FDF721FEA0B142
:108BE00004F124000499FEF74DFF2046FDF7FEFF37
:108BF00000F02CFB0028A0D14FF080500C490860F9
:108C0000BFF34F8FBFF36F8F97E72046FDF7EEFF5F
:108C100000F01CFB91E72046FDF7E8FF00F016FB93
:108C20002046FDF7FDFD002887D00020A8E70000C2
:108C300004ED00E02DE9F74183B005460F464FF003
:108C400000082C4600BFFEF75FFDA66BF6B1394663
:108C50002046FDF7F5FB701EA063206908B90120CE
:108C600000E0002060B904F1100000F0AFFA38B164
:108C70004FF080502F490860BFF34F8FBFF36F8FC5
:108C8000FEF754FD012006B0BDE8F081059818B943
:108C9000FEF74CFD0020F6E7B8F1000F04D101A863
:108CA000FEF7DEFE4FF00108FEF740FDFFF736F855
:108CB000FEF72AFD94F94400401C10B9002084F806
:108CC000440094F94500401C10B9002084F8450088
:108CD000FEF72CFD05A901A800F0C6F8F0B9204662
:108CE000FDF79EFDA0B104F124000599FEF7CAFE30
:108CF0002046FDF77BFF00F0A9FA0028A3D14FF032
:108D000080500C490860BFF34F8FBFF36F8F9AE715
:108D10002046FDF76BFF00F099FA94E72046FDF737
:108D200065FF00F093FA2046FDF77AFD00288AD00F
:108D30000020A8E704ED00E02DE9F34182B00546EC
:108D400000272C46B84600BFFEF7DEFCA66BFEB13E
:108D5000701EA063206810B9FEF70CF8A0602069AF
:108D600008B9012000E0002060B904F1100000F013
:108D70002DFA38B14FF080503A490860BFF34F8F59
:108D8000BFF36F8FFEF7D2FC012004B0BDE8F08185
:108D9000039818B9FEF7CAFC0020F6E71FB9684629
:108DA000FEF75EFE0127FEF7C1FCFEF7B7FFFEF7F8
:108DB000ABFC94F94400401C10B9002084F8440036
:108DC00094F94500401C10B9002084F84500FEF7D6
:108DD000ADFC03A9684600F047F840BB2046FDF70C
:108DE0001FFDF0B1206838B9FEF78EFCA06800F0D6
:108DF0009BF98046FEF79AFC04F124000399FEF7E4
:108E000041FE2046FDF7F2FE00F020FA00289BD13B
:108E10004FF0805013490860BFF34F8FBFF36F8F3F
:108E200092E72046FDF7E2FE00F010FA8CE72046BC
:108E3000FDF7DCFE00F00AFA2046FDF7F1FC002801
:108E400082D0B8F1000F0BD0FEF75EFC2046FDF794
:108E50005FFB06463146A068FEF74EFEFEF766FC55
:108E6000002092E704ED00E070B506460C46FEF7E0
:108E70004BFC124802687068131A2068401C08B93D
:108E8000002517E00E4930680968884204D07068F0
:108E9000904201D801250DE02068984207D920684A
:108EA000C01A20603046FEF7DBFD002502E00020FE
:108EB00020600125FEF73AFC284670BD64000020C2
:108EC000780000202DE9FF4F85B08046894617467F
:108ED000DDE912ABB800FDF7DDFE064656B16020B5
:108EE000FDF7D8FE04460CB1266304E03046FEF7D9
:108EF0002DFC00E000248CB1002084F85D00CDE959
:108F000000ABCDE902403A4649464046089BFDF792
:108F100084FB2046FDF7DAF9012501E04FF0FF352B
:108F2000284609B000F000B830BCBDE8C08F2DE97C
:108F3000F04F85B00746884691469A46DDE90EB661
:108F4000109CACB1A6B125462E63022085F85D00C9
:108F5000002004A953464A46CDE900B1CDE90250AC
:108F600041463846FDF759FB2846FDF7AFF901E0C9
:108F700000200490049805B000F000B830BCBDE8B3
:108F8000C08F00000549096809B9012005E00449BE
:108F9000096809B9022000E0002070476C00002039
:108FA0008800002001490868704700006400002024
:108FB0002DE9F041002739480068002866D138487B
:108FC0000068451C364805608DB93648D0F80080E9
:108FD00035480068334908603348C0F8008033489A
:108FE0000068401C31490860FDF75AFD00BF304859
:108FF000006885423AD300BF2A480068006808B973
:10900000012000E0002020B14FF0FF302849086027
:109010002BE024480068C068C4686668B54202D284
:109020002348066021E0201DFEF79CFAA06A18B1D3
:1090300004F11800FEF796FA1E49E06A09688842B2
:1090400002D91C49E06A0860E16A01EB81011A4A11
:1090500002EB8100211DFEF74BFB1849E06A09680D
:10906000C96A8842C8D30127C6E700BF1348006811
:10907000C06A00EB8000104951F82000012800D997
:1090800001270F48006800B1012704E00D4800687F
:10909000401C0C4908603846BDE8F081880000207B
:1090A00064000020540000205800002078000020B8
:1090B00080000020680000203C05002050000020B7
:1090C000740000207000002070B505462C46002674
:1090D0001DB3206D401E2065E16CE06A88421CD003
:1090E000206DD0B9201DFEF73DFAE06CE062E06A29
:1090F000C0F13800A0610A49E06A0968884202D9D3
:109100000749E06A0860E16A01EB8101054A02EB68
:109110008100211DFEF7ECFA0126304670BD0000EB
:10912000680000203C05002070B505462C4600264E
:10913000002D42D02249E06A0968C96A884235D2C6
:10914000A06900F0004028B91D480068C06AC0F15D
:109150003800A061E16A01EB81011A4A02EB81014A
:109160006069884201D1012000E00020C0B1201DCB
:10917000FEF7F8F912480068C06AE0621249E06A36
:109180000968884202D91049E06A0860E16A01EB87
:1091900081010C4A02EB8100211DFEF7A9FA03E0D0
:1091A00007480068C06AE062012606E00449E06CF6
:1091B0000968C96A884200D20126304670BD0000A5
:1091C000500000203C0500206800002070B50646D5
:1091D000F068C46804F11800FEF7C4F91548006887
:1091E000A0B9201DFEF7BEF91349E06A096888425C
:1091F00002D91149E06A0860E16A01EB81010F4A76
:1092000002EB8100211DFEF773FA04E004F118015E
:109210000B48FEF76DFA0B49E06A0968C96A884293
:1092200004D9012501200849086000E000252846EE
:1092300070BD000088000020680000203C05002070
:10924000C4090020500000207400002070B50024E4
:109250000026FEF759FA2E480068401E2C49086087
:109260000846006800284ED12A48006800284AD0E5
:1092700023E02948C068C46804F11800FEF772F9B9
:10928000201DFEF76FF92549E06A0968884202D976
:109290002249E06A0860E16A01EB8101204A02EBA1
:1092A0008100211DFEF724FA1E49E06A0968C96A97
:1092B000884202D301201C4908601748006808B999
:1092C000012000E000200028D3D00CB1FDF7E8FB1E
:1092D0001648056865B100BFFFF76AFE10B10120AE
:1092E000114908606D1E002DF6D100200F4908605D
:1092F0000D48006838B1012630070D490860BFF3FA
:109300004F8FBFF36F8FFEF711FA304670BD00002C
:109310008800002060000020C409002068000020B0
:109320003C05002050000020740000207000002048
:1093300004ED00E02DE9FC4705460E461746984629
:10934000DDF828902C20FDF7A5FC044654B1002040
:1093500084F8280043463A4631462846CDE9009431
:10936000FDF7ACF9204600F000B80CBCBDE8F08772
:1093700010B586B00024FDF705F810480068D0B19C
:1093800000200590049003AA04A905A8FEF77AF925
:109390000222DDE904100023CDE90021029008A19A
:1093A0000948039AFFF7C3FD0849086008460068AA
:1093B00000B1012400BF204606B010BD9C00002073
:1093C000546D722053766300D36B0008A000002018
:1093D0002DE9FF4705460C4616461F46DDF830804E
:1093E0004FF000091448006810B3009401960295EC
:1093F000062C15DAFFF7C6FD022808D100234246E5
:1094000069460D480068FFF77FFA814610E00023A7
:109410001A46694608480068FFF776FA814607E071
:1094200000233A46694604480068FFF7F9FA814686
:10943000484604B0BDE8F0879C0000200000000012
:1094400000000000010203040607080900000000F4
:1094500001020304A0860100400D0300801A0600EB
:1094600000350C0040420F0080841E0000093D00C2
:1094700000127A000024F40000366E010048E80172
:10948000006CDC02004040404040404040404141D0
:1094900041414140404040404040404040404040C9
:1094A0004040404040050202020202020202020263
:1094B0000202020202202020202020202020200260
:1094C00002020202020290909090909010101010F0
:1094D000101010101010101010101010101010108C
:1094E0000202020202028888888888880808080820
:1094F00008080808080808080808080808080808EC
:1095000002020202400000008594000847455420F2
:109510002F667573652D6F74612F25732F25732F3B
:1095200025642F646F776E6C6F61642048545450CB
:109530002F312E310D0A486F73743A20696F742DE4
:109540006170692E6865636C6F7564732E636F6DEF
:109550000D0A417574686F72697A6174696F6E3A49
:1095600025730D0A52616E67653A25642D25640DD9
:109570000A0D0A00474554202F667573652D6F74D8
:10958000612F25732F25732F636865636B3F747993
:1095900070653D25642676657273696F6E3D25732F
:1095A00020485454502F312E310D0A436F6E74658C
:1095B0006E742D547970653A206170706C696361C6
:1095C00074696F6E2F6A736F6E0D0A417574686FE0
:1095D00072697A6174696F6E3A25730D0A486F7308
:1095E000743A20696F742D6170692E6865636C6FC1
:1095F0007564732E636F6D0D0A0D0A004745542084
:109600002F667573652D6F74612F25732F25732F4A
:1096100025642F636865636B20485454502F312EA6
:10962000310D0A486F73743A20696F742D61706947
:109630002E6865636C6F7564732E636F6D0D0A41E0
:109640007574686F72697A6174696F6E3A25730D0B
:109650000A0D0A00504F5354202F667573652D6F05
:1096600074612F25732F25732F76657273696F6E62
:1096700020485454502F312E310D0A436F6E7465BB
:109680006E742D547970653A206170706C696361F5
:1096900074696F6E2F6A736F6E0D0A417574686F0F
:1096A00072697A6174696F6E3A25730D0A486F7337
:1096B000743A20696F742D6170692E6865636C6FF0
:1096C0007564732E636F6D0D0A436F6E74656E74EF
:1096D0002D4C656E6774683A25640D0A0D0A7B226D
:1096E000735F76657273696F6E223A222573222C3E
:1096F0002022665F76657273696F6E223A2022259A
:1097000073227D0D0A0D0A00504F5354202F6675A9
:1097100073652D6F74612F25732F25732F25642F8B
:1097200073746174757320485454502F312E310D69
:109730000A486F73743A20696F742D6170692E68DE
:1097400065636C6F7564732E636F6D0D0A4175747C
:10975000686F72697A6174696F6E3A25730D0A4396
:109760006F6E74656E742D547970653A20617070F7
:109770006C69636174696F6E2F6A736F6E0D0A4353
:109780006F6E74656E742D4C656E6774683A2564EF
:109790000D0A0D0A7B2273746570223A25647D0DD3
:1097A0000A0D0A00C8CECEF1C3FB0909C8CECEF11E
:1097B000D7B4CCAC09C8CECEF1D3C5CFC8BCB6099E
:1097C000C8CECEF1D4ADCABCD3C5CFC8BCB609C8CB
:1097D000CECEF1B1BBB7D6C5E4B5C4CAB1BCE409BD
:1097E000C8CECEF1D5BBC0FACAB7CAA3CFC2D7EE96
:1097F000D0A1D6B509C8CECEF1B4B4BDA8B4CED0F0
:10980000F20D0A0072756E20202020006E756C6CBF
:1098100020202000626C6F636B2020007265616401
:109820007920200064656C657465200068616E674E
:10983000207570005498000800000020B00400005B
:10984000F60900080C9A0008B0040020B09C000043
:109850000E4A000801243210021301F914037D0995
:109860003D1AAA01011C185F76657273696F6E3D1F
:10987000323032322D30352D3031267265733D75E0
:109880007365726964253246333730303932266564
:10989000743D31383530343734313232266D6574A9
:1098A000686F643D6D6435267369676E3D4F45444E
:1098B0006333546B764F464A617439795456373165
:1098C0006474672533440301CB500B4152637243E8
:1098D000505739313730087570677261646574307C
:1098E0002E306B56360B190A7236021002A2048013
:1098F0000DC9CFB1A8B0E6B1BED0C5CFA2E80DBCAE
:10990000ECB2E2C9FDBCB6C8CECEF11485D7B4CC5A
:10991000AC2DCFC2D4D814ADB0FC202050E92841E2
:10992000136C02392413D5741B08990432015A8030
:1099300014132D57140839562A08A85A941413F9E9
:10994000551B08890432035AA8141BB95814192C42
:1099500029BF5ABC141A214C4BBD73500130C3416E
:10996000541C1027E86D13356E1408C15266084167
:10997000544530295A491C1A5D1C13055366084387
:1099800050494E29B2251027D0071AB11C2A851C30
:109990006452454729BA251027B80B1ADD1CBACDE9
:1099A0001C29C249381A851C2A411C7353517A0557
:1099B0007013096F14082554400808514943534750
:1099C000507A061C1A651C3AC51C2D44454143C9F2
:1099D000194D591C1AA11C2B01551C491A218A0822
:1099E000E0191C3A89383C4F5045C67A09A81AD16B
:1099F0001C1A4138811304981B081C041A14041AF9
:0C9A00002C041A24041A0C0401100000AD
:040000050800018965
:00000001FF
